:1040000008640020E9FB0200F9A90000E9F70200BA
:10401000A70A0A010041000004180FAC806775016F
:104020000000000000000000000000000000000090
:1040300000000000B40103000000000000000000C8
:104040000000000000000000FFFFFFFFFFFFFFFF78
:10405000FFFFFFFF007003000000000000000000F1
:10406000FFFFFFFFFFFFFFFF100000000000000048
:104070000000000000000000000000000000000040
:104080000000000000000000F07F0020F07F002012
:1040900008640020381903007AFC0200A85A0020A6
:0C40A000AC120020000004000000000032
:1041000008640020E9FB0200F9A90000E9F70200B9
:10411000A9F70000EDF70200F1F70200000000002F
:104120000000000000000000000000000762000026
:10413000F5F7020073420000D3630000AF8E000069
:104140008DF90000FD6101007D790000915C0100A6
:10415000396201000362010005620100FF61010094
:10416000038000005D82000001D30000FD450000D7
:10417000FDF70200FDF70200D7F90200FDF702008B
:10418000FDF702006B820000FDF70200FDF7020060
:10419000FDF70200FDF70200FDF70200FDF7020047
:1041A000FDF70200FDF70200FDF702003B6201008F
:1041B000016201000D9C01006B620100FDF702002D
:1041C0004DFB0200FDF702002DE9F04104460125F8
:1041D000012C18BF202C8AB00F4690461E4619D1DC
:1041E00068462149282200F045F8012C18BF202CF0
:1041F00008D0022C18BF212C04D0032C1CBF222C69
:10420000232C14D1012E0197ADF80C8004D14FF46A
:10421000805005E001200BE0022E03D14FF4405006
:10422000ADF80A006946204600F0B6FA0546E8B245
:104230000AB0BDE8F08180B500F054FBC0B202BD09
:1042400000F09EBB80B500F0A5FBC0B202BD0CB46F
:1042500080B50A46014602AB044800F0B1FC02BC3E
:1042600000205DF80CFB00007CFC0200794A000095
:10427000704770474AB1000011F8013B521E00F828
:10428000013B1CBF11F8013BF8E77047010008D45F
:10429000012200F01F01DFF814388A40400943F87A
:1042A0002020704701000CD4012200F01F01DFF82C
:1042B00000388A40400943F82020BFF34F8FBFF3F6
:1042C0006F8F7047010008D4012200F01F01DFF852
:1042D000E4378A40400943F820207047C26C1143FC
:1042E000C1647047012818BF202801D10120704700
:1042F0000020704710B5012818BF2028DFF8B84704
:1043000005D040F28311DFF8B40700F055FD2046D8
:1043100010BD426893884089411A8B4201DA01201E
:104320007047002070473EB50446FFF7DBFF98B3A7
:10433000204600F075F878B300F0A6FA044600F0C5
:1043400037FE0546A06901AB6A4602A901F0C5FD2A
:1043500000992289206889B200F023F8284601F0EC
:104360004FFFA06901F031FE012815D12268218993
:104370009088228A091A91420EDBA06990F83110C8
:10438000022903D101F0A7FD022803DAA06900F099
:10439000A5FA01D100F001F837BDA069002101F0B4
:1043A000EDBD70B504460E46154600F001FEE288EC
:1043B000B2420CD221888B1A991991FBF5FC05FBAE
:1043C0001C152580A388F3189A1AA280E680BDE800
:1043D000704001F015BFF8B504460D46164600F0D2
:1043E0001FF8B0B100F050FA0446207B10B1012153
:1043F0006173F1BD607B18B12046BDE8F240ABE0CF
:104400000FF2BD1700F006F818B100F003F800280D
:10441000FBD1F1BDA0693B463246294601F0B3BE4F
:10442000012818BF202801D10120704700207047C3
:1044300070B506460D46FFF75DFF012E18BF202E12
:10444000044643D1A069016890F83200E0B9042223
:104450008A6400F03AF9A06900683DB10421FFF7D1
:104460003DFF0B20FFF712FF052107E0C16C21F093
:104470000401C1640B20FFF715FF0021A06900684B
:10448000BDE8704001F0ECBE0420486300F01DF967
:10449000002DA0690BD001688A6B42F004028A6388
:1044A0004FF40061DFF804261160052109E000687F
:1044B000816B21F0040181630B20FFF7F3FEA069FB
:1044C00000210068BDE8704001F04DBF70BD38B5F7
:1044D0000446DFF8EC0581421ED0DFF8DC55A86900
:1044E000A04219D12A89286899B2FFF75AFF286893
:1044F0000021C18002E0284600F00FF8204601F0BC
:10450000EAFC032808DA00F033FAF4DA2046BDE8C2
:104510003440012101F032BD31BD70B50446DFF8F1
:10452000A435E089668A2568024670432E18A06982
:1045300006F1080101F0E3FDA06901F0CCFC0128BF
:1045400001DDFFF72AFF608AA18A401C90FBF1F28F
:1045500001FB1200608270BDFEB50446207B68BB83
:1045600060680FF25D064188084400F10807A06901
:104570006B4601AA02A901F0D1FC61688A88009803
:10458000019D121A551B4A88088890420ED26189F3
:10459000A0698A1A3346394601F0F5FD70B96268A0
:1045A000618950886D1A451902F10807A0693346E0
:1045B000EAB2394601F0E7FD00B96073F7BD0000CB
:1045C00070B5DFF8F454A96981421C4615D16868BA
:1045D0008188A14238BF848800F0EAFC69684A8873
:1045E0006B8912FA84F292FBF3F603FB16224A80DF
:1045F00069688A88141B8C80E9E670BD38B5202074
:10460000FFF778FE0546DFF8C004A96991F831206C
:10461000012A3FD101690A0640D501F091FE112817
:1046200009D1A869002101F0B6FC002028732846B2
:10463000BDE8324090E7132806D1A869012101F0B6
:10464000AAFC0120287331BD29682A898C88141B93
:10465000A4B25CB101F108020988505428680188AD
:1046600000F07FF901808188491C8180A86901F0F0
:10467000ACFC20B9E889A04210DB012105E001284B
:104680000CD1288A844209DB0021A869BDE83440A6
:1046900001F074BCC16C21F00401C16431BD10B5DE
:1046A000DFF8244428B92046BDE81040002101F07D
:1046B000D7BD00F00AF8DFF8F4134FF4006008608B
:1046C000E26C42F00402E26410BD0B20FAE580B512
:1046D00030B9BDE804400521DFF8EC0301F0C0BDAE
:1046E000FFF7F3FFBDE802400B20DBE5F8B50C4611
:1046F0001546FFF7FFFD0646306881883289E8B22B
:10470000121A914201DB0120F2BD00270EE000F0F9
:104710004FFC316814F8012B01F1080309885A5441
:104720007F1C31680A88338900F044F9AF42EED328
:104730000020F2BD80B5012818BF202806D1FFF760
:10474000D9FD806901F041FC012800D0002002BDA4
:1047500010B5012818BF20281CD1FFF7CBFD044657
:10476000A06901F090FB800414D56168888888B93D
:10477000A06901F0CFFB002802BFA06990F83210B9
:10478000002907D101F07FFB00F44030401E80413A
:10479000C00F10BD002010BDF8B5012818BF20289B
:1047A00004460D4638D100F0BDF910B9204600F09E
:1047B0006DF800F069F8064600F066F8012C18BFA5
:1047C000202C29D1DFF80413DFF8042301608023B3
:1047D000012C18BF202C42600381438152D1012C4F
:1047E00016BF202CDFF8EC020020012C18BF202C73
:1047F000B06111D1DFF8E012DFF8E002E961A861F1
:10480000A98CF181EB8C33828B4207D21C2130467C
:1048100001F0DCFD0220F2BD0120F2BDB26992F888
:10482000310001280CD0308990FBF1F701FB170013
:10483000002802BF93FBF1F001FB10310029E5D104
:104840002946104600F0BAFEE8B9B069017F007E43
:104850000123022201F02EFE287C012807D101212C
:104860002046FFF7E5FDB069FFF798FD0AE000205C
:1048700070823189F08991FBF0F0B08200F04FF93D
:1048800000F04DF90020F2BD204633E558B501286F
:1048900018BF2028044611D100F044F9D8B92046A9
:1048A00000F01EF9FFF7F0FF012C18BF202C064680
:1048B0000DD1B06901F01BFA10B152BD012052BDFB
:1048C00000F00BF803D100212046FFF7B1FD1C21B9
:1048D000304601F07BFD002052BDB06990F83110E8
:1048E00001297047F8B50128074618BF20280E4651
:1048F0003C460AD1FFF7FEFC05463846FFF713FD9C
:104900002968888818B92620F2BD0120F2BD00F080
:104910004FFB0746286800F1080140880A5C3270A6
:104920002868418800F01DF8418081884A1E012CCA
:1049300018BF202C82800FD1A869FFF7CFFF03D1C9
:104940000AE02846FFF7E9FDA86901F0C4FA022849
:1049500002DA00F00DF8F4DA384601F051FC0020DC
:10496000F2BD2A89491C91FBF2F302FB1311704737
:104970002889E9892A68A0EB41009188884270471C
:1049800080B5FFF7B7FC01464A6848899188401A0C
:1049900080B202BD02B5012818BF202804D101222F
:1049A000694600F013F802BD012002BD41465046A1
:1049B000FFF711BD521C92FBF3FC03FB1C220A8083
:1049C0008A88521C8A8001F01BBC00002DE9F84F38
:1049D000824601281CBF202801208846914649D1E3
:1049E000FFF788FC0446002660680188084400F14F
:1049F000080B002727E000F0DBFA61680B8818F845
:104A0000012B19440A7261680A886389521C92FB5F
:104A1000F3FC03FB1C220A808A88521C8A800988C6
:104A20004D1EAD4101F0ECFBED0F5DB1FDB26D1C13
:104A3000AD1BEAB25946FFF7BAFF6068AE19F6B28D
:104A400000F1080B7F1CF8B248450AD2002120462D
:104A5000FFF75FFC0028CED1207B0028F6D0222073
:104A600008E04E4505DAA9EB060082B25946FFF789
:104A70009EFF0020BDE8F28FF8B501260746012F02
:104A800018BF202F0C4615460DD1FFF733FC012F20
:104A900018BF202F05D180692A46214601F097FAD8
:104AA00006463046F2BD0120F2BD000000E100E004
:104AB00080E100E080E200E074690020A4FC0200D4
:104AC000097000F0CF440000000001401C6A002083
:104AD000A46A00202C6B0020886400200864002059
:104AE00070B50546FFF706FC0646012D346818BF71
:104AF000202D0BD1FFF7F1FE08D0022101F039F98A
:104B00000020708200F00BF800F009F800F050FA75
:104B10000021A18021806180E180FFF758BC3046F0
:104B2000FFF7FBBC80B5012818BF202806D1FFF78E
:104B3000E1FB00281CBF0068002801D1012002BD54
:104B4000002002BD70B5134610440BE001F00F06C3
:104B50000909451E0A2EACBF37243024A419284663
:104B60002C705B1EDCB2002CF0D1104470BDF0B58F
:104B7000002341B1002806D52D2313700123B0F185
:104B8000004F18BF404200210024894D55F8247081
:104B9000002601E0C01B761CB842FBD2F7B20FB969
:104BA0000F0004D0D9B2303656545B1C0121641C6E
:104BB000092CEBDBD9B2303050545B1CD8B2F0BDBD
:104BC0002DE9F84F804696B014A8894615469B46B5
:104BD00004AF4FF0000A002401901EE001240546B6
:104BE0000DE03429FAD15BF8046B0422310C38460D
:104BF000FFF7A8FF0422B1B2FFF7A4FF074601990F
:104C00008F4209D39DF800003F1A00F0C5F8002834
:104C100053D15AFA87FA04AF6D1C04A88DF800002E
:104C20009DF800002978381A00290BD0252903D0D7
:104C300014B907F8011BE2E7002C14BF00246D1C17
:104C400029780A0000F09B80B1F1250216D00B3ABA
:104C5000092A40F28380283A7AD00A3A12D0521EAA
:104C600042D0521E5CD0083A5AD0121F3FD0D21EFA
:104C70003DD0921E54D0D21E6AD0C0E7252007F83E
:104C8000010BBCE704A8DBF80010DBF804208DF86A
:104C900000000BF1080B3846039102920027029A9C
:104CA0009742ABD20399C95D0222FFF74BFF0199EE
:104CB000884206D300F074F8002869D15AFA86FABF
:104CC00004A80299491E8F423CBF202200F8012B04
:104CD0000199884206D300F063F8002858D15AFAA7
:104CE00086FA04A87F1CDAE75BF8040BC7E75BF8D9
:104CF000046B074600F050F8002849D15AFA87FAA9
:104D000004AF0022314600E0521CD6B2885D002874
:104D1000FAD1D2B24846C047002839D1B2446EE732
:104D20006C290AD16A785BF8040B752A0EBF002142
:104D30000121642A07D16D1C05E075295BF8040B7D
:104D40000CBF002101213A46FFF711FF074456E747
:104D50005BF8041B0222C9B238464DE7687801248B
:104D6000782818BF5828F2D16D1C0024681E3229FB
:104D70007FF437AF5BF8040B81B20422ECE7054601
:104D8000EAB200F00AF818B9AA445FFA8AF000E023
:104D9000002017B0BDE8F08FFAB204A9484640479A
:104DA0009DF80020861AF2B204A948464047000048
:104DB000A002030042DE704738B504460D4601F0FC
:104DC000BDFF02F00DFE02F02BFE2946204602F048
:104DD00050FE2B4622466C490120FFF738FA29463F
:104DE0002046BDE83440E5E768482DE9F843684EC1
:104DF0000168B1654FF42068026A6649F2650B6884
:104E0000336649687166426AB266816AF166C26A4F
:104E10003267016B7167806B96F83810B06748078E
:104E20004CBF346CF46B02F0ABFF0022326584425D
:104E3000594B014624BFA3F12007A742A146716543
:104E400006F19002DFF854C1DFF854E118D3A069ED
:104E50007064E469B464B56DC5F30805062D13D11B
:104E6000704511D360450FD200884DF64264A042D0
:104E70000AD17068B4685060946040F2017803E031
:104E800000247464B46481464648814202D20146DB
:104E900000E0091D0846984203D20C68B4F1CD3FEA
:104EA000F7D04149081AF0640021002006F17C0483
:104EB000C5B2401CC7B244F82510062FF8D3002015
:104EC00099452CD253F8041D7145F9D36145F7D2A9
:104ED000CC07F5D5002406F17C0555F824708F42E7
:104EE00002D0641C062CF8D3062CE9D1C4B2002CE5
:104EF0000CBF0520401E06F17C04C5B244F8251005
:104F0000DEE7F16F002306F17C0506EB8304D4F89D
:104F1000804045F823405B1C042BF6D91160014604
:104F2000481EC9B20029ECD1B06DC0F308000328B7
:104F300010D0042811D0052812D0062813D00C2830
:104F400017D0122818D119480268910719D540F2D4
:104F5000025816E040F6012813E040F6022810E05F
:104F600040F603280DE0B8F5206F0AD140F604287A
:104F700007E040F6052804E018B1322838BF40F6B3
:104F800007284046BDE8F28308FD020004ED00E07A
:104F90000000002000E300E0086400207AFC02002A
:104FA000C84100009C000020086400201C2005402F
:104FB000EFF31180602181F31188704710B500F084
:104FC0000DF804F1806404E010B500F007F804F176
:104FD000C064012303FA01F1216010BD3022DFF823
:104FE000D0355043184400F10C0470471CB50093B1
:104FF00013469DF8104001940A4601F01EFA13BDB5
:1050000090F83110022910D1437EDFF8A425407FAB
:1050100030214B43D11801F11C02800000EB4210FB
:1050200000F184400068C0B270470020704738B576
:105030000021DFF8802552F82140637F834203D0AE
:10504000491C0429F7D331BD34B304F12E05E878A7
:10505000022821D12046FFF7D3FF617D2075022968
:1050600004BF2878002817D100218DF80010694668
:10507000606802F08CFF217D09B1697829B10020B8
:105080006870606802F053FF31BD28B99DF80000D8
:1050900010B1606802F03DFF31BD1CB5044694F8C4
:1050A000310002280FD1607D18B1012806D0207D83
:1050B00020B9A17FA07EFFF781FF1AE0A17FA07E2B
:1050C000FFF782FF15E0012813D1207D002807BFDC
:1050D00011218DF8001013208DF80000204600F0FB
:1050E000F7FF01226946204600F071FF204601F0DB
:1050F0002FF8002016BD2DE9F041044688461646DB
:10510000FFF756FF0546A088E188884207D30020B4
:105110003060284601F074F8DFF89C041EE0208817
:10512000142704F108037843142241461844FFF77A
:10513000A1F8218804F108004F43C119316020888B
:10514000E188401C90FBF1F201FB12002080A08856
:10515000401CA080284601F053F80020BDE8F081F3
:1051600038B504460D46FFF723FFA18811B9002288
:105170002A6027E0628814214A43A11801F108033C
:105180002B606188E288491C91FBF2F302FB13114A
:105190006180A1884A1EA28010E038B505460C4601
:1051A000FFF706FFA98811B9002222600AE06A8889
:1051B00014214A43A91801F10803236001F020F8E3
:1051C000002032BD01F01CF8DFF8B40A32BD90F8BF
:1051D000321059B902680121D16000680169CA071B
:1051E000FCD5416F41F001014167704701290ED1A3
:1051F00001684A6C9107FBD4036801225A60006879
:105200008168CA07FCD5416D41F0010141657047D5
:1052100090F8321041B901684A6F520852004A674B
:1052200002210068C160704701290BD101684A6CF6
:105230009107FBD40268516D49084900516502216C
:1052400000684160704730B500F12C0385B0012241
:105250001A709A799AB902680FF27504049002F1F3
:105260001C0300220394029201244D6801950094CE
:105270000A680169806802F02FFE05B030BD012A7E
:10528000E9D000201870F8E730B500F12D0385B0A3
:1052900001221A705A7992B9026834320FF2291336
:1052A000049000240393029401234D680093019518
:1052B0000B68C168406802F009FE05B030BD012AE4
:1052C00002D102682832E9E700201870F5E70000F3
:1052D000F8B515466946686AFFF75FFFDFF8A01961
:1052E000884268D005F12C06DFF89819B07940B9EA
:1052F0002A68136C9A0504D500F05FF84FF400712A
:105300000DE0DFF8842968B92B681C6CE30509D52A
:10531000009802610021009881604FF480712A6832
:1053200091641CE0012809D12B68DC6A230605D5AD
:1053300000F043F880212A68516310E001280CD165
:105340002868C16A480608D500990A6100200099BA
:10535000886040202A68506301E000F063F8FFF79E
:1053600027FE07460098C4683CB143680146886838
:105370000A6809691B1A2846A047686A6946FFF748
:10538000EFFE686A818831B100F0C1FD00992846BE
:10539000FFF759FF0CE0012028752846FFF77DFE36
:1053A00000203070717903291CBF2846FFF730FFB9
:1053B000384600F025FF0120F2BD00980161002170
:1053C0000098816070470000F8B5154605F1280681
:1053D00069463068FFF7E1FEDFF8A41888421FD065
:1053E00000F020F8FFF7E4FD07460098C46824B1F8
:1053F0004368026800212846A04730686946FFF7E5
:10540000AFFE3068818831B100F081FD00992846F7
:10541000FFF73AFF01E000207071384600F0F0FE1F
:105420000120F2BD00990020086100998860704752
:1054300010B9DFF858087047002918BF002A03D0B8
:1054400040F60100824202D3DFF844087047002092
:1054500070471CB504460A00E17EE07D1ED00123A2
:10546000042201F027F8217F207E0123022201F08F
:1054700021F894F83100022809D100F034F8A17F16
:10548000A07E0023042201F015F8012017E0032874
:1054900027D100F028F8002304221EE000F02BF8AA
:1054A000217F207E00F027F894F8310002280ED1E9
:1054B00000F01FF8A17FA07E00F01DF800200090F2
:1054C00001230122617F607EFFF790FD09E0032840
:1054D00007D100F00EF800230022A17FA07E00F08B
:1054E000E9FF002016BD617F607E0023012200F0ED
:1054F000E1BF617F607E0023002200F0DBBF10B5BA
:10550000DFF890372B4A197839B9002442F8214046
:10551000491C0429FAD301211970002352F82310E1
:1055200031B1814204D05B1C042BF7D300F0E5BD00
:1055300042F82300002010BD10B541620021436AEB
:1055400019800024416A4C80416A8C8000F12C0152
:105550000C708262836A1C80826A5480806A8480B4
:105560004C70CC7010BD10B50446DFF82C17607F6E
:1055700002F054FE02F043FE0020A07520750220C8
:1055800060752046BDE8104087E538B5044602F056
:1055900075FC0021201D02F00DFCDFF8005728B932
:1055A000002104F1080002F005FC00B1284632BDDC
:1055B00000A00040207500200A7000F0F0B587B010
:1055C00004460D466846DFF8D8161C22FEF752FE48
:1055D00014B9DFF8B80650E3002D00F02C83382111
:1055E000204600F0F3FE2046FFF789FF0028F2D1A5
:1055F00004F13100297CDFF8AC76DFF8AC6601708D
:1056000000232A68226043702868B84209D1DFF875
:105610009C06DFF89C162062E1604FF44020206178
:105620000BE0B04240F00783DFF88816DFF8880609
:105630002162E0604FF450212161EA69A9692046A6
:10564000FFF77AFF6868029005226889ADF81000BC
:10565000A889ADF80E00A87B8DF80C00E97BDFF877
:105660005C068DF812108DF80D2000F037FB00F06D
:1056700030FB206A00F032FB00F033FB00F0F7FD56
:105680002968DFF83C068A6F00F01CFB8A6703225A
:105690004A67FF212068B84240F04C81287A0028F0
:1056A00018BF012807D0022818BF032803D00428F8
:1056B00018BF052801D100203AE0062818BF0728A6
:1056C00004D008281CBF09280A2801D101202FE096
:1056D0000B2818BF0C2807D00D2818BF0E2803D0A0
:1056E0000F2818BF102801D1022021E0112818BF6F
:1056F000122808D0132818BF142804D015281CBF5E
:105700001628172801D1032012E0182818BF1928DD
:105710000BD01A2818BF1B2807D01C2818BF1D281B
:1057200003D01E2818BF1F2801D1052000E0FF204C
:10573000E075687A002818BF012840D002281CBFF5
:10574000032804283BD0052818BF062804D00728C2
:105750001CBF0828092801D1012033E00A2818BFFE
:105760000B2807D00C2818BF0D2803D00E2818BF0F
:105770000F2801D1022025E0102818BF112808D0D9
:10578000122818BF132804D014281CBF1528162867
:1057900001D1032016E0172818BF18280BD01928AC
:1057A00018BF1A2807D01B2818BF1C2803D01D2893
:1057B00018BF1E2801D1052004E01F2801D10020B8
:1057C00000E0FF202076287A00283FD0012841D031
:1057D000022843D0032845D0042847D0052849D0C3
:1057E00006281FD0072821D0082823D0092825D033
:1057F0000A2827D00B2841D00C2843D00D2808BFF9
:10580000082042D00E2805D00F2807D0102809D034
:10581000112801D1092038E0122801D10A2034E0F2
:10582000132801D10B2030E0142801D10C202CE0EA
:10583000152801D10D2028E0162801D10E2024E0E2
:10584000172801D10F2020E0182801D100201CE0EA
:10585000192801D1012018E01A2801D1022014E0F2
:105860001B2801D1032010E01C2801D104200CE0EA
:105870001D2801D1052008E01E2801D1062004E0E2
:105880001F2801D1072000E0FF20E076687A002879
:1058900038D0012839D002283AD003283BD0042838
:1058A0003CD005281DD006281ED007281FD0082868
:1058B00020D0092821D00A2833D00B2834D00C2836
:1058C00008BF082100F091810D2804D00E2805D0D2
:1058D0000F2806D0102800F04D81112800F04E81CD
:1058E000122800F04F81132800F05081142800F096
:1058F0005181152800F05281162800F05381172895
:1059000017D0182800F05481192800F055811A2862
:1059100000F056811B2800F057811C2800F05881A8
:105920001D2800F059811E2800F05A811F2840F0E0
:105930005C8159E1B04240F07E81287A002818BF8E
:10594000012807D0022818BF032803D0042818BF55
:10595000052801D100203AE0062818BF072804D006
:1059600008281CBF09280A2801D101202FE00B2894
:1059700018BF0C2807D00D2818BF0E2803D00F28F9
:1059800018BF102801D1022021E0112818BF1228C9
:1059900008D0132818BF142804D015281CBF1628B7
:1059A000172801D1032012E0182818BF19280BD09E
:1059B0001A2818BF1B2807D01C2818BF1D2803D081
:1059C0001E2818BF1F2801D1052000E0FF20E07528
:1059D000687A002818BF012840D002281CBF03287D
:1059E00004283BD0052818BF062804D007281CBF70
:1059F0000828092801D1012033E00A2818BF0B2804
:105A000007D00C2818BF0D2803D00E2818BF0F2868
:105A100001D1022025E0102818BF112808D0122833
:105A200018BF132804D014281CBF1528162801D12C
:105A3000032016E0172818BF18280BD0192818BF04
:105A40001A2807D01B2818BF1C2803D01D2818BFF0
:105A50001E2801D1052004E01F2801D1002000E00C
:105A6000FF202076287A00283FD0012841D0022844
:105A700043D0032845D0042847D0052849D006281C
:105A80001FD0072821D0082823D0092825D00A288C
:105A900027D00B2841D00C2843D00D2808BF082060
:105AA00042D00E2805D00F2807D0102809D0112881
:105AB00001D1092038E0122801D10A2034E013284E
:105AC00001D10B2030E0142801D10C202CE0152846
:105AD00001D10D2028E0162801D10E2024E017283E
:105AE00001D10F2020E0182801D100201CE0192846
:105AF00001D1012018E01A2801D1022014E01B284E
:105B000001D1032010E01C2801D104200CE01D2845
:105B100001D1052008E01E2801D1062004E01F283D
:105B200001D1072000E0FF20E076687A00283FD00E
:105B3000012841D0022843D0032845D0042847D06B
:105B400005281FD0062821D0072823D0082825D0D3
:105B5000092827D00A283FD00B2841D00C2808BF9D
:105B6000082142D00D2805D00E2807D00F2809D0D3
:105B7000102801D1092138E0112801D10A2134E08F
:105B8000122801D10B2130E0132801D10C212CE087
:105B9000142801D10D2128E0152801D10E2124E07F
:105BA000162801D10F2120E017281DD0182801D177
:105BB00001211AE0192801D1022116E01A2801D189
:105BC000032112E01B2801D104210EE01C2801D181
:105BD00005210AE01D2801D1062106E01E2801D179
:105BE000072102E01F2800D100212177687C607620
:105BF000A97C6177E87CA0762046297DA1770121E8
:105C0000FFF727FC002838D1FFF7D2F90646287C99
:105C1000032813D1286895F8201095F8212041EA2F
:105C20000221C167416E41F004014166416F41F0BC
:105C30003001416707E0DFF8AC051EE0022804BF31
:105C40002046FFF790FC28684FF0FF3181642A7CE2
:105C5000032A0CBF0521042100F002FB29684FF440
:105C60004060C8602046FFF790FC0446304600F0D4
:105C7000C7FA002C14BF2046002007B0F0BD00007A
:105C80000B7000F00D7000F00C7000F0027000F06E
:105C9000037000F0C07F00202F5000000E7000F055
:105CA00074020300000001400004014000220400CF
:105CB00001000C000032040001000D00404105000D
:105CC000E0E0FFFF2B7A0240687A42EA03220243B7
:105CD00070470121DFF8140502F08EBB012102F0AC
:105CE0008BBB00208DF8000069462868704738B5E6
:105CF000040002D1DFF8F00432BD032100F039F8CE
:105D00000021204600F03AF900212046FFF7A1FBD0
:105D100004F13105687818B921680A20C8600AE0E2
:105D2000012808D1206800F02CFB2068416C8A070C
:105D3000FCD40A2141600021206A02F05DFB287832
:105D4000032803D0607F002102F068FA606802F047
:105D500077F8A06802F074F802F056F8606A002143
:105D6000018041808180A06A018041808180002083
:105D700032BD2DE9FE4305000E4608BFDFF868047A
:105D80007AD0FFF715F9012E814605F12C07DFF8CF
:105D9000608425D1A96A888890B3686802F0E2F827
:105DA00000207870AA6A908880B369461046FFF791
:105DB000F4F9009800F10801686802F00FF9009802
:105DC000C0F81080AA6A908800B369461046FFF7B1
:105DD000C7F90098C468002CF4D000F04FF8F1E740
:105DE000022E03D1696A8888C8B909E0032E14D14C
:105DF000A96A8888002802BF696A88880028CCD1EF
:105E0000484600F0FDF9DFF8EC0335E0284600F0E5
:105E10003AF88004FAD5022E01D0032E28D1A868C2
:105E200002F0A0F8002038706A6A9088D0B101A909
:105E30001046FFF7B2F9019800F10801A86802F0D6
:105E4000CDF80198C0F8108008E001A91046FFF7CE
:105E500087F90198C4680CB100F010F86A6A90885C
:105E60000028F2D1787903281CBF2846FFF7D0F923
:105E7000484600F0C5F90020BDE8FE838368002293
:105E80004146284620470246002092F8321011B9B8
:105E900010680069704701291CD1116889688A0758
:105EA00048BF0220CA0748BF40F001004A0748BF68
:105EB00040F008000A0748BF40F02000CA0648BF6B
:105EC00040F040008A0648BF40F08000490648BFC5
:105ED00040F400507047406A1DE02DE9FC4100F09D
:105EE00046F8686A82881E4662B100F010F80446DF
:105EF000A86801A902F072F8009818B114B900F06E
:105F00002DF803E000213160002038601FE0694671
:105F1000FFF743B9806A8088C0B270472DE9FC4121
:105F200000F025F8A86A82881E4662B1FFF7EFFFED
:105F30000446686801A902F051F8009818B114B934
:105F400000F00CF803E00021316000203860C8F850
:105F500000002846FFF797FFBDE8F68141680198E9
:105F6000091A3960019931600098006870478846C5
:105F700005460021009101911746704790F83120A5
:105F8000032A02D1DFF8700270474175022918BF59
:105F90000175FFF782B880B500F11602D37E012BA0
:105FA00001D1022902D1DFF8500202BD13788B42E1
:105FB00009D011700A0002D100F0CAF803E00129EB
:105FC00008BF00F085F8002002BD007D70472DE974
:105FD000F041044688461646FFF72AFA002875D194
:105FE000082002F06FFD054604F12E0702E00DB116
:105FF00002F007F8A06A818811B138780028F6D03D
:10600000387910B921680D6905E0012818BF00250D
:1060100020D121688D6815F002051BD150B90420EC
:10602000C860206801698A07FCD5416F41F0020110
:1060300041670FE001280DD12068416C8A07FBD42D
:1060400004214160206881688A07FCD5416D41F0D8
:10605000020141650120B870387938B101280DD1AD
:106060001DE018F8011B104600F071F93046461E7D
:1060700022680028F5D110698106FCD52DBB38793E
:10608000B0B92068416F21F0020141670820216802
:10609000C8601AE018F8011B104600F088F9304675
:1060A000461E22680028F5D190680107FCD5E5E777
:1060B00001280AD12068416C8A07FBD4416D21F088
:1060C000020141650820216848600020BDE8F08198
:1060D00010B5040000D110E094F82E0030B920462D
:1060E000FEF78EFF10B9606801F013FF94F82E00E0
:1060F000401C84F82E00002010BD3B4810BDF8B5B0
:1061000086B000F064F8E0B9019602970397049511
:106110006A463A49059101A9606AFEF7ECFF80B929
:1061200004F12C05287858B92046FFF750F800995B
:106130002046FFF788F86879032801D000F003F8BB
:10614000002007B0F0BD002121752046FEF7A5BF55
:1061500010B5040000D1D0E794F82E0088B194F86F
:106160002E00012806D12046FEF74AFF10B96068CC
:1061700001F0DDFE94F82E00411E84F82E10002060
:1061800010BD1D4810BDF8B586B000F020F8E0B98C
:10619000019602970397049504F128051749059184
:1061A00000F01BF888B9687970B9FEF701FF29681B
:1061B0000646888828B100992046FFF765F8012037
:1061C0002872304600F01CF8002007B0F0BD0446ED
:1061D0000E4617461D46FFF72BB96A46286801A9E7
:1061E000FEF789BF037000F0027000F000250A007E
:1061F000097000F0087000F0057000F0017000F008
:1062000080F311887047FEE770B5044615461E46B8
:1062100019B9454802F020F90146300006D0202E79
:1062200018D0402E18D0602E18D070BD10202268D3
:1062300022F06002454322606808236800EB4110A9
:10624000B0FBF5F01E4320383849266001EAC00152
:10625000616170BD0820EAE70620E8E70420E6E770
:10626000CA43520002F00A02C260C160704738B5EA
:1062700004460D4600F038F8A87C18B1216841F0BA
:1062800080412160E87C18B1287D40F08000A06545
:106290006A7BB5F91010B5F90E000A43024362603B
:1062A0002B7BAA6869682046FFF7AEFF00F00BF869
:1062B000606F20F030006067616F287E0143616786
:1062C0002978E16031BD687D18B1216841F48031E1
:1062D0002160A87DE97D0007090500F0E04001F498
:1062E000E00108432066704740F6AA61C1600022C1
:1062F000026041F205034360002181604261C16494
:106300000B4A0C4B82640166002242678167C267B8
:106310009842094914BF884202658265884204BFD9
:1063200006490A607047000040410500F8FF7F0001
:10633000F9FF010000000140000401405C0401403D
:1063400001690A06FCD5FFE7C069C0B2704702695F
:106350005306FCD541637047026CD30702D4426CEC
:106360000A42FCD1704738B500F007F8E843400016
:1063700000F00A000543656031BD0D460446022168
:10638000EAE7416C0029FCD101220264EA21416064
:1063900000220260C260002101614261816340F21B
:1063A000F9724263C163416581650164704738B524
:1063B00000F006F840212046FFF7CEFFA56231BD70
:1063C00004460D46A068C206FCD57047002202F0C4
:1063D0009FBBFEE7890001EB401101F184410A6097
:1063E000704700F1C0600160704700F1806001609B
:1063F000704738B504461546FFF7F7FF2946204693
:10640000BDE83440EDE710B500F011F8BDE81040EC
:1064100003FA01F102F10C00E7E710B500F007F80C
:10642000BDE8104003FA01F102F10C00D9E7302277
:106430003C4C50430123221870472DE9F04101F0F4
:106440000305164603240F21082E98460CD2B700E8
:1064500000FA07F2B9403448FFF7CBFF05FA07F21C
:1064600004FA07F131480DE0A6F10802970000FA9E
:1064700007F2B9402E48FFF7BCFF05FA07F204FA0D
:1064800007F12C482C4FFFF7B4FF079C069D2B48C3
:1064900042463146FFF79EFF2A4631463846FFF70F
:1064A00099FF224631460120B0403861BDE8F041F5
:1064B00023488FE7F8B50546174638000E461C46B8
:1064C00007D0002C284602D0FFF7A7FF01E0FFF716
:1064D0009AFF2A4630201349424388180F22082E7B
:1064E00005D2B300416800F015F8416006E0A6F15E
:1064F00008039B00816800F00DF881604FB9002C03
:106500003146284602D0BDE8F44086E7BDE8F440B5
:1065100079E7F1BD9A4021EA020207FA03F111433B
:106520007047000000A0004000A4004008A4004004
:1065300004A400400CA4004014A4004010A4004097
:1065400028A4004038B5044602F007FB0546DFF8F2
:10655000540A83780178994211D000F043F8641E00
:1065600007D0641E08D0A41E06D0A41E032C03D995
:1065700005E00022194600E0002202F019FB28463F
:1065800032BD02F0A9BB10B5DFF85C3A4C00014601
:10659000986A224602F015FBA04201D0002010BDEF
:1065A000012010BDDFF8402A0146107B002800D1F1
:1065B000704780B5906A02F094FB28B1BDE80440B2
:1065C00040F29B1100F0B1BB01BD80B500F00AF8AC
:1065D00002F0F0FA00F00300032801D1012002BD0F
:1065E000002002BDDFF8000A806A704780B5B0F570
:1065F000004F08D14FF6FF70DFF8241A098800F029
:10660000B3FEBDF80000DFF89C194883002002BDEE
:106610002DE9F04F4FEA501C0C4600F01F000026F9
:10662000DFF8008A2FE00EF1010EEF7E5FFA8EF0A8
:10663000B84226D2E8695FFA8EF9142717FB09F9E8
:106640004844077A07F007076745ECD1477AB94213
:10665000E9DB90F801B090F8009007EB0B0AAAEB89
:10666000090A8A45DFDB14B1C91B494421700AB10C
:10667000017A117003B11860284600E00020BDE8DF
:10668000F08F0846761C98F80650F1B2A942F5D270
:10669000D8F808105FFA86FE51F82E504FF0000E21
:1066A0000146C2E7400918BF40F01800704738B5EE
:1066B000DFF83449A06A02F0CFFB0546E80744BF83
:1066C000A06A02F0CEFBE8031ED5E16ADFF8B05AFB
:1066D000086A18B940F2662100F021FDE06A016AFB
:1066E000486818B94FF41A7100F019FDE26A136A8C
:1066F000A06A5A680021904730B12846BDE834406E
:1067000040F26921FEF758BB31BD3EB56846002115
:106710000022002380E80E00DFF88848A07A257860
:106720008DF80050002818BF022810D1DFF8B858A3
:1067300000F00EF858B1A86A0122002102F03CFADC
:1067400000F006F818B140F29E2100F027FC37BD9A
:106750002179A86A6A4602F095BA00002DE9F04353
:10676000FF2889B006460AD1DFF8B80881680A68B0
:10677000D069467A017A06F01F0646EA4116F5B25C
:1067800005F01F001B2847D20021019101AB6A468A
:10679000F0B2FFF73DFF5FEA00081CBF0198002838
:1067A0003AD0DFF80048DFF840782179F0B288422B
:1067B00031D00B3D102D39BFDFF82C0A0568DFF80A
:1067C0002C1A0D68002D1CBF2878032824D0786C63
:1067D000854214D002A829460622FDF74BFDB86A6F
:1067E0007D6402A902F0DFFAB0B9B86A04A902F028
:1067F000EEFAB4F91810B86A02F09AFA60B9386B78
:106800000199C7F82C80884208D19DF80000787360
:106810002671FFF77AFF80E08A2086E0A57ADFF80C
:10682000609900F08BFA386B38B1B86A02F077FBE8
:1068300018B140F2D32100F001FF019801993863AB
:10684000C868786318B94FF4367100F0F7FED8F8CD
:106850002000B96C814219D018B940F2DF2100F054
:10686000EDFED8F82010086818B940F2E12100F0D8
:10687000E5FED8F82010B86A0A68904718B140F2CF
:10688000E22100F0DBFED8F82000B8645FF01C02C3
:106890009DF8000026A17873267102A8FDF7EAFC96
:1068A000786B418A0901C039ADF80E10417C0901AD
:1068B0001439ADF8161002A9407C0001ADF81A0099
:1068C000E079401E8041C00F8DF82100787C8DF862
:1068D0002200B86A02F0F0FA18B140F20D3100F06F
:1068E000ADFEB86A0122012102F0A4FB18B140F20A
:1068F000323100F0A3FE00F062FCA08B00F08BFCB4
:10690000E08B00F0A6FC207A00F03CFC00F033FDA8
:1069100000F0FAFC284600F07BFA97F90E10B86AEE
:10692000C905091402F0A2FD002000F084BE000099
:1069300000000000010000000101010164000000EE
:1069400064000000000000000B000000DFF8D40726
:1069500000797047DFF8CC07B0F91800002854BF61
:1069600005216FF0040108180A2190FBF1F040B2F4
:1069700070470A2110FB01F0FFE7F8B500F5D77169
:1069800040F27722914201D38B20F2BDDFF85856B6
:10699000DFF890472A6B0A26002A1EBFA17E01F06D
:1069A000C001802911D0E97B79B992F902100F4614
:1069B00017FB06F7B842A1BF92F903100A4612FB73
:1069C00006F28242B8BF11FB06F0297B61B1014695
:1069D000A86A02F0ADF918B140F2853100F0DEFA94
:1069E000A86A02F0C9F901E010FB06F0208300203C
:1069F000F2BD38B504460B38102839BFDFF8E80778
:106A00000068DFF8E817086888B100230022002139
:106A10002046FFF7FDFD50B104F01F051B2D06D2E7
:106A20002046FFF73FFE10B928460B2800DAFF206A
:106A300032BDDFF8C4194008085C70477047C0B227
:106A4000704711F1630F01DA0020704711F1240F34
:106A500001DBFF20704764310902481101EB9061AE
:106A60008904080E704770B5DFF87C45DFF8FC59E3
:106A70000020E064687830B102F000FD0246012A8F
:106A800018BF032A01D1002070BD606BDFF83439D4
:106A9000DFF8106500281FBF216B09690029022A51
:106AA00017D1E364706900F5FA707061607D18B108
:106AB00000200021642203E0E87829794FF4A072D5
:106AC0002070A28061708021A878A070E1800020F1
:106AD00031E0DFF828597269A94214D1DFF8B01902
:106AE000E16402F57A727261617D91B90179217078
:106AF00001258278037990F903109540EB18CB18A3
:106B00005B1E63700DE0E36402F5FA727261617DF1
:106B100019B100222280642105E041782170827839
:106B2000627001780901A1804179A1700289120186
:106B3000E280C0880001A06000F01DFCE070A07839
:106B400041B2002948BF4042C0B270BD70B5044692
:106B5000DFF89464257896F9160008B18C2070BD92
:106B60003065FFF780FF30766901DFF83824DFF801
:106B7000FC385078107301F580715161987910B12B
:106B8000AD1EEDB203E0306D40F002003065F17BE8
:106B900081B9187870B1607881060BD5306D40F0FE
:106BA000010030656FF00101B175506900F50870A2
:106BB000506102E04FF0FF30B07502F095FC40B13B
:106BC00002F090FC0128316D0CBF08201020084312
:106BD0003065032000F01CF96A1CB06A4FF4807322
:106BE00092B2214602F08DFC6D1CA84203DA40F2FD
:106BF000055100F0D3F9002070BD00002DE9FC41E3
:106C0000DFF8E46396F916100025091D04296FF0DA
:106C1000030418D8DFE801F00A0A1B1B0300FFF782
:106C200095FF050013D000F080FE7BE096F916007A
:106C3000A0420CBF0121002100F078FEB57500F0E4
:106C400071FE8E206FE000F070FE8C206BE001F092
:106C500082FFE0B1F06CDFF86C17884217D1307E0C
:106C6000A8B1DFF830180868002810D5DFF8280828
:106C7000C168C1600122006800F00F008240521E0E
:106C8000114204D100F088FB642002F088FCFEF77A
:106C90008FF9804696F9160010F1010F1CBF96F986
:106CA000160010F1020F2DD196F91600DFF8F472DC
:106CB0004042B07502F0EAFC38620022B06A8021DE
:106CC00002F05CFDF46CB06A3979326D002C07F18A
:106CD0000C0306D101F0A4FF010005D100212520FD
:106CE0000DE000933346A047C8B10020B0754FF0C7
:106CF000FF3139628C2500F015FE00212620FFF7B8
:106D000021FC0CE096F91600A0420CBF01210021E5
:106D100000F00CFE0020B0758E2500F003FE40460A
:106D2000FFF76EFA2846BDE8F681DFF85404FEF757
:106D300043B8DFF8F003408B70470000F8B5FEF76A
:106D400037F9984D0446A87A012803D12046FFF769
:106D500057FAF1BDA44EDFF82874B06A0122012170
:106D600001F02AFFB06A8022802102F007FD00BFF7
:106D700026A00188B06AADF80010694602F061FBF8
:106D800020B140F2EB513846FEF716F802208DF89C
:106D900000006946B06A02F033FB20B140F2ED51C9
:106DA0003846FEF709F8B06A01F030FF00212C20C8
:106DB000FFF7C8FB00210A20FFF7C4FB0120A872DF
:106DC00096F91610091D072914D8DFE801F01818E4
:106DD000070B040F0F0F02F0B8FE10E06FF0030076
:106DE000B0750CE06FF00201B17508E0892000F089
:106DF00007FB04E040F214613846FDF7DDFF204652
:106E0000FFF7FEF903F029F9F1BD000004010000CD
:106E1000F8B5644DA97A0446A1425CD02EA3724F06
:106E20001E88ADF800600329DFF854634FD8DFE80F
:106E300001F047023B2B03F012F9B86A694602F0F1
:106E400000FB18B140F2316100F04CF802208DF8DF
:106E500000006946B86A02F0D3FA18B140F2336113
:106E600000F040F86879002814BF00220222B86AB6
:106E7000022102F083FC18B14FF4C76100F032F830
:106E80000320032CA87226D000F027F80220A87255
:106E900000222979B86A01F0F5FE18B140F2456187
:106EA00000F020F8022C16D0200018BF032C12D1BD
:106EB0000020A8720022B86A802102F05FFCF1BDB8
:106EC000022C08D100F009F80220A872F1BD40F2AE
:106ED0005B6100F007F8F1BD0402B86A80228021EE
:106EE00002F04CBC3046FDF767BF002090E78D48AC
:106EF000807A7047032805D8DFE800F00302030317
:106F00001CE785E740F279610FE710B5364CA06ABF
:106F100001F056FE94F916000028824844BF002173
:106F2000A175417A012902D1BDE8104006E710BDE4
:106F30007C48407A704780B5032801DB012002BD00
:106F400078494872897A884218BFFFF7D3FF00203A
:106F500002BD2DE97C4F244E03EA010BD6E90889D6
:106F600029EA010528EA000402EA000A45EA0B05BD
:106F700044EA0A044D4508BF44450DD0CDE900233D
:106F80000246B06A0B4602F063FA18B140F2A16102
:106F900000F004F8C6E90845BDE8738F7848FDF7AE
:106FA0000BBF0000B86500200F49087B002800D106
:106FB000704710B5087D0022002318B1DFF8602962
:106FC00003230AE0C87C00B140225648017880784B
:106FD00081421CBF4CF648542243BDE81040DFF804
:106FE00040090321B5E700002069002038B5DFF82B
:106FF00048590446287B2C7578B1FFF7D5FF002C43
:1070000014BF00220822A86A082102F0B7FB20B1B1
:10701000BDE8344040F23F7187E631BD000000001A
:107020005E17030044040300F8B50446022C0FF673
:10703000341503DB40F24B7100F071F8DFF8F868AB
:10704000307B002867D1374FB87A012803D040F24F
:10705000517100F064F8002107F1240001F08FFD68
:10706000B06218B940F2547100F059F8B06A0521C5
:1070700002F06BF818B140F25C7100F050F84FF07C
:10708000FF30DFF8B828D0230146FFF762FFB06A6F
:107090004FF0011101F0F1FE18B140F2767100F0ED
:1070A0003EF8B06A09224FF0FF3102F067FB18B1D9
:1070B00040F27C7100F033F8B06ADFF8841802F017
:1070C0003EFA012030730223DFF8780801887F221E
:1070D000684603F073F8BDF80000C10548BF002002
:1070E000B07301F038FDFFF781FF788BFFF77EFA70
:1070F00003F0FEF83879FFF731FB18B14FF4F26175
:1071000000F00DF8FFF750FFB7F91800FFF735FC56
:10711000B87900F0EDF82046FFF7ECFEF1BD284607
:10712000FDF74ABEB865002080B5FFF75BFA012184
:1071300001F0B4FD10F5007F02D16FF07F0002BDB9
:107140008005001602BD10B5DFF8EC270446107B61
:1071500050B1611E8941906AC90F01F05BFF18B1FF
:1071600040F2C771FFF71AFF2000DFF8C81718BFF9
:107170000120C87110BDDFF8BC07C079704700005E
:107180006479000038B50446FDF712FF0546DFF8C4
:10719000A407DFF8A4270472D07D38B9107B28B18A
:1071A000611E8941906AC90F03F0F6F82846BDE8D0
:1071B0003240FFF725B8DFF87C07007A7047DFF828
:1071C0007837187B002800D1704780B5986ADFF8BF
:1071D0007817002201F001FF20B1BDE8044040F221
:1071E000F371A2E501BD00009C650020A0650020B0
:1071F000DFF844270146107B5174002800D1704706
:1072000080B5906A01F0F8FE20B1BDE8044040F27C
:10721000FE718AE501BD0146DFF81807DFF818376F
:107220008183187B002800D1704780B5986A0022BE
:1072300001F0C4FE20B1BDE8044040F60F0174E542
:1072400001BDDFF8F006808B7047DFF8E806C08BE1
:1072500070470146DFF8DC06DFF8DC36C183187BB7
:10726000002800D1704780B5986A002201F097FE8F
:1072700020B1BDE8044040F6250156E501BD10B53A
:1072800000F02EF8DFF8AC060179A06A012201F0C7
:10729000EAFC20B1BDE8104040F6470145E510BDCD
:1072A00080B5DFF89416886A01F0E7FC18B140F663
:1072B0004C01FFF773FEBDE80140FFF726BA10B599
:1072C00000F00EF8DFF86C060179A06A002201F0E8
:1072D000CAFC20B1BDE8104040F6570125E510BDBD
:1072E000DFF85446A06A0122012101F065BCD7E70E
:1072F00010B5DFF844260446906A214603F05FF893
:10730000DFF830168C7110BD7CB57F2804460CD197
:107310004FF6FF70DFF83456298800F025F8BDF8E5
:1073200000007E24C10558BF0446FDF741FEDFF88A
:1073300008660546F07D68B9204641B27E2903D132
:10734000306B38B190F9040041B27E29BCBF40B225
:10735000FFF728F9707B00B10120DFF8F4150C5419
:107360002846FEF74DFF73BDADF8000002237F22D3
:10737000684602F023BFDFF8C015487B00B101204A
:10738000DFF8CC2510567E2805D1086B08B97F2080
:10739000704790F90400704700212320FFF7D2B80E
:1073A000DFF8940590F9161003290AD10022DFF8BE
:1073B000843582754FF0FF311962816B402002F0F5
:1073C0001ABA7047338C000038B50446DFF86855A8
:1073D00002F06AF9E863FFF7F8F801462046FFF784
:1073E000B1F8062C02D002F069F801E00020A87480
:1073F000BDE8314002F0A9BB586700207879000051
:1074000038B50446DFF82C15DFF82C554FF0FF3067
:10741000086202F049F9E86395F91600012823DBB8
:10742000DFF83015487808B1E86B286495F9160044
:1074300002280CBF012100210020A8758D2C16BF49
:10744000872C26202720FFF77DF8E87B28B1A86A43
:1074500001F0B6FB0120287431BD2046BDE838405C
:107460000022002102F0C7B931BD00009C67002056
:1074700080B5FFF7AAF801460120FFF763F8DFF8AF
:10748000B814C87C18B1BDE8014000F076BA01BD5F
:10749000458C0000044008404C5008402DE9F04362
:1074A000DFF894540FF2BC49A86A89B005AA0321F9
:1074B00002F041F85FEA000803D14FF4396100F0AF
:1074C000BDF89DF81400DFF86C44BDF8167007286D
:1074D0001CBF6079002818D1062F16DB07F10800C1
:1074E0008B2812D2002000903B46DFF86C64A86A1B
:1074F0003246414602F02BF8B84203D040F6AA319A
:1075000000F09CF83078010606D5FFF75EF80146DA
:107510000420FFF717F88EE0A86A6A46414602F099
:1075200012F818B14FF43C6100F088F8707800F060
:107530000700022831D1FFF748F801460920FFF77C
:1075400001F894F8078095F91600032821D19DF8D9
:107550000D00F0B10021A9754FF0FF302062B17825
:1075600001F0300120290FDA062F0DD170780009C3
:1075700000F0010421462920FEF7E4FFA96B224612
:107580008F2002F038F956E0A96B0022402002F06B
:1075900032F9B8F1000F4ED105E09DF80D0010B1A1
:1075A0000020FFF7FDFE7178E07998B18A0611D5C9
:1075B000207A78B1A86A02F0F8FE20B1FFF705F84A
:1075C0000146062003E0FFF700F801460520FEF71C
:1075D000B9FF0BE001F00701022905D0FEF7F5FF26
:1075E00001460920FEF7AEFF0020A8743178491C3F
:1075F000B94203D040F61B4100F020F8F019217980
:10760000017000224270FF229DF80E108170083731
:107610009DF80F10C17002710099090C4171009919
:10762000090A81710099C171F9B2AA7C304602F051
:1076300040FA0020A87409B0BDE8F0834846FDF781
:10764000BBBB0FF22830FDF7B7BB10B5DFF8E40283
:10765000046A002C15D402F019F8041B40F2E9303A
:10766000A4B284420DD3DFF8D01291F9160003289A
:1076700003D1BDE81040002092E6BDE8104089200B
:10768000BEE610BD10B558B901F019FFFDF790FC2A
:10769000044600210020FEF755FFFFF7D6FF02E069
:1076A000BDE81040D1E72046BDE81040FEF7A8BD78
:1076B0002DE9FE4F144683466106994648BF0020D7
:1076C00002D4200602D50120FFF7D2FEE002994D38
:1076D000994E2AD50021B174287A30B3584602F069
:1076E00064FE10BB6946584601F0BBFCE8B99DF842
:1076F000080002280DD1BDF8000002F063FEFF284B
:107700000DD096490A6832F8100010F4E66F06D1E1
:107710000BE0032809D1684602F0C8FE28B1B06A20
:1077200001F09DFC08B90120B074E00305D5FEF717
:107730004CFF01460320FEF705FF96F916000FF2F5
:107740002428012806DB60024FF0FF3A38D596F96D
:107750001610012978DB96F91600032874DAB06A4E
:1077600006F13802002101F03AFB01F09DFFF063C1
:107770007849487808B1F06B306496F91600012812
:1077800006D0022816D10321B1752820002159E026
:107790000020B075C5F820A000212B20FEF7D2FEF6
:1077A000F07B20B100F0BEF8012030744CE0B16BEA
:1077B000002222E040F66C114046FDF7FDFA43E05E
:1077C00014F0044F1CD096F9160002280CBF0127B4
:1077D00000270020B075042001F072FEC5F820A03B
:1077E000394600F0A3F8F07B0028DBD1F07D0028BB
:1077F00014BF8E208D200022002101F0FCFF23E029
:10780000E00148BF892002D4E00003D58820FFF7BB
:10781000F7FD19E009F002010023994218BFFFF7B4
:10782000BBFD09F001010023994207D04C480168D3
:10783000890B01F001012420FEF784FE600003D5CE
:1078400000212520FEF77EFE200744BF5846FFF7A3
:1078500025FEE00505D5FEF7B8FE01460420FEF73B
:1078600071FE14F40C4F05D0FEF7AFFE0146022066
:10787000FEF768FE200244BF0820FFF7A5FD14F0C4
:10788000085F1CBF0720FFF79FFD200144BF0620B3
:10789000FFF79AFDA00744BF5846FFF781FD09F0A6
:1078A00010010023994210D000210A20FEF74AFE61
:1078B0005846FFF775FDD6E9080101F020030027BF
:1078C000BB421CBF002003F078F809F02001002320
:1078D00099421CBF012003F070F809F04001002319
:1078E000994213D0584601F061F978B1022802D0CC
:1078F000032802D005E0892000E08720FFF780FD03
:1079000004E040F6DD114046FDF756FA09F080012B
:107910000023994218BF03F06CF8BDE8F78F000010
:10792000408D0140B06A01F04BB900212620FEF7DE
:1079300009BE0000B8650020206900200A00D0BF01
:10794000436A000062170300147B002064170300E1
:107950003C6800209C670020CC7500204465002016
:10796000044008407068792E630000006C69627200
:1079700061696C2E610000000000704703F03CB8A4
:107980007FB50121204800F037FD012201210120AF
:1079900000F078FF0421072003F030F81B4A92E83A
:1079A00038006946032281E838000D218DF808105F
:1079B00001268DF809208DF800608DF80760694672
:1079C000134C204603F096F8124904200860022266
:1079D000114962620860A26A42F00202A2627FBD9F
:1079E0000B4803F07BB8A52803D10021084803F019
:1079F0005CB870470648006800F00100704707490E
:107A000008680028FCD1704730053E009CFD02004C
:107A10000020054080E200E000E100E00820054091
:107A2000602080F31188704770B503F09FF8A54C73
:107A3000204603F020FCD8B9204603F0E5FBFF28E0
:107A4000044615D0A0480168085D851EE9B22046AD
:107A500003F060FB0646E9B2204603F05FFA2146D8
:107A6000304600F0E1F82046BDE8704003F0F9B878
:107A700070BD03460A4692A10420FFE70CB480B50E
:107A800002AA00F029F801BC5DF80CFB80B586B0B5
:107A900002F0F2FA8022049200218C4A00926723BD
:107AA0000591039302910191024600238BA10120CD
:107AB000FFF7E4FF864881790288437903910292B7
:107AC00001930179C37882780091422086A1FFF763
:107AD000D5FF07B000BD00002DE9F04F85B0054689
:107AE0000F46904603F03FFC0024F0B903F03FF846
:107AF000D8B1012003F04BF8FF28824615D00021B1
:107B000003F040F8294601A803F02EF8054687BB8C
:107B100000F083F830B9504603F02BF810B1042080
:107B200003F012FC504603F09CF805B0BDE8F08F5E
:107B30008DF8041001251BE0634858F8046B0068B9
:107B400010F80A90F2B2FF2A12D0F1B210F801B088
:107B50000BEB0901C9B2504603F0E0F90028E1D16E
:107B6000CDF800B00023F2B24946504603F005FBC1
:107B70007F1C38780028CBD0A0F130010A2904D22C
:107B80000A2101FB0404303CF2E700F046F800282B
:107B9000C8D139780025422901A80ED044291AD02D
:107BA000462925D057290DD06229C5D066292AD06B
:107BB0006C2925D0702926D0BAE758F8040B8DF827
:107BC0000400B7E758F8041B8DF8041002250904D7
:107BD000090E4170CCE758F8041B8DF804100B0A0D
:107BE0000A0C090E437082708DF807100425BFE758
:107BF00058F8041B504603F045F90028B8D091E727
:107C000058F8044BB4E758F8041BE2B2504603F0AE
:107C100037F9002808BF0024F0E72A4601A950469A
:107C200003F02EB9000000002DE9F043122885B0C2
:107C300080460D4609D03A281ED04FF6FE71884284
:107C400004BF284602F0BFFE33E01F48214F016801
:107C50004E5D2846FF282CD0212EB4BF3446202468
:107C600002F08AFF014622460020FCF73FFD3868FB
:107C7000455D203EF6B2ECE703F00AFC8146FFF7D3
:107C8000E4FA0646FEF766FE0746FEF75FFE044688
:107C9000FFF7D7FA10490B8815A1029302460B484B
:107CA0000390CDF810900196009723463B20FFF7F4
:107CB000E5FE2946404605B0BDE8F04303F074BB3D
:107CC000574600009268002030650020147B002099
:107CD0005404030038650020546800204242387084
:107CE0004242424257424200424242425742000010
:107CF000574242575738704200000000890001EB9C
:107D0000401101F184410A607047000010B504463B
:107D1000FFF786FE1E484AF6E8510160C162016B1A
:107D200001F00F01022913D11A4A01211160806B61
:107D300000F00300012818BF022809D100221C21ED
:107D40001548FFF7DBFF002200211448FFF7D6FF9C
:107D5000200A0028124808BF24024FF20F010480B5
:107D60004180BFF35F8FBFF34F8F0E490E480A6803
:107D700002F4E06202430A60BFF34F8F00BFFDE7E9
:107D80000A48704709482038704709487047000082
:107D900008300E404040084060300E4074300E40C5
:107DA000000000200CED00E00400FA05A85A0020B5
:107DB000A000002070B5DFF8F4130446087810B96D
:107DC000DFF8EC0370BD14B9DFF8E80370BDFDF710
:107DD000EFF801460022DFF8E03315015E19307B31
:107DE00040B1521C082AF8DB0846FEF709FADFF812
:107DF000CC0370BD22600120002230735A51084626
:107E0000FEF7FEF9002070BD10B5FDF7D1F804466D
:107E10000021DFF8A42302EB0113187B50B9491CA1
:107E20000829F8DB03F0D4FBDFF88013002008708A
:107E300020461FE02046FEF7E3F9DFF8840310BD7B
:107E400010B5DFF868130446087800B9BBE0082CC9
:107E500000D3BAE0FDF7ACF8DFF85C2302EB0412C4
:107E6000117B11B10023137304E0FEF7C9F9DFF8A9
:107E7000540310BDFEF7C4F9002010BD80B5DFF833
:107E800048130A68009200238DF80030FDF790F83F
:107E900000F05BF821B1FEF7B3F9DFF8300302BD63
:107EA00001211170FEF7ACF90020DFF80C1300225D
:107EB00001EB0013401C08281A73F9DB04208DF82D
:107EC0000300684603F09DFB002002BD70B588B03A
:107ED00000F00CF8002104E070B588B000F006F85E
:107EE0000121002000F0C0F808B070BD0026109CF1
:107EF0000F9D07940695019300920B469DF838401C
:107F00000D9D059402469DF8304004950394029619
:107F1000704780B500F019F801B919E0082800D3BE
:107F200018E000F02FF801B916E0002116E080B546
:107F300000F00BF801B90BE0082800D30AE000F0CC
:107F400021F801B908E0012108E0984A117870474A
:107F5000974802BD974802BD9D4802BD03F049FB0A
:107F6000002002BD80B5FFF7F0FF01B9F0E7082857
:107F700000D3EFE700F006F801B9EDE703F0A9FB45
:107F8000002002BD8C4A02EB0013197B704710B52C
:107F9000864B1A7802B916E0082800D201B914E01D
:107FA00000F015F802B917E0202808D2894A1268B3
:107FB000C24012F0010018BF0120087001E0002249
:107FC0000A70002010BD7A4810BD7A4810BD7A4B67
:107FD00003EB0014227B70477D4810BD10B5734A37
:107FE0000C46117801B9EEE7082800D204B9ECE795
:107FF000FFF7C8FF01B9EFE703F07EFB2060002028
:1080000010BD2DE9F041744C2568E068054000D5AD
:10801000FEE74FF0000801273D421DD06649A760EA
:1080200001EB08163068B8B1B068401CB06001467A
:108030007268336840469847002804BF707B012867
:108040000AD1664901EB4810C268C16922F00202F8
:1080500021F00201C260C16108F101087F00B8F19E
:10806000080FD9D3BDE8F0812DE9F84F4F4C9B465E
:10807000237886B00BB94E4894E0082A019214D2B6
:10808000109C002C1CBF119D002D0ED0DDF85080DF
:1080900040F60102904508DADDF848908DF80000BE
:1080A000012808BFB9F1000F01D142487AE0019AD6
:1080B000414800EB0216307B08B9454872E08DF864
:1080C000011002A81021FEF781F901984349DDF85B
:1080D0004CA001EB40179DF80100002838460AD15A
:1080E0003F491022FCF7C6F8BAF1000F0ED13868EC
:1080F00040F0407009E03B491022FCF7BBF8BAF1B0
:10810000000F03D1386840F040503860CDF808B017
:10811000A8F101023968159862F30E113960BC604C
:108120007D60396860F39B6139609DF80000169CA2
:1081300001281FD1F86840F00300F8603946387B09
:1081400000F0030040F01000F860102207F110006A
:10815000FCF790F8387F00F0030060F00F00F86142
:10816000C7F814909DF8010001280DD1BD61C7F832
:10817000049009E0200004BF9DF80000002803D10E
:10818000396821F4801139603A461798346070607C
:108190000020B0609DF80010717302A9019803F0EF
:1081A00055FA002007B0BDE8F08F0000BD7F002029
:1081B000028000F0018000F0A8720020048000F02E
:1081C000058000F0068000F05C020300038000F0F0
:1081D000078000F020200E4060200E402873002011
:1081E0003C0203004C020300010007D4012200F00E
:1081F0001F01224B8A40400943F82020704710B5E8
:108200001120FFF7F1FF1E4C4FF4003020600920D1
:10821000FFF7EAFF4FF40070206010BD38B5044648
:108220000D46FCF7C5FE174941F82450BDE8324021
:10823000FDF7E6BF38B50446124D0CE094FAA4F001
:10824000B0FA80F0012181408C4355F820100A00DB
:108250001CBFC0B28847002CF0D131BD0A4AD0689B
:108260001168084045F2555105E0074AD068116889
:1082700008404AF6AA2108409060DBE780E200E06F
:1082800000E100E0287400201CA40040890001EBFC
:10829000401101F184410A607047890001EB4011EF
:1082A00001F1844108687047012101FA00F070472C
:1082B00010B50122DFF8B815884202D2002200244E
:1082C00007E0DFF8B015884234BF4FF080744FF0FC
:1082D00000741021DFF8A005FFF7D8FFDFF8C00613
:1082E000016821F080710C43046010BDDFF88C152B
:1082F000DFF88C350A6802F04072984238BF0022DD
:1083000004D3DFF8A036984238BF0122086820F075
:10831000407040EA02600860704738B500F013F81A
:1083200041F67130286003F028FA002105E038B5E5
:1083300000F009F841F671322A60FFF7D7FF0CB15F
:108340000020286031BDDFF8F4562C6804B1012408
:108350007047C01C0F2801D2000770474FF07040D3
:108360007047000038B50446002500F053F9DFF8E7
:108370003826DFF81C16944208D0DFF830269442E5
:1083800006D0DFF81026944204D006E0086802E028
:10839000486800E0886800F00700401E03281AD8EB
:1083A000DFE800F002050C0803F02DFA04E003F00A
:1083B00030FA01E003F02AFA05460CE003F0DFF999
:1083C0000446DFF8DC050168C1F30060401CFFF7DC
:1083D0006BFFB4FBF0F5284632BDDFF8A8164A68FB
:1083E000D30702D40A680242FCD1704780B500F07E
:1083F000D1F8401C02BD000070B50C460246110ABF
:1084000001F00F010020491E0929DFF8845613D816
:10841000DFE801F005131212071518121B1FDFF811
:108420005854C2F3043608B1FFF7D7FF224631464D
:108430002846BDE8704029E770BD1035F1E73035BA
:108440000120EEE738351020EBE740354FF480305F
:10845000E7E7DFF84056E4E7F8B50646DFF8280618
:10846000DFF844250768DFF84415DFF82805DFF852
:108470003045012516F4781365D0B3F5003F2BD0B5
:10848000B3F5802F24D0B3F5202F5CD0B3F5402F67
:1084900028D0B3F5602F4ED0B3F5801F77D0B3F559
:1084A000A01F2AD0B3F5B01F2FD0B3F5D01F35D001
:1084B000B3F5F01F1FD0B3F5001F2DD0B3F5101F7B
:1084C00036D0B3F5481F41D0B3F5781F55D05DE0E5
:1084D00003F055F9E16802E003F051F9A168C1F336
:1084E000082104E003F04BF96169C1F30421491C40
:1084F000B0FBF1F74BE010461AE0FFF733FF0746F9
:10850000206B00F00F00C74041E01046FFF72AFF44
:10851000216A01F00F0107E0084609E00846FFF76D
:1085200021FFA16A01F003018D40B0FBF5F72EE0B9
:10853000FFF718FF1FE0DFF8600500F06BF8072871
:1085400025D0092822D103F01AF914E0DFF84C05F0
:1085500000F060F804280CD0072818D0082815D19E
:1085600003F00DF907462068C0F30420401C474380
:108570000DE003F020F9074609E003F000F9044696
:108580003046FFF733FFB4FBF0F700E00027384632
:10859000F2BD000001460B0903F00F0301205B1E32
:1085A000092BDFF8FC2332D8DFE803F005070B11B5
:1085B000313113171F29106800E05069C0F30420FF
:1085C00070471168090E01F00101491C14E0D068E0
:1085D00000E09068C0F308207047DFF8C434994287
:1085E00015D1116A01F00F0106E0DFF8B8349942A5
:1085F0000DD1916A01F003018840401E7047DFF8F9
:10860000A804814203D1106B00F00F0070470020D6
:1086100070470000014601F00F010120491E0729A3
:10862000DFF8882449D8DFE801F0040F1348202E32
:108630004836506A00F0070002283AD002D30428D6
:1086400004D01CD30520704711690FE00220704749
:10865000516901F00701491E03292FD8DFE801F015
:108660000F020311F2E706207047916901F007013C
:10867000012904D00229E9D0042902D0704703203F
:1086800070470A207047116811F001010FD00129CD
:1086900014D109207047DFF818140A6802F030027C
:1086A000102A04D0202A04D0302A04D07047072092
:1086B0007047042070470820704700207047000072
:1086C00070B500F00F0003250326401E0728DFF8D1
:1086D000DC430ED8DFE800F0042C30742E587463AD
:1086E0000229634806D0032919D0042919D0052985
:1086F0001CD070BD0425002601220121304600F067
:10870000C1F8FFF70AFE656003F02AF8044603F09B
:1087100036F8FFF7CDFD2046BDE870405EE001264B
:10872000EAE702250226FFF7C3FDE5E70125FAE7A0
:10873000103402E0183400E01434012929D0022951
:1087400006D003290BD0062910D00A291AD070BDF3
:1087500001220121002000F095F802201AE00122F8
:108760000121012000F08EF8012013E003F007F84A
:10877000FFF79EFD01220021DFF81403FFF786FDBD
:10878000032007E0042005E0072902D0092903D0CF
:1087900070BD0020206070BD0121216070BD0129E5
:1087A00006D0042914D007290BD0082914D070BD95
:1087B0000020DFF8FC120A6822F030021043086043
:1087C00070BD01220121042000F05CF81020F0E7C8
:1087D00000F006F82020ECE73020EAE70021A6E5CB
:1087E0000122012102204DE070B5044600F03DF861
:1087F00001220021022000F045F8217CDFF8B85268
:1088000000200229296808BF0120490840EA4100E8
:108810002860082122782846FFF738FD6968E07A49
:10882000C90840EAC1016960607AA18840EAC120B4
:10883000A860EE68207AFFF78CFDE288A17A06F046
:108840007F6646EAC226227A0E4346EAC2160643ED
:10885000EE60A17B607B227B090141EA0031E07B75
:10886000014341EA0241296170BD1120D2E60000B6
:108870000148E8010190D00300400E4004000E4082
:1088800041787D012DE9F84F0428834692466DD842
:10889000DFE800F0504B410346000127022001258C
:1088A00000260029DFF8E481834C61D0BBF1020F80
:1088B00002BF2068C0F3011000284FF000090AD160
:1088C0002068C1074FF0010905D5206820F030006D
:1088D00040F010002060E763314600F05EF80028A9
:1088E000FAD0BAF1000F41D000F056F80028FBD0C2
:1088F000BBF1020F3AD1B9F1000F37D02068C107A0
:108900001FD54FF48060C8F8180020212164022090
:1089100000F096F819E00427082003250226C0E796
:108920001027202005250426BBE7402780200725A7
:108930000626B6E74FF480774FF400700925082625
:10894000AFE70021022000F07BF8D8F80C6001228C
:1089500000210220FFF796FFC6F30A01022000F073
:1089600027F8E76300F018F80028FBD0BDE8F18F86
:10897000E063D8F80000F040C107FAD4BAF1000F64
:10898000F4D0D8F80000E840C107FAD4EEE70000C0
:1089900080400E400500240029464046FFF77DBC7C
:1089A00000410E40015A620202001E000300200036
:1089B000F8B5401E0D46032805F07F063D4C314FAB
:1089C0003BD8DFE800F00228101CC5F308051A2187
:1089D0003846FFF762FC0028F9D12069400A45EAD1
:1089E00040252561F1BD18213846FFF756FC0028C7
:1089F000F9D12068C00946EAC0162660F1BD1921E8
:108A00003846FFF74AFC0028F9D1A068C00946EAB9
:108A1000C016A660F1BD1D480168626922F03002EF
:108A200042F010026261C5F3C310FFF792FC226AA4
:108A300022490A40154305432562F1BD40000E401E
:108A40001D4A1068C0F30110002818BF002911D07A
:108A5000202902D030290DD00FE04FF40000D16E54
:108A600001408142FBD1400209D5D06F800A00F05D
:108A7000010070474FF44000F1E71148EFE7012093
:108A80007047000040410E40A465002090400E4019
:108A9000B0400E4050410E4006000E00B8003200BB
:108AA0008006160090071A00A009140070400E40BE
:108AB0005C410E4010400E4024400E4000F8FF0F75
:108AC000FF03E10710B50446EFF31080C00719D487
:108AD000204602F0C4FEA8B9204602F0B3FE0446C8
:108AE000EFF3118010B1B4EB501F0BD207480068B0
:108AF000C0F30800002807D0103840B202F0A2FEF0
:108B0000844201D3012010BD002010BD04ED00E01F
:108B100000B500BF130096469446103928BFA0E860
:108B20000C50FAD85FEA417C28BF0CC048BF40F81F
:108B3000042BC90728BF20F8022B48BF00F8012BDF
:108B400000BD0020704701207047012070470020C1
:108B500070470120704700207047002070470120B7
:108B6000704700207047012070477047704700B180
:108B7000022070470020704700B10C30704770B57C
:108B800004000D4602D0254E307808B1002070BD9B
:108B90007460204600F0C7FA2946204600F07FFAAC
:108BA000002814BF01210021317070BD01207047E1
:108BB0000020704703F094B80846114600F0D8BA78
:108BC00070470846114604F031B802207047002073
:108BD0007047002070470120704700207047000058
:108BE00038B50D4611461A460C4BD3F8084004B967
:108BF0002FA4034624682846A04732BD0748D0F872
:108C0000080000B92AA04068004700000348D0F8D7
:108C1000080000B926A080680047000008790020FD
:108C200038B500F038F82A462146BDE8384003F050
:108C3000E4B870B500F013F800F00DF8BDE870402E
:108C400003F035B970B500F00AF800F004F8BDE89B
:108C5000704003F0DDB833462A46214670470C4683
:108C600015461E4688E7002370B5FFF7F8FFFFF7AB
:108C7000F2FFBDE8704000F03CB880B503F03CFC6A
:108C8000002002BD10B50C46FFF776FF2146BDE877
:108C9000104000F077BD0C4615466DE710B50C4648
:108CA000FFF76AFF2146BDE8104004F073B80000EA
:108CB00049C20000C5C20000D1C20000F5C20000D8
:108CC0000BC30000CB8B0000CF8B0000D38B0000C8
:108CD000D78B0000DB8B000003F062BF00B10C30CB
:108CE000704710B500F07FF82146BDE8104003F052
:108CF000C1B970B51446D2B2032A1D4601DB01206A
:108D000070BD89B200F0A1FA06000FD10121012047
:108D100000F02EFA002004F042F8E0B218B928461C
:108D200003F0FAFB02E0294603F0FDFB304670BD7C
:108D3000FEB500F01CF82046FFF7D0FF0646F76F9F
:108D400038000ED16946204600F041F89DF8001029
:108D50002A46204604F036F80146304603F066FB0A
:108D6000FEBD0023002229463046B847FEBD04461A
:108D70000D46002004F013B83EB50446FFF7AEFFE1
:108D800005466946204600F022F8284603F0ACFB71
:108D9000FF28024601D115483EBD9DF8001020462F
:108DA00004F074F83EBD38B50D460446688803F0FB
:108DB000F6FF2046FFF792FFC16F09B1022032BDD6
:108DC0002946BDE8344003F00DBB03F0E9BF10B500
:108DD00000F009F82146BDE8104003F07BBB00B16C
:108DE0000C3002F022BE0C4678E700000080FFFF46
:108DF00000B10C30704738B504460D4604F09EF8BB
:108E00000021A5616161BDE8324004F09BB870B5F6
:108E100005460E4604F092F8A9690E4034006969CF
:108E200018BF01240E436E6104F08CF814B10020C9
:108E3000802170BD0020002170BD38B504460D466C
:108E400004F07CF8A16962690D4022EA05056561BC
:108E500004F078F8284632BD80B5FFF7C9FF4069B5
:108E600002BD10B5FFF7C4FF04460121FFF7E5FF7F
:108E70002046BDE8104003F062BA10B500F006F8D5
:108E800004F00111FFF7B7FF002010BD0C46AFE75B
:108E900038B5FFF7FBFF00F006F821462846BDE88D
:108EA000344004F071B805464FF48031C5E7FEE761
:108EB00000B10C30704700007FB500F0B9F8237E98
:108EC000627EA17E054604F0FCF8684604F10C01C0
:108ED0000C22FBF7CFF96946284603F0A9FE211DB5
:108EE000284601F014FA060005D100BF67A1284604
:108EF00003F058FE0646300003D1284604F084F8FB
:108F000006462168284600F019F8304604B070BDC6
:108F100080B5FFF7CDFFBDE8024004F061B838B579
:108F2000FFF7C6FF054602F0DBFE0024012812BF52
:108F30000224284604F048F8204632BDF0B589B036
:108F400005460C464FEA0D0047A12422FBF792F993
:108F500004B96C46002601E0010006D1F0B234F8F5
:108F60001010F2B2284604F068F80100F7B206D1FA
:108F700004EB4700F2B2C188284604F06CF8010007
:108F800007D104EBC70000F10C01F2B2284604F04F
:108F90007BF8761CF1B20329DED309B0F0BD38B5F9
:108FA0001546032D0C4601D3012032BDFFF780FF8B
:108FB0002A462146BDE8384004F03FB838B515468A
:108FC000032D0C4601D3012032BDFFF771FF2A4665
:108FD0002146BDE8384004F03EB838B51546032DAB
:108FE0000C4601D3012032BDFFF762FF2A4621461D
:108FF000BDE8384004F048B838B500F019F800F082
:109000002BF828B121462846BDE8344004F050B87A
:10901000022032BD38B500F00BF800F01DF828B181
:1090200021462846BDE8344004F03CB8022032BD59
:109030000C463DE770B50C461546FFF739FF06466E
:1090400003F0CBFF30B12A4621463046BDE87040E0
:1090500004F04FB8022070BD054603F0BEBF04F017
:109060006CB8084604F07FB8FFFFFFFFFFFFFFFF6B
:10907000FFFFFFFF000000000000000000000000F4
:1090800000000000000000000000000000000208D6
:109090000000000000B10C30704703F07FBE38B50F
:1090A0000D460446002100F0FAFD2946204602F054
:1090B000CDFC08B1002032BD204632BD70B50D0098
:1090C000064614BF012400241F21204604F088F81E
:1090D000284603F066FE002086F8C400F066B566F8
:1090E0001F21204604F07CF84FF6FF740020E96849
:1090F00088420CD2AA68182111FB00F11144C989D9
:10910000A14201DA0C0002D0401CC0B2EFE7DFF848
:10911000AC020021016041603046214600F095F824
:10912000204670BD704710B5044602F025FD002CA6
:109130000CBF002004F10C00406F0100DFF87C122E
:1091400008BFDFF87C02886010BD38B500F077F901
:10915000054602F0C5FD012801D0022032BD21469E
:109160002846BDE8344002F058BD94480068704776
:1091700010B50C4602F062FD1CB102F0B1FD0128F1
:10918000FBD110BD2DE9F04BC26E1AB103898AB232
:109190009A4251D0846E002C1CBFA268002A01D0D4
:1091A000E26812B90320BDE8F08B0025D0F87C807E
:1091B000A9460F46CB4606460021E06881453ED2CF
:1091C000A26802EB0B00BAB2C3899A4222BF028A9C
:1091D000BBB29A4218D305465FEA0800B5F91220DF
:1091E00003D0B6F9F600824229DAFF2047F6FF7372
:1091F0009A4205D096F8A810A6F10C0003F0E2FD03
:109200003279904201461AD209F101090BF1180B8B
:10921000D3E75FEA080004D000232A460021304645
:10922000C04706F1B8032A46B9B2304603F084F9C4
:109230003781F56686F8B4400020BDE8F08B002D3C
:109240000C46E6D10120BDE8F08BF0B581B00446B4
:109250000D4603F073FE0646A9B22046FFF792FFC3
:10926000070006D100230022A9B2204600F007F82B
:109270000746304603F066FE384601B0F0BD2DE9E2
:10928000F84F06460F46904603F046FD4B4DB5F8A5
:109290000CB0002403F05BFD4FF0000AA14618B1AA
:1092A0006C6003F04FFD03E05FFA88F000B16C6082
:1092B000F06E6968884205D120B1B8B2584508BF40
:1092C000002075D002F00CFD012803D001210120FF
:1092D000FFF74EFF2868E0B1B26E904209D169688D
:1092E00039B1F36E994204D1B8B283451BD0012441
:1092F00019E0016869B1126891420AD1F16E0A68F9
:1093000069684FF0010911B1096891420BD04168B9
:1093100005E0F06EB16E026809684FF00109304651
:1093200003F0B8FB8246D6F87CC0BCF1000F0BD12D
:10933000317996F8B4009DF80020814288BF01463B
:10934000304603F0A7F804E06B46002200213046C7
:10935000E047BAF1000F5FFA88F814D1B06E2860C8
:1093600044EA0804F16E696059EA04040BD049EA42
:109370000800411E8941BFB2C943EF60C90F3046A2
:1093800003F00BF9824659EA080010D0BAF1010047
:109390008041C00F332103F023FF9DF800103046B9
:1093A00003F088FBF16EAA68A6F10C0090475046C6
:1093B00001B0BDE8F08F008970470000C067002051
:1093C0002591000001281CBF0428022801D101209A
:1093D00070470020704738B500F02DF840B168782C
:1093E000FFF7F0FF20B1297868780143490701D5DC
:1093F000012032BD29462046BDE8344002F0A4BF1A
:1094000010B500F01CF82146BDE81040E3E738B580
:1094100000F011F838B16878FFF7D4FF00281CBFBE
:109420006878042801D1012032BD29462046BDE8D4
:10943000344002F0ACBF0D4604462878C2E70C4623
:1094400028E610B5FFF7FBFF2146BDE81040DEE738
:10945000FEB5DDE9086714461D46FFF71BFECDE9A2
:10946000006722462B4602F04AFBFEBD10B5FFF70F
:10947000E6FF2146BDE8104003F0F0BA0020704737
:1094800038B51546104A517804462220FFF765FB8F
:109490002046FDF7B3FB04466DB120000BD00B490D
:1094A000087818B10A480121017004E00022002167
:1094B000204600F0A0F9204632BD70477047704743
:1094C00004490870704700009C6700202F69002045
:1094D00030690020D37F002070470020704700B122
:1094E000022070470120704701207047012801D1F8
:1094F00000207047022070470120704700B10C30F7
:10950000704770B500F007F833462A462146BDE89B
:10951000704003F035BA0C4615461E46EEE738B5E6
:1095200000F006F82A462146BDE8384003F053BA59
:109530000C461546E2E70846114603F07BB900B138
:109540000C3003F097B900B10C3003F096B9F8B5C0
:10955000069C0D4616461F46FFF7D0FF23463A46A7
:109560003146284601B0BDE8F04002F00DBB0000D6
:1095700080B54FF40071ADF800106A460649FFF758
:10958000CEFFBDF80010B1F5007F01D0012002BD73
:10959000022808BF002002BD14790020704703F0A4
:1095A00086BE10B5044605211120FFF789F8002278
:1095B00000210220FFF766F91E4801686FF3D321EE
:1095C000016002681C4901EAC4210A4302600121CA
:1095D00001220220FFF756F9BDE8104004211120B6
:1095E000FFF76EB8134800680003C00D70471349B9
:1095F0000A68130305D44968C1F3080101800120FA
:109600007047002070477CB50D4E0C464FF6FF7535
:109610003188ADF8005002237F22684603F091FFA5
:10962000BDF80000A84202D02080012076BD0020B5
:1096300076BD000030400E4000F80F00B481E00F0E
:10964000681703007FB500F011F818B900F015F89D
:1096500004F079F804B070BD7FB500F007F818B9D0
:1096600000F00BF804F087F804B070BD044608461B
:1096700015461E4602A904F041B9089909980091BF
:109680000190334602992A462046704780B500F083
:109690000DF880B202BD80B500F008F8FA21B0FBE9
:1096A000F1F080B202BD000000BF0000E0B504F0A0
:1096B0000DF96A4604F054F918B147212BA0FBF7C5
:1096C0007BFBDDE9000103B000BD000080B503F0C5
:1096D00095FD01211748FEF78FFE04F009F820B12F
:1096E0005FF0520121A0FBF767FB002002BD124989
:1096F000012008707047FEB504460025216801B9B5
:109700001EE000F00CF808B100F002F801201BE0A8
:1097100001950095002321683A46301D92E7064ED8
:10972000064F35700023009301953A46301D93E7AC
:109730000000000030053E0058760020EF96000043
:1097400004F051FA0020FEBD04F0F6FA307840B97A
:109750002146301D04F083F8206804F0E4F88525E4
:1097600001E00020307020602846FEBD73797374DC
:10977000656D2D74696D65722E63000000B10C304B
:1097800002F0F4BC38B50D46044689B2FFF75DFD22
:10979000010005D1A9B22046BDE8344002F06DBCFD
:1097A00032BD002000217047DFF8540400214180C1
:1097B00001710022FF21417181710281428101709A
:1097C0004270704770B5402804461546DFF8306493
:1097D00003D1F1782A20FFF7C0F9280018BF012033
:1097E00070703470DFF81C04007804F0C2FBBDE830
:1097F000704001F0FDB870B58D281CBF87288E28F9
:1098000004460D46164601D1FFF757FE324629465B
:109810002046BDE87040D5E7F8B5DFF8E063FBF718
:10982000C7FB06F17E052C78FF2C7CD0FF21297028
:10983000FCF7E6FC20001CBF402C8F2C19D101F056
:109840009DFE400915D0701C04F0AAFB00F4406096
:10985000B0F5406F04D1B11D002004F0B7FC04E066
:10986000B01D04F09DFB00F0ADFD31780D3104F02A
:1098700064FF002CA87816BF8F2C01270027022830
:1098800003D040F2171100F097F88D2C18BF872CE9
:1098900003D08E2C1CBF00202871380012D0304617
:1098A00000F0E1F870B1687840B10121A970292178
:1098B000BDE8F440DFF8500304F06CBA00F089F919
:1098C00031202DE000F085F9402C0ED1FFF714FE79
:1098D000E878411EE97000B3687904F0E1FF0146C1
:1098E0000022042005F0E8F814E08D2C1CBF872C22
:1098F0008E2C12D1687904F0D3FF0146002220207B
:1099000005F0DAF8287940B1401E2871C0B208B9D4
:10991000BE494870BDE8F14051E007B1002420463F
:10992000BDE8F240B2E0FCF76BFCA878032804BF66
:10993000002000F0ABF8688958B1FBF739FB6C895F
:1099400000216981FCF75CFCE2B200211D2005F0DA
:10995000EFF806F1840001F057FCFF2804460FD011
:10996000FBF726FB29894A1E2A81FCF749FC204681
:1099700005F040FBA87818B9BDE8F14005F040BA01
:10998000F1BD49E7A24A1178002900D0704780B59F
:1099900001231028137003D04FF4CC7100F00CF8A1
:1099A0009A48002141700122BDE808404FF47A71C5
:1099B00092480CE1000000009BA0FBF7FDB980B5C8
:1099C000012005F05AFD92480021017021209149A3
:1099D000FFF7C3F848B101280DD002280BD10022AF
:1099E00000218E20FFF7EEFE05E001224FF47A7190
:1099F000824800F0ECF8BDE80240002005F03DBDD3
:109A00007CB5054600207D4E8DF8000006F18004EF
:109A1000207818B140F2EB11FFF7CEFF0220207042
:109A2000E5706A463146284605F0C7F87749487020
:109A300079487A49027862700878A070FFF7BFFF12
:109A400073BD05F0A3BC80B5020008BF012212015E
:109A50007349002005F024FD002002BD704900205C
:109A600005F05CBD704710B5441C204604F098FA20
:109A700000F00700032807D1204604F0D1FE205C47
:109A8000042801D1012010BD002010BD38B50446C6
:109A90005A4D7E220021284605F0BDFD002005F824
:109AA000800F05F0ADF9E9782046BDE8344005F0B7
:109AB000A8B9F8B50D466F1F0446FFB21646E05D23
:109AC000FCF7BCFF2178FCF7BAFFE055FDF773FB0C
:109AD00060B13EB12046FFF7C6FF18B1607840F094
:109AE000200002E0607800F0DF0060702946204628
:109AF00001F03AF90146FF2926D0404D494E05F1C3
:109B00008404204601F06BFB35F8860F401C28804A
:109B10003188288881420BD26988491C698007E016
:109B2000204601F071FB01F09CF82888411E298035
