S02000004E43505F5553575F3131356B325F53325F463736385F3637362E733337D2
S3150000400060D70020D1FE0200F14A00004DFC0200FC
S31500004010A70A0A010042000004180FAC60674701B6
S31500004020000000000000000000000000000000008A
S315000040300000000078FF0200000000000000000001
S315000040400000000000000000FFFFFFFFFFFFFFFF72
S31500004050FFFFFFFF00600B000000000000000000F3
S31500004060FFFFFFFFFFFFFFFF8000000000000000D2
S31500004070000000000000000000000000000000003A
S315000040800000000000000000ECFF0020ECFF002014
S3150000409060D700203625030062FF020000CE002014
S311000040A04417002000E00B0000000000A8
S3150000420060D70020D1FE0200F14A00004DFC0200FA
S31500004210B590000051FC020055FC020000000000B1
S3150000422000000000000000000000000003880000FD
S3150000423059FC0200934A0000BB8F0000DB9300008C
S3150000424061FC020061FC020061FC020061FC0200EC
S3150000425061FC02003D92000077FD000061FC020057
S3150000426061FC020061FC02004D2502007D67000032
S3150000427061FC0200AD67000061FC020061FC020007
S3150000428061FC020061FC020061FC0200FB9500007B
S3150000429061FC02003B30010061FC020061FC02008F
S315000042A061FC0200A13201009132010061FC0200B2
S315000042B061FC020061FC020061FC0200AFA002008A
S315000042C06BA0020069A00200199B0200ADA00200CB
S315000042D06DA0020071A002006FA0020019FE02008C
S315000042E0E1A0020061FC020061FC020061460000E0
S315000042F061FC020061FC020061FC020057AF000095
S3150000430061FC020061FC020061FC020061FC02002B
S3150000431061FC020061FC020061FC020061FC02001B
S3150000432061FC020061FC020061FC020061FC02000B
S3150000433061FC0200102510B5484A484C494B1B68E1
S31500004340234207D103408B420DD0521EF6D16FF0A7
S31500004350020010BD4448034202D06FF0010C201643
S315000043604FF0FF3010BD002010BD70B53F4D6860A6
S31500004370E8680E46410702D518200870BD56F804B5
S315000043800B141F02E008101D241FA86044B1082169
S315000043900820FFF7CFFF0100F4D00421296070BD8B
S315000043A0042028600021211612C4162304D10C1003
S315000043B005BDE87040BCE77054301341F6713129F1
S315000043C04C0122294BE568E1621A606060022626EC
S315000043D030300B2D0CFFF7ABFF05F0010501000394
S315000043E036201CFFF7A3FF01211F4A11600DB10003
S315000043F021E16270BD2DE9F843174F3D68894614E7
S31500004400464A200A80462D0C39620122154B0020AF
S315000044103A10251A6002E0B044B144A41B7CB108EE
S31500004420F50056760B7603A6EB0806B442494640DD
S315000044304638BF26463246FFF792985003EBD00126
S3150000444021095A10113962BDE8F283809698000658
S315000044500001001C0003400208121008130C10048F
S31500004460000120034000000042DE704738B50446D4
S315000044700D4600F01BF900F02FF92946204600F002
S3150000448054F92B4622466C49012000F0EDFA2946E4
S315000044902046BDE83440E7E768482DE9F84301685F
S315000044A0674E4FF42068B165026A6649F2650B688B
S315000044B0336649687166426AB266816AF166C26AA3
S315000044C03267016B7167806B96F83810B0674807E2
S315000044D04CBF346CF46B00F0F9FA5B4B002284425B
S315000044E001463265A14624BFA3F12007A7427165A4
S315000044F006F19002DFF854C1DFF854E118D3A06941
S315000045007064E469B464B56DC5F30805062D13D16E
S31500004510704511D360450FD200884DF64264A04223
S315000045200AD17068B46840F201785060946003E084
S3150000453000247464B46481464648814202D201462E
S3150000454000E0091D0846984203D20C68B4F1CD3F3D
S31500004550F7D04149081AF0640020002106F17C04D6
S31500004560C5B2401CC7B244F82510062FF8D3002068
S3150000457099452CD253F8041D7145F9D36145F7D2FC
S31500004580CC07F5D5002406F17C0555F824708F423A
S3150000459002D0641C062CF8D3062CE9D1C4B2002C38
S315000045A006F17C040CBF0520401EC5B244F8251058
S315000045B0DEE7F16F002306F17C0506EB8304D4F8F1
S315000045C0804045F823405B1C042BF6D91160014658
S315000045D0481EC9B20029ECD1B06DC0F3080003280B
S315000045E010D0042811D0052812D0062813D00C2884
S315000045F017D03B2818D119480268910719D540F2FF
S31500004600025816E040F6012813E040F6022810E0B2
S3150000461040F603280DE0B8F5206F0AD140F60428CD
S3150000462007E040F6052804E018B14D2838BF40F6EB
S3150000463007284046BDE8F28364FF020004ED00E06F
S315000046400000002000E300E060D7002062FF0200C7
S31500004650684400009C00002060D700201880014AB2
S3150000466000F046BA7FB5164991E81C00684603215A
S3150000467080E81C0001250D268DF807108DF80050E6
S315000046808DF806600821232000F06CFB69460D4872
S3150000469000F018FE4FF400600B49086002220B4B35
S315000046A01A600B4C20600B490A607FBD054800F07C
S315000046B0F8BDA52803D10021024800F0E1BD7047EE
S315000046C0EC0003000080014A84E200E018A0014AE1
S315000046D004E100E01C90014A302080F31188704705
S315000046E070B500F0EFFEA64C204601F0A8FAD8B946
S315000046F0204601F06DFA0446FF2815D0A14801684E
S31500004700085D851EE9B2204601F0E8F90646E9B2E1
S31500004710204601F0E8F82146304600F0E1F8204650
S31500004720BDE8704000F081BF70BD03460A4693A104
S315000047300420FFE70CB480B502AA00F029F801BCFA
S315000047405DF80CFB80B586B001F05AFD602204923C
S315000047508D4A0021672300920591039302910191EE
S31500004760024600238CA10120FFF7E4FF87488179E8
S315000047700288437903910179029201930091C378EB
S3150000478090F8022087A14220FFF7D4FF07B000BDB2
S315000047902DE9F04F85B005460F469046002401F0FE
S315000047A096FDF0B900F011FED8B1012000F0D3FE5D
S315000047B08246FF2815D0002100F0C8FE294601A830
S315000047C000F009FE054687BB00F083F830B9504675
S315000047D000F00DFE10B1042001F06AFD504600F015
S315000047E024FF05B0BDE8F08F8DF8041001251BE00D
S315000047F0644858F8046B0068F2B2FF2A10F80A9071
S3150000480012D0F1B210F801B050460BEB0901C9B253
S3150000481001F069F80028E1D1CDF800B00023F2B22A
S315000048204946504601F08DF97F1C38780028CBD0D8
S31500004830A0F130010A2904D20A2101FB0404303C0C
S31500004840F2E700F046F80028C8D13978002501A81B
S3150000485042290ED044291AD0462925D057290DD0F1
S315000048606229C5D066292AD06C2925D0702926D080
S31500004870BAE758F8040B8DF80400B7E758F8041B9C
S3150000488002258DF804100904090E4170CCE758F88A
S31500004890041B04258DF804100B0A0A0C090E43703C
S315000048A082708DF80710BFE758F8041B504600F0D9
S315000048B0CEFF0028B8D091E758F8044BB4E758F873
S315000048C0041BE2B2504600F0C0FF002808BF0024D7
S315000048D0F0E72A4601A9504600F0B7BF00000000E5
S315000048E02DE9F04385B080460D46122809D03A28B6
S315000048F01ED04FF6FE71884204BF284601F01AFD0D
S3150000490034E020480168224F4E5D2846FF282DD00E
S31500004910212EB4BF3446202400F012FE0146224662
S31500004920002001F0B7FF3868203EF6B2455DECE79F
S3150000493002F08EFA814603F0A6F9064602F028FD3B
S31500004940074602F021FD044603F099F91149024693
S315000049500B680D48CDF81090039058880196009783
S315000049600290234611A13B20FFF7E4FE294640466C
S3150000497005B0BDE8F04301F0CBBC0000574600008F
S315000049807EDE0020A8DA002064F900204C07030030
S31500004990B0DA00205CF900204242387042424242BE
S315000049A05742420042424242574200005742425753
S315000049B057387042000000002DE9F84104460125F1
S315000049C093B00F4690461E46012C06D0022C1ED0F0
S315000049D0202C02D0212C1AD029E068462949282209
S315000049E003F0EAFC012C18BF202C08D0022C18BFBB
S315000049F0212C04D0032C1CBF222C232C24D101975C
S31500004A00ADF81080012E14D14FF4805015E00AA89D
S31500004A101D49242203F0D0FC68460AA9242203F08B
S31500004A20CBFC1021ADF82410ADF82610DAE70120F2
S31500004A300BE0022E03D14FF44050ADF80E0069464C
S31500004A40204601F080FF0546E8B214B0BDE8F081CB
S31500004A5080B502F043F8C0B202BD02F08AB880B554
S31500004A6002F091F8C0B202BD0CB40A4680B5014608
S31500004A7002AB064803F0EAFC002002BC5DF80CFB22
S31500004A8000000000CC010300F40103008F6C00005D
S31500004A907047704710B50446FFF71EFE200A00282F
S31500004AA00E484FF20F0108BF240204804180BFF375
S31500004AB05F8FBFF34F8F0A490A680A4802F4E06223
S31500004AC002430A60BFF34F8F00BFFDE706487047F9
S31500004AD00548203870470548704700000000002050
S31500004AE00CED00E00400FA0500CE0020A000002036
S31500004AF003F0A8BD03F0F2BD1CB5002100912428E7
S31500004B0056D8DFE800F01316191E2732363A3E4211
S31500004B10464A4E52163A55553E161E271E32163A2C
S31500004B201E52363636361E1E1E42460003F0C6FD9F
S31500004B3019E003F0D3FD16E003F0C0FD04460220A1
S31500004B4003E003F0CBFD0446032000F06AF8B4FB53
S31500004B50F0F008E003F0C2FD0446032000F061F81F
S31500004B60B4FBF0F04008009022E0684600F0F8FA46
S31500004B701EE0684600F08AFA1AE0684600F0AAFAD3
S31500004B8016E0684600F0AAFA12E0684600F034FB28
S31500004B900EE0684600F026F80AE0684600F054FA8F
S31500004BA006E0684600F006F802E0684600F012FBF0
S31500004BB0009816BD38B50C46DFF8241600F05FFAEB
S31500004BC0022A02D0032A04D007E003F087FD0B2156
S31500004BD004E003F0ACFD052100E0002100F09ABAE4
S31500004BE00000000038B50C46DFF8F81500F06AFA48
S31500004BF014D8DFE802F002060A0E03F0C9FD082108
S31500004C000DE003F0CBFD072109E003F0C4FD092107
S31500004C1005E003F063FD800A0C2100E0002100F0AE
S31500004C2079BA01460020DFF80C26012905D00229B1
S31500004C3007D0032909D00E290AD11068C0F3013024
S31500004C4006E0106AC0F3046002E01068C0F380203A
S31500004C50401C704738B54C1EDFF8D855012805D0E2
S31500004C6002280ED0032813D00E2817D100F0BCFA64
S31500004C7000F09BFA286820F4405040EA043028608F
S31500004C8057E1286A20F0F85040EA0460286231BDF6
S31500004C90286820F4806040EA8420286031BD000046
S31500004CA080B500218DF80010242858D8DFE800F0E0
S31500004CB013575757572B30353A3F44494E535735BC
S31500004CC057573A575757572B573557533030303079
S31500004CD05757573F4400DFF85C05016801F00701AC
S31500004CE0491E03293BD8DFE801F00A020406042224
S31500004CF002E0032104E006228DF800202FE00221C5
S31500004D008DF800102BE06946002000F029FA26E015
S31500004D106946002000F0BAF921E06946002000F05B
S31500004D20D9F91CE06946002000F0D8F917E0694679
S31500004D30002000F061FA12E069460020FFF752FFFA
S31500004D400DE06946002000F07FF908E06946002082
S31500004D50FFF730FF03E06946002000F03BFA9DF8BC
S31500004D60000002BDF8B5002500260C46DFF8C47425
S31500004D70DFF8C424DFF8C434242844D8DFE800F080
S31500004D8013C2C2C2C244576A71788CA0B0BCC26A50
S31500004D90C2C271C2C2C2C244C26AC2BC57575757C6
S31500004DA0C2C2C2788C00022915D0032907D0042973
S31500004DB003D0062908BF04250EE002250CE0DFF823
S31500004DC0800406680120DFF87C147608032506F0C7
S31500004DD00106086000E0012500F006FA00F0E5F99A
S31500004DE0386800F090F83D60FFF784FE002100F07F
S31500004DF024F900F0E0F9002E08BF032C03D10120AE
S31500004E00DFF844140860F1BD022907D0052903D054
S31500004E100D2904D1012502E0022500E00325DFF873
S31500004E202C040168890845EA81050560F1BD891EE3
S31500004E3003290AD8DFE801F008040206012504E088
S31500004E40022502E0032500E00425186A00F05BF85D
S31500004E501D62F1BD00F05FF8186C00F058F81D6493
S31500004E60F1BD00F058F8186E00F051F81D66F1BD5E
S31500004E70072909D0082905D0092907D00C2908BF18
S31500004E80042504E0012502E0022500E00325106860
S31500004E9000F039F81560F1BD072909D0082905D0B9
S31500004EA0092907D00C2908BF042504E0012502E0E2
S31500004EB0022500E00325906800F025F89560F1BD15
S31500004EC0032905D0062905D0072908BF022502E0D7
S31500004ED0012500E00325186800F019F81D60F1BDF2
S31500004EE0052903D00B2902D1022500E003253869E4
S31500004EF000F00DF83D61F1BD00F00DF8106C00F00A
S31500004F0006F81564F1BDC00845EAC005704780087B
S31500004F1045EA80057047072905D007D3092904D03B
S31500004F2004D20125704702257047032570470020EB
S31500004F30B6E6FFF7DFFD002100F07FF8BDE831405F
S31500004F4039E1F8B50446FFF7F2FF032874D0DFF81D
S31500004F50001345F60E000867DFF8F83202221A61E0
S31500004F60DFF8E422012010608D6CE803FCD466783B
S31500004F702578E078360546EA05662579677946EAB2
S31500004F800046A07946EA053646EA871606430E60CD
S31500004F90267AE579607A360646EA8566A57A46EA8D
S31500004FA00046E07A46EA052606438E600D69607B78
S31500004FB0002825F00D050CBF002608263543267B64
S31500004FC045EA860505430D61607BE57BA67B0028E7
S31500004FD0886920F0330040EA461646EA051520D1D6
S31500004FE045F001058D61DFF870028D6C0540854244
S31500004FF0FBD102201861886C4500FCD40868A578AE
S315000050004FF0004620F4700040EA055008601E602C
S31500005010207C08B902231360607C40B90123136029
S3150000502005E0227C607C45EA420505438D61A07C53
S3150000503010B1DFF828220A67F1BD0029CCBF012193
S3150000504000216CE00000000038B50C467B4900F0FA
S3150000505016F8032A11D8DFE802F00E02060A03F05A
S315000050604CFB03210AE003F099FB072106E003F05D
S3150000507057FB062102E0012100E000214AE00A6810
S315000050800546002002F003027047000038B50C46C2
S31500005090734900F017F813D8DFE802F002060A0E8B
S315000050A003F03AFB04210CE003F027FB032108E0A0
S315000050B003F03DFB052104E003F036FB022100E08E
S315000050C0002127E00A680546002002F00702521E6A
S315000050D0032A704738B50C46624902E038B50C46DB
S315000050E061490A680546002002F00302012A04D03D
S315000050F00FD3032A09D004D30BE003F049FB0821A0
S3150000510008E003F04BFB072104E003F044FB092110
S3150000511000E0002105B1286004B1217031BD41F6DF
S31500005120713330B5514C5249524D4A694B630B6845
S31500005130120CA04223F440134F4C02F0010228BF88
S3150000514043F480130B602368A84223F0020328BFB0
S3150000515043F0020323600AB10020486330BD00001B
S3150000516038B504460D460020009038490A6802F01A
S315000051700302012A04D012D3032A0CD006D30EE070
S3150000518000216846FFF782FF0D2008E003F0CFFA02
S315000051900090052003E003F0C7FA009002200CB14E
S315000051A00099216005B1287031BD2248016841F49B
S315000051B0806101607047012010B5FFF79DFC022455
S315000051C02C49884238BF012421460320BDE81040FF
S315000051D0FFF740BD38B50C46284982E700000000BD
S315000051E0808000400882004080B503F084FA0021E8
S315000051F0BDE8044093E7000038B50C460E49FFF7BA
S3150000520061FF14D8DFE802F002060A0E03F0C0FAC6
S3150000521008210DE003F0C2FA072109E003F0BBFA0A
S31500005220092105E003F05AFA800A0C2100E000216A
S3150000523070E700007080004000820040008100405E
S3150000524028C0004028D0004028E00040808100406F
S3150000525010C0004018D0004003000140F1A7FFFF36
S31500005260208100404081004060810040C117530208
S315000052700800034081F0FA0218C20740408200404D
S315000052804269002A0CD439B9416ACA07FCD4012103
S3150000529042F20403C1507047012241F20401425018
S315000052A0704710B504466068C1070AD503F0A0FA36
S315000052B0616ACA075CBF0121E160BDE8104003F0E6
S315000052C09DBA10BD38B5044660680D4630B1606AB7
S315000052D00028FCD1012142F20402A150687800287E
S315000052E0A87814BF1021002108B141F00201E87826
S315000052F008B141F00401287908B141F00801687A43
S3150000530008B141F48071E8792A7AAB7941EA006103
S31500005310204641EA027141EA0341A1602978FFF77C
S31500005320AFFF687908B10021216231BD80B5012146
S31500005330704A1160002003F087FA0123042203213A
S31500005340002003F0B0FA012000F07CFF00F00EF818
S3150000535000F0A9FF03F084FB012340226649674859
S3150000536003F050FB66490860C00F02BD70B5654882
S315000053700168654C654D41F001010160C26800217C
S31500005380634E42F08072C2606248206029603160DC
S31500005390022361490B600C20FFF7AEFB5F4908183A
S315000053A05F4AB0FBF2F05F4B0021401E1860296493
S315000053B05D4820655D4931604FF480725C4802604B
S315000053C02B6843F480732B6070BD4E48006800B1B3
S315000053D00120C0B27047D12202704170090A817063
S315000053E054490A78C270521C0A7004207047524908
S315000053F02DE9F14F0A6882B00090145C042C5EDB44
S31500005400641D03F05DFBE4B2002501904FF6FF79C1
S31500005410DFF828A1DFF8F4803A4E1FE09DF8080077
S31500005420A91EC9B200F0A3FA0746494603F0BAFB23
S3150000543081465D4636480168CA070FD5F06840F0D8
S315000054408070F060D8F8001041F48071C8F8001040
S31500005450DAF800000028F1D08AF800703168EFB25F
S3150000546049B3A74227DA03F02BFB019940F2F51264
S31500005470401A80B290421EDAE8B210B95B270125C5
S31500005480D8E7012805D12C480168009A02258F5CCF
S31500005490D0E7E01E874205F1010B08BF4F46C8D092
S315000054A0A11E8F4208BF4FEA1927C2D0601E87424D
S315000054B0B4D15D27BDE7A74208BF002000D0012078
S315000054C0BDE8FE8F0E4B10B5186890B040226946B5
S315000054D003F094FA58B1C1B2684600F029F90446BF
S315000054E021461220FFF7FCF9204600F09EF810B086
S315000054F010BD000044D4034018E30020E0FF020082
S31500005500A0DA0020F0ED00E0B00F00E0000E00E0B1
S31500005510800E00E055CEACC5F00004E0FCAC060001
S31500005520F8590D00100004E0FF0300400D000100D3
S31500005530040304E01FFB0020A8DA0020200000E09E
S31500005540DFF840170A6802EB40107047DFF838278B
S315000055501368195470472DE9F0415FEA000831D00D
S3150000556003F046F9DFF824271678FF23DFF8201723
S31500005570DFF82057FE2E19D100271770DFF81867BD
S315000055803478DFF818C72C7007E07C1C0EF807404B
S31500005590DCF800E00EF80730E7B23478D1F800E026
S315000055A0A742F2DB0EEB040606F8013C2E784645D0
S315000055B00AD203F023F9052000F07AFE00211B2011
S315000055C003F027FCFF2020E0A6EB08062E701578D6
S315000055D0DFF8CC661778D6F800E00124A8F10108B8
S315000055E00EF80740D1F800C01CF8074014705FFAA7
S315000055F088F4002CEED10CF80730DFF88C261368FF
S315000056000021595503F0FAF82846BDE8F08110B597
S31500005610044603F0EDF8DFF8881609680A5D521CA7
S315000056200A55BDE8104003F0E9B8F8B5044600F0A5
S3150000563031F8054603F0DCF8DFF85036DFF854762B
S31500005640DFF84CC6DFF858E601E02C46FF25FF2CB4
S315000056501CD022460FE0DCF800100026895CA65418
S315000056603C78641C3C701C78DCF80060FF29B4545C
S315000056701A70EAD00A46DEF800108C5C661E8E545C
S31500005680DEF80040A15C11F07F0FE4D0BDE8F240E7
S3150000569003F0B4B810B5DFF808160A68145C2106E2
S315000056A005D5DFF8E02513684001185C10BDFF2022
S315000056B010BDB0B504460D46FFF7ECFFFF2818BF36
S315000056C0FFF7B3FF2846DFF8D875FF2804D13868FE
S315000056D0015D01F07F0105E0FFF799FF3868015D84
S315000056E041F080010155DFF89C05016864010D5504
S315000056F0B0BD0EB430B504460120FFF72CFFDFF82D
S3150000570084150A68FF2802EB40110ED0DFF87825D1
S31500005710136803AA1C54002304E052F8045B5B1CC4
S3150000572001F8015BDDB2A542F7D330BC5DF810FB92
S315000057307CB504460D4605F11F000004400DC0B2BD
S31500005740FFF709FF0646FF280CD000F07AF88D55C2
S315000057503CB1012000902B4600223146204600F045
S3150000576002F8304676BDF3B5054681B0174600F01F
S3150000577068F89DF808201E46F4198B5CA34203DAEC
S315000057804FF4B77100F0E3F830000CD0089C3946AE
S3150000579002A800F0E0F89DF808100246009433468F
S315000057A0284600F001F8F7BD2DE9F0478046894606
S315000057B014461F46089DDFF8D864DFF8C8A40DE03C
S315000057C02900224612BF41460146404603F096FB99
S315000057D030683F1BA04410F809900024F8B270B15D
S315000057E0DAF80000214600EB4913581851FA87F100
S315000057F02029B2BFFCB2C4F12004E4B2E0E7BDE860
S31500005800F0872DE9FC410746884600F01AF8154650
S315000058101E46CC5D2919CBB2A34206DB28000DD06B
S31500005820C9B2384600F05FF808B1182007E00096C4
S315000058302B46224639464046FFF795FF0020BDE835
S31500005840F681DFF84404016870470123D9E70A4668
S3150000585000E0521C1378002BFBD1521A0123D2B25E
S31500005860CFE72DE9F041804601F11F0402F11F0048
S31500005870E404C004240E000E04B9012400B901207A
S3150000588084422AD0DFF8085419DA001BC0B2FFF7A9
S3150000589062FEFF28074608BF00201FD0641E00F0E6
S315000058A01FF82E68305CFF2804D000F019F8305C31
S315000058B0FFF7BBFE00F014F829680F540DE08A428A
S315000058C00BD2411EC9B200F00CF804462868005DF0
S315000058D0FFF7ABFE2968FF2008550120BDE8F081DF
S315000058E0E1B2404610E070B5DFF89C6333680546C8
S315000058F00C46595D2246FFF7B4FF18B1306844558F
S31500005900002070BD182070BD04E0DFF88423136802
S31500005910491E185CCAB2002AF7D1704731B50C4649
S31500005920DFF864130A68155CAC4203D340F2052124
S3150000593000F00DF82146684600F00DF8DFF8441334
S315000059400A689DF8003002EB4311084432BD0FF29D
S315000059505430FEF78BBD38B504460D462078C90491
S31500005960090EFFF7D1FF207005F01F0032BD80B58C
S31500005970FFF7D4FF007802BD10B51446FFF7CEFF3F
S31500005980047010BDF8B50446DFF8FC522868FF2CF9
S31500005990065D03D140F22521FFF7D9FF06F11F016D
S315000059A0C904080EFFF7D7FD0746FF2809D0286867
S315000059B000232246C65500960021384600F0C1F85D
S315000059C03846F2BDF8B505460E4617460120FFF7E4
S315000059D0C2FD0446FF280FD03246DFF8A80206684B
S315000059E03B46202106EB4416701900F01EF82D18D0
S315000059F0FFF727FF20460D55F2BD1CB504AC0094F9
S31500005A0000F001F816BD10B514461A46029B091B94
S31500005A102044C9B2BDE8104007E00CB480B502AA24
S31500005A20FFF7D0FF02BC5DF80CFB2DE9F04781467D
S31500005A304F460024884615469A460CE0F6B23419BD
S31500005A40444542DA3246384603F058FABF19641E16
S31500005A50641C6D1CE4B2444537DA2878A8B33128B3
S31500005A6018BF32280ED15AF8041B322807F8011B3A
S31500005A70EED1641CE4B2A045A4BF091207F8011BCD
S31500005A80E6DA22E034280ED1211D5AF8040B8845A7
S31500005A901BDB3870020A010C000E7A70B970F870C0
S31500005AA03F1DE41CD4E7A0F13303072B5AF8041B6F
S31500005AB038BFA0F13006C1D3A0F14103072B34BF94
S31500005AC0A0F137065AF8046BB8E7A7EB0901C8B28C
S31500005AD0BDE8F087FE206D490870704770B500F08C
S31500005AE02BF800F003F8301880B270BD0602294684
S31500005AF020463CE7E0B58DF80420120A8DF8052013
S31500005B0001230A4600930146022301A8FFF72BFE54
S31500005B1007BDF8B500F010F8FFF7E8FF8619E91C95
S31500005B20C9B2FFF7E5FF0702AD1CE9B2FFF7E0FFD8
S31500005B30C01906EB0040F2BD0D46691C0446C9B209
S31500005B4015E7FDB5089C0D461E4620001BD1F7BD86
S31500005B504C4B1B689DF80400C2F12002D2B203EB45
S31500005B604010BA42B8BF174681199DF800003A4660
S31500005B70E41B03EB4013BE19581903F0BFF97D1956
S31500005B80A0B200B9F7BDA9B26846FFF7E4FE054624
S31500005B90B1B201A8FFF7DFFE0646B542A7B2B4BF11
S31500005BA032462A46D4E770B504460D4602F020FE7A
S31500005BB03A4A23781268FF2B08BF555503D0134481
S31500005BC01E7856551D702570BDE8704002F016BE51
S31500005BD038B5044602F00CFE2178FF22FF2908BFE3
S31500005BE0FF2507D02D4B1B685D5C8D420EBF2270D2
S31500005BF05A5D5A5402F002FE284632BDF8B50446F4
S31500005C000D4602F0F5FD21780026FF2913D0234B1F
S31500005C100A4601261B6803E08F420CD03A46761CE2
S31500005C209F5CAF42F8D1DF5DA9429F5403D18A42FF
S31500005C3008BFFF22227002F0E1FDF0B2F2BD00784B
S31500005C40FF2801D1012070470020704710B5044697
S31500005C5002E0FFF7EAFC2046FFF7BAFFFF28F8D17B
S31500005C6010BD30B50D4B00781C68255C954203D0FD
S31500005C702846255C9542FBD121541868425430BD14
S31500005C8000000000A4DA0020A8DA00207FDE002051
S31500005C90B0DA00205DDE00205CDE0020B4DA0020F1
S31500005CA0ACDA00207061636B65742D62756666659B
S31500005CB0722E63000901020003D4DFF8180581542F
S31500005CC07047DFF8143502F00F021A4402F8041C7C
S31500005CD0704730B500F007000123C0F10704052C1A
S31500005CE02EBF0F2403FA04F4641E051D072D34BFCE
S31500005CF00020C01E2140814003FA00F0401E1040E3
S31500005D00084330BD002070470020704770471CB51F
S31500005D1072B6FEF7E1FCDFF8C4044169DFF8C0445F
S31500005D200022216000F03CFA01466FF00B00FFF7FD
S31500005D30C1FF00F034FA01466FF00A00FFF7BAFF20
S31500005D4000F02DFA01466FF00900FFF7B3FF00F0EF
S31500005D501EFA01466FF00800FFF7ACFF00F017FAD5
S31500005D6001466FF00700FFF7A5FF00F010FA0146A5
S31500005D706FF00600FFF79EFF00F009FA01466FF08C
S31500005D800500FFF797FF0022022100F002FA014604
S31500005D906FF00400FFF78EFF00F005FA01466FF082
S31500005DA00300FFF787FF00F0F2F901466FF00200EB
S31500005DB0FFF780FF0022072100F0EBF901466FF0A4
S31500005DC00100FFF777FF00F0EEF901464FF0FF30D4
S31500005DD0FFF770FF00F0E7F901460020FFF76AFFC2
S31500005DE000F0E1F901460120FFF764FF00F0DBF95E
S31500005DF001460220FFF75EFF00F0D5F901460320B9
S31500005E00FFF758FF00F0CFF901460420FFF752FFD5
S31500005E1000F0C9F901460520FFF74CFF00F0C3F971
S31500005E2001460620FFF746FF00F0BDF901460720B0
S31500005E30FFF740FF00F0B7F901460820FFF73AFFE9
S31500005E4000F0B1F901460920FFF734FF00F0ABF985
S31500005E5001460A20FFF72EFF00F0A5F901460B20A8
S31500005E60FFF728FF00F09FF901460C20FFF722FFFD
S31500005E7000F099F901460D20FFF71CFF00F093F999
S31500005E8001460E20FFF716FF00F08DF901460F20A0
S31500005E90FFF710FF00F087F901461020FFF70AFF11
S31500005EA000F081F901461120FFF704FF00F07BF9AD
S31500005EB001461220FFF7FEFE00F075F90146132099
S31500005EC0FFF7F8FE00F06FF901461420FFF7F2FE27
S31500005ED000F069F901461520FFF7ECFE00F063F9C2
S31500005EE001461620FFF7E6FE00F05DF90146172091
S31500005EF0FFF7E0FE00F057F901461820FFF7DAFE3B
S31500005F0000F051F901461920FFF7D4FE00F04BF9D5
S31500005F1001461A20FFF7CEFE00F045F901461B2088
S31500005F20FFF7C8FE00F03FF901461C20FFF7C2FE4E
S31500005F3000F039F901461D20FFF7BCFE00F033F9E9
S31500005F4001461E20FFF7B6FE00F02DF901461F2080
S31500005F50FFF7B0FE00F027F901462020FFF7AAFE62
S31500005F600022032100F015F901462120FFF7A2FEC9
S31500005F7000F019F901462220FFF79CFE00F013F904
S31500005F8001462320FFF796FE00F00DF90146242076
S31500005F90FFF790FE00F007F901462520FFF78AFE7D
S31500005FA000F001F901462620FFF784FE00F0FBF819
S31500005FB001462720FFF77EFE00F0F5F8014628206F
S31500005FC0FFF778FE00F0EFF801462920FFF772FE92
S31500005FD000F0E9F801462A20FFF76CFE00F0DBF836
S31500005FE001462B20FFF766FE00F0D5F801462C206F
S31500005FF0FFF760FE00F0D7F801462D20FFF75AFEA6
S3150000600000F0D1F801462E20FFF754FE00F0CBF841
S3150000601001462F20FFF74EFE00F0C5F8014630205E
S31500006020FFF748FE00F0BFF801463120FFF742FEB9
S3150000603000F0B9F801463220FFF73CFE00F0B3F855
S3150000604001463320FFF736FE00F0ADF80146342056
S31500006050FFF730FE00F0A7F801463520FFF72AFECD
S3150000606000F0A1F801463620FFF724FE00F09BF869
S3150000607001463720FFF71EFE00F095F8014638204E
S31500006080FFF718FE00F08FF801463920FFF712FEE1
S3150000609000F089F801463A20FFF70CFE00F083F87D
S315000060A001463B20FFF706FE00F07DF801463C2046
S315000060B0FFF700FE61684FF6FF00014041F0BF6147
S315000060C041F401316160E0684FF4E02140F01000D6
S315000060D0E060E16102F0A7FF02F0EEFFEFF3088057
S315000060E0001F40494FF0CD3201E040F804298842B4
S315000060F0FBD23D4A92B200213C4802F046FF62B60E
S31500006100684603F02BF83A48816ACA0311D44168FD
S315000061106FF3162141F4B81141F40541416001685D
S3150000612021F4704141F440410160026842F4E062AA
S3150000613002609DF80100012804BF9DF800000028B8
S3150000614007D14FF0005106200A6801F58041401E34
S31500006150FAD128480168284A41F00301016002206B
S31500006160106003F009F803F0EBF80521684603F028
S3150000617031F901208DF80300684603F060F903F059
S315000061806DF902F0BDFC1D4803F00EFA13BDFF22A7
S31500006190FF2104209DE500220121042099E500222B
S315000061A00021042095E500220421042091E540F217
S315000061B00160FEF76FBC03F019BA80B500210B2011
S315000061C003F00CFABDE8014003F011BA032003F016
S315000061D063BB000000E400E018ED00E000400000B2
S315000061E008ED00E000CE0020A4160000A00000206C
S315000061F030C00040808000407040004060060300D0
S3150000620010B502F09AFF044602F09BFFC0B220B917
S31500006210012C0BD144F0800010BD072CFAD8DFE822
S3150000622004F005040709090B0D0FF3E7002010BD64
S31500006230092010BD022010BD032010BD0B2010BD8B
S31500006240062010BD2F49087070470EB430B50446BD
S315000062502C49087820B3FFF7B8F808B3FEF718FC06
S315000062600120FFF778F90546FF2819D0FFF768F9EE
S315000062700221FFF7B0F801462846FFF767F903AB9E
S3150000628022462946204802F0E1F830B12846FFF7B9
S31500006290AEF810B1042000F00BF82846FFF7C5F958
S315000062A030BC5DF810FB0C220021184802F06DBED0
S315000062B0164931F81020521C21F8102070470CB4F2
S315000062C080B502AAFEF764FA01BC5DF80CFB0D4A24
S315000062D01178A1B9010018BF012810D0042818BFF1
S315000062E005280CD0312818BF332808D037281EBF00
S315000062F03B284FF6FF71884201D0012070470020ED
S3150000630070470000CBFF00204B580000C0F500206E
S31500006310302818BF322806D034281CBF3628382823
S3150000632001D0002070470120704770470020704759
S315000063300020704770470198704770477047704754
S31500006340702003F02FBB7047704700207047002075
S315000063507047012070470120704700207047704742
S3150000636000F0C8BE010008D4012200F01F018A40D7
S31500006370DFF85838400943F82020704701000CD454
S31500006380012200F01F018A40DFF84438400943F833
S315000063902020BFF34F8FBFF36F8F7047010008D4E3
S315000063A0012200F01F018A40DFF82838400943F82F
S315000063B020207047C26C1143C1647047401E0128FB
S315000063C084BF1F38012801D801207047002070477C
S315000063D010B5DFF80448012806D0022807D0202887
S315000063E002D0212803D004E00020204410BD1C2048
S315000063F0FBE740F28311DFF8D008FEF737F82046B6
S3150000640010BD426893884089411A8B4201DA012007
S315000064107047002070473EB50446FFF7CFFFA0B394
S31500006420204600F075F880B300F029FB044602F020
S31500006430DFF90546A06901AB6A4602A904F0DEF958
S3150000644000992289206889B200F024F8284602F0D3
S31500006450D5F9A06904F047FA012816D122682189E6
S315000064609088228A091A91420FDBA06990F83110B0
S31500006470022903D104F0C0F9022804DAA06990F8D1
S315000064803110012901D100F001F837BDA0690021C2
S3150000649004F002BA70B504460E46154602F0A8F995
S315000064A0E288B2420CD221888B1AF31893FBF5F1DD
S315000064B005FB11352580A388F3189A1AA280E68079
S315000064C000F03FBCF8B504460D46164600F020F82D
S315000064D0C0B100F0D4FA0446207B10B101216173EB
S315000064E0F1BD607B18B12046BDE8F240A2E0A0698C
S315000064F00FF2A91700F007F820B1A06900F003F821
S315000065000028FAD1F1BD3B463246294604F091BA3D
S31500006510401E012884BF1F38012801D8012070477A
S315000065200020704770B506460D46FFF751FF04463A
S31500006530012E06D0022E1CD0202E02D0212E18D0DD
S3150000654070BD0B26A16991F8320000BB08680422D1
S3150000655042F2480142503046FFF720FFA06900682A
S315000065604DB10421FFF726FF3046FFF7FBFE05215C
S3150000657007E00D26E6E700F014F93046FFF7FEFEC9
S315000065800021A0690068BDE8704004F0FDBA70BD46
S31500006590F8B50446DFF834071D4681422AD00026A6
S315000065A0F2B21C204243DFF830168F18BB69A342B3
S315000065B01CD13A893868A9B2FFF76CFF3868002108
S315000065C0C18002E0384600F016F8204604F014F9BF
S315000065D002280BDC3889F9893A68A0EB41009188DA
S315000065E08842EFDA0121204604F056F9761CF0B213
S315000065F00228D5DBF1BD70B50446E089668A2568B8
S3150000660002467043DFF8C8362E18A06906F1080165
S3150000661004F0C7F9A06904F0EFF8012801DDFFF7DF
S3150000662035FF608AA18A401C90FBF1F201FB120043
S31500006630608270BDFEB50446207B68BB60686B4611
S3150000664001AA41880FF25506084400F10807A0691F
S3150000665002A904F0F3F861688A880098019D121A6D
S315000066600888551B4A8890420ED26189A069334634
S315000066708A1A394604F0DDF970B962686189508872
S3150000668002F108076D1A4519A0693346EAB2394680
S3150000669004F0CFF900B96073F7BD00002DE9F041B1
S315000066A0054698460027F9B21C225143DFF8280513
S315000066B04418A369AB4216D160688188414534BF4E
S315000066C08688464602F094F86168B2B24988511845
S315000066D0628900F04EF86268518061688A88961B6C
S315000066E08E8002F08BF87F1CF8B20228DBDBBDE857
S315000066F0F08138B50546112909D1A869002104F0B1
S31500006700D8F8002129732846BDE8324092E71329BC
S3150000671006D1A869012104F0CCF80120287331BD07
S3150000672028682A898488141BA4B264B100F108027F
S315000067300088115428682A89018800F019F8018018
S315000067408188491C8180A86904F0CDF820B9E889C0
S31500006750A0420CDB012105E0012808D1288A8442E9
S3150000676005DB0021A869BDE8344004F095B831BDC9
S31500006770491C91FBF2F302FB1311704710B5202060
S31500006780FFF726FE0446A169DFF8480591F8312097
S31500006790012A03D181690A0602D51AE000F001F840
S315000067A010BDC16C21F00401C164704710B52120F1
S315000067B0FFF70EFE0446A169DFF81C0591F83120AB
S315000067C0012A03D181690A0602D502E0FFF7E9FF33
S315000067D010BD04F083FA01462046BDE8104088E764
S315000067E070B5DFF8F444DFF8EC54A8B90021284668
S315000067F004F0CAF9012300220521002002F053F813
S315000068000021204604F0C0F90123002201210120C5
S31500006810BDE8704002F047B80B20FFF7BFFDDFF878
S31500006820AC634FF400603060E96C0D2041F0040168
S31500006830E964FFF7B3FD4FF400503060E16C41F0BE
S315000068400401E16470BD80B5B8B90521DFF88404A0
S3150000685004F09AF9012304220521002002F023F80E
S315000068600521DFF8740404F08FF9012304220121C5
S315000068700120BDE8005002F016B80B20FFF78EFD90
S315000068800B20FFF77BFD0D20FFF788FD0D20BDE8EF
S31500006890024073E5F8B50C461546FFF799FD064626
S315000068A0306881883289E8B2121A914201DB0120F0
S315000068B0F2BD00270DE001F09BFF316814F8012BB3
S315000068C07F1C01F1080309885A543168338900F0A6
S315000068D070F9AF42EFD30020F2BD411E012980B509
S315000068E084BF1F39012906D8FFF772FD806903F0BE
S315000068F0FAFF012800D0002002BD411E012910B573
S3150000690084BF1F3901291CD8FFF762FD0446A06920
S3150000691003F06FFF800414D56168888888B9A06980
S3150000692003F088FF002802BFA06990F83210002902
S3150000693007D103F05EFF00F44030401E8041C00FD7
S3150000694010BD002010BDF8B500F02BF90D4684BF30
S315000069501F3801285AD8204600F0FAF910B9204607
S3150000696000F08FF800F08BF8064600F088F8012C4E
S315000069700CD0022C03D0202C08D0212C46D1DFF8D5
S315000069805C130160DFF85823426005E0DFF854230A
S315000069900260DFF854134160802303814381601E47
S315000069A0012884BF1F38012867D8012C07D0022C84
S315000069B003D0202C03D0212C06D1382000E0002063
S315000069C0DFF82813084400E00020B061012C0BD04A
S315000069D0022C03D0202C07D0212C17D1DFF810036E
S315000069E0E861DFF8101304E0DFF80C03E861DFF874
S315000069F00C132962A98CF181EB8C33828B4207D26E
S31500006A001C21304602F0E6FC0220F2BD0120F2BD58
S31500006A10B26992F8310001280CD0308990FBF1F769
S31500006A2001FB1700002802BF93FBF1F001FB1031B8
S31500006A300029E5D12946104603F005FDF0B9B069F5
S31500006A400123022290F82010007F01F02CFF287D00
S31500006A50012807D101212046FFF764FDB069FFF741
S31500006A6016FD0AE0002070823189F08991FBF0F072
S31500006A70B08200F06AF900F068F90020F2BD204605
S31500006A80A6E470B500F08DF884BF1F38012814D82D
S31500006A90204600F05DF9F8B92046651E00F030F991
S31500006AA0FFF7EDFF012D064684BF1F3D012D0FD8D0
S31500006AB0B06903F0E2FD10B170BD012070BDB06990
S31500006AC090F83110012903D100212046FFF72AFD55
S31500006AD01C21304602F07EFC002070BDF8B507464A
S31500006AE0401E01280E463C4684BF1F3801280BD89D
S31500006AF03846FFF76DFC05463846FFF78CFC2968DB
S31500006B00888818B92620F2BD0120F2BD01F070FE7A
S31500006B1007462868641E00F1080140880A5C327046
S31500006B2028682A894188FFF723FE418081884A1E0A
S31500006B30012C828084BF1F3C012C15D8A96991F8CD
S31500006B403100012803D10FE02846FFF754FDA8695C
S31500006B5003F052FE022807DA2889E9892A68A0EBA1
S31500006B60410091888842EFDA384601F047FE00205E
S31500006B70F2BD80B5FFF72CFC01464A68488991882A
S31500006B80401A80B202BD02B5411E012984BF1F39D9
S31500006B90012904D80122694600F020F802BD01202F
S31500006BA002BD0446401E0128704741465046FFF785
S31500006BB089BC0A88521C92FBF3FC03FB1C220A8048
S31500006BC08A88521C8A8001F019BE000000E100E0AC
S31500006BD080E100E080E200E068E200202DE9F84F65
S31500006BE08246401E01288846914682BF1F380128EA
S31500006BF001204AD85046FFF7EBFB044660680026A2
S31500006C0000270188084400F1080B27E001F0F0FD99
S31500006C10616818F8012B0B8819440A726168638948
S31500006C200A88521C92FBF3FC03FB1C220A808A880A
S31500006C30521C8A8009884D1EAD41ED0F01F0DEFD24
S31500006C405DB1FDB26D1CAD1BEAB25946FFF7AEFF52
S31500006C506068AE19F6B200F1080B7F1CF8B2484521
S31500006C600AD200212046FFF7CCFB0028CED1207B9C
S31500006C700028F6D0222008E04E4505DAA9EB0600EA
S31500006C8082B25946FFF792FF0020BDE8F28FF8B5B1
S31500006C900C4607460126791E0129154684BF1F3971
S31500006CA001290FD8FFF794FB7F1E012F84BF1F3FDA
S31500006CB0012F05D880692A46214603F016FE0646AE
S31500006CC03046F2BD0120F2BDB8FF0200097000F0A7
S31500006CD0916500000080054000C0054058E1002095
S31500006CE0E0E1002048E00020D0E00020A0E2002003
S31500006CF0A0D9002020DA0020A0D8002020D900202A
S31500006D0070B505466D1EFFF763FB012D0646346818
S31500006D1084BF1F3D012D0DD8B06990F831100129AF
S31500006D2008D0022103F0DCFC0020708200F00DF890
S31500006D3000F00BF801F05CFD0021A180218061804C
S31500006D40E180BDE8704001F059BD3046FFF753BC05
S31500006D50411E012980B584BF1F39012906D8FFF7D6
S31500006D6037FB00281CBF0068002801D1012002BDA6
S31500006D70002002BD20B500217DA2CBB2D35C8342A8
S31500006D8005D0491CCDB2082DF7D3002020BD012027
S31500006D9020BD000020B5002177A2CBB2D35C834290
S31500006DA005D0491CCDB2082DF7D3002020BD012007
S31500006DB020BD6C480168488870476A480168081D0C
S31500006DC0704768480168C87E704766490A68D07689
S31500006DD0704738B5634C2168634D02284873634990
S31500006DE015D12068027B042A1CBF084603F094FFD5
S31500006DF02068007B03281EBF0428284603F08CFF6A
S31500006E0020684169C80054BF9024BC2410E00020CB
S31500006E100870287004F09DF82068007B032818BFCE
S31500006E20042802D104F0A7F801E004F0FAFB91244B
S31500006E30204604F04FFC50B92346132248A10320F4
S31500006E40FFF73DFA2046BDE8324001F0E0BF31BD14
S31500006E5044480168487B00F00F00704741480168CC
S31500006E604A7B02F00F02022A01D10120704700205E
S31500006E70704738B504463B4DFFF7F0FF28B9286840
S31500006E80417B032901D0932032BD05F00BFB208105
S31500006E902868C17BA1722868817B2046E17206F0D2
S31500006EA0B3FD0020207304F1140104F1100006F074
S31500006EB05BFEE081002032BD70B52A4D0C462E687F
S31500006EC0FFF7CCFF20B9707B032801D0932070BD5B
S31500006ED0F07B20702968887B00F007F960702868CD
S31500006EE0817B002001F01F01A17070BD10B5002349
S31500006EF000E05B1CDCB28C4205D210F8014B9442D8
S31500006F00F7D0002010BD012010BD082106F0A0BF5B
S31500006F1014480168487B01281CBF3128332801D159
S31500006F20012070470020704710B5044600F03FFA74
S31500006F30010002D10B490A68D47310BD09480168E3
S31500006F4091F90F00704707480168887B7047012058
S31500006F507047044801688A7B500918BF01207047B2
S31500006F60424200005CF9002020FB002030F70020A0
S31500006F700001020304051D200203040508090A0B8B
S31500006F8038B5044602F02AFB0546DFF8540A837832
S31500006F900178994211D000F041F8641E07D0641EB2
S31500006FA008D0A41E06D0A41E032C03D905E0002297
S31500006FB0194600E0002206F071FF284632BD07F0B0
S31500006FC001B8DFF8203A10B54C000146986A22460F
S31500006FD006F06DFFA04201D0002010BD012010BDBB
S31500006FE00146DFF8002A107B002800D1704780B5E3
S31500006FF0906A06F0ECFF18B140F29B1100F014BE47
S3150000700001BD80B500F00AF806F04AFF00F0030063
S31500007010032801D1012002BD002002BDDFF8C4090A
S31500007020806A704780B5B0F5004F08D1DFF8F819CF
S315000070304FF6FF70098800F007F8BDF80000DFF88A
S31500007040A0194883002002BDADF8000002237F226C
S31500007050684607F0A0B82DE9F04F4FEA501C0C46E1
S3150000706000F01F000026DFF8F4892FE00EF1010E74
S31500007070EF7E5FFA8EF0B84226D25FFA8EF91427B9
S31500007080E86917FB09F94844077A07F007076745D7
S31500007090ECD1477AB942E9DB90F801B090F800905C
S315000070A007EB0B0AAAEB090A8A45DFDB14B1C91BF9
S315000070B0494421700AB1017A117003B1186028465B
S315000070C000E00020BDE8F08F0846761C98F80650D0
S315000070D0F1B2A942F5D2D8F808105FFA86FE51F847
S315000070E02E504FF0000E0146C2E7400918BF40F08F
S315000070F01800704738B5DFF8EC48A06A07F03FF98A
S315000071000546E80744BFA06A07F03EF9E8031CD528
S31500007110E16ADFF8A85A086A18B940F2662100F059
S315000071201BFDE06A016A486818B94FF41A7100F04D
S3150000713013FDE26AA06A0021136A5A68904720B1DB
S31500007140284640F2692100F08BBC31BD3EB5DFF820
S3150000715090482578684600210022002380E80E002A
S31500007160A07A8DF80050002818BF022810D1DFF849
S31500007170745800F00EF858B1A86A0122002106F0F2
S3150000718091FE00F006F818B140F29E2100F025FCB1
S3150000719037BD2179A86A6A4606F0EABE2DE9F043B2
S315000071A089B00646FF280AD1DFF8B00881680A6868
S315000071B0D069467A017A06F01F0646EA4116F5B20C
S315000071C005F01F001B2847D20021019101AB6A463A
S315000071D0F0B2FFF740FF5FEA00081CBF01980028E5
S315000071E03AD0DFF8FC472179F0B2DFF8F877884229
S315000071F031D00B3D102D39BFDFF8240A0568DFF8C2
S31500007200241A0D68002D1CBF2878042824D0786C19
S31500007210854214D002A82946062201F0CDF8B86AA4
S315000072207D6402A906F035FFB0B9B86A04A906F074
S3150000723044FFB4F91810B86A06F0F0FE60B9386B6E
S315000072400199C7F82C80884208D19DF80000787310
S315000072502671FFF77BFF7FE08A2085E0A57A00F0A4
S315000072608DFA386BDFF8549938B1B86A07F0E9F847
S3150000727018B140F2D32100F001FF0198019938635B
S31500007280C868786318B94FF4367100F0F7FED8F87D
S315000072902000B96C814219D018B940F2DF2100F004
S315000072A0EDFED8F82010086818B940F2E12100F088
S315000072B0E5FED8F82010B86A0A68904718B140F27F
S315000072C0E22100F0DBFED8F82000B8649DF800004B
S315000072D026A11C227873267102A801F06DF8786B3E
S315000072E0418A0901C039ADF80E10417C09011439F3
S315000072F0ADF81610407C02A90001ADF81A00E0793D
S31500007300401E8041C00F8DF82100787C8DF8220048
S31500007310B86A07F063F818B140F20D3100F0AEFE1E
S31500007320B86A0122012107F017F918B140F232318B
S3150000733000F0A4FE00F061FCA08B00F08CFCE08B5A
S3150000734000F0A5FC207A00F03BFC00F02BFD00F0DD
S31500007350F9FC284600F07AFA97F90E10B86AC905C2
S31500007360091407F00FFB002000F085BE00000000A6
S3150000737001000000010101016E0000006E00000026
S31500007380000000000B000000DFF8D407007970470A
S31500007390DFF8CC07B0F91800002854BF05216FF0BC
S315000073A0040108180A2190FBF1F040B270470A2147
S315000073B010FB01F0FFE700F5D77140F27722F8B530
S315000073C0914201D38B20F2BDDFF818562A6B0A26AC
S315000073D0DFF88C47002A1EBFA17E01F0C00180297C
S315000073E011D0E97B79B992F902100F4617FB06F71F
S315000073F0B842A1BF92F903100A4612FB06F2824276
S31500007400B8BF11FB06F0297B61B10146A86A06F0F8
S3150000741005FE18B140F2853100F0DFFAA86A06F0E1
S3150000742021FE01E010FB06F020830020F2BD38B5F6
S3150000743004460B38102839BFDFF8E4070068DFF888
S31500007440E417086888B10023002200212046FFF7D0
S3150000745002FE50B104F01F051B2D06D22046FFF791
S3150000746044FE10B928460B2800DAFF2032BDDFF8AB
S31500007470B8194008085C70477047C0B2704711F1F0
S31500007480630F01DA0020704711F1240F01DBFF20A2
S31500007490704764310902481101EB90618904080EB6
S315000074A0704770B5DFF83C450020E064DFF8EC5922
S315000074B0687830B107F074FA0246012A18BF032A29
S315000074C001D1002070BD606BDFF82839DFF8106548
S315000074D000281FBF216B09690029022A17D1E3641E
S315000074E0706900F5FA707061607D18B100200021A6
S315000074F06E2203E0E87829794FF4A072A2806170C9
S315000075002070A8788021E180A070002031E0DFF8AB
S315000075101C597269A94214D1DFF8A419E16402F575
S315000075207A727261617D91B9017901252170827843
S31500007530037990F903109540EB18CB185B1E637026
S315000075400DE0E36402F5FA727261617D19B1002201
S3150000755022806E2105E04178217082786270017880
S315000075600901A1804179A17002891201E280C088D7
S315000075700001A06000F016FCE070A07841B200297E
S3150000758048BF4042C0B270BD70B504462578DFF8EA
S31500007590546496F9160008B18C2070BD3065FFF76B
S315000075A080FF3076DFF838245078690101F5807164
S315000075B010735161DFF8E438987910B1AD1EEDB261
S315000075C003E0306D40F002003065F17B81B9187838
S315000075D070B1607881060BD5306D6FF0010140F017
S315000075E001003065B175506900F50870506102E020
S315000075F04FF0FF30B07507F018FA40B107F013FAF4
S315000076000128316D0CBF0820102008433065032087
S3150000761000F01CF9B06A6A1C4FF4807392B22146DE
S3150000762007F02DFA6D1CA84203DA40F2055100F06E
S31500007630D4F9002070BD00002DE9FC41DFF8A463F9
S3150000764096F9161000256FF00304091D042919D8B0
S31500007650DFE801F00A0A1C1C0300FFF795FF05008E
S3150000766014D000F081FE7CE096F91600A0420CBF13
S315000076700121002100F079FEB575B06A06F016FC0E
S315000076808E206FE000F070FE8C206BE001F0A4FF0E
S31500007690E0B1F06CDFF85C17884217D1307EA8B1F4
S315000076A0DFF820180868002810D5DFF81C08C16824
S315000076B00122C160006800F00F008240521E114294
S315000076C004D100F081FB6E2007F02BFA01F090F850
S315000076D0804696F9160010F1010F1CBF96F91600A8
S315000076E010F1020F2CD196F91600DFF8F472404221
S315000076F0B07501F0E5F93862B06A00F035F8F46C5F
S31500007700B06A3979326D002C07F10C0306D106F008
S31500007710FDFB010005D1002125200EE00093334634
S31500007720A047D8B10020B0754FF0FF313962B06A7A
S315000077308C2506F0BBFB00212620FFF721FC0DE07F
S3150000774096F91600A0420CBF0121002100F00DFEA3
S315000077500020B075B06A8E2506F0A8FB404601F001
S315000077604DF82846BDE8F6810022802107F042BA8E
S31500007770DFF8EC03408B704700000000F8B501F01D
S3150000778037F80446964DA87A012803D1204601F021
S3150000779035F8F1BD934EB06A0122012106F082FB55
S315000077A0B06A8022FFF7E1FF27A00188B06ADFF800
S315000077B00C74ADF80010694607F0CFF820B140F21E
S315000077C0EB513846FCF752FE02208DF80000B06AF5
S315000077D0694607F0A1F820B140F2ED513846FCF7B2
S315000077E045FEB06A06F088FB00212C20FFF7C8FB97
S315000077F000210A20FFF7C4FB0120A87296F9161093
S31500007800091D072914D8DFE801F01818070B040F23
S315000078100F0F07F0D5FB10E06FF00300B0750CE01A
S315000078206FF00201B17508E0892000F001FB04E069
S3150000783040F214613846FCF719FE204600F0DEFFE0
S31500007840FEF7B9FCF1BD000004010000F8B5644D77
S31500007850A97A0446A1425AD02DA31E88614F032956
S31500007860ADF80060DFF854634DD8DFE801F045025B
S315000078703B2BFEF7A2FCB86A694607F06EF818B112
S3150000788040F2316100F04AF802208DF80000B86A33
S31500007890694607F041F818B140F2336100F03EF84E
S315000078A068790028B86A14BF00220222022107F074
S315000078B0A1F918B14FF4C76100F030F80320A8729F
S315000078C0032C24D000F025F80220A8722979B86A82
S315000078D0002206F04DFB18B140F2456100F01EF89B
S315000078E0022C14D0200018BF032C10D10020A8723F
S315000078F0B86AFFF739FFF1BD022C08D100F009F88C
S315000079000220A872F1BD40F25B6100F007F8F1BDFC
S315000079100402B86A8022802107F06CB93046FCF771
S31500007920A5BD002092E78E48807A7047032805D8C7
S31500007930DFE800F00302030320E787E740F27961FE
S315000079409E48FCF793BD10B5264CA06A06F0AEFA29
S3150000795094F916000028824844BF0021A175417A97
S31500007960012902D1BDE8104008E710BD7C48407AE5
S31500007970704780B5032801DB012002BD78494872B3
S31500007980897A884218BFFFF7D1FF002002BD2DE992
S315000079907C4FDFF85C67D6E9088903EA010B02EA47
S315000079A0000A29EA010528EA000445EA0B0544EA2B
S315000079B00A044D4508BF44450DD0CDE900230246D3
S315000079C0B06A0B4606F0D0FF18B140F2A16100F094
S315000079D004F8C6E90845BDE8738F7848FCF746BD4C
S315000079E0B4DB002010DF0020DFF80417087B002836
S315000079F000D1704710B5087D0022002318B1DFF8CA
S31500007A00642903230AE0C87C00B140225448017867
S31500007A10807881421CBF4CF648542243DFF8440963
S31500007A200321BDE81040B2E74A23030038B50446F7
S31500007A30DFF84059287B2C7578B1FFF7D5FF002C6D
S31500007A40A86A14BF00220822082107F0D3F820B143
S31500007A5040F23F710FF6481002E031BD8C0703007B
S31500007A60BDE83440FCF702BDF8B504460FF6301504
S31500007A70022C03DB40F24B7100F06EF8DFF8F4687D
S31500007A80307B002864D1364FB87A012803D040F203
S31500007A90517100F061F8002107F1240006F0E5F9C4
S31500007AA0B06218B940F2547100F056F8B06A052178
S31500007AB006F0DDFD18B140F25C7100F04DF84FF0B4
S31500007AC0FF30DFF8B428D0230146FFF760FFB06A25
S31500007AD04FF0011106F064FC18B140F2767100F027
S31500007AE03BF8B06A09224FF0FF3107F083F818B16E
S31500007AF040F27C7100F030F8B06ADFF8801806F0CA
S31500007B00DCFF01203073DFF878080188FFF79EFA62
S31500007B10BDF80000C10548BF0020B07301F05CFD50
S31500007B20FFF784FF788BFFF77DFA07F0C1FA387903
S31500007B30FFF734FB18B14FF4F26100F00DF8FFF7D0
S31500007B4053FFB7F91800FFF736FCB87900F0EEF8E6
S31500007B502046FFF7EBFEF1BD2846FCF787BC000088
S31500007B60B4DB002080B5FFF759FA012106F00CFAC4
S31500007B7010F5007F02D16FF07F0002BD8005001670
S31500007B8002BD10B50446DFF86825107B50B1611EB2
S31500007B90906A8941C90F06F0CFFC18B140F2C7714F
S31500007BA0FFF71BFF2000DFF8C81718BF0120C871B8
S31500007BB010BDDFF8BC07C07970470000A083000045
S31500007BC038B5044600F014FE0546DFF8A407047233
S31500007BD0DFF81C25D07D38B9107B28B1611E906A6C
S31500007BE08941C90F07F0B8FA2846BDE8324000F0CF
S31500007BF005BEDFF87C07007A7047DFF8F434187B9F
S31500007C00002800D1704780B5986A0022DFF8741703
S31500007C1006F075FC10B140F2F37105E001BD0000FD
S31500007C2018DB002048E500200FF27470BDE8044020
S31500007C30FCF71CBC0146DFF83C27107B517400287A
S31500007C4000D1704780B5906A06F068FC10B140F22A
S31500007C50FE71E9E701BD0146DFF814078183DFF80D
S31500007C601437187B002800D1704780B5986A002227
S31500007C7006F036FC10B140F60F01D5E701BDDFF87E
S31500007C80F006808B7047DFF8E806C08B7047014628
S31500007C90DFF8DC06C183DFF8DC36187B002800D16C
S31500007CA0704780B5986A002206F00BFC10B140F6CA
S31500007CB02501B9E701BD10B500F02AF8DFF8B006D6
S31500007CC00179A06A012206F044F910B140F6470195
S31500007CD025E010BD80B5DFF89C16886A06F043F9EA
S31500007CE018B140F64C01FFF778FEBDE80140FFF7FA
S31500007CF02DBA10B500F00CF8DFF874060179A06A09
S31500007D00002206F026F910B140F6570107E010BD33
S31500007D10DFF86046A06A0122012106F0C3B80FF21F
S31500007D208060BDE81040FCF7A1BBD3E7DFF8C023B5
S31500007D3010B50446906A214607F01EFADFF83016A1
S31500007D408C7110BD7CB504467F280CD1DFF83856FF
S31500007D504FF6FF702988FFF777F9BDF800007E24FB
S31500007D60C10558BF044600F043FD0546DFF88063B1
S31500007D70F07D68B9204641B27E2903D1306B38B117
S31500007D8090F9040041B27E29BCBF40B2FFF728F942
S31500007D90707B00B10120DFF8F4150C54284600F082
S31500007DA02DFD73BDDFF84813487B00B10120DFF8D5
S31500007DB0DC2510567E2805D1086B08B97F20704750
S31500007DC090F904007047000000212320FFF7D8B87F
S31500007DD0DFF81C0390F9161003290AD100228275D8
S31500007DE04FF0FF31DFF888351962816B402006F0CD
S31500007DF03CBF70471FDF000038B50446DFF87455F6
S31500007E0000F06CFEE863FFF7FCF801462046FFF73A
S31500007E10B7F8062C02D006F0E3FD01E00020A874B6
S31500007E20BDE8314007F0CCB884DD0020B483000003
S31500007E3038B504464FF0FF30DFF834150862DFF836
S31500007E40B05200F04BFEE86395F91600012823DBDB
S31500007E50DFF83C15487808B1E86B286495F91600F8
S31500007E6002280CBF0121002100208D2CA87516BF09
S31500007E70872C26202720FFF783F8E87B28B1A86AFD
S31500007E8006F014F80120287431BD20460022002196
S31500007E90BDE8384006F0E9BE31BD0000A0DB002099
S31500007EA080B5FFF7AEF801460120FFF769F8DFF865
S31500007EB0C414C87C18B1BDE8014000F07CBA01BD0D
S31500007EC031DF00000C0002A854C001A82DE9F043E0
S31500007ED0874DA86A89B005AA032106F0EAFD0400C9
S31500007EE00FF2BC4903D14FF4396100F0C7F89DF891
S31500007EF01400DFF87C84BDF8167007281CBF98F8BC
S31500007F000500002818D1062F16DB07F108008B287C
S31500007F1012D200200090A86ADFF878643B46324609
S31500007F20214606F0D6FDB84203D040F6AA3100F04D
S31500007F30A5F83078010606D5FFF763F80146042058
S31500007F40FFF71EF897E0A86A6A46214606F0B9FDD3
S31500007F5018B14FF43C6100F091F8707800F007001A
S31500007F60022831D1FFF74DF801460920FFF708F83E
S31500007F7098F8074095F91600032822D19DF80D00C0
S31500007F80F8B10021A9754FF0FF30C8F82000B1788C
S31500007F9001F0300120290FDA062F0DD1747829203F
S31500007FA0240904F001042146FEF7EAFFA96B2246E4
S31500007FB08F2006F05AFE5EE0A96B0022402006F0F4
S31500007FC054FE002C57D105E09DF80D0010B100209D
S31500007FD0FFF7FEFE98F807007178A0B18A0612D561
S31500007FE098F8080078B1A86A07F0BFF820B1FFF743
S31500007FF008F80146062003E0FFF703F801460520CE
S31500008000FEF7BEFF0BE001F00701022905D0FEF7DF
S31500008010F8FF01460920FEF7B3FF0020A874A86AFE
S315000080200197694606F051FD3078401CB84203D0EE
S3150000803040F61B4100F022F898F80400F4190837BE
S31500008040207000F06DFE60709DF80E00FF21A0709C
S315000080509DF80F002171F9B2E0700098000C607174
S315000080600098000AA0710098E071AA7C304606F0DC
S315000080705BFF0020A87409B0BDE8F0834846FCF712
S31500008080F5B90FF22430FCF7F1B910B5DFF8E002CC
S31500008090046A002C15D400F013FD041B40F2E930ED
S315000080A0A4B284420DD3DFF8CC1291F9160003284E
S315000080B003D10020BDE810408AE68920BDE81040C3
S315000080C0B6E610BD10B558B906F08BFC00F090FB73
S315000080D0044600210020FEF753FFFFF7D6FF02E01B
S315000080E0BDE81040D1E72046BDE8104000F086BB51
S315000080F010DF00202DE9FE4F14466106834699469F
S3150000810048BF002002D4200602D50120FFF7C8FE92
S31500008110974D984EE0022AD50021B174287A30B3E3
S31500008120584607F022F810BB6946584606F02BFA67
S31500008130E8B99DF8080002280DD1BDF8000007F047
S315000081401FF8FF280DD094490A6832F8100010F481
S31500008150E66F06D10BE0032809D1684607F084F8DC
S3150000816028B1B06A06F00DFA08B90120B074E00330
S3150000817005D5FEF746FF01460320FEF701FF96F9F7
S3150000818016000FF21C28012806DB4FF0FF3A6002AA
S3150000819039D596F91610012979DB96F916000328C8
S315000081A075DAB06A06F13802002105F08EFF00F09C
S315000081B095FCF0637649487808B1F06B306496F91F
S315000081C01600012806D0022817D10321B175002117
S315000081D028205AE00020B075C5F820A000212B20E9
S315000081E0FEF7CEFEF07B28B1B06A05F05FFE0120F7
S315000081F030744CE00022B16B22E040F66C11404630
S31500008200FCF734F943E014F0044F1CD096F916003D
S3150000821002280CBF012700270020B075042006F0B5
S31500008220E1FBC5F820A0394600F09FF8F07B002856
S31500008230DAD1F07D002814BF8E208D200022002187
S3150000824006F013FD23E0E00148BF892002D4E000D8
S3150000825003D58820FFF7ECFD19E009F002010023A1
S31500008260994218BFFFF7B0FD09F0010100239942BA
S3150000827007D04A4801682420890B01F00101FEF766
S315000082807FFE600003D500212520FEF779FE20073A
S3150000829044BF5846FFF71AFEE00505D5FEF7B1FEC6
S315000082A001460420FEF76CFE14F40C4F05D0FEF7D1
S315000082B0A8FE01460220FEF763FE200244BF082006
S315000082C0FFF79AFD14F0085F1CBF0720FFF794FD27
S315000082D0200144BF0620FFF78FFDA00744BF584684
S315000082E0FFF776FD09F010010023994210D0002116
S315000082F00A20FEF745FE5846FFF76AFDD6E9080153
S31500008300002701F02003BB421CBF002007F037FA0C
S3150000831009F02001002399421CBF012007F02FFA23
S3150000832009F040010023994213D0584605F0B4FDE8
S3150000833078B1022802D0032802D005E0892000E0A7
S315000083408720FFF775FD04E040F6DD114046FCF797
S315000083508DF809F080010023994218BFFEF700F856
S31500008360BDE8F78F408D014000212620FEF708BEAC
S31500008370B4DB002010DF00200A00D0BF7F740000AD
S315000083804E23030064F90020502303004CDE002036
S31500008390A0DB002074F80020BCDA00200C0002A844
S315000083A07068792E630000006C69627261696C2ED8
S315000083B061000000000070474AB1000011F8013B5F
S315000083C0521E00F8013B1CBF11F8013BF8E770474D
S315000083D070B5134610440BE001F00F060909451E5F
S315000083E00A2E2846ACBF37243024A4192C705B1EF5
S315000083F0DCB2002CF0D1104470BDF0B5002341B1C1
S31500008400002806D52D2313700123B0F1004F18BFA5
S315000084104042002100248A4D002655F8247001E0D0
S31500008420C01B761CB842FBD2F7B20FB90F0004D0BE
S315000084303036D9B256545B1C0121641C092CEBDB87
S315000084403030D9B250545B1CD8B2F0BD2DE9F84F8C
S31500008450804696B014A8894615469B4604AF4FF051
S31500008460000A0024019020E0012405460DE034298D
S31500008470FAD15BF8046B04223846310CFFF7A8FFEB
S315000084800422B1B2FFF7A4FF074601998F420BD32E
S315000084909DF8000004A93F1AFAB24846C0470028D2
S315000084A053D1FFB2BA4404AF6D1C04A88DF8000086
S315000084B09DF800002978381A00290BD0252903D009
S315000084C014B907F8011BE0E7002C14BF00246D1C4B
S315000084D029780A0000F09E80B1F1250216D00B3AE9
S315000084E0092A40F28580283A7CD00A3A12D0521ED8
S315000084F042D0521E5ED0083A5CD0121F3FD0D21E28
S315000085003DD0921E56D0D21E6CD0BEE7252007F86D
S31500008510010BBAE704A8DBF80010DBF804208DF89D
S31500008520000038460BF1080B039102920027029ACD
S315000085309742A9D203990222C95DFFF749FF019923
S31500008540884206D300F074F800286DD1F6B2B24422
S3150000855004A80299491E8F423CBF202200F8012B35
S315000085600199884206D300F063F800285CD1F6B280
S31500008570B24404A87F1CDAE75BF8040BC7E707469A
S315000085805BF8046BFAB204A94846C04700284BD1F1
S31500008590FFB2BA4404AF0022314600E0521CD6B204
S315000085A0885D0028FAD1D2B24846C04700283BD1A0
S315000085B0B2446AE76C290AD16A785BF8040B752A1B
S315000085C00EBF00210121642A07D16D1C05E0752923
S315000085D05BF8040B0CBF002101213A46FFF70DFFA3
S315000085E0074452E75BF8041B02223846C9B249E742
S315000085F068780124782818BF5828F2D16D1C002409
S31500008600681E32297FF433AF5BF8040B042281B273
S31500008610384637E70546EAB204A94846C04718B9BE
S31500008620AA445FFA8AF000E0002017B0BDE8F08F98
S315000086309DF8002004A9861AF2B248464047000079
S315000086404000030072B61EF0080F08D01EF0040F9B
S315000086500BD0DFF848E0AEE8FF1F11480AE0DFF86C
S315000086603CE0AEE8FF1F0F4804E0DFF830E0AEE87C
S31500008670FF1F0D486946EFF309828EE8070086461C
S315000086800A480B4C854501D3A54501D384F30888D8
S31500008690FBF702FF84F30888FCF7FCF904000020CE
S315000086A0FDFFFFFFF1FFFFFFF9FFFFFF40CE0020B8
S315000086B060D700203B483C49086070473B4801684A
S315000086C001F00701012907D007D3032901D004D2FD
S315000086D023E037490868704727E0FEE780B5FFF7D3
S315000086E0EDFF32490968C1F30131491CB0FBF1F0D5
S315000086F03049086002BD304870472D480068704711
S315000087002B4908602948026802F00702032A08BFBD
S31500008710FFF7E4BF7047000000BF284800687047B5
S31500008720002070470000000000BF2548704725491B
S315000087300A680020120C12F01F020CD0062A1BD069
S31500008740072A1BD0082A1BD00A2A1BD00B2A1BD0AB
S315000087500C2A1BD07047096811F0407106D0B1F1A0
S31500008760807F05D0B1F1007F04D07047164870476E
S31500008770164870471648704716487047164870479F
S31500008780164870471648704716487047164870478F
S315000087904FF4004070474FF47A70704713480068F2
S315000087A0704700000042000008ED00E070800040C5
S315000087B040DB00204CDB002000B4C40448DB002072
S315000087C0002D31010840014A00093D0080841E0049
S315000087D040420F00405DC6000024F400C0EA2101BB
S315000087E080BA8C010048E801005A620244DB00208E
S315000087F0EFF31180302181F31188704780F31188DF
S315000088007047FEE7002A14BF00F5805000F50050BF
S31500008810012202FA01F10160704700F50053196068
S3150000882000F58050026070473022504310B5012396
S31500008830384C04E03022504310B50123364C03FA7D
S3150000884001F12044016110BD70472DE9F041164643
S315000088500C469846082E10D2B5000327AF4000FA02
S3150000886005F239462D48FFF7D8FF04F0030404FA51
S3150000887005F239462A48FFF7D0FF079C069D424677
S3150000888031462848FFF7BEFF2A4631462648FFF7FD
S31500008890B9FF0120B04025490860224631462448E8
S315000088A0BDE8F041AEE7F8B5054617460E461C464C
S315000088B0380007D0002C284602D0FFF7BBFF01E0A6
S315000088C0FFF7B2FF2A46302042431A4988180F2282
S315000088D0082E05D24168B30000F015F8416006E0A5
S315000088E0A6F10803C1689B0000F00DF8C1604FB9FE
S315000088F0002C3146284602D0BDE8F4409AE7BDE890
S31500008900F44091E7F1BD9A4021EA020207FA03F129
S315000089101143704700E0034000D0034000C4034009
S3150000892008C4034010C4034014C4034020E40340B9
S3150000893024C4034000C0034010B5DFF828410320DB
S31500008940DFF8241120616061E161DFF820014FF456
S315000089508061A06121620022A2622066DFF8100118
S315000089606262E2626066A1662267E266626724A0CE
S315000089700168E31D07221960DFF8F8102046FFF7AB
S315000089801BFD2023A37110BD2DE9F8430446DFF833
S31500008990D45028788846914608B9FFF7CDFF1820AD
S315000089A04443281900F160063769F5680024BD4282
S315000089B012D2B4687068E41B4C4588BF4C46C11996
S315000089C022464046FFF7F8FCB168E719A0448F42FB
S315000089D0A9EB040908BF0027ED1B4D4588BF4D468E
S315000089E03DB170682A462C19C1194046FFF7E4FCD0
S315000089F0EF1904B137612046BDE8F283C4E70000F1
S31500008A00525454002DE9F04100F023F808B9FFF75D
S31500008A1093FF00217A69182307F1640C03FB01FE1A
S31500008A205CF80E0010B1491C9142F7DB91420ADA5C
S31500008A304B430022F8180466456686660267C266DE
S31500008A40C0F8748001E04FF0FF31FFE70846BDE84B
S31500008A50F0810446034F38780D461646984670470F
S31500008A606AE7000040EC0020E8EC00207C010300EF
S31500008A70E8F00020880103007FB500F011F818B96E
S31500008A8000F015F806F0A7FE04B070BD7FB500F043
S31500008A9007F818B900F00BF806F0B6FE04B070BD82
S31500008AA00446084615461E4602A906F06EBF0899FA
S31500008AB0099833460091029901902A46204670474C
S31500008AC080B500F00DF880B202BD80B500F008F860
S31500008AD0FA21B0FBF1F080B202BD000000BF000039
S31500008AE0E0B506F03BFF6A4606F081FF18B1472164
S31500008AF028A0FBF7BBFCDDE9000103B000BD0000C8
S31500008B0080B507F0BBF806F03BFE20B15FF05201DE
S31500008B1020A0FBF7ABFC002002BD01201049087025
S31500008B207047FEB504462168002501B91CE000F037
S31500008B300CF808B100F002F8012019E00195009543
S31500008B40216800233A46301D96E7054E3570054FDD
S31500008B500023019500933A46301D97E70000000078
S31500008B60A4F500201B8B000007F040F90020FEBD95
S31500008B7000F006FD307840B92146301D06F0B7FEFC
S31500008B802068852506F016FF01E000203070206081
S31500008B902846FEBD73797374656D2D74696D6572B3
S31500008BA02E6300000A0A42EA01225040C0F3031174
S31500008BB0484080EA00304101C9B20206D20E41EABD
S31500008BC00221484080B2704738B580480068804C22
S31500008BD0482220606060002100F0D7F97D4A1078B5
S31500008BE021680022087020684FF6FF7141800273E9
S31500008BF023685A7320680B22142382732268D37366
S31500008C0020684FF6FE730382418207F009F9216856
S31500008C10087607F005F92168487607F001F921681A
S31500008C206D4B88766D4802782168CA766C49206853
S31500008C300A6840F8282F1D7805716A48016822687D
S31500008C40116331BD10B5FEF79FFB614C6168897BEE
S31500008C50884203D00846FEF7A1FA50B9FEF798FB02
S31500008C60616891F90F10884205D00846FEF79FFB10
S31500008C7008B1012010BD6068008AFEF7ECFF60684D
S31500008C80408AFFF704F86068017B01290CBF0120C8
S31500008C900020FEF7CFFF002010BD10B5524C00207B
S31500008CA0207007F088FD20B92046BDE8104002F08C
S31500008CB033B872E080B5002000F015F828B1002026
S31500008CC000F005F808B1002002BDFF2002BD4048B3
S31500008CD00168487B02281CBF1128432801D10120C6
S31500008CE07047002070473A480168087B01281CBF7E
S31500008CF00228032801D10120704700207047002078
S31500008D0070477020704700207047384908707047D8
S31500008D107047002070470120704770470020704759
S31500008D2000207047704770470020704780B50020CC
S31500008D30FFF7CDFF20B10020FFF7D5FF00B10120DE
S31500008D4002BD80B50020FFF7C2FF08B1002002BDBA
S31500008D50FF2002BD80B50020FFF7B9FF30B11C48E7
S31500008D6001680A7B032A01DA002002BDFF2002BD4A
S31500008D7010B5040000F0058040F27D1158A0FBF705
S31500008D8075FB1A49087808B9702010BD0F494820AC
S31500008D900A6844430E4B10195860BDE8104051E76D
S31500008DA00B484168088A704709484168488A7047F5
S31500008DB0074909684A690260C97E0171704704491A
S31500008DC0096802684A610079C8767047E0DA0020CF
S31500008DD05CF90020C1FF002065DE002073DE002064
S31500008DE0E4DA0020E8DA00204CF90020A1DE0020B9
S31500008DF07047002070470020704707F096BA70470A
S31500008E00002818BF07F016BD704707F0C0BF08F06E
S31500008E10E8B882B08DF80010DDE9002302B01146F3
S31500008E201A4608F049B933B585B005468DF80420D1
S31500008E30FDF7A0FF04462846FDF7ACFF7CB10028ED
S31500008E40BDF818000FD1FEF784F8FF288DF8000052
S31500008E5004BF00218DF80010CDF808D016E0A8B1A7
S31500008E6006A8029012E0FEF774F8FF288DF80000BD
S31500008E7003AA04BF00218DF800109DF80000BDF87C
S31500008E80181002928DF80C00ADF80E10DDE9010104
S31500008E900A460146284608F00FF907B030BD000023
S31500008EA073B582B004461546FDF764FF06462046B4
S31500008EB0FDF770FF2EB120B903A98DF8005001917E
S31500008EC005E04FF4057100BF05A0FBF7CFFADDE919
S31500008ED000010A460146204608F0EEF87FBD000074
S31500008EE0656D6265722D6D756C74692D6E6574772E
S31500008EF06F726B2D737475622E63000070B58142BC
S31500008F0024D210441144401E491E10E011F80139C4
S31500008F10121F00F8013911F8014900F8014911F84A
S31500008F20015900F8015911F8016900F8016993B275
S31500008F30042BEBDA93B2002B1EBF11F8013900F8AF
S31500008F400139521EF6D170BD00F00DF893B2042B14
S31500008F50FADA93B2002B1EBF11F8013B00F8013B71
S31500008F60521EF6D170BD11F8013B121F00F8013BED
S31500008F7011F8014B00F8014B11F8015B00F8015B99
S31500008F8011F8016B00F8016B7047130003D00A4615
S31500008F90194608F05BB9704710B5034600E0521E4B
S31500008FA090B218B100F003F8F9D0001B10BD13F809
S31500008FB0010B11F8014BA0427047FEE7BFF34F8F3C
S31500008FC0BFF36F8F314940F001000867086840F42D
S31500008FD0803008607047BFF34F8FBFF36F8F2B4809
S31500008FE0016821F480310160026F52085200026765
S31500008FF070478208C00000F01800FF238340022A51
S3150000900000D3704730B5224C04EB8202156B01FA8F
S3150000901000F018409D432843106330BD1D4B186077
S3150000902059609A60704770B5FFF7D5FF1A4C24B1A6
S315000090301A4D6D096D01203D00E0194DA02100205B
S31500009040FFF7D7FF174EB5F1005F08D3306845F03C
S3150000905001021549FFF7E2FF3068401C30605CB141
S315000090601249490930684901114A41F00301FFF7E5
S31500009070D5FF3068401C3060FFE70420FFF79EFFF5
S31500009080BFF34F8FBFF36F8F70BD000024ED00E07C
S3150000909090ED00E098ED00E04001000060D7002070
S315000090A000000120ECF4002003000020BFD80020BF
S315000090B0E1FF002008F0D4B898B508F0D8F80446C7
S315000090C008F0D0F80020002124FA01F2D20710D4CB
S315000090D0491C8BB2102BF7D340F20172904205D196
S315000090E01949D1E90023194CC4E90023184908801D
S315000090F091BD184889B230F811004CF23C314FF25C
S315000091000F02154B06280CD15888904205D11888B5
S31500009110020A0C2AB8BF5980DEDB4FF4C0605980C2
S31500009120E4E740F20724A04201BF5F8897421A880D
S31500009130A242D1D159802046D8E705480088000AC6
S3150000914070470348008870479400002010E3002011
S31500009150E2F50020C0FF0200000000200549096872
S315000091608A0902F03F0201F03F0382704370090B47
S315000091700170704714C0074080B586B006F036FE11
S3150000918001A825491422FFF717F969460DF10100D8
S3150000919005F005FD30B19DF801008DF80E009DF833
S315000091A000000AE00DF102010DF1020005F005FDD7
S315000091B028B1BDF802008DF80E008DF80D0001A84B
S315000091C0FBF7BFFE1548FFF79BFA03210020FBF7CC
S315000091D0C9FD04210620FBF7C5FD08210720FBF782
S315000091E0C1FD08210820FBF7BDFD08210D20FBF776
S315000091F0B9FD05F004FCFBF735FA002007B000BD09
S3150000920010B505F017F9040004D040F21D210448FA
S31500009210FBF72CF9204610BDB400030000F049020C
S31500009220C8000300002070475C49086070475C492D
S31500009230086070475B4908607047000000BF38B59A
S31500009240594841680068554D084041000AD55748BD
S31500009250006804681CB100F015F80021A0474FF023
S3150000926080400BE000280AD55148006804681CB10C
S3150000927000F008F80121A0474FF000402860BDE843
S3150000928031400DE00021C0E9001179E080B54FF0D2
S315000092904040FFF7C9FF4FF04040BDE80240C6E737
S315000092A0F8B5434900220B68424C54F8320040B1ED
S315000092B0186804EBC20518B118792E79B04200D2AD
S315000092C02B46521C042AF0DD0B60384C0022236822
S315000092D0394D55F8320040B1186805EBC20618B191
S315000092E030791F79B84200D23346521C042AF0DD89
S315000092F023600968314D086858B12A6809794FF02A
S3150000930000406FF3184242EA01422A60FFF792FFDB
S3150000931003E04FF00040FFF78AFF2168086850B16C
S315000093202A680879520A40EA42224FF080402A60B1
S31500009330BDE8F2407EE74FF08040BDE8F24076E7B8
S3150000934080B501201E49087000F016F800F010F8EC
S315000093501C4817490860154A1060FFF797FF202040
S3150000936019490860194B1860FFF79AFF002002BDE3
S315000093702821114800F02EB828210E4800F02AB8FE
S31500009380134801680268C1F38801C2F3880291425A
S31500009390F7D1A1F1110040B27047000064600040AF
S315000093A068600040685000406440004064F500205A
S315000093B060F5002008F5002030F5002078400040D8
S315000093C0C7FF002058F5002080E200E000E100E041
S315000093D088400040002207F053BFFEE710B500F0BA
S315000093E00FF830BF07F065FF04B911E010BD10B5E6
S315000093F000F006F830BF07F05CFF04B908E010BDC6
S3150000940004461348016841F00401016007F052BFA9
S31500009410BDE81040FFF762B90E49CA68CB684AF644
S31500009420E85092089200086042F0020243F00303FB
S315000094300420CA60CB60401EFBD1CA607047064953
S315000094400A68007922F0300202430A607047000081
S3150000945010ED00E0604000406C4000404B48006862
S315000094604B49494A000C000408601060704701002F
S315000094700FD44009474A52F8202001F01F01CA4084
S31500009480D20706D5444B53F82000C84000F001002F
S3150000949070470020704700002DE9F84F0546072861
S315000094A0884608BF032502D0082808BF022529469A
S315000094B00120FCF742FFA520FBF7FBF8EFF3108A2B
S315000094C0012080F31088EFF3118B002484F31188B8
S315000094D0012D2C4E0CBF8146A1464846FDF780F96A
S315000094E0681E3460042816D8DFE800F0030A0A0E66
S315000094F012002A48016821F00401016030BF0EE025
S315000095000120FFF76BFF0AE00120FFF770FF06E07E
S31500009510FFF782FF03E08B212148FAF7A7FF1B48DC
S31500009520416807681A200F40BFB23760FFF79FFFF8
S3150000953018B91920FFF79BFF10B147F48037376041
S315000095400A20FFF794FF18B1306840F4003030600D
S3150000955001211448FBF794FE4846FDF774F9B8F16B
S31500009560000F29461ABF8BF311888AF3108884F3FB
S3150000957010880020BDE8F44FFCF7DFBE00218BE722
S31500009580FCE7000000F5002004F5002020C403409D
S3150000959020E4034000E200E000E100E010ED00E01E
S315000095A0280203000080014A10B5044604F083FD3A
S315000095B0034821462022FEF7FFFE002010BD00BF13
S315000095C0E4F7002000207047012070470120704713
S315000095D00020704701207047002070470020704728
S315000095E00120704700207047012070477047704780
S315000095F000B10220704700207047FEE72DE9F84FC2
S3150000960088B007F058FE08B1C620D7E0DFF8285327
S31500009610DFF828633168286809F04CF904002CD07B
S315000096203268516800241068926913689847316857
S3150000963002A88A6991688847326802209169CA68D7
S31500009640904706E00968126900FB0410641CE4B246
