S01A00004E43505F5553575F4D473150313332463235362E733337AE
S31500004000E85F00203DEF0200ED7E0000C1ED0200FA
S31500004010A70A0A010041000004180FAC60674701B7
S31500004020000000000000000000000000000000008A
S315000040300000000000F00200000000000000000088
S315000040400000000000000000FFFFFFFFFFFFFFFF72
S31500004050FFFFFFFF007003000000000000000000EB
S31500004060FFFFFFFFFFFFFFFF100000000000000042
S31500004070000000000000000000000000000000003A
S315000040800000000000000000F07F0020F07F00200C
S31500004090E85F0020C80C0300CEEF0200885600201F
S311000040A0CC13002000000400000000000B
S31500004100E85F00203DEF0200ED7E0000C1ED0200F9
S31500004110F9DE0000C5ED0200C9ED02000000000056
S31500004120000000000000000000000000F35F000037
S31500004130CDED0200035F00002B6300005B770000FB
S31500004140E5E0000099750100C95A00002D700100D4
S31500004150D57501009F750100A17501009B750100D1
S31500004160D34902002D4C0200DDBB0000E79600009B
S31500004170D5ED0200D5ED020063420000D5ED020048
S31500004180D5ED02003B4C0200D5ED0200D5ED020054
S31500004190D5ED0200D5ED0200D5ED0200D5ED020009
S315000041A0D5ED0200D5ED0200D5ED0200D775010070
S315000041B09D7501006593010007760100D5ED0200AB
S315000041C0A1EE0200D5ED020000420F48816B89B2D4
S315000041D001B1012141F67132826346F21A32036857
S315000041E043F001030360C2644FF480734360426985
S315000041F0D307FCD40022C264C9B203685B085B0023
S31500004200036001B182630020704708000E40000081
S3150000421038B5374A374C02EB8101FF238A781209F9
S31500004220072A3ABF304DAA5CFF2202718A7802F053
S315000042300F02072A3CBF2D4B9B5C43714279FF2A34
S3150000424014BF01220022CA70CA7882710B784370AB
S315000042504A7882700146204600F0B2F80122A26038
S3150000426031BD7FB5244991E81C00684680E81C00F2
S31500004270224A23481178C36804682340DB0731D5F6
S3150000428003292FD21A4D03691E4C05EB8106F078DF
S3150000429030B118B2002803D5002024F8110001E03F
S315000042A024F8113018480478012303FA01F1214358
S315000042B0164C0170207898B100212078C840C507B7
S315000042C004D4491CC8B20328F7D37FBD11708B40B4
S315000042D0227853402370C9B26846FFF799FF7FBD25
S315000042E0032111707FBD0000DCEF0200E4EF020045
S315000042F03C65002000200040D0EF0200AF7E002089
S3150000430038200040D4650020B07F00200B7D0020BF
S31500004310890001EB401101F184410A60704730B514
S31500004320002A446BDFF854511ABF1022DFF85031CF
S31500004330DFF850312340A84210D1DFF84C4171B16B
S31500004340012912D0022922D0032914D0062919D016
S3150000435081291CD01A46DFF83401026030BD21687D
S31500004360206800F020F8206816E02168206800F038
S3150000437020F8206804E06168606800F01AF8606858
S31500004380000C09E0A168A06801F00F0104E0616873
S31500004390606800F008F8606800F0F000014301FA78
S315000043A002F21A43D7E701F4FE4100F00F00014381
S315000043B07047090C01F4FE41C0F303400143704706
S315000043C070B504460D460220A0600022A97820465A
S315000043D0FFF7A5FF2A796B786879EE78110241EA32
S315000043E0036141EA0041E87941EAC60108B141F0BA
S315000043F00051287A08B141F00401A87908B141F0CA
S315000044000201687A08B141F00101A878F32A08BFD1
S31500004410002804D1042BBCBF042262F31B610306EF
S315000044204CBF41F0E00141EA401121611848616941
S315000044300140A87802062A7844BF20F08000014394
S31500004440E87A00F015F861610221AA7A2046FFF7A2
S315000044505FFF2879F3280CBF01220022102104F106
S315000044603000FFF755FFE06FD4F88010E06870BDAC
S3150000447041EA424108B141F48041704700200040C2
S31500004480FFFF00800080FFFF1082E00F3420004015
S31500004490F8BFE1FF42DE704738B504460D4600F02E
S315000044A0F3FC01F043FB01F055FB2946204601F0E1
S315000044B07AFB2B4622466C49012001F010FD294665
S315000044C02046BDE83440E5E768482DE9F843684EE4
S315000044D00168B1654FF42068026A6649F2650B68A7
S315000044E0336649687166426AB266816AF166C26A73
S315000044F03267016B7167806B96F83810B0674807B2
S315000045004CBF346CF46B01F03FFD002232658442EF
S31500004510594B014624BFA3F12007A742A146716566
S3150000452006F19002DFF854C1DFF854E118D3A06910
S315000045307064E469B464B56DC5F30805062D13D13E
S31500004540704511D360450FD200884DF64264A042F3
S315000045500AD17068B4685060946040F2017803E054
S3150000456000247464B46481464648814202D20146FE
S3150000457000E0091D0846984203D20C68B4F1CD3F0D
S31500004580F7D04149081AF0640021002006F17C04A6
S31500004590C5B2401CC7B244F82510062FF8D3002038
S315000045A099452CD253F8041D7145F9D36145F7D2CC
S315000045B0CC07F5D5002406F17C0555F824708F420A
S315000045C002D0641C062CF8D3062CE9D1C4B2002C08
S315000045D00CBF0520401E06F17C04C5B244F8251028
S315000045E0DEE7F16F002306F17C0506EB8304D4F8C1
S315000045F0804045F823405B1C042BF6D91160014628
S31500004600481EC9B20029ECD1B06DC0F308000328DA
S3150000461010D0042811D0052812D0062813D00C2853
S3150000462017D0122818D119480268910719D540F2F7
S31500004630025816E040F6012813E040F6022810E082
S3150000464040F603280DE0B8F5206F0AD140F604289D
S3150000465007E040F6052804E018B1322838BF40F6D6
S3150000466007284046BDE8F283ECEF020004ED00E0C7
S315000046700000002000E300E0E85F0020CEEF02002B
S31500004680104200009C000020E85F00201C2005402E
S3150000469038B5044601F09EFC0546DFF8540A8378D7
S315000046A00178994211D000F043F8641E07D0641EC9
S315000046B008D0A41E06D0A41E032C03D905E00022B0
S315000046C0194600E0002201F0B1FC284632BD01F097
S315000046D041BD10B5DFF85C3A4C000146986A2246A7
S315000046E001F0ADFCA04201D0002010BD012010BD9C
S315000046F0DFF8402A0146107B002800D1704780B5BC
S31500004700906A01F02CFD28B1BDE8044040F29B11EF
S3150000471000F0B1BB01BD80B500F00AF801F088FCDD
S3150000472000F00300032801D1012002BD002002BDD4
S31500004730DFF8000A806A704780B5B0F5004F08D1EF
S315000047404FF6FF70DFF8241A098800F0B3FEBDF8B3
S315000047500000DFF89C194883002002BD2DE9F04FC8
S315000047604FEA501C0C4600F01F000026DFF8008AB6
S315000047702FE00EF1010EEF7E5FFA8EF0B84226D2E0
S31500004780E8695FFA8EF9142717FB09F94844077A96
S3150000479007F007076745ECD1477AB942E9DB90F89D
S315000047A001B090F8009007EB0B0AAAEB090A8A45BC
S315000047B0DFDB14B1C91B494421700AB1017A1170BB
S315000047C003B11860284600E00020BDE8F08F0846D7
S315000047D0761C98F80650F1B2A942F5D2D8F808101E
S315000047E05FFA86FE51F82E504FF0000E0146C2E7E2
S315000047F0400918BF40F01800704738B5DFF8344953
S31500004800A06A01F067FD0546E80744BFA06A01F00B
S3150000481066FDE8031ED5E16ADFF8B05A086A18B9E2
S3150000482040F2662100F021FDE06A016A486818B985
S315000048304FF41A7100F019FDE26A136AA06A5A6809
S315000048400021904730B12846BDE8344040F2692146
S31500004850FFF722BE31BD3EB5684600210022002387
S3150000486080E80E00DFF88848A07A25788DF8005099
S31500004870002818BF022810D1DFF8B85800F00EF84B
S3150000488058B1A86A0122002101F0D4FB00F006F815
S3150000489018B140F29E2100F027FC37BD2179A86AA5
S315000048A06A4601F02DBC00002DE9F043FF2889B0CF
S315000048B006460AD1DFF8B80881680A68D069467AE0
S315000048C0017A06F01F0646EA4116F5B205F01F000A
S315000048D01B2847D20021019101AB6A46F0B2FFF7CF
S315000048E03DFF5FEA00081CBF019800283AD0DFF8B8
S315000048F00048DFF840782179F0B2884231D00B3D8C
S31500004900102D39BFDFF82C0A0568DFF82C1A0D6860
S31500004910002D1CBF2878032824D0786C854214D03B
S3150000492002A82946062201F001FDB86A7D6402A9A3
S3150000493001F077FCB0B9B86A04A901F086FCB4F9B5
S315000049401810B86A01F032FC60B9386B0199C7F8E3
S315000049502C80884208D19DF8000078732671FFF7F5
S315000049607AFF80E08A2086E0A57ADFF8609900F079
S315000049708BFA386B38B1B86A01F01BFD18B140F2FA
S31500004980D32100F001FF019801993863C868786364
S3150000499018B94FF4367100F0F7FED8F82000B96C5C
S315000049A0814219D018B940F2DF2100F0EDFED8F8A7
S315000049B02010086818B940F2E12100F0E5FED8F8A9
S315000049C02010B86A0A68904718B140F2E22100F058
S315000049D0DBFED8F82000B8645FF01C029DF80000EA
S315000049E026A17873267102A801F0A0FC786B418A93
S315000049F00901C039ADF80E10417C09011439ADF832
S31500004A00161002A9407C0001ADF81A00E079401E9C
S31500004A108041C00F8DF82100787C8DF82200B86A9D
S31500004A2001F094FC18B140F20D3100F0ADFEB86A09
S31500004A300122012101F048FD18B140F2323100F0A7
S31500004A40A3FE00F062FCA08B00F08BFCE08B00F074
S31500004A50A6FC207A00F03CFC00F033FD00F0FAFCE6
S31500004A60284600F07BFA97F90E10B86AC9050914B2
S31500004A7001F048FF002000F084BE000000000000A6
S31500004A800100000001010101640000006400000053
S31500004A90000000000B000000DFF8D4070079704723
S31500004AA0DFF8CC07B0F91800002854BF05216FF0D5
S31500004AB0040108180A2190FBF1F040B270470A2160
S31500004AC010FB01F0FFE7F8B500F5D77140F2772249
S31500004AD0914201D38B20F2BDDFF85856DFF890479C
S31500004AE02A6B0A26002A1EBFA17E01F0C00180297A
S31500004AF011D0E97B79B992F902100F4617FB06F738
S31500004B00B842A1BF92F903100A4612FB06F282428E
S31500004B10B8BF11FB06F0297B61B10146A86A01F016
S31500004B2045FB18B140F2853100F0DEFAA86A01F0C3
S31500004B3061FB01E010FB06F020830020F2BD38B5D2
S31500004B4004460B38102839BFDFF8E8070068DFF89D
S31500004B50E817086888B10023002200212046FFF7E5
S31500004B60FDFD50B104F01F051B2D06D22046FFF7B0
S31500004B703FFE10B928460B2800DAFF2032BDDFF8C9
S31500004B80C4194008085C70477047C0B2704711F1FD
S31500004B90630F01DA0020704711F1240F01DBFF20BB
S31500004BA0704764310902481101EB90618904080ECF
S31500004BB0704770B5DFF87C45DFF8FC590020E064EB
S31500004BC0687830B101F0A6FE0246012A18BF032A12
S31500004BD001D1002070BD606BDFF83439DFF8106555
S31500004BE000281FBF216B09690029022A17D1E36437
S31500004BF0706900F5FA707061607D18B100200021BF
S31500004C00642203E0E87829794FF4A0722070A2802C
S31500004C1061708021A878A070E180002031E0DFF883
S31500004C2028597269A94214D1DFF8B019E16402F576
S31500004C307A727261617D91B901792170012582785C
S31500004C40037990F903109540EB18CB185B1E63703F
S31500004C500DE0E36402F5FA727261617D19B100221A
S31500004C602280642105E041782170827862700178A3
S31500004C700901A1804179A17002891201E280C088F0
S31500004C800001A06000F01DFCE070A07841B2002990
S31500004C9048BF4042C0B270BD70B50446DFF89464A8
S31500004CA0257896F9160008B18C2070BD3065FFF79F
S31500004CB080FF30766901DFF83824DFF8FC38507859
S31500004CC0107301F580715161987910B1AD1EEDB286
S31500004CD003E0306D40F002003065F17B81B9187851
S31500004CE070B1607881060BD5306D40F001003065FB
S31500004CF06FF00101B175506900F50870506102E06E
S31500004D004FF0FF30B07501F03BFE40B101F036FECA
S31500004D100128316D0CBF08201020084330650320A0
S31500004D2000F01CF96A1CB06A4FF4807392B22146F7
S31500004D3001F033FE6D1CA84203DA40F2055100F083
S31500004D40D3F9002070BD00002DE9FC41DFF8E463D3
S31500004D5096F916100025091D04296FF0030418D8CA
S31500004D60DFE801F00A0A1B1B0300FFF795FF0500A9
S31500004D7013D000F080FE7BE096F91600A0420CBF2F
S31500004D800121002100F078FEB57500F071FE8E203D
S31500004D906FE000F070FE8C206BE001F019F9E0B1D5
S31500004DA0F06CDFF86C17884217D1307EA8B1DFF8B7
S31500004DB030180868002810D5DFF82808C168C160D7
S31500004DC00122006800F00F008240521E114204D1F9
S31500004DD000F088FB642001F02EFE01F07FFE804685
S31500004DE096F9160010F1010F1CBF96F9160010F186
S31500004DF0020F2DD196F91600DFF8F4724042B07515
S31500004E0001F096FE38620022B06A802101F008FFA8
S31500004E10F46CB06A3979326D002C07F10C0306D1B7
S31500004E2001F03CF9010005D1002125200DE0009399
S31500004E303346A047C8B10020B0754FF0FF31396244
S31500004E408C2500F015FE00212620FFF721FC0CE042
S31500004E5096F91600A0420CBF0121002100F00CFEBD
S31500004E600020B0758E2500F003FE404601F0EBFEF3
S31500004E702846BDE8F681DFF85404FFF70DBBDFF8DE
S31500004E80F003408B70470000F8B501F027FE984DFF
S31500004E900446A87A012803D1204601F0D4FEF1BDCC
S31500004EA0A44EDFF82874B06A0122012101F0C2F88D
S31500004EB0B06A8022802101F0B3FE00BF26A00188DF
S31500004EC0B06AADF80010694601F007FD20B140F266
S31500004ED0EB513846FFF7E0FA02208DF800006946EC
S31500004EE0B06A01F0D9FC20B140F2ED513846FFF727
S31500004EF0D3FAB06A01F0C8F800212C20FFF7C8FBEE
S31500004F0000210A20FFF7C4FB0120A87296F91610AB
S31500004F10091D072914D8DFE801F01818070B040F3C
S31500004F200F0F02F064F810E06FF00300B0750CE0AC
S31500004F306FF00201B17508E0892000F007FB04E07C
S31500004F4040F214613846FFF7A7FA204601F07BFECF
S31500004F5002F0D5FAF1BD000004010000F8B5644D79
S31500004F60A97A0446A1425CD02EA3724F1E88ADF8E2
S31500004F7000600329DFF854634FD8DFE801F04702E9
S31500004F803B2B02F0BEFAB86A694601F0A6FC18B1DE
S31500004F9040F2316100F04CF802208DF800006946BD
S31500004FA0B86A01F079FC18B140F2336100F040F8BC
S31500004FB06879002814BF00220222B86A022101F093
S31500004FC02FFE18B14FF4C76100F032F80320032C0E
S31500004FD0A87226D000F027F80220A87200222979AC
S31500004FE0B86A01F08DF818B140F2456100F020F87A
S31500004FF0022C16D0200018BF032C12D10020A87254
S315000050000022B86A802101F00BFEF1BD022C08D106
S3150000501000F009F80220A872F1BD40F25B6100F0D1
S3150000502007F8F1BD0402B86A8022802101F0F8BDBC
S315000050303046FFF731BA002090E78D48807A7047F6
S31500005040032805D8DFE800F0030203031CE785E721
S3150000505040F279610FE710B5364CA06A00F0EEFF1A
S3150000506094F916000028824844BF0021A175417AB0
S31500005070012902D1BDE8104006E710BD7C48407A00
S31500005080704780B5032801DB012002BD78494872CC
S31500005090897A884218BFFFF7D3FF002002BD2DE9A9
S315000050A07C4F244E03EA010BD6E9088929EA01055B
S315000050B028EA000402EA000A45EA0B0544EA0A0463
S315000050C04D4508BF44450DD0CDE900230246B06AE0
S315000050D00B4601F009FC18B140F2A16100F004F89A
S315000050E0C6E90845BDE8738F7848FFF7D5B90000D3
S315000050F0C06100200F49087B002800D1704710B519
S31500005100087D0022002318B1DFF8602903230AE096
S31500005110C87C00B1402256480178807881421CBF85
S315000051204CF648542243BDE81040DFF840090321FD
S31500005130B5E70000E864002038B5DFF848590446B2
S31500005140287B2C7578B1FFF7D5FF002C14BF002201
S315000051500822A86A082101F063FD20B1BDE83440A9
S3150000516040F23F7187E631BD00000000EC0A030003
S31500005170D0F70200F8B50446022C0FF6341503DB0F
S3150000518040F24B7100F071F8DFF8F868307B0028C8
S3150000519067D1374FB87A012803D040F2517100F039
S315000051A064F8002107F1240000F027FFB06218B967
S315000051B040F2547100F059F8B06A052101F00FFA77
S315000051C018B140F25C7100F050F84FF0FF30DFF894
S315000051D0B828D0230146FFF762FFB06A4FF00111ED
S315000051E001F089F818B140F2767100F03EF8B06A25
S315000051F009224FF0FF3101F013FD18B140F27C7126
S3150000520000F033F8B06ADFF8841801F0E4FB0120FF
S3150000521030730223DFF8780801887F22684602F09F
S315000052201FFABDF80000C10548BF0020B07300F0AA
S31500005230CFFEFFF781FF788BFFF77EFA02F08EFA3A
S315000052403879FFF731FB18B14FF4F26100F00DF831
S31500005250FFF750FFB7F91800FFF735FCB87900F0F3
S31500005260EDF82046FFF7ECFEF1BD2846FFF714B92E
S31500005270C061002080B5FFF75BFA012100F04CFF0A
S3150000528010F5007F02D16FF07F0002BD8005001689
S3150000529002BD10B5DFF8EC270446107B50B1611E45
S315000052A08941906AC90F01F0FFF818B140F2C77141
S315000052B0FFF71AFF2000DFF8C81718BF0120C871D2
S315000052C010BDDFF8BC07C07970470000B05A000077
S315000052D038B5044601F002FC0546DFF8A407DFF8FE
S315000052E0A4270472D07D38B9107B28B1611E89418C
S315000052F0906AC90F02F086FA2846BDE8324001F0EE
S31500005300A2BCDFF87C07007A7047DFF87837187B95
S31500005310002800D1704780B5986ADFF87817002218
S3150000532001F0A5F820B1BDE8044040F2F371A2E512
S3150000533001BD0000A4610020A8610020DFF8442719
S315000053400146107B5174002800D1704780B5906AE1
S3150000535001F09CF820B1BDE8044040F2FE718AE5F8
S3150000536001BD0146DFF81807DFF818378183187B7F
S31500005370002800D1704780B5986A002201F068F8CD
S3150000538020B1BDE8044040F60F0174E501BDDFF829
S31500005390F006808B7047DFF8E806C08B7047014641
S315000053A0DFF8DC06DFF8DC36C183187B002800D185
S315000053B0704780B5986A002201F03BF820B1BDE83D
S315000053C0044040F6250156E501BD10B500F02EF863
S315000053D0DFF8AC060179A06A012200F082FE20B156
S315000053E0BDE8104040F6470145E510BD80B5DFF841
S315000053F09416886A00F07FFE18B140F64C01FFF75C
S3150000540073FEBDE80140FFF726BA10B500F00EF8AE
S31500005410DFF86C060179A06A002200F062FE20B176
S31500005420BDE8104040F6570125E510BDDFF85446AB
S31500005430A06A0122012100F0FDBDD7E710B5DFF813
S3150000544044260446906A214602F0EFF9DFF830164A
S315000054508C7110BD7CB57F2804460CD14FF6FF70C9
S31500005460DFF83456298800F025F8BDF800007E24C0
S31500005470C10558BF044601F031FBDFF80866054652
S31500005480F07D68B9204641B27E2903D1306B38B130
S3150000549090F9040041B27E29BCBF40B2FFF728F95B
S315000054A0707B00B10120DFF8F4150C54284601F09A
S315000054B0CAFB73BDADF8000002237F22684602F0E6
S315000054C0CFB8DFF8C015487B00B10120DFF8CC2546
S315000054D010567E2805D1086B08B97F20704790F9D1
S315000054E00400704700212320FFF7D2B8DFF89405A7
S315000054F090F9161003290AD10022DFF88435827547
S315000055004FF0FF311962816B402001F0C6BB704736
S31500005510AF60000038B50446DFF8685501F016FBA9
S31500005520E863FFF7F8F801462046FFF7B1F8062CC6
S3150000553002D001F00FFA01E00020A874BDE8314066
S3150000554001F055BD60630020C45A000038B504461A
S31500005550DFF82C15DFF82C554FF0FF30086201F00C
S31500005560F5FAE86395F91600012823DBDFF8301514
S31500005570487808B1E86B286495F9160002280CBF34
S31500005580012100210020A8758D2C16BF872C26200E
S315000055902720FFF77DF8E87B28B1A86A00F04EFDCA
S315000055A00120287431BD2046BDE838400022002184
S315000055B001F073BB31BD0000A463002080B5FFF786
S315000055C0AAF801460120FFF763F8DFF8B814C87C93
S315000055D018B1BDE8014000F076BA01BDC160000017
S315000055E0044008404C5008402DE9F043DFF894543D
S315000055F00FF2BC49A86A89B005AA032101F0E7F9B0
S315000056005FEA000803D14FF4396100F0BDF89DF858
S315000056101400DFF86C44BDF8167007281CBF6079CB
S31500005620002818D1062F16DB07F108008B2812D2A6
S31500005630002000903B46DFF86C64A86A324641467B
S3150000564001F0D1F9B84203D040F6AA3100F09CF837
S315000056503078010606D5FFF75EF801460420FFF70D
S3150000566017F88EE0A86A6A46414601F0B8F918B103
S315000056704FF43C6100F088F8707800F007000228CB
S3150000568031D1FFF748F801460920FFF701F894F8F1
S31500005690078095F91600032821D19DF80D00F0B179
S315000056A00021A9754FF0FF302062B17801F030017A
S315000056B020290FDA062F0DD17078000900F00104B9
S315000056C021462920FEF7E4FFA96B22468F2001F030
S315000056D0E4FA56E0A96B0022402001F0DEFAB8F1A8
S315000056E0000F4ED105E09DF80D0010B10020FFF728
S315000056F0FDFE7178E07998B18A0611D5207A78B1E5
S31500005700A86A02F088F820B1FFF705F801460620DE
S3150000571003E0FFF700F801460520FEF7B9FF0BE0AE
S3150000572001F00701022905D0FEF7F5FF0146092021
S31500005730FEF7AEFF0020A8743178491CB94203D0A9
S3150000574040F61B4100F020F8F01921790170002283
S315000057504270FF229DF80E10817008379DF80F10D9
S31500005760C17002710099090C41710099090A817191
S315000057700099C171F9B2AA7C304601F0ECFB002019
S31500005780A87409B0BDE8F0834846FEF785BE0FF25F
S315000057902830FEF781BE10B5DFF8E402046A002C5B
S315000057A015D401F0C5F9041B40F2E930A4B28442D5
S315000057B00DD3DFF8D01291F91600032803D1BDE806
S315000057C01040002092E6BDE810408920BEE610BDDC
S315000057D010B558B901F0BFF801F080F90446002170
S315000057E00020FEF755FFFFF7D6FF02E0BDE81040A8
S315000057F0D1E72046BDE8104001F025BA2DE9FE4F5D
S31500005800144683466106994648BF002002D4200606
S3150000581002D50120FFF7D2FEE002994D994E2AD516
S315000058200021B174287A30B3584601F0F4FF10BB5A
S315000058306946584600F05FFEE8B99DF80800022860
S315000058400DD1BDF8000001F0F3FFFF280DD09649F9
S315000058500A6832F8100010F4E66F06D10BE0032850
S3150000586009D1684602F058F828B1B06A00F041FE46
S3150000587008B90120B074E00305D5FEF74CFF0146D8
S315000058800320FEF705FF96F916000FF224280128DB
S3150000589006DB60024FF0FF3A38D596F9161001295B
S315000058A078DB96F91600032874DAB06A06F1380236
S315000058B0002100F0D2FC01F049F9F06378494878FC
S315000058C008B1F06B306496F91600012806D002285C
S315000058D016D10321B1752820002159E00020B075AA
S315000058E0C5F820A000212B20FEF7D2FEF07B20B1C8
S315000058F000F0BEF8012030744CE0B16B002222E0CB
S3150000590040F66C114046FEF7C7FD43E014F0044F25
S315000059101CD096F9160002280CBF0127002700208C
S31500005920B075042001F018F8C5F820A0394600F03B
S31500005930A3F8F07B0028DBD1F07D002814BF8E2071
S315000059408D200022002101F0A8F923E0E00148BFE4
S31500005950892002D4E00003D58820FFF7F7FD19E07F
S3150000596009F002010023994218BFFFF7BBFD09F0B9
S3150000597001010023994207D04C480168890B01F0C8
S3150000598001012420FEF784FE600003D500212520B6
S31500005990FEF77EFE200744BF5846FFF725FEE005CA
S315000059A005D5FEF7B8FE01460420FEF771FE14F495
S315000059B00C4F05D0FEF7AFFE01460220FEF768FE4B
S315000059C0200244BF0820FFF7A5FD14F0085F1CBFA6
S315000059D00720FFF79FFD200144BF0620FFF79AFD31
S315000059E0A00744BF5846FFF781FD09F010010023C8
S315000059F0994210D000210A20FEF74AFE5846FFF7CA
S31500005A0075FDD6E9080101F020030027BB421CBF43
S31500005A10002002F008FA09F02001002399421CBF79
S31500005A20012002F000FA09F040010023994213D048
S31500005A30584600F0F9FA78B1022802D0032802D0BD
S31500005A4005E0892000E08720FFF780FD04E040F6AE
S31500005A50DD114046FEF720FD09F080010023994242
S31500005A6018BF02F041FABDE8F78F0000408D0140F3
S31500005A70B06A00F0E3BA00212620FEF709BE000056
S31500005A80C0610020E86400200A00D0BF8F4B0000F0
S31500005A90F00A0300207B0020F20A03005C64002069
S31500005AA0A4630020C07500204C610020044008401B
S31500005AB07068792E630000006C69627261696C2EF1
S31500005AC0610000000000704702F010BA7FB50121A6
S31500005AD01B4802F0C3FA01220121012002F004FD55
S31500005AE00421072002F020FE164A92E83800694693
S31500005AF0032281E838000D218DF8081001268DF863
S31500005B0009208DF800608DF8076069460E4C204626
S31500005B1002F086FE0D490420086002220C496262EA
S31500005B200860A26A42F00202A2627FBD064802F045
S31500005B306BBEA52803D10021034802F04CBE704776
S31500005B4030053E00C8F102000020054080E200E07A
S31500005B5000E100E0602080F31188704770B502F024
S31500005B606CFFAA4C204603F02AFBD8B9204603F066
S31500005B70EFFAFF28044615D0A5480168085D851E82
S31500005B80E9B2204603F06AFA0646E9B2204603F077
S31500005B9069F92146304600F0E9F82046BDE8704034
S31500005BA003F003B870BD03460A4696A10420FFE73A
S31500005BB00CB480B502AA00F031F801BC5DF80CFB0C
S31500005BC00A00034602D090A11120F1E770470000B9
S31500005BD080B586B001F0A2FC6022049200218D4AB5
S31500005BE000926723059103930291019102460023D7
S31500005BF08CA10120FFF7DCFF874881790288437971
S31500005C000391029201930179C37882780091422030
S31500005C1087A1FFF7CDFF07B000BD00002DE9F04FCB
S31500005C2085B005460F46904603F049FB0024F0B9BF
S31500005C3002F086FED8B1012002F04DFFFF28824611
S31500005C4015D0002102F042FF294601A802F07EFE8F
S31500005C50054687BB00F083F830B9504602F082FE55
S31500005C6010B1042003F01CFB504602F09EFF05B065
S31500005C70BDE8F08F8DF8041001251BE0644858F844
S31500005C80046B006810F80A90F2B2FF2A12D0F1B243
S31500005C9010F801B00BEB0901C9B2504603F0E2F867
S31500005CA00028E1D1CDF800B00023F2B249465046B3
S31500005CB003F007FA7F1C38780028CBD0A0F130011A
S31500005CC00A2904D20A2101FB0404303CF2E700F061
S31500005CD046F80028C8D139780025422901A80ED0F7
S31500005CE044291AD0462925D057290DD06229C5D076
S31500005CF066292AD06C2925D0702926D0BAE758F80B
S31500005D00040B8DF80400B7E758F8041B8DF804104F
S31500005D1002250904090E4170CCE758F8041B8DF8DA
S31500005D2004100B0A0A0C090E437082708DF80710D6
S31500005D300425BFE758F8041B504603F047F800282F
S31500005D40B8D091E758F8044BB4E758F8041BE2B210
S31500005D50504603F039F8002808BF0024F0E72A4629
S31500005D6001A9504603F030B8000000002DE9F043C9
S31500005D70122885B080460D4609D03A281ED04FF627
S31500005D80FE71884204BF284602F053F833E02048EB
S31500005D90224F01684E5D2846FF282CD0212EB4BF25
S31500005DA03446202402F08CFE01462246002003F0F1
S31500005DB012FD3868455D203EF6B2ECE703F0F8FFC9
S31500005DC08146FFF7E8FA0646FEF76AFE0746FEF743
S31500005DD063FE0446FFF7DBFA11490B8816A102930E
S31500005DE002460C480390CDF8109001960097234682
S31500005DF03B20FFF7DDFE2946404605B0BDE8F043EF
S31500005E0003F07EBA574600006C700000AC640020B8
S31500005E1038610020207B0020E0F70200406100206E
S31500005E207464002042423870424242425742420065
S31500005E304242424257420000574242575738704248
S31500005E40000000002DE9F04104469046012522009D
S31500005E508AB00F461E4606D0012C1DD0102C02D04B
S31500005E60202C19D01EE0002103F00BFD0546012C65
S31500005E7018BF202C08D0022C18BF212C04D0032CCC
S31500005E801CBF222C232C1AD1012E0197ADF80C80B1
S31500005E900AD14FF480500BE068461749282200F0DB
S31500005EA045FAE4E701200BE0022E03D14FF44050FF
S31500005EB0ADF80A006946204603F0E3FC0546E8B261
S31500005EC00AB0BDE8F08180B503F09CFDC0B202BD0A
S31500005ED003F0E7BD80B503F0EEFDC0B202BD0CB421
S31500005EE080B50A46014602AB044804F03FF802BCFE
S31500005EF000205DF80CFB000084F20200C79B000046
S31500005F0070477047890001EB401101F184410A6036
S31500005F107047000010B50446FFF71CFE1E484AF6FF
S31500005F20E8510160C162016B01F00F01022913D132
S31500005F301A4A01211160806B00F00300012818BF86
S31500005F40022809D100221C211548FFF7DBFF002299
S31500005F5000211448FFF7D6FF200A0028124808BF80
S31500005F6024024FF20F0104804180BFF35F8FBFF31D
S31500005F704F8F0E490E480A6802F4E06202430A6037
S31500005F80BFF34F8F00BFFDE70A4870470948203826
S31500005F90704709487047000008300E4040400840EE
S31500005FA060300E4074300E40000000200CED00E022
S31500005FB00400FA0588560020A00000200020704743
S31500005FC0012070470120704700207047012070476C
S31500005FD0002070470020704701207047002070475E
S31500005FE0012070477047704700B1022070470020BB
S31500005FF07047FEE700B10C30704770B504000D46DF
S3150000600002D0254E307808B1002070BD746020465D
S3150000601000F0D3FA2946204600F08BFA002814BF78
S3150000602001210021317070BD0120704700207047AA
S3150000603004F0C4BA0846114600F0E5BA70470846AF
S31500006040114605F061BA0220704700207047002013
S3150000605070470120704700207047000038B50D4694
S3150000606011461A460C4BD3F8084004B92FA4034630
S3150000607024682846A04732BD0748D0F8080000B972
S315000060802AA04068004700000348D0F8080000B97D
S3150000609026A08068004700001479002038B500F07B
S315000060A038F82A462146BDE8384004F014BB70B5DE
S315000060B000F013F800F00DF8BDE8704004F065BB81
S315000060C070B500F00AF800F004F8BDE8704004F07E
S315000060D00DBB33462A46214670470C4615461E46DA
S315000060E088E7002370B5FFF7F8FFFFF7F2FFBDE87A
S315000060F0704000F03CB880B504F06CFE002002BD94
S3150000610010B50C46FFF776FF2146BDE8104000F0BB
S315000061108BBD0C4615466DE710B50C46FFF76AFFBA
S315000061202146BDE8104005F0A3BA000025AB0000EB
S31500006130A1AB0000ADAB0000D1AB0000E7AB0000A7
S31500006140476000004B6000004F6000005360000095
S315000061505760000005F092B900B10C30704710B5D9
S3150000616000F07FF82146BDE8104004F0F1BB70B5A1
S315000061701446D2B2032A1D4601DB012070BD89B246
S3150000618000F0AFFA06000FD10121012000F03BFA22
S31500006190002005F072FAE0B218B9284604F02AFE8B
S315000061A002E0294604F02DFE304670BDFEB500F033
S315000061B01CF82046FFF7D0FF0646F76F38000ED1D1
S315000061C06946204600F041F89DF800102A46204610
S315000061D005F066FA0146304604F096FDFEBD002342
S315000061E0002229463046B847FEBD04460D4600202B
S315000061F005F043BA3EB50446FFF7AEFF05466946CD
S31500006200204600F022F8284604F0DCFDFF2802466E
S3150000621001D115483EBD9DF80010204605F0A4FAB0
S315000062203EBD38B50D460446688805F026FA204678
S31500006230FFF792FFC16F09B1022032BD2946BDE8C2
S31500006240344004F03DBD05F019BA10B500F009F868
S315000062502146BDE8104004F0ABBD00B10C3004F09F
S3150000626052B80C4678E700000080FFFF00B10C3002
S31500006270704738B504460D4605F0CEFA0021A561F3
S315000062806161BDE8324005F0CBBA70B505460E46F1
S3150000629005F0C2FAA9690E403400696918BF0124E5
S315000062A00E436E6105F0BCFA14B10020802170BD6A
S315000062B00020002170BD38B504460D4605F0ACFA45
S315000062C0A16962690D4022EA0505656105F0A8FA33
S315000062D0284632BD80B5FFF7C9FF406902BD10B53B
S315000062E0FFF7C4FF04460121FFF7E5FF2046BDE89E
S315000062F0104004F092BC10B500F006F804F001114D
S31500006300FFF7B7FF002010BD0C46AFE738B5FFF723
S31500006310FBFF00F006F821462846BDE8344005F0AC
S31500006320A1BA05464FF48031C5E7FEE74AB1000041
S3150000633011F8013B521E00F8013B1CBF11F8013B4E
S31500006340F8E7704700B10C30704700007FB500F0E9
S31500006350B9F8237E627EA17E054605F020FB6846DD
S3150000636004F10C010C22FFF7E1FF6946284605F00F
S31500006370CDF8211D284601F000FA060005D100BF20
S3150000638067A1284605F07CF80646300003D128466A
S3150000639005F0A8FA06462168284600F019F83046A6
S315000063A004B070BD80B5FFF7CDFFBDE8024005F033
S315000063B085BA38B5FFF7C6FF054604F0FFF8002496
S315000063C0012812BF0224284605F06CFA204632BD89
S315000063D0F0B589B005460C464FEA0D0047A12422C8
S315000063E0FFF7A4FF04B96C46002601E0010006D1C0
S315000063F0F0B234F81010F2B2284605F08CFA01001B
S31500006400F7B206D104EB4700F2B2C188284605F080
S3150000641090FA010007D104EBC70000F10C01F2B2BB
S31500006420284605F09FFA761CF1B20329DED309B09F
S31500006430F0BD38B51546032D0C4601D3012032BDFB
S31500006440FFF780FF2A462146BDE8384005F063BACB
S3150000645038B51546032D0C4601D3012032BDFFF792
S3150000646071FF2A462146BDE8384005F062BA38B5C4
S315000064701546032D0C4601D3012032BDFFF762FFFE
S315000064802A462146BDE8384005F06CBA38B500F01A
S3150000649019F800F02BF828B121462846BDE834400B
S315000064A005F074BA022032BD38B500F00BF800F0E2
S315000064B01DF828B121462846BDE8344005F060BAEB
S315000064C0022032BD0C463DE770B50C461546FFF777
S315000064D039FF064605F0EFF930B12A462146304627
S315000064E0BDE8704005F073BA022070BD054605F0A0
S315000064F0E2B905F090BA084605F0A3BAFFFFFFFF20
S31500006500FFFFFFFFFFFFFFFF00000000000000008D
S315000065100000000000000000000000000000000075
S31500006520000002080000000000B10C30704705F0C2
S31500006530A3B838B50D460446002100F002FE2946F0
S31500006540204603F0F1FE08B1002032BD204632BDE0
S3150000655070B50D00064614BF012400241F212046F5
S3150000656005F0ACFA284605F08AF8002086F8C40043
S31500006570F066B5661F21204605F0A0FA4FF6FF74B7
S315000065800020E96888420CD2AA68182111FB00F1A4
S315000065901144C989A14201DA0C0002D0401CC0B2E4
S315000065A0EFE7DFF8B0020021016041603046214686
S315000065B000F097F8204670BD704710B5044603F00A
S315000065C049FF002C0CBF002004F10C00406F0100B5
S315000065D0DFF8801208BFDFF88002886010BD38B58A
S315000065E000F079F9054603F0E9FF012801D0022001
S315000065F032BD21462846BDE8344003F07CBFDFF8B3
S3150000660054020068704710B50C4603F085FF1CB1B4
S3150000661003F0D4FF0128FBD110BD00002DE9F04B9B
S31500006620C26E1AB103898AB29A4251D0846E002C86
S315000066301CBFA268002A01D0E26812B90320BDE897
S31500006640F08B0025D0F87C80A9460F46CB4606463F
S315000066500021E06881453ED2A26802EB0B00BAB287
S31500006660C3899A4222BF028ABBB29A4218D3054610
S315000066705FEA0800B5F9122003D0B6F9F6008242A7
S3150000668029DAFF2047F6FF739A4205D096F8A8103C
S31500006690A6F10C0005F004F83279904201461AD2B0
S315000066A009F101090BF1180BD3E75FEA080004D0E2
S315000066B000232A4600213046C04706F1B8032A4681
S315000066C0B9B2304604F0A6FB3781F56686F8B440C9
S315000066D00020BDE8F08B002D0C46E6D10120BDE878
S315000066E0F08BF0B581B004460D4605F095F80646E8
S315000066F0A9B22046FFF792FF070006D10023002229
S31500006700A9B2204600F007F80746304605F088F89B
S31500006710384601B0F0BD2DE9F84F06460F469046C3
S3150000672004F068FF4B4DB5F80CB0002404F07DFF73
S315000067304FF0000AA14618B16C6004F071FF03E047
S315000067405FFA88F000B16C60F06E6968884205D126
S3150000675020B1B8B2584508BF002075D003F02EFF0F
S31500006760012803D001210120FFF74DFF2868E0B181
S31500006770B26E904209D1696839B1F36E994204D17B
S31500006780B8B283451BD0012419E0016869B11268CB
S3150000679091420AD1F16E0A6869684FF0010911B198
S315000067A0096891420BD0416805E0F06EB16E02684F
S315000067B009684FF00109304604F0DAFD8246D6F842
S315000067C07CC0BCF1000F0BD1317996F8B4009DF86E
S315000067D00020814288BF0146304604F0C9FA04E031
S315000067E06B46002200213046E047BAF1000F5FFAFF
S315000067F088F814D1B06E286044EA0804F16E696026
S3150000680059EA04040BD049EA0800411E8941BFB287
S31500006810C943EF60C90F304604F02DFB824659EAA2
S31500006820080010D0BAF101008041C00F332105F0F5
S3150000683045F99DF80010304604F0AAFDF16EAA68ED
S31500006840A6F10C009047504601B0BDE8F08F0089D4
S3150000685070470000E0630020B965000001281CBFF6
S315000068600428022801D1012070470020704738B55E
S3150000687000F02DF840B16878FFF7F0FF20B12978D5
S3150000688068780143490701D5012032BD29462046D3
S31500006890BDE8344004F0C6B910B500F01CF8214636
S315000068A0BDE81040E3E738B500F011F838B1687874
S315000068B0FFF7D4FF00281CBF6878042801D1012007
S315000068C032BD29462046BDE8344004F0CEB90D4617
S315000068D004462878C2E70C4626E610B5FFF7FBFF0C
S315000068E02146BDE81040DEE7FEB5DDE9086714463F
S315000068F01D46FFF719FECDE9006722462B4603F039
S315000069006CFDFEBD10B5FFF7E6FF2146BDE8104061
S3150000691004F012BD0020704738B51546104A51786C
S3150000692004462220FFF756FB2046FEF70DFA0446E2
S315000069306DB120000BD00B49087818B10A48012127
S31500006940017004E000220021204600F0A6F920464E
S3150000695032BD7047704770470449087070470000A1
S31500006960A4630020F7640020F8640020D77F00208D
S3150000697070470020704700B1022070470120704721
S3150000698001207047012801D100207047022070477E
S315000069900120704700B10C30704770B500F007F861
S315000069A033462A462146BDE8704004F057BC0C46E3
S315000069B015461E46EEE738B500F006F82A4621468B
S315000069C0BDE8384004F075BC0C461546E2E70846BB
S315000069D0114604F09DBB00B10C3004F0B9BB00B108
S315000069E00C3004F0B8BBF8B5069C0D4616461F469B
S315000069F0FFF7D0FF23463A463146284601B0BDE8A8
S31500006A00F04003F02FBD000080B54FF40071ADF8E3
S31500006A1000106A460649FFF7CEFFBDF80010B1F533
S31500006A20007F01D0012002BD022808BF002002BD60
S31500006A3020790020704705F0A8B810B50446052156
S31500006A40112001F06FFC00220021022001F04CFD14
S31500006A501E4801686FF3D321016002681C4901EAF0
S31500006A60C4210A43026001210122022001F03CFDFB
S31500006A70BDE810400421112001F054BC1348006801
S31500006A800003C00D704713490A68130305D449680B
S31500006A90C1F30801018001207047002070477CB5D2
S31500006AA00D4E0C464FF6FF753188ADF800500223A7
S31500006AB07F22684605F0F2F8BDF80000A84202D031
S31500006AC02080012076BD002076BD000030400E40BB
S31500006AD000F80F00B481E00FF60A0300EFF311800F
S31500006AE0602181F3118870477FB500F011F818B95D
S31500006AF000F015F805F099F904B070BD7FB500F007
S31500006B0007F818B900F00BF805F0A7F904B070BD46
S31500006B100446084615461E4602A905F061BA0899BC
S31500006B20099800910190334602992A4620467047FB
S31500006B3080B500F00DF880B202BD80B500F008F80F
S31500006B40FA21B0FBF1F080B202BD000000BF0000E8
S31500006B50E0B505F02DFA6A4605F074FA18B147213A
S31500006B602BA0FDF799FCDDE9000103B000BD000094
S31500006B7080B504F0B1FF0121174801F06FFA05F066
S31500006B8029F920B15FF0520121A0FDF785FC002014
S31500006B9002BD1249012008707047FEB50446002563
S31500006BA0216801B91EE000F00CF808B100F002F807
S31500006BB001201BE001950095002321683A46301D0F
S31500006BC092E7064E064F35700023009301953A462C
S31500006BD0301D93E70000000030053E00707600206F
S31500006BE0936B000005F071FB0020FEBD05F004FC70
S31500006BF0307840B92146301D05F0A3F9206805F02C
S31500006C0004FA852501E00020307020602846FEBD8C
S31500006C1073797374656D2D74696D65722E630000EA
S31500006C2000B10C3003F010BF38B50D46044689B2EA
S31500006C30FFF757FD010005D1A9B22046BDE8344053
S31500006C4003F089BE32BD80F311887047DFF8540423
S31500006C500021418001710022FF2141718171028171
S31500006C60428101704270704770B54028044615464F
S31500006C70DFF8306403D1F1782A20FFF7ABF928005A
S31500006C8018BF012070703470DFF81C04007805F01E
S31500006C90D0FCBDE8704001F026B970B58D281CBF48
S31500006CA087288E2804460D46164601D1FFF751FE69
S31500006CB0324629462046BDE87040D5E7F8B5DFF8EC
S31500006CC0E063FFF70BFF06F17E052C78FF2C7CD0E6
S31500006CD0FF212970FFF7B7FF20001CBF402C8F2C27
S31500006CE019D103F0DBF8400915D0701C05F0B8FC8B
S31500006CF000F44060B0F5406F04D1B11D002005F0EE
S31500006D00C5FD04E0B01D05F0ABFC00F091FD317847
S31500006D100D3106F072F8002CA87816BF8F2C0127CB
S31500006D200027022803D040F2171100F097F88D2CA7
S31500006D3018BF872C03D08E2C1CBF0020287138006A
S31500006D4012D0304600F0E1F870B1687840B1012108
S31500006D50A9702921BDE8F440DFF8500305F07ABB9D
S31500006D6000F089F931202DE000F085F9402C0ED194
S31500006D70FFF70EFEE878411EE97000B3687906F069
S31500006D80EFF801460022042006F0F6F914E08D2CF7
S31500006D901CBF872C8E2C12D1687906F0E1F80146CB
S31500006DA00022202006F0E8F9287940B1401E28711B
S31500006DB0C0B208B9BE494870BDE8F14051E007B11C
S31500006DC000242046BDE8F240B2E0FFF73CFFA87879
S31500006DD0032804BF002000F0ABF8688958B1FFF71C
S31500006DE07DFE6C8900216981FFF72DFFE2B200214B
S31500006DF01D2006F0FDF906F1840002F0A9F9FF282E
S31500006E0004460FD0FFF76AFE29894A1E2A81FFF73A
S31500006E101AFF204606F04EFCA87818B9BDE8F140E6
S31500006E2006F04EBBF1BD49E7A24A1178002900D011
S31500006E30704780B501231028137003D04FF4CC712E
S31500006E4000F00CF89A48002141700122BDE8084084
S31500006E504FF47A7192480CE1000000009BA0FDF708
S31500006E601BBB80B5012006F0ABFE924800210170E5
S31500006E7021209149FFF7AEF848B101280DD002282C
S31500006E800BD1002200218E20FFF7EEFE05E0012245
S31500006E904FF47A71824800F0ECF8BDE80240002019
S31500006EA006F08EBE7CB5054600207D4E8DF80000AE
S31500006EB006F18004207818B140F2EB11FFF7CEFFFF
S31500006EC002202070E5706A463146284606F0D5F95C
S31500006ED07749487079487A49027862700878A070D4
S31500006EE0FFF7BFFF73BD06F0B1BD80B5020008BF56
S31500006EF0012212017349002006F07AFE002002BD2D
S31500006F007049002006F0B2BE704710B5441C2046FA
S31500006F1005F0A6FB00F00700032807D1204605F080
S31500006F20DFFF205C042801D1012010BD002010BD28
S31500006F3038B504465A4D7E220021284606F013FF36
S31500006F40002005F8800F06F0BBFAE9782046BDE878
S31500006F50344006F0B6BAF8B50D466F1F0446FFB2C8
S31500006F601646E05DFDF710FE2178FDF70EFEE055B2
S31500006F70FEF7C7F960B13EB12046FFF7C6FF18B16C
S31500006F80607840F0200002E0607800F0DF0060707A
S31500006F902946204601F08CFE0146FF2926D0404DA9
S31500006FA0494E05F18404204602F0BDF835F8860FF7
S31500006FB0401C28803188288881420BD26988491C68
S31500006FC0698007E0204602F0C3F801F0EEFD28884C
S31500006FD0411E2980328828888242F3D332490878B4
S31500006FE005F027FBBDE8F14000F07DBFF1BD10B50F
S31500006FF02B4C94F88000012807D12C480021017001
S3150000700000F039F8032184F8801010BD10B5274927
S31500007010002008700024FFF761FD214991F88020C7
S31500007020012A03D10322012481F88020FFF70BFEF9
S315000070302CB100F020F8BDE81040312078E710BDF3
S31500007040174890F88010481E8041C00F7047FEF721
S3150000705018B8FEF713B880B51149B1F8860030B9F3
S3150000706001F1840002F0ABF810B1012002BD00204E
S3150000707002BDFFF751BCFDF7EEBF094890F880103E
S31500007080012901D10120704700207047042801DB47
S31500007090022070470A49087000207047000000006F
S315000070A0347B0020B27B0020CF7F0020C07B0020F5
S315000070B0A4630020D67F0020296E0000D064002043
S315000070C0D57F0020E76E0000726400206C6F776544
S315000070D0722D6D61632D65667233322E630000007A
S315000070E04901020003D4DFF8780481547047DFF8C1
S315000070F0743402F00F021A4402F8041C704730B5CB
S3150000710000F007000123C0F10704042C2EBF07245A
S3150000711003FA04F4641EC51C072D34BF0020001FAB
S315000071202140814003FA00F0401E1040084330BD64
S31500007130890001EB401101F184410A60704700208B
S31500007140704770473EB572B6FEF704FDDFF81804C7
S31500007150DFF818444169216000F0C5F901466FF077
S315000071600B00FFF7BDFF00F0BEF901466FF00A0005
S31500007170FFF7B6FF00F0B7F901466FF00900FFF719
S31500007180AFFF00F0A8F901466FF00800FFF7A8FF6F
S3150000719000F0A1F901466FF00700FFF7A1FF00F02C
S315000071A09AF901466FF00600FFF79AFF00F093F98F
S315000071B001466FF00500FFF793FF0022022100F061
S315000071C08CF901466FF00400FFF78AFF00F08FF993
S315000071D001466FF00300FFF783FF00F07CF90146DC
S315000071E06FF00200FFF77CFF0022072100F075F91F
S315000071F001466FF00100FFF773FF00F078F90146D2
S315000072004FF0FF30FFF76CFF00F071F901460020E8
S31500007210FFF766FF0022032100F05FF90146012017
S31500007220FFF75EFF00F05BF901460220FFF758FF0B
S3150000723000F05DF901460320FFF752FF00F057F911
S3150000724001460420FFF74CFF00F051F901460520E6
S31500007250FFF746FF00F04BF901460620FFF740FF17
S3150000726000F045F901460720FFF73AFF00F03FF925
S3150000727001460820FFF734FF00F039F901460920DE
S31500007280FFF72EFF00F033F901460A20FFF728FF2B
S3150000729000F02DF901460B20FFF722FF00F027F939
S315000072A001460C20FFF71CFF00F021F901460D20D6
S315000072B0FFF716FF00F01BF901460E20FFF710FF3F
S315000072C000F015F901460F20FFF70AFF00F00FF94D
S315000072D001461020FFF704FF00F009F901461120CE
S315000072E0FFF7FEFE00F003F901461220FFF7F8FE55
S315000072F000F0FDF801461320FFF7F2FE00F0F7F864
S3150000730001461420FFF7ECFE00F0F1F801461520C7
S31500007310FFF7E6FE00F0EBF801461620FFF7E0FE69
S3150000732000F0E5F801461720FFF7DAFE00F0DFF877
S3150000733001461820FFF7D4FE00F0D9F801461920BF
S31500007340FFF7CEFE00F0D3F801461A20FFF7C8FE7D
S3150000735000F0CDF801461B20FFF7C2FE00F0C7F88B
S3150000736001461C20FFF7BCFE00F0C1F801461D20B7
S31500007370FFF7B6FE00F0BBF801461E20FFF7B0FE91
S3150000738000F0B5F801461F20FFF7AAFE00F0AFF89F
S3150000739001462020FFF7A4FE00F0A1F801462120B7
S315000073A0FFF79EFE00F097F801462220FFF798FEB1
S315000073B000F091F801462320FFF792FE00F08BF8CB
S315000073C001462420FFF78CFE00F085F801462520B3
S315000073D0FFF786FE00F07FF801462620FFF780FEC5
S315000073E000F079F801462720FFF77AFE61684FF62C
S315000073F0FF00014041F0BF6141F4013161604FF48B
S31500007400E021E06840F40070E060E06840F01000C1
S31500007410E060E16106F0DBFC06F070FDEFF308804A
S31500007420001F53494FF0CD3201E040F8042988424D
S31500007430FBD2504A504892B2002106F094FC62B644
S315000074404E494F4A012008606846146806F0A8FDB8
S31500007450240E8F2C10DA4B484B4C016841F0040285
S3150000746002604FF05013002230255543521C6351E1
S31500007470052AF9D9016000E006DC44480168C9091B
S31500007480C90141F0200101609DF80100012804D1E5
S315000074903F48016841F00401016000220D213D488A
S315000074A0FFF746FE3C490120086006F093FD06F012
S315000074B0E1FE0521684606F075FF01208DF8030000
S315000074C0684607F071F804F005FFFFF751FB3348F3
S315000074D007F044FB37BDFF22FF2104200FE6002200
S315000074E0012104200BE600220021042007E60022E9
S315000074F00421042003E640F20160FEF70BBDFEF70F
S3150000750071BD80B500210B20FEF764FDBDE801408A
S31500007510FEF769BD032004F012BC000010B506F0AA
S315000075202EFD044606F02FFDC0B220B9012C0BD16A
S3150000753044F0800010BD072CFAD8DFE804F00504FB
S315000075400709090B0D0FF3E7002010BD092010BD38
S31500007550022010BD032010BD0B2010BD062010BD5B
S3150000756000E400E018ED00E00040000008ED00E057
S31500007570885600202C130000A000002044000E4076
S31500007580FC81E00FB0400E4000A000402C400E40B1
S3150000759064310E4054300E4010300E4004F70200A5
S315000075A0BCB504464BF2346710467F2808BF00205E
S315000075B0B9421A4641F2F01518D108237F2241F24A
S315000075C00201684600F04CF808225E49684606F05B
S315000075D0D1FB28B908237F222946684600F040F8E7
S315000075E008226946204606F077FBB3BDA94217D1AB
S315000075F055490868496800238AB3DDB25B1C6055AB
S31500007600521E000ADDB2042DF6D3D8B2082826D2BF
S31500007610002A1FBF2154090A521E5B1CF5D1B3BDB7
S3150000762001F47045C1F30B03B5F5805F00FB023032
S3150000763003D192B200F17E610EE001F47043B3F51E
S31500007640005F1CBF01F47041B1F5405F07D100F146
S315000076507C6092B200F50111204606F03DFBB3BDF9
S3150000766070B51C00054616461AD04BF2346291429C
S3150000767010D1082C88BF082423467F2241F202013C
S31500007680FFF78EFFA2B22F49284606F073FB38B9E2
S3150000769041F2F011234632462846BDE870407FE7A6
S315000076A070BD2DE9F843054614460026EA078946CB
S315000076B06FF00F07DFF8948002D5DD2100F04AF85D
S315000076C0E00702D5DE2100F045F805F47041B1F57A
S315000076D0805FC5F30B0009D11D4900F17E66A01934
S315000076E0401E8842374612D3E3210EE0B1F5005F13
S315000076F01CBF05F47045B5F5405F05D100F17C6609
S3150000770006F50116374602E0EA2100F023F80025C7
S3150000771006E0785DFF2802D0F42100F01BF86D1C0E
S31500007720A542F6D364B162084946304607F053FADB
S3150000773030B14046BDE8F44340F20F11FCF7ACBE51
S31500007740BDE8F183C0F10200F081E00FB4F1020060
S315000077500008E00F4046FCF79FBEFEE7034801889D
S31500007760034808237F22FFF77BBF00BF000B0300FF
S31500007770207B002000B10C3070477CB50D460446D6
S31500007780287858B90021204603F0D4FB0021204672
S3150000779003F039FC0021204603F03FFC287800283E
S315000077A014BF0420287900F027F814BF28796879D7
S315000077B08DF801002046FFF776F806001AD12878E2
S315000077C0002814BF0220A87900F016F814BFA87983
S315000077D0E8798DF801002046FFF749F8060009D13F
S315000077E0287838B16988204603F0C5FB0121204678
S315000077F003F0A0FB304676BD8DF800006946287878
S315000078000028704710B50C46FFF7B4FF2146BDE8C7
S31500007810104003F0F8BB80B5FFF7ACFFBDE80240AF
S3150000782003F005BC084603F09CBE084603F09BBE69
S31500007830F8B50F4C2768060001D1FF20F2BDFFF70F
S315000078404DF90C4D21682A7821F8126037F8021B91
S31500007850B142FBD1FFF7F7F920682B78B91E081A59
S315000078604010C2B29A4208BFFF20C0B2F2BD00BFAC
S31500007870486100208D640020DFF880150020087024
S31500007880FF21DFF87C05017041707047F8B50446AA
S31500007890FFF74EF90546DFF86C05DFF864750688D4
S315000078A0204605F039FBB0F5006F16D1204605F0ED
S315000078B057FBFFF7BDFFFF280DD000F02CFA21463D
S315000078C0781C01F030FCDFF83425107880B110897F
S315000078D0AD192E1A11E09320F2BDFF21384601F0B2
S315000078E04DFC052802DA21463846EAE73920F2BD82
S315000078F015813146104604F0ADFDB2B20321204693
S3150000790005F085FA03220521204605F08BFA20466C
S3150000791001F03DF90020F2BDF8B50446DFF8E004B9
S315000079200078FF2811D0DFF8E05429680E5C37464E
S31500007930384605F006FB01460822204606F01AFAEC
S3150000794028B12868C75DB742F2D10020F2BD0120F8
S31500007950F2BD2DE97C43044605F08CFA060B204661
S3150000796005F013FB0546204605F0FEFAB0F5404F3C
S3150000797006F0010616D1002E64D02946002000F03C
S3150000798087F9FF2804465DD0002105F0D9FD0028BF
S3150000799058D00521204605F04CFA40F0800205211A
S315000079A0204646E0284604F05BFE0546FFF740FF0A
S315000079B00446FF2C08BF002045D0012000212246A6
S315000079C007F054F9DFF84424002ED2E9008948EA8A
S315000079D0000349EA0109C2E900391FBFDFF8306434
S315000079E0336833F8143013F4E66F2BD09B0623D597
S315000079F08DF8005069462D0A8DF80150012000F0DF
S31500007A0047F9FF28054608D1316831F814204FF6AA
S31500007A10DF70024021F8142014E0002105F090FDEB
S31500007A2080B10521284605F004FA40F080020521C0
S31500007A30284605F0F7F905E0D2E902452043294337
S31500007A40C2E902010120BDE8768338B5044605F097
S31500007A5063FAB0F5006F0CBF01250025204605F03E
S31500007A6070FA04462146284600F012F9FF280FD185
S31500007A7085B1204604F0F4FDFFF7DAFEFF281FBFAC
S31500007A80DFF88C130A6832F8100010F4E26F01D0A8
S31500007A90012032BD002032BD2DE9F04107460C46DB
S31500007AA005F03AFADFF85853B0F5006F0CBF681CC2
S31500007AB028460078FF2809D0DFF84C130968085CCF
S31500007AC00646B74205D08E5D8642FAD10020BDE853
S31500007AD0F081FFF703F880460521304605F0A9F945
S31500007AE000F07F00471EFAB20521304605F09AF9EC
S31500007AF0200018BF312C01D0FFB207BBFEF7EEFF06
S31500007B000746304605F008FAB0F5006F314605D154
S31500007B10681C01F033FB00F0E3F802E0284601F0B0
S31500007B202DFB3846FFF78FF84046FFF78CF82146C5
S31500007B30304608F0B5F8304601F037F804E000F0BA
S31500007B40CFF84046FFF77FF80120C0E710B5FEF7F3
S31500007B50EFFFAA4C21892081411A88B200F0E4F88F
S31500007B604FF6FF71884202D10020207010BD0146F9
S31500007B702046BDE8104004F06DBC4FF6FF70D3E020
S31500007B802DE9FC4EA1480024D0E900230025AB4294
S31500007B9008BFA2427AD00126A2468346FEF79EFF80
S31500007BA08446DBE90001002700240AEA010306EA0D
S31500007BB00002A34208BFA24217D0F2436FEA0A03AB
S31500007BC010401940CBE900010127DBE902013040F2
S31500007BD00AEA0101A14208BFA04206D0DBE9020180
S31500007BE010401940CBE9020101246046FFF72BF84B
S31500007BF0002F3CD08648016831F81500810736D53C
S31500007C00844A136833F8157034B100F4987010285C
S31500007C1008BF4FF0010901D04FF000097E480178F6
S31500007C20CA070AD57D490A68002042F825007C4823
S31500007C300068415D41F0F001415589F001000442C0
S31500007C4009D07348006830F8151041F4006120F837
S31500007C50151005F0A9FC002000903B461A2266A1EB
S31500007C60032001F024FB4946384608F0D0FC4FEAD1
S31500007C704A0040EAD67A76006D1C402D06DADBE92A
S31500007C8000010022914208BF904287D1BDE8F38EE1
S31500007C902DE9F04188465A4900281ABF491C022599
S31500007CA008250878FF2816D0574E3268175C3C46E0
S31500007CB00521204605F0BDF8000608D4204605F04B
S31500007CC040F901462A46404606F054F830B130687D
S31500007CD0045DBC42ECD1FF20BDE8F0812046FBE705
S31500007CE070B50021202004F06EFD45494878FF2834
S31500007CF010D0454C21680D5C2E46304605F030F913
S31500007D00FFF796FDFF2801D000F005F82068865D94
S31500007D10AE42F2D170BD3E49096831F8102042F0FA
S31500007D20200221F8102070472DE9F84F824600BF47
S31500007D303CA0334F0178344C8DF800104FF6FF7895
S31500007D403E4600E07E1CFEF7C9FE8146304601F045
S31500007D5036FA08BB20683178455C0321284605F0D1
S31500007D604DF8824518D3304601F0F2F929466846A7
S31500007D7001F0D9F9EAE7684601F0EAF90446052177
S31500007D8005F057F8000603D44221204607F088FF85
S31500007D90204600F00AFF26E0781C864208BFFFF75F
S31500007DA09FFF4846FEF74FFF3078FF2818D021681E
S31500007DB00D5CA9460321484605F020F8A0EB0A0B06
S31500007DC01FFA8BF20321484605F021F81FFA8BF0C3
S31500007DD0404598BF8046206810F80990A945E9D12A
S31500007DE07A1C9642AED1684601F0E9F90028C2D065
S31500007DF04046BDE8F28F000042574200287B002033
S31500007E00CE640020546400204461002048650020B0
S31500007E104C61002048610020EC7C0020506100206D
S31500007E2094610020FF0070477047002070470020D3
S31500007E3070477047019870477047704770477020C9
S31500007E4008F036BC70B5044643381F4D08D0401EB6
S31500007E50012809D9801E01280ED9C01F32D02AE078
S31500007E60BDE870400AF07AB80AF0A2F820B10AF02C
S31500007E7075F80028FBD170BD144E307810BB012177
S31500007E8031700AF0CFF8442C12D00CD3462C05D012
S31500007E900ED3472C07D140F6010001E040F6020060
S31500007EA0FEF738F804E04FF490712846FCF7F4FA30
S31500007EB00020307070BD2846BDE870404FF49971BF
S31500007EC0FCF7EABA70BD0000E4F10200C17F0020B1
S31500007ED0704700207047002070470120704701203E
S31500007EE07047002070477047FCF787BC0AF0ECB873
S31500007EF0890001EB401101F184410A607047890055
S31500007F0001EB401101F1844108687047012101FA33
S31500007F1000F0704710B50122DFF8B815884202D28A
S31500007F200022002407E0DFF8B015884234BF4FF086
S31500007F3080744FF000741021DFF8A005FFF7D8FF1A
S31500007F40DFF8C006016821F080710C43046010BDA3
S31500007F50DFF88C15DFF88C350A6802F0407298421B
S31500007F6038BF002204D3DFF8A036984238BF01227A
S31500007F70086820F0407040EA02600860704738B533
S31500007F8000F013F841F6713028600AF0E2F800219B
S31500007F9005E038B500F009F841F671322A60FFF7BE
S31500007FA0D7FF0CB10020286031BDDFF8F4562C68ED
S31500007FB004B101247047C01C0F2801D20007704786
S31500007FC04FF070407047000038B50446002500F0B9
S31500007FD053F9DFF83826DFF81C16944208D0DFF88C
S31500007FE03026944206D0DFF81026944204D006E0EC
S31500007FF0086802E0486800E0886800F00700401E54
S3150000800003281AD8DFE800F002050C080AF0E7F8A2
S3150000801004E00AF0EAF801E00AF0E4F805460CE0AC
S315000080200AF099F80446DFF8DC050168C1F3006040
S31500008030401CFFF76BFFB4FBF0F5284632BDDFF8B6
S31500008040A8164A68D30702D40A680242FCD17047D0
S3150000805080B500F0D1F8401C02BD000070B50C469A
S315000080600246110A01F00F010020491E0929DFF816
S31500008070845613D8DFE801F00513121207151812FB
S315000080801B1FDFF85854C2F3043608B1FFF7D7FFB9
S31500008090224631462846BDE8704029E770BD1035B6
S315000080A0F1E730350120EEE738351020EBE74035B3
S315000080B04FF48030E7E7DFF84056E4E7F8B50646C8
S315000080C0DFF82806DFF844250768DFF84415DFF8EF
S315000080D02805DFF83045012516F4781365D0B3F589
S315000080E0003F2BD0B3F5802F24D0B3F5202F5CD0E2
S315000080F0B3F5402F28D0B3F5602F4ED0B3F5801FCF
S3150000810077D0B3F5A01F2AD0B3F5B01F2FD0B3F5A3
S31500008110D01F35D0B3F5F01F1FD0B3F5001F2DD0FB
S31500008120B3F5101F36D0B3F5481F41D0B3F5781F0D
S3150000813055D05DE00AF00FF8E16802E00AF00BF8AE
S31500008140A168C1F3082104E00AF005F86169C1F3EA
S315000081500421491CB0FBF1F74BE010461AE0FFF78B
S3150000816033FF0746206B00F00F00C74041E0104682
S31500008170FFF72AFF216A01F00F0107E0084609E030
S315000081800846FFF721FFA16A01F003018D40B0FB0D
S31500008190F5F72EE0FFF718FF1FE0DFF8600500F0A7
S315000081A06BF8072825D0092822D109F0D4FF14E05E
S315000081B0DFF84C0500F060F804280CD0072818D02A
S315000081C0082815D109F0C7FF07462068C0F3042028
S315000081D0401C47430DE009F0DAFF074609E009F0C5
S315000081E0BAFF04463046FFF733FFB4FBF0F700E072
S315000081F000273846F2BD000001460B0903F00F03C5
S3150000820001205B1E092BDFF8FC2332D8DFE803F0E0
S3150000821005070B11313113171F29106800E050694B
S31500008220C0F3042070471168090E01F00101491CD2
S3150000823014E0D06800E09068C0F308207047DFF8CB
S31500008240C434994215D1116A01F00F0106E0DFF836
S31500008250B83499420DD1916A01F003018840401E5D
S315000082607047DFF8A804814203D1106B00F00F00BD
S315000082707047002070470000014601F00F01012001
S31500008280491E0729DFF8882449D8DFE801F0040FE2
S315000082901348202E4836506A00F0070002283AD0CC
S315000082A002D3042804D01CD30520704711690FE0BF
S315000082B002207047516901F00701491E03292FD892
S315000082C0DFE801F00F020311F2E70620704791691B
S315000082D001F00701012904D00229E9D0042902D0BE
S315000082E07047032070470A207047116811F001019A
S315000082F00FD0012914D109207047DFF818140A6835
S3150000830002F03002102A04D0202A04D0302A04D0E9
S3150000831070470720704704207047082070470020E8
S315000083207047000070B500F00F0003250326401EBD
S315000083300728DFF8DC430ED8DFE800F0042C3074A1
S315000083402E5874630229634806D0032919D00429DC
S3150000835019D005291CD070BD042500260122012153
S31500008360304600F0C1F8FFF70AFE656009F0E4FE4A
S31500008370044609F0F0FEFFF7CDFD2046BDE870404B
S315000083805EE00126EAE702250226FFF7C3FDE5E7E0
S315000083900125FAE7103402E0183400E0143401290C
S315000083A029D0022906D003290BD0062910D00A2984
S315000083B01AD070BD01220121002000F095F802209C
S315000083C01AE001220121012000F08EF8012013E0BD
S315000083D009F0C1FEFFF79EFD01220021DFF814031C
S315000083E0FFF786FD032007E0042005E0072902D0F9
S315000083F0092903D070BD0020206070BD01212160D5
S3150000840070BD012906D0042914D007290BD00829EC
S3150000841014D070BD0020DFF8FC120A6822F030028A
S315000084201043086070BD01220121042000F05CF8B1
S315000084301020F0E700F006F82020ECE73020EAE70D
S315000084400021A6E50122012102204DE070B5044677
S3150000845000F03DF801220021022000F045F8217CC1
S31500008460DFF8B85200200229296808BF0120490810
S3150000847040EA41002860082122782846FFF738FDA7
S315000084806968E07AC90840EAC1016960607AA18832
S3150000849040EAC120A860EE68207AFFF78CFDE288EA
S315000084A0A17A06F07F6646EAC226227A0E4346EA9B
S315000084B0C2160643EE60A17B607B227B090141EA7E
S315000084C00031E07B014341EA0241296170BD112080
S315000084D0D2E600000148E8010190D00300400E40BA
S315000084E004000E4041787D012DE9F84F04288346AB
S315000084F092466DD8DFE800F0504B41034600012755
S315000085000220012500260029DFF8E481834C61D092
S31500008510BBF1020F02BF2068C0F3011000284FF024
S3150000852000090AD12068C1074FF0010905D5206866
S3150000853020F0300040F010002060E763314600F084
S315000085405EF80028FAD0BAF1000F41D000F056F8D4
S315000085500028FBD0BBF1020F3AD1B9F1000F37D09A
S315000085602068C1071FD54FF48060C8F81800202185
S315000085702164022000F096F819E00427082003255C
S315000085800226C0E71027202005250426BBE7402742
S31500008590802007250626B6E74FF480774FF4007053
S315000085A009250826AFE70021022000F07BF8D8F85D
S315000085B00C60012200210220FFF796FFC6F30A0194
S315000085C0022000F027F8E76300F018F80028FBD037
S315000085D0BDE8F18FE063D8F80000F040C107FAD497
S315000085E0BAF1000FF4D0D8F80000E840C107FAD479
S315000085F0EEE7000080400E40050024002946404674
S31500008600FFF77DBC00410E40015A620202001E00C7
S3150000861003002000F8B5401E0D46032805F07F062E
S315000086203D4C314F3BD8DFE800F00228101CC5F363
S3150000863008051A213846FFF762FC0028F9D120699F
S31500008640400A45EA40252561F1BD18213846FFF765
S3150000865056FC0028F9D12068C00946EAC0162660F3
S31500008660F1BD19213846FFF74AFC0028F9D1A06868
S31500008670C00946EAC016A660F1BD1D4801686269D8
S3150000868022F0300242F010026261C5F3C310FFF718
S3150000869092FC226A22490A40154305432562F1BD30
S315000086A040000E401D4A1068C0F30110002818BF94
S315000086B0002911D0202902D030290DD00FE04FF427
S315000086C00000D16E01408142FBD1400209D5D06F36
S315000086D0800A00F0010070474FF44000F1E71148AE
S315000086E0EFE701207047000040410E403061002056
S315000086F090400E40B0400E4050410E4006000E0025
S31500008700B80032008006160090071A00A00914006F
S3150000871070400E405C410E4010400E4024400E401A
S3150000872000F8FF0FFF03E10710B5214B1C68024656
S3150000873092FAA2F2B2FA82F224EA000091400843C9
S31500008740186010BD1B49012008607047F0B51A4833
S315000087501A4B01680020002203EBC204184D64681E
S315000087602E6877070FD453F83250B5F5007F18BF3F
S31500008770B5F5806F05D0B5F5006F18BFB5F5803F2C
S3150000878001D144F480740F4D2E6853F83250F7052A
S3150000879048BF24F01C04294202D0214208BF2843C6
S315000087A0521C092AD8D3C10348BF20F01C00F0BDD3
S315000087B000500E4008500E4004500E40A0F002003B
S315000087C0E841E00F88300E40890001EB401101F1CD
S315000087D084410A6070470A460168CB0600D5704797
S315000087E010B547F2305100E0491E8368DC0701D519
S315000087F00029F9D1016801F00101914203D0BDE8D9
S3150000880010400021E0E710BD0168CA0707D581685E
S315000088108A0704D48168CA07FCD4012141607047E5
S3150000882010B50B78024603B10123487808B143F02E
S315000088300203887808B143F00403C87808B143F00E
S315000088400803087908B143F02003487908B143F0DA
S315000088504003887908B143F01003C8790C7A43EADB
S315000088600033C87A43EA042308B143F00043487A48
S31500008870897A43EA004343EA016347F2305000E055
S31500008880401E9168CC0701D50028F9D1136010BDB0
S3150000889080B501217548FFF7E1FB754801210160AC
S315000088A0002009F0EEFC012304220221052009F034
S315000088B02CFD012000F0BEFC00F00EF800F0EBFCF1
S315000088C009F010FE012340226A496B4809F0D6FDE3
S315000088D06A490860C00F02BD70B50122012104205B
S315000088E0FFF702FE6648674C0168674D674E41F028
S315000088F0010101600021C26842F08072C26002225A
S315000089006348206029603160624863490A60FFF766
S31500008910D5FB6249624A634B0818B0FBF2F0401E71
S315000089201860002129644FF480725F485F49206512
S3150000893031605F4802602B6843F480732B6070BD22
S315000089404F48006800B10120C0B27047D1220270C2
S315000089504170090A817057490A78C2700420521C76
S315000089600A7070472DE9F14F53490A6882B00090AA
S31500008970145C042C5EDBFEF7DBF8641DE4B2002514
S3150000898001904FF6FF79DFF834A1DFF8FC803C4E0A
S315000089901FE0A91E9DF80800C9B200F0A7FA074615
S315000089A0494609F0B1FD81465D4638480168CA0767
S315000089B00FD5F06840F08070F060D8F8001041F4F0
S315000089C08071C8F80010DAF800000028F1D08AF8A3
S315000089D000703168EFB249B3A74227DAFEF7A8F86C
S315000089E00199401A80B240F2F51290421EDAE8B2BE
S315000089F010B95B270125D8E7012805D12E48009A32
S31500008A0001688F5C0225D0E7E01E874205F1010B65
S31500008A1008BF4F46C8D0A11E8F4208BF4FEA19278C
S31500008A20C2D0601E8742B4D15D27BDE7A74208BF0A
S31500008A30002000D00120BDE8FE8F10B50F4B18684E
S31500008A4090B04022694609F00BFD58B1C1B26846A4
S31500008A5000F02EF9044621461220FDF787F920463C
S31500008A6000F0A3F810B010BD0000000000250A00B9
S31500008A70108814424C6800206CF002002C61002023
S31500008A80F0ED00E0B00F00E0000E00E0800E00E028
S31500008A9055CEACC506000E00F00004E0FCAC0600A6
S31500008AA0F8590D00100004E0FF0300400D0001001E
S31500008AB0040304E0B17F002038610020200000E0BC
S31500008AC0DFF840170A6802EB40107047DFF83827D6
S31500008AD01368195470472DE9F0415FEA000831D058
S31500008AE0FDF7FCFFDFF82427DFF824171678DFF8F8
S31500008AF02457FF23FE2E19D10027DFF81C67DFF865
S31500008B001CC7177034782C7007E07C1C0EF80740E1
S31500008B10DCF800E00EF80730E7B23478D1F800E070
S31500008B20A742F2DB0EEB040606F8013C2E7846451A
S31500008B300AD2FEF788F8052000F0B2FB00211B20C0
S31500008B4004F010FBFF2020E0A6EB08062E70157837
S31500008B50DFF8CC661778D6F800E001240EF8074057
S31500008B60A8F10108D1F800C01CF8074014705FFA9C
S31500008B7088F4002CEED1DFF890260CF8073000219F
S31500008B8013685955FEF75FF82846BDE8F08110B521
S31500008B900446FDF7A3FFDFF8881609680A5D521C34
S31500008BA00A55BDE81040FEF74EB8F8B5044600F089
S31500008BB031F80546FDF792FFDFF85036DFF85476B8
S31500008BC0DFF84CC6DFF858E601E02C46FF25FF2CFF
S31500008BD01CD022460FE0DCF80010895C0026A65463
S31500008BE03C78641C3C70FF29DCF800601C78B454A7
S31500008BF01A70EAD00A46DEF800108C5C661E8E54A7
S31500008C00DEF80040A15C11F07F0FE4D0BDE8F24031
S31500008C10FEF719B810B5DFF808160A68145C2106C5
S31500008C2005D5DFF8E02513684001185C10BDFF206C
S31500008C3010BDB0B504460D46FFF7ECFFFF2818BF80
S31500008C40FFF7B3FF2846FF28DFF8D47504D138684C
S31500008C50015D01F07F0105E0FFF799FF3868015DCE
S31500008C6041F0800101556401DFF8980501680D5552
S31500008C70B0BD0EB430B504460120FFF72CFFDFF877
S31500008C8084150A68FF2802EB40110ED0DFF878251C
S31500008C9013681C5403AA002304E052F8045B01F88D
S31500008CA0015B5B1CDDB2A542F7D330BC5DF810FB5F
S31500008CB07CB504460D4605F11F000004400DC0B208
S31500008CC0FFF709FFFF2806460DD0DFF83C050168CF
S31500008CD08D553CB1012000902B460022314620469E
S31500008CE000F002F8304676BDF3B5054681B0DFF8F0
S31500008CF01805016817469DF808201E468B5CF41976
S31500008D00A34203DA4FF4B77100F0E0F830000CD05C
S31500008D10089C394602A800F0DDF802469DF80810C6
S31500008D2000943346284600F001F8F7BD2DE9F047D8
S31500008D30089DDFF8DC64DFF8CCA48046894614463B
S31500008D401F460DE02900224612BF41460146404615
S31500008D5004F0C2FF30683F1BA04410F809900024BD
S31500008D60F8B270B1DAF80000214600EB4913581842
S31500008D7051FA87F12029B2BFFCB2C4F12004E4B253
S31500008D80E0E7BDE8F0872DE9FC410746DFF8780407
S31500008D9088460168CC5D15461E462919CBB2A3420A
S31500008DA006DB28000DD0C9B2384600F05BF808B1E2
S31500008DB0182007E000962B46224639464046FFF724
S31500008DC093FF0020BDE8F6810123DCE70A4600E0B8
S31500008DD0521C1378002BFBD1521A0123D2B2D2E7D0
S31500008DE02DE9F041804601F11F0402F11F00E40461
S31500008DF0C004240E000E04B9012400B901208442E7
S31500008E002AD0DFF80C5419DA001BC0B2FFF763FE54
S31500008E100746FF2808BF00201FD0641E00F01FF879
S31500008E202E68305CFF2804D000F019F8305CFFF79C
S31500008E30BCFE00F014F829680F540DE08A420BD2EC
S31500008E40411EC9B200F00CF804462868005DFFF721
S31500008E50ACFE2968FF2008550120BDE8F081E1B28B
S31500008E60404610E070B5DFF8A063336805460C464F
S31500008E70595D2246FFF7B4FF18B13068445500200B
S31500008E8070BD182070BD04E0DFF884231368185CF9
S31500008E90491ECAB2002AF7D1704731B50C46DFF831
S31500008EA068130A68155CAC4203D340F2052100F052
S31500008EB00DF82146684600F00DF8DFF848139DF8D6
S31500008EC000300A6802EB4311084432BD0FF25430F9
S31500008ED0FBF7E2BA38B504460D46C9042078090EF8
S31500008EE0FFF7D1FF207005F01F0032BD80B5FFF7F8
S31500008EF0D4FF007802BD10B51446FFF7CEFF04700C
S31500008F0010BDF8B5DFF8005304462868065DFF2C4F
S31500008F1003D140F22521FFF7D9FF06F11F01C9044D
S31500008F20080EFFF7D8FDFF28074609D02868C65562
S31500008F300096002322460021384600F0C2F8384643
S31500008F40F2BDF8B505460E4617460120FFF7C3FDEC
S31500008F50FF28044610D0DFF8AC023246066806EB5E
S31500008F6044163B462021701900F01FF82D18DFF833
S31500008F70980201680D552046F2BD1CB504AC00945C
S31500008F8000F001F816BD10B514461A46029B20449F
S31500008F90091BBDE81040C9B207E00CB480B502AAAF
S31500008FA0FFF7CFFF02BC5DF80CFB2DE9F0478146C9
S31500008FB04F460024884615469A460CE0F6B2341908
S31500008FC0444542DA3246384604F086FEBF19641E2E
S31500008FD0641C6D1CE4B2444537DA2878A8B33128FE
S31500008FE018BF32280ED15AF8041B07F8011B322885
S31500008FF0EED1641CE4B2A045A4BF091207F8011B18
S31500009000E6DA22E034280ED1211D5AF8040B8845F1
S315000090101BDB3870020A010C000E7A70B970F8700A
S315000090203F1DE41CD4E7A0F133035AF8041B072BB9
S3150000903038BFA0F13006C1D3A0F14103072B34BFDE
S31500009040A0F137065AF8046BB8E7A7EB0901C8B2D6
S31500009050BDE8F0876D49FE200870704770B500F0D6
S315000090602BF800F003F8301880B270BD06022946CE
S3150000907020463BE7E0B58DF804200123120A8DF85F
S31500009080052000930A460146022301A8FFF72CFE9D
S3150000909007BDF8B500F010F8FFF7E8FF8619E91CE0
S315000090A0C9B2FFF7E5FF0702AD1CE9B2FFF7E0FF23
S315000090B0C01906EB0040F2BD0D46691C0446C9B254
S315000090C014E7FDB5089C20000D461E461BD1F7BDD2
S315000090D04C4B9DF804001B6803EB4010C2F12002C4
S315000090E0D2B2BA42B8BF174681199DF8000003EB09
S315000090F040133A46581904F0EFFDE41B7D19BE19DA
S31500009100A0B200B9F7BDA9B26846FFF7E3FE05466F
S31500009110B1B201A8FFF7DEFE0646B542A7B2B4BF5C
S3150000912032462A46D4E770B504460D46FDF7D6FC0E
S315000091303A4A23781268FF2B08BF555503D01344CB
S315000091401E7856551D702570BDE87040FDF77BBD35
S3150000915038B50446FDF7C2FC2178FF22FF2908BF77
S31500009160FF2507D02D4B1B685D5C8D420EBF22701C
S315000091705A5D5A54FDF767FD284632BDF8B50446D8
S315000091800D46FDF7ABFC21780026FF2913D0234BB3
S315000091901B680A46012603E08F420CD03A46761C2D
S315000091A09F5CAF42F8D1DF5D9F54A94203D18A424A
S315000091B008BFFF222270FDF746FDF0B2F2BD00782F
S315000091C0FF2801D1012070470020704710B50446E2
S315000091D002E0FFF7EAFC2046FFF7BAFFFF28F8D1C6
S315000091E010BD30B50D4B00781C68255C954203D048
S315000091F02846255C9542FBD121541868425430BD5F
S31500009200000000003461002038610020AD640020B9
S31500009210406100208B6400208A64002044610020A5
S315000092203C6100207061636B65742D6275666665CE
S31500009230722E63002F49087070470EB430B52D4961
S315000092400446087820B3FFF77BFB08B3FCF758FE0B
S315000092500120FFF740FCFF28054619D0FFF730FC38
S315000092600221FFF773FB01462846FFF72FFC03ABED
S3150000927022462946204800F079FE30B12846FFF7FD
S3150000928071FB10B1042000F00BF82846FFF78DFCA7
S3150000929030BC5DF810FB0C220021184804F063BDB9
S315000092A0164931F81020521C21F8102070470CB4D2
S315000092B080B502AAFCF7B2FC01BC5DF80CFB0D4AB6
S315000092C01178A1B9010018BF012810D0042818BFD1
S315000092D005280CD0312818BF332808D037281EBFE0
S315000092E03B284FF6FF71884201D0012070470020CD
S315000092F070470000C87F0020C98D00008C760020D2
S31500009300302818BF322806D034281CBF3628382803
S3150000931001D00020704701207047002000217047CF
S31500009320010008D4012200F01F01DFF8C0378A408F
S31500009330400943F82020704701000CD4012200F0B8
S315000093401F01DFF8AC378A40400943F82020BFF3FD
S315000093504F8FBFF36F8F7047010008D4012200F0D2
S315000093601F01DFF890378A40400943F820207047F4
S31500009370C26C1143C1647047012803D9103801D06B
S31500009380103801D1012070470020704710B5DFF872
S31500009390684730B1012807D0102802D0202803D012
S315000093A004E00020204410BD1C20FBE740F283119E
S315000093B0DFF85808FBF770F8204610BD426893881E
S315000093C04089411A8B4201DA01207047002070471C
S315000093D07FB50446FFF7D0FF00283BD0204600F0BB
S315000093E077F890B300F0E0FA0546FDF777FB0646FE
S315000093F0A86901AB6A4602A90AF027F800992A89EA
S31500009400286889B200F027F83046FDF71CFCA869E9
S315000094100AF093F8012818D12A68298990882A8A9F
S31500009420091A914211DBA86990F83110022903D17B
S315000094300AF009F8022804DAA86990F8311001291F
S3150000944003D1A86900210AF051F8200014BF102C9E
S31500009450FFF7F3FA7FBD70B504460E461546FDF7D5
S315000094603DFBE288B2420CD221888B1A991991FBF6
S31500009470F5FC05FB1C152580A388F3189A1AA28013
S31500009480E68000F0F8BBF8B504460D46164600F037
S315000094901FF8B0B100F088FA0446207B10B1012114
S315000094A06173F1BD607B18B12046BDE8F240BAE0B9
S315000094B00FF2D91700F006F818B100F003F80028EB
S315000094C0FBD1F1BDA0693B46324629460AF013B9E5
S315000094D0012818BF202801D10120704700207047BD
S315000094E070B506460D46FFF751FF012E18BF202E18
S315000094F0044643D1A069016890F83200E0B904221D
S315000095008A6400F057F9A06900683DB10421FFF7AD
S315000095102FFF0B20FFF704FF052107E0C16C21F0A8
S315000095200401C1640B20FFF707FF0021A069006852
S31500009530BDE870400AF048B90420486300F03AF9E3
S31500009540002DA0690BD001688A6B42F004028A6381
