S01900004D505F4E43505F5548575F5332315F3730322E7333379E
S11340000010002047950300C170030035710300C0
S1134010776A0000397103003D710300000000005D
S1134020000000000000000000000000EB78000029
S11340304171030024470000AB790000CF790000F0
S11340407B7B00009F7B00001B7E000063800000E0
S1134050678000002F850000D38900009F8C00003A
S1134060A78C0000E38C0000A3C100007154010080
S11340706D540100F78C0000F3B10000C7B30000D9
S11340802FB4000043B6000023C0000027C2000084
S113409047C200005710010077100100831A010085
S11340A0D3400100FB42010013480100FB4E010014
S11340B05F5701001B590100CF5B0100CF2A0100AB
S11340C0972A0100952A0100F9240100CD2A010054
S11340D0992A01009D2A01009B2A0100A54A01009A
S11340E0092B0100EF5B0100876F0100CF70010015
S11340F01771010055500100F3770100EFA501008D
S1134100B7FA0100A7100200D72802009B6C020036
S11341107F700200AF750200C77D02007FA5020018
S113412097BE02007F080300531003009316030098
S11341305F20030000000000000000000000F03FCA
S1134140000000000000244000000000000059406E
S11341500000000000408F40000000000088C340C1
S113416000000000006AF8400000000080842E4136
S113417000000000D01263410000000084D7974182
S11341800000000065CDCD4102010A0006000A00CE
S113419026002A0000800000E01F000001FF01004B
S11341A023E1010075E4010063E2010063E501001D
S11341B062E1010079EB010064EE010024E10100F9
S11341C025E1010026E1010027E1010028E10100C9
S11341D029E101000000010080000100000101004C
S11341E080010100000201008002010020E20100C0
S11341F00003010000050100800501000006010024
S1134200800601000007010001E5010002E501004C
S113421058E2010080030100800401000004010051
S1134220800701000008010080080100000100016E
S11342300100000000000000000000000000000079
S11342400100000000000000000000000000000069
S11342500000000000000000000000000000010158
S1134260010101010001010101010100000001013E
S11342700101010102041104040211101A080A02C6
S113428018011110111A080A04020D0B195C01100F
S11342902812340430040B01010101010101010160
S11342A001010101010101010101010101012020BC
S11342B00C00200101010500000020200000000086
S11342C000000000000000000000000000000000EA
S11342D000000000000000000000000000000000DA
S11342E000000000000000000000000000000000CA
S11342F0FFFFFF00000000000000000000000000BD
S113430000000000000000000000000000000000A9
S11343100000000000000000000000000000000099
S1134320FFFF0000FFFFFFFFFFFFFFFFFFFF000095
S1134330FF0000000000000000000000000000007A
S113434000000000800000000000000000000000E9
S11343500000000000000000000000000000000059
S11343600000000000000000000000000000000049
S11343700000000000000000000000000000000039
S11343800000000000000000000000000000000029
S11343900000000000000000000000000000000019
S11343A000000000FFFFFFFFFFFFFFFFFFFF000013
S11343B000000000000000000000000000000000F9
S11343C000000000000000000000000000000000E9
S11343D000000000000000000000000000000000D9
S11343E000000000000000000000000000000000C9
S11343F000000000000000000000000000000000B9
S113440000000000000000000000000000000000A8
S11344100000000000000000000000000000000098
S11344200000000000000000000000000000000088
S11344300000000000000000000000000000000078
S11344400000000000000000010000000000000067
S11344500000000000000000000000000000000058
S11344600000000000000000000000000000000048
S11344700000000000000000000000000000000038
S1134480FFFFFFFFFFFFFFFFFFFFFFFFFFFFFFFF38
S1134490FF000000FF000000FFFFFFFFFFFFFFFF22
S11344A0FFFFFFFFFFFFFFFFFFFFFFFFFFFFFFFF18
S11344B0FFFFFFFFFFFFFFFFFFFFFFFFFFFFFFFF08
S11344C0FFFFFFFFFFFFFFFFFFFFFFFFFF00FFFFF7
S11344D0FFFFFFFFFFFFFFFFFFFFFFFFFFFFFFFFE8
S11344E0FFFFFFFFFFFFFFFFFFFFFFFFFFFFFFFFD8
S11344F0FFFFFFFFFFFF0000FF00FF00FFFFFFFFC4
S1134500000000000000000000000000049603000A
S1134510BC420000C0420000D4420000D842000067
S113452006960300DC420000F04200000043000055
S11345301C4300002443000008960300304300009D
S11345405A960300484300005C4300006C4300009B
S1134550804300009C430000A4430000B0430000DB
S11345600A960300B4430000C4430000D043000093
S1134570EC4300005B9603004844000058440000EC
S11345808044000094440000C8440000CC4400006F
S1134590FC440000004500005C96030000CA9A3BFE
S11345A000E1F5058096980040420F00A0860100C6
S11345B010270000E8030000640000000A00000067
S11345C013B779FAC925DDB7ADF3CFE0F1B614B866
S11345D00101000000000000FFFFFFFF01000000D8
S11345E000000000000000000000000000000000C7
S11345F000000000000000000000000000000000B7
S11346000300E40C0A0000006465627567000000A2
S11346107675617274000000C800FCFEB4008B085B
S11346207BC0FBFF4D00E402E756FFFF2C00A20114
S113463083EBFFFF1A000301B31A00001100A3006B
S1134640552900000A005E005A28000006003A00BE
S11346502122000004001800731600006400FCFE10
S1134660FFFF000000000000FFFF0000000000004A
S11346705A00F306A554FEFF2100A301A1FEFFFF8B
S11346801100A600832700000A006100DC26000058
S113469006003B00F820000003001500AD130000E5
S11346A00000FCFEFFFF000000000000FFFF000010
S11346B000000000FFFF000000000000FFFF0000FA
S11346C00000000040001806F4D200002C00B002E4
S11346D03DBE00001700F2000C7C00000C004100FD
S11346E09E420000000801B4184600000008015A68
S11346F05C46000000080040A046000000000000E6
S11347000000000057730300617303006573030026
S113471087730300E573030089730300BD7303000B
S11347202C00000013B779FAC925DDB7ADF3CFE04B
S1134730F1B614B80101000000000000FFFFFFFF04
S11347400100000001000000000000000000000063
S11347500000000000000000000000000000000055
S1134760000000000300000076636F6D000000008D
S113477000000000010000000202020264000000C8
S113478000000000640000000000000000000000C1
S113479000000000000000000B0000006BAB0100F3
S11347A0F1930100A9100200CBA80200B14E02004F
S11347B06B3B0300BF430300FB4D03004B5E030050
S11347C0D7470300DD06020055F202000D61030025
S11347D053B40100090A03009B380300891F030036
S11347E0612003004B590300D112030019AD0200EC
S11347F02FF001003DCE02009F8701000000000061
S1134800071800200E180020181800200B1800208C
S1134810091800200A1800200C180020291800206C
S1134820E58000201F1800202118002019180020FE
S1134830B7830020321800202218002023180020FB
S1134840B8830020BB830020461800200F180020E6
S11348509383002045180020D5DC000057DD0000BC
S11348605FDD000097DD0000AFDD00005FB50000F4
S113487063B5000067B500006BB500006FB50000BC
S1134880F9B4000027B5000031B5000041B50000BF
S113489039B50000B3EC0000EFEC000011ED0000AE
S11348A027ED00004DED0000000000008001000035
S11348B048230020FFFFFFFFFFFFFFFFFFFFFFFF75
S11348C000000000000000000000000000000000E4
S11348D0000000000000000001100000109603001A
S11348E00210000012960300030200001496030055
S11348F00510000026960300070800001C9603001C
S1134900000200000E960300040200001696030045
S1134910095C0000209603000A140000249603009A
S11349200D0200001E9603000C0800000C96030004
S11349300B00FFFFFEFF0000000000000000FEFF70
S11349400000000000000000000000030000000060
S1134950991003002DBC01000000000000000000BD
S113496000000000C3C502003B120300E3E20100A3
S1134970551003005D0602006A9603006296030068
S1134980809603006D9603006C96030000000000FF
S11349905496030056960300000000005896030046
S11349A07C960300819603006F96030055960300DE
S11349B000000000599603007096030060960300FF
S11349C07B960300579603007596030007000F00BB
S11349D01000080011001A0006000E001100020069
S11349E01000110004001400040001000100040080
S11349F00900120008000A0013000A000B00150049
S1134A0002000000000000000100000067830200B3
S1134A1002000000BF8302000300000015840200AE
S1134A2004000000B5840200050000002585020092
S1134A30000000000000000006000A0026002A0012
S1134A4000800000580107000100AA00F5DA020006
S1134A5070170000B80B0000E5BF000070170000DD
S1134A60B80B0000E1190000E1190000000000008B
S1134A70641900006419000000000000193F0106D9
S1134A8004100100000101060010270000090000C5
S1134A9000000000000000000B00000066666600D5
S1134AA0000000007C4A0000644A0000000C000082
S1134AB0001A9A00005A620280841E00042000003A
S1134AC01149500200000000000000000000000036
S1134AD00000000000000000B0841E000B00000075
S1134AE066666600000000007C4A0000704A000010
S1134AF000000000001A9A00005A620280841E001E
S1134B0004200000114950020000000000000000D1
S1134B10000000000000000000000000B0841E003F
S1134B200C400200018014007F400000204002007D
S1134B3000000000000000003040040000000000FD
S1134B4000000000000000000000000050400100D0
S1134B50000000005C4002000000000000000000B3
S1134B60A840010007000000B44004000040000019
S1134B70FF4C000000410000FF4D000008C0010090
S1134B800000000020C0050000430000EC80B303D7
S1134B904375A802000000002E02000054C0030068
S1134BA00E2D09E654060708D1B6020064C00800B9
S1134BB00430000040201006C8F248181FE8F60030
S1134BC0BD4B721511A3180510325476980A0000D3
S1134BD088C0010000000000080001010407000073
S1134BE018000101000000002000010108840000F9
S1134BF01C4002011000000020F913045C40050170
S1134C004108000001000000B0070800A7000000F0
S1134C1000000000944007010101103050707F7FB4
S1134C200000000000000000000000000000000080
S1134C3000000000E040020133000000000000001A
S1134C400041020100612000B75635120C410301F6
S1134C50F95412002030042988BB4000304103017C
S1134C606406660C0C010000E853FA006841030175
S1134C7064048307881382000000000030420301AB
S1134C80000000000000000E00000000444201018A
S1134C9000000000108001010300000038800201C0
S1134CA0114910000100000088800101000000008B
S1134CB09C800301EB40020070780300D5C0000023
S1134CC0A8800111F0010000A88001310542CB0148
S1134CD0AC800111F0010000AC80013105228D008F
S1134CE0B0800201000300023700000188000202C4
S1134CF0000C00044C0000009400010200040000B9
S1134D00D00002020E00000090029608E4000102A6
S1134D103D094204F40001020000000018010102F0
S1134D2060005102FFFFFFFFFC1F0103984A0000CF
S1134D30404003000000000000000000A007000045
S1134D401CC0011000F807001CC00130F502080067
S1134D5050C001008741300C2440060107C05200B6
S1134D60000000000000000000000003000000003C
S1134D7000000000584001016402FF00804005016A
S1134D804B01A0089BC34A74F0030000000000001C
S1134D9000000000EC4005017DA8D98B0000000054
S1134DA0640483078813C83A9C200A002441020142
S1134DB000000000031000003C410B010000000053
S1134DC000000000000000000000000000000000DF
S1134DD000000000010000000000000000000000CE
S1134DE000000000000000003C420101000000003F
S1134DF0FFFFFFFFFC1F0103DC4A000040400300EB
S1134E000000000000000000A00700001CC001100A
S1134E1000F807001CC001301402080050C0010053
S1134E208741300424400601070062003870000006
S1134E3000000000000000030068010F40B8244097
S1134E4058400101FC006900804005012363E01122
S1134E509BC34A74F003000003800000BE0A0000F4
S1134E60EC4005017DA8D98B590B0000640483072D
S1134E708813C83A90200A0024410201000000006F
S1134E80001E00003C410B0100148C00141A212860
S1134E902E343B42495043557698BA0C2869000099
S1134EA0010000000721286414171A002004C869AF
S1134EB0A1203A093C42010129000000FFFFFFFF45
S1134EC0284D00004063598F404B4C000B000B00F1
S1134ED01A00FF7F8C16002000000000F44D000033
S1134EE04063598F404B4C000B000B001A00FF7FAE
S1134EF08C16002000000000204B00000000000081
S1134F00C04E00000100000000000000204B000023
S1134F1000000000DC4E0000010000000000000062
S1134F204870740D4470E20C30707A110298F014D9
S1134F3038705E0D3470820D3070640E2C70640E07
S1134F402870D20F2470EA0F20706C0D1C708C1026
S1134F50187008111470640DB110086001D80A713A
S1134F6004B87F78020C7E78641000C6981F00A0F5
S1134F701DB8707803B018600F3027B30F330111D8
S1134F80C0480698460229B0086001D8087109DDB6
S1134F90047109BB11101660A048086004100112C6
S1134FA0FF3221500860D048086000880698181223
S1134FB000C4401F00A000BA03DF107109DF0672AD
S1134FC0029800031DB8507800A04413281441151A
S1134FD08110086002D8147110880698581600C011
S1134FE014C000A80698B018009106985C020160ED
S1134FF0B83020D806711EBC637C00C4E040004475
S11350004412086201322140087C784D5412F03277
S113501040DE0472404804DB08720DDD0C72044B60
S1135020EF30144806989004811140D91C72B112D3
S11350303032CF4A013AB1DA107208D8067104D876
S11350400871804C237C4070684C4412FF328722E4
S1135050047580B8E84C81D8327140D90472237C3D
S1135060084B0698900404BA1CB9767900C1204014
S113507001A835797F216121007906B906A901D8F3
S11350802E72804C307C02982E0208D80C7107BA1C
S113509024D8047106BA187004D80C7101BA40D827
S11350A00E7102BA0A7005BA20D8047203BA204CF1
S11350B04411C04C1814086118149111383111426C
S11350C09111186110D90472EF3200C1084001A88F
S11350D0141110311E6111422814A1110861181411
S11350E006989618181400C1084001A814111861F4
S11350F0FF31181400C11C4000A8141118140861D1
S113510000C2284001A82412FF320471104908D8B3
S11351103C7100C2544000A8241210DA3071B84C1B
S1135120441280BDA26DFF25784C4412FC22513AF2
S11351302814104C00C20CC101A8241228140862BF
S113514028140862281408622814D04C18143088D3
S1135150024806985A03009308DB047101F800A082
S113516027B00F3000A01088B111186180D90A71DE
S113517000C1884000A80811009100A000C470403C
S113518000A8441000A000C08840004004118261BF
S1135190041082601050F07200A054155045127132
S11351A006989A040698300407B8707802B84178D3
S11351B01EBA5B7A5C7A5D7A00C220C001A8241210
S11351C00698621600C5441F00A05415511400C36C
S11351D0FF010000313D09647F34069866020158DE
S11351E051280475015841280E758111086102D9AE
S11351F00472FF0FCC7007B8727800F8EBBD00C0E2
S1135200401F00A00411113D10D91271FF3318631F
S113521000C1781002A8381107B97479581000A099
S113522006985C02184C0D300472044800C11CC17D
S113523001A8141100C3D01E00A0911504351A72E0
S113524018131CBB08D804716C7B04D804716A7BE6
S11352501DBB2F7C5B7B1670044B18131CBB08D83A
S113526004716F7B04D804716D7B217C0C30026067
S113527006981C040698880A00B8B111186140D930
S113528006720298FC0301BC00C2084001A800DCBD
S11352900A7124150265604A0A702C4A24150865AF
S11352A04C4A043508D90471202400C1381F00A0D9
S11352B0141200DC327120D8067101B80C70F0DAD7
S11352C00C720CDB087102B806982404482400C34D
S11352D0384101A834138F7B0E7102B9911308DB96
S11352E0047203B906700449141100C3884000A86D
S11352F0FFB801201141087101411813082401422B
S113530000C1408001A8141101411C65514191154F
S113531020351E65514118132813481300C38440D7
S113532000A8341003D81071073005DC0A7100C3DB
S113533084C40340217B1DB8507800B800C1381FD5
S113534000A014121C602150F0300152281100A05A
S11353504024076400C0FFFF0100013C17B0022095
S113536001584028067518AC01EC00A0208800C044
S113537020C001A8041217B4211304123052F8718A
S11353801964402400C3701F00A03410141106983F
S1135390CA0C1961009211592129067600BB1159D2
S11353A00698AA0C8762313B0472215A412A00A054
S11353B000C2704000A8317A00A0308801B91161A0
S11353C000C30000C0FF3110312800BC002D0C7553
S11353D0115418AC01EC312DF4701964511341557A
S11353E0312C009300A00698A60600C2548001A8A0
S11353F000C0D81F00A004100812B822217A237A12
S113540052B8417801B80C6021A809B819604CA8B9
S113541000C0296E06004FA824B86E78ACB9FFB05E
S113542004D804714CB923A90698160500C0D33FCB
S1135430000050A800A000C0541F00A017B118100D
S113544006989A0400C0D83F000050A849BC21B96E
S113545052B849B207DE2A7105DE0871627C607CAD
S11354601D0C6179677864786B7862786578637805
S11354706078617C010C010C6878020C69786C78A6
S1135480020C00C22C8001A8277A287A267A6A782E
S1135490050C41790A0C784A2B7A327A584A247AD4
S11354A000C400011100404A00C01084000008122A
S11354B0508800C584100100FBAD10BD01BB8A6B90
S11354C021B9FAA9C44A1812217A227A00C0341FD9
S11354D000A00410FCA88264411030300129F9A90D
S11354E0F8ADFBB08260FBA80330A065211004482E
S11354F020EC237A0410037A184A2411DC4A015858
S11355000029241004753150F8B1115081632A71B7
S1135510514031400812FCB18461FCA90F310E7175
S113552017B0112817B111591028FA76C44AF9B1E5
S11355301812217A227AA07000950812404A207A23
S1135540844A00B80812020CA44A087A020C21B852
S11355504178784A0B7A127A00C2C81F00A0FFB0C3
S113556008D80472184A241000DC0A7140A80422E6
S1135570241041A80698660200C2441F00A024100B
S1135580015100C4FF01000041391150081200A06C
S11355900698A60600BC00C20C8001A8217A52B865
S11355A04978020C4878020C49B8417852AC21ACD5
S11355B0204A087A067A077A49AC00C05C1F00A02A
S11355C017B1181000A059B840785AB101D9FC722B
S11355D0427857B8407858B101D9FC72427800A09B
S11355E000C20C8001A8217A227A21B8547807B825
S11355F015604CA852B8617800C0294006004FA835
S1135600584AC8B8081224B84E784CB823A806984B
S1135610160500C0681F00A017B1181000C0C43FD1
S1135620000050A800C08009004040A809B8FFB19C
S113563008D9047103B853A8B11004D80C7156BB2F
S1135640607B57BA627A607A02D80C7156BB607B71
S113565059BA627A607A04B86E783DB8607800C04E
S11356605638000000C124C000A814119F790472A8
S113567008484CA82EB8FFB108D906714AA804708E
S11356804BA80FB834A800C00C5E000046B201421B
S113569046AA00C12C4001A8141108610631087102
S11356A000B90698520F06981E120698BC1802D923
S11356B006720698540B0698181251140698300472
S11356C000C0641F00A017B1181002982C0F00B876
S11356D04CA84AA84BA800C0F321FFFF46B10139EA
S11356E046A904B86F7800A000C0581F00A017B1E5
S11356F01810FABC1964415C512C00C06C1F00A046
S11357000410012C0675069830040698960DB11005
S1135710186024D8347140BA0698EE111DBC7F7C01
S113572004B86578911004D816711CB86E7800C05E
S1135730684000A8217806987A0F01400872427CDC
S113574006982A120298220A1DB8717804B86C7857
S113575041B8427863784478FFB104D9067202985C
S1135760D80800C0C43F000050A800C32C1F00A0EC
S113577000C274C000A82414481300BC48121C4B77
S11357801C4A2414481300BC48124ABA447A427A88
S11357904BBA447A427A617A4CBA647A657A3DBAF1
S11357A0607A4DB942B83FBB5B7966796179020C86
S11357B06479050C63796079050C627965795A79A5
S11357C000C2340102A8241305B81960314008123C
S11357D042B86A78020C4A78020C40BCFFB208DA7C
S11357E006714ABA06704BBA627A657A677A667A43
S11357F06A79667B0298A00900C32C1F00A000C22E
S113580074C000A8241448131C4B1C4A24144813C5
S11358103FBC48121C4A00BC48124ABA647A627AF5
S11358204BBA647A627A617A4CBA647A657A3DBA20
S1135830607A01D94E71647800C1708001A800C0FB
S113584080000800081106984A0A42B861784DB9E8
S11358507F797E796A7868786278020C7B790F0C9C
S11358607A79140C7479417860787579050CFFB2F3
S113587008DA06714AB804704BB8657801BC16643E
S1135880407002D93C7106984A0A42B84DB968780A
S1135890407841787F797E797B790F0C7A79140C82
S11358A0FFB208DA087171794ABA067070794BBA96
S11358B07279657A6A78020C4A78050C01BC166420
S11358C0020C417940790C0C00C04C0102A848102C
S11358D006989004511400C06C1F00A00410012C01
S11358E017B001118768015841280E760521876990
S11358F0415C412D112D06700698300400C0681FCC
S113590000A017B1181042B84DBB7C7B6478020C20
S113591029B868785114404406750698300442B892
S11359204478FFB101D90C7100C1548001A8CBB8EF
S1135930081100C0601F00A017B11810911004D8FE
S1135940147100C0A81E00A0041080D8067107B806
S1135950537800F807B800C1CC1E00A000C220C0D4
S113596001A824122811767800F8B11094783871BF
S113597006986602E4B911591128067600B80C702D
S1135980A0B9115901290475A0B8826000C3C01FD1
S113599000A03413012B341000C3FFFF00FF42B1F9
S11359A03139114042A800A01DB09178FA7142B873
S11359B06478020C00BA29AA00C4548001A842B831
S11359C04DB900C3C04001A83413977B047240EC66
S11359D0020C44785C7953AA0A0C281442B84DB9D5
S11359E0FFB301DB2671244C00C3FF0FFF01381401
S11359F05479407841785579020C5B795A79140CC2
S1135A005F795E794A784278347002DB1471527996
S1135A1051795079020C5B795A795F795E791E70FD
S1135A2004DB1A7100C4FF07000000C3342102A87C
S1135A3048133FBB467B020C5B795A793DBB407BE4
S1135A404CBB447B457B00C3301F00A03414403C56
S1135A50167100C068C000A8481028131C4B1C48CD
S1135A603414481028134AAA4BAA04B86D781DB8F8
S1135A70517800A0B11001D8047200A000C074C015
S1135A8000A80411108800B918106848041110887F
S1135A9001B90B6118102C4804111088008800C14A
S1135AA0231C000018104AB864784BB86478260C9C
S1135AB028B000C1FFFF0FF0113871B90B6111401C
S1135AC028A828B97379747900C21010303045AA17
S1135AD054790E0C00C0E84001A8041100C2303013
S1135AE0101045AA0E0C04100088108806981E0C8D
S1135AF00091009020888F618F6006981E0C0090A2
S1135B00886A21400112906A035800C13F3F000097
S1135B101138FFBC022441281138014245AA28B992
S1135B2053794AB844784BB84478009000911810DF
S1135B3000912C48181000916848181000A0916832
S1135B40436091694361115B012B11284160312845
S1135B50315B00BA302806763128204A4163302868
S1135B6006763128104A4163302806763128084ADF
S1135B704163302806763128044A4163302806768A
S1135B803128024A416330280476014A00A01159A1
S1135B9010D906710860086008D90471086004D936
S1135BA00471046002D90471026001D904710160B6
S1135BB000A010880411023006710861086100C059
S1135BC0FFFF00001138009100A000BA01D806714F
S1135BD00148112A1F61016001D8F6720138F6727A
S1135BE000A000C220C001A8241211592129127357
S1135BF000210E7100C238C001A8241201212129FC
S1135C0000A002B020D8147100C0B41E00A004107B
S1135C1002B9457906987211EA7003B09F78087248
S1135C2000B806A800F80698A60600C5781F00A0CC
S1135C3050880C4D1CBC00C0B81E00A0811101D9B5
S1135C401E71407C00950115044D50887C4DFFBBAE
S1135C501863315B04110698C20C3129F875069853
S1135C60AC1754150698BC1801D908720698C006DA
S1135C700670069836071CBB547B009500F80698FE
S1135C80AE070E700698880A0698AE0706986E103E
S1135C9006987006211900C02C4001A80A780978DA
S1135CA000F810B901BA0698E41106982C0F00C543
S1135CB0781F00A000F8911203321CB900C3A81E7B
S1135CC000A0341300C4B04000441DB84278707979
S1135CD003DE067144783E707179A11020D80A71F0
S1135CE00698C0060298700E80DB1C7102D81872E8
S1135CF005B80814A11010300248081400B808149C
S1135D009110086008141DB86278A11000DC0676B2
S1135D10517900BA911120311D61911004D80E728D
S1135D2000C14C1F00A0141101D90A7120880698E3
S1135D30520F009200C1204000A80533054B187291
S1135D40084C03DE0471904C441400C3FF1F000090
S1135D50413BFF233811944900C3384101A834134F
S1135D60086380DB0C7103BA18620698580E087039
S1135D7018620698580E0C490879097914102140C4
S1135D80081100A000BD0698400210B903DC04719C
S1135D9000B901BA0698E41102D9067100404E72A6
S1135DA003B118610F3106987A0FFFD82872811059
S1135DB008D8187106DD0A710698400203DC0C72DB
S1135DC00698BE0F06982A120C7006DD107106980C
S1135DD0C40F487020B804A806DD10720698AE07F8
S1135DE00698700601F840B804A800F800C0A81E80
S1135DF000A00413086301DB2271911001111861E2
S1135E0011381DB910D8087144790298700E02DB5C
S1135E10FA72A11328DBF47203BD0698200F0698CA
S1135E20AE0700C57C1F00A00698400200BA03DC40
S1135E300472FC4D5415212D0698C6040298C80717
S1135E409110015503355150011900A000C1481F9C
S1135E5000A0141001D8427101480860FE200E759C
S1135E60811020D8087100C14C1F00A0141101D961
S1135E70287100C02C4001A80412215108610F317F
S1135E8018611152281000C0084001A80411911291
S1135E90215120311152211900A0811380DB067297
S1135EA001B800A000C314C001A8341006302E723B
S1135EB06C4B34121C4B3410186002302072811069
S1135EC080D8DE713410014A0862046080302150A9
S1135ED08C480A717F234D233410013000A000BD8B
S1135EE00698200F1CB847784578437802B8447860
S1135EF000A00698AE070698BE0F00C5841F00A038
S1135F0054150698C6040298C80700C384C4034005
S1135F10017B06981E1200C1384101A814118F7923
S1135F200E7100C1B84000A800BA0698580E50BAC5
S1135F300698EE1106987A0FFFD84A71911004D88A
S1135F404872811008601CD8407220D9387211122E
S1135F50FF322151347180218021111400C0D81ED8
S1135F6000A00413FFBA3151113A215111531DB944
S1135F7038107B7940440E7200B900C2B01E00A0F4
S1135F801812067004B860780698181200F800B960
S1135F9000C2A44000441812644A0AB918121CBA78
S1135FA0507A517A1DB942795F7900A0069840026F
S1135FB007DC1072911000200A7506986E10029882
S1135FC08E0D0698700601B9911004D8047100B9B9
S1135FD010BA0698E41100BA0040347100C0A81E3B
S1135FE000A00411086101D9127104D9E272811070
S1135FF0086001D8DA711DB8647800C11CC101A819
S113600006984C0401B81160002A047600BA069878
S11360106E1000C5881F00A05415212D0698C006D7
S113602000C58C1F00A000F800BC811108D91672AD
S113603080D9207201B910BA0698E41100400E719B
S113604001BC10700698BE0F06982A1220B804A846
S113605000F806986E1081110231127100B900C265
S1136060144000441812244A02B918120698BE0FAC
S113607000C5901F00A05415069834180298C8074C
S11360800411012114711CBA737A0420041228111A
S1136090042004110121F47200A00698900401F870
S11360A0911010D8287100C51CC101A8541106987C
S11360B0C20C00C5C81E00A054155129EA7507B8C2
S11360C075781DB8447801B804A800F8B1101860B8
S11360D010D82E7100C05040004400C3084000A8EE
S11360E03114984C44113411086101D9FA714412E5
S11360F02810086228100862281008622810E87026
S113610002987A0206985C02113804721E6202BB7D
S113611000C1D81E00A0141120390C72911210DA9B
S11361200672417B00A006981E1200C2A81E00A0A1
S1136130241220DA0472617B1CBA527A00A01CBAC1
S1136140727A811204DAFC7200A01CB86B7800C069
S1136150684000A82F7800A010631EB9637900B9C5
S113616002EC00CD114502EC00CC01DB087100BB50
S11361700298161603B841110731FA211C7606213C
S1136180911210DA087102DD10721E7020B80698A0
S11361906E0C3038147208B806981C0400C02C40E9
S11361A000A82978207800F8056020D806710298A4
S11361B0AC1302EC00CA05B823DA187104DBDA71F7
S11361C020DAD67110DAD2721EB8617800B801DA1A
S11361D0067202EC00C8911110D9267100C1BC1ED0
S11361E000A014111150FF300C720761A11011505E
S11361F002300A7180DB0A720AB89E701DB97C797C
S11362001860911111402111C031114001191EB8BB
S1136210411108D90471667820D904726578A110F7
S113622002D80672C0DA1E711EB8273123DD087247
S113623010DB1072607825DD0A7121DD087208DB3D
S11362400471627803B8411107310872A115203531
S1136250AA7102DD2072A11120D9A07102D916728F
S1136260CCDA9872411140D9927206B8054D5A722F
S113627002984E1221114049C0D94C71A0314115E8
S11362804035026551410461086308DA1E7204DA7C
S113629036721049A1150235067110DB0E720134F5
S11362A00A7108DB22711EB86778CC3211101A30DB
S11362B00ADC0872CCDE0471FD3100C00D0F0C0D38
S11362C0216001D85C7207B80298781200BA4111B3
S11362D008D90C7102EC00CA05B830DAEC72073444
S11362E0F031036101DA0471014900C0F300A3E352
S11362F0216001D8D27100C09814406821604030F8
S1136300014440DA0471204C04320262204A111024
S113631006301F60014218311D6111420298961225
S1136320204A00C00517085021601130014220881E
S11363300DDA527100C1DE1B250180BC04DA107233
S113634008DA0A7200C120841000E024A024FFBBF4
S113635008634143026401DA06711E49024B00C01E
S1136360201F00A008633810BC2002DA127101B9A2
S11363701159A11380DB087100C100FCFF01181042
S11363800298A21500C4A81E00A0441080D87E71F3
S113639000920462DDDA0871A11180D992721EBDE7
S11363A0437DEFBD0698DE02DDDA8472A11105D9C2
S11363B05C7100C24040004424121024281401D906
S11363C0067202D9327140D91E7102EC00CA211042
S11363D018320471FA2220D804720822FE220875A9
S11363E002EC00C8F87001D90E7102EC00C802D9A1
S11363F0067204DC187200C0A81E00A004101D6000
S113640001D806711EB8647807B873780298161616
S1136410641000C6981F00A0C3B80698460200C4C2
S1136420401F00A014BA281400B8011A00C084C484
S11364300340017891101030011905BA0698EE1145
S113644002D9067101B804A800C0A81E00A0041354
S113645080DB0671029838121DBA7C7A01DB5E710A
S113646000C2241F00A024111114FF3402EC00C840
S1136470FF24FA76086106987E0C046111380F3007
S1136480046111140111411006987E0C01D80872A0
S113649003B8029878120C4A02DB167124101128F2
S11364A011280698920C00C2204000A8FF20081270
S11364B04110086006987E0C01D87C7120BC103312
S11364C0767100BB00C1201F00A01415C021112C3F
S11364D0511218620F320E71408851140698321608
S11364E041430094511208651C620F320E71411130
S11364F05114069832161C6441430865513B00C18F
S1136500DC1E00A01411111231100F30127100BAE8
S1136510056101D80471114201600FD8F472311081
S113652003601E30047201B8003A087204B802987D
S113653078120298641400C0204201A80411086172
S113654030D906721DBA637A0698660F0698DC0283
S113655000F830885088FF34087102ECFF24F8708A
S113656002EC00CD1410595001440421FF22F272B0
S11365700F4C0095009300A000C1AC1E00A01411A4
S113658000A0308806986C188111086102D906723F
S113659002984A171CBB557B086120D906710298E2
S11365A03A170088A1101860069858160821141587
S11365B0FC251EBB5C7B5D7B00C1084001A8141157
S11365C00731FE21307608D82A725113FC23341384
S11365D004DB20711863FF33315B00C110C000A8D5
S11365E01411086180490C71FF31302960751EBB9C
S11365F07B7B1C707B7B7C7B00DD04717D7B01BB22
S11366003815811318634033067107BB717BEC2581
S1136610541300DF5471042505DF547154152111FE
S113662020880698C20C009251293E7500C108408A
S113663001A8141102DB0C710731315B31292A7670
S11366400C7004DF0872016180D91E720698581616
S113665000C010C000A80698B01806985816141167
S1136660FFD96072029890170090009300A054150F
S1136670A111186110D9A672082508D8A07108259F
S113668010D89A71208821110698C20CFC25541246
S1136690112AF82554110C2520D80871F02554111D
S11366A01025202904762159181500920298FC1609
S11366B007B97179811010D80A711CB8447802B8EE
S11366C041781CB9747904B9677900F88110A0D8AD
S11366D008711CB9497900A0086002D8FA710698BB
S11366E05816108806981E12106210DA08710821D4
S11366F01415F025541100C20020FEFF2029127544
S11367000698BC1801D90A720698AE070698700656
S113671000941CBB41100C20069860114111082103
S11367201410069860113128441111120861FF31C8
S1136730FF320122105210721861181404244413F9
S1136740042438140C701861214118140824081406
S1136750029818124044147100C1B01E00A0141510
S113676051131C630FDB0C72196506989A044115CA
S113677000A00698700606981E1208BB51140698CD
S1136780F4174415FC2554150298C6041CB900C31B
S1136790A81E00A03413086308DB1A718113A0DB60
S11367A00671497910706979086302DB087204B9CB
S11367B0677900F800A08111086102D910711CB931
S11367C07579069858161411FF3100A0FFB900A07E
S11367D0041008211411F421081100A08111106182
S11367E010310E710698581608211411F82114114D
S11367F000A000003506000038B5DFF8684103202A
S11368002061032161610FF26410A061DFF8581167
S1136810E1614FF4806222620023A3620025656275
S1136820E362206601F580606066A266002121674C
S11368300020E06661672CA00168E31D072219604F
S11368400FF23411204600F09BF82023A37131BDD0
S113685070682246A9EB0409C119404600F090B8BB
S11368602DE9F84300F02AF808B9FFF7C5FF18200E
S11368704443281900F160063769F5680024BD42D5
S11368800CD2B468E41B4C4588BF4C46FFF7E0FFCC
S1136890B168E719A0448F4208BF0027ED1B4D459E
S11368A088BF4D462DB170682A462C19FFF7D4FFD6
S11368B0EF1904B137612046BDE8F2830446DFF8DE
S11368C0A450287888469146704710B500F005F822
S11368D0FFF7C6FF84F3118810BDEFF31184202362
S11368E083F3118870470000525454002DE9F0419D
S11368F000F030F808B9FFF77FFF00F023F807F144
S1136900640C03FB01FE5CF80E0018B17869491CA5
S11369108142F6DBD7F814C061450BDA4B43F81813
S1136920046645668666002303670024C466C0F8CF
S1136930748001E04FF0FF31FFE782F311880846CD
S1136940BDE8F081EFF31182202080F3118800214B
S1136950182370470446034F38780D461646984668
S1136960704749E7001C0020B82500205465726D6B
S1136970696E616C000000005345474745520000B2
S11369804AB1000011F8013B521E00F8013B1CBF44
S113699011F8013BF8E770470146002000F041B8C8
S11369A010B5044600F060F807490C6000F060F888
S11369B0002010BD10B500F057F803490C6800F032
S11369C057F8204610BD0000D864002038B50C46A6
S11369D0154608B9FFF7EEFF00281CBF4368002BDB
S11369E006D000682A46214601B0BDE83040184769
S11369F0232032BDF8B50D4616461C466F4608B92D
S1136A00FFF7D8FF04B1274600281CBF8468002C78
S1136A1005D000683B4632462946A047F2BD2320F4
S1136A20F2BD02B501226946FFF7D0FF02BD002383
S1136A300122DFE70CB470B50C46002504AE08B99A
S1136A40FFF7B8FF0146334622460FF2150000F067
S1136A5078FE0128B8BF3725284670BC5DF80CFBCA
S1136A600A4601461046DCE7EFF3108072B6704721
S1136A7000B962B67047FEE77047010018BFFFF720
S1136A808BBF70470A46010002D051681268104754
S1136A90704730380A288041C00F704710B501464E
S1136AA000200A2405E0531C0B601278303A04FBE2
S1136AB000200A681378303B0A2BF4D310BD2DE96B
S1136AC0F84F15460B9C0C9E0D9F81468A469846AE
S1136AD0009517F0030F10D1A346B3450DD200F073
S1136AE01BF86D1C0BF1010BF7E70A98641E434673
S1136AF0005D2A465146C8476D1C002CF5D1B807E5
S1136B0007D5009C02E000F007F86D1C281BB0427A
S1136B10F9D32846BDE8F28F43462A465146202041
S1136B2048472DE9F84384B0129F81469046DDF82A
S1136B3030C00D980E9EDDF840E0119ABC071CD4BD
S1136B4062B1FC070AD5002E08BF17F00C0F05D060
S1136B50521E03E030240CF80040401C704538BF3E
S1136B602028F7D3FC0708D5302502E00CF80050A4
S1136B70401C904238BF2028F8D3FC0627D50F9C30
S1136B807D050AD448B1704518BF904205D1401E16
S1136B9003D0102C08BF401E01D0102C09D1451C75
S1136BA0BC061CD420280CD278240CF800402846BB
S1136BB007E0022C05D1202803D262240CF80040FF
S1136BC0401C202803D230240CF80040401C20280C
S1136BD013D2451C3EB12D260CF800600CE0202891
S1136BE0EFD25824E1E77E0748BF2B2402D43E07A6
S1136BF003D520240CF80040284602920190039704
S1136C00CDF800C042464846FFF759FF05B0BDE83D
S1136C10F0832DE9F8418FB0804616981B9E00271B
S1136C2008B926F01006189D740500D5C8B1B0FB4C
S1136C30F5FCBE460EF1010705FB1C00C4B20A2C8C
S1136C40B8BF303005DBB4064CBF412461240019C1
S1136C500A3807AC04F80E005FEA0C0001D0202FBC
S1136C60E5D31A98069603950590199E9DF85C50F5
S1136C7007A800900496029501974046FFF751FF3C
S1136C8010B0BDE8F0812DE9F34F8FB0DDE91A456E
S1136C90002791469846229E002D04BF002C26F022
S1136CA01006DDE91EAB700503D5002D08BF002CCE
S1136CB019D000F02EF83846471CD1B20A29B8BFC3
S1136CC0303205DBB1064CBF4121612152180A3A2A
S1136CD007A90A5400F01DF804460D0008BF002C53
S1136CE001D0202FE5D310990F980696219C209D62
S1136CF0CDF80CA005949DF8704004954346029489
S1136D00019707AC4A460094FFF70BFF11B0BDE8AA
S1136D10F08F2046294652465B4600F063BD2DE9BC
S1136D20F34F81B093462DED068B9A46B0EE408A20
S1136D30F0EE608A8CB0002653EC182B51EC180B43
S1136D401F9C209D009600F0D1FD06D0039502946F
S1136D5003248BA50194009517E000F09BFA06D25A
S1136D6004200395029401900FF668210CE000F0D2
S1136D7088FA11D8680759BF032082A104200FF6AE
S1136D805C21039502940190009114991398534641
S1136D905A46FFF794FEEDE00122DFF8C4391E9F46
S1136DA000F0B4FD05D90022DFF8B83900F0C8FDC1
S1136DB009D21499139802950194009753465A46A0
S1136DC000F0E8F8D6E00023914600F0B9FD05D2C2
S1136DD081F000414FF0010941EC180B04AE680545
S1136DE002D406211E910AE0002130200A2F04D388
S1136DF07054491C7F1E2029F8D31E97009151EC32
S1136E00180B00F0B7FD1E9ADFF85C19074601EB7A
S1136E10C20191ED009B00F0C9FD00F0B5F853EC00
S1136E20192B00F0D5FD41EC1A0B00F0A7FE8046AB
S1136E3000F0B6FE02460B4651EC1A0B00F07CFF44
S1136E4041EC1A0B08F10100019051EC1A0B0122DC
S1136E50DFF8183900F05AFD0DD8DDF804804046FB
S1136E6000F09EFE53EC192B00F050FD0FD84FF0AC
S1136E7000087F1C0BE0002200F062FD07D3B8F18C
S1136E80000F02D05FEAC87001D5DDF804801E98B7
S1136E9090B9384600F08AFD00F076F80022DFF859
S1136EA0CC3800F04DFD03D2012200F02FFD23D891
S1136EB0F80721D57F1C1FE00246009940464FF099
S1136EC00A0C20290AD20A23B0FBF3F3521E0CFB4E
S1136ED0130030307054491C1800F2D1202919D203
S1136EE01046421E4B1C00281EBF30207054194609
S1136EF0F4D12E227254009300990A22202909D237
S1136F000A2097FBF0F002FB107730377754491CC6
S1136F100700F3D105F0030001280FD154B1B9F1F2
S1136F20000F08BF15F00C0F04D0641E02E03020DF
S1136F307054491CA14238BF2029F8D320290ED20D
S1136F40481CB9F1000F18BF2D2206D16B0748BFAA
S1136F502B2202D42B0702D520227254014604A806
S1136F6001910090149913980395029453465A463C
S1136F70FFF7A5FD0CB0BDEC068BBDE8FE8F00004D
S1136F806E616E00666E690002460B4651EC180B8A
S1136F9000F0D2BE2DE9FB4F82462DED048B9346C3
S1136FA02DED020B88B0DDE90823DDE908011A9E06
S1136FB01C9F00F09BFC05D100F063F902D900F09E
S1136FC069F907D21B98109B0F990190029700F062
S1136FD05DF94BE10022002300F0B2FC3DBF4FF00D
S1136FE0010881F00041CDE908019046780558BFB9
S1136FF00626DDE90823DFF878174FF0FF30194043
S1137000DFF8705710405A000D43520DCDE90405C6
S1137010A2F2FF32104600F0C9FCDFF85C27DFF86B
S11370205C3700F0D5FCDFF85827DFF8583700F05C
S1137030C5FDDDE9042304460D460020DFF84817AA
S113704000F0BCFDDFF84427DFF8443700F0C0FC53
S113705022462B4600F0B2FD00F08CFC054600F001
S1137060A5FCDFF83027DFF8303700F0B1FC002250
S1137070DFF8F83600F0A2FD00F07CFC0446284658
S113708000F094FCDFF81427DFF8143700F0A0FCBC
S1137090CDE90001204600F089FCDFF80827DFF87D
S11370A0083700F095FCDDE9002300F087FD41EC92
S11370B0180B53EC182B00F08BFC41EC190B04F269
S11370C0FF3001050020CDE9040153EC182B4FF0EB
S11370D0804100F07DFCCDE9020100204FF08041A9
S11370E053EC182B00F028FECDE9000151EC190BEC
S11370F00022DFF8B83600F091FE0022DFF8B03647
S113710000F05CFD00F0B7F80022DFF8A83600F0CC
S113711055FD00F0B0F8DDE9002300F04FFD024614
S11371200B46DDE9020100F079FE0022DFF8443667
S113713000F044FDDDE9042300F04AFCCDE904013C
S1137140DDE90801DDE9042300F0FAFB09D2DDE9F9
S113715004010022DFF8583600F060FE6D1ECDE910
S1137160040105F16300C72834BF042405243A054B
S11371701CD5DDE90801DFF84026DFF8403600F0D1
S1137180C5FB0FD80022DFF8383600F0D9FB09D24E
S1137190B542BABF761B761E002647F480670024EA
S11371A0002503E016B1780548BF761E1B9884427B
S11371B034BFA0EB04094FF00009B80702D50CB1A5
S11371C04FF000093DB1DDE90801DDE9042300F0D9
S11371D025FECDE90801CDF818B0B8F1000F1DBFA8
S11371E0DDE9080181F0004141EC100B9DED080B35
S11371F027F40060109B0F990290CDF8049000F0E2
S113720045F806468CB306F10108B8064CBF452084
S11372106520109B0F993246D047002D46BF0120B0
S11372206D42002005210A23059102930022109B40
S11372300F99641E039201900494009542465046AF
S1137240FFF7E7FC0646B8070FD50F9C109D1B9F60
S1137250DDF8188005E02B46324621462020D04731
S1137260761CA6EB0800B842F5D330460AB0BDEC54
S1137270048BBDE8FE8F02460B4651EC190B00F05F
S1137280CDBD0022DFF83C3500F040BB00965A46E5
S1137290504644E54FF0FF326FF4801300F050BBCA
S11372A02DE9FF4F89B0DDF858804FF0000BC1B9CC
S11372B0DFF81415099114E000F012FA0BF1010B38
S11372C000F013FAF8D309940A95CDF82C9005E050
S11372D00B9B0A99099C5A46BB46A0470C98411C33
S11372E00C910C980078002800F0E6810BF101075E
S11372F02528EDD10C98002501E045F01005411C2E
S11373000C910C9845F002040178202910D023290F
S1137310F3D02B2909D02D2905D0302908BF45F0F9
S11373200105ECD007E02546E9E745F00405E6E76A
S113733045F00805E3E708460026FFF7AAFB20B15D
S11373400CA8FFF7ABFB06460BE00C9801782A2942
S113735007D158F8046B002E44BF25467642411CE1
S11373600C910C98002401782E2918D1411C0C9101
S1137370087845F48065FFF78CFB20B10CA8FFF773
S11373808DFB04460BE00C9801782A2907D158F8A4
S1137390040B0028C8BF04460C98411C0C910C999E
S11373A045F480700A78682A12D06A2A0CD06C2AB4
S11373B004D0742A18BF7A2A16D018E0491C0C91FC
S11373C0097805466C2912D10C9845F4007509E03A
S11373D0491C0C910846017845F08005682906D1BE
S11373E045F04005411C01E00546491C0C9108F19B
S11373F0070020F0070C0C9845F02002007825289F
S11374003FF466AF452812D046280DD047280ED049
S1137410582818BF62281BD0632800F0BD80642858
S113742016D0652803D0662800F09C80672800F0F9
S1137430A180692818BF6F280AD0702800F02E8117
S1137440732800F0D980752818BF78287FF440AFDE
S1137450782808BF102113D0582802D110211546CE
S11374600EE06F2808BF08210AD0622808BF022155
S113747006D00A2125F01005692818BF642801D018
S113748025F00C056A0544BF6D086D0000276928C6
S113749018BF642847D1A80520D5DCE900230CF1E6
S11374A00808002B12D54FF0010C524263EB430342
S11374B000F010F9CDF808C0CDE900230B9B0A9920
S11374C009985A46FFF7DFFB834607E70120BC46CD
S11374D0BB42EADBECDC8242E7D3E9E7EA0513D5F9
S11374E058F8040B002848BF012201D43A4600D5BD
S11374F0404205950496029100F001F9019203942B
S11375005A46FFF786FBDFE7680603D558F8040BF5
S1137510C0B204E0280658F8040B48BF00B20028A3
S113752048BF0122E1E7A80507D500F0D3F8029788
S11375300CF10808DCE90023BEE7E80504D558F897
S1137540040B00F0D7F8DBE7680603D558F8040B02
S1137550C0B204E0280658F8040B48BF80B200F01B
S1137560C9F8CDE7462808BF154600F0CDF8FFF767
S1137570D6FBA9E745F40061672808BF0D4606D08D
S113758047280CBF0D46452801D145F0200500F0E1
S1137590BBF8FFF7FFFC97E74FF0010AA80712D4E6
S11375A0099C0A9FDDF82C9006E04B465A46394662
S11375B02020A0470BF1010B00F097F8F5D30994B4
S11375C00A97CDF82C9058F8040B0B9B0A99099C48
S11375D05A46C0B2A0470BF1010BA80756D5099C27
S11375E00A9DDDF82C9000F080F8BFF46CAE00F03A
S11375F077F80BF1010BF6E758F8040B002C019017
S113760014BF21464FF0FF31024600E0521C1078AF
S113761000281EBF0846411E0028F7D10198121AFF
S11376200092690504D50098A04288BF20460090C6
S1137630A807DDF82490DDF828A00B9F17D4009844
S1137640411C0091B04212D23B465A46514620207A
S1137650C8470BF1010BF2E701983B465A46401C20
S11376600190401E007851460BF1010BC847019967
S1137670087828B16805EFD52046441E0028EBD1D0
S1137680CDF82490CDF828A00B97AA077FF526AE55
S1137690099C0A9DB946DDF800A011E608210023E3
S11376A0102258F8040B0491019300F028F845F0D7
S11376B021050292059522E70B98834534BF5A466B
S11376C0421E0A99099C03460020A04758460DB063
S11376D0BDE8F08F089507960694CDE90417704726
S11376E04B465A46294620202047504600F1010ABD
S11376F0B042704705950496039402910197009057
S11377000B9B0A9909987047029501960B9B0A995D
S1137710099800940CF108089CED000B5A46704738
S11377200EB4C0B5034603A8009000F005F8FFF7B7
S1137730B7FD06BC5DF810FB4FF0FF3201A92348EA
S11377407047E0B5009301900291134600F003F8EE
S1137750FFF7A6FD0EBD4FF0FF3201A91C4870478C
S113776065CDCD4165CDCDC1384100000000E03F7D
S1137770FFFF0F000000F03FFB799F501344D33FFD
S1137780B3C8608B288AC63F0000F8BF61436F63AB
S1137790A787D23F71A379094F930A401655B5BB09
S11377A0B16B0240EF39FAFE422EE6BF00002C40D6
S11377B000002440000018402D431CEBE2361A3F21
S11377C080842E410000F07F796A00007B6A00000B
S11377D0856A0000666E692D00000000666E692BE4
S11377E000000000D3BBD9B1B2F5803F5BD2022ABE
S11377F01ED98C46B1FBF2F102FB11C31B0443EA10
S11378001043B3FBF2FC02FB1C3380B240EA034397
S1137810B3FBF2F002FB103240EA0C400023704745
S1137820022A05D98446B0FBF2F002FB10C270476D
S11378304AB105D100F0010249085FEA30007047FF
S113784000220023704700F00DBC0B000200002151
S113785000207047F7D3002200237047904271EB59
S1137860030CF2D370B5B1FA81F4B3FA83F52C1B8F
S1137870A340C4F1200532FA05F63343A2405FF079
S11378800046E64002E05B085FEA3202841A71EBCC
S1137890030524BF204629467641F4D302000B0099
S11378A03000002170BD70B5B1FA81F4B2FA82F5EE
S11378B0C4F120046419B4F12006DAD3B2405FF0B5
S11378C00044F440002502E052085FEA3303C61A7C
S11378D071EB020E24BF3046714664416D41F3D30F
S11378E002000B002000290070BDFEE7904205D184
S11378F0994204D041EA030C50EA4C0C70474FF40F
S1137900001C1CEB410F38BF8942704741EA030C4D
S113791050EA4C0C52EA0C0C4FF4001C09D307D06B
S11379201CEB410F9CBF1CEB430F994208BF9042D4
S113793070471CEB410FFBD88B4208BF8242704753
S113794041EA030C50EA4C0C52EA0C0C4FF4001CB4
S113795009D307D01CEB410F9CBF1CEB430F8B4298
S113796008BF824270471CEB430FFBD8994208BF03
S113797090427047C1F30A5340F21E42D31A0CDD01
S1137980CA0283F3070342EA505242F00042DA404B
S113799002EBE17282EAE17070476FEAE17203F28E
S11379A0E13008B182F000407047FEE710F000417A
S11379B060B148BF4042B0FA80F29040D21CC2F598
S11379C0846241EA025202EBD02140057047FEE78F
S11379D030B540F2FF7C1CEA11541DBF1CEA13555C
S11379E0644565453FE0641981EA030C6FF35F5316
S11379F00CF0004C43F48013C90241F0004141EA09
S1137A00505EC5021100A5FB020200284FF00000E1
S1137A10EEFB01204FF00001E3FB052118BF42F00B
S1137A200102401800214941E3FB0E01A4F58064E2
S1137A300D0302D292184041494154F1010470DD12
S1137A40450872F1004250F1000051EB0451A1F5D8
S1137A50801102D441EA0C0130BD40F2FF7E4CEAB1
S1137A600E51002030BD0CEA1355644518BF65451E
S1137A7081EA030C0CF0004C41D050EA410E1CBFCB
S1137A8052EA430E02E06146002030BD24422C44F9
S1137A901BD15FEA050EF6D0090302BF01460020A0
S1137AA0AEF1140EB1FA81F5AEEB050401FA05FE50
S1137AB00C35C5F1200100FA05F5C8404EEA000E68
S1137AC06FF35F5343F480139CE733F00043B3FA3E
S1137AD083F504BFB2FA82FE75440B3D641BB5F115
S1137AE0200E2FBF02FA0EF3AB40C5F1200E22FA8E
S1137AF00EFE38BF43EA0E03AA40641C7CE750EA3A
S1137B00410E14BF52EA430E6FF000014FF400150A
S1137B1015EB430F8EBF194615EB410F9DE7B4D803
S1137B2030BDD4F10104B4F120050FDAC4F120050D
S1137B30520828BF42F0010210FA05FE01FA05F5C9
S1137B407244E2BFE0402843E1400FE0352C9ADC68
S1137B50C5F1200452EA400220FA05F218BF42F0AF
S1137B60010231FA05F0A1400A43002172F10042FA
S1137B7050F1000051EB0C0130BDFEE7400D40F226
S1137B801E4C40EAC120BCEB115C40F0004003D421
S1137B908CF30701C84070476FEAE1707047FEE755
S1137BA050B1B0FA80F18840C91CC1F5846109055F
S1137BB001EBD021400570470146704770B491EA4B
S1137BC0030F4FF0004540F1BF806B40841A71EB06
S1137BD0030604D26E40001BB141121973414FF4E5
S1137BE0001C1CEB410F34BF7CEB430683E00C0DFF
S1137BF0A4EB1356362E00F37C80012E45EAC323F2
S1137C0041DC43EA525312BFD20292025B082405BC
S1137C1045EAC12141EA5051D2EBC020994125D413
S1137C2007D1B0FA80F610FA06F162D000202036AF
S1137C3008E0B1FA81F6B140C6F1200220FA02F25E
S1137C401143B0404FEAF474B4EB465434F00106E7
S1137C504FEA74040AD8D6F50016760D04F00044F1
S1137C60F04061FA06F25040F1404840C00A40EA50
S1137C70415021F0004128BF5FEA500550F1000057
S1137C8044EBD12135E0DB0A45EAC121C90AB6F14A
S1137C9020050EDD42EA0242120CC5F1200603FA69
S1137CA006F6EB4042EA06056D42984161F1000197
S1137CB00DE062FA06F5F240554063FA06FC82EAEA
S1137CC00C02F3405A406D42904161EB030111F400
S1137CD0801F05D1641E620502D06D0040414941F8
S1137CE021F48011430875F1004350F1000041EB89
S1137CF0045170BC70471CEB410F15D223F00043B4
S1137D0052EA43060BD04FEA4C0CBCEB410F04D8AB
S1137D100C0D661E342EB7DDEBE7801A994150EA4C
S1137D20410608BF0021E4E708BF1CEB430F28BF4E
S1137D306FF00001DDE7000070B491EA030F4FF02B
S1137D4000457FF543AF6B40841A71EB030603D201
S1137D50001BB141121973414FF4001C1CEB410F7D
S1137D6034BF7CEB430442E00C0DA4EB1356352ED8
S1137D704FDC45EAC323DB0A45EAC121C912B6F147
S1137D8020050DDD63FA05F6EB4086EA0305124291
S1137D9018BF45F00105C01851F100010CD213E0E1
S1137DA062FA06F5F2405540F3415A40B340F340BD
S1137DB05A408018594107D349085FEA30005FEA06
S1137DC0350528BF45F0010501F58011420875F11C
S1137DD0004250F1000041EB04514E0016F5001F23
S1137DE070BC38BF70470020090D090570471CEBB3
S1137DF0410F10D252EA43060BD0BCEB410F05D819
S1137E000C0DAB43661E342EB6DD02E0AB43801886
S1137E10594170BC704770BC7047FEE7F0B540F242
S1137E20FF7581EA030C0CF0004C15EA11541DBFD8
S1137E3015EA1357AC42AF42E5E0BC41C1F313016C
S1137E40C3F31303801A994143F4801304D2641ECC
S1137E500018494180185941C90241EA5051B1FB07
S1137E60F3F603FB1611A2FB0675D7EBC020A9415C
S1137E7002D2761E80185941C90241EA5051B1FB21
S1137E80F3FE03FB1E11A2FB0E75D7EBC020A94124
S1137E9003D2AEF1010E80185941890241EA905192
S1137EA0760546EA8E2EB1FBF3F603FB1611A2FB10
S1137EB00675D7EB8020A94102D2761E801859415D
S1137EC0C90241EA50514EEA060EB1FBF3F603FB38
S1137ED01611A2FB0675D7EBC020A94102D2761E6B
S1137EE080185941C90241EA5051B1FBF3F703FB31
S1137EF01711A2FB0735D3EBC020A94167F1000796
S1137F000CBF004247F0010766F3D5274FEA1E3144
S1137F10B80814F5806412DDBD0775F1004250EB1A
S1137F200E5051EB045111F5801F5CBF41EA0C0166
S1137F30F0BD4CF07F6141F0E0410020F0BDBD0791
S1137F406D0840EA0E5041F48011D4F10104B4F1FB
S1137F5020060ADAC4F120060200E04001FA06F322
S1137F60E1401843B24015430EE0342C13DCC6F153
S1137F70200445EA40056D0820FA06F2154321FA6B
S1137F8006F0A1400D43002175F1004250F10000BC
S1137F9051EB0C01F0BD00205FEA0C01F0BDCFB93C
S1137FA092185B41B3FA83F704BFB2FA82F6BF19A1
S1137FB00B3FB7F120062FBF02FA06F3BB40C7F10F
S1137FC0200622FA06F638BF3343BA401CB1E4193E
S1137FD0641E33E77F4231F00041B1FA81F404BFFB
S1137FE0B0FA80F6A4190B3CB4F120062FBF00FAB6
S1137FF006F1A140C4F1200620FA06F638BF314349
S1138000A0403C1B1AE7AC421ABF05EA1357AF4223
S113801012E050EA41061CBF52EA4306BFE750EAA9
S11380204107304661461CBF41EA0551F0BD52EAA2
S1138030430C08BFC143F0BD00204FF4001616EBFB
S1138040410F98BF16EB430F08BF16EB410F24BF37
S1138050C14305E016EB430F0CBF61464CEA0551E2
S1138060F0BDFEE77047FEE7008870474088704720
S1138070F8B505460F461646FFF7F6FF00F4E04054
S1138080B0F5005F38D12846FFF7EEFF000A01245F
S113809000F007008440102C2ED187F0AA6000F075
S11380A041F81EBF87F0AA6080F4007030F47E109F
S11380B02ED1C7F3054427F47E17DFF8D402874294
S11380C004BF2988B1F5105F29D12846FFF7CEFFF8
S11380D080281CBFC028B0F5807F0AD1002C18BFAF
S11380E0022C06D0102C04D8E00702D4F61F072E69
S11380F013D36FF08600F2BD298842F20402914244
S113810002BF87F0A26080F4A06030F47E10D0D06B
S11381102846FFF7ABFF0024CDE70020F2BD6FF047
S11381208500F2BD80F4807030F47E1070472DE934
S1138130F34F97B093466FF0860800291CBF009058
S113814000281FD02298E8B1249808B92598C8B906
S1138150269D279CDDF8A4A00DB99CB906E02CB19E
S11381602898002818BFBAF1000F0BD02A9F002FBF
S11381701CBF2D9E002E05D02C9800281CBF2B98C8
S1138180002801D1404677E000989946008800F421
S1138190E041B1F5005F25D100F071F822D189F0FA
S11381A0AA60FFF7BFFF1EBF89F0AA6080F40070C9
S11381B030F47E1021D1C9F305403060259B239A09
S11381C000984946FFF754FF002855D100F0DBF82A
S11381D007A800F0D9F80FA800F014F978B16FF0EF
S11381E0920049E042F20401884202BF89F0A26091
S11381F080F4A06030F47E10DDD00020DDE7189913
S113820000985A4607AB00F03CF9002834D1A24547
S113821023BF2C98316888426FF089002CD32898AA
S113822085423CBF2919884204D22246294600F0DF
S11382306FF9289D00F0A0F81BD130682B990690A7
S11382402898059125990490249802912399229BBA
S1138250019000910395224607A90FA800F0BAF9EE
S1138260212808BF404604D008B93C6004E06FF000
S1138270920000213960316019B0BDE8F08F020A24
S1138280012102F007029140102970472DE9F04FB7
S113829097B05FEA000B90465CD0009108001CBFC9
S11382A02098002856D02298239F08B9002F51D136
S11382B0249C259D0CB9002D4CD1289EDDF8A4A04A
S11382C016B9BAF1000F45D12A9800281CBF269888
S11382D000283FD0219A99463B4649465846FFF725
S11382E0C7FE002842D100F04EF807A800F04CF871
S11382F00FA800F087F800283BD10099424607AB4D
S1138300584600F0BEF888BBAA4538BF6FF0890014
S11383102CD3304684423CBF6119884204D22A4699
S1138320214600F0F5F8344600F026F81ED12798CF
S11383302699049606900591039402972298219910
S1138340209B019000912A4607A90FA800F018FA73
S1138350212802D16FF0860008E02C2808BF6FF0B6
S1138360940003D028B92A980560002017B0BDE80E
S1138370F08F6FF09200F9E729F47E1204496FF050
S113838088008A4270470FA8202100F01FBB00001C
S1138390000140050020704780B518B300F038FB99
S11383A017480168C902FCD5006910F4702026D072
S11383B022D0B0F5803F1DD0B0F5003F18D0B0F505
S11383C0403F13D0B0F5802F0ED0B0F5E02F09D088
S11383D0B0F5202F04D0B0F5302F0FD1112002BDFD
S11383E0102002BD212002BD4B2002BD2C2002BD65
S11383F02A2002BD482002BD002002BD012002BD8A
S11384004400004C80B508B9212002BDFFE72021BB
S113841000F0DCFA002002BDF8B50C46418816468F
S1138420C91DC90818BFA1420AD10788456820217F
S1138430304600F0CBFA2D0A05D10020F0602CB9AB
S11384406FF08600F2BD6FF08B00F2BD41F20100C7
S113845087421CBFB7F5885FB7F5905F04D1002051
S1138460746030600020F2BDB7F5105F06D120467D
S1138470102C1CBF182C202CF2D0E1E76FF08500E3
S1138480F2BDF8B588B0044660680F4615461E462E
S1138490000A35D1324629462046FFF7BDFF88BB86
S11384A0E91C89088900F06037617161002E18BFEA
S11384B0002C1ED0EDB100F027F86A46294620466C
S11384C0FFF7AAFF002802BF00983168884210D144
S11384D001987168884202BF0298B168884208D145
S11384E00698B169884201BF0798F1698842002063
S11384F008D02021304600F069FA6FF0860001E0D0
S11385006FF08B0009B0F0BD6846202100F05EBA20
S113851062B181423ABF53189842FEF733BA8018C9
S113852013F8011D521E00F8011DF9D17047FEE732
S11385302DE9F0418CB004000F46984618BF002F77
S113854008D0129D002D1CBF139E002E02D018F0DF
S11385500F0F01D021202FE0002A0CBFDFF84804C0
S1138560DFF84804206000F023FA002824D100F04A
S1138570F0F9414600F0EEF900F011FAE0B909A96A
S113858000F0EEF900F007FAB0B906A900F0E8F936
S11385900AA100F0F5F9039500F0DFF90AA191E8CA
S11385A02C006846694680E82C000096CDF80880C7
S11385B000F0EEF900F0CAF900F0DEB900000000A6
S11385C001000000000000000000000001000000A5
S11385D0000000002DE9F04F95B004003AD001915D
S11385E008001CBFDDF88C90B9F1000F32D0039362
S11385F018002FD0209E1F9D06B15DB30092219FCD
S1138600DDF88880100004D0002F18BFB8F1000FE7
S113861020D0DDF878A05FFA8AF0C0F10F00C1B273
S1138620042902D200F08CF914D2DDF890B0BBF129
S1138630020F0FD0BBF1110F0CD25FEACB7009D43B
S1138640AAF1070107293FBF00984044DFF87013DF
S1138650884201D321206EE0DFF8680300F083F93B
S1138660002868D1029900F075F91FFA8BF141EAEC
S11386700A4100F06FF9314600F06CF900F069F935
S1138680019812A900F0D6FA002854D112A900F0DA
S113869067F901980FA900F0DAFA00284BD10FA965
S11386A000F05EF925A191E80C400CA809A980E826
S11386B00C400C97DDF8007023A246F0005647F0FA
S11386C000570E9792E8094022A24AF0005A81E826
S11386D0094009950B9692E86800DDF80CC006A9DC
S11386E081E86800CDF818C0CDF820A000F038F972
S11386F009A900F035F90CA900F032F918A191E8A4
S11387002C0003A8694680E82C00CDF80C8005975E
S113871016A292E868004BF0005B204681E86800EE
S1138720CDF80090CDF808B003A900F05DF900F091
S113873023F800F00BF915B0BDE8F08F000000003D
S11387400100000000000000000000000100000023
S11387500000000000000000010000000000000014
S11387600000000001000000000000000000000004
S113877001000000000000006946204600F034B902
S11387802DE9F84F96B004003DD0019108001CBFBC
S1138790DDF89490B9F1000F35D00393180032D06E
S11387A0229E219D06B175B30092239FDDF890802F
S11387B0100004D0002F18BFB8F1000F23D0DDF84B
S11387C080B05FFA8BF0C0F10F00C1B2042902D26D
S11387D000F0B6F817D2DDF898A0BAF1020F18BF6E
S11387E0BAF1000F0FD0BAF1110F0CD25FEACA70C0
S11387F009D4ABF1070107293FBF00984044DFF8D3
S1138800C011884201D3212078E0DFF8BC0100F0D8
S1138810AAF8002872D1029900F09CF81FFA8AF194
S113882041EA0B4100F096F8314600F093F800F06D
S113883090F8019813A900F0FDF900285ED113A95E
S113884000F08EF8019810A900F001FA002855D123
S113885010A900F085F800BF2AA191E80C400DA8EA
S11388600AA980E80C400D97DDF8007028A246F0B4
S1138870005647F000570F9792E8094027A24BF0A3
S1138880005B81E809400A950C9692E86800DDF8DF
S11388900CC007A981E86800CDF81CC0CDF824B04D
S11388A000F05EF80AA900F05BF80DA900F058F892
S11388B01DA292E8680004A9204681E86800CDF86A
S11388C01080069700F090F81AA191E82C0001A8F6
S11388D04AF0005A80E82C00CDF80490CDF80CA0A2
S11388E001A900F03DF800F031F8040008BF0020B1
S11388F004D00099404600F0D3F9204617B0BDE8F3
S1138900F08F0000000000000100000000000000E3
S11389100000000001000000000000000000000052
S11389200100000000000000000000000100000041
S11389300000000000000000010000000000000032
S113894011460122C0008240914270472046FFF741
S113895023BD0099204600F051B8CDF8148003A936
S1138960204600F037B8206000216160A160E16119
S1138970019802A900F0C3B80CB0BDE8F081000072
S113898091E88C0003A848F0005880E88C007047F8
S1138990204600F029B806A9384600F058B909A9BC
S11389A0384600F047B9000000010004000101044A
S11389B000206060A060E0616946384600F09FB81E
S11389C0008001200000050400000604002200F0DD
S11389D06FB9FEE7426812B9416070475268506847
S11389E00128FBD151607047826812B981607047D9
S11389F0526850680128FBD151607047C269042A4B
S1138A0005D200EB8202D160C169491CC161704783
S1138A10C169042900D9704710B54FF098410A6C18
S1138A20D302FAD5C269121D92000A6502680A606F
S1138A3042680A608368002203E000EB8204E36872
S1138A40521C0B60C3699A42F7D310BD38B50500B8
S1138A500C4618BF002C2DD000220092694600F06D
S1138A602BF8D8B900992868C91C8908890000F036
S1138A707040009110B9009820600EE0AA68910B34
S1138A80520B01F0010102F00102B0F1004F06D1D6
S1138A90009801EB420141432160002032BDB0F156
S1138AA0204F1CBFB0F1304FB0F1404F02D10098BD
S1138AB05118F0E7212032BD002818BF002919D031
S1138AC0036813F0704208BFC3F30E030DD0B2F174
S1138AD0004F18BFB2F1204F05D0B2F1304F18BF8C
S1138AE0B2F1404F06D103F07F030B600A6822B94C
S1138AF0406808B9212070470860002070477CB5A1
S1138B0005000C4618BF002C14D0002020602868F3
S1138B1000F070402060E96821B103295CD140F085
S1138B2080602060A8680021C20104D5E8684FF085
S1138B308071002879D0226811432160E8680328F5
S1138B4007D12869F82870D3000400F47F0001439A
S1138B502160A868010403D5206840F40040206027
S1138B60E868032805D028682168C0F30E00014393
S1138B702160AA682E68910B500B01F0010100F0EE
S1138B800100920A06F0704602F0010240EA010375
S1138B90B6F1004F0BD319B1216841F48041216033
S1138BA018B1206840F40050206018003DD02868B7
S1138BB000F0704000F10040B0F1804F05D2100089
S1138BC003D0206840F480602060296801F070417F
S1138BD0B1F1004F01D21A4327D10022009200F0D4
S1138BE026F860B9286810F0704009D1206800990F
S1138BF0C00BC1F30E0141EAC0302060002076BDF5
S1138C00B0F1004F18BFB0F1204F05D0B0F1304F94
S1138C1018BFB0F1404F08D100992068491E01F0F7
S1138C207F01C00941EAC010E7E7212076BD69460B
S1138C30284641E7002818BF002901D121207047A8
S1138C40012048604FF000528A600020704738B518
S1138C5004000D4618BF002D1FD001206860E06895
S1138C60B0B90022009269462046FFF7EFFE70B9C2
S1138C70E068002100B900996069884201D21D2092
S1138C8032BD206941F000512860A960002032BD46
S1138C90032802D10020A860F8E7212032BDFEE7B6
S1138CA0002200F01FB8FEE762F30F2262F31F42B6
S1138CB000B500BF130096469446103928BFA0E8BB
S1138CC00C50FAD85FEA417C28BF0CC048BF40F87A
S1138CD0042BC90728BF20F8022B48BF00F8012B3A
S1138CE000BDFEE74018491C1CBFB1F1010100F8AA
S1138CF0012DF9D17047FEE7006810281CBF182821
S1138D00202801D1002070476FF0860070472DE9BC
S1138D10F04F93B05FEA010A1CBF0192002A59D0B8
S1138D201C9D1D9C0DB9002C54D11E9EDDF87C8029
S1138D3016B9B8F1000F4DD1209F002F4AD000F092
S1138D40F7F81CBFDFF8F82193420FD0DFF8F421C5
S1138D5093421CBFDFF8F021934207D0DFF8EC21E7
S1138D6093421CBFDFF8E821934243D1029001886B
S1138D70B1F5105F3ED100F0D7F803A800F0D5F8A4
S1138D800BA8FFF73FFB6FF0920B00283FD100F0D8
S1138D90C5F800283CD103A8FFF7AEFF002837D15F
S1138DA00CB9386034E0304685423CBF291988420A
S1138DB006D2A0450ED322462946FFF7A9FB354625
S1138DC00098DFF88011884214D1A04502D314F032
S1138DD00F0F02D06FF086001AE00196009523462B
S1138DE0002203A90BA8FFF7A3FB050004D13C60F4
S1138DF000200DE048460BE041463046FFF750FFA7
S1138E0000203860012D08BF6FF08B0000D0584659
S1138E1013B0BDE8F08F2DE9F04F93B05FEA010A7B
S1138E201CBF0192002A5AD01C9D1D9C0DB9002C18
S1138E3055D11E9EDDF87C8016B9B8F1000F4ED1D5
S1138E40209F002F4BD000F073F81CBFDFF8F020F8
S1138E5093420FD0DFF8EC2093421CBFDFF8E820E8
S1138E60934207D0DFF8E42093421CBFDFF8E020F0
S1138E70934244D102900188B1F5105F3FD100F0D4
S1138E8053F803A800F051F80BA8FFF7BBFA6FF0F2
S1138E90920B002840D100F041F878BB03A8FFF7FB
S1138EA02BFF58BB0CB9386028E0304685423CBFE4
S1138EB02919884206D2A04511D322462946FFF734
S1138EC027FB35460098DFF87C10884217D1A0456F
S1138ED038BF6FF0890011D314F00F0F02D06FF078
S1138EE086000BE0019600952346012203A90BA8F6
S1138EF0FFF71EFB05003C6003D1002088E74846CD
S1138F00FCE741463046FFF7CBFE00203860012DD8
S1138F1008BF6FF08B00F1D05846EFE7019A029832
S1138F2003AB5146FFF7ADBA0BA82021FFF74EBDA6
S1138F30DFF8202000936FF085099342704700000A
S1138F4000414004004440040010C0040011C00467
S1138F500012C00400404004FEB504000E461D4645
S1138F6001D012B90DB12120FEBD0FF2580191E8D4
S1138F7088406846DFF8481080E88840009245F051
S1138F800052029200F011F800F004F8294600F0B3
S1138F9002F803E031462046FFF730BD00F001F847
S1138FA0FEBD2046FFF7F8B9000021600022626090
S1138FB0A260E26169462046FFF70CBD0000000094
S1138FC00000094300000000010000000000000050
S1138FD0C2690AB9018070470023002200F075B805
S1138FE0014610222E48FDF7CBBC10222C49FDF778
S1138FF0C7BC704778B58FB000F03AF800F017F8A6
S113900000F03EF800F083F800F00DF826A514B146
S1139010B82100F02AF80598102802D0B92100F0F0
S113902024F810B070BD044606A800F043B84FF40D
S1139030105106A8CCE7000078B58FB000F018F8FE
S1139040FFF7F5FF00F01CF800F069F8FFF7EBFFFD
S113905015A514B1CF2100F008F80598102802D006
S1139060D02100F002F810B070BD284600F0E8B836
S113907004460D460026059606A82421FFF7A6BC43
S11390808020ADF81A0005A9102004910390102245
S1139090029401920094034B294606A870470000ED
S11390A0B82D0020004440046165732D6563622E71
S11390B06300000010B50446E06900F0EAF92046B8
S11390C02421BDE81040FFF781BC2DE9F04106469C
S11390D00F4690461D46002465B12946012000F044
S11390E0C7F9040008BF6FF08C000ED02A46414631
S11390F0FDF746FCF06920B100F0CBF90020F061E7
S11391003062F461356237800020BDE8F08130B50B
S113911085B000F00CF8FFF7FAFD05B030BD30B5AE
S113912085B000F004F8FFF776FE05B030BD0C9C66
S11391300B9D04940A9C0395099D0294089C019537
S113914000947047B0B500F0B6F9044600F0AEF9EB
S11391500020002124FA01F2D20704D4491C8BB266
S1139160102BF7D314E00FF2E82089B230F8110085
S11391704CF23C314FF000524FF20F03062817D146
S11391805088984210D11088030A0C2B0CDA0DE099
S113919040F201739A49984204D19A4AD2E90045AF
S11391A0C1E900450881B0BD4FF4C0605180EFE7CC
S11391B040F20724A04201BF57889F421388A3426C
S11391C0E6D151801088E3E78D480189080AC9B2C5
S11391D021B901280BD140F0800070470728FAD844
S11391E0DFE800F005040709090B0D0FF3E7002081
S11391F070470920704702207047032070470B20F6
S1139200704706207047000010B5044600F05CF972
S11392105FF000504FF20F0104804180BFF35F8F75
S1139220BFF34F8F78490A68784802F4E06202433A
S11392300A60BFF34F8F00BFFDE7000042DE7047B6
S113924038B504460D4600F08EF900F03DF92B4682
S11392504FEA040279A10020FDF7ECFB29462046E1
S1139260BDE83440EAE72DE9F043694A17686349E9
S11392704FF420604F65136A8B65664B1C68CC65A0
S11392805B680B66546A4C66936A8B66D46ACC66D8
S1139290136B0B67926B91F834304A675A074CBFD3
S11392A0CD6B8D6B0023DFF870C1CB642A46C1F807
S11392B050C001F18C03DFF86481DFF86491594CEC
S11392C0654524BF05F12006B44217D3AE69C7F340
S11392D00807062F0E64ED694D6416D14E4514D36C
S11392E0464512D237884DF64265AF420DD1086823
S11392F04F68586040F201709F6006E000220A64E3
S11393004A64624601E00CF1040CA44504D2DCF882
S11393100050B5F1CD3FF6D0434DA5EB0C078F645B
S11393200027BC4600F084F87F1CFEB2062EF9D359
S11393300027A2422DD254F804CDCC45F9D3C4451C
S1139340F7D25FEACC75F4D54FF0000E01F1780541
S113935055F82E60664504D00EF1010EBEF1060FDD
S1139360F6D3BEF1060FE4D1FDB2002D0CBF0527E4
S11393707F1E00F05DF8DCE78A6F002401F17805B8
S113938001EB8406F66F45F82460641C042CF7D9BD
S11393901A603A46571ED2B2002AEDD1496DC1F384
S11393A00801032910D0042911D0052912D0062957
S11393B013D00C2917D03B2918D11C490B689A07E4
S11393C019D540F2025016E040F6012013E040F6B1
S11393D0022010E040F603200DE0B0F5206F0AD122
S11393E040F6042007E040F6052004E019B14D29B9
S11393F038BF40F60720BDE8F0830000E883002072
S1139400CC640020788400200CED00E00400FA0510
S113941004ED00E000E300E00000002004960300F7
S1139420F867000000100020001000201880014A96
S113943001F17806FDB246F825C070470D0A5B417C
S113944053534552543A25733A25645D0D0A00007E
S11394500104010303060105010501090600060BC9
S11394600000070B050B00000000000000000000D6
S113947070B504460D46FDF7F7FA06462946204620
S113948001F0D0FBFFE704463046FDF7F1FA204631
S113949070BD38B50446FDF7E7FA0546204601F0ED
S11394A0E3FB2846BDE83240FDF7E2BA4FF4003052
S11394B003490860704703480068704700000000D3
S11394C07050004094400040302080F31188704771
S11394D080B500F004F880B202BD000000BFE0B522
S11394E001F0B7FC6A4601F007FD10B14F2100F00E
S11394F0D7F8DDE9000103B000BD80B5FFF7EFFF49
S1139500FA21B0FBF1F080B202BD012070470420C3
S1139510704780B501F0AAFB10B1762100F0C0F8C5
S1139520002002BD80B5FFF70DFEDFF8F4010168ED
S113953041F470210160EFF30880001FDFF8E411AB
S11395404FF0CD3201E040F804298842FBD20220DA
S1139550DFF8D4110860FFF7DCFFDFF8D001BDE8C5
S1139560024001F047BEDFF8C80101F019BF40F224
S11395700160FFF749BE002818BF01F022BF01F0C7
S113958021BF704770477047032001F045BF012099
S1139590704780B504226946002001F085FF042845
S11395A003D04FF4E67100F07BF8009802F04AF81B
S11395B001BD70B580B1012810D0022811D0032854
S11395C012D0102808D0202808D0212809D0222819
S11395D00AD023280BD020E0032100E0022100223E
S11395E007E00221012204E00221022201E002211B
S11395F0032200234F4C01E05B1CDBB24E4805689C
S1139600AB420AD254F823000028F5D0057A8D42E3
S113961004BF467A9642EFD170BD002070BD10B5EC
S11396200C46FFF7C6FF00281CBF0068002807D0BF
S11396302146FDF7FCF920B11B2801D1262010BDDD
S1139640012010BD10B50C46FFF7B3FF00281CBF66
S11396500068002803D02146FDF7E3F900B101209A
S113966010BD10B5FFF7A5FF040008D0207A02282A
S113967005D1206800281CBF0068002803D140F2EF
S11396809B2100F00DF8206801680A6B906900F4D2
S11396904830B0F5005F01D1012010BD002010BD9D
S11396A027A0FFF7CDBD10B504460221002002F02B
S11396B0FBF822480169490849000161016941F048
S11396C002010161016C4A00FCD4016CCA0313D489
S11396D00168230203F47F4321F47F41016002689F
S11396E0240404F47F041A430260016821F47F0116
S11396F00160026814430460016921F00201016100
S1139700016941F00101016103210020BDE810401D
S113971002F0CAB809480168C1F307207047000085
S113972024ED00E00000002070400040E44600000A
S11397300080014AD81000206447000018C000408F
S1139740626173652D7265706C6163656D656E74BD
S11397502E63000000F5E0700268914203D2806835
S11397600028F9D1704743681A449142F7D27047F0
S11397701749086880B94FF4805048604FF480322C
S11397804FF0FF30C86008610420124B8A604861C2
S1139790C3F8BC01104808600120704701F10803B8
S11397A013F0070F0EBF0023C3F1080303F00703F0
S11397B01944D21A8161C26042F001034B60091D51
S11397C04FF0280C41F802C0014A1369C361704785
S11397D040810020588100206859883C2DE9F84FC9
S11397E084B00646AFF30080F52E1E4D80F0138240
S11397F00B2E31BF10260B36F608F6002868F40845
S1139800E04010F0030F4AD0C04300F001000419F7
S113981005F1280000EBC408E700D8F80860706878
S1139820C008C000B84218BF02F0F8FBD6F8089090
S1139830464508BF02F0F2FB4E4508BF02F0EEFBBE
S11398407068C008C000B84218BF02F0E7FBC84502
S11398500AD12868012101FA04F420EA04042C60E6
S113986010E000BF588100202869814508D3D9F849
S11398700C10B14204D1C8F80890C9F80C8001E07A
S113988002F0CCFB47F00300311D7060301DCA5953
S113989042F00102C25106F1080800F024BFA96891
S11398A0B14280F0AA83002800F0A2804FF00108A2
S11398B008FA04F1490000FA04F4484201430C4058
S11398C060420440641E200B00F01000C440610993
S11398D001F00801CC40A20802F00402D44063085D
S11398E003F002030818DC401018C4F340071818EA
S11398F03818FC40241805F1280000EBC40AE700DE
S1139900DAF80890D9F80400C008C000B84218BFBB
S113991002F084FBD9F808B0D14508BF02F07EFB01
S1139920D94508BF02F07AFBD9F80400C008C0008A
S1139930B84218BF02F072FBDA4506D1286808FA6B
S113994004F420EA04042C600DE029698B4508D353
S1139950DBF80C00484504D1CAF808B0CBF80CA0D9
S113996001E002F05BFBBF1B46F0030009F10402B7
S1139970C9F8040047F00101915109EB0602019274
S1139980D751AC684FEAD40ABAF11F0F88BF02F06E
S113999045FB34B3CDF800A005F128006E6900EB57
S11399A0CA0AD346102C38BF02F038FB2968009845
S11399B021FA00F2D30704D408FA00F0084328601F
S11399C007E0DAF80800296988422CBF834602F0D0
S11399D025FBCAF80860CBF80C60C6F808B0C6F8D6
S11399E00CA0AF6009F108080198686100F07BBE23
S11399F06868002800F0238341420840401E010BA0
S1139A0001F01001C840420902F00802D040830866
S1139A1003F00403D840440804F002045118E04061
S1139A205918C0F34007611805F598787918F8407B
S1139A30401858F820104868C008C0008A46A0EBB7
S1139A40060B08E001464868C008C000801B584562
S1139A503CBF83468A4608690028F3D14969002936
S1139A60F1D128698245C0F0D380DAF80410C9081E
S1139A7006EB0B09C900494518BF02F0CFFA0AEBFF
S1139A8006008245019080F0C380DAF80C40DAF8D1
S1139A90187054450DD0DAF808002969884223D398
S1139AA0C268524504BFA16851451DD1C460A0607D
S1139AB01CE00AF114010C6834B90AF110010C68B5
S1139AC0A4B101E011460C6804F1140210680028E6
S1139AD002BF04F1100210680028F3D12869814202
S1139AE002D300220A6001E002F098FA002F38D075
S1139AF0DAF81C0008EB80010A6892450AD11CBB05
S1139B006A68012303FA00F022EA0000686000207A
S1139B10086026E029698F4213D33869504514BF81
S1139B207C613C61ECB129698C4218D3A761DAF8F5
S1139B30100058B1884226BF2061846102F06EFA99
S1139B4004E002F06BFAEDE70C60ECE7DAF81400DD
S1139B5038B12969884202D36061846101E002F06E
S1139B605DFABBF1100F0ED249F003000AF10401B3
S1139B70CAF804000AF1040051F8092042F0010275
S1139B8040F809203EE046F003010AF10402CAF855
S1139B9004104BF001009051019941F80BB0A868F2
S1139BA00090C4081F2C88BF02F038FA009828B32C
S1139BB005F1280000996F6900EBC408C14610291B
S1139BC038BF02F02BFA286820FA04F1CA0705D43A
S1139BD0012101FA04F404432C6007E0D8F80800DA
S1139BE0296988422CBF814602F018FAC8F8087027
S1139BF0C9F80C70C7F80890C7F80C80C5F808B00D
S1139C00019868611AF1080800F0F78100F06BBD53
S1139C1002F004FAF1E116F1400F28BF4FF0FF36CD
S1139C2080F0EB810B36F6086B68F600002B00F031
S1139C30E4810027C6F10009300A08BF002423D0BC
S1139C40B0F5803F28BF1F241ED2A0F58071090CF7
S1139C5001F008018840A0F58052120C02F00402C1
S1139C609040A0F58044240CC1F10E0104F00204DC
S1139C70891A091BA04001EBD031C81D26FA00F453
S1139C8004F0010404EB410405F5987858F8240025
S1139C9040B31F2C0FBFB4464FEA540CCCF1190C3F
S1139CA006FA0CFCBE46494601E04FEA4C0C4268F9
S1139CB0D208D200921B8A4207D3426910304FEA7D
S1139CC0DC7950F829003AB103E011000746F4D1D9
S1139CD005E0824218BF96460028E6D170468946C0
S1139CE0A8BBB7BB012101FA04F464006042044339
