S01900004E43505F5553575F52455833505F363130332E733337A2
S31500000000C8E100208D1B0300F1650000E91903001B
S31500000010A70A0A010001000004180FAC306A290182
S3150000002000000000000000000000000000000000CA
S3150000003000000000041C0300000000000000000097
S315000000400000000000000000FFFFFFFFFFFFFFFFB2
S31500000050FFFFFFFF00700700000000000000000027
S31500000060FFFFFFFFFFFFFFFF28000000000000006A
S31500000070000000000000000000000000000000007A
S31500000080000000000000000098FD002098FD002000
S31500000090C8E100200B490300D21B030068D80020EA
S311000000A0242D00200000080000000000D5
S31500000100C8E100208D1B0300F1650000E91903001A
S3150000011079DF0000ED190300F1190300000000006B
S315000001200000000000000000000000009F1F00000B
S31500000130F5190300BF1A0000B72100003B2B000091
S3150000014071E0000001570100C11A0000FD1903000B
S31500000150B551010035570100075701000957010045
S31500000160035701000DD7010051D90100C37A0100E0
S31500000170DF770000FD190300FD190300AF02000040
S31500000180BF320000FD1903005FD90100FD1903000D
S31500000190FD190300FD190300FD190300FD190300F5
S315000001A0FD190300FD190300FD190300FD190300E5
S315000001B037570100055701005570010073700200A2
S315000001C071570100FD190300B91A0300FD19030058
S315000001D0FD190300FD190300FD190300FD190300B5
S315000001E0FD190300EF65000057740000FD190300B8
S315000001F0FD190300FD19030000000000205203480A
S31500000200016830BF41F000410160704700BF4C31CA
S315000002100E401048816B89B201B1012141F671325D
S31500000220826346F21A32036843F001030360C26434
S315000002304FF4807343604269D307FCD40022C26442
S31500000240C9B203685B085B00036009B100218163E2
S31500000250002048000208000E4000000038B5374A6A
S3150000026002EB8101FF238A781209072A3ABF314D32
S31500000270AA5CFF2202718A7802F00F02072A03D2D3
S315000002802D4B9B5CFF2B10D100224371CA702C4C66
S31500000290CA7882710B7843704A788270014620468C
S315000002A000F0B4F80122A26031BD0122EDE77FB56E
S315000002B0244991E81C00684680E81C00224A23482D
S315000002C01178C36804682340DB0731D503292FD290
S315000002D01A4D03691E4C05EB8106F07830B118B251
S315000002E0002803D5002024F8110001E024F811307D
S315000002F018480478012303FA01F12143164C0170D2
S31500000300207898B100212078C840C50704D4491C3C
S31500000310C8B20328F7D37FBD11708B4022785340B3
S315000003202370C9B26846FFF799FF7FBD032111709C
S315000003307FBD0000E01B0300E81B0300E4E800208B
S3150000034000200040D41B03003DFD00203820004063
S31500000350E4E900203EFD00203CFD0020890001EB81
S31500000360401101F184410A60704730B5002A1ABF76
S315000003701022DFF84031DFF84031446BDFF83C51A2
S315000003802340A84210D1DFF8384171B1012912D0BB
S31500000390022922D0032914D0062919D081291CD07C
S315000003A01A46DFF82001026030BD2168206800F09F
S315000003B020F8206816E02168206800F020F8206800
S315000003C004E06168606800F01AF86068000C09E0F3
S315000003D0A168A06801F00F0104E06168606800F0A0
S315000003E008F8606800F0F000014301FA02F21A43CF
S315000003F0D7E701F4FE4100F00F0001437047090CF6
S3150000040001F4FE41C0F303400143704770B5044652
S315000004100D460220A0600022A9782046FFF7A5FF1E
S315000004202A796B786879EE78110241EA036141EA2C
S315000004300041E87941EAC60108B141F00051287A45
S3150000044008B141F00401A87908B141F00201687AC7
S3150000045008B141F00101A878F32A08BF002804D1A9
S31500000460042BBCBF042262F31B6103064CBF41F0A0
S31500000470E00141EA40112161134861690140A87811
S31500000480020644BF20F0800001432A78E87A00F093
S315000004900BF861610221AA7A2046FFF75FFFE06F41
S315000004A0D4F88010E06870BD41EA424108B141F4D9
S315000004B080417047FFFF00800080FFFF0020004062
S315000004C01082E00F34200040F8BFE1FF42DE7047A3
S315000004D038B504460D4600F030FC01F023FB01F070
S315000004E041FB2946204601F043FB2B4622466B4939
S315000004F0012001F0EEFC29462046BDE83440E5E740
S3150000050067482DE9F843674E0168B1654FF42068E6
S31500000510026A6549F2650B68336649687166426A24
S31500000520B266816AF166C26A3267016B7167806B77
S3150000053096F83810B06748074CBF346CF46B01F07E
S31500000540F5FC00213165A146706506F19001574B17
S31500000550DFF85CC1574A844224BFA2F12005A542B8
S3150000056019D3A0697064B06DE469B464C0F308007F
S31500000570062814D1706C604511D398420FD20088BA
S315000005804DF64264A0420AD17068B46848608C6037
S3150000059040F2017803E000247464B4648146706D0F
S315000005A0454CA04202D2204600E0001D044694427B
S315000005B003D20568B5F1CD3FF7D04048041BF4647B
S315000005C00020002400F07EF8401CC7B2062FF9D3A5
S315000005D0002091452DD252F8044D6445F9D39C4232
S315000005E0F7D2E507F5D54FF0000E06F17C0555F874
S315000005F02E70A74204D00EF1010EBEF1060FF6D3FF
S31500000600BEF1060FE5D1C5B2002D0CBF0520401E78
S3150000061000F058F8DDE7F26F002306F17C0506EBE3
S315000006208304D4F8804045F823405B1C042BF6D99C
S315000006300A600246501ED2B2002AECD1B06DC0F359
S315000006400800032810D0042811D0052812D0062847
S3150000065013D00C2817D0122818D119480268910710
S3150000066019D540F2025816E040F6012813E040F68C
S31500000670022810E040F603280DE0B8F5206F0AD1F5
S3150000068040F6042807E040F6052804E018B13F28A4
S3150000069038BF40F607284046BDE8F283F01B03004A
S315000006A004ED00E00000002000E300E0D21B0300A0
S315000006B05C020000C8E100209C000020C8E1002088
S315000006C01C20054006F17C07C5B247F82540704757
S315000006D038B50D46AA88A968044601F039FCE968D0
S315000006E041B1A8886A88121A2044BDE8384092B2FF
S315000006F001F02EBC31BD38B5044601F041FC05467B
S31500000700DFF8C00783780178994212D0DFF8B8077E
S31500000710006B641E07D0641E08D0A41E06D0A41E5B
S31500000720032C03D905E00022194600E0002201F05F
S3150000073058FC284632BD2DE9DC4FDFF88C4703EA2A
S31500000740010BD4E90A6727EA010926EA000802EA4A
S31500000750000A49EA0B0948EA0A08B94508BFB04544
S315000007600ED0CDE90023C4E90A890246206B0B4668
S3150000077001F062FF20B1BDE8DC4F40F2751100E2E6
S31500000780BDE8D38F78B58DB002A8DFF84017DFF843
S3150000079038472C2201F0DCFB208CC10700F18C804D
S315000007A00121012000F0BFFF0A204FF42871607379
S315000007B0ADF80E10DFF818070FF2F561DFF81457E1
S315000007C001F0F1FB206318B940F2B91100F076F898
S315000007D0206B052101F054FD18B140F2C11100F063
S315000007E06DF8206B01F081FFDFF8EC060168206BE5
S315000007F002F009F800F049FA0C267043089000F060
S3150000080044FA4643206B069602A902F023F818B173
S315000008104FF4EB7100F052F8206BDFF8C01600229F
S3150000082002F0A6F818B14FF4ED7100F047F8032076
S31500000830052120706170A170002601F088F8E07033
S3150000084000F023FA142110FB01F0A08000F01DFA3D
S31500000850C000E080A6604FF0FF30DFF8842640F24B
S3150000086042330146FFF767FF206BDFF8781602F088
S31500000870D0F8206B01A902F04FF918B140F205211A
S3150000088000F01CF8206B0422694601F0B8FB04282E
S3150000089003D040F2092100F011F86946012002F068
S315000008A05CF902F029FB012000F0F6FF01F066FB7F
S315000008B001F0C6F800F01EFE0EB070BD2846FFF728
S315000008C007BE38B5DFF80046208C820703D54FF403
S315000008D0097100F0C3FA0021217602F035FB0546C6
S315000008E0208C410709D502F035FBA16B401A40F276
S315000008F0C532904201D300F069FA01F025F8607B19
S31500000900042820D102F020FB0546208C41072BD479
S3150000091001F01AF802F018FB0546606B401C02F065
S3150000092086FB00F020000128ACBF0620052060737E
S31500000930012100F050FA01F02CF801F005F8606B87
S31500000940C178617431BD062830D1DFF87805C179E8
S31500000950FF2937D102F080FB207C20B302F0F4FAA5
S315000009600546208C410706D504F1180002F088FBE5
S31500000970284600F0E6BE00F0E7FF207C411E217409
S3150000098002F0E2FA0446012100F025FA01F001F82E
S31500000990204602F091FCBDE8384000224FF6FF7178
S315000009A0042002F0E1BD6073402007E0012809D170
S315000009B000206073206B01F01CFB3F20BDE8324035
S315000009C000F091BE31BD70B5DFF8FC44607B0E4689
S315000009D0154618B140F29A2100F040FA29006663E4
S315000009E003D0A17811B1012100E00021202000F000
S315000009F09AFEDFF87C0A01782174002D14BFE07B93
S31500000A000020A0730420607304F1180002F038FB84
S31500000A1000F01FFABDE87040DFF8D40A007802F053
S31500000A202EBC2DE9F04102F08FFADFF89C54804687
S31500000A30288CC10506D5687B10B900F05BFD01E086
S31500000A4000F08AF800210020FFF755FEDFF87464F5
S31500000A50B079FF27FF2818D0B07928B9B7710024DC
S31500000A60687B052811D105E0B079B77101280CBF64
S31500000A704C24332400206873404602F01DFC2046B7
S31500000A8000F031FE02F060FA8046687B062833D11A
S31500000A90F079FF2830D0F079022804D105F118004A
S31500000AA002F0EEFA28E0F07900281CBFF079012860
S31500000AB026D100F054FE0446F079012818BF002024
S31500000AC00021002C297618BF0028F77109D00120D3
S31500000AD06873642105F1180002F0DDFA00F0DFFC0E
S31500000AE00BE06973404602F0E7FB002C14BF3F2081
S31500000AF0002000F0F8FD03E0F771404602F0DCFB51
S31500000B00288C0006C00F05D00021802000F00BFEC7
S31500000B1002F0C2FD03F04AF900246884D0B1687B74
S31500000B20012806D10021002029766873012403F0EC
S31500000B30C6FC687B08B900F0DDFC698C002003F078
S31500000B40F6FC002068842CB1687B18B9BDE8F0413A
S31500000B5003F0E8BCBDE8F08100214FF4807000F09E
S31500000B60E2BD80B503F030F97AE080B500F019F8FF
S31500000B7001F0EFFE20B1BDE804404FF4697100E0DA
S31500000B8001BDDFF85003FFF7A3BC80B500F009F8FC
S31500000B9001F0D0FE20B1BDE8044040F2AB31F0E7F1
S31500000BA001BD10460A46DFF8CC380146186B70477F
S31500000BB0C548417B481E8041C00F7047DFF8B40826
S31500000BC0417B012901D1012070470020704780B583
S31500000BD0BD49487B18B140F2CB3100F03FF900F037
S31500000BE089FC002002BD80B5DFF88838186B0A2220
S31500000BF011FB02F101F0CCFD00B1212002BD80B550
S31500000C00DFF87018086B01F0E7FD0A2190FBF1F0A0
S31500000C1040B202BDAB480079704738B5AA4D687B33
S31500000C20002818BF01280C4603D04FF47B7100F052
S31500000C3015F92146002000F00EF808B9212032BD32
S31500000C40A0490C71687B10B900F054FC01E000F07B
S31500000C5026FC002032BD80B59B48006B01F077FB77
S31500000C60401E8041C00F02BDDFF80818C8707047EB
S31500000C7080B5DFF80028106B012101F07AFA4110E7
S31500000C8000EB91708005001602BD80B58E49086B99
S31500000C9001F013FB00281FBFDFF8441CB1FBF0F086
S31500000CA080B2002808BF012002BD80B58649086BC6
S31500000CB001F007FB00281FBFDFF8241CB1FBF0F092
S31500000CC080B2002808BF012002BD10B50C460121E4
S31500000CD000F020F8FFF7D9FF4443DFF898070FF23A
S31500000CE01D23006B0122214601F0EEF9002010BD04
S31500000CF010B5DFF88047208CC20603D440F2594174
S31500000D0000F0ACF800F005F8206BBDE8104001F0EB
S31500000D10E8B90021102000F006BD02F01BB910B59D
S31500000D20DFF85047206B01F0E6FEC00704D5206BC4
S31500000D30BDE8104001F0E4BE10BD80B5DFF8340711
S31500000D40006B0122012101F050F900212C20FFF750
S31500000D50D2FC00F093FB04F01CF8BDE80240002032
S31500000D6000F0CEBC38B5584C48B100F02FF8607B87
S31500000D7001282AD1206BBDE8324001F03AB900F0D3
S31500000D807BFB10B30020A0734E4DA879FF2803D03B
S31500000D9040F2EB4100F062F800F01CF80020A87168
S31500000DA0617B062906D1012100F07EF8002128206A
S31500000DB0FFF7A1FC607B052806D100212B20FFF759
S31500000DC09AFC206B01F015F969E031BD0021042081
S31500000DD000F0A9BC0021022000F0A5BC38B50C46E5
S31500000DE010B1FFF7F3FF29E000F046FB30B3012C0A
S31500000DF0354D14D1A87B90B1401EA873C0B218B966
S31500000E000021202000F08FFCFFF7E4FF0420687328
S31500000E1005F1180002F034F900F01BF810E000208C
S31500000E20A873FFF7D7FF274DA879FF2803D040F214
S31500000E30225100F013F8AC7102F02DFC012C07D101
S31500000E40BDE8384000224FF6FF71202002F08CBB2F
S31500000E5031BDDFF8200C007802F011BA1D48FFF70B
S31500000E6037BB38B5184D1B4C6A7B062A03D040F2B7
S31500000E705F6100F094FB082000F067FC18B94FF49E
S31500000E80CC6100F08CFB297C2A20FFF734FC00F0B3
S31500000E900AF80C490220C871286B01F0AAF8BDE8CF
S31500000EA0314002F0F8BB0021082000F03CBC0000F5
S31500000EB0DFF8C0150020487301214FF4807000F060
S31500000EC032BC0000B8E30020A8E80020F8230300A5
S31500000ED0CCE30020A01A000098E30020D4F50020FF
S31500000EE00A0020FFA517000001A0FFF7F1BA0000D5
S31500000EF06C69627261696C2E6100000080B5102019
S31500000F0000F023FC18B940F28161FFF7A7FFFFF755
S31500000F1000FF002003F0D6FBBDE8014002F0BBBB9A
S31500000F202DE9F84F144614F0C00F8EB006469A46C7
S31500000F3005D000F05EFD01460120FFF7DCFBA002B4
S31500000F40DFF8349B049656D5304603F0CAFF0028D6
S31500000F5051D100F09EFA04980AA901F02DFD00284F
S31500000F6049D19DF830000026022836D1049805A9FB
S31500000F7001F04CFDBDF8160006283CD3BDF818005C
S31500000F800621ADF81610062824BFADF818100896ED
S31500000F9005A96846FFF79CFB9DF805109DF804001F
S31500000FA000EB012299F8051092B2002003F0A2FC92
S31500000FB0FF2804BF002003F04BFC04F0E7F9D0B98A
S31500000FC0BDF8280004F077F8FF2802D004F0DAF81C
S31500000FD000B1012604F010FA05E003280BD10AA897
S31500000FE004F0AFFA064636B1049801F0E3FC10B9F6
S31500000FF0012100F04FFAA00305D500F0FAFC0146E6
S315000010000320FFF778FBE001DFF8686403D50020D2
S31500001010FFF7A8FE38E0707B1AF0020308D0062816
S315000010200CBF012100212620FFF765FB012112E0FC
S31500001030E10005D506280CBF01210021262007E086
S3150000104014F0884F0BD006280CBF01210021272061
S31500001050FFF751FB02210020FFF7C0FE14E01AF053
S31500001060080103D000212320FFF745FB1AF00401F5
S3150000107003D000212420FFF73EFB1AF0010103D024
S3150000108000212520FFF737FB21070FF6142B6BD520
S31500001090306B09AA032101F0B5FC07004FF00008E8
S315000010A003D140F2425100F0EDF99DF824000728E3
S315000010B065D1306B05AA394601F0AFFC18B140F294
S315000010C04C5100F0DFF9BDF82610306B891C05AADB
S315000010D089B201F0A6FC18B140F2565100F0D2F9DF
S315000010E0306BCDF80080042303AA394601F0B3FC27
S315000010F0042803D040F25D5100F0C4F90DF10D0053
S3150000110001F095FF00F0070002282ED100F071FCD7
S3150000111001460920FFF7EFFA707B062802BF9DF80B
S315000011200F00717C88421FD19DF81D0018B940F24E
S315000011306E5100F0A7F90DF10D0001F078FF00F0F7
S3150000114010000028CCBF0127002739462920FFF7C9
S31500001150D2FAFFF7A8FE89F8077000F000FB002816
S3150000116002D1306B00F045FFECE0BDF826000830F8
S31500001170012180B202F092FDADF8060030B900F010
S3150000118038FC01460420FFF7B6FADBE002F0CBFCA0
S31500001190074609A9FFF79CFA781C01F048FF00F002
S315000011A0200000282EDD00F024FC0546306B03F0FD
S315000011B098FE002814BF062005202946FFF79BFA53
S315000011C0781C01F034FF00F00700032809D109223A
S315000011D00121384604F0A8FC385C042808BF012524
S315000011E000D000250121FFF7F2FD01F0B3FEB06348
S315000011F0A5B1402000F0A9FA80B100F04AF94FF0FD
S3150000120001080BE000F0F5FB01460920FFF773FA31
S31500001210707B012804BF306B00F0EBFEBDF82600A2
S3150000122038440090002003F013FB00218DF80410D1
S315000012304FF6FF720546ADF808200121384601F049
S31500001240FFFD30B199F8052001AB4FF6FF71002084
S315000012500AE002AA0121384601F022FE30B999F8C7
S315000012600520BDF8081001AB03F017FB04F060FD84
S3150000127010B99DF8040038B99DF80400012101FA5F
S3150000128005F505438DF80450009999F80500087096
S315000012900DF1060900999DF81E00887000999DF8C9
S315000012A01F00C870FF200099087105980099000C6E
S315000012B0487100990598000A8871B8F1000F0099E5
S315000012C00598C871787814BF40F0200000F0DF0060
S315000012D078700025BDF8060002F03DFC3946009FF7
S315000012E080469DF804200123AB401A421FD0C1B9A5
S315000012F00121404602F0D2FCADF80A00D0B102F05E
S3150000130012FC0746002000905FFA88F3BDF806102D
S315000013100022384604F0F2FEBDF826000DF10A0957
S3150000132007447D70B9F8000002F031FD00216D1C04
S31500001330012DD6DDFFF78DFD6D48007801F09FFF8A
S3150000134002F0A9F9E00505D500F053FB014604209B
S31500001350FFF7D1F914F4863F05D000F04AFB0146A9
S315000013600220FFF7C8F9A00108D500F042FB0146AC
S315000013700820FFF7C0F90120FFF7F4FC14F0084F2E
S3150000138005D000F036FB00F080F800F085F8A000EC
S3150000139007D500F02EFB01460620FFF7ACF900F05A
S315000013A07BF8A00705D5082000F0CFF908B1FFF7B4
S315000013B058FD1AF040010DD000F060F8082000F04A
S315000013C0C4F908B1FFF74DFD042000F0BEF908B1DD
S315000013D000F062F81AF080011CBF012000F06EFBDD
S315000013E01AF4807139D0049800F0F9FD022802D071
S315000013F0032814D02DE0042000F0A7F928B100F04E
S31500001400F8FA00F042F800F047F800F035F820B39B
S31500001410707B06280CBF01210021272012E0042042
S3150000142000F093F928B100F0E4FA00F02EF800F08D
S3150000143033F800F021F880B1707B06280CBF01213B
S3150000144000212620FFF757F901210020FFF7C6FCEF
S3150000145003E040F2177100F015F81AF4007103D09A
S315000014600121802000F05FF90FB0BDE8F08F000089
S31500001470DAE70020A8E80020022066E100210A2021
S31500001480FFF739B95846FFF723B801460720FFF79B
S3150000149032B90021402046E1FF2101209EE47FB5BC
S315000014A0684600210022002380E80E00DFF8C845C8
S315000014B0DFF8C86525788DF8005001F045FD054632
S315000014C060792179884204D1306B00F08CFD0128C7
S315000014D00AD1217961716A46306B00F03DFE18B180
S315000014E040F2FA71FFF7BAFC00F02EFA7FBD000059
S315000014F088FD002070B50020FFF75AFB0FF2A054BC
S3150000150018B940F65B0100F04AF801F01DFD0546EA
S31500001510062000F01AF918B10121FFF71EFB3CE086
S31500001520FFF71AFB002003F07EF90228DFF84C656E
S3150000153002D1306B802208E0002003F074F910B16C
S3150000154001280DD025E0306B0022802104F049FFF0
S31500001550012000F0D5F803F01EFCFFF7A0FF1CE009
S31500001560306B00F046FD306B00F03DFD01280AD0DF
S31500001570306B0122012100F038FD00212C20FFF7FD
S31500001580BAF8FFF77BFF03F004FC002000F0B8F880
S3150000159003E040F68A0100F002F828469BE1204667
S315000015A0FEF796BF2DE9F84F012004F034FFFFF750
S315000015B063FF00260FF2E84818B940F6980100F0DC
S315000015C08FF8DFF8B854687B062818BF052803D0C3
S315000015D040F69B0100F084F8686B18B940F69D014F
S315000015E000F07EF8202000F0B0F800281ABF4FF473
S315000015F07A76012100212220FFF77DF8FFF755FBBF
S31500001600696B0A780932504306EBC006687B0628E8
S315000016100AD1FFF73AFB8346FFF747FB60210C240C
S31500001620484304FB0B0B5E446C6B2078A0F1010B66
S31500001630E87C4FF0000948B9601C01F0F8FC00F0A6
S3150000164020000028C8BF4FF0010A00DCCA46DFF8B8
S31500001650287478783872B6B2BAF1000F3E6118BFB6
S315000016604FF0010901F0F0FC38B101F0EBFC012864
S315000016700CBF0820102040EA0909286B80235FFA76
S315000016808BF2214601F0A4F93E797E7120202C6B65
S3150000169000F05BF8B0B107F1080000902B464A460F
S315000016A03146204600F033FD38B15146262000F081
S315000016B067FC40F6540100F013F8BDE8F24F002035
S315000016C004F0A9BE07F108034A463146204600F059
S315000016D00EFD0028E8D100212520FFF70CF8ECE7E5
S315000016E04046FEF7F5BE10B50446FFF703FF214658
S315000016F0002002F0E4FEBDE81040002002F012BF18
S3150000170010B50446002003F08EF801280AD1DFF850
S3150000171070030278944205D004702046BDE810405C
S3150000172003F042BB10BD38B504460D4601F00CFC73
S31500001730DFF848130A8C002D14BF144322EA040470
S315000017400C84BDE8324001F0B7BD0146DFF82C033A
S31500001750028C11EA020018BF0120C0B2704710B512
S31500001760DFF81843606B18B940F60211FFF776FBF5
S31500001770606B401C01F05BFC00F0070003280AD1F7
S31500001780606B0922012104F0CFF9616B085C042823
S3150000179001D1012010BD002010BDDFF8E81240087D
S315000017A0085C704710B50C464FF0FF3004F037FE6A
S315000017B0DFF8C812241A086B04F031FE241A14F15B
S315000017C0630F01DA002010BD14F1240F01DBFF20A6
S315000017D010BD64342402601104EB9064A404200E4E
S315000017E010BD80B5FFF7DDF901F0C2F828B1BDE8FC
S315000017F0044040F64A11FFF7C4B901BD704780B5F1
S3150000180000F002F9012801D0012002BD002002BD2E
S3150000181010B5DFF868324C000146186B224600F01E
S31500001820EEFBA04201D0002010BD012010BD04280F
S3150000183001DB02207047DFF84412C87300207047AE
S315000018408D48DFF838320179186B012200F075BC3B
S3150000185009E08948DFF824320179186B002200F08C
S315000018606CBC000000BFDFF81402006B00F06FBC18
S3150000187010B50446DFF80402018CCA070BD5611EB9
S315000018808941006BC90F01F082F82000DFF8F811DA
S3150000189018BF0120087010BD70B5DFF8F05106467C
S315000018A001F052FB2E700446DFF8D061308CC10780
S315000018B010D5307B022804DA28B100F055FBC005AC
S315000018C001D5012103E02878411E8941C90F306BFB
S315000018D003F0FEFA2046BDE8704001F0EDBC0000C2
S315000018E040420F000020704738B57F28044611D1CA
S315000018F04FF6FF70664D2988ADF8000002237F225F
S31500001900684604F0F4FDBDF800006FF04A04C10516
S3150000191058BF044601F018FB05465C484470012098
S31500001920FFF713FF68B1554A107B08B16FF07F04CB
S31500001930106B61B200F002FF18B140F6BD21FFF74F
S315000019408DFA00F001F831BD284601F0B5BC10B59E
S315000019504E4C94F901107F2904BF7F20FFF7C4FF86
S3150000196094F9010010BDF2E7444A117D002900D028
S31500001970704780B501231028137503D040F6E12186
S31500001980FFF76CFA00212020FFF7CDFEBDE80140ED
S3150000199008E638B50220FFF7D8FE0FF2041418B98E
S315000019A040F6EA21FFF7FBFD344D687B062818BF99
S315000019B0052803D040F6EC21FFF7F1FD686B18B956
S315000019C040F6ED21FFF7EBFD002028752120314977
S315000019D000F0D6FA10B9BDE83140E3E5012807D09A
S315000019E0022805D1BDE8344002210020FFF7F6B9F0
S315000019F031BD80B500F008F800F00300032801D1DE
S31500001A00012002BD002002BD1C48006B00F0EBBAAD
S31500001A1038B500F0B3FA0024002510B11E4C0D2590
S31500001A2005E0154801788078814218BF1B4C224694
S31500001A302B4601B0BDE8304017480D21FEF77BBEAE
S31500001A4038B50E4D0446288CC10710D5FFF7E0FFC8
S31500001A50002C14BF00220822286B082104F0C1FCC8
S31500001A6028B1BDE8344040F67C31FFF78AB831BD75
S31500001A70000000007DFD0020B8E30020A8E800205B
S31500001A8072FD002050E50020DBE70020DCE70020A7
S31500001A905A46030069190000C00D0300C88D0100F5
S31500001AA06C6F7765722D6D61632D7261696C2D386F
S31500001AB030322E31352E342E6300000070477047C9
S31500001AC004F096BD7FB50121204804F06DFE012289
S31500001AD00121012005F02EF90421072005F06AFAFC
S31500001AE01B4A92E838006946032281E838000D2136
S31500001AF08DF8081001268DF809208DF800608DF804
S31500001B0007606946134C204605F0C2FA12490420C4
S31500001B1008600222114962620860A26A42F002026B
S31500001B20A2627FBD0B4805F0A7BAA52803D1002104
S31500001B30084805F088BA70470648006800F00100BA
S31500001B407047074908680028FCD1704730253E00D9
S31500001B50041E03000020054080E200E000E100E0F2
S31500001B6008200540602080F31188704705F0A9BB66
S31500001B7003460A46A2A10420FFE70CB480B502AAD8
S31500001B8000F030F801BC5DF80CFB0A00034602D0F9
S31500001B909CA11120F1E7704780B586B003F00EF9DD
S31500001BA0302204920021984A00926A2305910393F9
S31500001BB0029101910246002397A10120FFF7DDFF64
S31500001BC092488179028843790391029201930179BF
S31500001BD0C37882780091422092A1FFF7CEFF07B02A
S31500001BE000BD00002DE9F04786B007460C46914639
S31500001BF005F003FC002600287CD105F0DDFA00285C
S31500001C0078D00021002002F049F80028ADF8040041
S31500001C1070D0002101A804F057FA394602A805F051
S31500001C20D2FA0746D4B900F098F8002862D1BDF878
S31500001C30040001F090FF8DF80000BDF8040001F0EB
S31500001C4072FF694605F0CBFA002853D0042005F050
S31500001C50C5FB4FE08DF808100127641C207800288A
S31500001C60E1D0A0F130010A2904D20A2101FB0606BF
S31500001C70303EF2E700F071F800283BD121780027CA
S31500001C80422902A80ED044291AD0462925D0572920
S31500001C900DD0622940D0662932D06C292DD070290A
S31500001CA02ED0D7E759F8040B8DF80800D4E759F879
S31500001CB0041B8DF8081002270904090E4170CCE7B1
S31500001CC059F8041B8DF808100B0A0A0C090E43700C
S31500001CD082708DF80B100427BFE759F8048B404635
S31500001CE005F0BAFBC2B20123414601A802F072F820
S31500001CF00028B2D006B0BDE8F08759F8046BACE70F
S31500001D0059F8041B0123F2B201A802F063F8002877
S31500001D1008BF0026A1D0EDE7BDF8040001F01BFFC7
S31500001D2059F8045B8046A8B2002896D001F013FF4C
S31500001D3082460AEB0801C9B201A804F0C5F90028D9
S31500001D40D8D15FFA8AF000900023BDF80400AAB249
S31500001D505FFA88F104F044FA7FE701233A4602A9C4
S31500001D6001A802F037B800002DE9F841122885B025
S31500001D7004460D46904606D03A2808D04FF6FE7126
S31500001D80884227D033E0002005F09BFD2FE006F0C7
S31500001D90A9F806460020FEF732FF07460020FEF7A8
S31500001DA039FF034604961848194A1A4992F800C0A2
S31500001DB003900022482010FB0CFC01EB0C00B0F84D
S31500001DC0E2100291019200975FF03B0017A1FFF726
S31500001DD0D4FE0CE000224146284601F0C5FF074626
S31500001DE001F02CFB384601F001FC01F02BFB4246CA
S31500001DF02946204606B0BDE8F04105F01FBB0000AD
S31500001E00574600006C700000D4F500205C250300E6
S31500001E1084FD0020DCF500204242387042424242F6
S31500001E205700000042424242574200005742425782
S31500001E3057387042000000002DE9F04104469046F4
S31500001E40012522008AB00F461E4606D0012C1DD061
S31500001E50102C02D0202C19D01EE0002105F087FDA1
S31500001E600546012C18BF202C08D0022C18BF212CA7
S31500001E7004D0032C1CBF222C232C1AD1012E01972F
S31500001E80ADF80C800AD14FF480500BE06846174934
S31500001E90282200F05DF8E4E701200BE0022E03D1D2
S31500001EA04FF44050ADF80A006946204605F05FFD44
S31500001EB00546E8B20AB0BDE8F08180B505F019FE26
S31500001EC0C0B202BD05F064BE80B505F06BFEC0B2BF
S31500001ED002BD0CB480B50A46014602AB044806F0C2
S31500001EE021F902BC00205DF80CFB0000701F030006
S31500001EF0AB7C000010B50446FFF734FE200A00282C
S31500001F000E4808BF24024FF20F0104804180BFF340
S31500001F105F8FBFF34F8F0A490A480A6802F4E062EE
S31500001F2002430A60BFF34F8F00BFFDE706487047C4
S31500001F30054820387047054870470000000000201B
S31500001F400CED00E00400FA0568D80020A00000208F
S31500001F504AB1000011F8013B521E00F8013B1CBFBC
S31500001F6011F8013BF8E770470020704701207047E1
S31500001F7001207047002070470120704700207047FD
S31500001F8000207047012070470020704701207047ED
S31500001F907047704700B10220704700207047FEE787
S31500001FA000B10C30704770B504000D4603D0DFF861
S31500001FB0E861307808B1002070BD7460204600F0FA
S31500001FC04DF92946204600F0FDF8002814BF0121EE
S31500001FD00021317070BDDFF8C00100787047012024
S31500001FE070470020704706F00BBC0846114600F00B
S31500001FF053B9DFF8A8215368002100201847F8B527
S31500002000DFF8986115460C46726801210120904759
S3150000201007462946204607F015FD04461FB172689B
S315000020200021012090472046F2BDDFF874111046CA
S315000020300A68130000D1704710B54FF0FF34A24272
S3150000204004D000230B60BDE81040104710BD1CB53E
S31500002050DFF84C4122600A46022A04D1201D00F016
S31500002060A6FF002016BD00930146DFF83831201D7B
S3150000207000F07FFF0028F4D0022016BD0021DFF813
S31500002080280100F0C3BFDFF8200100F090BFDFF8A1
S31500002090180100F09DBF80B54148016811F1010F9C
S315000020A001D1002002BD001D00F092FF401E8041BC
S315000020B0C00F02BD02207047002070470020704705
S315000020C0012070470020704738B50D4611461A4664
S315000020D0314B9C6804B9354C034624682846A04712
S315000020E032BD2D48806800B930488068004738B551
S315000020F000F05EF82A46214606F0CAFC040004D128
S31500002100264A5368012100209847204632BD70B503
S3150000211000F00FF833462A46214606F035FDFFE764
S31500002120040004D11D4A5368012100209847204627
S3150000213070BD0C4615461E4632E7002370B5FFF704
S31500002140F8FF33462A46214600F000FBE8E780B553
S3150000215007F06BF8002002BD10B50C46FFF720FF14
S31500002160214604F049F9040001D100F00EF820469A
S3150000217010BD09B14FF0FF3110B50C46FFF710FF47
S315000021802146BDE8104007F0E7BB044A5368012129
S31500002190012018470000000054F700207CE60020CC
S315000021A0E4E600202B200000E8E60020642503007A
S315000021B00C461546F4E6FEE700B10C307047FBE727
S315000021C007F068BD38B50D460446002102F0E8FB6D
S315000021D02946204606F0B9F908B1002032BD20464E
S315000021E032BD70B506460D001CBF286800280AD00F
S315000021F0006810F1010F1CBFE868002803D0A8682A
S3150000220008B1012000E000206822412107F056FDB8
S31500002210284607F042FD002086F8C400F5663067C0
S315000022204FF6FF7401E0401CC0B2E968884209D24B
S31500002230AA681C2111FB00F11144C989A142F2DAF6
S315000022400C00F0D1DFF870030021016041603046D8
S31500002250214600F0EFF8204670BD704710B50446E1
S3150000226006F00FFA002C0CBF002004F10C00806F62
S315000022700100DFF8441308BFDFF84003886010BD93
S3150000228010B500F0D7F92146BDE8104006F04DBA6A
S31500002290DFF824030068704710B50C4606F060FAB4
S315000022A01CB106F0ADFA0128FBD1DFF81423536800
S315000022B0BDE8104000210320184700B10C3006F09D
S315000022C031BE00B10C3006F03EBE10F1010F04D055
S315000022D0DFF8F012884288BF0846704710B5040040
S315000022E018BF14F1010F09D0FFF7EFFF642898BF5C
S315000022F0642403D92046FFF7E8FF0446204610BDB4
S3150000230038B50D4604462868FFF7E8FF2860686878
S31500002310FFF7E4FF6860A868FFF7E0FFA860E868D9
S31500002320FFF7DCFFE8602869FFF7CFFF28616869DF
S31500002330FFF7CBFF6861A869FFF7D0FFA8612046C9
S31500002340FFF73DFF2946BDE8344007F07DBBB0B539
S3150000235000B10C30C26E0120002300E05B1CD46883
S31500002360A3420AD295681C245C432C44E789B942EF
S3150000237024BF248A8C42F1D30020B0BD2DE9F04B56
S31500002380026F1AB103898AB29A4250D0C46E002CE9
S315000023901CBFA268002A01D0E26812B90320BDE87A
S315000023A0F08BD0F8808000258B46A946002706468C
S315000023B0002102E009F101091C37E068814524D2B9
S315000023C0A268D0191FFA8BF2C3899A4222BF028AE9
S315000023D01FFA8BF39A42EDD305465FEA0800B5F97A
S315000023E0122003D0B6F9FE0082420EDAFF2047F62D
S315000023F0FF739A4205D096F8B810A6F10C0007F0C4
S3150000240078FC327990420146D4D30C4615B90120A6
S31500002410BDE8F08B5FEA080004D000232A460021BD
S315000024203046C047A6F808B0356786F8C140002098
S31500002430BDE8F08BF0B581B004460D4607F024FDEB
S315000024400646A9B22046FFF799FF070006D10023EA
S315000024500022A9B2204600F01FF80746304607F0D2
S3150000246017FD384601B0F0BD12B581B0D0F88040F6
S3150000247021000BD1017990F8C1309DF804209942D2
S3150000248088BF194606F09FFE02B010BD01AB0022C0
S315000024900021A04702B010BD2DE9F04F81B00546DE
S315000024A00F4614469A4607F0A1FB434EB6F80CB009
S315000024B04FF0000807F0B5FBC14618B1C6F8048016
S315000024C007F0AAFB286F7168884213D190B1B8B2A1
S315000024D058450FD15FFA8AF000281CBFE4B2002CE1
S315000024E064D05FFA8AF12846FFF7BEFF404601B086
S315000024F0BDE8F08F06F084F9012803D00121012000
S31500002500FFF7CAFE3068E8B1EA6E90420BD17168F7
S3150000251049B12B6F994206D1B8B2834518BF4FF027
S315000025200109E4B217E0016861B11268914209D16C
S31500002530296F0A687168012411B1096891420AD0AD
S31500002540416804E0286FE96E02680968012428469C
S3150000255007F087F980465FFA8AF12846FFF784FF7D
S315000025605FEA08000ED1E86E3060B9F1000F296FFE
S31500002570716008BF002C19D0BFB2F760284606F07C
S3150000258081FE804694B1B8F101008041C00F40F24F
S31500002590A322332107F092FB5FFA8AF1284607F05F
S315000025A071F9296FB268A5F10C009047404601B059
S315000025B0BDE8F08F0089704700E700205B2200002D
S315000025C07CE6002040420F0001281CBF0428022898
S315000025D001D1012070470020704738B500F026F879
S315000025E040B16878FFF7F0FF20B129786878014399
S315000025F0490701D5012032BD29462046BDE83440B1
S3150000260006F0E8BC38B500F011F838B16878FFF785
S31500002610DBFF00281CBF6878042801D1012032BDE9
S3150000262029462046BDE8344006F007BD0D4604465F
S315000026302878C9E70C46C2E53EB514461D46FFF7A5
S31500002640BEFDDDE90623CDE9002322462B4605F033
S31500002650DFFF3EBD80B58AB007F01DFC06A82C49F9
S315000026601022FFF775FC06A807F0CAFE01A8294943
S315000026701422FFF76DFC0DF1020008F012F910B1FB
S31500002680BDF8020006E06946684608F016F918B17A
S31500002690BDF80000ADF80A0001A804F00BFB1E48C7
S315000026A008F05AF90421112004F012FA0022002140
S315000026B0032004F03FFB0321184804F009FA032124
S315000026C0174804F005FA0321164804F001FA684693
S315000026D015491422FFF73CFC6946002008F06EF904
S315000026E0FFF7F0F900200BB000BD10B500F0EBF8D5
S315000026F0040004D040F2AD210C48FDF7E9FE0C4978
S3150000270000200870204610BD094800787047000078
S31500002710BC1D0300A81D030000F0490202001E00B4
S315000027200300200005002400CC1D0300E01D03006B
S31500002730D7E7002000B10C307047FBE710B500F07A
S3150000274080F82146BDE8104006F08ABA70B51446F6
S31500002750D2B2042A1D4601DB012070BD89B2FFF703
S3150000276069FE060012D101210120FFF795FD002028
S3150000277007F091FAE0B2002818BF032803D12946D2
S3150000278006F066FD02E0294606F06FFD304670BD94
S31500002790FEB500F01CF800F048F80646D6F8807042
S315000027A038000ED16946204600F043F89DF8001027
S315000027B02A46204607F09DFA0146304606F0CDFC33
S315000027C0FEBD0023002229463046B847FEBD04461A
S315000027D00D46002007F05FBA3EB50446FFF7ADFF91
S315000027E005466946204600F024F8284606F015FD01
S315000027F0FF28024601D114483EBD9DF80010204630
S3150000280007F0DFFA3EBD38B50D460446688807F086
S3150000281042FA00F00AF8D0F8801009B1022032BD61
S315000028202946BDE8344006F05BBC204685E707F044
S3150000283033BA10B500F005F82146BDE8104006F0A1
S31500002840E2BC0C4679E700000080FFFF00B10C30C7
S315000028507047000078B587B004460D46FFF7F6FFCF
S31500002860064605F1280001780091C3784278817800
S31500002870304608F031F9684605F10C011C22FFF7D5
S3150000288067FB69462046FFF73BFD291D304602F0EF
S31500002890DAFA040005D100BF49A1304607F06CF80A
S315000028A00446200003D1304608F0BEF804462968E5
S315000028B0304600F00AF8204608B070BD10B500F0AA
S315000028C074F8A04710BD1949F8E7F0B589B0054678
S315000028D00C46684616492422FFF73AFB04B96C46B3
S315000028E0002601E0010006D1F0B234F81010F2B271
S315000028F0284608F0B2F80100F7B206D104EB47000B
S31500002900F2B2C188284608F0B6F8010007D104EBF8
S31500002910C70000F10C01F2B2284608F0C5F8761C93
S31500002920F1B20329DED309B0F0BD00001BAA0000F6
S31500002930E024030038B51546032D0C4601D30120CB
S3150000294032BDFFF783FF2A462146BDE8384008F02E
S3150000295084B838B51546032D0C4601D3012032BD87
S31500002960FFF774FF2A462146BDE8384008F083B8D1
S3150000297038B51546032D0C4601D3012032BDFFF7AD
S3150000298065FF2A462146BDE8384008F08DB838B5BF
S3150000299000F00BF800F00BF828B121462846BDE8F8
S315000029A0344008F08FB8022032BD0C464EE705468B
S315000029B008F030B808F0AEB8084608F0C4B8000011
S315000029C0000002080000000000B10C307047FBE771
S315000029D070B500F007F833462A462146BDE8704038
S315000029E006F0DABE0C4615461E46F0E738B500F08E
S315000029F006F82A462146BDE8384006F0F3BE0C46E6
S31500002A001546E4E70846114606F0E4BD084606F01A
S31500002A1003BE00B10C3006F001BE00B10C3006F06A
S31500002A2000BEF8B584B000F006F806F0B1FE0099D5
S31500002A30216005B0F0BD14466B4600220025002635
S31500002A40002783E8E40025680095ADF8041000B17E
S31500002A500C3069467047F8B5069C0D4616461F466B
S31500002A60FFF7B5FF23463A463146284601B0BDE892
S31500002A70F04005F00EBE000080B54FF40071ADF8D1
S31500002A8000106A460649FFF7B1FFBDF80010B1F520
S31500002A90007F01D0012002BD022808BF002002BD30
S31500002AA060F7002000B10C30704770B505460E4641
S31500002AB007F0EAF9A9690E403400696918BF0124D4
S31500002AC00E436E6107F0E4F91CB100204FF400716B
S31500002AD070BD0020002170BD38B504460D4607F0D4
S31500002AE0D3F9A16962690D4022EA0505656107F01F
S31500002AF0CFF9284632BD80B5FFF7D4FF406902BD45
S31500002B0010B5FFF7CFFF04460121FFF7E5FF20468A
S31500002B10BDE8104006F044BA38B500F008F800F0F9
S31500002B2008F821462846BDE8344008F070B80C463F
S31500002B30B8E705464FF48031CEE7FEE710B500232F
S31500002B40040014BF1C46C3F10304E4B25B1C0A551F
S31500002B50DCB2120A042CF3DB10BD30B502004B7850
S31500002B608C78C878097803D002462546084602E0E4
S31500002B701D460A46234645EA022540EA032040EA66
S31500002B80054030BDAC4A002814BF516011600020DA
S31500002B9070472DE9F04790460F46404600F047FA49
S31500002BA0A54D8146286800240326002804BF6868CE
S31500002BB000285FD019F4406F0AD008F1030000F036
S31500002BC036FA4FF6FF7188420CBF0224012405260F
S31500002BD048209A4910FB07F7C81900F1D6075FEAA3
S31500002BE0496044F0080A11D419F4404F1DD009F485
S31500002BF04060B0F5406F0CBF082002208019C0B2BB
S31500002C00404400F014FA3988884201D1544601E064
S31500002C1044F0040409F44040B0F5004F08BF44F006
S31500002C20800404D019F4404F01D144F4807409F4AF
S31500002C304060B0F5006F09D108EB060000F0F7F927
S31500002C407988884207D144F0100404E0B0F5406F5B
S31500002C5008BF44F020042868002140B102E09442F5
S31500002C6013D0491CCAB230F812201304F7D568688D
S31500002C70002118B90020BDE8F087491CCAB230F817
S31500002C8012201304F6D49442F7D10120F3E7000092
S31500002C902DE9FA4F144683B0204600F0C8F90646DF
S31500002CA006F007010291F00800F0010A9DF80C10E9
S31500002CB0DFF888814820414308EB010B06F44062A7
S31500002CC00BF1D609ADF80420E01CB9F80210ADF8F6
S31500002CD002100027B9F80020ADF8002000F0A7F98F
S31500002CE00546601D00F0A3F94FF6FF718D4208BF3F
S31500002CF0012704D0BDF800108D4208BF02274FF609
S31500002D00FF71884208BF47F0040705D0BDF80210DE
S31500002D10884208BF47F008074FF6F770064003F0F1
S31500002D2007F80025BAF1000F029827D0002871D1C4
S31500002D3002F0FEFF08B9B8076CD5B6F5004F1CBF08
S31500002D40B6F5624FB6F5404F64D1F00648BF45F080
S31500002D508005B00648BF45F4805505F00C000428F0
S31500002D605AD1E01D00F063F998F86C1100912B46DA
S31500002D709DF81010224608F012F853E0032849D8AF
S31500002D80DFE800F00205032ED2E7432050E04FF6BD
S31500002D90CF75DBF8FC20354022B19DF81010204697
S31500002DA0904730B99DF80C1022460020FFF7F1FE3F
S31500002DB008B10825C9E748F6410085422AD10A2FFD
S31500002DC018BF062F26D1790708D599F81B0008B336
S31500002DD0FDF7F4FEF0B940F60405B6E70425B4E7BE
S31500002DE017F0030F05D1B9F800004FF6FF718842BE
S31500002DF010D1BDF804000C25B0F5006FA5D0B0F5D4
S31500002E00406F07D108220BF1DA01601D08F022F8A5
S31500002E1000289AD042200BE098F86C212946002021
S31500002E2007F0E7FF01000FBF19200E990880002068
S31500002E3005B0BDE8F08F000064F90020DCF5002045
S31500002E40F8B504460D0014BF2646661E701C00F039
S31500002E50EEF810F4406F4FF6FF7708D0032200F02B
S31500002E6047F8204400F0E3F8B84217D114E0701C8C
S31500002E7000F0DDF810F4404F10D0701C00F0D7F8C9
S31500002E8000F04000012809DA052200F031F820445C
S31500002E9000F0CDF8B84201D10120F2BD0020F2BD0C
S31500002EA0F8B504460D46280014BF2746671E164689
S31500002EB0781C00F0BCF810F4406F18BF03220DD147
S31500002EC0781C00F0B4F810F4404F0FD0781C00F0D6
S31500002ED0AEF800F04000012808DA052200F008F8F4
S31500002EE0204400F0A4F830800020F2BD0120F2BD9D
S31500002EF02946204602F018BE01468AB20AB94BF6A8
S31500002F00EF610F4A1180000C08BF4FF6CE200D4925
S31500002F100880704702461088030448BF48404100B5
S31500002F201180704710B562210548FFF7F3FF04468C
S31500002F3041F20B010348FFF7EDFF604010BD0000B2
S31500002F4092E7002094E70020EFF31180602181F3DF
S31500002F501188704706F006BD06F006BD10B504469A
S31500002F6007F0CFFF20B92046BDE8104007F0A2BF0A
S31500002F7010BD2DE9FF4104460D4616461F46FFF7D4
S31500002F80E3FF804600F040F80A9802900021019184
S31500002F900097002332462946204607F0B3FF044631
S31500002FA0404600F089F9204604B0BDE8F08170B5CE
S31500002FB00446FFF7C9FF00F026F8204608F081F81E
S31500002FC0002500B90125304600F076F9284670BD87
S31500002FD038B50446FFF7B8FF054600F015F8204659
S31500002FE008F08BF809E038B50446FFF7ADFF054653
S31500002FF000F00AF8204608F086F80446284600F055
S315000030005BF9204632BD06462046A7E770B5044662
S315000030100D46FFF799FFFFF7F6FF2946204608F011
S3150000302079F80446304600F047F9204670BD4178ED
S31500003030007800EB012080B270470020704700B195
S31500003040022070470120704701207047012801D1F6
S3150000305000207047022070470120704738B5447839
S315000030604568FFF771FF0C214C438A498A4B0A5980
S31500003070521B9A4238BF0D51BDE8324000F01CB9D0
S3150000308010B5044608F0A2F86060042020702046BF
S31500003090BDE81040E2E738B504460D4608F096F85C
S315000030A02D186560012020702046BDE83240D5E726
S315000030B010B50446207860B1042806D008F086F8DA
S315000030C06168754B421A9A4201D2002010BD081A57
S315000030D010BD4FF0FF3010BD70B5044608F076F80D
S315000030E00546FFF731FF064660686FF0004100F0C5
S315000030F02DF8451925603046BDE8704000F0DCB873
S31500003100F8B505460E46144608F060F80246002358
S315000031109CB1FF20207010E0087860B1042811D01F
S3150000312048685D4F111AB9420CD3801AB04202D2D8
S31500003130064604B123705B1C083529680029EBD1CB
S315000031403046F2BD04B123700020F2BD0022D7E75D
S3150000315070B5054608F03AF80646504C10E001787E
S3150000316069B1042904D041684B4A711A914206D2CA
S3150000317004230370206069688847002020600835B2
S3150000318028680028EBD170BD10B5044608F01EF87B
S315000031900C2254433F4A404B1159401A984207D2D9
S315000031A014446068FFF7D4FF2046BDE8104093E75B
S315000031B010BD000070B53A4E3A4A1378044670784E
S315000031C0984204D35FF0F60137A0FDF781F97578D0
S315000031D0304A691C71702B460C204343D1180126D6
S315000031E04C600E7200E0457054F8080B0028FAD1C6
S315000031F00846FFF771FF284670BD0000F8B54FF08E
S31500003200FF3100910C24234D05F108016043002293
S315000032100A54234E96F8000020B308F041F820B96E
S3150000322040F22F1120A0FDF753F907F0CFFF024619
S315000032300023DFF864C005E00098814288BF01469C
S3150000324000915B1C7178D8B288420FD2604329582E
S31500003250571A674506D305F10807891A385C08B975
S315000032600029E9D106F017FE0020F2BD684600F0FD
S3150000327010FA10B9684607F0D0FF0120F2BD0C2104
S31500003280044B484318440122027270470348006801
S3150000329070470000E8EE00200100008060F9002081
S315000032A086FD00208A4603006576656E742D636F81
S315000032B06E74726F6C2E630080F311887047FEE7A0
S315000032C02DE9F042914E924C002030703821206852
S315000032D008F032F88F4933782268087838256B432E
S315000032E0D054002230782168684308444270307810
S315000032F02168684308448270FFF714FE327821681B
S315000033006A430A441072FFF70DFE327821686A4359
S315000033100A445072317820687F4A69430144107824
S315000033207E4AC8703378216817686B43C8187C4991
S3150000333047610A7802763078D4F800C0794A126874
S31500003340074615FB07F30CEB0301CA61764AD2F870
S3150000335000902C22574309EB07020CF13407FA5070
S3150000336007F0EEFF3078216801F1340215FB00F515
S3150000337051594A680968BDE8F04201F0EABF80B5D4
S3150000338092B06A460021002000F025FF08B1012016
S3150000339018E06649664A0A910B926649664A0C919C
S315000033A00D9210916548664A6649674B09900F92DF
S315000033B011910E936A460021002000F032FE00B102
S315000033C00120C0B213B000BD80B5002000F01AF88D
S315000033D028B1002000F005F808B1002002BDFF204A
S315000033E002BD4B48494A0168137838204343C81840
S315000033F0807802281CBF1128432801D1012070477C
S31500003400002070474248414A0168137838204343F8
S31500003410C818407801281CBF0228032801D10120C2
S3150000342070470020704700207047702070470020CA
S315000034307047704700207047012070477047002092
S315000034407047704770470020704780B500F020F83D
S3150000345020B10020FFF7D6FF00B1012002BD80B5E4
S3150000346000F016F808B1002002BDFF2002BD10B51D
S31500003470044600F00DF848B100F019F8407801282C
S3150000348018BF022802D10CB9012010BD002010BDC2
S315000034900020A6E780B5FFF7FBFF30B100F007F884
S315000034A04178032901DA002002BDFF2002BD184839
S315000034B0164A0168137838204343C818704770B518
S315000034C000F01FF838214D432C4466680660E47806
S315000034D0047112781B6811FB02F1595C417170BDD1
S315000034E070B500F00EF8066838214D432C4466602E
S315000034F00579E57012781B68407911FB02F1585482
S3150000350070BD024A024B15781C68704784FD002086
S315000035105CE3002058FD0020CCE7002064E3002097
S31500003520BFE7002068E3002060E30020DF08010019
S315000035303BCC0200452B020065C502004B0701008B
S31500003540BFF501004BF901003B2D020000210020D0
S3150000355000F015BF7047002818BF07F057BF704727
S3150000356008F04DBA08F0D2BA33B585B005468DF8E5
S31500003570042004F011FC0446284604F01DFC7CB12E
S315000035800028BDF818000FD104F07EFD8DF800006C
S31500003590FF2804BF00218DF80010CDF808D016E0F2
S315000035A0A8B106A8029012E004F06EFD8DF80000A6
S315000035B0FF2804BF00218DF800109DF80000BDF81B
S315000035C018108DF80C0003AAADF80E100292DDE972
S315000035D001010A460146284608F01CFB07B030BD2B
S315000035E07047002070470020704770477047019869
S315000035F0704770477047704770477047702008F0F3
S31500003600EDBB38B5044643381B4D08D0401E012893
S3150000361009D9801E01280ED9C01F2CD024E0BDE890
S3150000362031400AF005B80AF030F820B10AF000F887
S315000036300028FBD131BD11490878E0B90AF060F8DD
S31500003640442C18D00DD3462C05D014D3472C08D1C2
S3150000365040F6010001E040F60200BDE83240FEF708
S3150000366049BC4FF4957101E04FF49E712846BDE8C0
S315000036703440FCF72DBF31BD181E03005DFD002050
S3150000368070470020704700207047012070470120D6
S315000036907047002070477047FDF741BB10B5DFF853
S315000036A04008DFF838180068DFF83828C860136863
S315000036B048615B0800EB43040C6118B100F016F892
S315000036C0652806D2BDE81040B0210FF63C00FCF795
S315000036D0FFBE10BD10B5DFF804486069E26890428D
S315000036E002D2C02100F09BFA60690CE010B5DFF849
S315000036F0EC4720696269904202D2C62100F08FFA37
S315000037002069626900E0E268801A4FF6FE7108409F
S3150000371010BDDFF8C817CA68904203D349698842CA
S3150000372000F055BB0020704780B510B1FFF7F1FFE0
S3150000373000B1012002BD30B1DFF8A027D168401AE0
S315000037404010401C80B27047010001D10020704734
S31500003750DFF88817CA6802EB4000801E7047408871
S31500003760C0F30C00C01C80084000001D80B27047EA
S3150000377010B50446FFF7F3FFDFF860174A6904EB5C
S3150000378040004FF6FF7400E0801C904202D203888E
S31500003790A342F9D010BD2DE9F843DFF84047804633
S315000037A0E08898B3B8F8020001042FD4DFF8387720
S315000037B00FF2487138680FF2507909F0F3FF20B91B
S315000037C040F28D114846FCF783FE002504E009F01F
S315000037D0E9FF88B16D1CADB2E088854204DB40F29A
S315000037E08F114846FCF774FEA069396800EBC506E0
S315000037F030680028EBD13160B088401CB08040466C
S31500003800FFF7ADFFF18801EB4000F080BDE8F183E2
S3150000381070B50446DFF8C406007801281AD120885E
S31500003820FFF792FF050027D002262C462046FFF719
S31500003830B2FF608840F40040608034F81600FFF75D
S3150000384083FF040002D060880104EFD5761C042EA5
S3150000385012D2EAE702280FD1FFF776FB0546208849
S31500003860FFF772FF18B10088C0F30E0020802846CB
S31500003870BDE87040FFF720BD70BDDFF860160A781E
S31500003880022A08BFFFF7C4BF704738B504460D4685
S31500003890FFF765FF6188C1F30D0161804004020CEA
S315000038A021462846BDE8384009F086BF10B50C46CB
S315000038B001E0FFF75DFFA04202D241880A04F8D575
S315000038C010BD2DE9F14FDFF814560020A88092B004
S315000038D0FFF73AFB6A88ADF8002001212970002124
S315000038E06A6969800192FFF7E7FCE988A869C9005F
S315000038F007F022FD6846FFF78BFF129848B10024B7
S3150000390001E08047641C1298E1B250F821000028BB
S31500003910F7D1EF6800244FF001080DF1080906E021
S315000039200BF1010B5FFA8BF004281CD33446019E81
S31500003930B74200D38CB324B1641EE4B259F824A074
S3150000394003E000F0D5FABA460746BAF8020000F4DA
S315000039504041B1F5004FEAD140F48040AAF8020098
S315000039604FF0020B26465FFA8BF03AF81000FFF78D
S31500003970EBFE0400D4D060880104D1D440F40040AA
S3150000398060802046FFF707FF102EBDBF49F826408E
S31500003990761CF6B24FF00008C2E7B8F1000FB8D0B7
S315000039A0EF68BB46B84615E03846FFF7D8FE044632
S315000039B0788801040BD55846FFF7BDFE398801F417
S315000039C00041084338800BEB440B07EB440800F03A
S315000039D08FFA0746B742E7D3022028706846FFF7FA
S315000039E017FF129848B10026044601E08047761C6E
S315000039F0F0B254F820000028F8D1EC68274613E00E
S31500003A004FF0020937F81900FFF79EFE20B1008833
S31500003A10C0F30E0027F8190009F10109B9F1040FE6
S31500003A20F0D300F065FA07464745E9D30AE00446B5
S31500003A30FFF79EFE4146FFF739FFB842F7D3B7427C
S31500003A402ED1544644454AD22046FFF791FE002C1B
S31500003A508246F6D060880104F3D500F05AF8A042F9
S31500003A6004D16088C0F30D006080EAE704D2014605
S31500003A702046FFF70AFFE4E7264607E05046FFF731
S31500003A8077FE4146FFF712FF54468246C24507D2EB
S31500003A90BAF80000C0F30E00FFF756FE8245EDD3DC
S31500003AA034B100F036F801001CBF2046FFF7EDFEEA
S31500003AB027463046C1E72046FFF751FE06465846E0
S31500003AC0FFF739FE074672002146584609F074FE94
S31500003AD000223946684609F09DFE0BEB460BFFF7C0
S31500003AE033FA06460021A81C09F0EAFEFFF72CFE71
S31500003AF0040006D1BDF8000068800021C5F814B0A6
S31500003B0029703046FFF7D8FB002CD4D113B0BDE89E
S31500003B10F08F2088C0F30E0016E680B5FFF714FE7E
S31500003B20BDE8024000E610B5040012D0FFF7F5FF2D
S31500003B3018B940F27A4100F072F82046FFF704FE09
S31500003B4038B101880A0402D5D0F80A0010BD083041
S31500003B5010BD002010BD10B5010013D0FFF7F4FD15
S31500003B600446FFF7E1FD18B940F2944100F057F81A
S31500003B7044B12088010401D5208910BD6088C0F3B6
S31500003B800C0010BD002010BD2DE9F04100F044F8F6
S31500003B9004003FD0FFF7C8FD0FF26C3718B940F2AA
S31500003BA0A74100F078F82846FFF7D5FF8046204663
S31500003BB0FFF7DEFD464505462CD003DB40F2AF415C
S31500003BC000F069F82088010448BF268122D4668067
S31500003BD02046FFF7C4FD04EB4004FFF7B5F9DFF814
S31500003BE0FC124A692E1BB6B2954204BF4C610026F0
S31500003BF0FFF762FB082E06D231462046BDE8F041AB
S31500003C00FF2209F0B3BE0821204609F0B9FEA6F14D
S31500003C1008006080BDE8F08105460E4694E50FF287
S31500003C20E820FCF755BC38B50D46FFF78DFD0400BE
S31500003C300AD0FFF779FD18B940F2EC41FFF7EFFF24
S31500003C4004EB4500808832BD002032BDF8B50D4634
S31500003C501646FFF779FD04000FF2AC2714D0FFF7E4
S31500003C6063FD18B940F2F74100F015F83046FFF74A
S31500003C706BFDFFF759FD18B94FF49F6100F00BF883
S31500003C8004EB45008680F1BD3846BDE8F44040F2BD
S31500003C90FB41FCF71DBC3846FCF71ABC2DE9F84F72
S31500003CA08846C11C8908DFF8345249000027091DDF
S31500003CB02E690FF2542AB0F5005F04461FFA81F907
S31500003CC004D340F227515046FCF702FCFFF73CF9BB
S31500003CD083466969E86908B9711A03E05FEA080270
S31500003CE002D0411A4E1009E0301A4010064680B242
S31500003CF020B940F24D515046FCF7EAFBB6B24E45AC
S31500003D0014DB6F6907EB49006861E86928B1B8F10F
S31500003D10000F04BF00EB4900E86100207C80B880FA
S31500003D20F88038800834298964182C815846FFF7B2
S31500003D30C3FA3846BDE8F24FFDE4F8B504460D4631
S31500003D40164600210A20FFF7A9FF0746FFF7FCFCED
S31500003D5048B10681C0F80A40018841F4004101805B
S31500003D60C0F80E503846F2BD70B504460D461146F1
S31500003D702846FFF793FF06463CB1300005D0FFF713
S31500003D80D2FE2A46214609F017FD304670BD38B5E9
S31500003D900446FFF7D9F8054600222146534809F0A4
S31500003DA039FD2846BDE83240FFF786BA38B5FFF739
S31500003DB0CBF8044600214D4809F082FD0546204611
S31500003DC0FFF77AFA284632BD44484188481E8041AA
S31500003DD0C00F70472DE9FE4F0446884620881646D8
S31500003DE09B46FFF7B1FC0746FFF79EFC18B940F269
S31500003DF09161FFF714FF38880104354603D53889E9
S31500003E002D183D8167E000F077F8019000F070F81A
S31500003E108146FFF799F800968246304E70698145D3
S31500003E201DD1FFF763FCA84203D25046FFF744FAC0
S31500003E3021E001982D18BBF1000F7D8008D0208865
S31500003E40FFF771FE019B009A41461844FEF780F881
S31500003E5000F04EF870615046FFF72EFA3BE05046F0
S31500003E60FFF72AFA00F048F82D180021A8B2FFF74C
S31500003E7015FF070001D11A202EE000F03DF8054697
S31500003E802088FFF750FE06463846FFF74CFE2A46C6
S31500003E903146FEF75DF8BBF1000F384609D0FFF753
S31500003EA042FE00F028F8009A41462844FEF750F8F2
S31500003EB007E0FFF738FE00F01EF80099284409F0E5
S31500003EC05FFD20880121FFF7AEFE0246012138463C
S31500003ED0FFF7BCFE27800020BDE8FE8FACF5002072
S31500003EE02CE3002030E30020E0E60020AEF50020C1
S31500003EF03846FFF73DBC054620882CE6756E636C98
S31500003F0061696D65640000006275666665722D6D97
S31500003F10616E6167656D656E742E630038B5DFF896
S31500003F20004A04F5B270FFF773FC002505E004EBC8
S31500003F30C0008030FFF76CFC6D1C94F8C010E8B22E
S31500003F408842F4D331BDF8B5DFF8D449002084F8AF
S31500003F507F00002504EBC50202F1800608213046E9
S31500003F6009F00EFD6D1C0022082D32807260F1DB17
S31500003F7000254FF6FE76482068432718482107F1AA
S31500003F80D40009F0FDFC07F1D6006D1C4FF6FF7159
S31500003F900022012D468086810180C276EBDD7F21DD
S31500003FA0204607F0C9F904F1C00000210022017083
S31500003FB0426081600173026104F5B2700180FF21E5
S31500003FC08170C17042600272FEF7ACFFDFF85419CF
S31500003FD00870FF220221DFF8500909F0C7FC012111
S31500003FE00020FCF7CFFB002000F0C8F90020F2BD4E
S31500003FF0F0B502460020002314464FF4B875DFF8EA
S3150000400020196C43DEB248270D197E43AF1997F885
S31500004010F11001B1401C5B1CD9B20229ECDBC0B225
S31500004020F0BD2DE9F04188464646022E0346154668
S315000040301CDA00214827DFF8E84818464FF4B87222
S315000040405043221817FB01FC6244D432507F0028EB
S315000040501EBF687F0028B1420AD1491CC9B2022995
S31500004060EBDB29781846FCF7F6FD60B9212026E03F
S31500004070DFF8B8080178022903DB1078297888422E
S31500004080EFD002201BE004F1D4007E4348222946EB
S315000040903044FDF75DFF0020FCF78AFD70B194F80F
S315000040A06C01404504BF002000F075F80020FFF7C2
S315000040B09FFF0228A4BF002000F04AF80020BDE8B8
S315000040C0F08110B50446FFF793FF0228204602DB75
S315000040D000F03EF801E000F05EF8002010BD70B57B
S315000040E01646044672880D46FCF74FFDB2882946EF
S315000040F02046FCF73AFDB21D29462046BDE8704031
S31500004100FDF76FBB38B504460D46FCF783FD2978ED
S31500004110814203D02046FCF780FDC0B92046FCF75B
S315000041206EFD95F90110814203D02046FCF75BFD38
S3150000413068B9204600F077FB05462046FCF738FDB7
S3150000414020B129462046FCF742FD00B9002032BDC9
S31500004150F8B518B9FFF74CFF022801DD0120F2BDC2
S31500004160DFF8BC670024482506F1D407E1B26943AD
S315000041707A18507F18B1E1B20020FFF7B0FF641C37
S31500004180E0B20228F2DB96F86C0115FB00F579190E
S31500004190BDE8F4401DE001464FF4B87210B5DFF8F3
S315000041A0803751435A18482192F86C414C431119F3
S315000041B001F1D40418B993F86C01022801DB01203F
S315000041C010BD224600210020FFF789FF2146BDE8E9
S315000041D01040002096E710B50229104601DB212089
S315000041E010BD4822DFF8384712FB01F1631803F1CE
S315000041F0D401FDF7ADFE002010BDA0B9022912DAE8
S315000042004822DFF81C0751430144D431086A0028CC
S315000042101CBF486A00281EBF48884FF6FF718842B7
S3150000422001D0012070470020704710B500F0D4FA85
S3150000423053F8C40F002804BF187A002801D10800DB
S3150000424001D1212010BD19605A60DFF8E406FEF79F
S3150000425017FF002010BD4FF4B871DFF8C42648439D
S3150000426080B5104400F1C801002388680B600B710B
S3150000427018B18B600020FCF73BFD0020FFF721FF03
S31500004280002002BDF8B5DFF8A82600211170002035
S31500004290FCF78EFC002870D0DFF8845695F87F1066
S315000042A04826C80705F5B27420D501F0FE0185F849
S315000042B07F1009F083FB074695F87F00810744BF0E
S315000042C0384609F061FB3946002009F093FC20804E
S315000042D00020217AE07016FB01F6A919A770D1F823
S315000042E0140160600020BDE8F240A9E005F1C007B6
S315000042F0387898B105F18006D6E90001C4E90001D5
S31500004300002000F09DF83A78D20005F18801304689
S3150000431009F052FA3878411E3970F1BD7A681000FA
S315000043200AD0012000213873796000209047BDE84B
S31500004330F4400021002037E0880718D409F056FB26
S31500004340A8B9207A022807DA16FB00F6A819D0F8D1
S31500004350080108B1804780B9FFF736F8397B61B9A3
S31500004360FF2818BF2072BDE8F2400020A9E600F041
S31500004370D0F80020BDE8F24000E0F1BDD3E010B572
S315000043800446084609F000FB4FF4B870DFF89015B4
S315000043904443081990F87F2042F0020280F87F20FB
S315000043A00020BDE81040E9E74FF4B871DFF870254A
S315000043B04843104490F87F3003F0FC0380F87F30C8
S315000043C07047F8B502290C46154601DB2120F2BDDF
S315000043D000F030F8161806F1C007786820B9387B67
S315000043E0002818BF022B01D00120F2BD3A78082A16
S315000043F01EDA012B08BF4FEAC20C08D0D20006F124
S31500004400800106F1880009F0D7F94FF0000C0798F3
S31500004410069906EB0C0222F8805FD070947051600A
S315000044203878401C38700020FFF7A8FF0020F2BD46
S315000044301C20F2BD4FF4B871DFF8E42448437047FE
S315000044402DE9FE434FF4B87148438046DFF8D09417
S3150000445009EB080606F5B277BD78397AA94203D08A
S315000044603D720020FFF72DFE482111FB05F174185F
S31500004470324694F9D5008DF8080028463F8839461B
S3150000448000F032F90246D4F8F840012034B102A80F
S3150000449001900095002331463846A04719F80810C8
S315000044A031B9002000F00BF80020FFF767FF04E0A9
S315000044B0024631460020FCF786FABDE8F783F8B5D8
S315000044C0044623464FF4B870DFF854244343D51806
S315000044D005F5B2777E68320003D0FB783A88002073
S315000044E0B047397A48204143002368183B80D0F80A
S315000044F0142196420CD095F87F00810702D409F06A
S3150000450075FA28B100F005F82046BDE8F24035E717
S31500004510F1BD95F87F0000F0FD0040F0010085F840
S315000045207F00704700BFDFF80804FEF7A9BD2DE93C
S31500004530F34F054687B00846FFF7F5FA040054D056
S31500004540BDF82000FFF707FB6178277801F0070127
S31500004550022908BF01202AD004A900220023C1E9AC
S315000045600023C0B22044A0F108020DF1100A106821
S31500004570086050689AF803809AF802904860ADF88F
S315000045800430DFF8B0139AF8010000F00F0B08783A
S31500004590CDF818B000281EBFDFF89C130B68002B5F
S315000045A006D04FFA89F2414620469847002085E01A
S315000045B009220021601C01F0B7FA0646BF1BB81E8F
S315000045C040B20290029900290FD40699D44F482090
S315000045D04143781800F1F402039293693BB1BDF8A8
S315000045E0200000220121984708B9212066E001A891
S315000045F00090621C02990698CBB2C1B20020FEF769
S3150000460047FBC0B20028009057D1BDF8040006F061
S3150000461027FB00281EBF0398C269002A07D0601C2A
S315000046208119BDF80400904708B9022046E0BDF89C
S31500004630040006F003FC0690BDF8040006F010FB2B
S3150000464058B3601C8119029A0698FDF781FCBDF8E3
S315000046500400FFF768FA80F802B080F8088080F856
S3150000466009909DF8101081729DF816209DF815107E
S31500004670120242EA01429AF807100A43C2604FF456
S31500004680B87255437A19C8321079BDF8041000285B
S3150000469012BF1268039802680BE00298861901237C
S315000046A0F2B2611C01A8FFF795FB0028CFD01920B4
S315000046B004E010001CBF08469047009809B0BDE80A
S315000046C0F08F000038B5FFF7B5FE12EB0005D5F800
S315000046D0D04024B940F2313198A0FBF7F9FE002111
S315000046E0C5F8D010A04731BD2DE9F84305468946E7
S315000046F04846144606F0A7FB0746484606F0A9FAC0
S31500004700661C042822D1484606F0C4FA4FF6FF710B
S3150000471048F64108884218BF48F661084820804993
S3150000472010FB05F5481900F1D605F01C298809F09B
S315000047306FFB484606F0AEFA0146701D09F068FBAD
S315000047406988F01D09F064FB093603E0601CFEF77A
S315000047506EFC8046484600F092FF08B148F010080B
S315000047604146601C09F054FB484606F067FB00F022
S315000047701FF801214846FFF756FA05003E4408D0C7
S31500004780FFF7E9F9C7B22846FFF7CDF900F010F8B0
S315000047903E4464480178E170361B491C0170761C62
S315000047A026702046BDE8F8430922012101F0BCB974
S315000047B001463A463046FDF7CBBB10B500F00CF883
S315000047C0D3F8D00008B1022010BDC3F8D0101146AE
S315000047D0BDE81040FCF779BA4FF4B873504C584313
S315000047E0231870477CB50C46002B0CBF8821082186
S315000047F04FF4B8734A4E58430644154696F86C2152
S31500004800204606F0F6FA010001D1012076BD069A8F
S31500004810009200210191024696F86C112B46002069
S31500004820FFF7CFFD76BD4FF4B8713D4A48431118E6
S31500004830482291F86C315343CA1892F8F10028B90E
S3150000484091F8CC00401E8041C00F70470020704791
S315000048504FF4B871324A4843104490F86C017047DF
S3150000486038B54FF4B8722E4950430C1804F1C00500
S31500004870297B81B90020FCF79BF960B12C490878A7
S31500004880002804BF94F87F00002804D12978481E28
S315000048908041C00F32BD002032BD2DE9F0470D46E4
S315000048A092461C46002708B1012021E000264FF65B
S315000048B0FF78DFF86C90F1B20020FFF79EFC88B11C
S315000048C0F0B248214843484410F8D42F524509D144
S315000048D045451CBF4088A84204D10122B240174377
S315000048E0454503D1761CF0B20128E4DD277000208F
S315000048F0BDE8F08770B578B9094BC4B248256C435A
S315000049001C4414F8D46F8E4204BF6488A24205D0BA
S31500004910401CC5B2022DF0DBFF2070BDC0B270BDD9
S31500004920DCF5002085FD002038FD0020D3E70020BF
S315000049304CF70020BBE8002080F2002075707065FF
S31500004940722D6D61632E63004901020003D4DFF806
S31500004950B00481547047DFF8AC3402F00F021A44F9
S3150000496002F8041C704730B500F007000123C0F1BF
S315000049700704042C2EBF072403FA04F4641EC51C86
S31500004980072D34BF0020001F2140814003FA00F0AC
S31500004990401E1040084330BD00207047002070477D
S315000049A070471CB572B6FDF7DDF8DFF85C04DFF87A
S315000049B05C444169216000F0E0F901466FF00B00AC
S315000049C0FFF7C2FF00F0D9F901466FF00A00FFF7C2
S315000049D0BBFF00F0D2F901466FF00900FFF7B4FF04
S315000049E000F0C3F901466FF00800FFF7ADFF00F0D5
S315000049F0BCF901466FF00700FFF7A6FF00F0B5F916
S31500004A0001466FF00600FFF79FFF00F0AEF9014682
S31500004A106FF00500FFF798FF0022022100F0A7F9CA
S31500004A2001466FF00400FFF78FFF00F0AAF9014678
S31500004A306FF00300FFF788FF00F097F901466FF06B
S31500004A400200FFF781FF0022072100F090F90146DE
S31500004A506FF00100FFF778FF00F093F901464FF081
S31500004A60FF30FFF771FF00F08CF901460020FFF7D9
S31500004A706BFF0022032100F07AF901460120FFF7BF
S31500004A8063FF00F076F901460220FFF75DFF00F0B4
S31500004A9070F901460320FFF757FF00F072F901464F
S31500004AA00420FFF751FF00F06CF901460520FFF7DF
S31500004AB04BFF00F066F901460620FFF745FF00F0C0
S31500004AC060F901460720FFF73FFF00F05AF901465B
S31500004AD00820FFF739FF00F054F901460920FFF7D7
S31500004AE033FF00F04EF901460A20FFF72DFF00F0D4
S31500004AF048F901460B20FFF727FF00F042F901466F
S31500004B000C20FFF721FF00F03CF901460D20FFF7CE
S31500004B101BFF00F036F901460E20FFF715FF00F0E7
S31500004B2030F901460F20FFF70FFF00F02AF9014682
S31500004B301020FFF709FF00F024F901461120FFF7C6
S31500004B4003FF00F01EF901461220FFF7FDFE00F0FC
S31500004B5018F901461320FFF7F7FE00F012F9014697
S31500004B601420FFF7F1FE00F00CF901461520FFF7BF
S31500004B70EBFE00F006F901461620FFF7E5FE00F011
S31500004B8000F901461720FFF7DFFE00F0FAF80146AC
S31500004B901820FFF7D9FE00F0F4F801461920FFF7B8
S31500004BA0D3FE00F0EEF801461A20FFF7CDFE00F026
S31500004BB0E8F801461B20FFF7C7FE00F0E2F80146C1
S31500004BC01C20FFF7C1FE00F0DCF801461D20FFF7B0
S31500004BD0BBFE00F0D6F801461E20FFF7B5FE00F03A
S31500004BE0D0F801461F20FFF7AFFE00F0CAF80146D5
S31500004BF02020FFF7A9FE00F0C4F801462120FFF7A8
S31500004C00A3FE00F0BEF801462220FFF79DFE00F04D
S31500004C10B0F801462320FFF797FE00F0B2F80146F0
S31500004C202420FFF791FE00F0ACF801462520FFF79F
S31500004C308BFE00F0A6F801462620FFF785FE00F061
S31500004C40A0F801462720FFF77FFE00F09AF80146FC
S31500004C502820FFF779FE00F094F801462920FFF797
S31500004C6073FE00F08EF801462A20FFF76DFE00F075
S31500004C7088F801462B20FFF767FE00F082F8014610
S31500004C802C20FFF761FE00F07CF801462D20FFF78F
S31500004C905BFE00F06AF85E49400108704FF6FF00BF
S31500004CA06168014041F0BF6141F4013161604FF438
S31500004CB0E021E06840F40070E060E06840F0100039
S31500004CC0E060E16109F0C3F809F058F9EFF30880F4
S31500004CD0001F50494FF0CD3201E040F804298842C8
S31500004CE0FBD24D494D4889B208F04AFE62B64C489F
S31500004CF001214164026842F480720260684609F04C
S31500004D008FF99DF80100012803DC9DF800000328B7
S31500004D1009DB4448444A454B4FF418710160426030
S31500004D2043664349C1664348434A016841F4F84132
S31500004D30016001201060FDF78DFC09F016FA0621CE
S31500004D40684606F0F9FA01208DF80300684605F07A
S31500004D507EFA09F08BFA06F04BFA09F0A3FA09F08D
S31500004D60ABFC364804F0BAFF13BDFF22FF21042036
S31500004D70F9E5002201210420F5E5002200210420A6
S31500004D80F1E5002204210420EDE540F20160FDF783
S31500004D90B1B8FDF7FDB880B500210B20FDF7F0F89E
S31500004DA0BDE80140FDF7F5B8002818BFFEF721BCA5
S31500004DB0FEF720BC032009F034BD000010B509F051
S31500004DC01EF9044609F01FF9C0B220B9012C0BD117
S31500004DD044F0800010BD072CFAD8DFE804F0050483
S31500004DE00709090B0D0FF3E7002010BD092010BDC0
S31500004DF0022010BD032010BD0B2010BD062010BDE3
S31500004E0000E400E018ED00E00000000008ED00E01E
S31500004E102EE400E068D80020842C0000A0000020CA
S31500004E2000000E408C420E409A6F050018010004E7
S31500004E3000843208A4310E4010300E40001F0300DB
S31500004E4000B10C3070477CB50D460446287858B939
S31500004E500021204604F072FA0021204604F0D6FA1A
S31500004E600021204604F0DCFA2878002814BF04202C
S31500004E70287900F027F814BF287968798DF80100A1
S31500004E802046FDF7BFFB06001AD12878002814BF7C
S31500004E900220A87900F016F814BFA879E8798DF8F1
S31500004EA001002046FDF799FB060009D1287838B1A4
S31500004EB06988204604F069FA0121204604F03EFA8A
S31500004EC0304676BD8DF80000694628780028704780
S31500004ED010B50C46FFF7B4FF2146BDE8104004F0BC
S31500004EE095BA80B5FFF7ACFFBDE8024004F0A2BA60
S31500004EF0F8B5002818BF0029164601D0412E01DB5F
S31500004F002120F2BDDFF82855286269620027DFF804
S31500004F102405067011E02A6A18237B43D418002062
S31500004F200021C4E90401D054FF22286A18447F1CDA
S31500004F304180001D082108F019FDB742EBDB686AC5
S31500004F40710008F01DFD0020F2BD70B500F05DF99E
S31500004F5009B9022070BD18B900F0F2F8B44201D3C5
S31500004F60212070BD18256C430C44207820B9207C84
S31500004F70C10701D52E2070BDDDE90401002525708D
S31500004F806280221D1D68156040F001005D68556055
S31500004F90C4E90401002070BD10B500F037F909B965
S31500004FA0022010BD00F01CF901D3212010BD1822EB
S31500004FB0504308440024C0E9044404704480FF229E
S31500004FC00821001D09F078FC002010BD0246DFF81C
S31500004FD06004016A00294FF6FF7000D1704730B5B2
S31500004FE000F0B2F8AA4206D218235A4311440A7CAA
S31500004FF0D30748BF488830BD10B500F007F951B156
S3150000500000F0EEF807D2182250430844017CCA0784
S3150000501001D5001D10BD002010BDF8B50446DFF80F
S315000050201004056A002D18BF002C13D0002600E0DE
S31500005030761CDFF800140B78F0B298420AD21827D3
S31500005040784300F032F80028F2D1387CC107EFD55A
S315000050507888F2BD4FF6FF70F2BD2DE9F0410646A5
S31500005060DFF8CC03056A0C46E5B1DFF8C80390F813
S315000050700080464516D2002CF0B207D118214843CD
S315000050802844027CD00709D4F0B20CE01823584318
S3150000509000F00BF810B9387CC107F5D4761CF0B2D5
S315000050A04045E8D3FF20BDE8F0812F1808222146AD
S315000050B0381D05F0CFBE70B50246DFF87403016AED
S315000050C091B10020182600E0401C00F03DF8C3B264
S315000050D0AB4209D273430B445C889442F4D11B7CE7
S315000050E0DC07F1D5C0B270BDFF2070BD01460020BF
S315000050F0B3E710B50C46FFF7DEFFFF2808D0FFF731
S315000051007BFF28B10168216041686160012010BD04
S31500005110002010BD70B500F07CF87AB14FF6F87437
S31500005120A14203DA00F00CF8B04201D3212070BD91
S3150000513000F00EF802D54180002070BD022070BD3F
S31500005140DFF8F0522E787047DFF8E842257870478E
S31500005150182358431044027CD307704710B5044601
S3150000516005F08AFDB0F5006F204602D105F092FDEC
S3150000517002E005F0A0FD02E0BDE810409BE7BDE8B7
S315000051801040B3E730B5AA4C216AB1B1A94B1D78DE
S31500005190A84210D2182212FB00F21144D1E90423CE
S315000051A0D1070AD5646A34F8100010F4E26F08BF1C
S315000051B012F00C0002D0012030BD002030BD10B529
S315000051C000F024F851B100F00BF807D200F033F8E4
S315000051D004D50006000F00F0010010BD002010BD30
S315000051E0944B1C78A042704710B500F00FF851B1EF
S315000051F0FFF7F6FF07D2182250430A18137CDA0786
S3150000520001D5085C10BDFF2010BD0C468849096A0F
S315000052107047874A126A704710B5FFF7F7FF09B95A
S31500005220002010BDFFF7DCFF02D200F004F801D425
S315000052300020002110BD182250430844D0E9040183
S31500005240C2077047F0B501467948006A08B90220DE
S31500005250F0BDFFF775FFB14201D32120F0BD182440
S315000052606143014401260027D1E90445BB4208BF3A
S31500005270B24203D0E00701D42D20F0BD05980028E6
S3150000528019BF22432B4324EA020225EA0303C1E99C
S3150000529004230020F0BDF0B5654B1B6A0BB9022054
S315000052A0F0BD002612E018256C431F19D7E9044506
S315000052B004F0030CBCF1010F07D1002A07BF844399
S315000052C08D4304430D43C7E90445761C594D2F7899
S315000052D0F4B2BC42E7D30020F0BD2DE9F042FFF75F
S315000052E098FFA2B1534C94F800900023182700E0D1
S315000052F05B1CDCB24C450AD27C431444D4E9045608
S3150000530005400E4008BF002DF2D0012000E000202D
S31500005310BDE8F08210B5FFF7CEFEFF2804460DD09B
S31500005320FFF77AFFC00709D52046FFF775FF00068D
S31500005330400E00F0010080F0010010BD002010BDFD
S3150000534080B5FFF7B8FEFF2801D0012002BD00207E
S3150000535002BD022807DA364B43F8301003EBC000D3
S315000053604260002070470120704731490B6A0020D7
S31500005370C2B251F832209A4205D0401CC2B2022A6B
S31500005380F6DBFF207047C0B270470000F8B52A4C24
S31500005390054694F9000010F1010F04DA40F21E21CF
S315000053A026A0FBF795F8FDF7CFFD012DDEBF94F99A
S315000053B00020511C01291BDC1D4B53F83510002918
S315000053C01EBF03EBC5067168002911D0521C57B2E7
S315000053D003EBC7011F6A0F615F6A4F6153F835100F
S315000053E0196275685D622270FDF766FF0020F2BDE6
S315000053F0FDF762FF0120F2BD38B50F4C94F90000AD
S31500005400002804D54FF411710CA0FBF761F8FDF7E5
S315000054109BFD94F90010064A02EBC103491E1D6963
S3150000542015625B6953622170FDF746FF002032BDAD
S315000054306CF90020F1E70020F2E700206D61632D92
S315000054406368696C642E6300DFF8C01608637047F2
S31500005450DFF8B81600220A704A818A81C88170472F
S3150000546010B5DFF8A84604F10A00FEF7D1F904F1F9
S315000054700C00BDE81040FEF7CBB9DFF89016C881E6
S3150000548070472DE9FC41804605F092FEDFF87C6608
S31500005490F78905464046FFF761FE0446404605F09B
S315000054A0EBFBB0F5006F25D1FF2C07D1306BF8B1BF
S315000054B0404605F0EFFB316B8847C8B101210091EA
S315000054C0042200232046FFF7BDFEFDF73DFD0446FE
S315000054D00022414606F10C0008F09CF92046FDF733
S315000054E0EBFE3078F8B130892D1A17FA85F71FE0F0
S315000054F02D2024E006F10A0008F073F9052810DAD9
S315000055002046FF2805D00121009108220023FFF73D
S3150000551099FEFDF719FD04460022414606F10A00F0
S31500005520DAE71C200BE0358139463046FDF7B3FD3E
S315000055304046FEF7F8FA0321078181720020BDE894
S31500005540F68180B5FFF7D2FDFF2801D1012002BD0B
