S01800004E43505F5553575F52455833505F3731302E733337D5
S113000000100020291A0300DDF3020051F402005D
S1130010331A030055F4020059F40200331A0300A2
S1130020331A0300331A0300331A0300331A03008C
S11300305DF40200BC010000331A0300331A03000C
S1130040331A030085E90000331A0300331A03004E
S1130050ADE30000BDE900008BE900008DE900007C
S113006087E90000331A0300331A0300331A03002C
S11300702909010025090100331A0300331A03007A
S1130080331A0300331A0300331A0300331A03002C
S1130090331A0300331A0300331A0300331A03001C
S11300A0331A0300331A0300331A0300331A03000C
S11300B0BFE9000089E90000DDF9000045640000A3
S11300C0F3E90000331A030015190300331A03007F
S11300D0331A0300331A0300331A0300331A0300DC
S11300E0331A0300331A0300331A0300331A0300CC
S11300F0331A0300331A0300331A0300000000000C
S1130100000000000000F03F000000000000244058
S113011000000000000059400000000000408F4033
S1130120000000000088C34000000000006AF8409E
S11301300000000080842E4100000000D0126341C2
S11301400000000084D797410000000065CDCD4138
S1130150000000000000000000000000000000009B
S1130160000000000000000000000000000000008B
S113017000000000453A5C53696D706C69636974F2
S11301807953747564696F5F563730305C53444BF0
S1130190735C70726F746F636F6C5C7A69676265AD
S11301A0655C737461636B5C6672616D65776F72B5
S11301B06B5C6165732D6563622E630013B779FA16
S11301C0C925DDB7ADF3CFE0F1B614B801020000E4
S11301D000000000FFFFFFFF01000000010000001D
S11301E0000000000000000000000000000000000B
S11301F000000000000000000000000000000000FB
S1130200000000000000000000000000453A5C53BC
S1130210696D706C696369747953747564696F5F2F
S1130220563730305C53444B735C706C6174666F4A
S1130230726D5C736572766963655C6C6567616336
S1130240795F6E63705F6173685C7372635C617322
S1130250682D6E63702E6300453A5C53696D706C53
S1130260696369747953747564696F5F56373030A4
S11302705C53444B735C706C6174666F726D5C7339
S11302806572766963655C6C65676163795F6861F3
S11302906C5C7372635C626173652D7265706C6112
S11302A063656D656E742E630000000013B779FA00
S11302B0C925DDB7ADF3CFE0F1B614B801020000F3
S11302C000000000FFFFFFFF01000000000000002D
S11302D0000000000000000000000000000000001A
S11302E0000000000000000000000000000000000A
S11302F000000000000000000000000000000000FA
S113030000000000000000000000000000000000E9
S113031000000000000000000000000000000000D9
S1130320453A5C53696D706C69636974795374758B
S113033064696F5F563730305C53444B735C707242
S11303406F746F636F6C5C7A69676265655C737404
S113035061636B5C6672616D65776F726B5C63631E
S11303606D2D737461722E6300000000010400009F
S1130370050B060B070B0000000000000103010938
S11303800600010500000000000000000306000054
S1130390496E69743A2064656661756C74204343E0
S11303A041206D6F64652073657420746F2025642B
S11303B03A2030782558000040787D010000000084
S11303C0005A620200010000C0CF6A00020000006F
S11303D0809FD50002010000002D310102020000BF
S11303E00100000000000000040000000100000003
S11303F008000000010000001000000001000000DF
S11304000001000001000000000800001D000000C1
S1130410000200001D000000000400001D00000098
S1130420000001001D00000002010A0006000A008D
S113043026002A0000800000401F00000000E40C99
S11304400A00000081F402008BF402008FF4020021
S1130450BBF4020019F50200BDF40200F1F402003D
S11304602C000000C800FCFEFC00D80A066CFBFF50
S11304708800370518E2FEFF53000403F5E3FFFF8D
S11304803200B9019D43000029005701F8570000CC
S11304901600D100585700000E007C00D04900001F
S11304A00700280017290000C800FCFEF800C50A50
S11304B0571EFBFF7B0095047C02FFFF4A00B60237
S11304C046DFFFFF2D00AD01412F00001C00070196
S11304D0854700001200A700974600000B00670044
S11304E01A3C0000060022006823000083FFBFFFBF
S11304F0E2FFF1FFF9FFFEFF00000000000800FC2E
S11305006404000001000107EC040000000800F886
S1130510A80400000000000000000000646562758B
S1130520670000000300000076636F6D00000000A8
S1130530767561727400000000CA9A3B00E1F5050B
S11305408096980040420F00A0860100102700000A
S1130550E8030000640000000A00000001FF01003D
S113056023E1010075E4010063E2010063E5010099
S113057062E1010079EB010064EE010024E1010075
S113058025E1010026E1010027E1010028E1010045
S113059029E101002AE101000000010080000100BE
S11305A0000101008001010000020100800201003D
S11305B020E20100000301000005010080050100A4
S11305C000060100800601000007010001E50100AA
S11305D002E5010058E201008003010080040100EB
S11305E000040100800701000008010080080100E8
S11305F000010001010000000000000000000000F4
S113060000000000000100000000000000000000E5
S113061000000000000000000000000000000000D6
S113062000000000000000010101010101000101BE
S113063001010101000000010101010101000000AC
S113064002041104040211101A080A021801081104
S113065010111A080A04020D0B195C011028123437
S11306600430040B0100000001010101010101013A
S1130670010101010101010000000000000100204E
S1130680200C002001010105000000000000000012
S11306900000000000000000000000000000000056
S11306A00000000000000000000000000000000046
S11306B00000000000000000000000000000000036
S11306C000000000FFFFFF00000000000000000029
S11306D00000000000000000000000000000000016
S11306E00000000000000000000000000000000006
S11306F000000000FFFF0000FFFFFFFFFFFFFFFF00
S1130700FFFF0000FF0000000000000000000000E8
S1130710000000000000000080000000FFFFFFFF59
S1130720FFFFFFFF000000000000000000000000C9
S113073000000000000000000000000000000000B5
S113074000000000000000000000000000000000A5
S11307500000000000000000000000000000000095
S11307600000000000000000000000000000000085
S11307700000000000000000000000000000000075
S1130780FFFFFFFFFFFFFFFFFFFF0000000000006F
S11307900000000000000000000000000000000055
S11307A00000000000000000000000000000000045
S11307B00000000000000000000000000000000035
S11307C00000000000000000000000000000000025
S11307D00000000000000000000000000000000015
S11307E00000000000000000000000000000000005
S11307F000000000000000000000000000000000F5
S113080000000000000000000000000000000000E4
S113081000000000000000000000000000000000D4
S113082000000000010000000000000000000000C3
S113083000000000000000000000000000000000B4
S113084000000000000000000000000000000000A4
S1130850000000000000000000000000FFFFFFFF98
S1130860FFFFFFFFFFFFFFFFFFFFFFFFFF00000091
S1130870FF000000FFFFFFFFFFFFFFFFFFFFFFFF81
S1130880FFFFFFFFFFFFFFFFFFFFFFFFFFFFFFFF74
S1130890FFFFFFFFFFFFFFFFFFFFFFFFFFFFFFFF64
S11308A0FFFFFFFFFFFFFFFFFF00FFFFFFFFFFFF53
S11308B0FFFFFFFFFFFFFFFFFFFFFFFFFFFFFFFF44
S11308C0FFFFFFFFFFFFFFFFFFFFFFFFFFFFFFFF34
S11308D0FFFF0000FF00FF00FFFFFFFF000000001C
S11308E000000000000000006C1A030090060000E5
S11308F094060000A8060000AC0600006E1A03006F
S1130900B0060000C4060000D4060000F006000093
S1130910F8060000701A030004070000C51A03005B
S11309201C070000240700003807000048070000E7
S11309305C07000078070000800700008C070000B7
S1130940721A030090070000A0070000AC07000023
S1130950C8070000C61A0300240800003408000079
S11309605C08000070080000A4080000A80800004B
S1130970D8080000DC080000C71A0300453A5C539D
S1130980696D706C696369747953747564696F5FB8
S1130990563730305C53444B735C706C6174666FD3
S11309A0726D5C736572766963655C746F6B656E9A
S11309B05F6D616E616765725C7372635C736C5FBB
S11309C0746F6B656E5F6D616E616765722E630037
S11309D0453A5C53696D706C6963697479537475D5
S11309E064696F5F563730305C53444B735C706C92
S11309F06174666F726D5C736572766963655C744D
S1130A006F6B656E5F6D616E616765725C73726357
S1130A105C736C5F746F6B656E5F6D616E75666140
S1130A2063747572696E672E63000000453A5C5307
S1130A30696D706C696369747953747564696F5F07
S1130A40563730305C53444B735C70726F746F6311
S1130A506F6C5C7A69676265655C6170705C667214
S1130A60616D65776F726B5C636F6D6D6F6E5C7AD1
S1130A7069676265655F6170705F6672616D6577F5
S1130A806F726B5F636F6D6D6F6E2E63000000009D
S1130A90453A5C53696D706C696369747953747514
S1130AA064696F5F563730305C53444B735C7072CB
S1130AB06F746F636F6C5C7A69676265655C6170A3
S1130AC0705C6672616D65776F726B5C636F6D6D80
S1130AD06F6E5C7A69676265655F6170705F66728C
S1130AE0616D65776F726B5F736C6565702E630003
S1130AF00000000001000000020202026400000085
S1130B00000000006400000000000000000000007D
S1130B1000000000000000000B000000B98000008D
S1130B20418100004D810000858100009B8100000F
S1130B30274A00002B4A00002F4A0000334A0000D5
S1130B40374A0000C1490000EF490000F94900009C
S1130B50094A0000014A00002F9100006B91000037
S1130B608D910000A3910000C9910000611600203E
S1130B7068160020721600206516002063160020F7
S1130B806416002066160020831600206467002087
S1130B90791600207B160020731600204D67002074
S1130BA08B1600207C1600207D1600205067002044
S1130BB0536700209D160020691600201F6700203F
S1130BC09C160020675D0100CD4F010019B20100A1
S1130BD027320200F3DF01008F3000001F360000CF
S1130BE0C7390000CF390000A7390000EDA8010083
S1130BF05D780200C9E802006B000200098E020061
S1130C006F300000DFA10200B5A202003BD6020053
S1130C10E595020075360200F395010001560200C5
S1130C20F94B0100000000000B000000FFFFFEFF75
S1130C300000000000000000FEFF000000000000B3
S1130C400000000000030001DD930200E7650100DD
S1130C500000000000000000000000004F4E0200F1
S1130C606B95020059890100A993020093A8010021
S1130C70FFFFFFFFFFFFFFFFFFFFFFFF000000007C
S1130C800000000000000000000000000000000060
S1130C900000000001100000781A03000210000098
S1130CA07A1A0300030200007C1A030005100000F6
S1130CB0881A030007080000841A030000020000D9
S1130CC0741A0300040200007E1A0300095C000089
S1130CD08A1A03000A1400008C1A03000D02000093
S1130CE0861A03000C080000761A030000000000B6
S1130CF048010000501C0020BF0007010000AA00AA
S1130D000700100008001A0006001100020011007C
S1130D100400040001000400090008000A000A009D
S1130D200B00020000000000D21A0300CA1A0300DC
S1130D30E71A0300D51A0300D41A030000000000C8
S1130D40BC1A0300BE1A030000000000C01A03000E
S1130D50E21A0300E81A0300D71A0300BD1A0300BD
S1130D6000000000C11A0300DA1A0300C21A0300CB
S1130D70DF1A0300BF1A0300C31A030001000000B6
S1130D80D3130200020000002B1402000300000031
S1130D908114020004000000211502000500000077
S1130DA091150200000000000000000006000A0087
S1130DB026002A0000800000F42E00004870220E55
S1130DC04470B00D3070E6123C70E41638700C0EAE
S1130DD03470300E3070840F2C70840F28705E11C4
S1130DE02470761120701A0E1C700212187074127E
S1130DF01470120EB110076001D80A7108B87F7818
S1130E00020C7E78641000C6A01F00218CB8707894
S1130E1001B007680F305CB30F330111C048069866
S1130E2046022FB006D80C7109DD087100B853A82A
S1130E3009BB1110076801682148076004100112FA
S1130E40FF322150076051480760008806989013CC
S1130E5000C43C1F002103DD087214BA281400A04A
S1130E6000BA03DF107109DF06720298EA058CB834
S1130E70507800A04413281441158110076002D84B
S1130E80147110880698D61B00C00C700840069890
S1130E90301E009106985C020060B83020D80671BC
S1130EA090BC637C084D5412F03240DE047240481A
S1130EB004DB08720DDD0C72044BEF301448069805
S1130EC0A00700C4E0100840441207620132214028
S1130ED0084C287C811140D91C72B1123032CF4A9F
S1130EE0013AB1DA107208D8067104D80871B04C0E
S1130EF0237C3E70684C4412FF328722047580B80C
S1130F00D84C81D8307140D90472237C084B0698A0
S1130F10A00704BA88B9767900C118600840357909
S1130F20E049007906B904A901D86C72BC4C307C44
S1130F3002982E0208D83C7100C14C0008401411DC
S1130F4010D93071104C00C1140008401411181449
S1130F50076100C5206008405415FF35047110492D
S1130F601814A84C44120762013206710298120147
S1130F70B84C08D80C7107BA24D8047106BA187092
S1130F8004D80C7101BA40D80E7102BA0A7005BABD
S1130F9020D8047203BA604C4411404C1814076101
S1130FA018149111383111429111076910D9047242
S1130FB0EF3200C100600840141110310169114280
S1130FC02814A111076118140698161E181400C1DC
S1130FD00060084014110769FF31181400C13C3047
S1130FE00840141118140761181430880248069830
S1130FF04A06009308DB047101F800A05CB00F30CE
S113100000A01088B111076980D90A7100C180005D
S113101008400811009100A000C4000108404410D9
S113102000A000C020300E40041104101050F472CF
S113103000A05415504512710698AA0706983A075D
S113104018B8707800B8417806983C0390BA5B7A77
S11310505C7A5D7A00C218500840241200C14C1F0B
S1131060002128110698E01B2088008800C5401F35
S1131070002154155112FF350762FF3206986602AB
S11310800159512904751159009021292075069898
S1131090FA0406982A050698F602009203D80C7200
S11310A08111076102D90472FF0FBA7018B87278FF
S11310B000F804D842710088308800C0FC1F002169
S11310C0041000C14C1F00211412012A215A00C32C
S11310D0185008403413312A1A7500C000600840C3
S11310E004100730FE200C76381108B87F78020C03
S11310F07E780093009000A000C0F41F002104102B
S113110000BB1DB400A000C1DC1F00211411108815
S1131110FF3100C5FFFF0000311207620762513A38
S1131120513B0E720698140D1159011201131E70D1
S11311303114008831100698140D1159415C41286E
S11311400698160D513801130090012B0090208849
S1131150076001140760FF30215D411207620762D6
S1131160312D0876FF34415C4128015D3110069829
S1131170160DFF303088011300C0E01F0021041059
S1131180512B0C76076801150768FF356070315BD9
S1131190FF32212B0C75076001150760FF354E7077
S11311A000C5E41F00215415076507655112FF357A
S11311B0FF30012B08752110076032702110076879
S11311C0FF30012B0A75211007600760207000C2F0
S11311D0E81F00212412211007600760FF30012B53
S11311E0087521100768067021100760FF3000930E
S11311F0009200C10060084014142C490734FE24F6
S11312002A761415F0BC076C513C07680368015436
S1131210107100C4FF0FFFFF513C0144481131120B
S113122000C5E81F00215415FF35076207622143FA
S1131230544914122155FF355152281100A000DFE2
S11312400672011314703111312B112B016300C18B
S1131250FF070000113B012B00C278FEFFFF05B819
S11312606EBD312A207505B8C8BDE8221875DCBDED
S113127006B8DC22107507B8F0220A7508B8E8220F
S1131280047509B800C10060084014122C490732E3
S1131290FE2216760768036800C2FF0FFFFF1414CE
S11312A0213C0144481150BD544914122155FF35C5
S11312B05152281100A001D82C71008800C004707C
S11312C0084004108020FF301A7100C1B41E0021B0
S11312D01411076120D908710698820406700698D3
S11312E04A03009000A002D8047200A00088069867
S11312F03A071DB428B9112C408800C3EC1F002103
S1131300341440445A7144130698A805411500C08A
S11313100060084004100730FD20447500C20870C6
S1131320084024100760FF3080DC34710698680D93
S113133001591C4A241007600260FF300698680DAA
S11313400158B2200129541331100698680D112850
S11313500A75042554155045EE720698A8050094A4
S1131360009000A07FB9066100C01C600840069888
S1131370961304155153113B315558100698901388
S113138000A0EBBD00C03C1F00210411113D10D989
S11313901271FF33076B00C190400846381118B929
S11313A07479581000A006985C028024E4240D305F
S11313B00472044800C11C510840141100C3D81E13
S11313C00021911504351A72181388BB08D80471CA
S11313D06C7B04D804716A7B8CBB2F7C5B7B16709E
S11313E0044B181388BB08D804716F7B04D80471AC
S11313F06D7B217C0C300160069826070698020C50
S11314000698D60700B8B111076940D90672029848
S11314100A0701BC00C20060084000DC0A71241500
S11314200165604A0A701C4A241507657C4A043524
S113143008D920712024512A241200C180000840B8
S1131440320C28110762281107622811076228113B
S1131450500C00C1341F0021141200DC347120D858
S1131460067101B80C70F0DA0C720CDB087102B86A
S113147006982E07482400C33061084034130763DC
S113148080DB0E7102B9911308DB047203B9067094
S11314900C49141100C380000840FFB80120114119
S11314A00871014118130824014200C120000840BA
S11314B014110141036D514191152035016D5141C4
S11314C018132813481300C37C000840341003D8B1
S11314D00C71073005DC0671084B227B8CB8507800
S11314E000B800C1341F0021141203682150F030E9
S11314F00152281100A04024066400C0FFFF01002F
S1131500013C1DB002200158402806751EAC01ECB8
S113151000A0208800C01850084004121DB42113F4
S113152004123052F871066C402400C3781F002165
S1131530341014110698980D066900921159212946
S1131540067600BB11590698500D80B80158013A2F
S11315500662313B0472215A412A00A000C20001F4
S11315600840317A00A0308880B9076900C30000C0
S1131570C0FF3110312800BC002D0C7511541EAC75
S113158001EC312DF470066C51134155312C00934C
S113159000A000C028400E400413315107610C31F3
S11315A007691153381000A00698E80800C0F41F1A
S11315B0002104110698D607217A237A00C300007B
S11315C010000698160800C0541F00211DB1181001
S11315D000A000C0501F00211DB1181000C09C1FA6
S11315E000210410002D067500B826A80698AA0745
S11315F000C09C1F00210410012C067506983A07B0
S113160028B010B9115911380EB9114028A880B862
S113161000C144300840081100C1F01F002114101B
S1131620303B06710760076000C40830084044116D
S11316301150FF30015118146FB8076826A8217A99
S1131640050C21102048267800C063EF00003140CB
S113165026A8050C20EC247A20EC217A184826A828
S113166028B00AB901510F31115028A8050C207A6D
S113167020EC0F0C98B8467841780698660200C2B0
S1131680401F002124100151FF311150081200A005
S11316900698E80800B826A800C0581F00211DB10C
S11316A0181000A030B840780DB101D9FC7242780E
S11316B000C074300E4004114CBA407A181014481B
S11316C004115C7A1810A4BB707B4E7B4F7B00C264
S11316D00430084000A00698E808217A227A00BB6A
S11316E00698160800C0641F00211DB11810A4BB81
S11316F000C040300E400411033101492872B11278
S1131700076207623048041121510F3118726E7B51
S11317106F7B104804114CBA7C7A181014480411D9
S1131720607A1810B11002D81071707B30B86278EA
S113173060780DB001D8FC7100C0F8600840041155
S113174001D90C7100C01800084002B9181008B87B
S11317506E780EB84EB110D90C723EA8140C0FB8A6
S11317603EA8107044A8140C01B800C1AC300E405F
S1131770081100C077801F003DB201423DAA00C09D
S1131780FFFFFFFC013A3DAA140C00C077E01F00E4
S113179001423DAAFFB845207D7808B87E7800C193
S11317A024600840141107610631087100B90698D5
S11317B0DC100698961306983C1E02D90672069809
S11317C0480C06989013511406983A07F4B84578D3
S11317D00A0C00C0601F00211DB118100298B61039
S11317E0FFB845205D7803B8076044A83EA800C14F
S11317F0AC300E40081110B807683DB101393DA95D
S113180008B86F7800A046A800C0FFFF0000013BA5
S1131810076356AB94BA437A01D91471013C47B3B8
S113182000C0FE20FFFF013B314447AC637AFFB8A0
S11318302120407802D90471607800A0C8BC066CED
S1131840415C512C067506983A070698440EB1106F
S1131850076807D8367140BA069866138CBC7F7C3B
S113186008B86578911004D8187188B86E785778DC
S113187000C06400084021780698041101400872F1
S1131880427C0698A2130298DA0B08B86C7820B848
S113189059785B7800C0F44008407878797800C1C2
S11318A0C81F0021141040A8184914130449408883
S11318B014140C4914118112076A006A01DA1871B0
S11318C088B8577800C0CC1F002104100161076359
S11318D007630764076406984A0A00944EB010D858
S11318E042724DB161B80158113840B102D90A723F
S11318F0604804BB41540870204802BB02BC4DA898
S1131900F8B87078190C3EB141413EA9F4B9737925
S11319107378717800C4F840084000C20041084060
S1131920227000C20000010044AA230C00C200007F
S11319300B0044AA00C41041084000C218410840EA
S113194004BB587C050C597C0C240F0C2FAB050CE4
S1131950B11008D81471647A657A1CB879787B78E8
S113196020B879787B78607CF42441130698A0072A
S113197051144044067506983A07727BFFB84D200F
S1131980050C687840EC00C05C1F00211DB11810E4
S1131990911004D8147100C0B41E0021041080D822
S11319A006711CB8737800F818B800C1D41E002161
S11319B000C21850084024122811777800F800C09B
S11319C0B860084004110761076180D9047240ECD3
S11319D000C4F84008404EB010D8047118244113D4
S11319E00C23527C407B11512FA9050C797C0A0CE5
S11319F000C0000001020814787C050C507C08B873
S1131A006D7800A0B11001D8047200A000C0287045
S1131A1008400411108800C1001800401810444800
S1131A200411108878480411108800884CBA757A1B
S1131A3018103DB11088F4B84278442072782848D0
S1131A407378F8B873784FB200C4FFFF8080413ACE
S1131A504FAA01BC01644113076300C06C700840C5
S1131A6003B918100110011001B918100110011068
S1131A700110011068480411076101B80160003ABF
S1131A800471044904D9047241520760003A047194
S1131A90084908D9047231520460003B0E72006395
S1131AA00064314241424FAAB2704FAAF8B8537849
S1131AB0182053782848527800913DA9009000914D
S1131AC0181000917848181000914448181000A08C
S1131AD0115910D906710760076008D904710760AD
S1131AE004D90471036002D90471016001D904713D
S1131AF0006000A0108804110230067107610761BC
S1131B0000C0FFFF00001138009100A000BA01D806
S1131B1006710148112A0069006001D8F672013883
S1131B20F67200A08020FF30FF48812000A002EC64
S1131B3000CA02EC00C8076A014202EC00C8076A46
S1131B40014202EC00C8076A014200A000C218501A
S1131B500840241211592129127300210E7100C268
S1131B603050084024120121212900A00698E808D9
S1131B7088B8577800C5801F00215088FC4D88BC68
S1131B8000C0C01E0021811101D91E71407C009546
S1131B900115044D50880C4DFFBB076B315B0411DC
S1131BA00698900D3129F87506982A1D5415069843
S1131BB03C1E01D9087206981A09067006987C0919
S1131BC088BB547B009500F80698240A0E7006988A
S1131BD0020C0698240A0698E2110698D4082119E2
S1131BE000C0246008400A78097800F810B901BAE6
S1131BF006985C130698B61000C5801F002100F8F3
S1131C009112033288B900C3B41E0021341300C4F6
S1131C10A81008408CB84278707903DE06714478C5
S1131C2072707179A11020D80A7106981A09029865
S1131C30900F80DB507102D84C7205B8308807636E
S1131C40076302DB2A7100C3AC0008403413066347
S1131C5080DB0472804800C3102008403413315BD9
S1131C600472404831283128026008140768009340
S1131C700814A11010300248081400B80814911078
S1131C80076008148CB86278A11000DC06765179DC
S1131C9000BA80DB3A7100C000000200003B3071E2
S1131CA050884110344803DE04719048041508201C
S1131CB00411F82058101C20217800C0A40008400A
S1131CC00E7810D904722E780698AA1600959111F0
S1131CD020310269911004D80E7200C1481F0021FE
S1131CE0141101D90A7120880698DC10009200C1F1
S1131CF0180008400533054B1872184C03DE0471B4
S1131D00904C441400C3FF1F0000413BFF233811D3
S1131D10B84900C3306108403413076380DB0E7197
S1131D2003BA076A0698780F00BA0870076A06981B
S1131D30780F04490879097914102140081100A08A
S1131D4000BD0698400210B903DC047100B901BA61
S1131D5006985C1302D9067100404E7201B10769FE
S1131D600F3106980411FFD82872811008D8187111
S1131D7006DD0A710698400203DC0C7206984A11CB
S1131D800698A2130C7006DD107106985011487065
S1131D9020B802A806DD10720698240A0698D40812
S1131DA001F840B802A800F800C0B41E00210413D2
S1131DB0076301DB227191100111076911388CB995
S1131DC010D8087144790298900F02DBFA72A113BB
S1131DD028DBF47203BD0698AA100698240A00C5ED
S1131DE0841F00210698400200BA03DC42720C4DA5
S1131DF000C0140008400410026800C3741F0021CE
S1131E003411112800C1306108401411076180D9D0
S1131E100C71911108D90671FC23E04DFC23341197
S1131E200698500D00C10C510840069856075415E9
S1131E30212D00C0F8600840041101D9227100C0AE
S1131E40381F00210410033001DC147200C0140098
S1131E5008400411FB21087607BA076A212D069869
S1131E60EC070298800A911001550335515001196D
S1131E7000A000C1441F0021141001D84271014880
S1131E800760FE200E75811020D8087100C1481F1C
S1131E900021141101D9287100C0246008400412E3
S1131EA0215107610F3107691152281000C00060E9
S1131EB0084004119112215120311152211900A01E
S1131EC0811380DB067201B800A000C30C500840E7
S1131ED03410063030727C4B34122C4B34100760B3
S1131EE0076040302072811080D8DC713410014AC0
S1131EF007620360803021508C480A717F23552388
S1131F003410013000A000BD0698AA1088B84778A4
S1131F104578437800B8447800A00698240A0698C7
S1131F204A1100C58C1F002154150698EC0702982D
S1131F30800A00C374000840027B0698961350BAC6
S1131F400698661306980411FFD84A71911004D8B4
S1131F504872811007601CD8407220D9387211125F
S1131F60FF322151347180218021111400C0E01E00
S1131F7000210413FFBA3151113A215111538CB984
S1131F8038107B7940440E7200B900C2BC1E002197
S1131F901812067008B860780698901300F800B913
S1131FA000C29C1008401812244A0AB9181288BAB0
S1131FB0507A517A577A8CB942795F7900A00698A1
S1131FC0400207DC1072911000200A750698E21195
S1131FD002983C0E0698D40801B9911004D80471F3
S1131FE000B910BA06985C1300BA00402A7100C008
S1131FF0B41E00210411076101D9127104D9E272DF
S11320008110076001D8DA718CB8647800C11C5162
S11320100840069856070698E21100C5901F002153
S11320205415212D06981A0900C5941F002100F8A3
S113203000BC811108D9167280D9207201B910BA76
S113204006985C1300400E7101BC107006984A118A
S11320500698A21320B802A800F80698E21181118C
S11320600231127100B900C20C1008401812244A3F
S113207002B9181206984A1100C5981F0021541578
S11320800698B41D0298800A04110121147188BABB
S1132090737A042004122811042004110121F4721B
S11320A000A00698A00701F8911010D83471069882
S11320B03C030698FA0406982A0500C51C510840FA
S11320C054110698900D00C5D01E002154155129B5
S11320D0E27518B876788CB8447801B802A800F88C
S11320E0B110076810D82E7100C04810084000C312
S11320F0000008403114884C44113411076101D99F
S1132100FA71441228100762281007622810076227
S11321102810E8700298760206985C02113804725E
S1132120016A00BB00C1E01E0021141120390C72A9
S1132130911210DA0672417B00A00698961300C231
S1132140B41E0021241220DA0472617B88BA527A08
S113215000A088BA727A811204DAFC7200A088B8EE
S11321606B78577800C0640008402F7800A007639C
S1132170076390B9637900B902DB227102EC00C9EC
S113218009B801D9507200C2AC0008400E7A10D9C7
S113219004722E7A0698AA16E031076102EC00CD8B
S11321A0114502EC00CC01DB087100BB0298FA1760
S11321B003B841110731FA211C760621911210DA75
S11321C0087102DD10721E7020B80698140D3038A4
S11321D0147208B80698260700C02400084029781D
S11321E0207800F8046020D806710298601502EC8B
S11321F000CA05B823DA187104DBDA7120DAD67163
S113220010DAD27290B8617800B801DA067202EC82
S113221000C8911110D9267100C1C41E00211411E7
S11322201150FF300C720661A110115002300A7176
S113223080DB0A720AB89E708CB97C7907689111A8
S113224011402111C0311140011990B8411108D930
S11322500471667820D904726578A11002D80672D8
S1132260C0DA1E7190B8273123DD087210DB1072BA
S1132270607825DD0A7121DD087208DB047162785B
S113228003B8411107310872A1152035AA7102DD86
S11322903272A11120D9A07102D92872CCDA9872B5
S11322A0411140D9927206B802DB1071046500C175
S11322B0102008401411112D112D054D5C72029847
S11322C0EE1321114049C0D94E71A031411540355A
S11322D0016551410361076308DA1E7204DA38723A
S11322E01049A1150235067110DB0E7201340A7112
S11322F008DB247190B86778CC3211101A300ADCEC
S11323000872CCDE0471FD3100C00D0F0C0D06986F
S1132310160D01D8607207B80298181400BA41115A
S113232008D90C7102EC00CA05B830DAEC72073433
S1132330F031026101DA0471014900C0F300A3E342
S11323400698160D01D8D07100C0981440680698FC
S1132350160D4030014440DA0471204C043201620D
S1132360204A1110063000680142183102691142F6
S113237002983614204A00C0051708500698160D16
S11323801130014220880DDA527100C1DE1B250193
S113239080BC04DA107208DA0A7200C120841000CA
S11323A0E024A024FFBB07634143016401DA067102
S11323B01E49024B00C0281F002107633810BC20AF
S11323C002DA127101B91159A11380DB087100C13D
S11323D000FCFF0118100298861700C4B41E0021E7
S11323E0441080D87E7100920362DDDA0871A11175
S11323F080D9927290BD437DEFBD0698C805DDDAA1
S11324008472A11105D95C7100C2381008402412ED
S11324100C24281401D9067202D9327140D91E71D4
S113242002EC00CA211018320471FA2220D8047276
S11324300822FE22087502EC00C8F87001D90E715A
S113244002EC00C802D9067204DC187200C0B41E83
S113245000210410026801D8067190B8647818B895
S113246073780298FA1700C50020084000C00417CA
S1132470000008D904720A480815104D00B808D99C
S11324800472FF200815084D00C00884000008D914
S1132490087200C02083B8ED0815104D207D00A0FF
S11324A000B8011A00C0740008400278911010307E
S11324B0011905BA0698661302D9067101B802A873
S11324C000C0B41E0021041380DB06710298B2130D
S11324D040DB0671029826198CBA7C7A01DB5E71A6
S11324E000C22C1F002124111114FF3402EC00C877
S11324F0FF24FA7607610698240D036111380F3022
S113250003611114011141100698240D01D80872B9
S113251003B8029818141C4A02DB167124101128FF
S113252011280698380D00C218000840FF20081230
S1132530411007600698240D01D87C7120BC10332B
S1132540767100BB00C1281F00211415C021112C75
S11325505112076A0F320E714088511406985018B0
S11325604143009451120765036A0F320E71411101
S1132570511406985018036C41430765513B00C140
S1132580E41E00211411111231100F30127100BA1F
S1132590046101D80471114200600FD8F472311043
S11325A002601E30047201B8003A087204B802983E
S11325B0181402981E1600C13061084014110761F6
S11325C080D91A7102EC1DB002EC1DB1015811281A
S11325D0A0B91159112806758CBA637A00C0341F4A
S11325E0002104110F3103DD1A7200C0006008409D
S11325F0041007D80E7200C01040084004B9181027
S113260000F80698F0100698C60500F8308850883F
S1132610FF34087102ECFF24F87002EC00CD1410B2
S113262001BB5150FFD8047131440760006B10DBCB
S1132630F2710421FF22E4720F4C0095009300A074
S113264000C01860084004100560073000A00CB8F2
S11326500298221902EC00CAFFBC80BD06988418B7
S11326600448187202EC00C92115F03500650F32D8
S1132670076A114200C4FF0F000000C1C41E0021FC
S113268014100113413B305206714052C27221149E
S113269007600760FF3055DC1A7102EC00CA005273
S11326A012710ADE0E714ADE0A7155DE067130526D
S11326B09E720C4910880698161E0731114507654D
S11326C00765414500C30C70084034130763FF33AA
S11326D0076331450091581118B875780BB8029802
S11326E018140763076302EC00CA02DB127155DE9B
S11326F006720298981854DE06720298981801DB44
S113270012710698760D0698720D02EC00CA0298B2
S1132710FA1700C1C01E0021141404490698760D4E
S113272040522E7204DBE07190B8637806988418E6
S113273004486E7200BA0698760D2113141000C175
S1132740FF0F0000113A105254710152113A0671F0
S113275004B88C7000BA0698760D2111FF32076117
S11327601114911010D82271073103DD1C7200C1BD
S1132770CC1E00211411FF31115206710AB8D47015
S11327808CB97C790298FA174110813081DC0E7281
S1132790076A034A076A0F4A0698001B0298FA1749
S11327A01410FFBC013C0698A61B02EC00CA02EC04
S11327B000C902EC00CB076A3142076A21410F339A
S11327C002EC00CD02EC00CA00400872211302ECB6
S11327D000CA07621142911110D92A7121110F31D7
S11327E003DD227200C1CC1E00211411FF31076ADF
S11327F000230C71115308710AB8029896198CB908
S11328007C79147021110F31076A02DD5A7101DDE0
S1132810067103DD4A7200880AB90698EA1A009024
S11328202111FF32FFDE387120543872FC251872F2
S113283002EC00CA01DE107202EC00CA18DE087253
S113284088B877781A70066100400472006180D9F4
S11328500E714CBA477A0698421B90B84378029896
S1132860FA1704B89670FF32FF24F8750BB906986E
S1132870EA1A2110E03001584128E875F830026066
S11328801F32215A0125212DDA75012AD67602EC50
S113289000CAFF20FA764111073101B80698140DD9
S11328A0003AC071BA700040087106987A1B04702F
S11328B0022106B81159112DAC7500A000C5A8104D
S11328C008403110036008150111076007600769AB
S11328D00F30F031114008150763036338152815CC
S11328E007622815076228157FBA281500BA28152B
S11328F07FBA281590B8437818B8737800A0069862
S1132900B61B11140CB900400A7100640AB9069888
S11329107A1B03BD514400C5A8100840202A047541
S11329202815481507644815181500400472381511
S11329300764481500A00088408800C0CC1E002110
S113294004100760073000C4200008404414412CE0
S11329500472012441384050047201210094009013
S113296000A000C0CC1E00210410076007300748F7
S113297000A000C2C41E002124122114076AFF32E1
S11329800CDE0A710D4A0671215A00A0FF3441126F
S113299000A000C1B81E0021141100A030880698C0
S11329A0EC1D8111076102D906720298C81C88BB0C
S11329B0557B076120D906710298B81C0088A110C4
S11329C007680698D61B08211415FC2590BB5C7B70
S11329D05D7B00C10060084014110731FE21307690
S11329E008D82A725113FC23341304DB2071076BBB
S11329F0FF33315B00C1087008401411076180493E
S1132A000C71FF313029607590BB7B7B1C707B7B24
S1132A107C7B00DD04717D7B01BB38158113076B62
S1132A204033067118BB717BEC25541300DF5471DD
S1132A30042505DF54715415211120880698900D42
S1132A40009251293E7500C100600840141102DB58
S1132A500C710731315B31292A760C7004DF08725E
S1132A60006180D91E720698D61B00C00870084009
S1132A700698301E0698D61B1411FFD9607202986E
S1132A800E1D0090009300A05415A111076910D9E0
S1132A90A672082508D8A071082510D89A71208834
S1132AA021110698900DFC255412112AF825541171
S1132AB00C2520D80871F0255411102520290476FE
S1132AC021591815009202987A1C18B9717981104D
S1132AD010D80A7188B8447800B8417888B97479F4
S1132AE008B9677900F88110A0D8087188B94979C4
S1132AF000A0076002D8FA710698D61B10880698C1
S1132B0096130762076210DA087108211415F0257C
S1132B10541100C20020FEFF2029127506983C1EA5
S1132B2001D90A720698240A0698D40800941CBB9A
S1132B3041100C200698CC1241110821141006985B
S1132B40CC123128441111120761FF31FF320122E6
S1132B5010521072076918140424441304243814FE
S1132B600C70076921411814082408140298901362
S1132B704044147100C1BC1E002114155113036B91
S1132B800FDB0C72066D0698AA07411500A0069883
S1132B90D4080698961308BB51140698741D44155E
S1132BA0FC2554150298EC0788B900C3B41E002113
S1132BB03413076308DB1A718113A0DB06714979AA
S1132BC010706979076302DB087208B9677900F845
S1132BD000A08111076102D9107188B9757906982E
S1132BE0D61B1411FF3100A0FFB900A00410082166
S1132BF01411F421081100A081110761076110313B
S1132C000E710698D61B08211411F821141100A086
S1132C1095070000193F0106041001000001010698
S1132C200010270000090000000000000000000060
S1132C30ED170000000000000D000000D754030051
S1132C4000000000142C0000302C000000000000E4
S1132C50001A9A00005A620280841E0004200000B8
S1132C6024490002000000000000000000000000F1
S1132C700000000000000000D1841E0000000000DD
S1132C8000000000F01F01013F00370004000200B3
S1132C90018014007F000000180002000000000002
S1132CA000000000280004000000000000000000F4
S1132CB0000000000000000040000100A007000028
S1132CC04800010000000000540002000000000061
S1132CD000000000A000040000400000FF4C0000C1
S1132CE000410000FF4D0000002001000407000027
S1132CF010200100000000001820010008840000DA
S1132D000830010013AC00013030020024491000E7
S1132D10010000004030010000000000A04001005C
S1132D207A27000FB840010000C0A300F44001005E
S1132D30201000003441020080080000E6870000F3
S1132D40404102006D008800C0E6524D604104001D
S1132D500000000000000000060000000600000063
S1132D60146003001000000020F913040B0072002B
S1132D702460020000800000000000035060060090
S1132D80FC0069004108000001000000B0070700D2
S1132D90700A0000000000007C600B009BC34A74B2
S1132DA0F003000003800000BE0A0000010110309F
S1132DB050707F7F00000000000000000000000051
S1132DC00000000000000000E46001008000D78BD8
S1132DD0EC600500640483078813C83A9C2006004D
S1132DE000612000B756852004610300383E1200BC
S1132DF02030000088BB000020610100001E00009C
S1132E0030610800E853FA000000000000000000F0
S1132E1000000000000000000000000000000000AE
S1132E20010000001C70050060000505030050ABA4
S1132E308200000000008001D500000048700200FC
S1132E403C3D0000BC190000FFFFFFFFF81F01011B
S1132E50382C0000DC1F04010200620609C8056E5C
S1132E600704DC0650070607F41F010101000000F7
S1132E70FC1F0101000000003800020000000000F7
S1132E800000000020600100237000002C6002009C
S1132E900050010F40B80040786001005063820B7D
S1132EA0E8600100590B00001470011000F80700DD
S1132EB014700130F50000001870010000180000C3
S1132EC070700300030101000F9C030006E0490039
S1132ED0FFFFFFFF4C2E00004063598F404B4C0016
S1132EE00B000B001A00FF7F1C16002000000000DE
S1132EF000000000842C000000000000D42E00001C
S1132F000100000000000000C2690AB90180704796
S1132F100023002200F089B801461022384800F04E
S1132F20A7B81022364900F0A3B8704778B591B01D
S1132F3004460D460026079608A8242100F0A4F8AC
S1132F4000F025F800F01DF8069105901022039278
S1132F50049402940196009600F04CF808A800F03E
S1132F6097F8044608A800F055F814B1BA2100F007
S1132F704DF80798102802D0BB2100F047F812B092
S1132F8070BD8020ADF8220007A9102070474FF4CF
S1132F90105108A8B8E778B58FB004460D4600264E
S1132FA0059606A8242100F06FF84FF4105106A8E6
S1132FB0FFF7AAFF8020ADF81A0005A9102004919C
S1132FC00390102201920294009400F013F806A8D2
S1132FD000F01CF9044606A800F01CF814B1D12135
S1132FE000F014F80598102802D0D22100F00EF851
S1132FF010B070BD2946044B024D7047000000001C
S1133000B81E0020500100000044400405F12400D3
S113301000F080BB10B50446E06900F09AFC20463D
S1133020BDE81040242100F02FB82DE9F0410646F8
S11330300F4690461D46002465B12946012000F044
S113304077FC040008BF6FF08C000ED02A4641467E
S113305000F00EF8F06920B100F07BFC0020F06174
S11330603062F461356237800020BDE8F08170473A
S11330704AB1000011F8013B521E00F8013B1CBF8D
S113308011F8013BF8E77047002200F073BC704769
S11330902DE9F84F8CB05FEA010918BF002A10D05F
S11330A0189E199C0EB9002C5CD1DDF86880DDF8FF
S11330B06CA0B8F1000F02D1BAF1000F52D11C9FDD
S11330C0002F00F086809B46DFF810359B451CBF1F
S11330D0DFF80C359B4512D0DFF808359B451CBF43
S11330E0DFF804359B450AD0DFF800359B451FBF48
S11330F0DFF8FC349B45DFF8FC349B450CD10546D6
S11331002888B0F5105F07D16888B2EBD00F7AD366
S1133110802818BFB0F5807F75D114B900203860BD
S11331206FE0404686423CBF3119884206D2A24530
S11331304FD32246314600F037FC4646DFF8A4243C
S11331406D8893456FF0920108D0DFF89C24934575
S11331501CBFDFF8A024934524D054E0A24538D303
S113316014F00F0F35D14FF0000B0DE008EB0B00FE
S1133170009006EB0B030122E908484600F058F9D9
S1133180010004D10BF1100BA345EFD33C600029DF
S113319036D05146404600F017FC002038606FF0EE
S11331A092002EE0A24514D3DFF84824169917980C
S11331B093450CD10D280CD101208DF810000D225F
S11331C00DF11100FFF754FF00F0EEF808E01028AD
S11331D002D06FF0860014E0102204A8FFF748FF25
S11331E0CDF80C80029608A804A901900091002350
S11331F02246E908484600F054F90100C7D13C6072
S1133200002000F0DFB96FF08500FAE72DE9F84FF0
S113321090B05FEA010A18BF002A10D0DDF8688078
S11332201B9DB8F1000F01D1002D58D11C9CDDF875
S1133230749014B9B9F1000F51D11E9F002F00F002
S11332408B809B46DFF894339B451CBFDFF890339B
S11332509B4512D0DFF88C339B451CBFDFF88833C5
S11332609B450AD0DFF884339B451FBFDFF88033CA
S11332709B45DFF880339B452CD106463088B0F55A
S1133280105F27D17088B2EBD00F23D3802818BFEA
S1133290B0F5807F1ED115B9002038603CE020468F
S11332A080453CBF08EB0501884206D2A94553D3AB
S11332B02A46414600F078FBA046DFF828137688BA
S11332C08B4508D0DFF820138B451CBFDFF824138F
S11332D08B4524D065E0A9453ED315F00F0F3BD1B3
S11332E0F30808AAF108504600F065F8A0B94FF0B9
S11332F0000A0DE004EB0A00009008EB0A03002228
S1133300F10808A800F094F800283FD10AF1100A47
S1133310AA45EFD33D60002011B0BDE8F08FDFF87F
S1133320D402834514D1A5F10D0BD94538BF6FF0F4
S11333308900F1D301208DF810000D2241460DF1D2
S11333401100FFF795FE00F02FF808F10D000DE0D5
S1133350A5F1100BD94502D26FF08600DCE71022EC
S1133360414604A8FFF784FE08F11000029004A966
S113337004A801900091039400235A46F108504692
S113338000F08FF80546C7F800B000E00546002DB0
S1133390C1D04946204600F017FB0020386028467B
S11333A0BAE76FF08500B7E7002101228DF81E10FF
S11333B08DF81F2070472DE9F84305008846144610
S11333C01F4618BF002C01D0474502D06FF086007D
S11333D02CE000F004FB0646002070600021316000
S11333E000F024FB8146B8F1100F0CBF0822102214
S11333F02946304600F085FB484600F0C8FB05200E
S1133400B06030698107FCD400F010FB0546102F32
S11334100CBF082210222146304600F09FFB2846AC
S113342000F0B5FB304600F0DFFA0020BDE8F2837F
S11334302DE9F84380460F4615461E4600F0CFFAA4
S11334400446002060600021216000F0EFFA81460C
S1133450102F0CBF082210224146204600F051FBD9
S113346004F180073146384600F000FB484600F07E
S11334708EFB012D14BF06200520A0602069810762
S1133480FCD4089D00F0D2FA06462946384600F0DE
S113349002FB00F0BCF8204600F0A6FA0020BDE8CC
S11334A0F2832DE9FC4F8BB0002B14BF1C68002461
S11334B0002503AB00260027AC46AE4683E8C05087
S11334C002900191009204E01898179A415D00F06F
S11334D095F80098854271D2002CF5D100F07FFA5E
S11334E083460020CBF804004FF44041CBF8001091
S11334F000F09CFA0646019810280CBF08221022FE
S11335000299584600F0FDFA16990BF1840000F078
S1133510ADFA00F07CF8009E761B002717E000F05F
S113352085FA824600F051F841460BF1A00000F004
S11335309DFA102D01D300F06DF803A90BF1800062
S113354000F0A9FA504600F022FB10357F1C1998B0
S113355018992844B7EB161FA0F1100901EB0508D0
S1133560DDD31022414607A8FFF782FD102D14D3A6
S113357000F050F811E05CB900F058FA064600F08B
S113358024F80BF18000179900F085FA00F03FF859
S113359007A8179A015D00F031F80098401BEAD1A2
S11335A000F044FA064616990BF1840000F073FA11
S11335B000F02DF8584600F017FA8AE70C9800B18D
S11335C0046000200DB0BDE8F08F0B48CBF850002C
S11335D0DBF81000C107FBD4704700000040400432
S11335E000414004004440040010C0040011C00421
S11335F00012C0040013C00448050301105D199BA8
S113360041405955641C04F00F046D1C704730464A
S113361000F0BDBA102203A94846FFF729BD704740
S1133620B0B500F0BBFA044600F0B4FA0020002163
S113363024FA01F2D20704D4491C8BB2112BF7D31C
S113364013E0A74889B230F8110006284CF23C3147
S11336504FF000524FF20F0317D15088984210D107
S11336601088030A0C2B0CDA0DE040F20173984227
S11336709A4904D19B4AD2E90045C1E90045088131
S1133680B0BD4FF4C0605180EFE740F20724A04280
S113369001BF57889F421388A342E6D11088F2E7FE
S11336A08E480189080AC9B221B901280BD140F01A
S11336B0800070470728FAD8DFE800F005040709FE
S11336C0090B0D0FF3E70020704709207047022013
S11336D07047032070470B20704706207047000096
S11336E0044600F089FA5FF000504FF20F010480A5
S11336F04180BFF35F8FBFF34F8F7B497B480A68DC
S113370002F4E06202430A60BFF34F8F00BFFDE79B
S113371042DE704738B504460D4600F071FA00F0F9
S1133720FAFA00F069FA2B4622460FF2F011002053
S113373000F01EFC29462046BDE83440E8E72DE9A8
S1133740F0436B4A644913684B654FF42060146A74
S1133750684B8C65D3F80080C1F85C805B680B66AD
S1133760546A4C66936A8B66D46ACC66136B0B6797
S1133770926B91F834304A675A074CBFD1F83CE059
S1133780D1F838E00022CA6474465B4FDFF86C81DC
S1133790DFF86C915B4B0F6501F18C02BE4524BFD1
S11337A00EF12005AB421AD3DEF818600E64DEF881
S11337B01C504D644D6DC5F30805062D15D14E45BD
S11337C013D3464511D236884DF64265AE420CD12C
S11337D0086850604868906040F2017005E0002479
S11337E00C644C643C4600E03F1D3E469E4203D2BE
S11337F03D68B5F1CD3FF7D0434FBD1B00278D6425
S1133800BC4600F085F87F1CFEB2062EF9D30027D3
S11338109C422DD253F804CDCC45F9D3C445F7D2FC
S11338205FEACC75F4D54FF0000E01F1780555F838
S11338302E60664504D00EF1010EBEF1060FF6D3DC
S1133840BEF1060FE4D1FDB2002D0CBF05277F1E8B
S113385000F05EF8DCE78B6F002401F1780501EBE2
S11338608406F66F45F82460641C042CF7D91360B1
S11338703B465F1EDBB2002BEDD1496DC1F308015D
S1133880032910D0042911D0052912D0062913D0F8
S11338900C2917D0122918D11C490B689A0719D57D
S11338A040F2025016E040F6012013E040F60220F8
S11338B010E040F603200DE0B0F5206F0AD140F689
S11338C0042007E040F6052004E019B13F2938BF81
S11338D040F60720BDE8F08394670020DC20002038
S11338E06C030000246800200CED00E00400FA05DD
S11338F004ED00E000E300E0000000206C1A030087
S1133900082F000000100020001000201C2005409B
S113391001F17806FDB246F825C070470D0A5B41F7
S113392053534552543A25733A25645D0D0A0000F9
S113393070B504460D4600F079F80646294620463F
S113394000F0C5FBFFE70446304600F020F92046AE
S113395070BD38B5044600F069F80546204600F00D
S1133960D3FB2846BDE8324000F011B962F30F22C0
S113397062F31F4200B500BF130096469446103907
S113398028BFA0E80C50FAD85FEA417C28BF0CC0DD
S113399048BF40F8042BC90728BF20F8022B48BFB2
S11339A000F8012B00BD704762B181423ABF531841
S11339B09842FFF75FBB801813F8011D521E00F8F0
S11339C0011DF9D170477047002200F09FBB70477A
S11339D0890001EB401101F184410A6070470B49F1
S11339E0012008600A4870470949884208D100202C
S11339F00AA101EBC003002259680648E8E77047B2
S1133A0005498842FBD10120F2E700000016C843B3
S1133A1000000F40B0400E4000040F4000000F4073
S1133A200000000000040F4001000000EFF31080CC
S1133A3072B67047890001EB401101F184410A60BC
S1133A40704710B50A684B688C68C96802600360E7
S1133A500460016010BD10B5026803680468006862
S1133A600A608C604B60C86010BDEAE71FB504466D
S1133A7011F0030008D010226846FFF7F9FA6946EE
S1133A802046FFF7F2FF1FBD009120460099FFF783
S1133A90ECFF1FBDDFE71FB50C4614F0030108D08F
S1133AA06946FFF7F7FF102269462046FFF7E0FA60
S1133AB01FBD00940099FFF7EDFF1FBD38B5044604
S1133AC00D46FFF7BEFF05F11001FFE72046BDE8F4
S1133AD03440B6E738B5102A04460D4609D1012210
S1133AE00021FFF7A7FF294604F58870BDE834409C
S1133AF0E4E700220021FFF79DFF294604F124009A
S1133B00E5E738B5044611F0030088B015460CD03B
S1133B10082D0CBF102220226846FFF7A9FA2A4676
S1133B2069462046FFF7D6FF04E00091204600993D
S1133B30FFF7D0FF09B030BD70B504460D461646F8
S1133B4004F12000FFF787FF102E06D105F11001C4
S1133B5004F12000BDE870407DE770BD38B50C4627
S1133B6014F0030188B015460BD06946FFF7E4FF53
S1133B70082D0CBF1022202269462046FFF778FA50
S1133B8003E000940099FFF7D7FF09B030BD00B9F6
S1133B9062B670471449012008607047F0B51348B5
S1133BA0134B01680020002203EBC20453F8325087
S1133BB06468104E37687E070DD4B5F5007F18BFD2
S1133BC0B5F5806F05D0B5F5006F18BFB5F5803F2A
S1133BD001D144F48074294202D0214208BF284311
S1133BE0521C092AE0D3F0BD08500E4004500E4088
S1133BF0E0030000E841E00F602080F31188704783
S1133C007047F0B40246106895681318506803EBC7
S1133C105004C00748BF4D44A3422DD013F8016B94
S1133C2016F0030004BF13F8010BC01C31090F295F
S1133C3007D113F8011B0F3103E013F8017B05F8DA
S1133C40017B401EF9D10029E6D013F8010BC6F31D
S1133C508106032E08BF13F8016B00EB06204042D7
S1133C6028440026B71E8F421EBF10F8017B05F8BA
S1133C70017B761CF6D1CFE7F0BC02F10C00704753
S1133C8080B500F004F880B202BD000000BFE0B5CA
S1133C9000F039FB6A4600F08DFB10B14F2100F0B3
S1133CA0DDF8DDE9000103B000BD80B5FFF7EFFFEB
S1133CB0FA21B0FBF1F080B202BD0120704704206C
S1133CC0704780B500F02CFA10B1762100F0C6F8E8
S1133CD0002002BD80B5FFF7A3FCDFF8D401016822
S1133CE041F4E0210160EFF30880001FDFF8C41104
S1133CF04FF0CD3201E040F804298842FBD2DFF8CE
S1133D00B81101200860FFF7DCFFBDE80240DFF8CE
S1133D10AC0100F0CDBCDFF8AC0101684A0744BF38
S1133D20DFF89C0100F0A8BD704740F20160FFF786
S1133D30D7BC002818BF00F0ABBD00F0AABD704787
S1133D4070477047032000F0CABD0120704780B55A
S1133D5004226946002000F00BFE042803D04FF42F
S1133D60E87100F07BF8009800F0D0FE01BD70B55A
S1133D7080B1012810D0022811D0032812D01028B5
S1133D8008D0202808D0212809D022280AD02328A6
S1133D900BD020E0032100E00221002207E00221F1
S1133DA0012204E00221022201E002210322002375
S1133DB0454C01E05B1CDBB244480568AB420AD2C7
S1133DC054F823000028F5D0057A8D4204BF467AC2
S1133DD09642EFD170BD002070BD10B50C46FFF7C0
S1133DE0C6FF00281CBF0068002807D0214600F049
S1133DF0BCF820B11B2801D1262010BD012010BD24
S1133E0010B50C46FFF7B3FF00281CBF006800285C
S1133E1003D0214600F0A3F800B1012010BD10B575
S1133E20FFF7A5FF040008D0207A022805D12068F6
S1133E3000281CBF0068002803D140F29F2100F035
S1133E400DF8206801680A6B106900F44830B0F579
S1133E50005F01D1012010BD002010BD1C48FFF7F8
S1133E6059BC10B504460521112001F0FFF80022C9
S1133E700021022001F02CFA164801686FF3D321C7
S1133E8001600268144901EAC4210A430260012165
S1133E900122022001F01CFABDE810400421112087
S1133EA001F0E4B80B4800680003C00D704700003F
S1133EB024ED00E00000002010300E40FC0400005F
S1133EC000200540B0400E404010002024050000B2
S1133ED05802000030400E4000F80F0010B50446B0
S1133EE0FFF7A4FD07490C60FFF751FE002010BD49
S1133EF010B5FFF79BFD03490C68FFF748FE204609
S1133F0010BD00008C5E002038B50C46154608B97B
S1133F10FFF7EEFF00281CBF4368002B06D00068A3
S1133F202A46214601B0BDE830401847232032BD5F
S1133F30F8B50D4616461C466F4608B9FFF7D8FF7C
S1133F4004B1274600281CBF8468002C05D00068F3
S1133F503B4632462946A047F2BD2320F2BD02B5B6
S1133F6001226946FFF7D0FF02BD00230122DFE7EB
S1133F700CB470B50C46002504AE08B9FFF7B8FFC1
S1133F800146334622460FF2150002F03CF901289F
S1133F90B8BF3725284670BC5DF80CFB80B58DF89A
S1133FA000000B46012269461846FFF7ADFF01BD2C
S1133FB0F8B500F10F04E408E400A0422BD2082C69
S1133FC004D2082402E0083000F047F8DFF8342176
S1133FD01368190005D1002007E00568A5420DD239
S1133FE0011D08680028F8D11868111D00E0191D8A
S1133FF00B6883420BD01D68A542F8D359B10B68F6
S113400018680838A04208D2586808600FE002F027
S11340104BF90028D7D10020F2BD181908601D1DE6
S1134020586828511E680F68361B3E601C6009687A
S113403000291DBF48680028081D0020106003F1F6
S11340400800F2BD10B5040006D0AFF3008020468E
S113405000F003F8AFF3008010BD002800D17047D2
S113406070B4A0F108021368072B2ED913F0070FC0
S11340702BD1DFF89040616809B18A4203D25160C4
S1134080626015E00146486808B19042FAD30868B6
S11340900E18B24219D3964203D11B180B600A467C
S11340A006E0486810B1134498420ED350604A6049
S11340B0506850B11368D518854206D10026266091
S11340C00168CB1813604068506070BC704738B505
S11340D0050007D04FF0FF30B0FBF5F0884201D265
S11340E0002032BD4D43AFF300802846FFF760FF48
S11340F00446AFF300801CB12946204602F0EAF8DA
S1134100204632BDC0660020FFF79CBF4018491C02
S11341101CBFB1F1010100F8012DF9D17047000075
S113412070B502F0E0F8DFF85C5504462878E0B991
S11341300021E9602861A98002F0E2F8012002F080
S113414049F902F098F90200A86004D1204602F06F
S1134150B9F9232070BDDFF8300540F2E7310023C0
S113416002F0B4F9012668612E70204602F0AAF923
S1134170002070BDF8B584B000F02BF80CB92220F3
S11341800EE003A9204600F065F89DF80C00012814
S113419008BF032004D000F013F8002200F024F834
S11341A005B0F0BDFEB504000D4616461F4601D10C
S11341B02220FEBD00F024F800F019F8002210E0DF
S11341C0BDF82C009DF82810029001910097334609
S11341D07047044600200D4616461F468DF80C0015
S11341E0704700F001F8FEBD2946204610E2BDF8F4
S11341F024009DF8201002900191009733467047E7
S1134200F8B5054600240DB92220F2BDFFF70EFCD7
S1134210064600F0E6F9DFF86C74F868A84208BFB7
S11342200124284600F09EF9050004D03046FFF72B
S1134230AEFC2846F2BDF8681CB118B100F0ADF927
S113424003E010B9022002F0D2F83046FFF79FFCD9
S11342500020F2BD38B505000C4618BF002C01D172
S1134260222032BD0020207002F03DF8DFF8141443
S11342702278C96800E0896819B112B9A942FAD153
S11342800122227002F01EF9002032BD2DE9F04116
S113429080460C4602F027F8DFF8E8730646F86813
S11342A0002500E08068B0B14169C2884D194245DB
S11342B0F8D102F05FF83969401AA84205D202F039
S11342C059F82D1A3869451900E00025256000F0D9
S11342D007F8002002E000F003F81B20BDE8F0819D
S11342E0304602F0EFB8DFF89C034078704738B5E9
S11342F001F0F9FF044602F03DF80546204602F0BD
S1134300E1F8284632BD70B501F0EDFF064602F033
S113431031F80546DFF86C038488012002F083F845
S113432018B102F027F80546641CFFF7D9FF2146AF
S1134330284670BDDFF84C038068704730B50246EC
S1134340DFF840030C46416991420DD3856840F281
S1134350E7300021E5FB02014FF47A72002302F0FA
S1134360B5F82060002030BD212030BDDFF81403F3
S11343704069704770B5C3498E68CEB14FF47A7105
S1134380A1FB0045304600F08AF948B1304600F000
S113439081F9024620462946BDE8704002F01AB968
S11343A0204629463246BDE87040002302F08EB80C
S11343B0002070BD2DE9F041B44DB54CA94223D87D
S11343C028BFA04220D2AF4B9F68EFB14FF47A7858
S11343D0A8FB004508FB01551646384600F05FF976
S11343E040B1384600F056F902462046294602F00C
S11343F0F1F805E0204629463A46002302F066F823
S1134400C6E90001002000E02120BDE8F0812DE98B
S1134410F8430446E0079B4E08D5B188491CB18097
S113442000F0DFF8F06808B100F0B7F8A00765D530
S11344300027002446E001F056FF8146284600F09C
S113444091F8484602F03EF82869A0B301F04BFF0A
S11344508146A4EB0801284600F052F8A9692869AE
S11344604118A961484602F02DF824E011464FF0A6
S113447000080024486938B908791379984238BF8C
S11344800A4689680029F5D11546484602F01AF80B
S113449028690028CFD0044601F06CFFAB69C146FF
S11344A0A0EB0308B9EBE87FC5DC01DB4445C2D2CD
S11344B02A69D318AB61EC88EA687F1C12B12968B9
S11344C02846904701F00FFF814600F08AF8F26811
S11344D012B150690028C9D00020012F04BF022C5A
S11344E00120B07012B100F058F802E0022001F08F
S11344F07EFF4846BDE8F24301F0E4BFBDE8F18326
S1134500F8B504460E46E08830B902F068F98642F0
S11345103CBF064602F076F95A4FFD686661E5B184
S113452000232A4651698E4207D231B1701A0AD14A
S1134530107994F804C0604505D2761A6661134672
S11345409268002AEED1002B14BF9C60254610000F
S113455005D051698E1B566101E025460020A060FC
S1134560FD60F1BD474BD968002201E00A46896825
S1134570002918BF8142F9D1814201D0022070473D
S11345808168002A14BF9160D960816819B14A69B1
S1134590406982184A610020704738B5394DE8688F
S11345A0446944B129696418022001F013FF2046CC
S11345B001F0E3FE05E0022001F00CFF022001F00F
S11345C02CFFE8680021002283799C0706D48068C8
S11345D028B1436959180229F6D300E001226A7010
S11345E031BD10B501F0C6FE264BDA681969411ACF
S11345F008E054698C4239BF091B0024641A002165
S113460054619268002A18BF0029F2D1186110BDC4
S113461070B506460C461546049A059906983171FC
S113462032600021B160F360F080356101F0A2FED8
S11346302818B06144B90020F268706112B1316881
S11346403046904795B12C46FFF7F0F90546FFF741
S1134650C8FF21463046FFF753FF0A48C168B142FC
S113466008BFFFF79AFF2846FFF791FA002070BDB4
S113467010B501F038FE03498C7801F023FF204681
S113468010BD0000605F002018FCFFFF3789410067
S1134690F0A7C64BB0FA80F0C0F11F00704720B1FC
S11346A0411E084201D101207047002070470000DC
S11346B010B5044602F0E2F96B4821462022FEF7C9
S11346C0D7FC002010BDF0B5002347F6FF74A242CA
S11346D001D1FF20F0BD02291DDC634800EBC104B9
S11346E0A0780228B8BF01202178012911D1E178EE
S11346F06768091A8B4209D2CD1AA1EB550537F91F
S11347001540A242ACBF2B46691EF3E74118C8B25C
S1134710F0BD616809B90020F0BDCD5E954204DBAF
S1134720B1F902509542B8BF15468F88C822282691
S1134730FF2F03D1B1F906208E680123521B36B234
S113474092FBF6F2D3186278541E9C4238BF23467B
S11347500C1D04EBC3046668B4F9024014FB056441
S1134760002C4FBF002404F5FA744FF47A76B4FB9E
S1134770F6F45B1C934204D20E1D36F83370A74244
S1134780E6D201EBC30131F8041CA14288BF2146E3
S1134790884238BF0846C0B2F0BD30B5022922DCD9
S11347A0314800EBC1031978012914D1D87890421B
S11347B038BF024698780228B8BF0120121AD97867
S11347C09878091AD0B28142B8BF00225868D2B290
S11347D030F9120030BD100001D1244830BD5868B2
S11347E008B1011D01D1224830BD9978914202D30C
S11347F0B0F9020030BDDC78A24222D25B78848812
S113480000215B1EFF2CDBB203D1012101E0491C16
S1134810C9B2994200EBC10402DAA5899542F6D2E5
S1134820B4F90650A1684FF47A735A43521A05EB4F
S1134830D57402EB640292FBF5F1B0F900208A42D0
S113484002DAB0F9000030BDB0F902008142A8BF1D
S113485008B230BD80B50748FFF72AFFBDE8024023
S1134860012002F015B90000585600200CFEFFFF8D
S11348700080FFFFFC0400000168CA0707D58168B7
S11348808A0704D48168CA07FCD4012141607047B7
S11348907047704780B502F01DF988B10949401A84
S11348A007D0401E07D0801E07D0001F07D1C120AB
S11348B002BDC22002BDC32002BDC42002BDC5206A
S11348C002BD000001E000F010B50C46114602469E
S11348D02046BDE8104002F0B3B902F0E3B902F09B
S11348E022BA10B50C46114602462046BDE81040D7
S11348F002F0A4BA02F026BB7047DFF8F01108609A
S113490002F0F9BB38B50D4638B1DFF8E021116883
S113491019B902F080FB040001D1002032BDFFF779
S1134920ECFF204602F09EFB30B10020FFF7E5FFCC
S1134930204602F093FBF0E728001CBF2046A8475E
S1134940204632BDDFF8A411086800B10120704789
S1134950012070470020704703F034B80846114620
S113496002F0E4BBDFF888215368002100201847D7
S1134970F8B5DFF87C6115460C4672680121012008
S1134980904707462946204604F026FB04461FB1FB
S113499072680021012090472046F2BDDFF85411CF
S11349A010460A68130000D1704710B54FF0FF3469
S11349B0A24204D000230B60BDE81040104710BD94
S11349C01CB5DFF8304122600A46022A04D1201DBA
S11349D004F0CBFB002016BD00930146DFF818312C
S11349E0201D04F0A4FB0028F4D0022016BD0021F1
S11349F0DFF8080104F0E8BBDFF8000104F0B5BB00
S1134A00DFF8F80004F0C2BB80B53A48016811F140
S1134A10010F01D1002002BD001D04F0B7FB401EB0
S1134A208041C00F02BD0220704700207047002063
S1134A307047012070470020704738B50D46114675
S1134A401A462A4B5C6804B92D4C03462468284650
S1134A50A04732BD2548406800B92948806800470E
S1134A6038B500F04FF82A46214603F019F904003E
S1134A7004D11F4A5368012100209847204632BDC3
S1134A8070B500F00FF833462A46214603F08AF940
S1134A90FFE7040004D1164A536801210020984717
S1134AA0204670BD0C4615461E4625E710B50C463B
S1134AB0FFF722FF214604F09AFB040001D100F025
S1134AC00EF8204610BD09B14FF0FF3110B50C4669
S1134AD0FFF712FF2146BDE8104004F059BD044A17
S1134AE0536801210120184700000000D85F00200E
S1134AF0C8130020381100209D4900003C110020FB
S1134B001C0B00000C461546F6E6000001468AB26E
S1134B100AB94BF6EF610F4A1180000C08BF4FF63B
S1134B20CE205080704702461088030448BF484096
S1134B3041001180704738B5064C62212046FFF7CA
S1134B40F2FF054641F20B01A01CFFF7ECFF6840A1
S1134B5032BD000040160020012101FA00F0704728
S1134B60890001EB401101F184410A60704789001A
S1134B7001EB401101F184410868704710B5DFF87A
S1134B80A446A06B420605D412212046FFF7EFFF8E
S1134B900028F9D110BD80B5FFF7F0FFDFF88406D7
S1134BA00068000C00F0030002BDDFF87C06016819
S1134BB089B241F67132914201D001207047002040
S1134BC07047DFF86416002008607047DFF8581655
S1134BD041F671300860704710B50122DFF83016D5
S1134BE0884202D20022002407E0DFF82816884217
S1134BF034BF4FF080744FF000741021DFF81806B2
S1134C00FFF7AEFFDFF82406016821F080710C4342
S1134C10046010BDF0B5DFF80426DFF8144613680D
S1134C20002304EBC305CFB22E79BE4203D154F85E
S1134C303350854202D25B1C052BF2D3052B0FBFE8
S1134C404FF0407004EBC30040790006116821F076
S1134C50407108431060F0BD10B5FFF7A6FF04468D
S1134C60FFF7B4FF04F0A3FD0021FFF7D3FF14B155
S1134C70BDE81040A5E710BD38B5DFF8AC552B688A
S1134C8041F671329BB2934214BF012400242A607E
S1134C90FFF7C0FF0CB10020286031BDC01C0F28F5
S1134CA001D2000770474FF07040704700000000C9
S1134CB038B50446002500F079F9DFF87825DFF8E7
S1134CC06015944208D0DFF87025944206D0DFF8CE
S1134CD06C25944204D006E0086802E0486800E0CD
S1134CE0886800F00700401E04281BD8DFE800F0A5
S1134CF009030D06090004F096FD04E004F090FD9C
S1134D0001E004F08AFD05460CE004F053FD04467E
S1134D10DFF818050168C1F30060401CFFF71CFFB1
S1134D20B4FBF0F5284632BDDFF814154A68D30702
S1134D3002D40A680242FCD1704780B500F0E4F85E
S1134D40401C02BD70B50C460246110A01F00F0169
S1134D500020491E0929DFF8745513D8DFE801F053
S1134D6005131212071518121B1FDFF8AC54C2F3F7
S1134D70043608B1FFF7D8FF224631462846BDE87D
S1134D807040EDE670BD1035F1E730350120EEE7F7
S1134D9038351020EBE740354FF48030E7E7DFF893
S1134DA06C56E4E7F8B50646DFF89804DFF8841497
S1134DB00768DFF88404DFF88424DFF870440125F1
S1134DC016F478137AD0B3F5003F31D0B3F5802FC1
S1134DD02AD0B3F5202F71D0B3F5402F2ED0B3F5E0
S1134DE0602F63D0B3F5801F30D0B3F5A01F30D04F
S1134DF0B3F5B01F35D0B3F5D01F42D0B3F5F01FD3
S1134E0025D0B3F5001F4ED0B3F5101F4AD0B3F52B
S1134E10381F2DD0B3F5401F39D0B3F5481F50D0FB
S1134E20B3F5781F64D06CE004F0C4FCE16802E0E0
S1134E3004F0C0FCA168C1F3082104E004F0BAFC4A
S1134E406169C1F30421491CB0FBF1F75AE008463B
S1134E5029E01046FFF72CFF0746206B00F0030003
S1134E600DE00846FFF724FF216A01F00F0115E069
S1134E700846FFF71DFF0746206AC0F30110C7402C
S1134E8040E0FFF715FFA16AC1F3011106E0FFF747
S1134E900FFFA16A090A01F00301091D8D40B0FB4F
S1134EA0F5F72FE01046FFF703FF1FE0DFF8EC05EE
S1134EB000F07CF8072825D0092822D104F07AFCD8
S1134EC014E0DFF83C0600F071F804280CD0072841
S1134ED018D0082815D104F06DFC07462068C0F3EB
S1134EE00420401C47430DE004F080FC074609E021
S1134EF004F060FC04463046FFF71FFFB4FBF0F7F4
S1134F0000E000273846F2BD01460B0903F00F0309
S1134F1001205B1E092BDFF8142344D8DFE803F0DB
S1134F2005070B1143431317263B106800E0506933
S1134F30C0F3042070471168090E01F00101491CF7
S1134F4026E0D06800E09068C0F308207047DFF8DE
S1134F50B435994204D0DFF8B035994204D022E048
S1134F60116A01F00F0113E0116A09E0DFF89C35C2
S1134F70994204D0DFF89835994204D013E0916A3D
S1134F80C1F3011104E0916A090A01F00301091D4A
S1134F908840401E7047DFF87C05814203D1106BC6
S1134FA000F003007047002070470000014601F044
S1134FB00F010120491E0729DFF85C2554D8DFE8DA
S1134FC001F00415195327395341506A00F00700C2
S1134FD0801E052808D8DFE800F043270B030705E7
S1134FE00B2070470C20704705207047116910E0B2
S1134FF002207047516901F00701491E042934D881
S1135000DFE801F0120304141600F1E706207047EC
S1135010916901F00701012906D00229E8D0042989
S113502004D0052904D07047032070470A20704734
S11350300D207047116811F001010FD0012914D11E
S113504009207047DFF8D4140A6802F03002102AED
S113505004D0202A04D0302A04D070470720704797
S11350600420704708207047002070472DE9F8435A
S1135070074600240326112F0D46B04612D1042DF5
S113508002D104F0B3FB08E0052D0BD1DFF8900446
S1135090DFF890140068884204D304001CBF002188
S11350A004F05DFD07F00F077F1E072FDFF86894FB
S11350B014D8DFE807F004464C9E49819E8D022DEA
S11350C053480CD0032D2ED0042D2FD0052D32D0D3
S11350D00A2D03D00B2D30D00C2D30D089E00426BE
S11350E04FF0000801220121404600F0F1F8FFF7DB
S11350F0B3FD0CB1FFF742FDC9F8046004F04AFBAC
S1135100054604F057FBFFF767FDFFF744FD014632
S11351102846FFF7B1FD002C6BD1BDE8F443012113
S1135120002004F01CBD4FF00108DBE70226B04666
S1135130FFF752FDD6E70126FAE70526D2E7072650
S1135140D5E709F1100404E009F1180401E009F1BC
S11351501404012D0AD0022D0BD0032D10D0062DDE
S113516015D00A2D1FD00D2D1FD042E00020206045
S11351703FE001220121002000F0AAF80220F6E716
S113518001220121012000F0A3F80120EFE704F03F
S113519011FBFFF721FD01220221DFF83001FFF7A7
S11351A0DFFC0320E3E70420E1E7012201210720DB
S11351B000F08EF80520DAE7072D05D0092D04BF8D
S11351C00121C9F8001014E00020C9F8000010E023
S11351D0012D06D0042D15D0072D0CD0082D15D087
S11351E007E00020DFF834130A6822F0300210438D
S11351F00860BDE8F18301220121042000F068F871
S11352001020EFE700F020F82020EBE73020E9E75A
S11352100148E8010190D00300400E4004000E4014
S113522080400E4004300E4040000E4000410E40CD
S1135230B803000002001E00030020000500240043
S113524040410E40001000200122012102203FE0D5
S113525070B5044600F037F801220021022000F066
S113526037F8217C0020022908BF0120DFF8C4524E
S11352702968490840EA4100286008212278284624
S1135280FFF76EFCA088617A41EAC021A960EE684C
S1135290207AFFF703FDE288A17A06F07F6646EAEA
S11352A0C226227A0E4346EAC2160643EE60A17B6A
S11352B0607B227B090141EA0031E07B014341EA42
S11352C00241296170BD112070E60000B0400E401B
S11352D02DE9F84F072883468946924633D8DFE8FC
S11352E000F04E493F04447D7D55012702200125ED
S11352F00026B9F1000FDFF810818E4C70D04FF00A
S11353000009BBF1020F02BF2068C0F3011000289E
S11353100AD1894801682268D0074FF0010903D5F2
S1135320216869F305112160E763314600F068F8EC
S11353300028FAD0BAF1000F50D000F060F800282D
S1135340FBD0BBF1020F49D1B9F1000F46D0206860
S1135350C1072ED501222021022000F0C2F82CE042
S11353600427082003250226C3E71027202005254B
S11353700426BEE74027802007250626B9E74FF418
S113538080774FF4007009250826B2E7684604F0D8
S1135390BBFE9DF801000128DCBF9DF80000022837
S11353A006DD4FF480474FF400400F250E26A0E79A
S11353B0FEE70021022000F073F8D8F80C900122D7
S11353C000210220FFF784FFC9F30A01022000F044
S11353D01FF8E76300F013F80028FBD0BDE8F18F55
S11353E0E063D8F80000F040C107FAD4BAF1000F26
S11353F0F4D0D8F80000E840C107FAD4EEE7294613
S11354004046FFF7B4BB000090400E4050410E40B0
S1135410F8B5401E0D46032805F07F06424C444F64
S11354203AD8DFE800F00228101CC5F308051A2159
S11354303846FFF79CFB0028F9D12069400A45EA69
S113544040252561F1BD18213846FFF790FB00285F
S1135450F9D12068C00946EAC0162660F1BD1921B9
S11354603846FFF784FB0028F9D1A068C00946EA52
S1135470C016A660F1BD2D4801686169012060F382
S113548005116161C5F3C310FFF708FC226A2B49BB
S11354900A40154305432562F1BD000006000E00D5
S11354A0244A1068C0F30110002818BF002911D045
S11354B0202902D030290DD00FE04FF40000D16E26
S11354C001408142FBD1400209D5D06F800A00F02F
S11354D0010070474FF44000F1E71948EFE701205D
S11354E0704702280AD121B116484FF480634364FF
S11354F00160002A1CBF0220FFF7D2BF01207047C1
S1135500B80032008006160080162E0090171A008C
S113551090273000A009140070400E405C410E40FA
S1135520CC100020012D310110400E4090400E405F
S113553040410E4024400E403C300E4000F8FF0F26
S1135540FFF3E17F64400E4070470A46010002D039
S1135550516812681047704730380A288041C00FDC
S1135560704710B5014600200A2405E0531C0B6067
S11355701278303A04FB00200A681378303B0A2B77
S1135580F4D310BD2DE9F84F0B9C0C9E0D9F1546CE
S113559017F0030F81468A469846009510D1A3461A
S11355A0B3450DD200F01BF86D1C0BF1010BF7E7AE
S11355B00A98641E4346005D2A465146C8476D1C3E
S11355C0002CF5D1B80707D5009C02E000F007F8DD
S11355D06D1C281BB042F9D32846BDE8F28F434620
S11355E02A465146202048472DE9F84384B0814695
S11355F0129FDDF830C00D980E9EDDF840E0904615
S1135600119ABC071CD462B1FC070AD5002E08BF4E
S113561017F00C0F05D0521E03E030240CF80040A4
S1135620401C704538BF2028F7D3FC0708D5302527
S113563002E00CF80050401C904238BF2028F8D3F8
S1135640FC0627D50F9C7D050AD448B1704518BFC8
S1135650904205D1401E03D0102C08BF401E01D03B
S1135660102C09D1451CBC061CD420280CD278244B
S11356700CF80040284607E0022C05D1202803D26C
S113568062240CF80040401C202803D230240CF87B
S11356900040401C202813D2451C3EB12D260CF896
S11356A000600CE02028EFD25824E1E77E0748BFD1
S11356B02B2402D43E0703D520240CF800402846AE
S11356C002920190CDF800C0039742464846FFF786
S11356D059FF05B0BDE8F0832DE9F8418FB080464D
S11356E016981B9E002708B926F01006189D74050D
S11356F000D5C8B1B0FBF5FC05FB1C00BE46C4B226
S11357000EF101070A2CB8BF303005DBB4064CBFDC
S11357104124612400190A3807AC04F80E005FEA3A
S11357200C0001D0202FE5D31A9805900696039516
S113573007A8199E9DF85C50009004960295019765
S11357404046FFF751FF10B0BDE8F0812DE9F34F5B
S11357508FB00027DDE91A45229E91469846002D18
S113576004BF002C26F01006DDE91EAB700503D53E
S1135770002D08BF002C21D02046294652465B4606
S113578000F0A4FE3846471CD1B20A29B8BF303213
S113579005DBB1064CBF4121612152180A3A07A921
S11357A05B460A5420462946524600F08FFE0446C2
S11357B00D0008BF002C01D0202FDDD310990F98C5
S11357C00696CDF80CA04346219C209D0594049593
S11357D04A469DF870400294019707AC0094FFF785
S11357E003FF11B0BDE8F08F2DE9F34F81B093466C
S11357F02DED068B9A46B0EE408AF0EE608A8CB0AE
S113580053EC182B51EC180B1F9C209D002604F020
S113581095FC009606D0039502948EA5032401946A
S1135820009519E000F09DFA06D204200395029435
S113583001900FF664210EE053EC182B00F097FA58
S113584011D1680759BF032083A104200FF650210A
S113585003950294019000911499139853465A4663
S1135860FFF790FEEFE051EC180B0122DFF8B83996
S11358701E9F04F073FC05D90022DFF8B03904F050
S113588087FC09D214991398029501940097534602
S11358905A4600F0E9F8D6E0002304F079FC91467A
S11358A005D281F000414FF0010941EC180B680565
S11358B004AE02D406211E910AE0002130200A2FF2
S11358C004D37054491C7F1E2029F8D31E970091DD
S11358D051EC180B04F076FC1E9ADFF8541901EB16
S11358E0C201074691ED009B04F088FC00F0B6F875
S11358F053EC192B04F094FC41EC1A0B04F066FDF4
S1135900804604F075FD02460B4651EC1A0B04F078
S11359103BFE41EC1A0B08F101000190012251EC0D
S11359201A0BDFF8103904F019FC0DD8DDF80480E7
S1135930404604F05DFD53EC192B04F00FFC0FD826
S11359404FF000087F1C0BE0002204F021FC07D379
S1135950B8F1000F02D05FEAC87001D5DDF8048009
S11359601E9890B9384604F049FC00F077F80022FC
S1135970DFF8C03804F00CFC03D2012204F0EEFB83
S113598023D8F80721D57F1C1FE002460099404622
S11359904FF00A0C20290AD20A23B0FBF3F30CFBC4
S11359A0130030307054521E491C1800F2D12029C3
S11359B019D21046421E4B1C00281EBF30207054C2
S11359C01946F4D12E22725400930A2200992029F8
S11359D009D20A2097FBF0F002FB10773037775496
S11359E0491C0700F3D105F0030001280FD154B17D
S11359F0B9F1000F08BF15F00C0F04D0641E02E0CB
S1135A0030207054491CA14238BF2029F8D32029E2
S1135A100ED2481CB9F1000F18BF2D2206D16B0716
S1135A2048BF2B2202D42B0702D5202272540146F0
S1135A3004A8019100900395149913980294534675
S1135A405A46FFF79FFD0CB0BDEC068BBDE8FE8FF8
S1135A50000000006E616E00666E690002460B462F
S1135A6051EC180B04F090BD2DE9FB4F2DED048B88
S1135A70824693462DED020B88B0DDE90823DDE96B
S1135A80080104F05BFB1A9E1C9F07D100F06FF91C
S1135A9004D0DDE9080100F064F907D21B98109BDB
S1135AA00F990190029700F058F94BE1002200236E
S1135AB004F06EFB3DBF4FF0010881F00041CDE9D9
S1135AC008019046780558BF0626DDE90823DFF86B
S1135AD06817DFF868574FF0FF30194010400D4346
S1135AE0CDE904055A00520DA2F2FF32104604F02B
S1135AF085FBDFF84C27DFF84C3704F091FBDFF827
S1135B004827DFF8483704F081FCDDE90423044624
S1135B100D460020DFF8381704F078FCDFF834274E
S1135B20DFF8343704F07CFB22462B4604F06EFC8D
S1135B3004F048FB054604F061FBDFF82027DFF89A
S1135B40203704F06DFB0022DFF8E83604F05EFC39
S1135B5004F038FB0446284604F050FBDFF8042721
S1135B60DFF8043704F05CFBCDE90001204604F0C3
S1135B7045FBDFF8F826DFF8F83604F051FBDDE9E1
S1135B80002304F043FC41EC180B53EC182B04F0F5
S1135B9047FB41EC190B04F2FF3001050020CDE96D
S1135BA0040153EC182B4FF0804104F039FBCDE98C
S1135BB0020153EC182B00204FF0804104F0E4FC68
S1135BC0CDE90001002251EC190BDFF8A83604F0EE
S1135BD04DFD0022DFF8A03604F018FC00F0B7F801
S1135BE00022DFF8983604F011FC00F0B0F8DDE98B
S1135BF0002304F00BFC02460B46DDE9020104F02D
S1135C0035FD0022DFF8343604F000FCDDE904231E
S1135C1004F006FBCDE90401DDE90423DDE9080114
S1135C2004F0B6FA09D2DDE904010022DFF84836AF
S1135C3004F01CFDCDE904016D1E05F16300C728C5
S1135C4034BF042405243A051CD5DDE90801DFF836
S1135C503026DFF8303604F081FA0FD80022DFF85E
S1135C60283604F095FA09D2B542BABF761B761EDF
S1135C70002647F480670024002503E016B1780568
S1135C8048BF761E1B98844234BFA0EB04094FF032
S1135C900009B80702D50CB14FF000093DB1DDE9A8
S1135CA00801DDE9042304F0E1FCCDE90801CDF8A5
S1135CB018B0B8F1000F1DBFDDE9080181F0004103
S1135CC041EC100B9DED080B27F400600290109B33
S1135CD00F99CDF8049000F040F806468CB306F115
S1135CE00108B8064CBF45206520109B0F99324629
