:1000000008100020C1010000351A0000731B000019
:10001000351A0000351A0000351A0000351A0000A4
:10002000351A0000351A0000EC220000351A0000D5
:10003000351A000034230000351A0000351A00007C
:10004000351A0000351A0000351A0000351A000074
:10005000351A0000351A0000351A0000351A000064
:10006000351A0000351A0000351A0000351A000054
:10007000351A0000351A0000351A0000351A000044
:10008000351A0000351A0000351A0000351A000034
:10009000351A0000351A0000351A0000351A000024
:1000A000351A0000351A0000351A0000351A000014
:1000B000351A0000351A0000351A0000351A000004
:1000C000351A0000351A0000351A0000351A0000F4
:1000D000351A0000351A0000351A0000351A0000E4
:1000E000351A0000351A0000351A0000351A0000D4
:1000F000351A0000351A0000351A0000351A0000C4
:10010000351A0000351A0000351A0000351A0000B3
:10011000351A0000351A0000351A0000351A0000A3
:10012000351A0000351A0000351A0000351A000093
:10013000351A000010B5054C237833B9044B13B1C0
:10014000044800E000BF0123237010BD18100020F8
:1001500000000000E824000008B5034B1BB1034970
:10016000034800E000BF08BD000000001C10002094
:10017000E8240000064B0748DA1C121AC11E22F0C0
:100180000302994288BF0022034902F084B800BFED
:100190001810002010100020F4240000064B07481F
:1001A000DA1C121AC11E22F00302994288BF0022F3
:1001B000002102F07DB800BF34100020181000208C
:1001C00008B5084B83F30A88074B084AC3E90022A5
:1001D00000F00EF800F0F2F9FFF7CCFFFFF7DEFFBA
:1001E00000F06CF90800002008100020A5EDF5FED5
:1001F000044B054A9A60D3F8882042F47002C3F891
:100200008820704700ED00E000000000F0B5421EBD
:10021000D11C034685B019D86E460D4C04F1100769
:10022000354620686168083403C5BC422E46F7D1C4
:100230000DF10F010F3311F8010912F8014F84423B
:1002400004D19A42F7D1012005B0F0BD0020FBE7B0
:10025000D82200002DE9F0410368044603F1604311
:10026000B3F5C03F4FF00000A0B029D8826A6368A0
:1002700016699E4224D8B3F5801F21D8656B06F11C
:100280004003AB4268D8B5F5801F65D82846FFF714
:10029000BDFF002860D0284601F02DFC80B16B69BD
:1002A00073B1022B0FD1AB69C4F1040119444FF0B3
:1002B000FF32204600F008FE284BC31A584258412E
:1002C00020B0BDE8F08140F2046328460493FFF7B4
:1002D0009DFF08B90020F3E7284601F00CFC002838
:1002E000F8D00027D7F834804046FFF78FFF00286A
:1002F000F0D0503EB045EDD8284605A901F002FCEB
:100300000028E7D0BA6A059B12699A42E2D89C425B
:10031000E0D8B3F5801FDDD806A801F0EBFD059A03
:100320002146121B06A801F0EFFD06A801F0EEFD24
:10033000059C00F057FE039000F06CFE21460090F3
:10034000039B04F1200206A800F0D2FD049004985B
:10035000B0FA80F04009B3E70120B1E7E320BBDE4B
:1003600070B54FF0FF3290B005460C4600F0ACFD82
:100370001A4B98422ED11C22002101A801F098FFAF
:10038000174B29466846043C009301F02AFF21469A
:10039000684601F026FF684601F02CFF01F04BFB98
:1003A0000646B8B940F2022000F07CF91C22314622
:1003B00009A801F07DFF0B4B294608A8089301F01E
:1003C00010FF08A8214601F00CFF08A801F012FF59
:1003D00001F031FB002010B070BD00BFE320BBDE98
:1003E000010005430100064330B5044691B01C22CC
:1003F000002101A801F05CFF114B214668460093E3
:1004000001F0EFFE684601F0F5FE01F014FB054631
:1004100098B940F2022000F045F91C22294609A8AB
:1004200001F046FF074B08A82146089301F0D9FECA
:1004300008A801F0DFFE01F0FEFA002011B030BD87
:10044000000002430000034310B58CB01C22044698
:10045000002105A801F02CFF0A4B0194049301230D
:100460000293094B01A904A8039301F0B0FE04A86C
:1004700001F0C0FE01F0DFFAB0FA80F040090CB0E4
:1004800010BD00BF000008430400002038B50C4632
:10049000054680B179B100230B60074B036001F082
:1004A0005BFE01301EBF2B6843F440432B60236882
:1004B00043F40053236038BD1424004013B501A851
:1004C00001F086F99DF80530012B27D1334A936D51
:1004D000DB0313D4536B23F4FF0323F4FE4343F4F1
:1004E000BC1343F4A0635363136B23F4704343F4CE
:1004F00040431363136B43F4E06313639DF80430CC
:1005000063B94FF000531B68254B1B68254B1B68D4
:10051000254B1B68254B1B68254B1B68254AD2F8C9
:10052000803043F00303C2F8803001F013FB00F089
:10053000ABF808B900F090F801F06FFD044658B927
:1005400000F0A2F808B100F097F840F2012000F0A6
:10055000D3F84FF4017018E000F096F808B900F0F5
:1005600083F800F0ABF8012802D900F075F8FEE737
:1005700000F0B0F8104B0193019B002B0ADC40F215
:1005800005439C42E5D140F2032000F0B5F800207D
:1005900002B010BD019B013BEDE700BF00C0004071
:1005A000004000200080002000C00020000001204A
:1005B000004001200080004000350C0013B50124EC
:1005C0004FF040238DF806408DF80740D3F8943063
:1005D0005B0610D500F0A4F8A0F2022080B2072834
:1005E00009D804FA00F010F0C90F1EBF00238DF8DF
:1005F00006308DF807304FF480435B68013308D133
:100600004FF4027000F04EF800238DF806308DF89C
:1006100007309DF8073063B14FF48040FFF71AFEB2
:100620008DF806009DF806301BB94FF4027000F0FB
:1006300039F89DF8063053B100F026F808B100F003
:100640001BF84FF48040034B986001F087FA02B02A
:1006500010BD00BF00ED00E04CF23C32014B5A806F
:10066000704700BF000000204AF6C032014B5A809C
:10067000704700BF000000204FF20F02014B5A806C
:10068000704700BF000000204AF6C030044B5B8872
:1006900023F00F039BB21B1A58425841704700BF0A
:1006A00000000020044A08B51080FFF7EDFF10B9E4
:1006B0004FF20F03538008BD0000002008B5FFF77C
:1006C000E3FF18B1024B588800F00F0008BD00BFCF
:1006D0000000002008B5FFF7D7FF48B1054A53884E
:1006E00003F00F010F2914BF013323F00F035380D0
:1006F00008BD00BF0000002008B5FFF7D3FFBFF31F
:100700004F8F0549054BCA6802F4E0621343CB6082
:10071000BFF34F8F00BFFDE700ED00E00400FA05D6
:100720004FF20F01084B5A888A4201D1188870474E
:100730003AB91B8840F20220012B18BF4FF4007019
:1007400070474FF4007070470000002030B5002261
:100750000C24064B04FB02F1CD58854201D15818F8
:1007600030BD01320C2AF5D10020F9E784230000C6
:100770007FB50023CDE90033082315460DEB0302B6
:10078000044601F0BCFA41F203039842064626D122
:1007900094F8433063B10822E06C0DEB020101F0E4
:1007A000B3FB08230DEB03021146A06C01F091FB93
:1007B000039A029B6A6094F843202B605AB9094A55
:1007C000934208D0084A934205D00822E06C0DEB12
:1007D000020101F099FB6B682365002363653046D5
:1007E00004B070BDF70A0AF7FC0404FC2DE9F041DF
:1007F00000254FF0FF3704468846164603F02003D5
:1008000080F842301822FF21C0E91855A0F8405066
:1008100080F84350A0F8445080F84650C0F88870E3
:10082000683001F045FD88222946C4E91286C4F8E3
:100830008070C4F8847004F1900001F039FD074B1A
:10084000C4F82071C4E9463584F8245116B1304605
:1008500001F050FB0020BDE8F08100BF0001010164
:100860002DE9F04FA5B09846CDE9112300230446A9
:100870000E462E9D1393139A424501D30020D1E0DA
:1008800094F84630132BF7D8DFE813F06700B40074
:10089000AE00520039002D00C1013900B901390004
:1008A00073013900B901A8021803140012014F02A4
:1008B0004F0216034FF00009636D0F2B00F2988072
:1008C0000127102314AA2046CDF80490009711A9FF
:1008D00001F015FA41F203030890089A9A4200F0D9
:1008E000D980089B45E04FF00109D4E914329342C6
:1008F00000F2E88084F8469041F2030339E04FF0BB
:100900000109D4E91417B94272D9C91BDDE9127281
:10091000BF1A94F840200329174440F28181032F25
:1009200000F28181204611A901F0C8F9002320E0DE
:100930000127636D072BDFD8082314AA2046CDE9D1
:10094000007711A901F0DBF941F203030B900B9A38
:100950009A4200F023810B9B0BE014AA204611A9B8
:10096000FFF706FF41F203020590059B934208D072
:10097000059B049341F20303049A9A423FF47BAF30
:100980004FE0159A1499226500226265A24A9142AD
:1009900040F00F81022284F84620EAE7012314AADE
:1009A000009320460823019711A901F0A8F941F20C
:1009B00003030690069A9A4201D0069BD9E7149B3E
:1009C00003F07F43B3F1407F05D0132384F8463012
:1009D00041F20903CDE7159BD90706D594F84230BB
:1009E00043F0010384F842300027636D072BD5D90B
:1009F000012309E1204614AA11A9FFF7B9FE41F22B
:100A000003030790079F9F420FD0079F41F2030304
:100A10000497049A9A423FF42EAF049B0BB1002333
:100A2000F370049825B0BDE8F08F1498FFF78EFEA0
:100A300028B9132341F2080784F84630E6E74379E2
:100A400094F824219A4205D9132341F20E0784F821
:100A50004630DBE7026871498A4205D00289D20735
:100A600048BF013384F8243194F84230D9070DD5BA
:100A7000028994F84330920706D53BB1132341F223
:100A8000010784F84630C1E7002BF7D0037984F8DA
:100A90004630BBE7D4F848A000F0D4FA8023022106
:100AA000CDE9000315AA3B46504601F0EFF903E7F4
:100AB000226D0123A265002284F84330E26584F8A8
:100AC0004630D8E614AA2046CDE9009911A901F0D4
:100AD00016F941F203030990099A9A4201D0099B41
:100AE00047E714AF06F108030DF1680C3A4603CA54
:100AF000624518605960174603F10803F6D1106883
:100B00001860337843F001033370EEE6337843F036
:100B100004033370179BB36273785F0726D5EB230A
:100B20008DF8503017238DF85130A6238DF85230B0
:100B30005E2300208DF85330236D6066C4F8843046
:100B400094F8453043F0020384F84530EF686FB104
:100B500004222B6814A9B8470822606E2B68EF683E
:100B600016A91044B847636E103363660B2384F8EC
:100B70004630636D072B3FF6BFAE012316AACDE9C1
:100B800000332046082311A901F0B9F841F203030C
:100B90000A900A9A9A42B9D00A9BEAE63378159AE3
:100BA00043F002033370149B7360236D083B736240
:100BB0002AB1132384F8463041F20103D9E6042315
:100BC00084F8463094F84530626643F0010384F8B7
:100BD0004530AEE6042314AA2046CDE9007711A9DA
:100BE00001F08DF841F203030C900C9A9A4201D067
:100BF0000C9BBEE6236D042B02D9149B23660127B0
:100C0000636D032BE6D9092384F8463074E600238C
:100C10006366072353E700BFEB17A603F90707F93D
:100C20008F42FFF47FAE402928BF40218F4228BF6A
:100C30000F46032F88BF27F003073B4614AA204620
:100C4000CDE9009911A901F05AF841F203030D9082
:100C50000D9A9A4201D00D9B8BE694F846A0BAF10A
:100C6000070F04D1D5F808B0BBF1000F1BD1042F3A
:100C7000C7F1040B88BF4FF0000B14AB5A46FF219D
:100C8000D81901F015FBBAF1090FBB4414D12B465A
:100C90005A46204614A901F0A7F80D900D9B002B91
:100CA0003FF42FAED7E73A462B68606E14A9D847B9
:100CB000626E3A44626624E6BAF1040F21D1737879
:100CC00098077FF51EAEEB68002B3FF41AAE626EFC
:100CD000042A0BD80BEB0203062B07D915AB9B1A82
:100CE0001A68C4F884204FF0FF321A605A462B6805
:100CF000606EEF6814A9B847626E0BEB0207676677
:100D0000FFE5BAF10B0F7FF4FCAD737859077FF55F
:100D1000F8ADD5F80CA0BAF1000F3FF4F2AD5A4689
:100D20002B68606E14A9D047E6E700218A6A496BF8
:100D30001269503A91423FF63FAF112B0FD194F810
:100D40001831002B7FF454AE41F206030E930E9A35
:100D50009A4202D1132384F846300E9B09E694F898
:100D60004430002B7FF444AECDE9003314AA402375
:100D7000204611A900F0C3FF41F203030E900E9A22
:100D80009A42EAD1E06C01F0C1F894F81831A3B1AD
:100D900004F1B403E06C00931CAA04F1940314A9B9
:100DA00000F0A6F80E900E9B9BB10023F370132366
:100DB00084F8463041F20603DBE5E76C00F012F9F7
:100DC000039000F027F9039B00901CAA384614A951
:100DD000E6E70123F37084F8443009E6002314AAFF
:100DE000CDE900332046042311A900F088FF41F229
:100DF00003030F900F9A9A4202D00F9B049310E6C0
:100E0000D4F888202F4B9A4205D0132384F846301B
:100E100041F20503F2E70123F37094F84530DA0755
:100E200007D5EF682FB104222B68104604F1840126
:100E3000B84794F845309B0707D5EF682FB10422D7
:100E40002B68104604F18401B847236E6BB36F68BA
:100E50005FB34FF0FF3304F18001042210A8109318
:100E6000039101F008FA28B1042248F204002B682B
:100E70000399B84704F168090422494610A801F013
:100E8000FAF990B100239B6A1422D3F8108004F180
:100E90006C0108F10800D5E90037B847D5E90037FB
:100EA0000422494608EB0200B8470123B3700E2321
:100EB00084F846300023A1E70023F37041F20700D5
:100EC000B0E500BFE320BBDE30B501240025074BB1
:100ED00001445C609D601A61DC60884201D1586AFF
:100EE00030BD10F8012B1A62F7E700BF0080084000
:100EF0002DE9F04399B00E4615461C460746DDF82D
:100F00008090002861D000295FD0002A5DD0002B9E
:100F100058D02F4B2F4AB9F1000F14BF9846904676
:100F20001C22002111A801F0C3F92B4B414610A847
:100F3000109301F056F9202110A801F052F9012276
:100F4000264B019402920393CDF8109005920693DC
:100F500054B1B9F1000F07D001A910A801F02DF983
:100F600004A910A801F029F9079701271B4C07A92C
:100F700010A80897099401F020F90AA910A80A9668
:100F80000B970C940D950E970F9401F016F90DA97F
:100F900010A801F012F910A801F02CF9104B0093E1
:100FA0004FF098435A6CD202FCD55B6D40F204605E
:100FB00003F470230093009B002B08BF002019B09E
:100FC000BDE8F083DFF80C80AAE740F20160F6E7A5
:100FD0001F2400801F24FC84000001062000002044
:100FE0007856341200B591B00023402269464FF480
:100FF000807000F0C7FBB0F5A02F07D0B0F5302F00
:10100000034818BF002011B05DF804FB0048FAE760
:101010004CE30F0000B591B00023402269464FF425
:10102000807000F0AFFBB0F5A02F07D0B0F5302FE7
:10103000034818BF002011B05DF804FB0048FAE730
:101040006CE30F000048704786E20F002DE9F3477C
:1010500099460A9B0C46196805463F29164642D810
:101060005A68002A41D0224A002E14BFB04690464A
:1010700001F03F07091928BF5A68196024BF0132DF
:101080005A60AFB1C7F1400AA24521D8294652465D
:1010900009EB070001F0FFF80123414600934A469F
:1010A0003346002000F086F8B046403C55443C44AE
:1010B0003F2C0CD9A3092A46009341463346002011
:1010C00000F078F824F03F031D4404F03F040027AB
:1010D0002CB12246294609EB070001F0DCF800207C
:1010E00002B0BDE8F0879046C2E7DFF80480BFE7B2
:1010F0001424000030B40546084611461A46DDE9BE
:10110000023425B931B1029430BCFFF79FBF0248C9
:1011100030BC70470846FBE780AFFFFF2DE9F04188
:101120001746146886B01E46E3008DF80F30630939
:1011300052688DF80E30630B8DF80D30630D8DF80D
:101140000C30D30003EB54738DF80B3004F03F04E4
:101150005309372C8DF80A304FEA52334FEA525276
:1011600005468DF80820884694BFC4F13802C4F1C2
:101170007802CDE900178DF809300D4903460020AB
:10118000FFF7B8FF082143462A4600970DEB010000
:10119000FFF75CFF284605F1200350F8042B984226
:1011A00046F8042BF9D1002006B0BDE8F08100BF5D
:1011B00034240000F0B593B00E46174604462022B2
:1011C00000210AA81D4601F073F801204FF00052DB
:1011D0000197029003920496059006920795089055
:1011E0000992002C2FD1189C184BA40121460AA863
:1011F0000A9300F0F6FF03990AA80C430394069B98
:1012000004A943F020030693099B43F020030993AC
:1012100000F0D3FF01A90AA800F0CFFF07A90AA890
:1012200000F0D5FF0AA800F0E5FF4FF098435A6C94
:10123000D202FCD55B6D13F4702F0CBF00206FF051
:101240006F0013B0F0BD6FF07100FAE70004010306
:1012500031B10A4B5A68824205D80023C1E90033F4
:1012600040F201407047013053F8302003EBC000DA
:1012700043680A6000204B60704700BFD82400001C
:1012800070B40C4611460C4A556885420DD90130A0
:1012900002EBC0067668E518B5420AD852F830006D
:1012A0001A46204470BC00F01CBF40F2014070BCE4
:1012B000704740F20240FAE7D824000030B5CA680F
:1012C0001B4B04469A420D46A3B019D100F03FFCD7
:1012D000D4F82432174A013352F83330D4F82C2290
:1012E0001344984208D38033984209D241F20D0347
:1012F000C4F8303223B030BD00F540409842F5D8F4
:101300008023D4F82C1202AAD4F82402FFF7B8FFE5
:1013100080232146009502AA04F12C00FFF7A0FAD1
:10132000D4F82C32C4F830028033C4F82C32E1E710
:10133000AD1A0000D824000070B50D46002186B01B
:101340000DF1070302931D4B044616461160284613
:101350001C22CDE903338DF80710059300F0A8FF98
:10136000D4F830322BBBD4E98A21914207D22046EF
:1013700002A9FFF7A3FF9DF80730002BF0D02278D9
:10138000910744BF61683160D20709D504F10802B2
:1013900004F1240152F8040B8A4245F8040BF9D1F8
:1013A0004BB9237840F20640002B18BF002006B04E
:1013B00070BD0023E3E70020F9E700BF1F20000015
:1013C00070B40C4611460C4A556885420DD901305F
:1013D00002EBC0067668E518B5420AD852F830002C
:1013E0001A46204470BC00F092BE40F2014070BC2E
:1013F000704740F20240FAE7D8240000074B5A68D1
:10140000824207D9013003EBC002516853F8300023
:1014100000F0A4BE40F20140704700BFD824000095
:1014200070B5054688B0C0B14FF4403200236C4619
:10143000C0E900230A4B05F114061A785B680272B2
:10144000C360684600F06EF80FCC0FC694E80F003A
:1014500086E80F0005F114032B6108B070BD00BFD2
:10146000D824000000B5ADF5137D4FF40D7205A929
:1014700000F006FE78B904238DF81530074BCDE94E
:101480000100039001A905A8049300F00DFE0DF5DD
:10149000137D5DF804FB0020F9E700BFAD1A0000E2
:1014A000002300B59B6AADF5137D9B688B4204D386
:1014B00000200DF5137D5DF804FB4FF40D7205A9B6
:1014C00000F0DEFD0028F3D102238DF81530054B26
:1014D000CDE90100039001A905A8049300F0E4FD03
:1014E000E7E700BFAD1A000000B5ADF5137D4FF47E
:1014F0000D7205A900F0C4FD78B901238DF81530EF
:10150000074B0190CDE90230049001A905A800F035
:10151000CBFD0DF5137D5DF804FB0020F9E700BF5E
:101520008D1A000070B504460646044D0FCD0FC459
:1015300095E80F0084E80F00304670BDB824000025
:10154000024BD86900F00100704700BF0000034063
:10155000F0B5114A114C124E00F00105E3695F0726
:1015600013D40DB9334213D103EA00078F4207D1D8
:101570000B4A1A40002A14BF6FF001000020F0BD92
:10158000013AEBD16FF00200F9E74FF0FF30F6E7D8
:101590006FF00100F3E700BF809698000000034061
:1015A0000200010070B5134C6061E3695B071ED453
:1015B0000E4656F8043B8D18A361AE420BD10423AE
:1015C000002121202361FFF7C3FF58B9BDE8704017
:1015D0002120FFF7BDBF08210846FFF7B9FF10B172
:1015E0000423236170BD56F8043BA361E5E74FF087
:1015F000FF30F7E70000034038B541F671330122B0
:101600000C4C0021E569E3630B4B05F48035DA608F
:101610000223606121202361FFF79AFF10B9212086
:10162000FFF796FF0122054BDA600DB10023E3635B
:1016300038BD00BF000003400010034000200340FD
:101640002DE9F843154641F67132164B8946DF699C
:10165000DA630122064603F58053DFF8508007F471
:101660008037DA6055B9284601220F4BDA601FB186
:101670000022A3F50053DA63BDE8F88306F50054B1
:1016800004EA0804A41BAC4228BF2C464946224663
:101690003046FFF787FF0028E6D12644A1442D1BE2
:1016A000E0E700BF000003400020034000E0FFFF30
:1016B0002DE9F04F06464FF4502501202A4CDFF863
:1016C000B4C041F67137CCF8040044F826503025F8
:1016D0000024DFF8A4E0DFF8A49005FB06E5EC6544
:1016E0002C662C67214CDFF898A0D4F81C80E763A7
:1016F000E76800FA06F60743E7604BB9E26818F4BA
:10170000803F22F00102E26000D0E363184628E047
:1017100001F5005000EA0900401A984228BF184617
:101720006161D4F81CB087081BF0040F17D1013F8A
:101730003F0147F060576F66AA66C5F86CA0CCF809
:101740002460DEF834703E42FBD0094F01447E63D2
:101750000427CCF82860024427611B1ACDE74FF01C
:10176000FF30BDE8F08F00BF0040044000000340A0
:1017700000200440001004400000044000E0FFFF8F
:1017800018000340F0B507460F4D10488DB0002BF0
:1017900008BF05460E46144600211C2205A800F08D
:1017A00087FD012304A801A93D4344F0005401969C
:1017B00004950293039400F00AFD00F01BFD00F075
:1017C000F3FC0DB0F0BD00BF01000AFF010008FFEF
:1017D000054B5B69C3F38512827003F03F021B0B5C
:1017E00042700370704700BF00C007402DE9F04110
:1017F00004681E4624F04003802B054688461746A1
:1018000092B002D0B4F5807F43D11C2200210BA8F6
:1018100000F04EFD224A234B0121B8F1010F18BF01
:1018200013460A932B1D0193E4081F4B44F0005408
:1018300002910AA8039404970591069307960891CC
:1018400001A9099300F0B9FC04A90AA800F0B5FCAD
:1018500007A90AA800F0BBFC29680AA8C90800F07B
:10186000C0FC10210AA800F0BCFC00F0E1FC98B913
:101870000AA800F0BFFC4FF098435A6CD202FCD586
:101880005C6D00F0D7FC04F47024204612B0BDE873
:10189000F0816FF07100F9E74FF0FF30F6E700BF1D
:1018A0000001010400010004100000202DE9F04FA8
:1018B0009BB00746894698461646DDF894B072B14B
:1018C00015683B6823F04002802A03D0B3F5807F7F
:1018D00040F0A6800BEB0903002400930DE01546B1
:1018E000EFE795B1249A1BF80430525D013553405F
:1018F000269A05F00F05135501344C45F1D3002EFF
:1019000000F091800020356067E0A9EB040ABAF18D
:101910000F0F57D91C22294613A800F0C9FC434BCE
:101920003A6812933B1D03930123D20842F0005200
:10193000049305923E4A2699CDF818802AF00F0AA2
:1019400007930892CDF824800A930B920BEB0402C4
:101950000C9221444AF000520D9312A80E920F915E
:1019600003A91093119200F028FC06A912A800F018
:1019700024FC0CA912A800F020FC0FA912A800F06A
:1019800026FC09A912A800F022FC396812A8C9088F
:1019900000F027FC514612A800F023FC00F048FCA0
:1019A000C8B912A800F026FC4FF098435A6CD20236
:1019B000FCD55B6D544403F47023019300F03AFCB2
:1019C000019B5BBB269B0BEB040A1C44009B9A45C6
:1019D00006D14C4691E74FF0FF301BB0BDE8F08FC9
:1019E0008DB9424601213846249BFFF7FFFE0028AF
:1019F000F3D108F1100212F8013D0133DBB213708C
:101A00000BB99045F7D1249A1AF8013B525D013584
:101A1000534004F8013B05F00F05D7E71846DCE713
:101A20006FF01F00D9E73046D7E700BF030300047B
:101A300010000020FEE74FF098435A6CD202FCD50C
:101A4000586D00F470207047C0F30C032DE9F0418D
:101A500005460F4616460BB900F002F905F500548D
:101A600024F4FF5424F01F0405EB0608A04507D812
:101A7000324639462846BDE8F041022300F0F7B867
:101A8000204600F0EDF804F50054EFE770B40025AF
:101A9000AD6A03462E69864206D86C6913449C429F
:101AA00002D370BCFFF7D0BF70BC70471FB510F5F4
:101AB000004F00F50043144603931AD2039BB3F57D
:101AC0007E2F16D2039BC3F57E23934211D348B9D0
:101AD000836A5A69B2F5004F04D91869019100F080
:101AE000BFF801992246039804B0BDE81040FFF703
:101AF000ABBF04B010BD036913F0FE0F0CBF012093
:101B00000020704738B504460D46FEF77FFB48B10C
:101B10006369012B09D12046FFF7EDFF08B1A369E6
:101B20002B6038BD01202C60FBE70020F9E74FF067
:101B3000FF3313B5044601A80193FEF785FC20B1DD
:101B4000019BA3422CBF0020012002B010BD4FF426
:101B50000040704700F0C3BA00F024BB4FF480434C
:101B60001846016881F3088881F309884068874630
:101B7000FEE74FF40170FEF7BFBDB1F50D7F10B564
:101B800004460FD34FF40D72002100F091FB04F5D1
:101B9000DE7204F5AA7104F12C000023BDE81040A8
:101BA000FEF724BE40F2052010BD13B50446009197
:101BB00001462C30FEF754FEC4F8300218B141F251
:101BC0000703984209D1A3784BB140F2032040F2B9
:101BD0000223E278002A08BF184602B010BD40F286
:101BE0000120FAE72DE9F04387B00DF1080904461A
:101BF0000E4617460021102248461D46DDF8388063
:101C000000F056FB00211C22C8F80010284600F006
:101C10004FFB32463B462146CDF8009004F12C00A4
:101C2000FEF71EFE23789A0744BF6268C8F80020BA
:101C3000DB0709D504F1080304F1240253F8041B5F
:101C4000934245F8041BF9D1237840F20640002B5B
:101C500018BF002007B0BDE8F0834FF40D70704747
:101C600008B5FFF7C9FCB0FA80F0400908BD072BA2
:101C700010B5044618460FD862B142EA04039B0728
:101C80000AD113460A462146FFF712FDB0FA80F04A
:101C9000400910BD0120FCE70020FAE7134610B50B
:101CA00042B103439B0707D1FFF7CAFCB0FA80F0AB
:101CB000400910BD0120FCE70020FAE770B5D1E92A
:101CC0000152AA4205D290F840302B449B1A402B77
:101CD00010D9002012E00A6890F84040D65C90F8D5
:101CE00041200133224402F03F02013486548B60CC
:101CF00080F840408B689D42EDD8012070BD2DE9F1
:101D0000F8431D461746D1E901329B1A90F840204E
:101D1000044613449D420E469DF820909DF8248071
:101D200056D9FFF7CBFF00285CD1132341F2020004
:101D300084F84630BDE8F88394F84120A25CFA5458
:101D400094F841200133013202F03F0284F841202F
:101D500094F84020013A84F8402094F840200AB1D9
:101D60009D42E9D1D6E90121914201D29D4231D86B
:101D70009D42DAD129463846D4F88820FFF7A4F8E6
:101D8000C4F88800B9F1000F04D02A463946E06C47
:101D900000F0BAF8B8F1000F08D094F843308BB1D6
:101DA0002B463A463946A06C00F093F894F843303D
:101DB00043B1E36DA26D2B449342E36524BF00233E
:101DC00084F84330636D41F203002B446365B1E74F
:101DD0000023C2E73268525CFA54B2680133013220
:101DE000B260BFE70020A5E72DE9F7430446586835
:101DF0000E4617469846002842D011F0030342D100
:101E00009B6A206E1B6902EB000C1D1D65451CD8EA
:101E10001C33984219D28542294638BF01469C4559
:101E200094BFC1EB0C02C1EB0302081AC5F16805AF
:101E300006EB0009681820444946019200F02BFA8D
:101E4000FF214846019A00F033FA48F20403226E5B
:101E50009A420BD848F20701B818884206D99B1A53
:101E6000F258C4F880204FF0FF32F2503A46D8E9D9
:101E70000035206E3146A8470020226E3A44226683
:101E800003B0BDE8F08341F20200F9E7F7B504467C
:101E9000203016461D460F46019000F0CDF9DDE9D1
:101EA0000812019800F0CCF9002384F8587063649C
:101EB0003368C4F859307368C4F85D30B368C4F847
:101EC00061302B0C6DBA84F86530A4F8665003B00D
:101ED000F0BD1FB50C46194600F14803CDE901429B
:101EE000009300F1440200F158032030FFF7DEFCBC
:101EF00004B010BD10B5044600F00BF82046BDE854
:101F00001040002100F009B800F00CB8014600F0C4
:101F100016B86822002100F0CBB90023C0E90033D5
:101F20001846704707B500F128030190009300F1AF
:101F300008030020FFF7DEF803B05DF804FB02465B
:101F40000B4600F128010830FFF7E8B810B500246F
:101F50004A1EA1424FEA82024FF0FF0108BF22460B
:101F600040F8044B00F0A4F9204610BD036840F28D
:101F700004500133022B38BF0020704740F202505A
:101F8000704710B5ADF50E7D4FF40D72002001A91C
:101F900000F076F840F20124002101A800F042F898
:101FA000A042F9D040F20323984220D19DF804309A
:101FB00059070CD49DF804309A071DD4DB0716D5B9
:101FC00004998A98FFF790FA88B1002011E00B98E5
:101FD000FFF7ADFD0028EDD08A98FFF743FA0028FF
:101FE000E8D04FF40040FEF7FFF90028E2D140F2BC
:101FF00005400DF50E7D10BD0022926A029992688F
:102000009142DBD98A98FFF74BFA0028EFD00A9962
:102010004FF40040FEF7A4F9E9E7FFF7B2BF012251
:102020001A7070471FB50023CDE90033CDE90213C4
:10203000D0F83032044693B9D0E98A329A420ED2AF
:102040006946FFF73BF9D4F8300298B141F2070234
:1020500040F20123904208BF184604B010BDA37897
:102060005BB140F2022040F20323E278002A18BF5D
:102070001846F2E740F20120EFE740F20220ECE7D9
:1020800037B50C46054611462046FFF776FD48B9A0
:1020900069462846FFF7DCF820B9019BC4F82452B2
:1020A000C4F8283203B030BD38B500F5DE720446FE
:1020B0000D46202300F5AA712C30FEF797FBD4F8CB
:1020C00030321BB9D4E98A329A4203D3A07800B1E6
:1020D000E07838BD29462046FFF7F0F8EFE700200A
:1020E0007047B2F5801F10B51346044608460BD85A
:1020F000B4F5801F08D82344B3F5801F04D82146C7
:1021000000F0C9F8002010BD40F20240FBE7B2F534
:10211000801F10B506D8B0F5801F03D88318B3F51B
:10212000801F0ED940F2024012E0C458013410D191
:1021300004339A42F9D88B0705D10223FFF797FDA4
:1021400003E00023F5E7FFF7A9FD0028EAD000200F
:1021500010BD40F20340FBE70220704738B541EA6A
:102160000003C3F30C030446CBB9B1F5801F0FD8AD
:10217000B0F5801F0CD80D18B5F5801F08D8204683
:1021800004F50054FFF76CFDAC4204D00028F6D1F2
:1021900040F2024038BD0028FAD00020FAE740F2B1
:1021A0000440F7E7002070474FF098435A6CD20282
:1021B000FCD5586D00F470207047436813B9416036
:1021C00070475B685A68012AFBD159607047836881
:1021D00013B9816070475B685A68012AFBD1596066
:1021E0007047C369032B9FBF00EB83020133D160AB
:1021F000C3617047C369042B15D84FF09842116C26
:10220000C902FCD504339B0013650168103B1160C3
:1022100041680C30116050F8041C034411604FF009
:102220009842984200D1704750F8041B1160F8E7BB
:1022300000207047002070472422002100F038B8A9
:1022400070B515460E4624220021044600F030F8F1
:1022500025F04003802B02D0B5F5807F08D12046C1
:10226000314640F8045BEA0800F015F8002070BD24
:102270006FF01F00FBE70139024410B5904201D115
:10228000002005E0037811F8014FA34201D0181B8C
:1022900010BD0130F2E70A44431E914200D170475D
:1022A00010B511F8014B914203F8014FF9D110BD5F
:1022B00002440346934200D1704703F8011BF9E73B
:1022C000F8B500BFF8BC08BC9E467047F8B500BF23
:1022D000F8BC08BC9E467047B814B6F1E0CFF3AD29
:1022E000B7DD25C9FA79B7130000000007B0CD5E4D
:1022F0000200000000000302002500000040000072
:1023000000001000F0040100551B0000591B0000E4
:10231000550200007B1B0000AB1B00007424000072
:10232000E51B00005B1C0000000000008D040000A5
:102330004F1B000013B779FAC925DDB7ADF3CFE025
:10234000F1B614B80102000000000000FC240000F7
:102350004000000000000302000000000000000038
:10236000000000000000000000000000000000006D
:10237000000000000000000000000000000000005D
:1023800000000000EB17A60302010000030000009C
:10239000FA0606FA0F04000003000000F40A0AF42B
:1023A0000505000001000000EB17A65E0A0600000C
:1023B00001000000F50909F5030700000100000015
:1023C000F60808F60608000000000000FE0101FE05
:1023D0000808000000000000FD0303FD0C080000D9
:1023E00000000000F90707F91009000002000000D2
:1023F000F30B0BF3110A000003000000F70A0AF7C1
:10240000120B000003000000FC0404FC0D0C000093
:10241000030000006A09E667BB67AE853C6EF37295
:10242000A54FF53A510E527F9B05688C1F83D9AB9F
:102430005BE0CD19800000000000000000000000FB
:10244000000000000000000000000000000000008C
:10245000000000000000000000000000000000007C
:10246000000000000000000000000000000000006C
:1024700000000000000100002114000051120000C3
:1024800081120000C1130000FD1300006D1F000049
:102490004D1F00007D1F000081200000252000004E
:1024A0003913000041150000E32000000F21000057
:1024B0005D210000592100001002030028000000E7
:1024C00028000000002000000000100000000000B4
:1024D00004000000000000400100000001000000B6
:0824E0000040080000000700A5
:0C24E800F424000010100020020000008E
:0824F400590100003501000050
:04000003000001C137
:00000001FF
