:200000009004002059050000A1050000A5050000A9050000AD050000B10500000000000068
:20002000000000000000000070050000B5050000B905000000000000BD050000C10500004B
:2000400010B56249624A01E021B1491E1369DC07FAD411B96FF0020010BD50600120106004
:200060001169480702D54FF0FF3010BD002010BD03460020002900D1704770B5544C53F88E
:20008000042BE26008252560491E504A01E062B1521E2569EE07FAD43AB12269940701D4A1
:2000A00011B1EBE76FF0010070BD6FF0020070BD2DE9F84F444D0C46A96B834600208EB214
:2000C00006B1012641F67131A9634FEA92082B6843F001032B608146A24612E0C7F30A07C9
:2000E000C7F50067BF08A8EB0900B84238BF074639465046FFF7BCFF01000CD1B9440AEBA6
:20010000870AC14507D20BEB89073846FFF798FF0100E3D00DE0DBF8002021688A4208D01D
:200120005846FFF78DFF010003D101212046FFF79FFF2968490849002960F6B20EB1002172
:20014000A963BDE8F28F30B51F4B20490246986B80B200B1012041F671349C631D6845F0D1
:2001600001051D609A6001225A605C69620704D500F021F84FF0FF3030BD02225A605A6919
:20018000D40710D5002918BF491EF8D10BE00029196804D100F010F86FF0020030BD00F0CF
:2001A0000BF8002030BD5A699407F0D500F003F86FF0010030BD196849084900196008B187
:2001C00000209863704773E708000E40809698000C000E40F8B5282001680869CD68846AA3
:2001E000AC4225D305F560518C4221D2641B0419264E2168B1421BD1E168254F4FF0FF3208
:2002000000F050F8B84213D100F044F80ED20268B2420BD18168A268914207D3C1684FF07A
:20022000FF32284600F03EF8B84201D00120F2BD0020F2BDF8B5282000680569C468AE6A80
:20024000361BAE19274604E0384600F045F807F50067F26810198742F6D32946204600F04D
:2002600057F890B100F016F80CD2026807498A4208D1C1684FF0FF32204600F013F804496C
:20028000884201D00020F2BD0120F2BD07B0CD5EE320BBDE40F628000068A0F50061B1F544
:2002A000605F704730B50A4B1C6844F020041C600125084B1D609A605D6002E010F8014B53
:2002C0009C610A46511E002AF8D1D86930BD00BFB0400E4000C0014080B5FFF734FF401E87
:2002E0008041C00F02BD80B58308800705D54FF6FF7242EA0142009204E041F07F4141F4CD
:200300007F010091042269469800FFF75CFF02BDF8B505460E46144605F0010104F00100BD
:20032000014321D1F4B1AA0707D536F8021B2846FFF7D9FFC0B9AD1CA41E042C0CD3A7080C
:20034000BF003A4631462846FFF73DFF790806EB41067D19E41B38B924B131882846FFF716
:20036000C2FF08B90120F2BD0020F2BD80B51948194A01681160FFF75DFF0028FBD040F212
:20038000022000F02FF8002002BD000010B5134C0020206000F046F811490A68B2F5803F21
:2003A0000AD040F20921884218BFB0F5007F03D1FFF710FF00B110BD4FF400602060024680
:2003C0001046016881F3088881F3098840688746FEE70000880000208C00002008ED00E0D2
:2003E00004500E404FF0005108804FF20F0048800948016821F4E06141F400710160BFF362
:200400004F8F064906480A6802F4E06202430A60BFF34F8F00BFFDE700500E400CED00E05E
:200420000400FA054FF000514FF20F024888904201D108887047002804BF0888012802D1A5
:2004400040F2022070474FF4007070470C490D4808600D48026842F4700202600B4841694F
:2004600041F4005141610268920892000260416B490849004163016A21F08051016270470B
:2004800008ED00E00000000088ED00E040300E4030B450F8041B79B102684368024408306C
:2004A000DC0744BFA9F10104E31852F8045B43F8045B091FF9D1ECE730BC704710B50749FC
:2004C00079441831064C7C44163404E00A68081D114488470146A142F8D110BD2C0000002F
:2004E0003C0000004EF68851CEF20001086840F470000860BFF34F8FBFF36F8F4FF0007077
:20050000E1EE100A7047000089FFFFFF100000007400000080000020000000000120C0466A
:20052000002801D0FFF7CAFFAFF300800020AFF30080FFF71BFF00F000F800F001B80000FE
:200540000746384600F002F8FBE700002021090326311820ABBEF9E70248804702488047BD
:20056000024800474D0400008D03000095050000AD1007B00100000000030A0100080000E4
:200580000080000000F0490200800000C0EA2101C0EA2101AFF30080FFF7A4FFFFF7BEFF1A
:2005A000FFF7FEBFFFF7FEBFFFF7FEBFFFF7FEBFFFF7FEBFFFF7FEBFFFF7FEBFFFF7FEBFA3
:0405C000FFF7FEBF84
:2008000048130020C9370000A31100005D2400008F1C0000971C00001B220000000000008D
:20082000000000000000000094090000DB220000FB220000C80900005B2400008F2A0000F8
:200840000D0A4765636B6F20426F6F746C6F616465722076582E592E410D0A312E2075700E
:200860006C6F61642067626C0D0A322E2072756E0D0A332E2065626C20696E666F0D0A42A7
:200880004C203E2000000000F00F10031C00014010010020130000000900000000010000D1
:2008A0000202000013000000F00F10031C0001401002002013000000090000000002000062
:2008C00001010000D3FFFFFF800000000000000000000000000000000000000000000000C6
:2008E0000000000000000000000000000000000000000000000000000000000000000000F8
:2009000000000000000000002000000000010000050C0000FFFFFFFFFFFFFFFFFFFFFFFFB1
:2009200000000000000000000000000001000000FFFFFFFF512563FCC2CAB9F3849E17A7CD
:20094000ADFAE6BCFFFFFFFFFFFFFFFF00000000FFFFFFFF96C298D84539A1F4A033EB2D94
:20096000817D0377F240A463E5E6BCF847422CE1F2D1176BF551BF376840B6CBCE5E316B3F
:200980005733CE2B169E0F7C4AEBE78E9B7F1AFEE242E34F07B0CD5E0100000003000A0172
:2009A000C83000000040000000000400F00010006534000069340000BF1E0000E7370000CA
:2009C000193800000000000013B779FAC925DDB7ADF3CFE0F1B614B8010100000200000041
:2009E000C03800004000000003000A010000000000000000000000000000000000000000B1
:200A0000000000000000000038B5044600F08DFA182C054605D1182000F087FA182000F0F2
:200A200084FA284632BD80B54FF47A71684600F0FDFA08B1012002BD9DF80000312802D08A
:200A4000322802D003E0022002BD052002BD002002BD0A28ACBF37303030C0B2704700F066
:200A6000CBB910B540F6280092B001688C68B8496846482200F024FB200E00F06DF98DF8FF
:200A80001400200C00F068F98DF8160004F00F00FFF7DFFF8DF8180001224521684600F08F
:200AA00013FA002012B010BD2DE9F84FF6B000258DF8045000F010FB0FF22C3A0FF2A0284E
:200AC000A44E40F6B83B40F6071992E0042707E000F03BFB68B115208DF80400FFF794FF9B
:200AE00085210DF1550000F059FB0021584600F015FB00F03BFA0028EAD04FF47A70009036
:200B0000012302AA01210DF1550000F04CFA9DF8550001280DD1CDF800B0012302AA84217F
:200B20000DF1560000F03FFA0299842908BF0028D1D101A90DF1550000F039FB05464D4561
:200B40005CD1B078062700281CBFF078002865D09DF80400182800D106279DF80400FFF7E5
:200B600053FF062FFDD8DFE807F04244062405D45D00F6E7B4E701221121404600F0A4F995
:200B8000202337AA03A952A800F0AEFC2821304601F07EF8FF2070700121052000F0BEFADD
:200BA00000F0E4F918B10121002000F047FA00F0F9FA4320FFF728FF00214FF47A7000F08B
:200BC000ADFA00F0D3F918B900F0BFFA0028F8D000F0CCF900287FF479AF641EE9D118205C
:200BE000FFF712FF03E040F2032001F061F8FFF738FFFFF718FF07463C24B2E7002D04BFFC
:200C00009DF855000128A3D1CDF800A0802316AA314652A800F0A4FC050099D018208DF859
:200C2000040099E70121002000F008FA01210A2000F074FA9DF80400062808BF4D4505D15C
:200C400001221B214BA000F03FF9D0E701221A214FA000F039F9A5F51060B0F5E06F03D229
:200C60000122182151A002E00122102155A000F02BF940F60111681A20D0401E20D0401E82
:200C800018D0401E18D0401E1CD0401E1CD040F2FB61401A22D0C01E24D0401E18D0401E42
:200CA0001AD0401E1AD0401E14D0401E0ED0401E14D01AE0212112E0222214E023210EE0AA
:200CC000242210E025210AE027220CE0412106E0432208E0442102E0452204E04F218DF85D
:200CE000041002E050228DF804209DF804000009FFF7AFFE00F019F99DF8040000F02CF8EF
:200D000000F013F90D2000F010F90A2000F00DF96DE7B07800281CBFF07800283FF463AF3D
:200D2000317888070CD540F628010A6871689068884209D201F002F8716A01F0FFF803E0C2
:200D400040F2012000F0B4FF0122132121A07AE7400800001003002000F00F0079E6704794
:200D60000D0A626567696E2075706C6F61640D0A000000000D0A53657269616C2075706CB3
:200D80006F616420636F6D706C6574650D0A00000D0A53657269616C2075706C6F61642053
:200DA00061626F727465640D0A0000000D0A584D6F64656D20626C6F636B206572726F7265
:200DC000203078000D0A66696C65206572726F72203078000D0A4661696C656420746F2003
:200DE000626F6F740D0A0000000000004B1E000000000000731E000010B501219B489C4C7C
:200E000001F0C8F801219B4801F0C4F801214FF48A4001F0BFF80121974801F0BBF840F6BD
:200E2000AA60E06000212160616641F205006060A1606161E164914AA2646167A167E16706
:200E400060602068206001F0DDF8400100F561204FF4E111B0FBF1F02038894A02EAC002B3
:200E60006261012304220021002001F02DF9012301220121002001F027F90020A067032128
:200E800061670520E0604FF0E0617E48016000220262C2624263C2664FF440237A490B6033
:200EA0008A600024794A7A4B4C60920892008A610B638C634C630321764A11600123C3632E
:200EC00002207549086010BD70B50E46802E0546144602D341F2031070BD00F036F810B902
:200EE00041F2062070BD00206C4902E02A5C0A54401CB042FAD3D1F88000761E66F30E1062
:200F0000C1F8800080318908654889000160022264490A603CB100F018F80028FBD06248FA
:200F200001688A06FBD5002070BD10B5044600F00CF80028FBD05C4801684A06FBD54462D2
:200F400001688A06FCD5002010BD584858498268930702D50220086003E00068820703D409
:200F60000220886001207047002070475148006840F20111884208BF002007D040F2022196
:200F800088420EBF4FF480704B49401A4B4A1168814201D10020704701D2401A7047C1F585
:200FA0000071401870472DE9F04106468846154600278BB1069C2CB100F08EF80021204616
:200FC00000F0ACF8FFF7D2FF404505D2002CF9D000F0BBF80028F5D0FFF7C8FF37492E4B1F
:200FE0000A68354C804598BF404604E000224FF0020CC3F800C087420ED214F802E006F8F9
:2010000007E07F1C521CB2F5007FEFD0B2F5807FF1D14FF0010CECE70A6005B12F60474539
:2010200034BF41F204200020BDE8F08180B50091012300220121FFF7B6FF02BD1C4A08B179
:201040000220106079B101201060906000210F4A144892089200C2650123184A11600360D0
:2010600002200D490860002070470000404105000000014000250A0000220400F9FF0100A4
:20108000F8FF7F0000200E4080200E408808000001000C0028200E4408200E46800000202B
:2010A000C8200E403C200E401000014020200E4020200E4494200E40100100204003002049
:2010C0004AB1000011F8013B521E00F8013B1CBF11F8013BF8E77047F8B52648016841F4BD
:2010E000801101602448026842F00102026000F089FF4FF47A71B0FBF1F0204A23A1800AA7
:20110000506010226846FFF7DBFF0A208DF8020069461B4801F012F805B000BD70B5194BB6
:20112000164C1D69626802FB005086B2ADB2AE429241D20F227019B1196982B29142FBD1C4
:2011400001251D605D60608070BD0C4A0E49107820B10B68D80706D4002070470868C307DF
:2011600001D5012070478869518888428041C043C00F704700400E40C0400E4038030020AC
:2011800000800140148001400C80014001000000000000000000000000000000002201F0D8
:2011A00013B8FEE73348002101704170704770B504460D462078012808D003284FD0042839
:2011C00048D0182818BF432849D04DE0294E7078002860780DD1012806D101217170607817
:2011E000A1780918FF2915D01520287040F6041070BD3178884204D10620287040F6061012
:2012000070BD491CC9B28842E9D01520287040F6051070BD00228021E01C00F0F0FF04F166
:201220008301020A0B789A4204D01520287040F6021070BD497800F0FF00884204D0152026
:20124000287040F6011070BD6078307006212970002070BD0620287040F6071070BD18218C
:20126000297040F6081070BD1820287040F6031070BD0000440300202DE9F8431E4673681D
:20128000002B4ED00C4614F0030118BF41F2020048D11546074600F045FD396E001D6A1866
:2012A000824221D300F1180399421DD28C46844538BF844605EB010800F11802904588BF24
:2012C0009046ACEB0101ACEB000004EB0109A8EB0C083844424649466830FFF7F1FEFF2237
:2012E0004146484600F070FF00F028FD396E001D884222BF6A18031D9A4209D3411A6018C9
:2013000007F1800102680A600421FF2200F05CFF21463368386E74682A46A047386E2D1829
:201320003D660020BDE8F28370B54B688C689C4206D200F140021B1B14781B19412B01D3E5
:20134000002070BD537814780D68E4188B68EE5C04F03F0406558C68641C8C6013785B1C47
:2013600013708C684B689C42ECD3012070BD90F840004A6889681018401A70472DE9F0416D
:201380000C4617461D468046FFF7F1FFA84208F1400606D221464046FFF7C6FF10B3002003
:2013A0004DE000210CE0707818F800207A54491C737830785B1C03F03F03421E7370327084
:2013C000307808B1A942EED3A0686268904238BFA9420CD22368185C7854491CA268521CF4
:2013E000A260F1E71220B07141F2020027E0A942F8D1069CB26C2946384600F00FFFB06411
:2014000024B1F0682A46394600F02CFF079838B1F07878B1B0682B463A46394600F04AFFBB
:20142000F07838B1F069B1692818F061884224BF0020F07070692D18756141F20300BDE85B
:20144000F081F8B584B014460026054601960096082302AAFFF792FF41F20306B0423CD1A9
:2014600095F8430005F1480738B100F038F83868082302AA02A900F01DFF9DF80A209DF8CC
:201480000B009DF80910120442EA00629DF8080042EA0122024322609DF80E009DF80F10E5
:2014A000000440EA01609DF80D1040EA01209DF80C100843606095F8430048B9DFF86817BD
:2014C0008A421CBFDFF86407824201D000F007F86068B8600021F960304605B0F0BD78688D
:2014E000082202A900F0BEBEF8B5064606F140070020B8717870F87038710D4600214FF07F
:20150000FF303970797103F02003B864396279621446BB70FF22182106F1680000F054FEE1
:20152000FF22042106F1800000F04EFEFF22042106F1840000F048FEBD60FC6000F0F0FB67
:2015400000B11DB100F0EAFB18B114B941F20B00F2BD14B1F86800F07BFE0020F2BD000057
:201560002DE9FB4F82460021002300249AB005A880E81A00059209910AF148061C9A269D6F
:2015800006920AF1420710E000F076FB0899884233D10498B0600021F1600398DFF8901679
:2015A000884240F0468102223A7107981C99884280F0D38241F2030208920DF12808397906
:2015C0001229F2D8DFE811F014001500CD0235010C030E03E70257010E0352010E035201E7
:2015E0002402C60211039A029D02D701C602DCE7CAE700F041FB0899884240F0AF82B87872
:2016000020B10398DFF82416884246E03A78D1074DD5787800284AD10398DFF81416884218
:201620001CBFDFF81016884225D0DFF80C1688421FBFDFF808168842DFF8041688421AD00E
:20164000DFF80016884222D0DFF8DC15884265D0DFF8F415884213D0DFF8F01588420DD00A
:20166000DFF8C815884215D0DFF8E41588421CBFDFF8E015884200F0DC8010E00E2293E716
:201680000F2038710020B168316170618DE71221397166E000F042FB00283DD138E0122092
:2016A000387103A800F015FE00285AD0A8E20398DFF8841588421AD0DFF88015884214D01E
:2016C000DFF87C15884215D0DFF85C15884221D0DFF85815884214D0DFF8741588420ED0F6
:2016E000DFF87015884208D01AE004225CE7062038715AE70721397157E70920F8E70B2135
:20170000F9E700F00BFB002804BF7878002803D10C21F0E77878002840F08B801021EAE7C3
:2017200003A800F0D6FDA8B10398706411213971039800F0D0FD099038788106DCD509981D
:2017400000281CBF41680029D6D0504688470028D2D055E212217878397110B141F20400E3
:20176000FCE141F20800F9E198F8050098F8041041EA00210291C90704D5387840F00100D5
:20178000387002E000F0CCFA40B900F0C7FA002800F0E9810298C10500F1E581122038714B
:2017A00041F20A00DAE10520F978387141F00101F9700020F061F068082880F01F8201212A
:2017C0000191009100F05DFA08998842EAD1207840F00200207098F8020098F803109DF855
:2017E0002820000440EA016098F8011040EA012010436060B0680838606298F8061098F8C3
:20180000070098F80420090441EA006198F8050041EA00211143029100F089FADFF8381416
:201820000068884207D100F082FA0299C0688142B9D012213971E3E1012000F015FA0899C1
:201840008842AFD198F8021098F803009DF82820090441EA006198F8010041EA0021114362
:201860000291B068052824BF0298B061F0680428E2D30A213FE70020F06108213BE72B6829
:20188000F06942460AA9E047F0694044F061B068F168814280F0AF81A0EB0108B8F1040F3B
:2018A00005A9504608D3FFF762FD042808D205A95046FFF739FD50E1FFF759FD4045F6D373
:2018C000B8F1410F28BF4FF0400800F0C9F9404502D200F0C5F98046B8F1040F24BF4FEA4A
:2018E00098004FEA8008012001900090434600F0BEF90899884240F031813879082804D11A
:20190000D5F808C0BCF1000FB9D1B8F1040FC8F1040B06D20AA8FF225946404400F054FC5A
:20192000D84438790A2806D12B4642460AA95046FFF7A2FCABE70528A9D199F801008107A8
:20194000A5D5E8680028A2D0F06905280ED208EB000107290AD30AA9091D081A0AF1840240
:2019600001681160FF22042100F02EFC2B68F069D5F80CC085E73978880640F14481706C2B
:2019800000F0A9FC0028099040F03D8138E14FF0010900F065F9484589D3B068F168A0EB6E
:2019A0000109B9F1410F28BF4FF0400900F058F9814502D300F054F9814601200190009092
:2019C0004B4600F054F9089988422FD1387881060DD5002C1CBFD4F808C0BCF1000FD5D0B9
:2019E0002B464A460AA95046E04700281ED1F068B168884280F0098138788106C7D5002C2B
:201A00001CBF21690029C2D0504688478146C0E7002000F029F90899884207D1306C8F49EA
:201A2000884204D012223A7141F2050096E000F075F918B91B990120C87003E01B99C87868
:201A400000283FD0F87810F0030F1CBFEC68002C05D02B6804220AF184010420A047B06940
:201A600000281CBF686800282CD04FF0FF3102910AF180040422214602A800F02FFC40B1AB
:201A800000F05CF928B121462B686C680422001DA04704220AF1680102A800F01FFC88B1B8
:201AA00000F040F92B686C6814220AF16C010830A04700F037F92B686C6804220AF16801C8
:201AC000001DA0471B99012088700D20387144E00020012101900091102300F0C8F8089953
:201AE00088423BD100F00EFC802100900191012330680BAA022100F0BAFB78E001207870B9
:201B000026E0B87820BB002101910090402300F0AEF80899884221D1706800F0A5FB00F0C3
:201B2000EFFB044600F0EAFB00940346706812AA0AA900F0EFFB38B11B990020C870122077
:201B4000387141F2060009E01B990120C870B8700121D0E541F2070000E000201DB0BDE802
:201B6000F08FDDF86C90F068082844D2002101200191009000F085F808998842EED198F8EC
:201B800003000006B0F1407F3FF4EEAD1220387141F20900E2E7DDF86C90B368F068984210
:201BA00029D201210191009100F061F808998842D4D11C220AA909F10800FFF781FA99F897
:201BC000000040F0010089F8000009F1080000F0C1F80028E1D11220387141F20C00BDE710
:201BE0001B9CE8E5DDF86C9051E6DDF86C90F0681028FFF46DAFCDF86C90A9E71B94D4E431
:201C000041F20100AAE7099CF1E60994387881069ED5002C1CBFE268002A99D02946504653
:201C2000904700289AD193E7F70A0AF7FC0404FCEB17A603EB17A65EF40A0AF4F50909F515
:201C4000F60808F6F70909F7F90707F9FA0606FAFD0303FDFE0101FEAD1007B0E320BBDE7A
:201C600005A95046FFF783BB0190009004230AAA05A95046FFF782BB03AA05A95046FFF792
:201C8000E0BB08230AAA05A95046FFF777BBFEE7002200F07FBBFEE74FF0005108804FF2EF
:201CA0000F00488070470F494CF23C30088070474FF0005108804FF20F0048800A4801686A
:201CC00021F4E06141F400710160BFF34F8F074907480A6802F4E06202430A60BFF34F8F8F
:201CE00000BFFDE70200002000500E400CED00E00400FA054FF000514FF20F024888904221
:201D000001D108887047002804BF0888012802D140F2022070474FF40070704700207047E7
:201D20000020704740F6280001680869704728200068704740F62800006870472820044A63
:201D400000680168914201D10069704700207047AD1007B001207047F8B50446E00A0D4696
:201D60001646B4EBC02004BF204600F02CFB04F50067FF0AFF0204E0384600F024FB07F571
:201D8000006730198742F7D3324629462046BDE8F84000F034BB00007FB504464FEA0D0033
:201DA00070A11022FFF78CF9002046420DEB0605225CE97B914205D1401C1028F5D30120B2
:201DC00004B070BD0020FBE7B0B505469CB06C6BFFF7B0FF07462046FFF7DEFF002832D0F8
:201DE000207C022812D22046FFF7D6FF30B1606901280BD1207C022808D2A4693869844245
:201E000028BFAC4202D354498C4201D300201AE001A800F01DFA621B294601A800F022FA6E
:201E200001A800F021FA00F06BFA054600F066FA0346009504F12002214601A800F06AFAA5
:201E4000401E8041C00F1CB0B0BD70B504460D461646FFF76FFF01698C4222BF40693219CC
:201E6000904205D3324629462046BDE8704073E770BD2DE9F041044688461646FFF757FF88
:201E800036490068884218D1FFF754FF0746FFF755FF25187019304988420ED23CB9FFF7F4
:201EA0004DFF796988423CBF386900F08CFA324641462846BDE8F0414EE7BDE8F081F8B5DD
:201EC000044625686768666BFFF734FF05F1604547F601418D4229D20069874226D31E49EC
:201EE0008F4223D24030864201D38E4205D300F063FB401E8041C00FF2BD00F05DFBB8B9C4
:201F00003046FFF749FFB8B1307C02280ED2706990B102280CD1B069001D011B4FF0FF320B
:201F2000204600F07BF90E49884205D00020F2BD2046BDE8F24047E70120F2BD80B54FF063
:201F4000FF3200F06BF9064B984204BF40F20920FFF7AEFE002002BD01000400AD1007B0B9
:201F6000E320BBDEB814B6F1E0CFF3ADB7DD25C9FA79B713890001EB401101F184410A605D
:201F80007047DFF874104A68D30702D40A680242FCD1704770B50C460246110A01F00F01B8
:201FA0000020491E0929DFF8545013D8DFE801F005131212071518121B1FDFF83850C2F37A
:201FC000043608B1FFF7DDFF224631462846BDE87040CFE770BD1035F1E730350120EEE73F
:201FE00038351020EBE740354FF48030E7E7DFF81050E4E700400E4040410E40B0400E409F
:2020000050410E4010B51449086800F00700022808BF124A18D0124B1868C0F30440112816
:2020200028BF104A10D200BF11A20F4C125C0F484243A24208D11B685B0E012003F00303A3
:2020400022469840B2FBF0F2C86EC0F30420401CB2FBF0F010BD000094400E4000F0490291
:2020600010400E40C0EA210100093D0040420F000400000700000D1013001A2026303840DC
:202080004800000000F1C0600160704700F180600160704710B500F011F8BDE8104003FA36
:2020A00001F102F10C00F1E710B500F007F8BDE8104003FA01F102F10C00E3E730221E4C3A
:2020C0005043012322187047F8B50546174638000E461C4607D0002C284602D0FFF7E4FFF9
:2020E00001E0FFF7D7FF2A4630201349424388180F22082E05D2B300416800F015F84160BA
:2021000006E0A6F108039B00816800F00DF881604FB9002C3146284602D0BDE8F440C3E76F
:20212000BDE8F440B6E7F1BD9A4021EA020207FA03F111437047000000A000402DE9F0416B
:202140000246087808B902235360002454624B78002B4B7A14BF40250025002B8B7A14BF31
:2021600080260026002BCB7A14BF20270027002B0B7B14BF4FF0100CA44603B1082391F8B1
:2021800003E08C7891F807804FEA0E4E4EEA046E8C794EEA842444EA082E0C7A44EA0E04FA
:2021A000254335433D434CEA05051D430B790BB145F40055497909B145F08055156008B19D
:2021C00001205060BDE8F0814018491C1CBFB1F1010100F8012DF9D170470A0A42EA0122D2
:2021E0005040C0F30311484080EA003041010206C9B2D20E41EA0221484080B2704770B5DD
:2022000004460D461046002604E00146A05DFFF7E4FF761CAE42F8D370BDFEE730B50A4B0B
:202220001C6844F020041C600125084B1D609A605D6002E010F8014B9C610A46511E002A7D
:20224000F8D1D86930BD00BFB0400E4000C0014010B5044600F06EFA2046BDE810400021A6
:2022600000F098BA00F098BA014600F096BA2DE9F843089D099F80460E4691461C4600F072
:2022800037FB3A462946404600F038FB08F124000021016006750C22494608F13900FEF776
:2022A0000FFF08F14500210C220A847001704270BDE8F1833EB5029201911C4600F12805B0
:2022C000009500F1380300F12402214600F036FB37BD0020704700207047FEE703000020F4
:2022E000521E22BF13F8010B11F801CBB0EB0C00F6D0521C08BF10467047FEE7024870470C
:2023000002487047024870474A43E00F6A43E00F8642E00F2DE9F8415FEA00080F4618BF20
:20232000002FA1B016461D4605D0002E18BF002D01D0289C14B940F2016023E001211348E2
:20234000FFF728FE402111A8FFF7A2FC294611A800F052FE214619A800F04EFE402101A8DD
:20236000FFF796FC394601A800F046FE314609A800F042FE01A8009011AB20224146044817
:2023800000F049FE22B0BDE8F08100BF00150A0000000F4000B500BF13009646944610396B
:2023A00028BFA0E80C50FAD85FEA417C28BF0CC048BF40F8042BC90728BF20F8022B48BF56
:2023C00000F8012B00BD80B500F0EBFF401E8041C00F02BD80B58308800705D54FF6FF7289
:2023E00042EA0142009204E041F07F4141F47F01009104226946980001F012F802BDF8B5ED
:2024000005460E46144605F0010104F00100014321D1F4B1AA0707D536F8021B2846FFF7C0
:20242000D9FFC0B9AD1CA41E042C0CD3A708BF003A463146284600F0F3FF790806EB410643
:202440007D19E41B38B924B131882846FFF7C2FF08B90120F2BD0020F2BDFEE74FF401704A
:20246000FFF726BC38B54B494B4A012008606846146800F0DDFF240E8F2C10DA4748484CF5
:20248000016841F0040202604FF05013002230255543521C6351062AF9D3016000E006DC48
:2024A00040480168C909C90141F0200101609DF80100012804D13C48016841F004010160C4
:2024C00000203A49086000F0CDFFFFF7ECFBFEF7C6FAFEF7C6FA18B14FF40170FFF7E8FB98
:2024E000FEF7E2FA0446FEF73AFC002C19BF40F20370844240F20120FFF7DAFB40F2057062
:2025000084421BBF40F206718C4240F203204FF40170FFF7CDFB002032BD000038B5244875
:202520000168012401254A050AD5FFF7E3FB40F20221401A07D0C01E05D0C01E012802D9CA
:2025400000F094FF08B10024002544F20400016811F1010F06D1BDE832404FF40270FFF7A8
:202560009BBB31BD2DB14FF48040FFF7A8FC0400F1D0002CF5D00F494FF4804008600246DB
:202580001046016881F3088881F3098840688746FEE7000044000E40FC81E00FB0400E40DD
:2025A00000A000402C400E4064310E40B40AC64304500E4008ED00E0002070472DE9F84F2C
:2025C000022883461FD8140055D00B9AD2F800C0BCF13F0F984618D85068002818BF5FEAE0
:2025E000080A13D1BBF1000F04D0BBF1020F07D003D308E00FF2AC1A08E00FF2C81A05E08D
:202600000FF2E01A02E0494836E0C2460CF03F06A444A445C6F14005C2F800C002D250681A
:20262000401C506089460A9F8EB1AC420FD32A46B819FEF745FD0120009043463A4651463E
:20264000584600F06AFFC246A944641B00263F2C0BD9A509009543464A465146584600F019
:202660005CFF09EB8519A4EB851424B122464946B819FEF725FD0020BDE8F28F2DE9F04104
:202680000446200086B0884616461D4603D0022C30D02DD330E01427002100200DF1080C6E
:2026A0004242920055F82030D21D01EBC3010CF8021002A9114455F82020C91E52098A70E9
:2026C00055F82020520B4A7055F82020520D0A7055F82010490F401C0128E1D92A7802F048
:2026E0003F02382A34BFC2F13802C2F1780205E01C27D1E72027CFE70C4814E001950096D9
:2027000043460B492046FFF759FF019500964346082202A92046FFF751FF0C983A46414647
:20272000FEF7CEFC002006B0BDE8F08180AFFFFFC808000000281CBF6C21FFF7A9BA704751
:20274000002200290260CCBF01210021426080F86810002070473EB590F868300190002BC6
:2027600014BF0124022400F1280500F1080300952046FFF723FF3EBD80B5034603F1280277
:2027800093F868000091002814BF0120022003F1080103E0D4E70000DDE7EDE7FFF76EFFE1
:2027A00002BD000067452301EFCDAB8998BADCFE10325476C3D2E1F00000000000000000FC
:2027C00000000000C1059ED8367CD5073070DD17F70E5939FFC00B316858151164F98FA790
:2027E000BEFA4FA46A09E667BB67AE853C6EF372A54FF53A510E527F9B05688C1F83D9ABFD
:202800005BE0CD19890001EB401101F184410A60704710B50A684B688C68C9680260036025
:202820000460016010BDF4E710B502680368046800680A608C604B60C86010BD38B5102AA0
:2028400004460D460DD101220021FFF7DBFF04F5887429462046FFF7DCFF05F110012046E1
:2028600006E000220021FFF7CDFF294604F12400BDE83440CDE71FB50C4614F0030108D012
:202880006946FFF7D1FF102269462046FEF718FC1FBD2146FFF7C8FF1FBD1FB5044611F078
:2028A000030008D010226846FEF70AFC69462046FFF7B9FF1FBD2046FFF7B5FF1FBD38B5EA
:2028C000044611F0030088B015460CD0082D0CBF102220226846FEF7F3FB2A4669462046B1
:2028E000FFF7ACFF02E02046FFF7A8FF09B030BD00281CBF2421FFF7CBB9704770B5050009
:202900000C4618BF002C164602D16FF0210070BD2421FFF7BDF9802E18BFB6F5807F02D094
:202920006FF0220070BD2E60F2082146281DFEF7C7FB002070BD484600F08ABE2DE9F64F90
:2029400083B0002A14BF146800240027009000281CBF0F9E002E09D0DDF84080B8F1000FEC
:202960001CBF0193002B01D00E9810B96FF0210079E0009800680291802818BFB0F5807FEE
:2029800004D06FF022006EE000F070F80298874265D2002CF8D100F082FE0546002068600A
:2029A0004FF4404129604FF0000A00F08DFE81460098016880290CBF08221022011D2846E2
:2029C000FFF77DFF019905F18400FFF766FFFFF7B2FF0298A0EB070915E000F052F80AF110
:2029E000010A00F071FE8346F11905F1A000FFF754FF08EB070105F18000FFF73CFF58467B
:202A000000F026FE1037BAEB191F17D24820A8600521A960E1E77CB94820A8600521A9605A
:202A200000F02FF800F050FE81460E9905F18000FFF721FFFFF77FFF00F018F80298C01B5E
:202A4000E9D100F041FE8146019905F18400FFF712FFFFF770FF284600F02AFE96E70498A7
:202A600000B10460002005B0BDE8F08F0E9AF15D105D414008F80710641C04F00F047F1C2B
:202A8000704728698107FCD40320A8607047FEE710B50A684B688C68C96802600360046097
:202AA000016010BD10B502680368046800680A608C604B60C86010BD38B504460D46FFF704
:202AC000E7FF05F110012046BDE83440E0E738B504460D46FFF7E6FF05F110012046BDE84C
:202AE0003440DFE7082250F8041B21B9521EFAD10020C0B270471000FBD00120F9E7F8B524
:202B000004460D46164600F0DFFD0746294604F58470FFF7D1FF314604F58670FFF7CCFF5A
:202B200000F05EFADFF8D0062065012161656069000E00F0010080F00100F2BD2DE9F84FEE
:202B400088B004460D4692461E4600F0BDFD834604F5827705F140013846FFF7ADFF04F5AF
:202B6000867851464046FFF7A7FF04F588790AF1200100F0EEF900F0E6F900F034FA04F5CB
:202B8000847A00F0A1FD834629463846FFF794FF05F1200100F07BFB05F1400100F0D9F9F4
:202BA00000F0D1F9DFF85406DFF85416206561650120A06504F5807900F086FD834606F153
:202BC00040014846FFF783FF69465046FFF77FFF00F0B9F900F078FD834629464046FFF73A
:202BE0006BFF00F0B0F9DFF81C06DFF81C16206561650121DFF81406A065E16500F064FDD6
:202C0000804605F120013846FFF756FF404600F01FFDDFF8FC05DFF8FC1500F024F8054665
:202C200031465046FFF753FF284600F011FD00F04BFD054669463846FFF73EFF284600F092
:202C400007FDDFF8D405DFF8D41500F00CF8044606F120014846FFF73AFF204600F0F8FCA3
:202C600009B0BDE8F08F206561650120A06500F02BBD2DE9F04105460E461C46174600F099
:202C80005EF90122226000F01FFD8046394605F58070FFF711FF314605F58270FFF70CFF93
:202CA00005F5847621463046FFF706FF404600F0CFFCDFF86C0528650BE0DFF86815DFF81C
:202CC000680529656865DFF86415DFF86405A965E8656869C101F0D500F0F6FC0546214655
:202CE0003046FFF7F4FE2846BDE8F04100F0B0BC50F8043B934203D007E050F8042B22B96E
:202D0000091F0129F9DA01207047002070472DE9F04FA1B006460D4692461C46202101A876
:202D2000FEF7B6FF0122019200F009F9202104F12000FEF7ADFF202104F14000FEF7A8FF38
:202D40000521304600F0C4FC0020306030637063FF275046391107EBD161491150F8212004
:202D6000A7EB4111CA40D30702D47F1E002FF1DC06F5867A06F5807806F582790090D8E0F0
:202D8000202229462046FEF79BF9202205F1200104F12000FEF794F9202201A904F1400082
:202DA000FEF78EF9C4E000F08FFC00F0CFF800F0CAF8DFF88004DFF8801430657165DFF807
:202DC0007C04B06500F080FC834611A94046FFF77EFE00F0B8F800F077FC834621464046BE
:202DE000FFF76AFE00F0AFF8DFF85404DFF85414306571654FF48670B06500F065FC83469D
:202E000019A95046FFF763FE09A94046FFF75FFE00F099F800F058FC834604F1400100F0C4
:202E200098F800F090F8DFF820043065012100F032FA8346214606F58470FFF73DFE00F07C
:202E400082F8DFF80804DFF80814306571650121DFF80004B065F16500F036FC834609A9B2
:202E600006F58470FFF728FE19A95046FFF724FE00F069F8DFF8E003DFF8E0133065716597
:202E8000DFF8DC03B06500F01FFC8346214606F58870FFF71CFE00F056F800F015FC00F0FA
:202EA00055F804F1400106F58470FFF705FE11A95046FFF701FE00F046F8DFF8A803DFF8DB
:202EC000A81300F0E7F9834604F140014046FFF7FEFD04F120015046FFF7F9FD00F033F83E
:202EE0003811009907EBD060401151F82020A7EB4010C240D1071BD5002220212046FFF789
:202F0000F7FE78B10022202104F12000FFF7F0FE40B10022202104F14000FFF7E9FE0028A9
:202F20007FF42EAF23462A4621463046FFF706FE7F1E002F7FF537AF21B0BDE8F08F202135
:202F40002046FEF7A5BE584600F082BB834604F120014846B0E52DE9F0410F4690B00446C0
:202F60001546052100F0B4FB002222602263626368462022DFF8F412FEF7A2F808AB6A4684
:202F800007F140012046FFF774FE00F09DFB804608A904F58270FFF78FFD04F5867639464A
:202FA0003046FFF789FD07F1200104F58870FFF783FD404600F04CFB00F015F800F084FB76
:202FC000074605F1200104F58070FFF780FD29463046FFF77CFD00F003F810B0BDE8F0811C
:202FE000384600F035BB9348A149206561650121A048A065E165704738B50D46044620218C
:20300000FEF746FEFFE71F204242295C2244401ED177F9D531BD2DE9F04FB9B006460D4624
:2030200017461C46602121A8FEF732FE602109A8FEF72EFE3DB1009420001CBF429C002C88
:2030400001D0002F02DC40F20160D1E000203060306370630C217068DFF81C8240F010007E
:203060007060304600F034FB706820F4406040F4006070602022706820F4407040F4007079
:20308000706008F12C0111A8FEF71AF811AA21463046FFF734FD78B92046FFF723FD58B105
:2030A00011AA04F120013046FFF729FD20B904F12000FFF717FD10B940F2026098E0202F91
:2030C000C8BF2027202119A8FEF7E2FD002014E03A1A521E09A99208A7F1010E01EB820112
:2030E000AEEB000E2B5C0A6C4FEACE0E0EF0180E03FA0EF31A430A64401CB842E8DB00F021
:20310000E3FA074606F5847519A92846FFF7D4FCFFF766FF5948306506F5807700F0D4FA5A
:20312000814619A93846FFF7D2FC484600F090FA01AB11AA04F120013046FFF79AFD00F04C
:20314000C3FA834601A906F58270FFF7B5FC06F5887919A94846FFF7AFFC06F5867A00F0D3
:2031600095F8FFF7F0FE4648464900F093F8834619A94846FFF7ABFC01A93846FFF7A7FCCF
:20318000FFF7E1FE21AB19AA08F14C013046FFF7BEFD009909AB01AA3046FFF7B8FD21AA7A
:2031A00021A93046FFF7D7FE09AB21AA09A93046FFF7C4FC09AA09A93046FFF7CCFE00F01C
:2031C00083FA07460C21304600F082FA09A92846FFF772FC00F05AF8FFF702FF2A4814498A
:2031E000306571657069C1014CBF002040F2046039B0BDE8F08F00003035DA10D01482CB7B
:203200001481E11C8CE11C811C84D91C8391D11CE014D8141482E11C84D31482D11CE0143B
:2032200039398401D02484FC1C82FED88B1C81A0393801008AD11C81821CC00C0C0C0100FA
:20324000C00C0C83D91C83D88AD11C83DA0C811482D11C81C80C0C818CE11CD01484E31415
:2032600082D11C01D81483D11CC00C0114090000D91C83D11C81E11C0809000030D00C0197
:2032800030E11C8430D91C013035DA1421465046FFF712BC3065716500F016BA10B56249A8
:2032A000624A01E069B1491E1369DC07FAD441B15060012010601169480705D54FF0FF308F
:2032C00010BD6FF0020010BD002010BD03460020002900D1704770B5544C53F8042BE2606B
:2032E00008252560491E504A01E04AB1521E2569EE07FAD422B12269950704D429B1ECE7FF
:203300006FF0020070BD6FF0010070BD2DE9F84F444D0C46A96B834600208EB206B1012637
:2033200041F67131A9634FEA92082B6843F001032B608146A24612E0C7F30A07C7F50067F1
:20334000BF08A8EB0900B84238BF074639465046FFF7BCFF01000CD1B9440AEB870AC1459F
:2033600007D20BEB89073846FFF798FF0100E3D00DE0DBF8002021688A4208D05846FFF78E
:203380008DFF010003D101212046FFF79FFF2968490849002960F6B20EB10021A963BDE8C3
:2033A000F28F30B51F4B20490246986B80B200B1012041F671349C631D6845F001051D606D
:2033C0009A6001225A605C69620704D500F020F84FF0FF3030BD02225A6000E0491E5A69C4
:2033E000D40701D50029F9D15A69940704D500F00FF86FF0010030BD0029196804D100F03F
:2034000008F86FF0020030BD00F003F8002030BD196849084900196008B100209863704747
:2034200074E7000008000E40809698000C000E4010B50B4A516813688C0004F03C04C3F30F
:2034400081110C438470116801F03F0141709368D16803F0F003C1F303110B43037010BDCC
:20346000E0FF0FE0002070470020704738B5174C206840F0040020600123042200F02AF8E8
:203480000021009102E00098401C009000986428F9DB0123022200F01DF8002001E0009836
:2034A000401C00900098B0F5FA7FF8DB08490868012814BF012500250123002200F00AF857
:2034C000206820F004002060284632BDB0400E40BC1514420F210320FEF7F6BD10B50A68DC
:2034E0004B688C68C968026003600460016010BD10B502680368046800680A608C604B602E
:20350000C86010BD38B504460D46FFF7F1FF05F110012046BDE83440EAE72DE9F84F98B04A
:2035200006460C469046994600F0B9F805461EB1022E2CD02BD32CE00020286000216960B5
:203540000020E864696821F4406169602863686354F8201009BA4DF82010401C0828F7D34F
:2035600000F0B2F8044605F5827669463046FFF7B5FF04A93046FFF7B1FF204600F068F827
:203580002F4828650027229C05F5D27627E00420D3E72C4851E018F0030008EB871A06D001
:2035A0004022514608A8FDF78BFD0DF1200A00F08BF88346514600F049F80AF1100100F0BE
:2035C00045F80AF1200100F041F80AF1300100F03DF8584600F03CF81B4828657F1CA742E2
:2035E000D9D319F0030005F580760FD000F06CF8044669463046FFF785FF204600F028F891
:20360000202269464846FDF75BFD09E000F05CF8044649463046FFF775FF204600F018F893
:20362000284600F045F8002059F8201009BA49F82010401C0828F7D3002019B0BDE8F08FB7
:20364000888AC80180AFFFFF070D8101304645E700B962B6704730B4002513E050F8042B2F
:20366000D30744BFA9F101039A18091F042942F8045BFAD213468C0744BF15809B1CC90758
:2036800048BF1D7050F8041B0029E7D130BC7047890001EB401101F184410A60704780B5D8
:2036A000FFE7012201210648FFF7F2FF054802BD0449884203D1002201210148E8E77047A0
:2036C000B0400E4000000F40EFF3108072B6704742685209042941EA42120AD9491F0229E5
:2036E00005D9C91E032904D9091F022902D842F010024260704700000C490D4808600D48CB
:20370000026842F4700202600B48416941F4005141610268920892000260416B49084900D2
:203720004163016A21F080510162704708ED00E00008000088ED00E040300E404EF6885171
:20374000CEF20001086840F470000860BFF34F8FBFF36F8F4FF00070E1EE100A704700009D
:2037600000F00DF8002801D000F00CF8AFF300800020AFF30080FEF775FE00F017F801207B
:203780007047000010B5074979441831064C7C44163404E00A68081D114488470146A14232
:2037A000F8D110BDE80000000401000000F000B80746384600F002F8FBE7000020210903FA
:2037C00026311820ABBEF9E780B5FFF795FFFEF7A5FEBDE8014000F000B8AFF30080FFF714
:2037E000ADFFFFF7BDFF10B5B1F5BE7F044602D240F2052010BD4FF4BE71FEF749FA0020B7
:20380000607004F5807204F1B80104F12800BDE810400023FDF768BE1CB5009104462146DD
:2038200004F12800FDF79CFE00281CBF41F207018842C4F878010BD1A07838B1E07810B1AA
:2038400040F2032016BD40F2022016BD40F2012016BD30B5016884684218416802EB510375
:20386000C90703D54C4401E0491C05D19A420AD012F9011B12F8015B002904F8015BF3D469
:20388000491EF7D5F2E70C3030BD0000CBFDFFFF380200001001002000000000B7FFFFFF0E
:2038A0000C000000240000008000002081000C00F07F10308000002034000140FC00FFFFED
:0438C0009966973935
:00000001FF
