S02100004E43505F5553575F3131356B325F5A424272696467655F3639302E733337BB
S31500004000B0DB0020BD4203009D7F0000014103009C
S31500004010A70A0A010042000004180FAC0069B200AA
S31500004020000000000000000000000000000000008A
S3150000403000000000D8480300000000000000000057
S315000040400000000000000000FFFFFFFFFFFFFFFF72
S31500004050FFFFFFFF00600B000000000000000000F3
S31500004060FFFFFFFFFFFFFFFF8000000000000000D2
S31500004070000000000000000000000000000000003A
S315000040800000000000000000DCFF0020DCFF002034
S31500004090B0DB0020DB6A03004243030050D200205D
S311000040A0AC31002000E00B000000000026
S31500004200B0DB0020BD4203009D7F0000014103009A
S3150000421045BC000005410300094103000000000001
S31500004220000000000000000000000000A364000081
S315000042300D410300DB600000C37500009B7F00009A
S315000042401541030015410300154103001541030004
S3150000425015410300B5BE0000714001001541030081
S315000042601541030015410300E5B500007149000042
S3150000427015410300A1490000154103001541030043
S31500004280154103001541030015410300378900005D
S3150000429015410300236E000015410300154103007C
S315000042A015410300497600003976000015410300E8
S315000042B01541030015410300154103004BE90200B7
S315000042C00BE9020009E90200F5E3020049E90200F0
S315000042D00DE9020011E902000FE90200F1410300B5
S315000042E07DE902001541030015410300A5640000A5
S315000042F0154103007D3C010015410300D7AB0000CA
S315000043001541030015410300154103001541030043
S315000043101541030015410300154103001541030033
S315000043201541030015410300154103001541030023
S3150000433015410300102B70B54A4A4A4B4B4C246872
S3150000434065070CD4C60701D41C4209D100EA04054E
S315000043508D4208D0521EF1D16FF0020070BD2EE0E2
S315000043606FF00108301D1C42FAD1002070BD70B5F7
S315000043703F4D6860E8680E46410700D51FE056F8D5
S31500004380040B141F0208101D241FA86044B1082145
S315000043900820FFF7CFFF0100F4D00421296070BD8B
S315000043A0042028600021211612C4162304D10C20F3
S315000043B00ABDE87040BCE770BD4FF0FF30563013C1
S315000043C041F67131284C0122284BE568E1621A60FA
S315000043D0606002262636300B2D0CFFF7A8FF05F08D
S315000043E001050100033C201CFFF7A0FF01211F4A25
S315000043F011600DB10021E16270BD2DE9F843184F3F
S315000044003D68894614464A200A80462D0C396201C9
S3150000441022154B00203A10251A6002E0B044B14440
S31500004420A41B7CB108F50056760B7603A6EB0806AE
S31500004430B4424946404638BF26463246FFF7919E6B
S315000044405003EBD00121085A10133962BDE8F283FC
S31500004450000080969800020001001C000340100432
S31500004460130C100400012003400000002DE9F84160
S315000044700446012593B00F4690461E46012C06D0F1
S31500004480022C1ED0202C02D0212C1AD029E06846FE
S315000044902849282200F054F8012C18BF202C08D0F7
S315000044A0022C18BF212C04D0032C1CBF222C232C39
S315000044B024D10197ADF81080012E14D14FF480500D
S315000044C015E00AA81C49242200F03AF868460AA911
S315000044D0242200F035F81021ADF82410ADF826108E
S315000044E0DAE701200BE0022E03D14FF44050ADF87D
S315000044F00E006946204600F020FB0546E8B214B0DF
S31500004500BDE8F08180B500F0E3FBC0B202BD00F06B
S315000045102ABC80B500F031FCC0B202BD0CB40A461C
S3150000452080B5014602AB054800F05CFD002002BCE8
S315000045305DF80CFB444303006C430300834E00000C
S315000045404AB1000011F8013B521E00F8013B1CBFA6
S3150000455011F8013BF8E77047010008D4012200F08A
S315000045601F018A40DFF85838400943F82020704779
S3150000457001000CD4012200F01F018A40DFF8443804
S31500004580400943F82020BFF34F8FBFF36F8F70476A
S31500004590010008D4012200F01F018A40DFF8283804
S315000045A0400943F820207047C26C1143C16470472C
S315000045B0401E012884BF1F38012801D801207047FA
S315000045C00020704710B5DFF80448012806D00228FD
S315000045D007D0202802D0212803D004E00020204460
S315000045E010BD1C20FBE740F28311DFF8D00800F075
S315000045F0F7FD204610BD426893884089411A8B42D8
S3150000460001DA01207047002070473EB50446FFF7E7
S31500004610CFFFA0B3204600F075F880B300F029FB69
S31500004620044600F0D7FE0546A06901AB6A4602A91A
S3150000463001F0C4FB00992289206889B200F024F8B1
S31500004640284601F047FDA06901F030FC012816D18B
S31500004650226821899088228A091A91420FDBA06973
S3150000466090F83110022903D101F0A6FB022804DAE2
S31500004670A06990F83110012901D100F001F837BD89
S31500004680A069002101F0EBBB70B504460E46154645
S3150000469000F0A0FEE288B2420CD221888B1AF318F1
S315000046A093FBF5F105FB11352580A388F3189A1ABB
S315000046B0A280E68000F03FBCF8B504460D461646DB
S315000046C000F020F8C0B100F0D4FA0446207B10B107
S315000046D001216173F1BD607B18B12046BDE8F2404F
S315000046E0A2E0A0690FF2A91700F007F820B1A069AF
S315000046F000F003F80028FAD1F1BD3B4632462946C0
S3150000470001F084BC401E012884BF1F38012801D84F
S31500004710012070470020704770B506460D46FFF72A
S3150000472051FF0446012E06D0022E1CD0202E02D0A8
S31500004730212E18D070BD0B26A16991F8320000BB5E
S315000047400868042242F2480142503046FFF720FF33
S31500004750A06900684DB10421FFF726FF3046FFF738
S31500004760FBFE052107E00D26E6E700F014F93046CA
S31500004770FFF7FEFE0021A0690068BDE8704001F069
S3150000478036BD70BDF8B50446DFF834071D468142D4
S315000047902AD00026F2B21C204243DFF830168F18CA
S315000047A0BB69A3421CD13A893868A9B2FFF76CFFEE
S315000047B038680021C18002E0384600F016F820462D
S315000047C001F0FAFA02280BDC3889F9893A68A0EB7D
S315000047D0410091888842EFDA0121204601F03FFB33
S315000047E0761CF0B20228D5DBF1BD70B50446E0892F
S315000047F0668A256802467043DFF8C8362E18A06917
S3150000480006F1080101F0B3FBA06901F0D5FA012811
S3150000481001DDFFF735FF608AA18A401C90FBF1F2AB
S3150000482001FB1200608270BDFEB50446207B68BBAA
S3150000483060686B4601AA41880FF25506084400F1EC
S315000048400807A06902A901F0DBFA61688A88009866
S31500004850019D121A0888551B4A8890420ED261891A
S31500004860A06933468A1A394601F0D0FB70B96268EE
S315000048706189508802F108076D1A4519A069334607
S31500004880EAB2394601F0C2FB00B96073F7BD000019
S315000048902DE9F041054698460027F9B21C225143FE
S315000048A0DFF828054418A369AB4216D160688188F1
S315000048B0414534BF8688464600F08CFD6168B2B239
S315000048C049885118628900F04EF862685180616823
S315000048D08A88961B8E8001F0FDFB7F1CF8B20228A9
S315000048E0DBDBBDE8F08138B50546112909D1A86999
S315000048F0002101F0C1FA002129732846BDE83240A3
S3150000490092E7132906D1A869012101F0B5FA012021
S31500004910287331BD28682A898488141BA4B264B11F
S3150000492000F108020088115428682A89018800F0DD
S3150000493019F801808188491C8180A86901F0B6FABE
S3150000494020B9E889A0420CDB012105E0012808D145
S31500004950288A844205DB0021A869BDE8344001F0BD
S315000049607EBA31BD491C91FBF2F302FB131170476D
S3150000497010B52020FFF726FE0446A169DFF848059A
S3150000498091F83120012A03D181690A0602D51AE07D
S3150000499000F001F810BDC16C21F00401C16470473C
S315000049A010B52120FFF70EFE0446A169DFF81C05AD
S315000049B091F83120012A03D181690A0602D502E065
S315000049C0FFF7E9FF10BD01F0BBFC01462046BDE83C
S315000049D0104088E770B5DFF8F444DFF8EC54A8B966
S315000049E00021284601F003FC0123002205210020B6
S315000049F001F00BFD0021204601F0F9FB0123002206
S31500004A0001210120BDE8704001F0FFBC0B20FFF73B
S31500004A10BFFDDFF8AC634FF400603060E96C0D2039
S31500004A2041F00401E964FFF7B3FD4FF40050306034
S31500004A30E16C41F00401E16470BD80B5B8B90521AF
S31500004A40DFF8840401F0D3FB0123042205210020B2
S31500004A5001F0DBFC0521DFF8740401F0C8FB01233B
S31500004A60042201210120BDE8005001F0CEBC0B203C
S31500004A70FFF78EFD0B20FFF77BFD0D20FFF788FD6E
S31500004A800D20BDE8024073E5F8B50C461546FFF764
S31500004A9099FD0646306881883289E8B2121A914239
S31500004AA001DB0120F2BD00270DE000F093FC316828
S31500004AB014F8012B7F1C01F1080309885A54316848
S31500004AC0338900F070F9AF42EFD30020F2BD411EEA
S31500004AD0012980B584BF1F39012906D8FFF772FD69
S31500004AE0806901F0E3F9012800D0002002BD411ED3
S31500004AF0012910B584BF1F3901291CD8FFF762FDB3
S31500004B000446A06901F055F9800414D561688888C7
S31500004B1088B9A06901F070F9002802BFA06990F871
S31500004B203210002907D101F044F900F44030401E4C
S31500004B308041C00F10BD002010BDF8B500F02BF964
S31500004B400D4684BF1F3801285AD8204600F0FAF9CE
S31500004B5010B9204600F08FF800F08BF8064600F0FA
S31500004B6088F8012C0CD0022C03D0202C08D0212C44
S31500004B7046D1DFF85C130160DFF85823426005E098
S31500004B80DFF854230260DFF8541341608023038169
S31500004B904381601E012884BF1F38012867D8012C75
S31500004BA007D0022C03D0202C03D0212C06D13C2088
S31500004BB000E00020DFF82813084400E00020B06180
S31500004BC0012C0BD0022C03D0202C07D0212C17D17E
S31500004BD0DFF81003E861DFF8101304E0DFF80C03D8
S31500004BE0E861DFF80C132962A98CF181EB8C338222
S31500004BF08B4207D21C21304601F050FC0220F2BD48
S31500004C000120F2BDB26992F8310001280CD030893A
S31500004C1090FBF1F701FB1700002802BF93FBF1F0B0
S31500004C2001FB10310029E5D12946104600F0ABFE04
S31500004C30F0B9B0690123022290F82010007F01F03C
S31500004C40E4FB287D012807D101212046FFF764FDFA
S31500004C50B069FFF716FD0AE0002070823189F089FD
S31500004C6091FBF0F0B08200F06AF900F068F90020DC
S31500004C70F2BD2046A6E470B500F08DF884BF1F385B
S31500004C80012814D8204600F05DF9F8B92046651EC3
S31500004C9000F030F9FFF7EDFF012D064684BF1F3DFA
S31500004CA0012D0FD8B06900F09AFF10B170BD012038
S31500004CB070BDB06990F83110012903D1002120465A
S31500004CC0FFF72AFD1C21304601F0E8FB002070BDED
S31500004CD0F8B50746401E01280E463C4684BF1F38DD
S31500004CE001280BD83846FFF76DFC05463846FFF716
S31500004CF08CFC2968888818B92620F2BD0120F2BDEF
S31500004D0000F068FB07462868641E00F10801408829
S31500004D100A5C327028682A894188FFF723FE4180A1
S31500004D2081884A1E012C828084BF1F3C012C15D825
S31500004D30A96991F83100012803D10FE02846FFF751
S31500004D4054FDA86901F038F8022807DA2889E989AC
S31500004D502A68A0EB410091888842EFDA384601F0D4
S31500004D60B9F90020F2BD80B5FFF72CFC01464A6870
S31500004D7048899188401A80B202BD02B5411E0129B8
S31500004D8084BF1F39012904D80122694600F020F8A2
S31500004D9002BD012002BD0446401E0128704741465F
S31500004DA05046FFF789BC0A88521C92FBF3FC03FBB2
S31500004DB01C220A808A88521C8A8001F08BB9000066
S31500004DC000E100E080E100E080E200E02CE8002065
S31500004DD02DE9F84F8246401E01288846914682BF3B
S31500004DE01F38012801204AD85046FFF7EBFB04463E
S31500004DF06068002600270188084400F1080B27E0B8
S31500004E0000F0E8FA616818F8012B0B8819440A7259
S31500004E10616863890A88521C92FBF3FC03FB1C221F
S31500004E200A808A88521C8A8009884D1EAD41ED0F82
S31500004E3001F050F95DB1FDB26D1CAD1BEAB25946E9
S31500004E40FFF7AEFF6068AE19F6B200F1080B7F1CE3
S31500004E50F8B248450AD200212046FFF7CCFB0028CD
S31500004E60CED1207B0028F6D0222008E04E4505DA78
S31500004E70A9EB060082B25946FFF792FF0020BDE873
S31500004E80F28FF8B50C4607460126791E012915460C
S31500004E9084BF1F3901290FD8FFF794FB7F1E012F0E
S31500004EA084BF1F3F012F05D880692A46214600F09E
S31500004EB0FFFF06463046F2BD0120F2BD90430300D7
S31500004EC0097000F0854700000080054000C00540DD
S31500004ED01CE70020A4E700200CE6002094E6002052
S31500004EE064E80020F4DD002074DE0020F4DC0020FD
S31500004EF074DD002070B505466D1EFFF763FB012DBE
S31500004F000646346884BF1F3D012D0DD8B06990F860
S31500004F103110012908D0022100F0C2FE0020708263
S31500004F2000F00DF800F00BF800F054FA0021A18013
S31500004F3021806180E180BDE8704001F0CBB8304649
S31500004F40FFF753BC411E012980B584BF1F390129D3
S31500004F5006D8FFF737FB00281CBF0068002801D1E0
S31500004F60012002BD002002BD70B5134610440BE0BF
S31500004F7001F00F060909451E0A2E2846ACBF372444
S31500004F803024A4192C705B1EDCB2002CF0D1104426
S31500004F9070BDF0B5002341B1002806D52D2313704E
S31500004FA00123B0F1004F18BF4042002100248A4D72
S31500004FB0002655F8247001E0C01B761CB842FBD2CF
S31500004FC0F7B20FB90F0004D03036D9B256545B1C75
S31500004FD00121641C092CEBDB3030D9B250545B1C28
S31500004FE0D8B2F0BD2DE9F84F804696B014A8894690
S31500004FF015469B4604AF4FF0000A0024019020E0BE
S31500005000012405460DE03429FAD15BF8046B04222D
S315000050103846310CFFF7A8FF0422B1B2FFF7A4FF10
S31500005020074601998F420BD39DF8000004A93F1A49
S31500005030FAB24846C047002853D1FFB2BA4404AF7B
S315000050406D1C04A88DF800009DF800002978381A18
S3150000505000290BD0252903D014B907F8011BE0E776
S31500005060002C14BF00246D1C29780A0000F09E80D5
S31500005070B1F1250216D00B3A092A40F28580283A6A
S315000050807CD00A3A12D0521E42D0521E5ED0083A46
S315000050905CD0121F3FD0D21E3DD0921E56D0D21EDB
S315000050A06CD0BEE7252007F8010BBAE704A8DBF8A9
S315000050B00010DBF804208DF8000038460BF1080BD1
S315000050C0039102920027029A9742A9D203990222DB
S315000050D0C95DFFF749FF0199884206D300F074F8CD
S315000050E000286DD1F6B2B24404A80299491E8F4237
S315000050F03CBF202200F8012B0199884206D300F01C
S3150000510063F800285CD1F6B2B24404A87F1CDAE743
S315000051105BF8040BC7E707465BF8046BFAB204A911
S315000051204846C04700284BD1FFB2BA4404AF00221C
S31500005130314600E0521CD6B2885D0028FAD1D2B2C0
S315000051404846C04700283BD1B2446AE76C290AD1D9
S315000051506A785BF8040B752A0EBF00210121642AC8
S3150000516007D16D1C05E075295BF8040B0CBF002107
S3150000517001213A46FFF70DFF074452E75BF8041B8F
S3150000518002223846C9B249E768780124782818BF50
S315000051905828F2D16D1C0024681E32297FF433AFE3
S315000051A05BF8040B042281B2384637E70546EAB2BB
S315000051B004A94846C04718B9AA445FFA8AF000E035
S315000051C0002017B0BDE8F08F9DF8002004A9861ACC
S315000051D0F2B2484640470000AC49030042DE704741
S315000051E038B504460D4601F083F901F0A7F92946C2
S315000051F0204601F0A9F92B4622466C490120FFF70B
S315000052008DF929462046BDE83440E7E768482DE990
S31500005210F8430168674E4FF42068B165026A664933
S31500005220F2650B68336649687166426AB266816ADE
S31500005230F166C26A3267016B7167806B96F8381047
S31500005240B06748074CBF346CF46B01F0EDFA5B4B6A
S315000052500022844201463265A14624BFA3F12007FD
S31500005260A742716506F19002DFF854C1DFF854E1F8
S3150000527018D3A0697064E469B464B56DC5F3080514
S31500005280062D13D1704511D360450FD200884DF617
S315000052904264A0420AD17068B46840F20178506056
S315000052A0946003E000247464B464814646488142F5
S315000052B002D2014600E0091D0846984203D20C6856
S315000052C0B4F1CD3FF7D04149081AF064002000211F
S315000052D006F17C04C5B2401CC7B244F82510062F5F
S315000052E0F8D3002099452CD253F8041D7145F9D303
S315000052F06145F7D2CC07F5D5002406F17C0555F8B3
S3150000530024708F4202D0641C062CF8D3062CE9D1F7
S31500005310C4B2002C06F17C040CBF0520401EC5B2A9
S3150000532044F82510DEE7F16F002306F17C0506EB55
S315000053308304D4F8804045F823405B1C042BF6D93F
S3150000534011600146481EC9B20029ECD1B06DC0F308
S315000053500800032810D0042811D0052812D00628EA
S3150000536013D00C2817D03B2818D11948026891078A
S3150000537019D540F2025816E040F6012813E040F62F
S31500005380022810E040F603280DE0B8F5206F0AD198
S3150000539040F6042807E040F6052804E018B14D2839
S315000053A038BF40F607284046BDE8F283284403008C
S315000053B004ED00E00000002000E300E0B0DB002088
S315000053C0424303006C4400009C000020B0DB002038
S315000053D01880014AEFF31180302181F3118870475C
S315000053E03022504310B50123DFF8C44B05E03022CC
S315000053F0504310B50123DFF8484B03FA01F120446E
S31500005400016110BD1CB59DF8104000931346019430
S315000054100A4600F0CCFF13BD38B50446FFF7DAFFA5
S315000054200546606B28B9DFF88C2B0121012001F0BD
S31500005430B5FA606B401C60630EE038B50446FFF7B2
S31500005440C9FF0546606B401E606305D1DFF8642B1B
S315000054500021012001F0A2FA2846BDE8324000F002
S3150000546039BE00F11D01087D02280BD10B783020D2
S31500005470DFF8942B4343D01840690979C84000F0FF
S31500005480010070470020704738B501460022DFF85A
S31500005490C43B53F8220090F821408C4203D0521CA2
S315000054A0042AF6D331BD38B300F12E05E978022976
S315000054B022D100F10804FFF7D4FF617C2074022991
S315000054C004BF2878002817D100218DF80010206825
S315000054D0694601F06DFC217C09B1697829B100208B
S315000054E06870206801F033FC31BD28B99DF80000D2
S315000054F010B1206801F01DFC31BD1CB5044604F155
S315000055002201C87B02280FD1607E18B1012806D07F
S31500005510207E20B90978A07FFFF762FF1AE009789C
S31500005520A07FFFF764FF15E0012813D1207E002835
S3150000553007BF11218DF8001013208DF800002046BA
S3150000554000F000FD01226946204600F0B1FC20462D
S3150000555000F03CFD002016BD2DE9F04104468846CA
S315000055601646FFF737FF0546A088E188884207D32D
S3150000557000203060284600F0ADFDDFF8F40A1EE09A
S315000055802088142704F1080378431422414618445E
S31500005590FEF7D6FF218804F108004F43C119316098
S315000055A02088E188401C90FBF1F201FB120020806C
S315000055B0A088401CA080284600F08CFD0020BDE895
S315000055C0F08138B504460D46FFF704FFA18811B9EE
S315000055D000222A6027E0628814214A43A11801F1BB
S315000055E008032B606188E288491C91FBF2F302FBF9
S315000055F013116180A1884A1EA28010E038B50546C5
S315000056000C46FFF7E7FEA98811B9002222600AE0DE
S315000056106A8814214A43A91801F10803236000F09F
S3150000562059FD002032BD00F055FDDFF8480A32BDB5
S3150000563002680121516101688A69D107FBD50079A9
S315000056400422DFF8343A40011A50704703790421E6
S31500005650DFF8282A5B01D1500068022141617047BA
S3150000566030B585B000F12C0301241C709A798AB9F3
S315000056700FF2A9030490039302924C68012500954A
S315000056800194026802F124030A684169C06801F0C6
S3150000569033FB01E00021197005B030BD2DE9F84358
S315000056A004460D4686B004F12D060121317070794D
S315000056B080BB2168DFF8C89901F13C07FFF78AFE35
S315000056C0804605A9484601F03DFD40B99DF8140005
S315000056D028B1484601F00DFD2046FFF7AEFE4046D4
S315000056E000F0F8FC0120F0722046FFF795FE0FF25D
S315000056F0491000210494039002916A6801200090E9
S3150000570001922B682169A0683A4601F0EFFA07B0CA
S31500005710BDE8F08300203070F9E70000F8B51546C3
S31500005720686A00F066FBDFF84C19884257D005F12D
S315000057302C06B07942F2480100BB2A68936C9A05A0
S315000057400BD5009ADFF83C091061009A00209060A2
S315000057502B684FF40070585015E078B92868826CB1
S31500005760D0050BD50098DFF82029026100980022A9
S3150000577082602B684FF480725A5004E00099002032
S31500005780086100998860FFF725FE07460098C468FF
S315000057903CB14368014688680A6809691B1A2846AD
S315000057A0A047686A6946FFF70CFF686A818831B1CD
S315000057B000F01FFB00992846FFF752FF0CE001207E
S315000057C028762846FFF799FE002030707179032964
S315000057D01CBF2846FFF73AFF384600F07BFC012045
S315000057E0F2BD10B5006800F0F2FC044601F04CFD75
S315000057F024214843B0FBF4F0401C10BD1CB50C46F8
S31500005800206880698006204605D5FFF716FE02202F
S3150000581084F8380013BDFFF7E4FF002101910091E1
S315000058200146234600F001F813BDDFF86028DFF8D3
S31500005830500801F018BC0000FEB5154605F1280613
S31500005840306802A9FFF7DAFE04462846FFF7C9FFCB
S3150000585001460020019000902B46FFF7E6FFDFF897
S315000058601408844223D002990020086102998860B6
S31500005870FFF7B0FD07460298C46824B14368026882
S3150000588000212846A047306802A9FFF79AFE306833
S31500005890818839B102A9FFF7B1FE02992846FFF7C0
S315000058A0FDFE01E000207071384600F013FC012077
S315000058B0FEBD10B9DFF8D8077047002918BF002AC7
S315000058C003D040F60100824202D3DFF8C8077047D2
S315000058D00020704738B504460A00E17FE07E04F1F7
S315000058E021051ED00123042200F08FFD94F820101C
S315000058F0207F0123022200F088FD287C022809D19E
S3150000590000F035F86978A07F0023042200F07DFDC1
S31500005910012018E0032828D100F029F800230422EA
S315000059201FE0002300F071FD94F82010207F00F0A6
S3150000593026F8287C02280ED100F01FF86978A07F8F
S3150000594000F01DF800200090012301222978607FD5
S31500005950FFF758FD09E0032807D100F00EF80023F1
S3150000596000226978A07F00F050FD002032BD297822
S31500005970607F0023012200F048BD2978607F002364
S31500005980002200F042BD2DE9F84187B005460E46DB
S315000059906846DFF804171C22FEF7D2FD45B3002E39
S315000059A000F0B6803C21284600F078FD05F124077A
S315000059B000203861DFF8E4261078DFF8981638B949
S315000059C0002341F82030401C0428FAD3012010702F
S315000059D0002051F82020AA420DD0401C0428F8D3FC
S315000059E0002251F82200002875D0521C042AF8D350
S315000059F0DFF89C06EAE0307D002405F12108787383
S31500005A0031682960BC73307B012128713975306893
S31500005A10DFF88C16884261D1212288F80220DFF84F
S31500005A20841629614FF480226A61F269316A3A600C
S31500005A303B681C803A6854803B689C803C72796065
S31500005A407A68148079684C8079688C807C72FC72E4
S31500005A5072680292F1890522ADF81010318AADF80C
S31500005A600E10B17C8DF80C10F17C8DF80D208DF8A0
S31500005A7000408DF81210694600F0C9FB327BDFF852
S31500005A802806142152018150337AB77A327B00F10D
S31500005A90180143EA0743520110308B50727AF37AA9
S31500005AA000F097F8307AE876B17AE977707A287755
S31500005AB0F17A85F82010707D6877B17D88F800103E
S31500005AC0F07DA877317E284688F801100121FFF77E
S31500005AD001FF00B37AE041F822508CE7DFF8CC15DD
S31500005AE0884208D1222288F80220DFF8C4152961ED
S31500005AF04FF4A02298E7DFF8BC15884208D123228C
S31500005B0088F80220DFF8B01529614FF4C0228BE730
S31500005B10DFF880055AE0FFF75DFC0746307D032875
S31500005B201AD1327BDFF850050221520181503368C9
S31500005B30042141F25C029950F27D337E317B00F103
S31500005B400C0C42EA0342490108304CF80120727DF0
S31500005B50B37D00F03EF810E002280ED198F8000060
S31500005B60DFF8581501F048FD01F037FD0220687690
S31500005B70AC762C762846FFF7C0FC30684FF0FF3134
S31500005B8042F248028150337D032B0CBF05210421CC
S31500005B9000F02DFB31684FF44060DFF82465486162
S31500005BA001F07CF8002105F1080001F013F828B98E
S31500005BB0002105F10C0001F00DF800B1344638461D
S31500005BC000F088FA002C14BF2046002008B0BDE87B
S31500005BD0F081317B42EA0342490142507047F8B5F1
S31500005BE0040002D1DFF8A804F2BDDFF8B01408788B
S31500005BF048B10020DFF85C1451F82020A2424BD0B7
S31500005C00401C0428F8D30321204600F049F800215F
S31500005C10204600F024F900212046FFF75BFE04F140
S31500005C202405A87B10B920680A214161687B0328F6
S31500005C3004D094F82100002101F0DEFCA068DFF812
S31500005C40407401F00DF8E06801F00AF800F0ECFF8E
S31500005C502868002101804180818068680180418038
S31500005C608180FFF7B7FB06466946384601F06AFAB7
S31500005C7028B99DF8000010B1384601F03AFA3046CE
S31500005C8000F028FA2869012804DB01212961204651
S31500005C90FFF7D3FB0020F2BD002241F82020B2E737
S31500005CA02DE9FE4305000E4608BFDFF8E40379D070
S31500005CB0FFF790FB814605F12C07DFF80884012EDB
S31500005CC025D1A96A888890B3A86801F058F8002001
S31500005CD07870AA6A908880B369461046FFF78EFCF2
S31500005CE0009800F10801A86801F089F80098C0F84A
S31500005CF01080AA6A908800B369461046FFF761FCD7
S31500005D000098C468002CF4D000F04EF8F1E7022E9B
S31500005D1003D1696A8888C0B909E0032E13D1A96A3C
S31500005D208888002802BF696A88880028CCD148463E
S31500005D3000F0D0F9DFF8900334E028688069800429
S31500005D40FBD5022E01D0032E28D1E86801F017F802
S31500005D50002038706A6A9088D0B101A91046FFF712
S31500005D604DFC019800F10801E86801F048F8019837
S31500005D70C0F8108008E001A91046FFF722FC019840
S31500005D80C4680CB100F010F86A6A90880028F2D155
S31500005D90787903281CBF2846FFF758FC484600F0D0
S31500005DA099F90020BDE8FE83836800224146284613
S31500005DB02047006880697047406A1EE02DE9FC4173
S31500005DC000F047F8686A17461E46828862B100F0FE
S31500005DD010F80446E86801A901F011F8009818B116
S31500005DE014B900F02DF803E000213160002038607E
S31500005DF020E06946FFF702BC806A8088C0B270471F
S31500005E002DE9FC4100F025F8A86A17461E4682884F
S31500005E1062B1FFF7EEFF0446A86801A900F0EFFFA4
S31500005E20009818B114B900F00BF803E000213160B6
S31500005E3000203860C8F8000029688869BDE8F68146
S31500005E4041680198091A3960019931600098006823
S31500005E50704788460021054600910191704790F8E9
S31500005E603120032A02D1DFF8640270470229417605
S31500005E7018BF0176FFF741BB80B500F11A02D37D4A
S31500005E80012B01D1022902D1DFF8400202BD1378AD
S31500005E908B4209D011700A0002D100F097F803E096
S31500005EA0012908BF00F04EF8002002BD007E7047B1
S31500005EB02DE9F041074688461646FFF7FAFC00280A
S31500005EC03BD1152001F0D4FB044607F12E0502E074
S31500005ED00CB100F0A6FFB86A818811B128780028B5
S31500005EE0F6D03868846914F002040AD104214161AD
S31500005EF0386881698807FBD5387910215E4A4001E8
S31500005F0011500121A970287968B904E018F8011B1D
S31500005F10104600F01CFA3046461E3A680028F5D1B5
S31500005F2090698106FCD53CB93A7910205349520153
S31500005F3088503968082048610020BDE8F0810000DB
S31500005F4000D0034010B5040000D15AE094F82E00AA
S31500005F5030B92046FFF785FA10B9A06800F0E9FECF
S31500005F6094F82E00401C84F82E00002010BDF8B5D1
S31500005F7086B000F071F8C8B90196029703970495A8
S31500005F805349059100F018F880B904F12C052878DA
S31500005F9058B92046FFF74CFB00992046FFF760FBF7
S31500005FA06879032801D000F00CF8002007B0F0BD96
S31500005FB000E0034078490300606A6A4601A9FFF7DA
S31500005FC0CBBA002121762046FFF797BA10B5040018
S31500005FD000D116E094F82E0088B194F82E0001281E
S31500005FE006D12046FFF73DFA10B9A06800F0AFFED3
S31500005FF094F82E00411E84F82E10002010BD334860
S3150000600010BD234810BD000000C00340F8B586B09F
S3150000601000F022F8E0B9019602970397049504F17F
S3150000602028052B49059100F01DF888B9687970B9E3
S31500006030FFF7D0F929680646888828B100992046D6
S31500006040FFF72CFB01202872304600F043F80020B1
S3150000605007B0F0BD98F3002004460E4617461D46CD
S31500006060FFF727BC28686A4601A9FFF775BA000042
S315000060700A7000F00B7000F0ACD50340ACE50340AD
S3150000608080F300200D7000F00C7000F0FD5700004A
S31500006090027000F0037000F080490300B6FF002094
S315000060A00080054002000400ACC5034000C0054066
S315000060B002000500000006400200060089540000A8
S315000060C00E7000F0097000F0087000F0057000F026
S315000060D0017000F080F3118870477047DFF8403296
S315000060E0DFF84022984210B508BF11600AD0DFF8E9
S315000060F03842A04208BF116104D0DFF8303298421E
S3150000610008BF1162C16D41F08001C16510BD70B557
S31500006110044615461E4619B9032001F0D1FA014678
S31500006120300006D0202E18D0402E18D0602E18D061
S3150000613070BD10204543A268680800EB411022F0AC
S315000061406002A260A268B0FBF5F0794916432038D8
S31500006150A66001EAC001E16170BD0820EAE70620F9
S31500006160E8E70420E6E72DE9D041714C21400AB169
S3150000617001220CE023B1202B05D0402B06D008E0ED
S315000061800122102707E00122202704E003228027AE
S3150000619001E00122402701F5807101FB02F4064669
S315000061A000F010F88046304600F00CF8A2FB07011C
S315000061B0224603FB0711002301F048FE08FB0700F7
S315000061C0BDE8D08100212246002301F03FBE38B54C
S315000061D00446A568032001F073FAA368E16905F097
S315000061E0010201B003F06003BDE83040BBE70122C5
S315000061F041F20403C250CB435B0003F00A03436140
S31500006200416119B9012142F204028150704770B50B
S3150000621004460D4600F057F841F2040166180122C3
S315000062203260A87C18B1A06840F08040A060E87C8D
S3150000623018B1297D2046FFF751FF6A7BB5F910108A
S31500006240B5F90E000A430243E2602B7BAA6869682F
S315000062502046FFF75CFF00F025F8287E304B3349D7
S315000062600228314A16BF0328324833489C4208BFE9
S31500006270203006D0944208BF403002D08C4208BF7E
S31500006280603002210160287E012818BF032802D150
S315000062900420B06503E0042142F25C0021502A7814
S315000062A0626170BD687D18B1A06840F48030A0605E
S315000062B0A87DE97D000700F0E040090501F4E00152
S315000062C00843A065704730B5012141F204028150B0
S315000062D040F6AA634361002181600022C26541F253
S315000062E00501C1600261C26142F20401C264014457
S315000062F0124B0B4C4B640C4BA04282650B4A1CBFE5
S315000063009842904205D10025A042056518BF9842E3
S3150000631001D0904201D1002242650120086030BDC3
S31500006320008005408481034000C00540000006400F
S31500006330F8FF7F008CD503408CE50340FFFF01008A
S3150000634081690A06FCD5FFE7406AC0B270478269D8
S315000063505306FCD5C1637047002A14BF00F5805070
S3150000636000F50050012202FA01F10160704770B594
S3150000637004460D46164601F0ECFD2168A94335405A
S315000063800D432560BDE8704001F0E7BD3022504363
S3150000639010B50123384C04E03022504310B50123D8
S315000063A0364C03FA01F12044016110BD70472DE916
S315000063B0F04116460C469846082E10D2B500032723
S315000063C0AF4000FA05F239462D48FFF7D0FF04F03A
S315000063D0030404FA05F239462A48FFF7C8FF079C6A
S315000063E0069D424631462848FFF7B6FF2A46314603
S315000063F02648FFF7B1FF0120B04025490860224634
S3150000640031462448BDE8F041A6E7F8B505461746EB
S315000064100E461C46380007D0002C284602D0FFF74F
S31500006420BBFF01E0FFF7B2FF2A46302042431A497C
S3150000643088180F22082E05D24168B30000F015F81F
S31500006440416006E0A6F10803C1689B0000F00DF864
S31500006450C1604FB9002C3146284602D0BDE8F44051
S315000064609AE7BDE8F44091E7F1BD9A4021EA0202BD
S3150000647007FA03F11143704700E0034000D00340E0
S3150000648000C4034008C4034010C4034014C40340BE
S3150000649020E4034024C4034000C00340002201F06E
S315000064A063BDFEE701F07ABD7FB51C4991E81C008B
S315000064B06846032180E81C0001250D268DF807108B
S315000064C08DF800508DF806600821242001F02EFA80
S315000064D06946134801F086FD4FF4006011490860D3
S315000064E00222114B1A60114C206011490A607FBDCF
S315000064F00B4801F066BDA52803D10021084801F02C
S315000065004FBD70470B48006805E00B490868002836
S31500006510FCD17047C84000F0010070479444030066
S315000065200080014A84E200E018A0014A04E100E08C
S315000065301C90014A0480014A2480014A302080F3DD
S315000065401188704701F05EBE03460A469BA10420EF
S31500006550FFE70CB480B502AA00F02AF801BC5DF88A
S315000065600CFB000080B586B002F034F9944A002195
S3150000657069230092059104910393029101910246C9
S315000065805FF0000392A10120FFF7E3FF8D488179B8
S315000065900288437903910179029201930091C378AD
S315000065A090F802208DA14220FFF7D3FF07B000BD6F
S315000065B02DE9F04786B007460C469146002602F0C4
S315000065C08CF940BB01F094FD28B30021002002F0B5
S315000065D0B4FCADF80400F0B1002101A802F0EEFD14
S315000065E0394602A801F08AFD0746002C3AD100F090
S315000065F094F880B9BDF8040002F0FCFB8DF80000A9
S31500006600BDF8040002F0DEFB694601F083FD10B11F
S31500006610042002F053F906B0BDE8F0878DF80810A3
S3150000662001271EE0BDF8040002F0E4FB59F8045B04
S315000066308046A8B2A8B102F0DDFB82460AEB08014B
S31500006640C9B201A802F0BAFD0028E4D15FFA8AF0C7
S315000066500090BDF804000023AAB25FFA88F102F0A8
S3150000666039FE641C20780028C1D0A0F130010A2927
S3150000667004D20A2101FB0606303EF2E700F04DF88F
S315000066800028C8D12178002702A842290ED0442923
S315000066901AD0462925D057290DD06229C2D066299D
S315000066A030D06C292BD070292CD0B7E759F8040BC1
S315000066B08DF80800B4E759F8041B02278DF8081076
S315000066C00904090E4170CCE759F8041B04278DF81C
S315000066D008100B0A0A0C090E437082708DF80B1015
S315000066E0BFE759F8048B404602F0F0FEC2B2012320
S315000066F0414601A802F0BDFC0028B2D08BE759F84C
S31500006700046BAEE759F8041B0123F2B201A802F0AC
S31500006710B0FC002808BF0026EFE701233A4602A98D
S3150000672001A802F0A6BC00002DE9F84185B0044698
S315000067300D469046122806D03A2808D04FF6FE712C
S31500006740884226D032E00020FEF79EF92EE002F0C5
S315000067506DFF0646002003F0E3FA0746002003F02B
S31500006760E9FA0346184A0496154892F800C00390C1
S31500006770482010FB0CFC1549002201EB0C00B0F878
S31500006780E21001920097029116A13B20FFF7E1FE6D
S315000067900CE000224146284602F035FC074604F08C
S315000067A0D9FA384604F0AEFB04F0D8FA4246294638
S315000067B0204606B0BDE8F04102F0B0B857460000EA
S315000067C00CFA0020784B0300CBFF00203CFA002097
S315000067D04242387042424242570000004242424220
S315000067E05742000057424257573870420000000097
S315000067F010B50446FFF7A2FE200A00280E484FF205
S315000068000F0108BF240204804180BFF35F8FBFF3EE
S315000068104F8F0A490A680A4802F4E06202430A6096
S31500006820BFF34F8F00BFFDE7064870470548203885
S315000068307047054870470000000000200CED00E09E
S315000068400400FA0550D20020A0000020DFF8402303
S315000068500121A3E070B501F07CFB0546DFF8346347
S315000068603078A8B900F0CEFB040004D0284601F029
S3150000687074FB204670BD00F007FDDFF81C130860AE
S31500006880DFF8180304F058FB0020DFF81413086043
S3150000689004F05AFB04F039FCDFF808130860012005
S315000068A03070284601F059FB002070BD2DE9F041FB
S315000068B001F04FFB804600F08BF90128DFF8E86213
S315000068C0DFF8E87265D1DFF8E812087830B1DFF852
S315000068D0E4020278531E03700020087000F0AEF840
S315000068E000F0E9F800F0AAF805462C46012C03DD75
S315000068F0307808B904F086FB38782946814202D000
S3150000690000F0A8F83D70AC4D012C0ADD307840B996
S31500006910AA49087818B904F0A3FB012028700121C0
S315000069203170387804F0DCFB04F0A2FC404601F03C
S3150000693014FB01F00EFB8046A14800F0DAFB04F0E0
S31500006940F5FC0128BFD03078012819D1002131701B
S31500006950287868B104F088FB0020287008E0012040
S3150000696004F0BEFB404601F0F8FA01F0F2FA804668
S31500006970002004F091FB0028F1D0002004F094FBE5
S31500006980002000F098F83878002100F063F8002025
S3150000699038704046BDE8F04101F0DFBAF8B505466B
S315000069A00E4601F0D6FA8349002E294411F8012C2F
S315000069B0044614BF0120FF207C4D801801F8010C0D
S315000069C02F78022F1BDB00F039F80646B84216D2A4
S315000069D0794F387818B104F047FB002139707249B5
S315000069E0087838B100220A70012004F055FB032014
S315000069F004F05AFB2878314600F02CF82E70204619
S31500006A00BDE8F24001F0A9BA38B50446616001F06C
S31500006A10A0FA05462146614804F091FAFFE72846A8
S31500006A20BDE8324001F099BA10B55B4A1368654972
S31500006A30654C03FB0010B0FBF4F010BD5D4A117805
S31500006A400120002901BF0220517800290320704748
S31500006A5000000000F8B50D4600260746032D0AD8AB
S31500006A60DFE805F002040608012604E0042602E039
S31500006A70102600E04026032F0ED8DFE807F00205B7
S31500006A80080B46F0020607E046F0080604E046F06A
S31500006A90200601E046F080064048046808E0626887
S31500006AA01068304203D05268294638469047246819
S31500006AB0002CF4D1F1BD3EB53D4C18B1801E012825
S31500006AC00AD937BD207858B3314A00210120FFF793
S31500006AD065FF0021217037BD02A9002000F083FB6D
S31500006AE0F0B930480168029A914207D22C480568ED
S31500006AF004F00FFB45190298854205D30120FFF7E4
S31500006B00A5FE0120207037BD0298022101910022C6
S31500006B100092411B00230FF20D02294800F0BCFA37
S31500006B2037BD000070B5204D2878204C01280DD1C6
S31500006B30214E307818B104F097FA00203070012009
S31500006B4004F0B2FA10B10021297001E0287818B9D2
S31500006B5020780121FFF77EFF20781C49012208706A
S31500006B60227070BD38B5114C207878B10E4D297859
S31500006B7001290BD1022004F097FA1448007801216C
S31500006B80FFF768FF012020700021297031BD000049
S31500006B90A8440300A5FF002034F1002010F10020D6
S31500006BA030F100202CF10020A9FF0020A7FF0020D3
S31500006BB0AAFF00203CFF0020ABFF0020A6FF00201C
S31500006BC014F100203F420F0040420F00A8FF0020B2
S31500006BD00120704770B50446DFF8E813087810B94D
S31500006BE0DFF8E40370BD14B9DFF8E00370BDFEF70B
S31500006BF0F1FB01460022DFF8D83315015E19307B20
S31500006C0040B1521C082AF8DB0846FFF763FADFF8A2
S31500006C10C40370BD22600120307300225A51084619
S31500006C20FFF758FA002070BD10B5FEF7D3FB0446F7
S31500006C300021DFF89C2302EB0113187B50B9491C95
S31500006C400829F8DB04F074FB0020DFF878130870DD
S31500006C5020461FE02046FFF73DFADFF87C0310BD13
S31500006C6010B50446DFF85C13087800B9B9E0082CC3
S31500006C7000D3B8E0FEF7AEFBDFF8542302EB0412B4
S31500006C80117B11B10023137304E0FFF723FADFF839
S31500006C904C0310BDFFF71EFA002010BD80B5DFF8CB
S31500006CA040130A68002300928DF80030FEF792FB2D
S31500006CB000F076F821B1FFF70DFADFF8280302BDE0
S31500006CC001211170FFF706FA0020DFF804130022F5
S31500006CD001EB0013401C08281A73F9DB04208DF819
S31500006CE00300684604F03CFB002002BD70B588B086
S31500006CF000F00CF8002104E070B588B000F006F84A
S31500006D000121002000F0BCF808B070BD109C0F9D5A
S31500006D10019307949DF8384006950D9D05949DF8BE
S31500006D203040009200260B460246049503940296D4
S31500006D30704780B500F034F801B916E0082800D392
S31500006D4015E000F030F801B913E0002113E080B53A
S31500006D5000F026F801B908E0082800D307E000F0A3
S31500006D6022F801B905E0012105E0974802BD9748E0
S31500006D7002BD9D4802BD04F0EAFA002002BD80B5BE
S31500006D8000F00EF801B9F0E7082800D3EFE700F0AD
S31500006D900AF801B9EDE704F042FB002002BD0C46FB
S31500006DA0884A117870478A4A02EB0013197B7047AC
S31500006DB010B5844B1A7802B913E0082800D201B93D
S31500006DC011E000F012F802B914E0202807D2874A31
S31500006DD01268C24012F0010002D0012000E000203B
S31500006DE00AE0794810BD794810BD794B03EB0014D1
S31500006DF0227B70477C4810BD0870002010BD10B57E
S31500006E00FFF7CDFF01B9ECE7082800D204B9EAE79D
S31500006E10FFF7C9FF01B9EDE704F013FB206000207E
S31500006E2010BDF8B5724804684068044000D5FEE716
S31500006E300025012634421ED0654A02EB05176D492E
S31500006E400E603868B8B1B8687A683B68401CB860AC
S31500006E50014628469847002804BF787B01280AD1B6
S31500006E60654901EB4510C268C16922F00202C260A1
S31500006E7021F00201C1616D1C7600082DDAD3F1BD47
S31500006E802DE9F84F9B464F4C237886B00BB94E48F8
S31500006E9094E00192082A14D2109C002C1CBF119D6C
S31500006EA0002D0ED0DDF8508040F60102904508DA3C
S31500006EB0DDF8489001288DF8000008BFB9F1000FF1
S31500006EC001D142487AE0019A414800EB0216307B34
S31500006ED008B9454872E08DF8011002A81021FFF7A5
S31500006EE0DDFA01984449DDF84CA001EB40179DF806
S31500006EF00100002838460AD140491022FDF720FB40
S31500006F00BAF1000F0ED1386840F0407009E03C49F4
S31500006F101022FDF715FBBAF1000F03D1386840F0D7
S31500006F2040503860CDF808B03968A8F101021598CC
S31500006F3062F30E113960BC607D60396860F39B6155
S31500006F4039609DF80000169C01281FD1F868394663
S31500006F50102240F00300F860387B00F0030040F098
S31500006F601000F86007F11000FDF7EAFA387F00F02C
S31500006F70030060F00F00F861C7F814909DF8010057
S31500006F8001280DD1BD61C7F8049009E0200004BFB7
S31500006F909DF80000002803D1396821F4801139607A
S31500006FA0179834603A4670600020B0609DF8001073
S31500006FB07173019802A904F0F5F9002007B0BDE845
S31500006FC0F08F0000B1FF0020028000F0018000F089
S31500006FD050F10020048000F0058000F0068000F0EB
S31500006FE064490300038000F0078000F02C00044091
S31500006FF05000044050200440D0F1002044490300D2
S3150000700054490300F8B5FEF7E5F90446DFF86C5578
S31500007010287830BB0021DFF868050160DFF86435A9
S315000070201960DFF86405018004F04AFA012004F0D3
S31500007030A7FA04F005FB0200DFF85005026004D150
S315000070402046FFF747F82320F2BDDFF8440540F25B
S31500007050E731002300F0FAFEDFF8386530600127DB
S315000070602F7020466AE0F8B5044684B000F02BF88D
S315000070700CB922200EE003A9204600F063F89DF823
S315000070800C00012808BF032004D000F013F80022EA
S3150000709000F023F805B0F0BDFEB504000D46164617
S315000070A01F4601D12220FEBD00F023F800F018F89B
S315000070B000220FE0BDF82C009DF8281002900097E2
S315000070C001913346704700200D4616461F468DF83F
S315000070D00C00704700F001F8FEBD2946204621E26B
S315000070E0BDF824009DF820100290009701913346C8
S315000070F07047F8B5054600240DB92220F2BDFEF70B
S3150000710069F9064600F0FCF9DFF874743868A8429D
S31500007110284608BF012400F0BAF9050003D000F0A4
S3150000712089F82846F2BD38681CB118B100F0CAF9D2
S3150000713003E010B9022004F030FA3046FEF7CAFF29
S315000071400020F2BD38B505000C4618BF002C01D151
S31500007150222032BD00202070FEF73CF9DFF8201413
S315000071600968227800E0896819B112B9A942FAD1F2
S3150000717001222270FEF7AEFF002032BD70B5050079
S315000071800C4618BF002C01D1222070BDFEF722F953
S31500007190064600F0B5F96869DFF8E4132060086870
S315000071A005E0B0B121684269511821608068A842A3
S315000071B0F7D104F0B9F9DFF8CC5329682268401AF0
S315000071C090420AD204F0B0F922682968101A081809
S315000071D004E000F02FF8032070BD0020206000F0CE
S315000071E029F8002070BDF8B507460C46FEF7F2F800
S315000071F00646DFF88C030025006800E08068A8B129
S315000072004169C2884D19BA42F8D104F08DF9DFF808
S3150000721074733968401AA84205D204F085F92D1A0C
S315000072203868451900E00025256086E700F002F879
S315000072301B20F2BD3046FEF74DBFDFF85C03007839
S31500007240704738B5FEF7C6F8044604F06DF90546F2
S315000072502046FEF73FFF284632BD70B5FEF7BAF866
S31500007260064604F061F90546DFF81C030488012090
S3150000727004F0A9F918B104F057F90546641CFFF7A4
S31500007280D9FF2146284670BDDFF800030068704725
S3150000729030B50C46BF490A6882420CD3BB4D2968FB
S315000072A04FF47A720023A1FB000100F0CFFD401CD1
S315000072B02060002030BD212030BDB44A70B516686C
S315000072C04FF47A71A1FB0045304600F072F948B1DF
S315000072D0304600F069F9024620462946BDE870406E
S315000072E004F0BAB92046294632460023BDE870406C
S315000072F000F0ACBDF8B5A94BA94E994222D828BFDB
S31500007300B0421FD24FF47A77A7FB0045164607FB1B
S3150000731001559E490F68384600F04BF940B1384692
S3150000732000F042F902462046294604F095F905E0A8
S31500007330204629463A46002300F088FDC6E90001AA
S315000073400020F2BD2120F2BD2DE9F0470546DFF809
S315000073503082E8070AD58C480188491C018000F074
S31500007360CFF8D8F8000008B100F0ACF8A80764D54B
S31500007370844F04F0D9F83C6805460026B2462C1B1B
S315000073803BE0486984423FD3224608463D60436954
S315000073909A4209D3067991F804E0764538BF01464A
S315000073A08068D21A0028F2D10E464846FEF792FEB1
S315000073B0706900217161241AFEF70CF88146304687
S315000073C000F065F84846FEF785FE306948B1FEF7DD
S315000073D001F831698146304600F032F84846FEF73A
S315000073E079FEF26812B131683046904704F09CF895
S315000073F00419641B0AF1010A0546FDF7EBFFD8F8EC
S31500007400001081460029BCD1BAF1010F654A03BFBD
S31500007410F088022801200020107031B14869041B51
S315000074204C613D6000F04EF802E0022004F0B5F831
S315000074304846BDE8F047FEF74DBEBDE8F0870000C0
S31500007440F0B54F4F3E684161E6B1002534466369A9
S31500007450994207D233B1CA1A0AD1227990F804C0E8
S31500007460624505D2C91A41612546A468002CEED1B1
S31500007470002D14BFA8600646220005D06369591A7C
S31500007480616101E00646002282603E60F0BD3C4B31
S315000074900022196801E00A468968002918BF81425E
S315000074A0F9D1814201D0022070478168002A14BFB9
S315000074B091601960816819B14A69406982184A6108
S315000074C00020704738B52E4C21682E48056848695B
S315000074D04519022004F054F8284604F02BF82068D9
S315000074E00021002283799C0706D4806828B143696D
S315000074F059180229F6D300E001222748027031BD4F
S3150000750010B504F011F81E4909681E4A41B1136806
S315000075104C69C31A9C423ABF001B0023E31A4B6115
S31500007520106010BD70B50C46059906461546049ABE
S315000075300698317132600021B1603561F360F080E8
S315000075403CB9F268716112B131683046904795B125
S315000075502C46FDF73FFF0546FFF7D2FF2146304692
S31500007560FFF76EFF06480168B14208BFFFF7AAFFA2
S315000075702846FEF7AFFD002070BD0000B2FF0020D8
S3150000758014F3002018F300203EFF002010F3002023
S3150000759018FCFFFF1CF30020B3FF002037894100D1
S315000075A0F0A7C64BB4FF0020B0FA80F0C0F11F0070
S315000075B0704720B1411E084201D1012070470020CA
S315000075C07047FEE7010007D4012200F01F018A4040
S315000075D0224B400943F82020704710B51920FFF7C9
S315000075E0F1FF1F4C4FF0007020601A20FFF7EAFFF2
S315000075F04FF08060206010BD38B504460D46FDF79B
S31500007600E9FE184941F82450BDE83240FEF762BD54
S3150000761038B50446134D0CE094FAA4F0B0FA80F0A5
S31500007620012181408C4355F820100A001CBFC0B2CE
S315000076308847002CF0D131BD0B49486809680B4AD0
S31500007640084045F2555106E0074948680968074A67
S3150000765008404AF6AA2108401060D9E780E200E017
S3150000766000E100E0D0F2002020C4034020E4034003
S3150000767010B50446EFF31080C00719D4204604F075
S3150000768008F8A8B9204603F0F7FF0446EFF3118087
S3150000769010B1B4EB101F0BD207480068C0F3080006
S315000076A0002807D0103840B203F0E6FF844201D329
S315000076B0012010BD002010BD04ED00E004F01CB850
S315000076C01CB500210091252856D8DFE800F01316D6
S315000076D0191E2732363A3E42464A4E5255163A55FA
S315000076E0553E161E271E32163A1E52363636361EA0
S315000076F01E1E424603F0F0FF19E003F0FDFF16E000
S3150000770003F0EAFF0446022003E003F0F5FF044617
S31500007710032000F06AF8B4FBF0F008E003F0ECFF99
S315000077200446032000F061F8B4FBF0F04008009036
S3150000773022E0684600F0FCFA1EE0684600F08CFA8B
S315000077401AE0684600F0ACFA16E0684600F0ACFABB
S3150000775012E0684600F036FB0EE0684600F026F8B8
S315000077600AE0684600F056FA06E0684600F006F8B9
S3150000777002E0684600F019FB009816BD38B50C46C5
S31500007780DFF8A81500F061FA022A02D0032A04D015
S3150000779007E003F0B1FF0B2104E003F0D0FF052161
S315000077A000E0002100F09CBA0000000038B50C464D
S315000077B0DFF8C81500F06CFA14D8DFE802F002060C
S315000077C00A0E03F0EDFF08210DE003F0EFFF07219D
S315000077D009E003F0E8FF092105E003F08DFF800AC8
S315000077E00C2100E0002100F07BBA01460020DFF802
S315000077F01026012905D0022907D0032909D00F290F
S315000078000AD11068C0F3013006E0106AC0F30460C4
S3150000781002E01068C0F38020401C704738B54C1E4B
S31500007820DFF8DC55012805D002280ED0032813D036
S315000078300F2817D100F0BEFA00F0A2FA286820F44B
S31500007840405040EA0430286057E1286A20F0F8509A
S3150000785040EA0460286231BD286820F4806040EA6E
S315000078608420286031BD000080B500218DF800100D
S31500007870252858D8DFE800F013575757572B3035CF
S315000078803A3F44494E5357573557573A5757575724
S315000078902B57355753303030305757573F44DFF862
S315000078A06005016801F00701491E03293BD8DFE89E
S315000078B001F00A020406042202E0032104E0062283
S315000078C08DF800202FE002218DF800102BE069468C
S315000078D0002000F02DFA26E06946002000F0BCF9F1
S315000078E021E06946002000F0DBF91CE06946002033
S315000078F000F0DAF917E06946002000F063FA12E0BA
S3150000790069460020FFF752FF0DE06946002000F0AF
S3150000791081F908E069460020FFF730FF03E0694679
S31500007920002000F042FA9DF8000002BDF8B50025DF
S3150000793000260C46DFF8C874DFF8C824DFF8C83420
S31500007940252844D8DFE800F013C2C2C2C244576AF1
S3150000795071788CA0B0BCC2C26AC2C271C2C2C2C2B5
S3150000796044C26AC2BC57575757C2C2C2788C022952
S3150000797015D0032907D0042903D0062908BF0425FA
S315000079800EE002250CE0DFF8840406680120DFF82B
S3150000799080147608032506F00106086000E001253C
S315000079A000F008FA00F0ECF9386800F090F83D6055
S315000079B0FFF784FE002100F028F900F0E7F9002E19
S315000079C008BF032C03D10120DFF848140860F1BD7D
S315000079D0022907D0052903D00D2904D1012502E08B
S315000079E0022500E00325DFF830040168890845EA2E
S315000079F081050560F1BD891E03290AD8DFE801F07B
S31500007A0008040206012504E0022502E0032500E041
S31500007A100425186A00F05BF81D62F1BD00F05FF8FE
S31500007A20186C00F058F81D64F1BD00F058F8186E97
S31500007A3000F051F81D66F1BD072909D0082905D0C7
S31500007A40092907D00C2908BF042504E0012502E016
S31500007A50022500E00325106800F039F81560F1BD35
S31500007A60072909D0082905D0092907D00C2908BFFC
S31500007A70042504E0012502E0022500E003259068C4
S31500007A8000F025F89560F1BD032905D0062905D03B
S31500007A90072908BF022502E0012500E00325186832
S31500007AA000F019F81D60F1BD052903D00B2902D19C
S31500007AB0022500E00325386900F00DF83D61F1BDAF
S31500007AC000F00DF8106C00F006F81564F1BDC00862
S31500007AD045EAC0057047800845EA800570470729D2
S31500007AE005D007D3092904D004D201257047022501
S31500007AF07047032570470020B6E6FFF7DFFD00213B
S31500007B0000F083F8BDE8314040E1F8B50446FFF7E0
S31500007B10F2FF032878D0DFF8041345F60E00086755
S31500007B20DFF8FC3202221A61DFF8E8220120106039
S31500007B308D6CE803FCD466782578E078360546EA4D
S31500007B4005662579677946EA0046A07946EA05364C
S31500007B5046EA871606430E608D68E07AE679277A4C
S31500007B6005F0004540EA8660667A40EA0760A77A33
S31500007B7040EA064040EA072005438D600D69607BB8
S31500007B80002825F00D050CBF002608263543267B68
S31500007B9045EA860505430D61607BA57B002888695B
S31500007BA020F0330040EA451523D1E67BDFF8740266
S31500007BB045EA061545F001058D618D6C0540854247
S31500007BC0FBD102201861886C4500FCD40868A578B2
S31500007BD04FF0004620F4700040EA055008601E6031
S31500007BE0207C08B902231360607C40B9012313602E
S31500007BF005E0227C607C45EA420505438D61A07C58
S31500007C0010B1DFF824220A67F1BD0029CCBF01219B
S31500007C1000216BE038B50C467B4900F016F8032AC4
S31500007C2011D8DFE802F00E02060A03F074FD032104
S31500007C300AE003F0BBFD072106E003F07AFD06210A
S31500007C4002E0012100E000214AE00A680546002022
S31500007C5002F003027047000038B50C46734900F085
S31500007C6017F813D8DFE802F002060A0E03F030FD1B
S31500007C7004210CE003F04FFD032108E003F05FFD53
S31500007C80052104E003F058FD022100E0002127E071
S31500007C900A680546002002F00702521E032A7047B2
S31500007CA038B50C46624902E038B50C4661490A68A7
S31500007CB00546002002F00302012A04D00FD3032A4E
S31500007CC009D004D30BE003F06BFD082108E003F0B4
S31500007CD06DFD072104E003F066FD092100E00021A7
S31500007CE005B1286004B1217031BD000041F6713341
S31500007CF030B5514C5149524D4A694B630B68120CD1
S31500007D00A04223F440134F4C02F0010228BF43F473
S31500007D1080130B602368A84223F0020328BF43F0B8
S31500007D20020323600AB10020486330BD8080004012
S31500007D3038B504460D460020009037490A6802F01F
S31500007D400302012A04D012D3032A0CD006D30EE074
S31500007D5000216846FFF780FF0D2008E003F0EFFCE6
S31500007D600090052003E003F0E7FC009002200CB130
S31500007D700099216005B1287031BD000008820040DD
S31500007D801F48016841F4806101607047012010B509
S31500007D90FFF796FC02242A49884238BF012421466F
S31500007DA00320BDE81040FFF739BD38B50C4626491B
S31500007DB07DE7000080B503F0ACFC0021BDE804407F
S31500007DC094E7000038B50C460E49FFF761FF14D85A
S31500007DD0DFE802F002060A0E03F0E2FC08210DE0DD
S31500007DE003F0E4FC072109E003F0DDFC092105E0CE
S31500007DF003F082FC800A0C2100E0002170E70000FD
S31500007E0070800040008200400081004028C0004091
S31500007E1028D0004028E000408081004010C000408B
S31500007E2018D0004003000140F1A7FFFF2081004069
S31500007E304081004060810040C117530208000340A2
S31500007E4081F0FA0218C2074040820040D3BBD9B184
S31500007E50B2F5803F5BD2022A1ED98C46B1FBF2F105
S31500007E6002FB11C31B0443EA1043B3FBF2FC02FB03
S31500007E701C3380B240EA0343B3FBF2F002FB10323C
S31500007E8040EA0C4000237047022A05D98446B0FB1D
S31500007E90F2F002FB10C270474AB105D100F00102B0
S31500007EA049085FEA3000704700220023704703F05C
S31500007EB0A9BC0B000200002100207047F7D3002266
S31500007EC000237047904271EB030CF2D370B5B1FA00
S31500007ED081F4B3FA83F52C1BA340C4F1200532FAD2
S31500007EE005F63343A2405FF00046E64002E05B0839
S31500007EF05FEA3202841A71EB030524BF2046294645
S31500007F007641F4D302000B003000002170BD70B53D
S31500007F10B1FA81F4B2FA82F5C4F120046419B4F11D
S31500007F202006DAD3B2405FF00044F440002502E0B8
S31500007F3052085FEA3303C61A71EB020E24BF3046BD
S31500007F40714664416D41F3D302000B002000290005
S31500007F5070BDEFF3108072B6704700B962B6704715
S31500007F6062F30F2262F31F4200B500BF130096466C
S31500007F709446103928BFA0E80C50FAD85FEA417C35
S31500007F8028BF0CC048BF40F8042BC90728BF20F8FB
S31500007F90022B48BF00F8012B00BDFEE703F034BCFE
S31500007FA04269002A0CD439B9416ACA07FCD40121B6
S31500007FB042F20403C1507047012241F204014250CB
S31500007FC0704710B504466068C1070AD5FDF702FA86
S31500007FD0616ACA075CBF0121E160BDE81040FEF797
S31500007FE079B810BD38B5044660680D4630B1606A90
S31500007FF00028FCD1012142F20402A1506878002831
S31500008000A87814BF1021002108B141F00201E878D8
S3150000801008B141F00401287908B141F00801687AF5
S3150000802008B141F48071E8792A7AAB7941EA0061B6
S31500008030204641EA027141EA0341A1602978FFF72F
S31500008040AFFF687908B10021216231BD80B50121F9
S31500008050754A11600020FEF7A9F9012304220321C5
S315000080600020FEF7D2F9012000F0D6FB00F011F84F
S3150000807000F01DFC01206D49087003F0B5FC0123DA
S3150000808040226B496B4803F07AFC6B490860C00FCD
S3150000809002BD70B569480168694C6A4D41F001013D
S315000080A00160C2680021684E42F08072C260674873
S315000080B0206029603160022365490B600C20FFF7C0
S315000080C0FFFA64490818644AB0FBF2F0634B0021DA
S315000080D0401E1860296462482065624931604FF489
S315000080E08072614802602B6843F480732B6070BD18
S315000080F05248006800B10120C0B27047D122027018
S315000081004170090A817059490A78C270521C0A7076
S31500008110042070472DE9F24F84B007460878002402
S31500008120052868DB401D8DF8000003F08DFC0290E9
S315000081309DF8000000264FF6FF780190DFF8309199
S31500008140DFF800A13D4D03971DE0039841468019D5
S3150000815010F8027C384603F0E9FC80465E463A4851
S315000081600168CA070FD5E86840F08070E860DAF861
S31500008170001041F48071CAF80010D9F800000028F8
S31500008180F1D089F80070296879B39DF80010F0B233
S3150000819088422AD203F058FC029940F2F512401A9E
S315000081A080B2904226DAF0B210B95B270126D6E7F4
S315000081B0012804D19DF800000226471FCFE7019849
S315000081C006F1010BF6B2C01E864208BF4746C5D06F
S315000081D00198801E864208BF4FEA1827BED0019834
S315000081E0401E8642B1D15D27B8E79DF80000F6B281
S315000081F0864200D00124049904200870204605B068
S31500008200BDE8F08F0C4B80B5186890B040226946E7
S3150000821003F09CFB20B1C2B269461220FEF784FA35
S3150000822011B000BD0000000044D40340B9FF002097
S31500008230B0F30020D0490300A8DF0020F0ED00E0F5
S31500008240B00F00E0000E00E0800E00E055CEACC599
S31500008250F00004E0FCAC0600F8590D00100004E044
S31500008260FF0300400D000100040304E0B8FF0020F6
S31500008270200000E00901020003D4DFF82C05815438
S315000082807047DFF8283502F00F021A4402F8041C82
S31500008290704730B500F007000123C0F10704052C34
S315000082A02EBF0F2403FA04F4641E051D072D34BFE8
S315000082B00020C01E2140814003FA00F0401E1040FD
S315000082C0084330BD002070470020704770471CB53A
S315000082D072B6FEF733F9DFF8D8044169DFF8D44403
S315000082E00022216000F041FA01466FF00B00FFF713
S315000082F0C1FF00F039FA01466FF00A00FFF7BAFF36
S3150000830000F032FA01466FF00900FFF7B3FF00F004
S3150000831023FA01466FF00800FFF7ACFF00F01CFAE5
S3150000832001466FF00700FFF7A5FF00F015FA0146BA
S315000083306FF00600FFF79EFF00F00EFA01466FF0A1
S315000083400500FFF797FF0022022100F007FA014619
S315000083506FF00400FFF78EFF00F00AFA01466FF097
S315000083600300FFF787FF00F0F7F901466FF0020000
S31500008370FFF780FF0022072100F0F0F901466FF0B9
S315000083800100FFF777FF00F0F3F901464FF0FF30E9
S31500008390FFF770FF00F0ECF901460020FFF76AFFD7
S315000083A000F0E6F901460120FFF764FF00F0E0F96E
S315000083B001460220FFF75EFF00F0DAF901460320CE
S315000083C0FFF758FF00F0D4F901460420FFF752FFEB
S315000083D000F0CEF901460520FFF74CFF00F0C8F982
S315000083E001460620FFF746FF00F0C2F901460720C6
S315000083F0FFF740FF00F0BCF901460820FFF73AFFFF
S3150000840000F0B6F901460920FFF734FF00F0B0F995
S3150000841001460A20FFF72EFF00F0AAF901460B20BD
S31500008420FFF728FF00F0A4F901460C20FFF722FF12
S3150000843000F09EF901460D20FFF71CFF00F098F9A9
S3150000844001460E20FFF716FF00F092F901460F20B5
S31500008450FFF710FF00F08CF901461020FFF70AFF26
S3150000846000F086F901461120FFF704FF00F080F9BD
S3150000847001461220FFF7FEFE00F07AF901461320AE
S31500008480FFF7F8FE00F074F901461420FFF7F2FE3C
S3150000849000F06EF901461520FFF7ECFE00F068F9D2
S315000084A001461620FFF7E6FE00F062F901461720A6
S315000084B0FFF7E0FE00F05CF901461820FFF7DAFE50
S315000084C000F056F901461920FFF7D4FE00F050F9E6
S315000084D001461A20FFF7CEFE00F04AF901461B209E
S315000084E0FFF7C8FE00F044F901461C20FFF7C2FE64
S315000084F000F03EF901461D20FFF7BCFE00F038F9FA
S3150000850001461E20FFF7B6FE00F032F901461F2095
S31500008510FFF7B0FE00F02CF901462020FFF7AAFE77
S315000085200022032100F01AF901462120FFF7A2FEDE
S3150000853000F01EF901462220FFF79CFE00F018F914
S3150000854001462320FFF796FE00F012F9014624208B
S31500008550FFF790FE00F00CF901462520FFF78AFE92
S3150000856000F006F901462620FFF784FE00F000F928
S3150000857001462720FFF77EFE00F0FAF80146282084
S31500008580FFF778FE00F0F4F801462920FFF772FEA7
S3150000859000F0EEF801462A20FFF76CFE00F0E0F846
S315000085A001462B20FFF766FE00F0DAF801462C2084
S315000085B0FFF760FE00F0DCF801462D20FFF75AFEBB
S315000085C000F0D6F801462E20FFF754FE00F0D0F852
S315000085D001462F20FFF74EFE00F0CAF80146302074
S315000085E0FFF748FE00F0C4F801463120FFF742FECF
S315000085F000F0BEF801463220FFF73CFE00F0B8F866
S3150000860001463320FFF736FE00F0B2F8014634206B
S31500008610FFF730FE00F0ACF801463520FFF72AFEE2
S3150000862000F0A6F801463620FFF724FE00F0A0F879
S3150000863001463720FFF71EFE00F09AF80146382063
S31500008640FFF718FE00F094F801463920FFF712FEF6
S3150000865000F08EF801463A20FFF70CFE00F088F88D
S3150000866001463B20FFF706FE00F082F801463C205B
S31500008670FFF700FE61684FF6FF00014041F0BF6161
S3150000868041F401316160E0684FF4E02140F01000F0
S31500008690E060E16103F091FA03F0D6FAEFF30880A7
S315000086A0001F45494FF0CD3201E040F804298842C9
S315000086B0FBD2424989B2424803F018FB62B66846CB
S315000086C003F018FB3F48816ACA0311D441686FF36F
S315000086D0162141F4B81141F405414160016821F4C5
S315000086E0704141F440410160026842F4E062026078
S315000086F09DF80100012804BF9DF80000002807D15D
S315000087004FF0005106200A6801F58041401EFAD15B
S315000087102D48016841F00301016003F0F9FA0220D7
S315000087202A49086003F064FB03F048FC052168460B
S31500008730FDF7B4FE01208DF80300684603F0BCFC8B
S3150000874002F010FD03F0A0F903F0E4FA02F027FDB1
S315000087501F4803F0C1FC13BDFF22FF21042098E54A
S3150000876000220121042094E500220021042090E546
S315000087700022042104208CE540F20160FEF738B89F
S3150000878003F0CCBC80B500210B2003F0BFFCBDE894
S31500008790014003F0C4BC002818BF02F0B6BB02F0CB
S315000087A0B5BB032003F00FBE00E400E018ED00E0C7
S315000087B00040000008ED00E050D200200C3100001F
S315000087C0A000002030C00040808000407040004083
S315000087D07C4A030010B503F078FA044603F079FAF0
S315000087E0C0B220B9012C0BD144F0800010BD072C7B
S315000087F0FAD8DFE804F005040709090B0D0FF3E7C3
S31500008800002010BD092010BD022010BD032010BDA0
S315000088100B2010BD062010BD3D49087070472DE99C
S31500008820F041884616003A4C1CD0A0786778F3B21F
S3150000883065683F1AFFB2BB424146B8BFF7B23A4637
S31500008840281803F029FEA378F61BB844FB18A3707A
S31500008850F0B238B1A11C2846FFF75CFC0028E4D032
S31500008860012000E00020BDE8F0810EB430B50446DA
S31500008870274D2878A0B0B0B1FFF73AFC98B1802117
S315000088806846697068600221FFF738FCA87023AB60
S31500008890224600211F48FCF7A5FB6868A91CFFF7C4
S315000088A039FC00B9A87020B030BC5DF810FB1A483E
S315000088B000210022002380E80E007047164931F897
S315000088C01020521C21F8102070470CB480B502AA63
S315000088D0FDF76EFE01BC5DF80CFB0D4A1178A1B9DF
S315000088E0010018BF012810D0042818BF05280CD095
S315000088F0312818BF332808D037281EBF3B284FF62B
S31500008900FF71884201D001207047002070470000A7
S3150000891008F600201F88000010F60020302818BF37
S31500008920322806D034281CBF3628382801D000202B
S31500008930704701207047FEE710B5DFF8440800686D
S31500008940DFF83818DFF83C28C860136848615B0810
S3150000895000EB43040C6118B100F016F8652806D246
S31500008960AF210FF64400BDE81040FCF739BC10BD3E
S3150000897010B5DFF808486069E268904202D2BF216C
S3150000898000F09CFA60690CE010B5DFF8F04720694A
S315000089906269904202D2C52100F090FA20696269AC
S315000089A000E0E2684FF6FE71801A084010BDDFF85D
S315000089B0CC17CA68904203D34969884200F056BB77
S315000089C00020704780B510B1FFF7F1FF00B101201C
S315000089D002BD30B1DFF8A427D168401A4010401C10
S315000089E080B27047010001D100207047DFF88C1774
S315000089F0CA6802EB4000801E70474088C0F30C0036
S31500008A00C01C80084000001D80B2704710B50446A7
S31500008A10FFF7F3FF04EB4000DFF860174A694FF6F3
S31500008A20FF74904204D20388A34208BF801CF8D08A
S31500008A3010BD2DE9F8438046DFF84047E08898B33B
S31500008A40B8F8020001042FD4DFF83C7738680FF23B
S31500008A504C710FF2547903F04BFD20B94FF4C671F7
S31500008A604846FCF7BDFB002504E003F041FD88B154
S31500008A706D1CADB2E088854204DB4FF4C7714846F1
S31500008A80FCF7AEFBA069396800EBC5063068002824
S31500008A90EBD13160B088401CB0804046FFF7ADFF97
S31500008AA0F18801EB4000F080BDE8F18370B5044623
S31500008AB0DFF8C806007801281AD12088FFF792FF50
S31500008AC0050027D002262C462046FFF7B2FF608815
S31500008AD040F40040608034F81600FFF783FF04007E
S31500008AE002D060880104EFD5761C042E12D2EAE784
S31500008AF002280FD1FCF76EFC05462088FFF772FFAF
S31500008B0018B10088C0F30E0020802846BDE87040EA
S31500008B10FDF7E0BA70BDDFF864160A78022A08BFCE
S31500008B20FFF7C4BF704738B504460D46FFF765FF2B
S31500008B3061884004020CC1F30D016180214628467C
S31500008B40BDE8384003F0A8BC10B50C46A04205D2DB
S31500008B5041880A0402D4FFF759FFF7E710BD2DE953
S31500008B60F14FDFF81856002092B0A880FCF732FCCF
S31500008B706A8801212970ADF800206A6900216980A0
S31500008B800192FDF7A7FAE988A869C900FDF786FCF6
S31500008B906846FFF78BFF129848B1002401E0804732
S31500008BA0641C1298E1B250F821000028F7D1002485
S31500008BB0EF684FF001080DF1080938E024B1641E92
S31500008BC0E4B259F824A004E03846BA46FFF71EFF7F
S31500008BD00746BAF8020000F44041B1F5004F26D12D
S31500008BE040F48040AAF802004FF0020B26465FFAD6
S31500008BF08BF03AF81000FFF7F5FE040010D06088FD
S31500008C0001040DD440F4004060802046FFF711FFB8
S31500008C10102EBDBF49F82640761CF6B24FF000086C
S31500008C200BF1010B5FFA8BF00428E0D33446019E6A
S31500008C30B742C3D3002CC1D1B8F1000FB7D0EF684B
S31500008C40BB46B84615E03846FFF7D7FE0446788897
S31500008C5001040BD55846FFF7BCFE39880BEB440BD5
S31500008C6007EB440801F400410843388000F090FA0D
S31500008C700746B742E7D3022028706846FFF716FF7B
S31500008C80129848B10026044601E08047761CF0B2EF
S31500008C9054F820000028F8D1EC68274613E04FF07E
S31500008CA0020937F81900FFF79DFE20B10088C0F3CE
S31500008CB00E0027F8190009F10109B9F1040FF0D3E4
S31500008CC000F066FA07464745E9D30AE00446FFF78F
S31500008CD09DFE4146FFF738FFB842F7D3B7422ED183
S31500008CE0544644454AD22046FFF790FE8246002C61
S31500008CF0F6D060880104F3D500F05AF8A04204D1FA
S31500008D006088C0F30D006080EAE704D20146204681
S31500008D10FFF709FFE4E7264607E05046FFF776FE31
S31500008D2041465446FFF710FF8246C24507D2BAF8BD
S31500008D300000C0F30E00FFF755FE8245EDD334B1B7
S31500008D4000F036F801001CBF2046FFF7ECFE274670
S31500008D503046C1E72046FFF750FE06465846FFF765
S31500008D6038FE074672002146584603F095FB00225E
S31500008D703946684603F0E4FB0BEB460BFCF72AFB8F
S31500008D8006460021A81C03F031FCFFF72BFE040069
S31500008D9006D1BDF800000021C5F814B0688029701E
S31500008DA03046FDF797F9002CD4D113B0BDE8F08F0B
S31500008DB02088C0F30E0015E680B5FFF713FEBDE868
S31500008DC00240FFE510B5040012D0FFF7F5FF18B911
S31500008DD040F2794100F072F82046FFF703FE38B101
S31500008DE001880A0402D5D0F80A0010BD083010BD6B
S31500008DF0002010BD10B5010013D0FFF7F3FD0446A7
S31500008E00FFF7E0FD18B940F2934100F057F844B17E
S31500008E102088010401D5208910BD6088C0F30C00AC
S31500008E2010BD002010BD2DE9F04100F044F804000B
S31500008E303FD00FF27437FFF7C5FD18B940F2A641CF
S31500008E4000F078F82846FFF7D5FF80462046FFF762
S31500008E50DDFD054646452CD003DB40F2AE4100F071
S31500008E6069F82088010448BF268122D466802046FE
S31500008E70FFF7C3FD04EB4004FCF7ACFADFF8FC1285
S31500008E804A692E1BB6B2954204BF4C610026FDF717
S31500008E9021F9082E06D231462046FF22BDE8F041D0
S31500008EA003F0F8BB0821204602F020FFA6F10800D7
S31500008EB06080BDE8F08105460E4693E50FF2E82096
S31500008EC0FCF78EB938B50D46FFF78CFD04000AD0C5
S31500008ED0FFF778FD18B940F2EB41FFF7EFFF04EB1F
S31500008EE04500808832BD002032BDF8B50D461646D5
S31500008EF0FFF778FD04000FF2B02714D0FFF762FDEC
S31500008F0018B940F2F64100F015F83046FFF76AFD51
S31500008F10FFF758FD18B940F2F74100F00BF804EBE3
S31500008F2045008680F1BD384640F2FA41BDE8F4407E
S31500008F30FCF756B93846FCF753B92DE9F84F884681
S31500008F40C11C89084900091D0027DFF83052044674
S31500008F501FFA81F92E690FF2502AB0F5005F04D38B
S31500008F6040F226515046FCF73BF9FCF733FA8346AC
S31500008F70E869696908B9711A03E05FEA080202D074
S31500008F80411A4E1009E0301A4010064680B220B948
S31500008F9040F24C515046FCF723F9B6B24E4514DB6D
S31500008FA06F6907EB49006861E86928B1B8F1000FFD
S31500008FB004BF00EB4900E86100207C80B880F8809F
S31500008FC038802989083464182C815846FDF782F8C0
S31500008FD03846BDE8F24FFCE4F8B504460D461646A1
S31500008FE000210A20FFF7A9FF0746FFF7FBFC48B15F
S31500008FF00681C0F80A40018841F400410180C0F8AA
S315000090000E503846F2BD70B504460D461146284648
S31500009010FFF793FF06463CB1300005D0FFF7D2FEBE
S315000090202A46214603F038FA304670BD38B5044664
S31500009030FCF7D0F9054600222146544803F080FA91
S315000090402846BDE83240FDF745B838B5FCF7C2F909
S31500009050044600214D4803F0C9FA05462046FDF7AF
S3150000906039F8284632BD45484188481E8041C00F20
S3150000907070472DE9FE4F04462088884616469B46D3
S31500009080FFF7B0FC0746FFF79DFC18B940F28C616C
S31500009090FFF714FF38883546010403D538892D18A3
S315000090A03D8167E000F078F8019000F071F88146A4
S315000090B0FCF790F900968246304E706981451DD1C5
S315000090C0FFF762FCA84203D25046FDF703F821E001
S315000090D001982D187D80BBF1000F08D02088FFF77E
S315000090E071FE019B009A41461844FBF729FA00F0ED
S315000090F04FF870615046FCF7EDFF3BE05046FCF739
S31500009100E9FF00F049F82D180021A8B2FFF715FF76
S31500009110070001D118202EE000F03EF80546208811
S31500009120FFF750FE06463846FFF74CFE2A46314604
S31500009130FBF706FABBF1000F384609D0FFF742FEEF
S3150000914000F029F8009A41462844FBF7F9F907E0B0
S31500009150FFF738FE00F01FF80099284402F0C6FD1C
S3150000916020880121FFF7AEFE024601213846FFF7AF
S31500009170BCFE27800020BDE8FE8F000094F400208E
S3150000918018DF00201CDF002068E1002096F4002094
S315000091903846FFF73BBC054620882BE6756E636CA8
S315000091A061696D65640000006275666665722D6DA5
S315000091B0616E6167656D656E742E630038B5044631
S315000091C020880D46FFF716FE29468842208803D3DD
S315000091D0FFF729FE002032BDFFF70CFE2D1AEAB27A
S315000091E0204601B000230021BDE83040FFF741BF13
S315000091F02DE9F0410546884617461E464046FFF7CC
S31500009200E1FDC419300018BF002C1CD04046FFF702
S31500009210F1FDB919884202DA1D2100F039F80698E5
S31500009220010003D132462146284604E00128324691
S315000092302946204603D1BDE8F04103F02DB9BDE82B
S31500009240F041FBF77DB9BDE8F08138B504460D461F
S31500009250FFF7D0FD854202D32A2100F019F82046F7
S31500009260FFF7B0FD284432BD70B505460E46FFF740
S31500009270A9FD040009D02846FFF7BCFD864202D3AB
S31500009280322100F005F8A05D70BD002070BD000021
S3150000929088A0FBF7A5BF70B504460D461646FFF736
S315000092A0A9FD854202D33C21FFF7F2FF2046FFF7D6
S315000092B089FD00B1465570BD38B50446FFF79AFDE5
S315000092C005462046FFF77EFD29460022BDE83840C8
S315000092D0FFF799BEF8B505460E461F46069C104692
S315000092E0FFF770FD07442846FFF76CFD2246394616
S315000092F03044BDE8F84003F0CFB870B500F02BF865
S3150000930000F003F8301880B270BD060229462046E8
S31500009310AAE7E0B58DF80420120A8DF8052001238E
S315000093200A4600930146022301A8FFF761FF07BD25
S31500009330F8B500F010F8FFF7E8FF8619E91CC9B286
S31500009340FFF7E5FF0702AD1CE9B2FFF7E0FFC01922
S3150000935006EB0040F2BD0D46691C0446C9B283E720
S315000093600EB430B50446002180B2FFF7E6FD05468F
S31500009370FFF728FD290008BF00200BD003A9002213
S3150000938004E051F8043B521C00F8013BD3B2A3425F
S31500009390F7D3284630BC5DF810FBF8B505460E46F7
S315000093A0174600212020FFF7C8FDADF80000FFF7A3
S315000093B009FD0446BDF8000060B13B463246202157
S315000093C0601900F020F82D18E9B26846FFF7F6FE9E
S315000093D0BDF80000F2BD1CB504AC009400F001F825
S315000093E016BD10B514461A46029B091B2044C9B285
S315000093F0BDE8104007E00CB480B502AAFFF7CDFF28
S3150000940002BC5DF80CFB2DE9F04781464F4600246F
S31500009410884615469A460CE0F6B23419444542DAB7
S315000094203246384603F038F8BF19641E641CE4B2AD
S315000094306D1C444537DA2878A8B3312818BF32287E
S315000094400ED15AF8041B322807F8011BEED1641C12
S31500009450E4B2A045A4BF091207F8011BE6DA22E030
S3150000946034280ED1211D5AF8040B88451BDB3870B1
S31500009470020A010C000E7A70B970F8703F1DE41CE8
S31500009480D4E7A0F13303072B5AF8041B38BFA0F129
S315000094903006C1D3A0F14103072B34BFA0F1370634
S315000094A05AF8046BB8E7A7EB0901C8B2BDE8F08724
S315000094B0000000006C65676163792D7061636B6500
S315000094C0742D6275666665722E63000000F10103F5
S315000094D010F8011B11B110F8011BFBE7C01A704709
S315000094E020B500210FF2F822CBB2D35C834205D01F
S315000094F0491CCDB2082DF7D3002020BD012020BD88
S3150000950020B500210FF2E022CBB2D35C834205D016
S31500009510491CCDB2082DF7D3002020BD012020BD67
S315000095208B4A137848208B494343C818B0F8E200A9
S315000095307047874A1378482086494343C818E43061
S315000095407047834A84481378016838204343C81813
S31500009550416B087E70477E4A7F4813780168382041
S315000095604343C818C0787047794B10B57A491C78C0
S315000095700A6838214C431119C87010BD2DE9F04115
S31500009580734D2A783824744E31686243074673480F
S315000095900A44977003F0D6F880467148022F1ED110
S315000095A02B78316863434A1CD75C042F18BF03F03D
S315000095B0E3F82A7830686243411C885C03281EBFA2
S315000095C00428404603F0D8F82978306814FB01F4E3
S315000095D001194A68D00054BF9024BC2415E000212C
S315000095E0017088F8001003F032FA2A78316814FB0B
S315000095F002F4481C005D032818BF042802D103F0BA
S3150000960043FB01E003F00FFF9124204603F070FFB7
S3150000961050B9234613224DA10320FFF756F92046E1
S31500009620BDE8F04101F02ABCBDE8F081484A4A484D
S315000096301378016838204343C818807800F00F007B
S315000096407047434A44481378016838204343C81892
