S01B00004E43505F5553575F5A424252494447455F3731302E733337FB
S113400000100020F55A0300993403000D35030015
S1134010FF5A03001135030015350300FF5A03004E
S1134020FF5A0300FF5A0300FF5A0300FF5A03001C
S113403019350300F4410000FF5A0300FF5A03003E
S1134040FF5A0300FF5A0300FF5A0300832C0300A6
S1134050FF5A0300FF5A0300FF5A0300FF5A0300EC
S1134060FF5A0300FF5A0300C5B200005D4C010073
S1134070594C0100FF5A0300FF5A0300FF5A030082
S1134080FF5A0300FF5A0300FF5A0300FF5A0300BC
S1134090FF5A0300FF5A0300FF5A0300FF5A0300AC
S11340A0FF5A0300FF5A0300FF5A0300FF5A03009C
S11340B0FF5A03003B1F0100FF5A0300F3250100D0
S11340C0AF250100AD250100E51F0100F125010028
S11340D0B1250100B5250100B3250100893B01008C
S11340E031260100FF5A0300FF5A0300FF5A030060
S11340F0FF5A0300BD410100FF5A0300FF5A0300A9
S1134100FF5A0300FF5A0300FF5A0300FF5A03003B
S1134110FF5A0300FF5A0300FF5A0300FF5A03002B
S1134120FF5A0300FF5A0300FF5A0300FF5A03001B
S1134130FF5A030000000000000000000000F03FF0
S1134140000000000000244000000000000059406E
S11341500000000000408F40000000000088C340C1
S113416000000000006AF8400000000080842E4136
S113417000000000D01263410000000084D7974182
S11341800000000065CDCD410000000000000000EB
S1134190000000000000000000000000000000001B
S11341A0000000000000000000000000453A5C53DD
S11341B0696D706C696369747953747564696F5F50
S11341C0563730305C53444B735C70726F746F635A
S11341D06F6C5C7A69676265655C737461636B5C60
S11341E06672616D65776F726B5C6165732D656373
S11341F0622E630013B779FAC925DDB7ADF3CFE0BA
S1134200F1B614B80102000000000000FFFFFFFF38
S11342100100000001000000000000000000000098
S1134220000000000000000000000000000000008A
S1134230000000000000000000000000000000007A
S113424000000000453A5C53696D706C69636974E1
S11342507953747564696F5F563730305C53444BDF
S1134260735C706C6174666F726D5C736572766991
S113427063655C6C65676163795F6E63705F6173CE
S1134280685C7372635C6173682D6E63702E630087
S1134290453A5C53696D706C6963697479537475DC
S11342A064696F5F563730305C53444B735C706C99
S11342B06174666F726D5C736572766963655C6C5C
S11342C065676163795F68616C5C7372635C62618A
S11342D073652D7265706C6163656D656E742E63B4
S11342E00000000013B779FAC925DDB7ADF3CFE0BC
S11342F0F1B614B80102000000000000FFFFFFFF48
S113430001000000000000000000000000000000A8
S11343100000000000000000000000000000000099
S11343200000000000000000000000000000000089
S11343300000000000000000000000000000000079
S11343400000000000000000000000000000000069
S11343500000000000000000453A5C53696D706C79
S1134360696369747953747564696F5F5637303063
S11343705C53444B735C70726F746F636F6C5C7AE4
S113438069676265655C737461636B5C6672616DB9
S113439065776F726B5C63636D2D737461722E63EA
S11343A000000000496E69743A2064656661756CAA
S11343B07420434341206D6F6465207365742074D9
S11343C06F2025643A2030782558000002010A0045
S11343D006000A0026002A0000800000401F00009A
S11343E00300E40C0A0000003D35030047350300D8
S11343F04B35030077350300D535030079350300C9
S1134400AD3503002C000000C800FCFEB4008B088E
S11344107BC0FBFF4D00E402E756FFFF2C00A20126
S113442083EBFFFF1A000301B31A00001100A3007D
S1134430552900000A005E005A28000006003A00D0
S11344402122000004001800731600006400FCFE22
S1134450FFFF000000000000FFFF0000000000005C
S11344605A00F306A554FEFF2100A301A1FEFFFF9D
S11344701100A600832700000A006100DC2600006A
S113448006003B00F820000003001500AD130000F7
S11344900000FCFEFFFF000000000000FFFF000022
S11344A000000000FFFF000000000000FFFF00000C
S11344B00000000040001806F4D200002C00B002F6
S11344C03DBE00001700F2000C7C00000C0041000F
S11344D09E420000000801B4084400000008015A8C
S11344E04C4400000008004090440000000000001C
S11344F0000000000B0000000B00000002000000A0
S11345000000202000000000030000008C8C3C0010
S113451000000000000000000000000064656275F7
S1134520670000000300000076636F6D0000000068
S1134530767561727400000000CA9A3B00E1F505CB
S11345408096980040420F00A086010010270000CA
S1134550E8030000640000000A00000001FF0100FD
S113456023E1010075E4010063E2010063E5010059
S113457062E1010079EB010064EE010024E1010035
S113458025E1010026E1010027E1010028E1010005
S113459029E101002AE1010000000100800001007E
S11345A000010100800101000002010080020100FD
S11345B020E2010000030100000501008005010064
S11345C000060100800601000007010001E501006A
S11345D002E5010058E201008003010080040100AB
S11345E000040100800701000008010080080100A8
S11345F000010001010000000000000000000000B4
S113460000000000000100000000000000000000A5
S11346100000000000000000000000000000000096
S1134620000000000000000101010101010001017E
S1134630010101010000000101010101010000006C
S113464002041104040211101A080A0218010811C4
S113465010111A080A04020D0B195C0110281234F7
S11346600430040B010000000101010101010101FA
S1134670010101010101010000000000000100200E
S1134680200C0020010101050000000000000000D2
S11346900000000000000000000000000000000016
S11346A00000000000000000000000000000000006
S11346B000000000000000000000000000000000F6
S11346C000000000FFFFFF000000000000000000E9
S11346D000000000000000000000000000000000D6
S11346E000000000000000000000000000000000C6
S11346F000000000FFFF0000FFFFFFFFFFFFFFFFC0
S1134700FFFF0000FF0000000000000000000000A8
S1134710000000000000000080000000FFFFFFFF19
S1134720FFFFFFFF00000000000000000000000089
S11347300000000000000000000000000000000075
S11347400000000000000000000000000000000065
S11347500000000000000000000000000000000055
S11347600000000000000000000000000000000045
S11347700000000000000000000000000000000035
S1134780FFFFFFFFFFFFFFFFFFFF0000000000002F
S11347900000000000000000000000000000000015
S11347A00000000000000000000000000000000005
S11347B000000000000000000000000000000000F5
S11347C000000000000000000000000000000000E5
S11347D000000000000000000000000000000000D5
S11347E000000000000000000000000000000000C5
S11347F000000000000000000000000000000000B5
S113480000000000000000000000000000000000A4
S11348100000000000000000000000000000000094
S11348200000000001000000000000000000000083
S11348300000000000000000000000000000000074
S11348400000000000000000000000000000000064
S1134850000000000000000000000000FFFFFFFF58
S1134860FFFFFFFFFFFFFFFFFFFFFFFFFF00000051
S1134870FF000000FFFFFFFFFFFFFFFFFFFFFFFF41
S1134880FFFFFFFFFFFFFFFFFFFFFFFFFFFFFFFF34
S1134890FFFFFFFFFFFFFFFFFFFFFFFFFFFFFFFF24
S11348A0FFFFFFFFFFFFFFFFFF00FFFFFFFFFFFF13
S11348B0FFFFFFFFFFFFFFFFFFFFFFFFFFFFFFFF04
S11348C0FFFFFFFFFFFFFFFFFFFFFFFFFFFFFFFFF4
S11348D0FFFF0000FF00FF00FFFFFFFF00000000DC
S11348E00000000000000000385B03009046000058
S11348F094460000A8460000AC4600003A5B030062
S1134900B0460000C4460000D4460000F046000053
S1134910F84600003C5B030004470000915B030081
S11349201C470000244700003847000048470000A7
S11349305C47000078470000804700008C47000077
S11349403E5B030090470000A0470000AC47000016
S1134950C8470000925B030024480000344800006C
S11349605C48000070480000A4480000A84800000B
S1134970D8480000DC480000935B0300453A5C53D0
S1134980696D706C696369747953747564696F5F78
S1134990563730305C53444B735C706C6174666F93
S11349A0726D5C736572766963655C746F6B656E5A
S11349B05F6D616E616765725C7372635C736C5F7B
S11349C0746F6B656E5F6D616E616765722E6300F7
S11349D0453A5C53696D706C696369747953747595
S11349E064696F5F563730305C53444B735C706C52
S11349F06174666F726D5C736572766963655C740D
S1134A006F6B656E5F6D616E616765725C73726317
S1134A105C736C5F746F6B656E5F6D616E75666100
S1134A2063747572696E672E63000000453A5C53C7
S1134A30696D706C696369747953747564696F5FC7
S1134A40563730305C53444B735C70726F746F63D1
S1134A506F6C5C7A69676265655C6170705C6672D4
S1134A60616D65776F726B5C636F6D6D6F6E5C7A91
S1134A7069676265655F6170705F6672616D6577B5
S1134A806F726B5F636F6D6D6F6E2E63000000005D
S1134A90453A5C53696D706C6963697479537475D4
S1134AA064696F5F563730305C53444B735C70728B
S1134AB06F746F636F6C5C7A69676265655C617063
S1134AC0705C6672616D65776F726B5C636F6D6D40
S1134AD06F6E5C7A69676265655F6170705F66724C
S1134AE0616D65776F726B5F736C6565702E6300C3
S1134AF00000000001000000020202026400000045
S1134B00000000006400000000000000000000003D
S1134B1000000000000000000B00000089CE00002F
S1134B200BCF000019CF000051CF000067CF000069
S1134B30AFA70000B3A70000B7A70000BBA7000001
S1134B40BFA7000049A7000077A7000081A70000C5
S1134B5091A7000089A70000C3DF0000FFDF000069
S1134B6021E0000037E000005DE00000E9170020CC
S1134B70F0170020FA170020ED170020EB17002093
S1134B80EC170020EE1700200B18002029710020DC
S1134B900118002003180020FB17002012710020C8
S1134BA01318002004180020051800201571002097
S1134BB01871002026180020F1170020E57000204D
S1134BC0251800200B9F01000590010005F301004A
S1134BD00B740200F3200200E76D00008B710000EB
S1134BE0AB790000278000000F780000D5E90100B0
S1134BF039BA02002526030067420200EDCF020005
S1134C007F6D0000C7E302009DE402003F1803002B
S1134C10CDD7020059780200DBD60100C597020007
S1134C20338C0100000000000B000000FFFFFEFFBA
S1134C300000000000000000FEFF00000000000073
S1134C400000000000030001C5D50200CBA601004E
S1134C50000000000000000000000000339002008B
S1134C6053D7020041CA010091D502007BE901003B
S1134C70FFFFFFFFFFFFFFFFFFFFFFFF000000003C
S1134C800000000000000000000000000000000020
S1134C9000000000000000008001000088200020C7
S1134CA001100000445B030002100000465B030097
S1134CB003020000485B0300051000005A5B030078
S1134CC007080000505B030000020000425B030081
S1134CD0040200004A5B0300095C0000545B03000B
S1134CE00A140000585B03000D020000525B03002D
S1134CF00C080000405B0300110107010100AA0039
S1134D000700100008001A0006001100020011003C
S1134D100400040001000400090008000A000A005D
S1134D200B000200000000009E5B0300965B030082
S1134D30B35B0300A15B0300A05B03000000000061
S1134D40885B03008A5B0300000000008C5B0300A7
S1134D50AE5B0300B45B0300A35B0300895B030049
S1134D60000000008D5B0300A65B03008E5B030064
S1134D70AB5B03008B5B03008F5B0300010000004F
S1134D80CF55020002000000275602000300000075
S1134D907D560200040000001D57020005000000BB
S1134DA08D570200000000000000000006000A0009
S1134DB026002A0000800000086C0000F46B00004C
S1134DC04870180E4470860D3070241202989A159B
S1134DD03870020E3470260E3070080F2C70080FD5
S1134DE02870761024708E102070100E1C703611EE
S1134DF01870B2111470080EB110086001D80A714D
S1134E0004B87F78020C7E78641000C6981F00A056
S1134E101DB8707803B018600F3027B30F33011139
S1134E20C04806986A0229B0086001D8087109DDF3
S1134E30047109BB11101660A04808600410011227
S1134E40FF3221500860D048086000880698C212DA
S1134E5000C4401F00A000BA03DF107109DF06720E
S1134E60029824031DB8507800A044132814411557
S1134E708110086002D8147110880698141700C0B5
S1134E8014C000B806986C1900910698800201605D
S1134E90B83020D806711EBC637C784D5412F032B1
S1134EA040DE0472404804DB08720DDD0C72044BD2
S1134EB0EF3014480698BA0400C4E0400054441289
S1134EC0086201322140087C811140D91C72B11260
S1134ED03032CF4A013AB1DA107208D8067104D8D8
S1134EE00871804C237C4470684C4412FF32872242
S1134EF0047580B8E84C81D8367140D90472237C9B
S1134F00084B0698BA0404BA1CB9767900C120404B
S1134F1001B835797F216121007906B906A901D844
S1134F2006710298FE01804C307C0298520208D827
S1134F306A7100C1544000B8141110D95E71584C04
S1134F40441280BDA26DFF25784C4412FC22513AD4
S1134F502814104C00C20CC101B824122814086291
S1134F6028140862281408622814304C304C00C1FC
S1134F701C4000B814111814086100C5284001B879
S1134F805415FF35047110491814B04C44120862CA
S1134F900132067102980401804C08D80C7107BADA
S1134FA024D8047106BA187004D80C7101BA40D818
S1134FB00E7102BA0A7005BA20D8047203BA204CE2
S1134FC04411C04C1814086118149111383111425D
S1134FD09111186110D90472EF3200C1084001B870
S1134FE0141110311E6111422814A1110861181402
S1134FF006985219181400C1084001B81411186118
S1135000FF31181400C1448001B814111814086148
S113501018143088024806987E03009308DB047154
S113502001F800A027B00F3000A01088B11118615A
S113503080D90A7100C1884000B80811009100A00D
S113504000C4704000B8441000A000C08840005064
S113505004118261041082601050F07200A0541593
S1135060504512710698C40406985A0407B870781B
S113507002B841781EBA5B7A5C7A5D7A00C220C0BD
S113508001B8241206981E1700C5441F00A0541529
S1135090511400C3FF010000313D09647F340698B8
S11350A08A02015851280475015841280E7581114E
S11350B0086102D90472FF0FCC7007B8727800F847
S11350C0EBBD00C0401F00A00411113D10D91271A6
S11350D0FF33186300C1781002B8381107B9747926
S11350E0581000A006988002184C0D300472044831
S11350F000C11CC101B8141100C3D01E00A0911539
S113510004351A7218131CBB08D804716C7B04D8BC
S113511004716A7B1DBB2F7C5B7B1670044B1813D8
S11351201CBB08D804716F7B04D804716D7B217C8F
S11351300C3002600698460406982E0B00B8B11194
S1135140186140D906720298200401BC00C20840CC
S113515001B800DC0A7124150265604A0A702C4A01
S1135160241508654C4A043508D90471202400C16B
S1135170381F00A0141200DC327120D8067101B867
S11351800C70F0DA0C720CDB087102B806984E044D
S1135190482400C3384101B834138F7B0E7102B91F
S11351A0911308DB047203B906700449141100C397
S11351B0884000B8FFB8012011410871014118135B
S11351C00824014200C1284000B8141101411C65A3
S11351D05141911520351E65514118132813481368
S11351E000C3844000B8341003D81671073005DCBE
S11351F01071B1108F780A7200C384C40350217BEC
S11352001DB8507800B800C1381F00A014121C60EB
S11352102150F0300152281100A04024076400C03E
S1135220FFFF0100013C17B0022001584028067519
S113523018AC01EC00A0208800C020C001B8041202
S113524017B4211304123052F8711964402400C3B6
S1135250701F00A03410141106986E0D196100928D
S113526011592129067600BB115906984E0D876203
S1135270313B0472215A412A00A000C2704000B898
S1135280317A00A0308801B9116100C30000C0FF69
S11352903110312800BC002D0C75115418AC01ECF0
S11352A0312DF470196451134155312C009300A031
S11352B000C3C00FFEFF50B2313A014250AA00A011
S11352C006980A07FFB0867808715CB86B786E7828
S11352D000C2548001B800C0D81F00A004100812F6
S11352E0B822217A237A52B8417801B80C6021A8F7
S11352F009B819604CA800C0FFD1C1FF4FB2013AF0
S113530000C0002E300001424FAA24B86E78ACB918
S1135310FFB004D804714CB923A906986A0500C0EB
S1135320139001000698F00400A000C0541F00A0D0
S113533017B118100698C40400C01890010006980C
S1135340F00449BC21B952B849B207DE2A7105DE1E
S11353500871627C607C1D0C6179677864786B7875
S11353606278657863786078617C010C010C6878F8
S1135370020C69786C78020C00C22C8001B8277A80
S1135380287A267A6A78050C41790A0CB11040D83B
S1135390067102987C06784A2B7A327A584A247A23
S11353A000C400011100404A00C01084000008122B
S11353B0508800C584100100FBAD10BD01BB8A6B91
S11353C021B9FAA9C44A1812217A227A00C0341FDA
S11353D000A00410FCA88264411030300129F9A90E
S11353E0F8ADFBB08260FBA80330A065211004482F
S11353F020EC237A0410037A184A2411DC4A015859
S11354000029241004753150F8B1115081632A71B8
S1135410514031400812FCB18461FCA90F310E7176
S113542017B0112817B111591028FA76C44AF9B1E6
S11354301812217A227AA0700095081200C20C80FA
S113544001B8207A844A00B80812020CA44A087AE7
S1135450020C21B84178784A0B7A127A00C2C81F2C
S113546000A0FFB008D80472184A241000DC0A71A6
S113547040A80422241041A806988A0200C2441FAE
S113548000A02410015100C4FF0100004139115053
S1135490081200A006980A0700BC00C20C8001B8DC
S11354A0217A52B84978020C4878020C49B84178FC
S11354B052AC21AC204A087A067A077A49AC00C07B
S11354C05C1F00A017B1181000A059B840785AB159
S11354D001D9FC72427857B8407858B101D9FC72AE
S11354E0427800A000C20C8001B8217A227A21B847
S11354F0547852B8BC4A24119979127107B91561CC
S11355004CA9617800BB03BC0C64147009B919611F
S11355104CA9417801BB126300C4002E300000C0C6
S1135520FFD1C1FF4FB1013941414FA9E44AC8B885
S1135530081224AB4CB823A806986A0500C0681F5B
S113554000A017B1181000C0049001000698F004E0
S113555000C08009004040A809B8FFB108D904710F
S113556003B853A8B11004D80C7156BB607B57BA6A
S1135570627A607A02D80C7156BB607B59BA627A3F
S1135580607A04B86E783DB8607800C05638000080
S113559000C1B08001B814119979087200C0D60412
S11355A0000000C124C000B814119F790472084897
S11355B04CA82EB8FFB108D906714AA804704BA8AC
S11355C00FB834A800C00C5E000046B2014246AADF
S11355D000C12C4001B8141108610631087100B9EA
S11355E00698F60F0698C812B11101D90E710698E3
S11355F0781902D906720698000C0698C212511442
S113560006985A0400C0641F00A017B1181002982D
S1135610D00F00B84CA84AA84BA800C0F321FFFF44
S113562046B1013946A904B86F7800A000C0581FDC
S113563000A017B11810FABC1964415C512C00C0C9
S11356406C1F00A00410012C067506985A040698D5
S11356503A0EB110186007D8347140BA06989812FF
S11356601DBC7F7C04B86578911004D816711CB8F1
S11356706E7800C0684000B8217806981E1001407A
S11356800872427C0698D4120298C80A1DB8717830
S113569004B86C7841B8427863784478FFB104D98F
S11356A0067202987E0900C0049001000698F00476
S11356B000C32C1F00A000C274C000B824144813F7
S11356C000BC48121C4B1C4A2414481300BC48124A
S11356D04ABA447A427A4BBA447A427A617A4CBAE8
S11356E0647A657A3DBA607A4DB942B83FBB5B795A
S11356F066796179020C6479050C63796079050C2B
S1135700627965795A7900C2340102B8241305B864
S113571019603140081242B86A78020C4A78020CC7
S113572040BCFFB208DA06714ABA06704BBA627A14
S1135730657A677A667A6A79667B0298460A00C354
S11357402C1F00A000C274C000B8241448131C4BC2
S11357501C4A241448133FBC48121C4A00BC48127B
S11357604ABA647A627A4BBA647A627A617A4CBAD7
S1135770647A657A3DBA607A01D94E71647800C161
S1135780708001B800C08000080008110698F00A73
S113579042B861784DB97F797E796A7868786278A1
S11357A0020C7B790F0C7A79140C74794178607847
S11357B07579050CFFB208DA06714AB804704BB863
S11357C0657801BC1664407002D93C710698F00AF1
S11357D042B84DB96878407841787F797E797B7991
S11357E00F0C7A79140CFFB208DA087171794ABA8D
S11357F0067070794BBA7279657A6A78020C4A78C5
S1135800050C01BC1664020C417940790C0C00C0F3
S11358104C0102B848100698BA04511400C06C1F19
S113582000A00410012C17B0011187680158412809
S11358300E7605218769415C412D112D067006986D
S11358405A0400C0681F00A017B1181042B84DBB1D
S11358507C7B6478020C29B868785114404406753E
S113586006985A0442B84478FFB101D90C7100C1BA
S1135870548001B8CBB8081100C0601F00A017B154
S11358801810911004D8147100C0A81E00A00410B0
S113589080D8067107B8537800F807B800C1CC1E49
S11358A000A000C220C001B824122811767800F8A4
S11358B0B1109478387106988A02E4B91159112804
S11358C0067600B80C70A0B9115901290475A0B866
S11358D0826000C3C01F00A03413012B341000C326
S11358E0FFFF00FF42B13139114042A800A01DB0B2
S11358F09178FA7142B86478020C00BA29AA00C4FB
S1135900548001B842B84DB900C3C04001B8341343
S1135910977B047240EC020C44785C7953AA0A0C1D
S1135920281442B84DB9FFB301DB2671244C00C3DF
S1135930FF0FFF0138145479407841785579020CEF
S11359405B795A79140C5F795E794A7842783470BD
S113595002DB1471527951795079020C5B795A79CE
S11359605F795E791E7004DB1A7100C4FF070000C2
S113597000C3342102B848133FBB467B020C5B7959
S11359805A793DBB407B4CBB447B457B00C3301FF5
S113599000A03414403C167100C068C000B8481020
S11359A028131C4B1C483414481028134AAA4BAA29
S11359B004B86D781DB851785CB84B784E7800A067
S11359C000C074C000B80411108800B918106848E9
S11359D00411108801B90B6118102C4804111088A7
S11359E0008800C1231C000018104AB864784BB822
S11359F06478260C28B000C1FFFF0FF0113871B98C
S1135A000B61114028A828B97379747900C2101069
S1135A10303045AA54790E0C00C0E84001B8041196
S1135A2000C23030101045AA0E0C041000881088F3
S1135A300698C20C0091009020888F618F600698B0
S1135A40C20C0090886A21400112906A035800C178
S1135A503F3F00001138FFBC0224412811380142A5
S1135A6045AA28B953794AB844784BB84478009089
S1135A700091181000912C481810009168481810D3
S1135A8000A09168436091694361115B012B112867
S1135A9041603128315B00BA302806763128204A2B
S1135AA04163302806763128104A4163302806764F
S1135AB03128084A4163302806763128044A416374
S1135AC0302806763128024A416330280476014A98
S1135AD000A0115910D906710860086008D9047132
S1135AE0086004D90471046002D90471026001D908
S1135AF00471016000A0108804110230067108616D
S1135B00086100C0FFFF00001138009100A000BA36
S1135B1001D806710148112A1F61016001D8F6728B
S1135B200138F67200A000C220C001B82412115935
S1135B302129127300210E7100C238C001B8241249
S1135B400121212900A002B020D8147100C0B41E84
S1135B5000A0041002B9457906981C12EA7003B03B
S1135B609F78087200B806A800F806980A0700C5CE
S1135B70781F00A050880C4D1CBC00C0B81E00A0AB
S1135B80811101D91E71407C00950115044D508886
S1135B907C4DFFBB1863315B04110698660D3129F7
S1135BA0F8750698681854150698781901D908727A
S1135BB00698240706700698C2071CBB547B009500
S1135BC000F8069852080E7006982E0B0698520894
S1135BD0069818110698D406211900C02C4001B863
S1135BE00A78097800F810B901BA06988E12069856
S1135BF0D00F00C5781F00A000F8911203321CB921
S1135C0000C3A81E00A0341300C4B04000541DB843
S1135C104278707903DE067144783E707179A11080
S1135C2020D80A71069824070298140F80DB1C718F
S1135C3002D8187205B80814A110103002480814CC
S1135C4000B808149110086008141DB86278A110F7
S1135C5000DC0676517900BA911120311D61911052
S1135C6004D80E7200C14C1F00A0141101D90A718E
S1135C7020880698F60F009200C1204000B8053332
S1135C80054B1872084C03DE0471904C441400C395
S1135C90FF1F0000413BFF233811944900C33841E2
S1135CA001B83413086380DB0C7103BA18620698D8
S1135CB0FC0E087018620698FC0E0C4908790979E4
S1135CC014102140081100A000BD0698640210B908
S1135CD003DC047100B901BA06988E1202D9067168
S1135CE000404E7203B118610F3106981E10FFD8A0
S1135CF02872811008D8187106DD0A7106986402AA
S1135D0003DC0C72069862100698D4120C7006DD3F
S1135D10107106986810487020B804A806DD107247
S1135D20069852080698D40601F840B804A800F86A
S1135D3000C0A81E00A00413086301DB22719110A7
S1135D400111186111381DB910D8087144790298ED
S1135D50140F02DBFA72A11328DBF47203BD069858
S1135D60C40F0698520800C57C1F00A00698640260
S1135D7000BA03DC0472FC4D5415212D069800056D
S1135D8002986C089110015503355150011900A077
S1135D9000C1481F00A0141001D8427101480860D6
S1135DA0FE200E75811020D8087100C14C1F00A080
S1135DB0141101D9287100C02C4001B804122151DA
S1135DC008610F3118611152281000C0084001B851
S1135DD004119112215120311152211900A0811373
S1135DE080DB067201B800A000C314C001B83410EF
S1135DF006302E726C4B34121C4B34101860023077
S1135E002072811080D8DE713410014A0862046067
S1135E10803021508C480A717F234D233410013087
S1135E2000A000BD0698C40F1CB847784578437895
S1135E3002B8447800A0069852080698621000C57B
S1135E40841F00A054150698000502986C08B1132D
S1135E508F7B0A7200C384C40350017B0698C81266
S1135E6000C1384101B814118F790E7100C1B840D6
S1135E7000B800BA0698FC0E50BA06989812069814
S1135E801E10FFD84A71911004D84872811008601E
S1135E901CD8407220D938721112FF32215134714A
S1135EA080218021111400C0D81E00A00413FFBA61
S1135EB03151113A215111531DB938107B794044A5
S1135EC00E7200B900C2B01E00A01812067004B809
S1135ED060780698C21200F800B900C2A4400054C9
S1135EE01812644A0AB918121CBA507A517A1DB9A8
S1135EF042795F7900A00698640207DC1072911061
S1135F0000200A75069818110298320E0698D406D5
S1135F1001B9911004D8047100B910BA06988E1210
S1135F2000BA0040347100C0A81E00A0041108612A
S1135F3001D9127104D9E2728110086001D8DA71B2
S1135F401DB8647800C11CC101B80698760401B874
S1135F501160002A047600BA0698181100C5881F3B
S1135F6000A05415212D0698240700C58C1F00A0FD
S1135F7000F800BC811108D9167280D9207201B9C9
S1135F8010BA06988E1200400E7101BC107006986B
S1135F9062100698D41220B804A800F806981811C4
S1135FA081110231127100B900C214400054181258
S1135FB0244A02B918120698621000C5901F00A066
S1135FC054150698F01802986C08041101211471F4
S1135FD01CBA737A0420041228110420041101212C
S1135FE0F47200A00698BA0401F8911010D8287130
S1135FF000C51CC101B854110698660D00C5C81E21
S113600000A054155129EA7507B875781DB844786D
S113601001B804A800F8B110186010D82E7100C09F
S11360205040005400C3084000B83114984C441147
S11360303411086101D9FA71441228100862281039
S11360400862281008622810E87002989E020698D8
S11360508002113804721E6202BB00C1D81E00A067
S1136060141120390C72911210DA0672417B00A0CF
S11360700698C81200C2A81E00A0241220DA0472D6
S1136080617B1CBA527A00A01CBA727A811204DABB
S1136090FC7200A01CB86B7800C0684000B82F7870
S11360A000A010631EB9637900B902EC00CD11455C
S11360B002EC00CC01DB087100BB0298C61603B8E1
S11360C041110731FA211C760621911210DA087168
S11360D002DD10721E7020B80698120D303814724A
S11360E008B80698460400C02C4000B829782078E7
S11360F000F8056020D806710298561402EC00CA14
S113610005B823DA187104DBDA7120DAD67110DAF3
S1136110D2721EB8617800B801DA067202EC00C8C7
S1136120911110D9267100C1BC1E00A01411115088
S1136130FF300C720761A110115002300A7180DB2C
S11361400A720AB89E701DB97C79186091111140C9
S11361502111C031114001191EB8411108D904712F
S1136160667820D904726578A11002D80672C0DA64
S11361701E711EB8273123DD087210DB107260789F
S113618025DD0A7121DD087208DB0471627803B829
S1136190411107310872A1152035AA7102DD207260
S11361A0A11120D9A07102D91672CCDA98724111CA
S11361B040D9927206B8054D5A720298F81221110C
S11361C04049C0D94C71A031411540350265514157
S11361D00461086308DA1E7204DA36721049A115E4
S11361E00235067110DB0E7201340A7108DB22716C
S11361F01EB86778CC3211101A300ADC0872CCDE73
S11362000471FD3100C00D0F0C0D216001D85C72CA
S113621007B80298221300BA411108D90C7102EC94
S113622000CA05B830DAEC720734F031036101DAE0
S11362300471014900C0F300A3E3216001D8D271C5
S113624000C09814406821604030014440DA047171
S1136250204C04320262204A111006301F600142B1
S113626018311D61114202984013204A00C00517DD
S1136270085021601130014220880DDA527100C1AA
S1136280DE1B250180BC04DA107208DA0A7200C130
S113629020841000E024A024FFBB0863414302646F
S11362A001DA06711E49024B00C0201F00A00863DA
S11362B03810BC2002DA127101B91159A11380DB24
S11362C0087100C100FCFF0118100298521600C4A6
S11362D0A81E00A0441080D87E7100920462DDDA0A
S11362E00871A11180D992721EBD437DEFBD06983D
S11362F00203DDDA8472A11105D95C7100C2404049
S1136300005424121024281401D9067202D93271BF
S113631040D91E7102EC00CA211018320471FA220D
S113632020D804720822FE22087502EC00C8F87016
S113633001D90E7102EC00C802D9067204DC18728D
S113634000C0A81E00A004101D6001D806711EB86C
S1136350647807B873780298C616641000C6981F4C
S113636000A0C3B806986A0200C4401F00A014BA73
S1136370281400B8011AB1108F780A7200C084C4BE
S11363800350017891101030011905BA069898123B
S113639002D9067101B804A800C0A81E00A0041305
S11363A080DB06710298E2121DBA7C7A01DB5E7111
S11363B000C2241F00A024111114FF3402EC00C8F1
S11363C0FF24FA7608610698220D046111380F3013
S11363D004611114011141100698220D01D80872AC
S11363E003B8029822130C4A02DB167124101128F8
S11363F011280698360D00C2204000B8FF2008126C
S1136400411008600698220D01D87C7120BC10331D
S1136410767100BB00C1201F00A01415C021112CEF
S1136420511218620F320E71408851140698EE16FC
S113643041430094511208651C620F320E714111E0
S113644051140698EE161C6441430865513B00C183
S1136450DC1E00A01411111231100F30127100BA99
S1136460056101D80471114201600FD8F472311032
S113647003601E30047201B8003A087204B802982E
S1136480221302980E1500C0384101B804118F7907
S113649014717F20692004110861303110DD067108
S11364A01DBA637A06980A100698000300F830882B
S11364B05088FF34087102ECFF24F87002EC00CD20
S11364C01410595001440421FF22F2720F4C00951C
S11364D0009300A000C1AC1E00A0141100A03088DD
S11364E0069828198111086102D9067202980618C3
S11364F01CBB557B086120D906710298F6170088E9
S1136500A11018600698141708211415FC251EBB49
S11365105C7B5D7B00C1084001B814110731FE218A
S1136520307608D82A725113FC23341304DB20710B
S11365301863FF33315B00C110C000B81411086147
S113654080490C71FF31302960751EBB7B7B1C7048
S11365507B7B7C7B00DD04717D7B01BB3815811363
S113656018634033067107BB717BEC25541300DFBD
S11365705471042505DF547154152111208806989F
S1136580660D009251293E7500C1084001B81411EE
S113659002DB0C710731315B31292A760C7004DF80
S11365A00872016180D91E720698141700C010C0C9
S11365B000B806986C19069814171411FFD9607264
S11365C002984C180090009300A05415A111186172
S11365D010D9A672082508D8A071082510D89A7178
S11365E0208821110698660DFC255412112AF825DD
S11365F054110C2520D80871F02554111025202998
S113660004762159181500920298B81707B97179C0
S1136610811010D80A711CB8447802B841781CB9AA
S1136620747904B9677900F88110A0D808711CB98D
S1136630497900A0086002D8FA71069814171088E6
S11366400698C812106210DA087108211415F02592
S1136650541100C20020FEFF2029127506987819F3
S113666001D90A72069852080698D40600941CBBF5
S113667041100C2006980A124111082114100698A2
S11366800A123128441111120861FF31FF3201222C
S1136690105210721861181404244413042438147A
S11366A00C70186121411814082408140298C212AD
S11366B04044147100C1B01E00A0141551131C6392
S11366C00FDB0C7219650698C404411500A00698E6
S11366D0D4060698C81208BB51140698B01844157D
S11366E0FC255415029800051CB900C3A81E00A07F
S11366F03413086308DB1A718113A0DB067149792E
S113670010706979086302DB087204B9677900F8CC
S113671000A08111086102D910711CB9757906981D
S113672014171411FF3100A0FFB900A004100821B0
S11367301411F421081100A08111106110310E719F
S11367400698141708211411F821141100A0000050
S113675064060000193F010604100100000101064F
S113676000102700000900000000000000000000E5
S1136770E1190000E1190000000000000D00000014
S11367806666660000000000546700007067000041
S1136790000C0000001A9A00005A620280841E0055
S11367A00420000011495002000000000000000015
S11367B0000000000000000000000000B0841E0083
S11367C000000000000000000D0000006666660086
S11367D00000000054670000706700000000000023
S11367E0001A9A00005A620280841E0004200200EB
S11367F011495002000000000000000000000000E9
S11368000000000000000000B0841E000000000032
S1136810000000000C400200018014007F400000D2
S1136820204002000000000000000000304004008E
S11368300000000000000000000000000000000054
S113684050400100000000005C4002000000000015
S113685000000000A840010007000000B44004004C
S113686000400000FF4C000000410000FF4D00000C
S113687008C001000000000020C005000043000023
S1136880EC80B3034375A802000000002E02000050
S113689054C003000E2D09E654060708D1B60200C1
S11368A064C008000430000040201006C8F24818F4
S11368B01FE8F600BD4B721511A31805103254766B
S11368C0980A000088C001000000000008000101CF
S11368D0040700001800010100000000200001016D
S11368E0088400001C4002011000000020F9130479
S11368F05C4005014108000001000000B0070800E9
S1136900A7000000000000009440070101011030BE
S113691050707F7F000000000000000000000000B5
S11369200000000000000000E0400201330000000D
S1136930000000000041020100612000B75635123A
S11369400C410301F95412002030042988BB400093
S1136950304103016406660C0C010000E853FA00A0
S11369606841030164048307881382000000000067
S113697030420301000000000000000E000000008F
S113698044420101000000001080010103000000E6
S113699038800201114910000100000088800101C3
S11369A0000000009C800301EB40020070780300AB
S11369B0D5C00000A8800111F0010000A8800131B9
S11369C00542CB01AC800111F0010000AC80013123
S11369D005228D00B080020100030002370000018F
S11369E088000202000C00044C0000009400010224
S11369F000040000D00002020E000000900296087D
S1136A00E40001023D094204F40001020000000018
S1136A101801010260005102FFFFFFFFFC1F010388
S1136A207C670000404003000000000000000000FC
S1136A30A00700001CC0011000F807001CC00130B2
S1136A40F502080050C001008741300C24400601C3
S1136A5007C0520000000000000000000000000316
S1136A600000000000000000584001016402FF0023
S1136A70804005014B01A0089BC34A74F003000049
S1136A800000000000000000EC4005017DA8D98B47
S1136A9000000000640483078813C83A9C200A009D
S1136AA02441020100000000031000003C410B01DE
S1136AB000000000000000000000000000000000D2
S1136AC000000000000000000100000000000000C1
S1136AD00000000000000000000000003C42010132
S1136AE000000000FFFFFFFFFC1F0103C867000058
S1136AF0404003000000000000000000A007000068
S1136B001CC0011000F807001CC00130140208006A
S1136B1050C0010087413004244006010700620090
S1136B203870000000000000000000030068010F3E
S1136B3040B8244058400101FC0069008040050130
S1136B402363E0119BC34A74F00300000380000038
S1136B50BE0A0000EC4005017DA8D98B590B00004A
S1136B60640483078813C83A90200A002441020170
S1136B7000000000001E00003C410B0100148C00CA
S1136B80141A21282E343B42495043557698BA0CA6
S1136B9028690000010000000721286414171A0066
S1136BA02004C869A1203A093C42010129000000DF
S1136BB0FFFFFFFF1C6A00004063598F404B4C00ED
S1136BC00B000B001A00FF7F6C1600200000000071
S1136BD000000000E86A00004063598F404B4C00FD
S1136BE00B000B001A00FF7F6C1600200000000051
S1136BF0000000001468000000000000B46B0000F6
S1136C000100000000000000146800000000000003
S1136C10D46B00000100000000000000C2690AB942
S1136C20018070470023002200F087B8014610223B
S1136C30374800F0A5B81022354900F0A1B87047D4
S1136C4078B591B004460D460026079608A824217D
S1136C5000F0A2F800F026F800F01EF80691059066
S1136C601022049403920294019600962A4B29461A
S1136C7008A800F094F8044608A800F053F8254D3D
S1136C8014B1BA2100F04AF80798102802D0BB21A9
S1136C9000F044F812B070BD8020ADF8220007A9BE
S1136CA0102070474FF4105108A8B7E778B58FB09B
S1136CB004460D460026059606A8242100F06CF82B
S1136CC04FF4105106A8FFF7A9FF8020ADF81A0071
S1136CD005A91020049103901022029401920094BB
S1136CE00D4B294606A800F06EF8044606A800F0ED
S1136CF019F8084D14B1D12100F010F805981028A6
S1136D0002D0D22100F00AF810B070BD00000000DB
S1136D1008230020884100000044400405F12400B9
S1136D2000F0DEB810B50446E06900F004FA20462D
S1136D302421BDE8104000F02FB82DE9F0410646AB
S1136D400F4690461D46002465B12946012000F0F7
S1136D50E1F9040008BF6FF08C000ED02A464146CA
S1136D6000F00EF8F06920B100F0E5F90020F061C0
S1136D703062F461356237800020BDE8F0817047ED
S1136D804AB1000011F8013B521E00F8013B1CBF40
S1136D9011F8013BF8E77047002200F0DDB930B587
S1136DA087B0109C0F9D06940E9C05950D9D049430
S1136DB00C9C03950B9D02940A9C0195009400F091
S1136DC0F0F907B030BD30B585B00C9C0B9D049430
S1136DD00A9C0395099D0294089C0195009400F077
S1136DE0EAFA05B030BD7047B0B500F0D8FB0446F0
S1136DF000F0D0FB0020002124FA01F2D20704D4D1
S1136E00491C8BB2102BF7D314E00FF2E82089B29F
S1136E1030F811004CF23C314FF000524FF20F03A6
S1136E20062817D15088984210D11088030A0C2BD9
S1136E300CDA0DE040F201739A49984204D19A4A5F
S1136E40D2E90045C1E900450881B0BD4FF4C060F6
S1136E505180EFE740F20724A04201BF57889F42C8
S1136E601388A342E6D151801088E3E78D48018955
S1136E70080AC9B221B901280BD140F0800070473B
S1136E800728FAD8DFE800F005040709090B0D0FFD
S1136E90F3E7002070470920704702207047032061
S1136EA070470B207047062070470000044600F02E
S1136EB07FFB5FF000504FF20F0104804180BFF36D
S1136EC05F8FBFF34F8F79490A68794802F4E06213
S1136ED002430A60BFF34F8F00BFFDE742DE7047F5
S1136EE038B504460D4600F068FB00F061FB2B4604
S1136EF022460FF2EC11002000F0AAFB294620469E
S1136F00BDE83440EAE72DE9F0436A4A136864496E
S1136F104FF420604B65146A674B8C65D3F800808E
S1136F20C1F85C805B680B66546A4C66936A8B6636
S1136F30D46ACC66136B0B67926B91F834304A6752
S1136F405A074CBFD1F83CE0D1F838E000225B4F3F
S1136F50CA6474460F6501F18C02DFF86481DFF8BE
S1136F606491594BBE4524BF0EF12005AB421AD3A0
S1136F70DEF818600E64DEF81C504D644D6DC5F3E8
S1136F800805062D15D14E4513D3464511D2368832
S1136F904DF64265AE420CD1086850604868906076
S1136FA040F2017005E000240C644C643C4600E0AF
S1136FB03F1D3E469E4203D23D68B5F1CD3FF7D01A
S1136FC0424FBD1B00278D64BC4600F083F87F1C34
S1136FD0FEB2062EF9D300279C422DD253F804CDDD
S1136FE0CC45F9D3C445F7D25FEACC75F4D54FF05C
S1136FF0000E01F1780555F82E60664504D00EF1B7
S1137000010EBEF1060FF6D3BEF1060FE4D1FDB2B8
S1137010002D0CBF05277F1E00F05CF8DCE78B6FAA
S1137020002401F1780501EB8406F66F45F824602D
S1137030641C042CF7D913603B465F1EDBB2002BA3
S1137040EDD1496DC1F30801032910D0042911D0F1
S1137050052912D0062913D00C2917D03B2918D1A1
S11370601B490B689A0719D540F2025016E040F606
S1137070012013E040F6022010E040F603200DE06A
S1137080B0F5206F0AD140F6042007E040F6052051
S113709004E019B14D2938BF40F60720BDE8F0835C
S11370A0587100202C250020E87100200CED00E030
S11370B00400FA0504ED00E000E300E00000002015
S11370C0385B03001C6C000000100020001000203E
S11370D01880015A01F17806FDB246F825C07047C0
S11370E00D0A5B4153534552543A25733A25645D66
S11370F00D0A00000104010303060105010501094D
S11371000600060B0000070B050B00000000000042
S11371100000000070B504460D4600F0B9FA0646BA
S11371202946204600F047FBFFE70446304600F0BE
S11371305FFB204670BD38B5044600F0A9FA054649
S1137140204600F058FB2846BDE8324000F050BB12
S113715062F30F2262F31F4200B500BF130096468C
S11371609446103928BFA0E80C50FAD85FEA417C55
S113717028BF0CC048BF40F8042BC90728BF20F81B
S1137180022B48BF00F8012B00BD7047006810288F
S11371901CBF1828202801D1002070476FF08600FA
S11371A070472DE9F84F9CB083468A4614469946A9
S11371B000F0D6F91022002108A800F01EFBBAF155
S11371C0000F17D00194200014D0289D299C15B9D4
S11371D0002C40F0A4802698279E08B9002E76D172
S11371E0DDF8A880B8F1000F02D12B9800286ED1E9
S11371F02C9F002F00F09380CDF800900098DFF8CA
S113720078136FF0850988421CBFDFF87013884239
S113721012D0DFF86C1388421CBFDFF86813884271
S11372200AD0DFF8641388421FBFDFF86013884276
S1137230DFF85C1388421FD1CDF808B0BBF800100A
S1137240B1F5105F18D114A800F087F90CA800F06C
S113725084F914A800F014FB5FEA000B0ED1019A24
S113726002980CAB514600F04AFB00283ED10CA812
S1137270FFF78CFF28B139E0484637E06FF0920001
S113728034E00CB9386031E045453CBF29198845E4
S113729008D22B98A04242D322462946404600F009
S11372A075FB45460098DFF8D81204F00F0A8842AF
S11372B008D0DFF8D01288421CBFDFF8D41288420D
S11372C015D0D9E72B9AA24229D3BAF1000F26D1BF
S11372D0CDF804800095234600220CA914A800F0E0
S11372E065FB5FEA000B54D13C60002032E12B982F
S11372F0A04214D30099DFF8980281420DD10D2EDB
S11373000DD1012026998DF810000D220DF11100E8
S1137310FFF736FD00F029F909E0102E02D06FF0D6
S11373208600E3E72699102204A8FFF729FD260921
S1137330BAF1000F05D005EB0611102208A8FFF7DB
S11373401FFD200900010FD004A904A80191009099
S1137350CDF80C800295002332010CA914A800F08A
S113736077FB5FEA000B14D1BAF1000F21D008EBD0
S1137370061004A904AA039008A80290019100929F
S1137380002352460CA914A800F062FB5FEA000B2C
S1137390AAD0BBF1000FA8D02B99404600F044FEC0
S11373A000203860BBF1010F7FF468AF6FF08B00F1
S11373B09CE73C60EDE72DE9F24F9CB08346144610
S11373C09A461022002118A800F017FA00F0C8F815
S11373D01C98002871D0009420006ED0269D279C14
S11373E00DB9002C69D1289EDDF8A48016B9B8F136
S11373F0000F62D12A9F002F5FD0DFF87C116FF05D
S113740085098A451CBFDFF874118A4512D0DFF85C
S113741070118A451CBFDFF86C118A450AD0DFF869
S113742068118A451FBFDFF864118A45DFF86011CF
S11374308A453CD1CDF804B0BBF80010B1F5105F1B
S113744035D110A800F089F808A800F086F810A833
S113745000F016FA6FF0920B002878D1009A1C996C
S1137460019808AB00F04BFA002873D108A8FFF785
S11374708DFE00286ED10CB938606BE03046854231
S11374803CBF2919884206D2A04516D32246294674
S113749000F07CFA3546DFF8E8108A4508D0DFF8BA
S11374A0E4108A451CBFDFF8E8108A451ED04CE082
S11374B0A04533D314F00F0F02D06FF0860049E0DB
S11374C0019600952346012208A910A800F06EFA3F
S11374D005003C603DD04146304600F0A5FD00204B
S11374E03860012D33D16FF08B0033E0DFF8A0005A
S11374F0824510D10D3CA04510D301208DF8100019
S11375000D2229460DF11100FFF73AFC00F02DF889
S113751005F10D000CE0103CA04502D26FF089008B
S113752018E01022294604A8FFF72AFC05F11000F0
S1137530029018A804A90190009103960023224602
S113754008A910A800F084FAC2E7484602E05846A9
S113755000E000201DB0BDE8F08F2021FFF71CBC27
S11375601022002104A800F048B9002101228DF85E
S11375701E108DF81F207047004040040041400455
S1137580004440040010C0040011C0040012C004F0
S11375900013C0044FF400300349086070470348E7
S11375A00068704700000000705000509440005084
S11375B0302080F3118870477047704710B5044637
S11375C000F066F807490C6000F012F9002010BDC5
S11375D010B500F05DF803490C6800F009F9204685
S11375E010BD00001068002038B50C46154608B9D7
S11375F0FFF7EEFF00281CBF4368002B06D000688D
S11376002A46214601B0BDE830401847232032BD48
S1137610F8B50D4616461C466F4608B9FFF7D8FF65
S113762004B1274600281CBF8468002C05D00068DC
S11376303B4632462946A047F2BD2320F2BD02B59F
S113764001226946FFF7D0FF02BD00230122DFE7D4
S11376500CB470B50C46002504AE08B9FFF7B8FFAA
S11376600146334622460FF2150001F07AFB012849
S1137670B8BF3725284670BC5DF80CFB80B50B46B7
S11376808DF80000012269461846FFF7ADFF01BDE1
S1137690EFF3108072B67047F8B500F10F04E408F8
S11376A0E400A0422BD2082C04D2082402E00830C3
S11376B000F047F8DFF834211368190005D10020E1
S11376C007E00568A5420DD2011D08680028F8D11D
S11376D01868111D00E0191D0B6883420BD01D684A
S11376E0A542F8D359B10B6818680838A04208D2EB
S11376F0586808600FE001F085FB0028D7D100200E
S1137700F2BD181908601D1D586828511E680F68BD
S1137710361B3E601C60096800291DBF48680028AC
S1137720081D0020106003F10800F2BD10B504002C
S113773006D0AFF30080204600F003F8AFF30080DA
S113774010BD002800D1704770B4A0F1080213687E
S1137750072B2ED913F0070F2BD1DFF89040616867
S113776009B18A4203D25160626015E0014648685B
S113777008B19042FAD308680E18B24219D396425F
S113778003D11B180B600A4606E0486810B1134485
S113779098420ED350604A60506850B11368D518AF
S11377A0854206D1002626600168CB181360406824
S11377B0506070BC704738B5050007D04FF0FF30FB
S11377C0B0FBF5F0884201D2002032BD4D43AFF347
S11377D000802846FFF760FF0446AFF300801CB129
S11377E02946204601F024FB204632BD8870002043
S11377F000B962B67047FFF799BF10B5044610464A
S11378000A460146204601F01DFB204610BD704784
S11378100020704780B518B301F03CFB174801689D
S1137820C902FCD5006910F4702026D022D0B0F52E
S1137830803F1DD0B0F5003F18D0B0F5403F13D0C5
S1137840B0F5802F0ED0B0F5E02F09D0B0F5202F81
S113785004D0B0F5302F0FD1112002BD102002BD8D
S1137860212002BD4B2002BD2C2002BD2A2002BDD6
S1137870482002BD002002BD012002BD4400004C8E
S113788080B508B9212002BDFFE72021FFF784FA63
S1137890002002BDF8B50C4641881646C91DC9082A
S11378A018BFA1420AD10788456820213046FFF756
S11378B073FA2D0A05D10020F0602CB96FF0860010
S11378C0F2BD6FF08B00F2BD41F2010087421CBF94
S11378D0B7F5885FB7F5905F04D10020746030601D
S11378E00020F2BDB7F5105F06D12046102C1CBF56
S11378F0182C202CF2D0E1E76FF08500F2BDF8B52A
S113790088B0044660680F4615461E46000A35D105
S1137910324629462046FFF7BDFF88BBE91C89088B
S11379208900F06037617161002E18BF002C1ED0F1
S1137930EDB100F027F86A4629462046FFF7AAFF72
S1137940002802BF00983168884210D101987168FC
S1137950884202BF0298B168884208D10698B1698A
S1137960884201BF0798F1698842002008D020218D
S11379703046FFF711FA6FF0860001E06FF08B00DC
S113798009B0F0BD68462021FFF706BA62B1814212
S11379903ABF53189842FFF7F5B9801813F8011D40
S11379A0521E00F8011DF9D1704770472DE9F041CE
S11379B08CB004000F46984618BF002F08D0129DC3
S11379C0002D1CBF139E002E02D018F00F0F01D003
S11379D021202FE0002A0CBFDFF84805DFF8480516
S11379E0206000F005FB002824D100F0CDFA4146C8
S11379F000F0CBFA00F0EEFAE0B909A900F0CBFAF6
S1137A0000F0E4FAB0B906A900F0C5FA0AA100F042
S1137A10D2FA039500F0BCFA0AA191E82C0068465A
S1137A20694680E82C000096CDF8088000F0CBFA77
S1137A3000F0A7FA00F0BBBA00000000010000004B
S1137A400000000000000000010000000000000031
S1137A502DE9F04F97B006001CBF029100290FD00A
S1137A600492DDF88C802AB12298002818BFB8F15E
S1137A70000F05D0209D002D1CBF219F002F01D198
S1137A80212098E00393002B14BF1C6800244FF0BE
S1137A900009002001E000F0A7F80499894580F06E
S1137AA08780002CF7D1A1EB09015FEA111A63D09A
S1137AB0DFF82C05306000217160B160F16102983B
S1137AC0694601F05EFA002875D1009900F0A8FA21
S1137AD04FEA0A1100F0A4FA029800F096FA00287E
S1137AE069D114A900F098FA029800F08AFA0028E3
S1137AF061D111A900F090FA2FA191E80C400EA8D1
S1137B000DF12C0B80E80C40CDF838502DA090E8F6
S1137B100E00DDF888E04FEA0A108BE80E00CE4430
S1137B20CDF82CE040F0005BCDF834B00EA900F0A5
S1137B3073FA0BA900F070FA25A292E8094008A98B
S1137B4008EB090281E809400892CDF828B000BF8B
S1137B5022A292E8084805A9304681E8084805951C
S1137B6008A901F083F905A900F052FA3046FFF79D
S1137B7051FE09EB0A19F0B90499B1EB09018CD053
S1137B809CB9029901970095102300223046FFF713
S1137B900DFF80B900214A422A44D37B5B1CD37376
S1137BA0DBB213B9491C0F29F5D900F01DF8E3E73E
S1137BB0039901B10C60B1E1000000000100000074
S1137BC01000002000000000010000000000000080
S1137BD000000000010000000000000000000000A0
S1137BE00100000010000020229A395D641C12F884
S1137BF0093004F00F044B4008F8093009F1010979
S1137C00704700002DE9F04F95B0040039D0019180
S1137C10080036D0DDF890A0DDF88C90BAF1000FA2
S1137C2002D0B9F1000F2CD00393180029D0209E64
S1137C301F9D06B12DB30092219FDDF888801000AE
S1137C4004D0002F18BFB8F1000F1AD0DDF878B0B7
S1137C5000F090F902D200F087F912D2BAF1020FC3
S1137C600FD0BAF1110F0CD25FEACA7009D4ABF18C
S1137C70070107293FBF00984044DFF86813884292
S1137C8001D321206DE0DFF8600300F087F90028BC
S1137C9067D1029900F079F9CAEA0B4100F075F94D
S1137CA0314600F072F900F06FF9019812A901F061
S1137CB00FFA002855D112A900F06DF901980FA907
S1137CC001F013FA00284CD10FA900F064F900BFA9
S1137CD025A191E80C400CA809A980E80C400C9758
S1137CE0DDF8007023A246F0005647F000570E97C7
S1137CF092E8094022A24BF0005B81E80940099513
S1137D000B9692E86800DDF80CC006A981E86800CB
S1137D10CDF818C0CDF820B000F03DF909A900F065
S1137D203AF90CA900F037F918A191E82C0003A83E
S1137D30694680E82C00CDF80C80059716A292E8DD
S1137D4068004AF0005A204681E86800CDF80090A7
S1137D50CDF808A003A901F089F800F023F800F099
S1137D6010F915B0BDE8F08F00000000010000001C
S1137D7000000000000000000100000000000000FE
S1137D8000000000010000000000000000000000EE
S1137D9001000000000000000000000001000000DD
S1137DA0000000006946204601F060B82DE9F84F54
S1137DB096B0040039D0019108001CBFDDF89490FE
S1137DC0B9F1000F31D0039318002ED0229E219DCB
S1137DD006B155B30092239FDDF89080100004D0C3
S1137DE0002F18BFB8F1000F1FD0DDF880B000F0ED
S1137DF0C1F802D200F0B8F817D2DDF898A0BAF1B1
S1137E00020F18BFBAF1000F0FD0BAF1110F0CD244
S1137E105FEACA7009D4ABF1070107293FBF009894
S1137E204044DFF8C011884201D3212076E0DFF816
S1137E30BC0100F0B3F8002870D1029900F0A5F855
S1137E40CAEA0B4100F0A1F8314600F09EF800F0B8
S1137E509BF8019813A901F03BF900285ED113A9FE
S1137E6000F099F8019810A901F03FF9002855D1C4
S1137E7010A900F090F800BF2CA191E80C400DA8C7
S1137E800AA980E80C400D97DDF800702AA246F09C
S1137E90005647F000570F9792E8094029A24BF08B
S1137EA0005B81E809400A950C9692E86800DDF8C9
S1137EB00CC007A981E86800CDF81CC0CDF824B037
S1137EC000F069F80AA900F066F80DA900F063F85B
S1137ED01FA292E8680004A9204681E86800CDF852
S1137EE01080069700F0C2FF1CA191E82C0001A8A5
S1137EF04AF0005A80E82C00CDF80490CDF80CA08C
S1137F0001A900F048F800F03CF8040008BF002084
S1137F1004D00099404600F087F8204617B0BDE829
S1137F20F08F0000000100040001010400000000C3
S1137F30010000000000000000000000010000003B
S1137F40000000000000000001000000000000002C
S1137F50000000000100000000000000000000001C
S1137F60010000000000000011460122C000824010
S1137F70914270475FFA8BF0C0F10F00C1B204293F
S1137F8070472046FFF746BC0099204600F078BFB2
S1137F90CDF8148003A9204600F05EBF20600021C4
S1137FA06160A160E161019802A900F0EABF0CB030
S1137FB0BDE8F081000091E88C0003A848F0005867
S1137FC080E88C007047204600F050BF06A9384670
S1137FD001F08BB809A9384601F07AB80000000016
S1137FE003030004008001200000050400000604CF
S1137FF000206060A060E0616946384600F0C1BFBF
S1138000009811A901F071B8009814A901F060B8A2
S1138010304600F02BBF1BA9304600F01DBF0021E5
S1138020304600F02DBF7047002200F00BBFF0B4C3
S11380300246106895681318506803EB5004C00793
S113804048BF4D44A3422DD013F8016B16F0030032
S113805004BF13F8010BC01C31090F2907D113F811
S1138060011B0F3103E013F8017B05F8017B401E6F
S1138070F9D10029E6D013F8010BC6F38106032ECB
S113808008BF13F8016B00EB062040422844002689
S1138090B71E8F421EBF10F8017B05F8017B761CCA
S11380A0F6D1CFE7F0BC02F10C00704770470A46E6
S11380B0010002D0516812681047704730380A280E
S11380C08041C00F704710B5014600200A2405E026
S11380D0531C0B601278303A04FB00200A681378B2
S11380E0303B0A2BF4D310BD2DE9F84F15460B9CF9
S11380F00C9E0D9F81468A469846009517F0030F03
S113810010D1A346B3450DD200F01BF86D1C0BF142
S1138110010BF7E70A98641E4346005D2A46514660
S1138120C8476D1C002CF5D1B80707D5009C02E0A8
S113813000F007F86D1C281BB042F9D32846BDE8AF
S1138140F28F43462A465146202048472DE9F843FA
S113815084B0129F81469046DDF830C00D980E9E83
S1138160DDF840E0119ABC071CD462B1FC070AD5C3
S1138170002E08BF17F00C0F05D0521E03E0302468
S11381800CF80040401C704538BF2028F7D3FC078A
S113819008D5302502E00CF80050401C904238BF4E
S11381A02028F8D3FC0627D50F9C7D050AD448B1B6
S11381B0704518BF904205D1401E03D0102C08BF53
S11381C0401E01D0102C09D1451CBC061CD420280B
S11381D00CD278240CF80040284607E0022C05D184
S11381E0202803D262240CF80040401C202803D22B
S11381F030240CF80040401C202813D2451C3EB10A
S11382002D260CF800600CE02028EFD25824E1E77A
S11382107E0748BF2B2402D43E0703D520240CF844
S113822000402846029201900397CDF800C04246D0
S11382304846FFF759FF05B0BDE8F0832DE9F84142
S11382408FB0804616981B9E002708B926F01006AA
S1138250189D740500D5C8B1B0FBF5FCBE460EF1FF
S1138260010705FB1C00C4B20A2CB8BF303005DB83
S1138270B4064CBF4124612400190A3807AC04F841
S11382800E005FEA0C0001D0202FE5D31A98069661
S113829003950590199E9DF85C5007A800900496DC
S11382A0029501974046FFF751FF10B0BDE8F081F9
S11382B02DE9F34F8FB0DDE91A4500279146984622
S11382C0229E002D04BF002C26F01006DDE91EAB13
S11382D0700503D5002D08BF002C19D000F02EF82E
S11382E03846471CD1B20A29B8BF303205DBB10683
S11382F04CBF4121612152180A3A07A90A5400F0DF
S11383001DF804460D0008BF002C01D0202FE5D332
S113831010990F980696219C209DCDF80CA00594E9
S11383209DF87040049543460294019707AC4A4671
S11383300094FFF70BFF11B0BDE8F08F20462946EB
S113834052465B4600F0FABE2DE9F34F81B09346E6
S11383502DED068B9A46B0EE408AF0EE608A8CB022
S1138360002653EC182B51EC180B1F9C209D0096F3
S113837000F068FF06D00395029403248DA50194B0
S1138380009519E000F09DFA06D2042003950294AA
S113839001900FF660210EE053EC182B00F097FAD1
S11383A011D1680759BF032083A104200FF64C2183
S11383B003950294019000911499139853465A46D8
S11383C0FFF792FEEFE051EC180B0122DFF8B4390D
S11383D01E9F00F047FF05D90022DFF8AC3900F0FA
S11383E05BFF09D2149913980295019400975346A0
S11383F05A4600F0E9F8D6E00023914600F04CFF1D
S113840005D281F000414FF0010941EC180B04AE94
S1138410680502D406211E910AE0002130200A2FAB
S113842004D37054491C7F1E2029F8D31E97009151
S113843051EC180B00F04AFF1E9ADFF8501907465A
S113844001EBC20191ED009B00F05CFF00F0B6F877
S113845053EC192B00F068FF41EC1A0B01F03AF8C9
S1138460804601F049F802460B4651EC1A0B01F024
S11384700FF941EC1A0B08F10100019051EC1A0BB1
S11384800122DFF80C3900F0EDFE0DD8DDF8048090
S1138490404601F031F853EC192B00F0E3FE0FD8FD
S11384A04FF000087F1C0BE0002200F0F5FE07D31C
S11384B0B8F1000F02D05FEAC87001D5DDF804807E
S11384C01E9890B9384600F01DFF00F077F800229E
S11384D0DFF8BC3800F0E0FE03D2012200F0C2FE57
S11384E023D8F80721D57F1C1FE002460099404697
S11384F04FF00A0C20290AD20A23B0FBF3F3521ED0
S11385000CFB130030307054491C1800F2D12029A0
S113851019D21046421E4B1C00281EBF3020705436
S11385201946F4D12E227254009300990A2220296C
S113853009D20A2097FBF0F002FB1077303777540A
S1138540491C0700F3D105F0030001280FD154B1F1
S1138550B9F1000F08BF15F00C0F04D0641E02E03F
S113856030207054491CA14238BF2029F8D3202957
S11385700ED2481CB9F1000F18BF2D2206D16B078B
S113858048BF2B2202D42B0702D520227254014665
S113859004A80191009014991398039502945346EA
S11385A05A46FFF7A1FD0CB0BDEC068BBDE8FE8F6B
S11385B0000000006E616E00666E690002460B46A4
S11385C051EC180B01F064B82DE9FB4F82462DEDF8
S11385D0048B93462DED020B88B0DDE90823DDE919
S11385E008011A9E1C9F00F02DFE07D100F06FF9C0
S11385F004D0DDE9080100F064F907D21B98109B50
S11386000F990190029700F058F94BE100220023E2
S113861000F042FE3DBF4FF0010881F00041CDE97A
S113862008019046780558BF0626DDE90823DFF8DF
S113863064174FF0FF301940DFF85C5710405A00C0
S11386400D43520DCDE90405A2F2FF32104600F0AD
S113865059FEDFF84827DFF8483700F065FEDFF8F9
S11386604427DFF8443700F055FFDDE904230446CE
S11386700D460020DFF8341700F04CFFDFF83027F8
S1138680DFF8303700F050FE22462B4600F042FF60
S113869000F01CFE054600F035FEDFF81C27DFF86D
S11386A01C3700F041FE0022DFF8E43600F032FF10
S11386B000F00CFE0446284600F024FEDFF80027F4
S11386C0DFF8003700F030FECDE90001204600F06D
S11386D019FEDFF8F426DFF8F43600F025FEDDE9B4
S11386E0002300F017FF41EC180B53EC182B00F09B
S11386F01BFE41EC190B04F2FF3001050020CDE90B
S1138700040153EC182B4FF0804100F00DFECDE92D
S1138710020100204FF0804153EC182B00F0B8FF09
S1138720CDE9000151EC190B0022DFF8A43601F069
S113873021F80022DFF89C3600F0ECFE00F0B7F8D8
S11387400022DFF8943600F0E5FE00F0B0F8DDE931
S1138750002300F0DFFE02460B46DDE9020101F0D2
S113876009F80022DFF8303600F0D4FEDDE90423F6
S113877000F0DAFDCDE90401DDE90801DDE90423B7
S113878000F08AFD09D2DDE904010022DFF8443655
S113879000F0F0FF6D1ECDE9040105F16300C72868
S11387A034BF042405243A051CD5DDE90801DFF8AB
S11387B02C26DFF82C3600F055FD0FD80022DFF808
S11387C0243600F069FD09D2B542BABF761B761E85
S11387D0002647F480670024002503E016B17805DD
S11387E048BF761E1B98844234BFA0EB04094FF0A7
S11387F00009B80702D50CB14FF000093DB1DDE91D
S11388000801DDE9042300F0B5FFCDE90801CDF846
S113881018B0B8F1000F1DBFDDE9080181F0004177
S113882041EC100B9DED080B27F40060109B0F9991
S11388300290CDF8049000F040F806468CB306F19F
S11388400108B8064CBF45206520109B0F9932469D
S1138850D047002D46BF01206D42002005210A2388
S1138860059102930022109B0F99641E03920190BC
S11388700494009542465046FFF7E0FC0646B807CC
S11388800FD50F9C109D1B9FDDF8188005E02B462B
S1138890324621462020D047761CA6EB0800B84279
S11388A0F5D330460AB0BDEC048BBDE8FE8F02461A
S11388B00B4651EC190B00F05DBF00965A4650462A
S11388C042E54FF0FF326FF4801300F0E5BC002066
S11388D0DFF8141500F0B6BC2DE9FF4F89B0DDF8C0
S11388E058804FF0000B71B9DFF8001509910AE0C8
S11388F0462808BF174600F028FAFFF725FD8346EF
S11389000C98411C0C910C980078002800F005820A
S11389100BF10105252806D00B9B0A99099C5A46A0
S1138920AB46A047ECE70C98002701E047F010079E
S1138930411C0C910C9847F002040178202910D0B6
S11389402329F3D02B2909D02D2905D0302908BF9C
S113895047F00107ECD007E02746E9E747F00407B2
S1138960E6E747F00807E3E708460026FFF7A6FB1B
S113897020B10CA8FFF7A7FB06460BE00C98017882
S11389802A2907D158F8046B002E44BF27467642A3
S1138990411C0C910C98002401782E2918D1411CFB
S11389A00C91087847F48067FFF788FB20B10CA886
S11389B0FFF789FB04460BE00C9801782A2907D1BC
S11389C058F8040B0028C8BF04460C98411C0C91AD
S11389D00C9947F480700A78682A12D06A2A1CD04D
S11389E06C2A04D0742A18BF7A2A19D01BE00746CF
S11389F0491C0C91084601786C2914D147F400777E
S1138A0009E0491C0C910846017847F08007682961
S1138A1009D147F04007411C04E047F4007700E027
S1138A200746491C0C9108F1070020F0070C0C982C
S1138A3047F02002007825283FF46EAF452812D075
S1138A4046280DD047280ED0582818BF62281BD0BE
S1138A50632800F0C280642816D0652803D06628F5
S1138A603FF446AF672800F0A680692818BF6F2836
S1138A700AD0702800F03D81732800F0DD8075284D
S1138A8018BF78287FF448AF782808BF102113D086
S1138A90582802D1102117460EE06F2808BF08217C
S1138AA00AD0622808BF022106D00A2127F0100745
S1138AB0692818BF642801D027F00C077A0544BF41
S1138AC07F087F000025692818BF642841D1B805B4
S1138AD01FD5DCE900230CF10808002B11D54FF059
S1138AE0010C524263EB4303CDE90415CDE90023A5
S1138AF00B9B0A990998089707960694CDF808C025
S1138B0038E00120AC46AB42EBDBEDDC8242E8D33B
S1138B10EAE7FA0505D558F8040B002848BF0122F6
S1138B200DE0780603D558F8040BC0B204E038060B
S1138B3058F8040B48BF00B2002848BF012201D4F2
S1138B402A4600D540420597049603940291019267
S1138B5029E0B80512D5089707960694CDE90415BF
S1138B600295DCE900230A990998CDE900230B9BBF
S1138B700CF108085A46FFF79BFBC0E6F80548BF0E
S1138B8058F8040B0AD4780603D558F8040BC0B27D
S1138B9004E0380658F8040B48BF80B205970496E1
S1138BA003940291019500900B9B0A9909985A46E7
S1138BB0FFF744FBA3E647F40061672808BF0F46AC
S1138BC006D047280CBF0F46452801D147F020079F
S1138BD000F0BBF8FFF7F8FC91E64FF0010AB80784
S1138BE012D4099C0A9DDDF82C9006E04B465A46A7
S1138BF029462020A0470BF1010B00F0A1F8F5D382
S1138C0009940A95CDF82C9058F8040B0B9B0A99FB
S1138C10099C5A46C0B2A0470BF1010BB80767D5AF
S1138C20099C0A9FDDF82C9000F08AF85CD200F0D1
S1138C3082F80BF1010BF7E758F8040B002C0190B4
S1138C4014BF21464FF0FF31024600E0521C107859
S1138C5000281EBF0846411E0028F7D10198121AA9
S1138C600092790504D50098A04288BF2046009060
S1138C70B807DDF82490DDF828A00B9D17D40098E0
S1138C80411C0091B04212D22B465A465146202034
S1138C90C8470BF1010BF2E701982B465A46401CDA
S1138CA00190401E007851460BF1010BC847019911
S1138CB0087828B17805EFD52046441E0028EBD16A
S1138CC0CDF82490CDF828A00B95BA0710D5099CAF
S1138CD00A9FA946DDF800A003E000F02CF80BF190
S1138CE0010B00F02DF8F8D309940A97CDF82C90D5
S1138CF006E608210023102258F8040B049101937E
S1138D0000900B9B0A99099847F021070292059756
S1138D1003945A46FFF792FAF1E50B98834534BF62
S1138D205A46421E0A99099C03460020A047584609
S1138D300DB0BDE8F08F4B465A46394620202047F7
S1138D40504600F1010AB04270470B9B0A990998FA
S1138D500297019600940CF108089CED000B5A460A
S1138D607047E0B5009301900291134600F003F8B8
S1138D70FFF7B2FD0EBD4FF0FF3201A91C4870474A
S1138D800000000065CDCD4165CDCDC13841000066
S1138D900000E03FFFFF0F000000F03FFB799F5011
S1138DA01344D33FB3C8608B288AC63F0000F8BF82
S1138DB061436F63A787D23F71A379094F930A4038
S1138DC01655B5BBB16B0240EF39FAFE422EE6BF31
S1138DD000002C4000002440000018402D431CEBF0
S1138DE0E2361A3F80842E410000F07FAD800000FF
S1138DF0AF800000666E692D00000000666E692B6E
S1138E00000000000749086808B1002070470648C0
S1138E10C008C00008600549C908C900091A0160F2
S1138E20704700BF90700020F7710020F079002097
S1138E300144884204D0002200F8012B8842FAD170
S1138E40704700004018491C1CBFB1F1010100F833
S1138E50012DF9D170470000426812B94160704792
S1138E60526850680128FBD151607047826812B97A
S1138E7081607047526850680128FBD15160704787
S1138E80C269042A05D200EB8202D160C169491C7F
S1138E90C1617047C169042900D9704710B54FF00A
S1138EA098410A6CD302FAD5C269121D92000A6570
S1138EB002680A6042680A608368002203E000EBEB
S1138EC08204E368521C0B60C3699A42F7D310BD55
S1138ED038B505000C4618BF002C2DD00022009296
S1138EE0694600F02BF8D8B900992868C91C89088C
S1138EF0890000F07040009110B9009820600EE0E5
S1138F00AA68910B520B01F0010102F00102B0F1C9
S1138F10004F06D1009801EB42014143216000203B
S1138F2032BDB0F1204F1CBFB0F1304FB0F1404F13
S1138F3002D100985118F0E7212032BD002818BF53
S1138F40002919D0036813F0704208BFC3F30E035D
S1138F500DD0B2F1004F18BFB2F1204F05D0B2F1DD
S1138F60304F18BFB2F1404F06D103F07F030B60BE
S1138F700A6822B9406808B92120704708600020B7
S1138F8070477CB505000C4618BF002C5CD000204F
S1138F902060286800F070402060E96821B103294E
S1138FA016D140F080602060A8680021C20148BF4B
S1138FB04FF08071820148BF4FF0007100F04070A3
S1138FC0B0F1407F08BF4FF04071E86808B900294C
S1138FD079D1206801432160EA68032A07D128690E
S1138FE0F72870D3000400F47F0001432160A868CF
S1138FF0010403D5206840F400402060E868032899
S113900005D028682168C0F30E0001432160AA68D6
S11390102E68910B500B01F0010100F00100920A3F
S113902006F0704602F0010240EA0103B6F1004F77
S11390300BD319B1216841F48041216018B1206833
S113904040F40050206018003DD0286800F07040C3
S113905000F10040B0F1804F05D2100003D0206829
S113906040F480602060296801F07041B1F1004F44
S113907001D21A4327D10022009200F026F860B9E9
S1139080286810F0704009D120680099C00BC1F322
S11390900E0141EAC0302060002076BDB0F1004FDF
S11390A018BFB0F1204F05D0B0F1304F18BFB0F168
S11390B0404F08D100992068491E01F07F01C00982
S11390C041EAC010E7E7212076BD6946284635E726
S11390D0002818BF002901D12120704701204860D1
S11390E04FF000528A600020704738B504000D46E6
S11390F018BF002D1FD001206860E068B0B90022BD
S1139100009269462046FFF7E3FE70B9E06800214B
S113911000B900996069884201D21D2032BD2069DE
S113912041F000512860A960002032BD032802D11B
S11391300020A860F8E7212032BD0000D3BBD9B1DC
S1139140B2F5803F5BD2022A1ED98C46B1FBF2F104
S113915002FB11C31B0443EA1043B3FBF2FC02FB02
S11391601C3380B240EA0343B3FBF2F002FB10323B
S113917040EA0C4000237047022A05D98446B0FB1C
S1139180F2F002FB10C270474AB105D100F00102AF
S113919049085FEA3000704700220023704700F05E
S11391A00DBC0B000200002100207047F7D3002201
S11391B000237047904271EB030CF2D370B5B1FAFF
S11391C081F4B3FA83F52C1BA340C4F1200532FAD1
S11391D005F63343A2405FF00046E64002E05B0838
S11391E05FEA3202841A71EB030524BF2046294644
S11391F07641F4D302000B003000002170BD70B53D
S1139200B1FA81F4B2FA82F5C4F120046419B4F11C
S11392102006DAD3B2405FF00044F440002502E0B7
S113922052085FEA3303C61A71EB020E24BF3046BC
S1139230714664416D41F3D302000B002000290004
S113924070BD0000904205D1994204D041EA030C5C
S113925050EA4C0C70474FF4001C1CEB410F38BF14
S11392608942704741EA030C50EA4C0C52EA0C0C58
S11392704FF4001C09D307D01CEB410F9CBF1CEB1F
S1139280430F994208BF904270471CEB410FFBD833
S11392908B4208BF8242704741EA030C50EA4C0CEF
S11392A052EA0C0C4FF4001C09D307D01CEB410FFD
S11392B09CBF1CEB430F8B4208BF824270471CEBE0
S11392C0430FFBD8994208BF90427047C1F30A5339
S11392D040F21E42D31A0CDDCA0283F3070342EAAA
S11392E0505242F00042DA4002EBE17282EAE1704D
S11392F070476FEAE17203F2E13008B182F0004096
S11393007047000010F0004160B148BF4042B0FA1D
S113931080F29040D21CC2F5846241EA025202EB10
S1139320D02140057047000030B540F2FF7C1CEAB4
S113933011541DBF1CEA1355644565453FE064198B
S113934081EA030C6FF35F530CF0004C43F4801379
S1139350C90241F0004141EA505EC5021100A5FB7B
S1139360020200284FF00000EEFB01204FF0000144
S1139370E3FB052118BF42F00102401800214941D6
S1139380E3FB0E01A4F580640D0302D29218404160
S1139390494154F1010470DD450872F1004250F175
S11393A0000051EB0451A1F5801102D441EA0C01F3
S11393B030BD40F2FF7E4CEA0E51002030BD0CEA75
S11393C01355644518BF654581EA030C0CF0004C45
S11393D041D050EA410E1CBF52EA430E02E06146FE
S11393E0002030BD24422C441BD15FEA050EF6D088
S11393F0090302BF01460020AEF1140EB1FA81F553
S1139400AEEB050401FA05FE0C35C5F1200100FAA6
S113941005F5C8404EEA000E6FF35F5343F4801322
S11394209CE733F00043B3FA83F504BFB2FA82FE3B
S113943075440B3D641BB5F1200E2FBF02FA0EF3E9
S1139440AB40C5F1200E22FA0EFE38BF43EA0E03EC
S1139450AA40641C7CE750EA410E14BF52EA430E52
S11394606FF000014FF4001515EB430F8EBF194642
S113947015EB410F9DE7B4D830BDD4F10104B4F12C
S113948020050FDAC4F12005520828BF42F001027A
S113949010FA05FE01FA05F57244E2BFE0402843E4
S11394A0E1400FE0352C9ADCC5F1200452EA400279
S11394B020FA05F218BF42F0010231FA05F0A1408A
S11394C00A43002172F1004250F1000051EB0C01FB
S11394D030BD0000400D40F21E4C40EAC120BCEB00
S11394E0115C40F0004003D48CF30701C84070477E
S11394F06FEAE1707047000050B1B0FA80F1884023
S1139500C91CC1F58461090501EBD02140057047F0
S11395100146704770B491EA030F4FF0004540F1E3
S1139520BF806B40841A71EB030604D26E40001BAB
S1139530B141121973414FF4001C1CEB410F34BFAD
S11395407CEB430683E00C0DA4EB1356362E00F39C
S11395507C80012E45EAC32341DC43EA525312BF07
S1139560D20292025B08240545EAC12141EA505126
S1139570D2EBC020994125D407D1B0FA80F610FA75
S113958006F162D00020203608E0B1FA81F6B1403D
S1139590C6F1200220FA02F21143B0404FEAF474FB
S11395A0B4EB465434F001064FEA74040AD8D6F5F5
S11395B00016760D04F00044F04061FA06F25040C3
S11395C0F1404840C00A40EA415021F0004128BF20
S11395D05FEA500550F1000044EBD12135E0DB0A8D
S11395E045EAC121C90AB6F120050EDD42EA02426C
S11395F0120CC5F1200603FA06F6EB4042EA060512
S11396006D42984161F100010DE062FA06F5F24005
S1139610554063FA06FC82EA0C02F3405A406D425C
S1139620904161EB030111F4801F05D1641E6205B2
S113963002D06D004041494121F48011430875F185
S1139640004350F1000041EB045170BC70471CEB27
S1139650410F15D223F0004352EA43060BD04FEAE0
S11396604C0CBCEB410F04D80C0D661E342EB7DD38
S1139670EBE7801A994150EA410608BF0021E4E76C
S113968008BF1CEB430F28BF6FF00001DDE70000AB
S113969070B491EA030F4FF000457FF543AF6B4080
S11396A0841A71EB030603D2001BB14112197341F2
S11396B04FF4001C1CEB410F34BF7CEB430442E02D
S11396C00C0DA4EB1356352E4FDC45EAC323DB0AFD
S11396D045EAC121C912B6F120050DDD63FA05F68C
S11396E0EB4086EA0305124218BF45F00105C01895
S11396F051F100010CD213E062FA06F5F240554034
S1139700F3415A40B340F3405A408018594107D3BB
S113971049085FEA30005FEA350528BF45F00105D6
S113972001F58011420875F1004250F1000041EB4F
S113973004514E0016F5001F70BC38BF704700205E
S1139740090D090570471CEB410F10D252EA43067C
S11397500BD0BCEB410F05D80C0DAB43661E342E69
S1139760B6DD02E0AB438018594170BC704770BC51
S113977070470000F0B540F2FF7581EA030C0CF06D
S1139780004C15EA11541DBF15EA1357AC42AF4201
S1139790E5E0BC41C1F31301C3F31303801A9941FB
S11397A043F4801304D2641E0018494180185941BF
S11397B0C90241EA5051B1FBF3F603FB1611A2FBB7
S11397C00675D7EBC020A94102D2761E80185941F4
S11397D0C90241EA5051B1FBF3FE03FB1E11A2FB87
S11397E00E75D7EBC020A94103D2AEF1010E80184B
S11397F05941890241EA9051760546EA8E2EB1FB21
S1139800F3F603FB1611A2FB0675D7EB8020A941E2
S113981002D2761E80185941C90241EA50514EEADB
S1139820060EB1FBF3F603FB1611A2FB0675D7EB8C
S1139830C020A94102D2761E80185941C90241EACA
S11398405051B1FBF3F703FB1711A2FB0735D3EB20
S1139850C020A94167F100070CBF004247F001078F
S113986066F3D5274FEA1E31B80814F5806412DD7B
S1139870BD0775F1004250EB0E5051EB045111F548
S1139880801F5CBF41EA0C01F0BD4CF07F6141F0E8
S1139890E0410020F0BDBD076D0840EA0E5041F4E0
S11398A08011D4F10104B4F120060ADAC4F12006CF
S11398B00200E04001FA06F3E1401843B2401543C8
S11398C00EE0342C13DCC6F1200445EA40056D0893
S11398D020FA06F2154321FA06F0A1400D430021B7
S11398E075F1004250F1000051EB0C01F0BD002075
S11398F05FEA0C01F0BDCFB992185B41B3FA83F76C
S113990004BFB2FA82F6BF190B3FB7F120062FBF8E
S113991002FA06F3BB40C7F1200622FA06F638BF66
S11399203343BA401CB1E419641E33E77F4231F07B
S11399300041B1FA81F404BFB0FA80F6A4190B3CDB
S1139940B4F120062FBF00FA06F1A140C4F12006AD
S113995020FA06F638BF3143A0403C1B1AE7AC425C
S11399601ABF05EA1357AF4212E050EA41061CBF82
S113997052EA4306BFE750EA4107304661461CBF3E
S113998041EA0551F0BD52EA430C08BFC143F0BDA2
S113999000204FF4001616EB410F98BF16EB430F4F
S11399A008BF16EB410F24BFC14305E016EB430F7C
S11399B00CBF61464CEA0551F0BD00007047000041
S11399C0F8B50E4615469B4C010008D0E070002007
S11399D028704FF6FF73A0702070A38007E02078F2
S11399E018B1002121706078F2BDA17899B9A188DD
S11399F0304600F02BF9A080E078471EF9B211B987
S1139A000120A07002E02978491C2970304600F03A
S1139A1015F8E770F2BDA088012903D10221A170D5
S1139A20000A04E0022905D10321A170C0B2BDE8F7
S1139A30F24003E0FF2028707E20F2BD112818BFF9
S1139A40132807D0182818BF1A2803D07D2818BF58
S1139A507E2806D180F020007649012248700A70E1
S1139A607D2070472DE9F34F904681B00146724C3A
S1139A70227894F8039094F804A06378A578E08899
S1139A8020272AB9002399469A4600254FF6FF70ED
S1139A901E461A4618292BD01A2927D07D2923D0EF
S1139AA07E2927D1190008BF00253FD0FF2B0CD1F8
S1139AB0772700212170E080A570667084F804A0E7
S1139AC084F803903846BDE8FE8F09EB0A239842D8
S1139AD018BF7627EDD1032AB8BF7927E9DBE02A3E
S1139AE0B4BF00277A27E4E720251FE07427E0E7C6
S1139AF0FF261BE0694000258DF80010E02AB8BF5E
S1139B005E1C5FFA86FBBBF1030F0CDB014650467B
S1139B1000F09CF8BBF1E00F05DA029981F800A08F
S1139B20B11E88F80010CA469DF800900121C1E7D3
S1139B30030008BF422013465A1EDBB253B10B7810
S1139B40434001F8013B4308C00754BF184683F063
S1139B50B800F0E7C0B2704780B500F089F80100A2
S1139B6008BF4FF6FF703549088001BD10B5334C6E
S1139B70208858B100F07CF8B4F900106288401ACB
S1139B8000B2904201DB012010BD002010BDF8B5E9
S1139B902B494C884FF6FF72944208BF4FF4486437
S1139BA0264D6E880F883346974208BF4FF4C87716
S1139BB008B173000BE0288848B100F059F82988EF
S1139BC0C6EBC606401A80B206EB8006F30899B2CB
S1139BD08C4204D33C469BB29C4238BF1C460020B6
S1139BE028806C80F1BD80B500F042F815490988E1
S1139BF04FF6FF73994208BF4FF47A7108180011A9
S1139C00C1B201B9FF201049087001BD10B50E4C56
S1139C10207848B100F02CF821780009401A40B2AD
S1139C20002803D400202070012010BD481E80416C
S1139C30C00F10BD362500209870002094700020BD
S1139C404400E00F5400E00F027100200A0A42EAC7
S1139C5001225040C0F30311484080EA0030410122
S1139C60C9B20206D20E41EA0221484080B27047CE
S1139C7080B500F004F880B202BD000000BFE0B57A
S1139C8000F01FFA6A4600F073FA10B1532100F095
S1139C90D5F8DDE9000103B000BD80B5FFF7EFFFA3
S1139CA0FA21B0FBF1F080B202BD0120704704201C
S1139CB0704780B500F012F910B17A2100F0BEF8B7
S1139CC0002002BD80B5FDF78FF8DFF8F0010168D0
S1139CD041F470210160EFF30880001FDFF8E01108
S1139CE04FF0CD3201E040F804298842FBD2022033
