:100000005013002069390000630D0000292300000F
:100010008F190000231A0000AB1D00000000000033
:100020000000000000000000D803000007200000CE
:100030001B20000018040000A3200000DB200000AB
:100040000D0A4765636B6F20426F6F746C6F61645C
:1000500065722076582E59592E5A5A0D0A312E2083
:1000600075706C6F61642067626C0D0A322E2072AD
:10007000756E0D0A332E2065626C20696E666F0DF9
:100080000A424C203E20000000000000000000005A
:100090000000000000000000000000000000000060
:1000A0000000000000000000000000000000000050
:1000B0000000000000000000000000000000000040
:1000C0000000000000000000000000000000000030
:1000D0000000000000000000000000000000000020
:1000E0000000000000000000000000000000000010
:1000F0000000000000000000000000000000000000
:1001000000000000000000000000000000000000EF
:1001100000000000000000000000000000000000DF
:1001200000000000000000000000000000000000CF
:1001300000000000000000000000000000000000BF
:1001400000000000000000000000000000000000AF
:10015000000000000000000000000000000000009F
:10016000000000000000000000000000000000008F
:10017000000000000000000000000000000000007F
:10018000000000000000000000000000000000006F
:10019000000000000000000000000000000000005F
:1001A000000000000000000000000000000000004F
:1001B000000000000000000000000000000000003F
:1001C000000000000000000000000000000000002F
:1001D000000000000000000000000000000000001F
:1001E000000000000000000000000000000000000F
:1001F00000000000000000000000000000000000FF
:1002000000000000000000000000000000000000EE
:1002100000000000000000000000000000000000DE
:1002200000000000000000000000000000000000CE
:1002300000000000000000000000000000000000BE
:1002400000000000000000000000000000000000AE
:1002500000000000F00F10032400064010010020F1
:10026000130000000900000000010000020200006D
:1002700013000000F00F10032400064010020020BD
:10028000130000000900000000020000010100004E
:10029000D3FFFFFF0000000000000000000000404E
:1002A000000100000002000000040000000800003F
:1002B000001000000020000000400000008000004E
:1002C00000000100FFFFFFFF000000010000000030
:1002D0000000000000000000FFFFFFFFFFFFFFFF26
:1002E000FFFFFFFFFFFFFFFF00000000FFFFFFFF1A
:1002F000FFFFFFFFBCE6FAADA7179E84F3B9CAC2A1
:10030000FC6325516B17D1F2E12C4247F8BCE6E5BE
:1003100063A440F277037D812DEB33A0F4A139452E
:10032000D898C2964FE342E2FE1A7F9B8EE7EB4AD3
:100330007C0F9E162BCE33576B315ECECBB640680A
:1003400037BF51F5FFFFFFFF000000010000000074
:100350000000000000000000FFFFFFFFFFFFFFFFA5
:10036000FFFFFFFC5AC635D8AA3A93E7B3EBBD5559
:10037000769886BC651D06B0CC53B0F63BCE3C3EAD
:1003800027D2604BC4020000C00000000000000043
:1003900000001000200000008000000000000000AD
:1003A000000000000000000000000000000000004D
:1003B000000000000000000000000000000000003D
:1003C000000000000000000000000000000000002D
:1003D000000000000000000007B0CD5E010000003A
:1003E00000000C01F039000000600000000008006F
:1003F000F0001000D52B0000D92B0000131C0000CA
:10040000E537000017380000000000004D380000FC
:10041000AB3800000000000013B779FAC925DDB73A
:10042000ADF3CFE0F1B614B8010100000000000008
:10043000EC3900004000000000000C01000000004A
:1004400000000000000000000000000000000000AC
:10045000000000000000000038B5044600F0DCFA9F
:100460000546182C05D1182000F0D6FA182000F007
:10047000D3FA284632BD80B54FF47A71684600F051
:100480004BFB08B1012002BD9DF80000312802D0CD
:10049000322802D003E0022002BD052002BD002068
:1004A00002BD0A28ACBF37303030C0B2704700F010
:1004B00009BA10B592B028200168684648228C68B5
:1004C000DFF8581300F076FB200E00F00F00FFF766
:1004D000E8FF8DF81400C4F303400A21B0FBF1F0EB
:1004E0000A2230308DF81600C4F30340B0FBF2F25C
:1004F00004F00F0401FB12000A22B4FBF2F23030C8
:100500008DF8170001FB124402F130038DF8193009
:1005100030348DF81A4001224721684600F04CFA29
:10052000002012B010BD00002DE9F84FADF5187D88
:100530000025BB4C8DF8045051A821464FF48E7213
:1005400000F038FB03A804F58E71482200F032FB5E
:1005500037A804F5B271682200F02CFB00F036FBDE
:100560000FF2503A40F6B83B0FF2C02840F6071998
:10057000AC4E95E00121002000F0D6FA00F084FB9B
:100580004320FFF769FF00214FF47A7000F03BFB36
:1005900000F067FA18B900F04EFB0028F8D000F020
:1005A00060FA10B9641EEBD101E004270BE01820BB
:1005B000FFF752FF72E000F03EFB68B115208DF8A6
:1005C0000400FFF749FF85210DF1550000F0C6FB3F
:1005D0000021584600F017FB00F043FA0028EAD04B
:1005E0004FF47A700090012302AA01210DF1550009
:1005F00000F054FA9DF8550001280DD1CDF800B057
:10060000012302AA84210DF1560000F047FA029955
:10061000842908BF0028D1D101A90DF1550000F0AF
:1006200038FB05464D4540D1B078062700281CBF51
:10063000F078002849D09DF80400182800D106273A
:100640009DF80400FFF708FF062FFDD8DFE807F04C
:100650002628070605BB4100F6E7B4E790E701222C
:100660001121404600F0A8F9202337AA03A951A878
:1006700000F0B0FC2C21304601F086F9FF207070AC
:100680000121052000F0BFFA00F0EBF900283FF44B
:1006900075AF6FE740F2032001F08FF9FFF709FF14
:1006A000FFF7E9FE07463C24CEE7002D04BF9DF886
:1006B00055000128BFD1CDF800A0802316AA3146ED
:1006C00051A800F0CBFC0500B5D018208DF804002F
:1006D000B5E70121002000F027FA01210A2000F0EF
:1006E00092FA9DF80400062808BF4D4506D1012264
:1006F0005FF01B0152A000F05FF9CFE701221A2141
:1007000056A000F059F9A5F51060B0F5E06F03D2DE
:100710000122182158A002E0012210215CA000F063
:100720004BF940F60111681A20D0401E20D0401E1F
:1007300018D0401E18D0401E1CD0401E1CD040F2C5
:10074000FB61401A22D0C01E24D0401E18D0401E8B
:100750001AD0401E1AD0401E14D0401E0ED0401E8B
:1007600014D01AE0212112E0222214E023210EE00D
:10077000242210E025210AE027220CE0412106E096
:10078000432208E0442102E0452204E04F218DF895
:10079000041002E050228DF804209DF804000009A6
:1007A000FFF77FFE00F038F99DF8040000F00F001D
:1007B000FFF777FE00F030F90D2000F02DF90A2048
:1007C00000F02AF96AE7B07800281CBFF07800280A
:1007D0003FF460AF3078410709D5B06A01F07EFA86
:1007E000002803D001F0DBFA01F088FA56E7800711
:1007F0000BD528210A6871689068884209D201F0F7
:10080000CEFA716A01F044FA03E040F2012001F0EF
:10081000D4F801225FF0130121A06CE74000000032
:100820008800000010030020704700000D0A626578
:1008300067696E2075706C6F61640D0A00000000BE
:100840000D0A53657269616C2075706C6F6164206C
:10085000636F6D706C6574650D0A00000D0A536559
:100860007269616C2075706C6F61642061626F7277
:100870007465640D0A0000000D0A584D6F64656DC3
:1008800020626C6F636B206572726F72203078002B
:100890000D0A66696C65206572726F72203078008F
:1008A0000D0A4661696C656420746F20626F6F7415
:1008B0000D0A000000000000711B00000000000095
:1008C000991B0000F8B5A54C4FF0806020604FF4F4
:1008D000007121600122A24B1A60A24D40F6AA606D
:1008E000E86000212960696541F205006860A9603F
:1008F000696169649C4A9D4B1A609D4E3160B1618B
:100900003161B160F160686028684FF4A027286009
:1009100001F04CFA9749096801230422C1F38021B0
:10092000491CB0FBF1F04FF4E111400100F56120EA
:10093000B0FBF1F19048203900EAC100686105215F
:10094000002001F089FA012301220621002001F094
:1009500083FA14203060B7614FF4C0213161012364
:1009600004220421002001F077FA0520E860032129
:1009700021608248012202604FF0F0534360002161
:10098000016200224263C16302657D490F607D4BB5
:10099000C2659B0882659B00C3667B4A4A607B49AF
:1009A00000234B600B600321794B196001244464E0
:1009B000022078490860F1BD70B50E460546144620
:1009C000802E02D341F2031070BD00F035F810B94B
:1009D00041F2062070BD00206F4902E02A5C0A54F3
:1009E000401CB042FAD3D1F88000761E022266F392
:1009F0000E10C1F88000803189086848890081653F
:100A000002603CB100F018F80028FBD0644801688F
:100A10008A06FBD5002070BD10B5044600F00CF826
:100A20000028FBD05E4801684A06FBD54462016895
:100A30008A06FCD5002010BD5A49CA68544893075D
:100A400004D502220A6002600120704749688A07C3
:100A500001F002015CBF02230360481E8041C00F09
:100A600070475148006840F20111884208BF0020D9
:100A700007D040F2022188420EBF4FF480704B49EC
:100A8000401A4B4A1168814201D10020704701D2BF
:100A9000401A7047C1F50071401870472DE9F041C8
:100AA00007468846154600268BB1069C2CB100F0FF
:100AB0008DF80021204600F0A6F8FFF7D2FF404550
:100AC00005D2002CF9D000F0B6F80028F5D0FFF7D9
:100AD000C8FF804515D8404613E0002102240EE0EF
:100AE000334B1968314A545C491C2A4ABC55761C60
:100AF000B1F5007FF1D0B1F5807F01D10124146000
:100B000019608642ECD305B12E60464534BF41F2F0
:100B100004200020BDE8F08180B50091012300226F
:100B20000121FFF7BBFF02BD10B51E4A08B102202C
:100B3000106079B10120134C1060154BA4081860A7
:100B4000A400946400201A49086001231362022063
:100B500010490860002010BD0000000064900040B3
:100B60000410064008000640FFFF01004820064030
:100B70003CC6034070800040F8FF7F000400044042
:100B80000040044054020000020005008C000440B4
:100B9000342004401010044080000020480004402D
:100BA00018000640280004406C000440100100209A
:100BB000440300204AB1000011F8013B521E00F826
:100BC000013B1CBF11F8013BF8E77047F8B5102056
:100BD0002349086001F0EAF84FF47A72B0FBF2F0B2
:100BE00020491022800A48604FEA0D0022A1FFF739
:100BF000E1FF40F2FF30ADF8020069461A4801F00B
:100C00007BF905B000BD70B5184BDD68154C626806
:100C100002FB0050ADB286B2AE429241D20F2270BA
:100C200019B1D96882B29142FBD10125104E3560CD
:100C30001D60608070BD0F490A680A4B187802F089
:100C4000010210B122B9002070470AB1012070479B
:100C50000869598888428041C043C00F704700002E
:100C6000649000403C030020008004401880044051
:100C700014A00440148004400100000000000000A3
:100C800000000000000000003348002101704170A6
:100C9000704770B5044620780D46012808D0032817
:100CA0004FD0042848D0182818BF432849D04DE019
:100CB000294E7078002860780DD1012806D10121D5
:100CC00071706178A0784118FF2915D0152129701D
:100CD00040F6041070BD3178884204D10620287097
:100CE00040F6061070BD491CC9B28842E9D01520F3
:100CF000287040F6051070BD00228021E01C01F034
:100D000074F904F183010B78020A9A4204D0152089
:100D1000287040F6021070BD497800F0FF0088424C
:100D200004D01520287040F6011070BD60780621AF
:100D300030702970002070BD0620287040F6071022
:100D400070BD1821297040F6081070BD1820287059
:100D500040F6031070BD000048030020002201F09F
:100D600053B9FEE770B54B688C689C4206D200F11F
:100D700040021B1B14781B19412B01D3002070BDAE
:100D80000D6853781478E4188B6804F03F04EE5C27
:100D900006558C68641C8C6013785B1C13708C681F
:100DA0004B689C42ECD3012070BD90F840004A682B
:100DB00089681018401A7047F8B584B014460026A8
:100DC000054601960096082302AA00F047F841F272
:100DD0000306B0423BD195F8430005F1480738B10E
:100DE00000F037F83868082302AA02A901F04AF98E
:100DF0009DF80A209DF80B009DF80910120442EAA4
:100E000000629DF8080042EA0122024322609DF838
:100E10000E009DF80F1000F0ADFD9DF80D1040EA9A
:100E200001209DF80C100843606095F8430048B914
:100E3000DFF8CC1A8A421CBFDFF8C80A824201D010
:100E400000F007F860680021F960B860304605B02E
:100E5000F0BD7868082202A901F03AB92DE9F04105
:100E60000C4617461D468046FFF79FFF08F14006D7
:100E7000A84207D221464046FFF774FF00284CD015
:100E8000002048E000210CE0707818F800207A5427
:100E900073783078491C5B1C03F03F03421E73706B
:100EA0003270307808B1A942EED3A06862689042EF
:100EB00038BFA94207D22368185C7854A268491C3D
:100EC000521CA260F1E7A94227D1B26C069C2946C8
:100ED000384601F003F9B06424B1F0682A46394677
:100EE00001F0F6F8079838B1F07878B1B0682B4681
:100EF0003A46394601F0C6F8F07838B1B169F06980
:100F000028188842F06124BF0020F07070692D1805
:100F1000756141F20300BDE8F0811520B07141F226
:100F20000200F8E72DE9F8431E467368002B4ED007
:100F30000C4614F0030118BF41F2020048D11546D7
:100F4000074600F025FF396E001D6A18824221D342
:100F500000F1180399421DD28C46844505EB010827
:100F600000F1180238BF84469045ACEB0101ACEBB0
:100F7000000088BF904604EB0109A8EB0C08384438
:100F8000424649466830FFF715FEFF224146484673
:100F900001F03AF800F003FF396E001D884222BFCD
:100FA0006A18031D9A4209D3411A6018026807F1B2
:100FB00080010A60FF22042101F026F821463368EF
:100FC000386E74682A46A047386E2D183D6600209A
:100FD000BDE8F283F8B5064606F1400700200D464D
:100FE000B8717870F870387100214FF0FF301446F6
:100FF0003970797103F02003B86439627962BB708B
:10100000FF22182106F1680000F0FEFFFF220421F4
:1010100006F1800000F0F8FFFF22042106F18400B1
:1010200000F0F2FFBD60FC60882106F19000FFF740
:1010300095FE002086F8180100F0A2FE00B11DB157
:1010400000F09CFE18B114B941F20B00F2BD14B1CE
:10105000F86801F027F80020F2BD00002DE9F84FF4
:1010600005468846002100230024B4B005A880E886
:101070001A000592349A0891DDF8F8A00692486BA0
:1010800041F20307099000F087FE00690999403892
:10109000884280F0188246E395F81801002840F055
:1010A0001D82099A1AAB05A9284600F07BFE009024
:1010B000009841F20601A046884200F0D4830098CF
:1010C000B8426AD0DFE300F042FC00900098A046EE
:1010D000B842F7D104980021C9F80C10C9F80800EB
:1010E0000398DFF8241888425ED102228EE000F0D7
:1010F0002EFC00900098A046B842E3D1B07820B111
:101100000398DFF8001888424EE03278D10756D5B0
:101110007078002853D10398DFF8EC1788421CBF81
:10112000DFF8E81788422AD0DFF8E417884200F099
:101130008680DFF8E01788421FBFDFF8DC1788429F
:10114000DFF8D81788421AD0DFF8D417884225D0A4
:10115000DFF8AC17884277D0DFF8C817884213D081
:10116000DFF8C41788420DD0DFF89817884218D0EE
:10117000DFF8B81788421CBFDFF8B417884200F0C8
:101180007A8114E0102241E011203071D9F8081062
:101190000020C9F81400C9F8101094E1152131712C
:1011A00079E000F0EBFD002840F0658142E0152079
:1011B000307103A800F0ACFF00286CD0B3E20398B4
:1011C000DFF84817884220D0DFF84417884233D030
:1011D000DFF8401788421DD0DFF83C17884217D04F
:1011E000DFF83817884217D0DFF81417884228D064
:1011F000DFF81017884216D0DFF8301788420FD07A
:10120000DFF82C17884209D021E00B2232715AE115
:10121000042006E0062118E0072002E0092114E07E
:101220000D2030714FE100F0A9FD002804BF707857
:101230000028B9D10E2108E070780028B4D112211D
:1012400003E070780028AFD1132131713BE103A88E
:1012500000F05EFFC0B103981421C9F84400317159
:10126000039800F057FF089030788106EED5089873
:1012700000281CBF41680029E8D028468847009014
:1012800000980028E2D04EE270781521317110B13B
:1012900041F2040031E341F208002EE3D9F80C00DA
:1012A00008284DD2002101200191009000F066FB3A
:1012B00000F056FB4DD198F803000006B0F1407FD6
:1012C00004D01520307141F2090016E398F80500AA
:1012D00098F8041041EA00210291C90704D530783A
:1012E00040F00100307002E000F04AFD30B900F03B
:1012F00045FD0028D2D00298C105CFD41520307109
:1013000041F20A00F9E21C220AA904F10800FFF7E1
:1013100051FC207840F00100207004F1080000F03A
:10132000FBFE002805D0002104F1080000F02EFD8E
:10133000002800F0BC81D9F80830D9F80C00984298
:1013400080F08E8200F0FFFA00F00FFB00F008FB47
:10135000D9D098E2207840F00400207098F80E0070
:1013600098F80F1098F80C2000F004FB98F80D1076
:1013700040EA01201043A0626078410732D5EB209B
:101380008DF82800A620172188F8020088F801109F
:1013900005F150005E2188F80310026805F1840110
:1013A0000A600022C9F81C20F07840F00200F070BA
:1013B000DAF80CC0BCF1000F14D0DAF800300422C7
:1013C0000AA90020E047D9F81C00DAF80030DAF862
:1013D0000CC008220CA90830E047D9F81C001030D6
:1013E000C9F81C000C203071D9F80C00082869D20B
:1013F00000F0A9FA08230CAA00F0B8FA00F0B0FA3D
:10140000A8D040E2207840F00200207098F8020056
:1014100098F803109DF8282000F0ACFA98F8011015
:1014200040EA012010436060D9F808000838606283
:1014300098F8060098F8071098F8042000F09AFA37
:1014400098F8051040EA0120104314D1F1780520E6
:10145000307141F00101F1700020C9F81C00D9F889
:101460000C0008282ED200F06EFA00F087FA00F087
:1014700077FAC7D007E21520307154E198F80210CE
:1014800098F803009DF82820090441EA006198F8C3
:10149000010041EA002111430291D9F80800052812
:1014A00024BF0298C9F81800D9F80C00042807D204
:1014B00000F049FA00F058FA00F052FADED0E2E10A
:1014C0000A203071A0460798349988424ED244468B
:1014D00005F142060DF1280805F148093079152873
:1014E000F0D8DFE810F01F001E001D001C001B00DC
:1014F0002D001A0020002D0019002D0018002D00CD
:10150000190036010602AC01BB011700C301BD0082
:101510000602D7E7C0E567E7C6E70CE79FE7AAE75B
:10152000BCE6E4E5CFE50021C9F81C100820C8E7B7
:1015300000F002FAE047D9F81C004044C9F81C004A
:10154000D9F80800D9F80C10814280F08981A0EB0D
:101550000108B8F1040F05A9284608D3FFF725FCB8
:10156000042808D205A92846FFF7FCFBC4E1FFF7D1
:101570001CFC4045F6D3B8F1410F05A9284628BF09
:101580004FF04008FFF711FC404502D200F0E4F9AB
:101590008046B8F1040F0AAA05A924BF4FEA9800B3
:1015A0004FEA800801200190009043462846FFF74B
:1015B00055FC00F0D5F940F066813079082804D157
:1015C000DAF808C0BCF1000FB2D1C8F1040BB8F1D1
:1015D000040F06D20AA8FF225946404400F014FD29
:1015E000D84431790A2911D1DAF8040030B1012147
:1015F00004F1080000F0CAFB002858D053464246C8
:101600000AA92846FFF78EFC009099E7052919D111
:101610006078820716D5DAF80C0098B1D9F81C006A
:10162000052818D208EB0001072914D30AA9091DBF
:10163000081A016805F184021160FF22042100F0FC
:10164000E3FC08E00C29E0D160784107DDD5DAF849
:101650000C000028D9D000F06FF9DAF80CC069E767
:101660003178A046880606D5D9F8440000F052FD2E
:101670000890002857D0DAF8040028B1012108F1B9
:10168000080000F083FB90B1089CD9F80C00D9F851
:10169000081088424AD2307881060DD5002C1CBF34
:1016A0002169002908D028468847834606E015208E
:1016B000307141F20C0020E14FF0010B00F04CF9C9
:1016C0005845FFF44FAFD9F80800D9F80C10A0EB3B
:1016D000010BBBF1410F05A9284628BF4FF0400B75
:1016E000FFF763FB834502D300F036F98346012000
:1016F000019000905B4600F038F900F031F911D10B
:1017000030788106C1D574B1D4F808C0BCF1000F9F
:1017100009D053465A460AA92846E0470090009847
:101720000028B2D0AFE041F20100E6E00894307842
:10173000810640F19680002C1CBFE268002A05D08B
:1017400051462846904700900098002800F0898074
:1017500099E000200190009000F006F900F000F9F7
:10176000F6D1D9F840007349884204D0152232716D
:1017700041F20500C1E000F001FB10B90120E0706A
:1017800002E0E078002849D0F07810F0030F1CBF89
:10179000DAF80C70002F06D0DAF80030042205F1D8
:1017A00084010420B847D9F8181000291CBFDAF8C2
:1017B0000400002832D04FF0FF31029105F180077C
:1017C0000422394602A800F0A9FC50B100F0E7FA63
:1017D00038B13946DAF80030DAF804700422001D16
:1017E000B847042205F1680102A800F097FCA8B1EF
:1017F00000F0CEFADAF80030DAF80470142205F1BD
:101800006C010830B84700F0C3FA05F16801DAF856
:101810000030DAF804500422001DA8470120A0700F
:101820000F21317168E000F0A9FC00908021019146
:10183000D9F8000001230BAA022100F0EFFBD9F830
:101840000C0010280CD200210120019100901023DF
:1018500000F08BF800F084F8E5D014E001207070FF
:10186000A0460121F1E4152030710CE0B078A046CB
:101870000028F6D1002101910090402300F075F876
:1018800000F06EF801D0009837E0D9F8040000F0BD
:1018900021FC95F8180128B105F1B401009105F17A
:1018A000940310E000F06EFA30B10998806B00F1FB
:1018B00024010091031D06E000F05EFC044600F0E8
:1018C00059FC00940346D9F8040012AA0AA900F0B2
:1018D0006CFC0090009838B1002188F803101520A6
:1018E000307141F2060008E0012088F80300B07072
:1018F000B7E741F2070000E0002035B0BDE8F08F07
:10190000F70A0AF7FC0404FCEB17A603EB17A65E24
:10191000F30B0BF3F40A0AF4F50909F5F60808F6D7
:10192000F70909F7F90707F9FA0606FAFD0303FDB7
:10193000FE0101FEE320BBDEDAF8003042460AA9D0
:10194000D9F81C007047012101910091704703AA4A
:1019500005A92846FFF730BA05A92846FFF725BA9A
:1019600000900098B842704704230AAA05A92846A7
:10197000FFF774BA000440EA0160704708230AAA1E
:1019800005A92846FFF76ABA002200F077BCFEE7F7
:101990004FF000514A8808804FF6F07002404AF636
:1019A000C0339A421CBF4FF20F024A8070474CF27C
:1019B0003C30FFE709490880704780B5FFF7E8FF32
:1019C000BFF34F8F06490A68064802F4E0620243FB
:1019D0000A60BFF34F8F00BFFDE700000200002048
:1019E0000CED00E00400FA0510B54FF000525088ED
:1019F0004FF6F0714AF6C03401EA0003A3421CBF5F
:101A00004FF20F03984201D1108810BD002804BF87
:101A10001088012802D140F2022010BD4FF400705E
:101A200010BDFEE7F8B50446600B0D461646B4EB54
:101A3000403004BF204600F03BFC04F500577F0B0C
:101A40007F0304E0384600F033FC07F500573019F7
:101A50008742F7D332462946204601B00223BDE82B
:101A6000F04000F030BC38B504460D4600F0B4F844
:101A700058B16069012803D1204600F0C5F808B9C3
:101A8000002032BDA069286000E02C60012032BD3A
:101A9000F0B504469DB040F204600090656B00F024
:101AA0007BF90746284600F097F800285ED0287C8E
:101AB00002282CD200F068F928B1286A012100F030
:101AC0002DFC002852D034200668304600F084F8FF
:101AD00000284BD038694038B04218D300208DF828
:101AE000040001A9284600F01CFC00283ED002A9F1
:101AF0002846FFF7B8FF002838D002983969884295
:101B000028BFA04203D301467248814201D300207E
:101B10002CE003A800F0C6FA02982146021B03A895
:101B200000F0D6FA03A800F0D5FA029C00F02AF9DA
:101B3000203450B19DF8040008B1A86B00E0B06BF0
:101B400000F124010091031D06E000F015FB05469D
:101B500000F010FB034600950299224603A800F00E
:101B600024FB00900098401E8041C00F1DB0F0BDC6
:101B700070B504460D46164600F00EF901698C4218
:101B800022BF40693219904205D332462946204689
:101B9000BDE8704046E770BD2DE9F0410446884637
:101BA000164600F0F9F8074600F0F9F82518701904
:101BB000484988420ED23CB900F0F1F87969884270
:101BC0003CBF386900F074FB324641462846BDE808
:101BD000F04127E7BDE8F0817FB5040012D06846E8
:101BE00052A11022FEF7E6FF002046420DEB06054B
:101BF000E97B225C914205D1401C1028F5D30120DD
:101C000004B070BD0020FBE7007C02288041C00FBB
:101C10007047F8B5044625686768666B00F0BCF845
:101C200005F1604548F201018D4229D200698742E1
:101C300026D328498F4223D24030864201D38E4298
:101C400005D300F017FC401E8041C00FF2BD00F02C
:101C500011FCB8B93046FFF7BFFFB8B1307C02289D
:101C60000ED2706990B102280CD1B0694FF0FF32EA
:101C7000001D011B204600F031FA1749884205D0AB
:101C80000020F2BD2046BDE8F24001E70120F2BD90
:101C900038B588B004460D464FF0FF3200F01EFA0A
:101CA0000D4B984212D100F03BFB40F20220FFF7AF
:101CB0006FFE684621A12022FEF77CFF00F032F87B
:101CC000294600F030F8684600F0E0FB002009B03B
:101CD00030BD000001000800E320BBDE1CB5044657
:101CE0004FF0FF310091684600F055FC08B100202C
:101CF00016BD0098A0428041C00F16BD10B5044625
:101D000088B040F20220FFF743FE684613A120226C
:101D1000FEF750FF00F006F8684600F0B7FB002021
:101D200008B010BD2146684600F0A6BBB814B6F155
:101D3000E0CFF3ADB7DD25C9FA79B713010006434B
:101D40000000000000000000000000000000000093
:101D5000000000000000000000000000000003433D
:101D60000000000000000000000000000000000073
:101D7000000000000000000000000000002070478C
:101D800000207047002070470020704701207047F6
:101D900028200168086970472820006870474FF4C0
:101DA0000040704741F206007047FEE710B5164943
:101DB000086800F00700032808BF144A1CD04FF43D
:101DC0008020134A1060134B1868C0F30440112898
:101DD00028BF114A10D200BF12A2125C0F48104C4B
:101DE0004243A24208D11B68012022461B0E03F089
:101DF00003039840B2FBF0F20868C0F30330401CC4
:101E0000B2FBF0F010BD00007080004000F049020D
:101E10006490004008000140C0EA210140420F00E8
:101E200000093D000400000700000D1013001A20F7
:101E300026303840500000003022504310B50123B6
:101E4000214C04E03022504310B501231F4C03FA0B
:101E500001F12044016110BDF8B5054617460E4654
:101E60001C46380007D0002C284602D0FFF7EAFFB6
:101E700001E0FFF7E1FF2A46302042431449881869
:101E80000F22082E05D24168B30000F015F841601A
:101E900006E006F1F803C1689B0000F00DF8C16090
:101EA0004FB9002C3146284602D0BDE8F440C9E7BE
:101EB000BDE8F440C0E7F1BD9A4021EA020207FA0A
:101EC00003F111437047000000E0034000D00340DD
:101ED00000C00340334988421CBF334A904207D0B8
:101EE000324988421FBF324A90423249884201D16A
:101EF0000120704700207047F8B504460D46FFF7F3
:101F0000E9FF204600F058F8012142F23002A150CA
:101F1000687895F804E00028A87A4FEA0E2E14BFDE
:101F2000402100210028E87A14BF802200220028E6
:101F3000287B14BF202300230028687B14BF1026B1
:101F400000260028A87914BF082700270028B5F923
:101F500002004EEA804E687A14BF4FF4803C4FF086
:101F6000000C40EA0E000143114319433143394349
:101F70004CEA01016160012141F23002A150287850
:101F800008B90221E16000226262697901B1102181
:101F9000EA792B7A43EA82031943A16008B1012050
:101FA000E060F1BD0080044000C004400000054036
:101FB0000040054000800540016BCA0702D5016959
:101FC0004A06F9D470470A0A42EA01225040C0F397
:101FD0000311484080EA00304101C9B20206D20E26
:101FE00041EA0221484080B2704770B504460D4670
:101FF0001046002604E00146A05D761CFFF7E3FFD3
:10200000AE42F8D370BDFEE74018491C1CBFB1F1C9
:10201000010100F8012DF9D17047FEE72DE9F843E1
:102020000E46914680461C46089D099F00F01EF80A
:1020300012480360404600F0F6FA3A462946404608
:1020400000F0F4FA08F124000021016006750C226A
:10205000494608F13900FEF7ADFD08F14500210CB5
:10206000220A017042708470BDE8F1834FF4005180
:10207000034A116002237047000000006092004094
:10208000689000403EB51C460292019100F128057F
:10209000009500F1380300F12402214600F018FBFE
:1020A00037BDFEE710B504464FF40051064A1160F3
:1020B000022306480360204600F026FC204600214B
:1020C000BDE8104000F023BC6890004060920040E2
:1020D00000F022BC014600F02ABCFEE770B50823E0
:1020E000094C2360094B01251D6000265E60DA6003
:1020F0009D6002E010F8014BDC610A46511E002A87
:10210000F8D1186A70BD00BF649000400480084098
:102110000020704700207047012070470300002016
:10212000521E22BF13F8010B11F801CBB0EB0C00CB
:10213000F6D0521C08BF1046704730B5016884685D
:102140004218416802EB5103C90703D54C4401E032
:10215000491C08D19A4218BF12F9011B01D10C3059
:1021600030BD12F8015B002904F8015BF0D4491E70
:10217000F7D5EFE7024870470248704702487047BA
:102180004CE307006CE3070086E207007EB56B4670
:1021900000240025002683E87000019200916A4621
:1021A00092E8380080E8380077BD2DE9F841040056
:1021B0000E46AFB01746984618BF002E06D0002F27
:1021C00018BFB8F1000F01D0369D15B940F201607B
:1021D0004AE00620009040211FA8FFF7D5FB4021D0
:1021E0000FA8FFF7D1FB4FF40050214908600322EC
:1021F000204B1A60202231460FA8FEF7DBFC20227C
:10220000394617A8FEF7D6FC202241461FA8FEF744
:10221000D1FC2022294627A8FEF7CCFC40221FA98A
:102220000CA8FFF7B3FF40220FA909A8FFF7AEFFE4
:102230002022214606A8FFF7A9FF09A80AC803AA79
:102240000CAC0AC203686E4606A81360A0CCA0C6F8
:10225000276890E80E000848376000F088FB00907F
:10226000009808B140F2046030B0BDE8F081000091
:1022700068900040609200408403000000B500BFF9
:10228000130096469446103928BFA0E80C50FAD89F
:102290005FEA417C28BF0CC048BF40F8042BC90747
:1022A00028BF20F8022B48BF00F8012B00BD00001A
:1022B00080B54FF40031184A116000F0C3FB401E96
:1022C0008041C00F02BDF8B51F4605460E461446B4
:1022D000082F10D20121202000F05AFC01212120DA
:1022E00000F056FC0CB90120F2BD15F0030F08BF39
:1022F00014F0030F01D00020F2BD4FF40030064966
:102300000860234632462946384600F0C2FB401E8C
:102310008041C00FF2BD000068900040002070476F
:1023200070470120704700004FF40170FFF745BB74
:1023300010B5454800680002000E01280CD1434842
:1023400001684FF48020424A106004234903414C45
:1023500023605CBF404A106040484FF40061016058
:102360004269D106FCD400F035FCFFF720FBFEF7F4
:102370009EF8FEF79EF818B14FF40170FFF71DFBB1
:10238000FEF7D2F80446FEF74FFA002C19BF40F2D0
:102390000370844240F20120FFF70FFB40F205700A
:1023A00084421BBF40F206718C4240F203204FF47E
:1023B0000170FFF702FB002010BD000080B5012175
:1023C00000F053F82649086842060AD5FFF70CFBCF
:1023D00040F20221401A07D0C01E05D0C01E0128BD
:1023E00002D900F0FBFB08B100F03EF846F2040011
:1023F000016811F1010F05D14FF40270FFF7C8FA1F
:1024000000F032F89DF8010060B14FF4C040FFF7D2
:1024100000FC8DF800009DF8000018B94FF4027020
:10242000FFF7B6FA9DF8000068B14FF4C0410D48BF
:1024300001600A461046016881F3088881F3098823
:1024400040688746FEE701BD0080E00F64800040E1
:10245000649000402020014064A000407040004093
:102460009440004008ED00E000218DF800108DF848
:102470000110704700207047C269042A05D200EBA2
:102480008202D160C169491CC1617047F0B5014643
:10249000C869052800D3F0BD504A12684FF4803057
:1024A0004F4B18604F4B504CD2031C604F4D5D603A
:1024B0005CBF4F4B186022464E4810600B680024EA
:1024C00053604D4B05E001EB8400C56843F8245090
:1024D000641CC8698442F6D30025486800E040685F
:1024E00090B10668002706E056F827C06D1C7F1CD7
:1024F00043F824C0641CD0F808C0CCF3990C67459D
:10250000F2D34668012EEAD1C86945EA00659560B4
:1025100011685068414090684140002003E053F842
:102520002020401C5140A042F9D343F82410BFF3AF
:102530004F8F32490A68324802F4E06202430A606F
:10254000BFF34F8F00BFFDE710B5244802684FF47A
:1025500080302349D20308602A4B1968254A5CBFA2
:10256000234B18600868904213D10869401DB0F5EC
:10257000007F0ED20022002303E051F823405B1CB1
:1025800062408342F9D351F82000904201D10120EA
:1025900010BD002010BD38B500F00BF85CBF144A28
:1025A000106004B910E0FFF7CFFF00B90FE06868D2
:1025B00010E00446094801684FF48030084AC90316
:1025C0001060104B1D6870474FF4E02032BD4FF48F
:1025D0007E0032BD2060002032BD000064800040DB
:1025E0006490004000C60740004C00A0004E00A0D0
:1025F00064A00040DEC0ECE50C4C00A00CED00E057
:102600000400FA0504C607407EB56B460024002589
:10261000002683E87000019200916A4692E8380033
:1026200080E8380077BD2421FFF7AEB970B50D46BC
:10263000044616462421FFF7A7F9802E1CBFC02EA2
:10264000B6F5807F02D06FF01F0070BD2660F208E3
:102650002946201DFEF7AEFA002070BD78B589B07E
:102660001446012902681D460CBF01260226802A55
:1026700018BFC02A05D0B2F5807F18BF6FF0710077
:1026800024D1011DD20806A8FFF7BEFF1022214663
:1026900003A8FFF7B9FF102229466846FFF7B4FFE9
:1026A00000F0CEFA90B9012E6A4603A906A802D11D
:1026B00000F01CFB01E000F023FB044600F0CEFA22
:1026C00000286FF024050CBF002C28460AB070BD0E
:1026D000002A2DE9F64F8FB014BF14680024029031
:1026E000026800250E46802A18BFC02A05D0B2F520
:1026F000807F18BF6FF071005DD1011D9946D2082F
:102700000CA8FFF781FF1022494603A8FFF77CFFC2
:1027100001961A9E1B9FDDF8708001E000F04EF8D4
:102720000198854243D2002CF8D1401B000930D0DB
:102730004FEA001A5246791909A8FFF765FF524679
:1027400008EB050106A8FFF75FFF00F079FA002803
:1027500031D103A8009003AB06AA09A90CA800F088
:10276000E2FA834600F07AFA20B9BBF1000F08BF05
:1027700055440ED06FF024001DE041424944CA7B0D
:10278000521CCA73D2B212B9401C0F28F5D900F0FE
:1027900015F80198401BC3D0002CF8D1029833469D
:1027A0004A460121FFF75AFF0028E6D003E01098BF
:1027B00000B10460002011B0BDE8F08F795D305D9C
:1027C000641C04F00F04414008F805106D1C7047AC
:1027D0002DE9FC478A461446984670B9002C43D030
:1027E0000B990A683F2A0AD84868002818BF5FEA90
:1027F000080905D10FF24C1902E0414835E0C14605
:1028000002F03F06A218C6F140050A60A24202D2B9
:102810004868401C48600A9F96B1AC4210D32A46D3
:102820005146B819FEF7C6F90120009043463A46D2
:102830004946002000F098FAC146AA44641B0026CD
:102840003F2C0BD9A5090095434652464946002026
:1028500000F08AFA0AEB851AA4EB851424B122460B
:102860005146B819FEF7A6F90020BDE8F687F8B57D
:1028700086B00C4615461E4640BB002102AF56F8F6
:1028800021304A429200D21D00EBC300B85402A886
:10289000104456F82120C01E5209827056F821209B
:1028A000520B427056F82120520D027056F821004A
:1028B000491C400F0129E2D9327802F03F02382A40
:1028C00034BFC2F13802C2F1780201E00C4814E0D2
:1028D0000196009523460B490020FFF779FF0196EA
:1028E00000952346082202A90020FFF771FF0C98EB
:1028F00020222146FEF75EF9002007B0F0BD00005F
:1029000080AFFFFF980300006821FFF73DB800216A
:10291000016041600020704700F12803E0B500939A
:10292000019000F108030020FFF752FF0EBD80B5B3
:102930000346009103F1280203F108010020FFF78C
:1029400096FF02BD6A09E667BB67AE853C6EF3720F
:10295000A54FF53A510E527F9B05688C1F83D9AB6A
:102960005BE0CD19686804EB8401884270477FB54D
:1029700082B000F03BF80446452C28BF01202CD241
:10298000FFF7F0FF1EBF06226243904207D10B996A
:10299000B1EB440F04BF0E99B1EB440F01D00720F7
:1029A0001BE0EB6801222146312000F021FA00F003
:1029B00020F80AA8082307C80093234600F05BFA12
:1029C00000F00DF80A2000900DA907C9234600F079
:1029D00052FA00F0ABFA00B1032006B070BD0C2033
:1029E000009003A907C9234600F019BA054600F074
:1029F000E7BA01260196009695E80700234600F005
:102A0000A2BA000070B5544A544B554C246865076F
:102A10000AD4C60701D41C4207D100EA04058D423E
:102A200006D0521EF1D107E009E06FF0010070BD41
:102A30001C42FAD1002070BD6FF0020070BD4FF053
:102A4000FF3070BD70B500F01FF841F67131454C94
:102A50000122474BE568E1621A6060600226266049
:102A6000002121202D0CFFF7CDFF05F0010501000D
:102A700003D100212120FFF7C5FF01213B4A11604E
:102A80000DB10021E16270BD4FF40031364A116092
:102A900070472DE9F047DFF8DC800125C8F80050C9
:102AA0004FF44026344F47F8206030264643334DDC
:102AB000002735446F60AF60AF614FF400372A4C98
:102AC000276041F671342E4E3769346334683F0C09
:102AD00007F0010744F001043460012404FA00FC0B
:102AE0001EE04FEA9E04641E240144F06054EC6032
:102AF0002A61244C6C61C8F820C0234CD4F80090A3
:102B000029FA00F95FEAC97AF8D5204CC4F800C068
:102B1000C8F824C00424746071447244A3EB0E030B
:102B20007BB101F50054640B6403A4EB010E734503
:102B3000B160346998BF9E466407D2D54FF0FF302C
:102B400007E030684008400030600FB1002030637B
:102B50000020BDE8F0870000809698000200010088
:102B60001C00034010000340689000400C2003400C
:102B70000C1003400410044000400440580004407E
:102B80000C0003401800034034000440342004408B
:102B9000002342090AD0012A08BFDFF82C3005D0F3
:102BA000022A0CBFDFF82430DFF82430002900F0BF
:102BB0001F0014BF03F5805303F50053012101FAF0
:102BC00000F018607047000064800040688000409A
:102BD0006082004000207047002070471CB54FF015
:102BE0008060134C20600123042200F025F80021AE
:102BF000009102E00098401C009000986428F9DBE6
:102C00000123022200F019F8002001E00098401C86
:102C100000900098B0F5FA7FF8DB06490C680123B4
:102C2000002200F009F804F0010484F0010016BD50
:102C30006490004044C0034000210120FFF70CB91C
:102C40000E48016841F4005101600D48026842F0ED
:102C500001020260016841F002010CE007480168CE
:102C600021F40051016006480268520852000260D7
:102C7000016821F002010160002070476880004077
:102C8000608200404368DFF8D820102B04D0182B56
:102C90000ED0202B14D01CE01268D30113D502688B
:102CA000DFF8C0309A4216D10A6842F0400218E0BC
:102CB0001268930107D50A6842F008020A60EEE73D
:102CC00013685A0101D4012070470A6842F00402D7
:102CD000F4E7072070475B1C9A4205D10A6842F06E
:102CE00080020A60002141600020704738B500F082
:102CF00014F801D4012032BD00920246002108E000
:102D000038B500F00AF801D4012032BD0092024625
:102D10000121002000F070F932BD0B46DFF84010B1
:102D20000C68E50770477FB500F011F858BF012027
:102D300003D500F004F800F00FF804B070BD089C53
:102D40000293019200910346039402227047DFF838
:102D5000104025686E0770470021002000F080B900
:102D60000404024C4A030020F0B591B01D4640BB5C
:102D7000169820230692800107900024049308945B
:102D8000202209A8FDF716FF09AB03930594FFF76E
:102D900057FFC8B906A890C86E4690C6076803A832
:102DA00090E80E003760042000F0F9FB0446FFF7BE
:102DB00055FF44B9202209A92846FDF7FBFE002053
:102DC00002E0024800E0024811B0F0BD80AFFFFF12
:102DD00080ADFFFF002A00D170471CB5049C009411
:102DE00000F068FC16BD71480068C0F300407047F1
:102DF000F8B505460C4616461F4601B14C1EFFF7B6
:102E0000F2FF0028FBD145EA0425360706F080567C
:102E100035433D4345F0004565480560F1BDF7B5D4
:102E20001D462C468D4286B088BF0C46002C079468
:102E300018BF002D1DD00E995E4E002006EB4126D6
:102E400005900495371B0397029406AB81B000F000
:102E50005BF808BC03AF97E8070000F06AFCAC42DF
:102E600007D22A1B701B09B00021BDE8F04000F01A
:102E70005BBC09B0F0BD77B51C461346D8008DB0D9
:102E8000149D43BFCA1C92089200620000F01BF818
:102E900001A86D0200F025FC464900F019F805F57F
:102EA000213500F00CF8291B09A8FFF793FF09A8AA
:102EB00000F017FC05A901A813E03E48411900964F
:102EC0000023224670470D990026009601A881E74D
:102ED0004919009600232246091B05A805F19845CB
:102EE00078E700F0C9FB10B070BD17B587B000F0EF
:102EF00017F8029307AB03910021059181B000F010
:102F000003F808BC03AC05E006CB684606C01968A8
:102F10000160704794E8070000F00BFC0AB010BD98
:102F20000C982549049301EB4021704710B5234CC0
:102F300001202060FFF757FF0028FBD160684FF6A3
:102F4000F071084010BD2DE9F84187B014460DF12D
:102F5000100E0E9D0F9E01900293039400278EE8A1
:102F60000700984619E00DF1040C9CE80700FFF7F4
:102F7000BCFF0CE01EB9022F18BF032F07D0002D95
:102F800000974346EFD001A807C8FFF748FFE000CD
:102F900002D40199414401917F1C08FB07F0059977
:102FA0008842E7D308B0BDE8F08100000C20024C55
:102FB0000420024C0082024C0080024C0820024C8B
:102FC000006970477EB56B4600240025002683E823
:102FD0007000019200916A4692E8380080E838005B
:102FE00077BD1CB54C6834B100938B6809681343F6
:102FF000224600F05FFB16BDFCB58BB05C6814F098
:103000000F0F04D11CB1129D6E68A64201D007209B
:1030100018E0DFF8F86096E880500FF2E80454F802
:10302000211008AC84E8805008AE079606960295F9
:1030300008AF019308AD41F480710594049603979D
:1030400000F042F80DB0F0BD069605960497039681
:1030500002920193009108AB2246294600F05FB826
:103060002DE9FC438BB000F021F845F0300511F05C
:103070000F0F0CD159B1159A56688E4202BF16999E
:103080004E68102E02BF179E7768102F01D00720C0
:103090000AE0DFF878C09CE80043079608AF08AE66
:1030A00087E80043FFF7D0FF00F020B81C46149BD0
:1030B0000FF2500555F82150DFF8546056F82210F1
:1030C0000D43596870470294009508AB27E001D082
:1030D00007200BE0DFF834C09CE80043079608AFF8
:1030E00008AE87E80043069600F003F80DB0BDE88F
:1030F000F08305960497039601930294009508AB1C
:103100000DE000000000000001000000940200003B
:10311000A0020000C0F1100000F00F0070472DE980
:10312000F24FCEB0054616461C4604224EA913A8FF
:10313000FFF748FF96E88C000CA9002D81E88C0071
:1031400040F0DE804EA90CA8FFF79CFD002840F05F
:10315000D480DDF864B15C9D5B9F9BE80E0009A8FC
:103160005A9E80E80E00786869680818FFF7D2FF59
:103170000746DBF80400FFF7CDFF82465D98406804
:10318000FFF7C8FF8046B068C10004D57068C01C56
:10319000800880007060DDF87891D9F80800C100DF
:1031A00006D5D9F80400C01C80088000C9F80400C6
:1031B0005B980021426868688218BA1806A8FFF771
:1031C00001FF7068FFF7A6FF0246002103A8FFF782
:1031D000F9FED9F8042000216846C2F1100202F07D
:1031E0000F02FFF7EFFE00200FA900220023844604
:1031F00081E80D10DBF80400002802BF5D994868E3
:1032000000280DD15B994868002804BF6868002831
:1032100006D110220FA909A84FF0100AFFF7D2FE1D
:10322000DDF87CB111234FF0005213A92EA8FFF74F
:10323000D8FE40F611034FF000520CA9FFF7D1FE63
:10324000589942F611034FF00052FFF7CAFE44F6B8
:1032500011034FF000522146FFF7C3FE5B99412353
:1032600000223F02FFF7BDFE07F4F85747F0410385
:103270004FF000522946FFF7B4FE4FEA0A2101F44D
:10328000F85141F001034FF0005209A9FFF7A9FEE0
:103290004FEA082101F4F85141F001035D994FF024
:1032A0000052FFF79EFE103800F01BFA00230022A8
:1032B00006A916A8FFF795FE002300223146FFF766
:1032C00090FE0023002203A9FFF78BFE00230022BB
:1032D0004946FFF786FE002300226946FFF781FE7C
:1032E000002300225946FFF77CFE103800F0F9F960
:1032F00016A92EA800F0C0F900204FB0BDE8F08F4D
:103300000720FAE77EB56B4600240025002683E8F7
:103310007000019200916A4692E8380080E8380017
:1033200077BD002A00D170471CB5049C009400F0C2
:10333000C1F916BD2DE9FF4FB7B038A991E81C00BF
:10334000054604A880E81C006E1E7748062E00F291
:10335000A980DFE806F004090E13181D2300076892
:10336000F9073DD501221DE001688A0738D5022101
:1033700012E00268510733D5042213E001680A07FE
:103380002ED5082108E00268D10629D5102209E0CF
:1033900001688A0624D52021019104E002685106C3
:1033A0001ED540220192449C02A900220023C1E9BB
:1033B0000023012C02D0022C0CD030E00068C103A5
:1033C0000ED5019A28464FF0030842F4C0620192DC
:1033D000399321E001688A0302D50068C10301D452
:1033E00001209DE0DDF8E480B8F1000F08D0C8F1BD
:1033F00000084FEA082000F4407040F0A30806E0FF
:10340000042202A904A840F2A348FFF77BFF019819
:1034100040F4E0600190284600F088F804E0284677
:103420004FF0630800F0A8F80646132000904FF014
:103430000053042201A90FA800F03CF9059F069B48
:103440000499CDF8008043F000533A4600F032F979
:103450004FF0000BDA46DDF81481DDF818910FE02B
:103460000C2101FB0BF1032308F1040252584144E3
:1034700000938B68096892440BF1010BFFF751FF31
:10348000CB45EDD38046032C0ED1284600F074F8CE
:103490000446284600F061F8A74204BF401E1AEA1D
:1034A000000F01D007203BE0BAF1000F0BD1032041
:1034B00000900023002202A9404600F0FBF84FF0E4
:1034C000040A804608E01AF0030F1ABF0AF0030A44
:1034D000CAF1040A4FF0000AA8F11004204600F0D7
:1034E00000F95146204600F007F948983446499BB8
:1034F0008642479988BF044600200090224607A8CC
:10350000FFF70FFF002100910023321BFFF709FF97
:10351000103800F0E6F807A90FA800F0ADF8002079
:103520003BB0BDE8F08F00000C04024C401E0628A2
:1035300011D8DFE800F00406080E0A0C0E00102077
:103540007047142070471C2070473020704740207F
:1035500070472020704700207047401E032807D97D
:10356000001F012802D9801E02D003E0802070478E
:103570004020704700207047401E06280DD8DFE825
:1035800000F004060A0A08080A00102070471420F8
:103590007047402070472020704700207047FEB5DC
:1035A00086B006A914C903AB012514C30C6806A98B
:1035B0000EAE1C600EC90327029501960097FFF717
:1035C000B9FE09B0F0BD00000160704738B50C4687
:1035D00001463148FFF7F8FF304D21462846FFF7F6
:1035E000F3FF0320686231BD0FB470B50A980C4632
:1035F0001546844288BF0446E80002D5E41CA408AE
:10360000A400254E19463046FFF7DEFF099824F046
:10361000704405F0E04500F0E040204340F00050E9
:10362000B0600020F06004991C4E30462C43FFF738
:10363000CBFF44F00054B4600020706270BC5DF8B1
:1036400014FB17483F214161102202600323C3612C
:103650007047144801688A07FCD470471248016813
:1036600011F0240F11BF406941691048014202D096
:1036700001210F480160704780B5FFF7A7FF084898
:103680003F214161102202600323C361016A8A075E
:10369000FCD4BDE80140E1E70000024C1000024C00
:1036A0001C00024C3C00024C2800024C1000FFFFA2
:1036B000FCFFFF3F10B500F110044460016022F0F0
:1036C000704282600029816804D003F070430B438C
:1036D000836002E041F0804181600299C160103056
:1036E00010BD01214160C26842F02002C2608168C1
:1036F00041F0005181607047C268D30658BFC2686C
:10370000C36803F00F035B1E02D09B1E012B08D879
:10371000C26801F01F0142EA0122C2608268891872
:1037200081607047FDF746BA13460A461946FEF710
:103730006BBC0FB45CB583B0510039D40E98099CB2
:10374000844288BF04460D98C10003D40C99A1425D
:1037500098BF0C4664B3102C11D302940BAB81B00C
:1037600000F02AF808BC08AC94E80700FFF73CFF1B
:10377000FFF767FFFFF76DFFFFF770FF18E0C0006E
:1037800011D50026A64213D20B980168099A089811
:103790000091921B042A6946304488BF0422FFF737
:1037A000C1FF361DEEE7089822461946FFF7BAFF1B
:1037B00005B050BC5DF814FB06CB684606C019681E
:1037C000016070470448054908600548026842F4F2
:1037D00070020260704700000000000008ED00E089
:1037E00088ED00E010B50446B1F5027F02D240F248
:1037F000052010BD4FF40271FEF7C6F8002060707E
:1038000004F5C87204F5A47104F12C000023BDE88E
:103810001040FDF7DFBB1CB50446009100F040F8F6
:103820000028C4F804021CBF41F2070188420BD1F2
:10383000A07838B1E07810B140F2032016BD40F214
:10384000022016BD40F2012016BD00002DE9FC410A
:10385000089E904604460F461D46002232601C21F9
:103860002846FEF791F800BF11A2009243463A465F
:1038700000F016F82078810744BF60683060217836
:10388000C80705D51C2204F108012846FDF792F966
:103890002078002814BF002040F20640BDE8F681E1
:1038A000214604F12C00FDF7D9BB4FF4027070479C
:1038B0000000000000000000000000000000000008
:1038C0000548014603B4684680F30988AFF30080D9
:1038D00000F004F800F014F8A5EDF5FE4EF688515E
:1038E000CEF20001086840F470000860BFF34F8F0B
:1038F000BFF36F8F4FF00070E1EE100A70470000C9
:1039000000F00DF8002801D000F00CF8AFF30080B3
:103910000020AFF30080FEF70BFD00F017F8012048
:103920007047000010B5074979441831064C7C44B3
:10393000163404E00A68081D114488470146A14274
:10394000F8D110BD700000008C00000000F000B83D
:103950000746384600F002F8FBE700002021090383
:1039600026311820ABBEF9E780B5FFF72BFFFEF735
:1039700025FDBDE80140FFF7A3BF30B4002512E0EC
:1039800050F8042BD30744BF4A44521E091F042990
:1039900042F8045BFAD213468C0744BF15809B1C87
:1039A000C90748BF1D7050F8041B0029E8D130BC7E
:1039B00070470000C7FFFFFF3C020000100100201D
:1039C0000000000077E7FFFF0C000000240000006B
:1039D0008000002081000C00F07F1030800000206B
:0C39E0003C000640FC000000000000005D
:04000005000038C1FE
:00000001FF
