:10400000E85F00208DEF020011A8000071EB0200B4
:10401000A70A0A010041000004180FAC806775016F
:104020000000000000000000000000000000000090
:104030000000000034F50200000000000000000055
:104040000000000000000000FFFFFFFFFFFFFFFF78
:10405000FFFFFFFF007003000000000000000000F1
:10406000FFFFFFFFFFFFFFFF110000000000000047
:104070000000000000000000000000000000000040
:104080000000000000000000F07F0020F07F002012
:10409000E85F0020FA0C030012F0020088560020AE
:0C40A0004C16002000000400000000008E
:10410000E85F00208DEF020011A8000071EB0200B3
:1041100081D3000075EB020079EB02000000000083
:104120000000000000000000000000005B440000F0
:104130007DEB020073430000E3570000235B0000A7
:1041400049D5000051970200B56B0000E5910200CF
:104150008D9702005797020059970200539702006B
:10416000F33001004D33010061B000009F7C00007E
:1041700085EB020085EB02005FED020085EB02009B
:1041800085EB02005B33010085EB020085EB02004A
:1041900085EB020085EB020085EB020085EB020057
:1041A00085EB020085EB020085EB02008F97020091
:1041B00055970200F92B0100BF97020085EB020022
:1041C000D5EE020085EB020000420F48816B89B2F8
:1041D00001B1012141F67132826346F21A3203685D
:1041E00043F001030360C2644FF48073436042698B
:1041F000D307FCD40022C264C9B203685B085B0029
:10420000036001B182630020704708000E40000087
:104210002DE9F84F8046DFF87C902222FF214846A6
:1042200000F08FF8DFF870B04FF49372FF2158461A
:1042300000F087F819481A4F1A4C00904FF0220AE4
:104240000026A25D1849BD5D885D521C02EBD2724A
:10425000521000B11932154830F816100098D21CCF
:104260006A4300F08AF8012D1CBF2BF816A0AA445F
:10427000761C222EE5DB22234FF4805240F27C5143
:104280000B4800F07AF849464046BDE8F44F00F08C
:10429000D4BB00BF3C650020EC65002014F0020098
:1042A0003CF2020018F20200F4F10200B0F1020048
:1042B00030F0020070B5814224D210441144401EF7
:1042C000491E10E011F8013900F80139121F11F8E8
:1042D000014900F8014911F8015900F8015911F894
:1042E000016900F8016993B2042BEBDA93B2002B59
:1042F0001EBF11F8013900F80139521EF6D170BD08
:1043000000F00DF893B2042BFADA93B2002B1EBF23
:1043100011F8013B00F8013B521EF6D170BD11F8B7
:10432000013B00F8013B121F11F8014B00F8014B53
:1043300011F8015B00F8015B11F8016B00F8016BEB
:104340007047130003D00A46194601F041BA70477E
:1043500010B5034600E0521E90B218B100F003F809
:10436000F9D0001B10BD13F8010B11F8014BA0424E
:10437000704770472F49087070470EB430B52D490B
:104380000446087820B301F085FA08B301F0C8FBB1
:10439000012001F0D2FBFF28054619D001F0C2FB35
:1043A000022101F07DFA0146284601F0C1FB03AB72
:1043B00022462946204801F0ADFF30B1284601F0E1
:1043C0007BFA10B1042000F00BF8284601F01FFC26
:1043D00030BC5DF810FB0C2200211848FFF7B1BF7C
:1043E000164931F81020521C21F8102070470CB4E7
:1043F00080B502AA02F0E8F801BC5DF80CFB0D4A9A
:104400001178A1B9010018BF012810D0042818BFE5
:1044100005280CD0312818BF332808D037281EBFF4
:104420003B284FF6FF71884201D0012070470020E1
:1044300070470000C87F00202D5E00004C760020F1
:10444000302818BF322806D034281CBF3628382818
:1044500001D00020704701207047FEE730B5DFF83B
:10446000485ADFF8484A2B882468C01A04EB4004F5
:10447000002004E034F8103021F81030401C904245
:10448000F8DB002030BDDFF8203ADFF8201A1A8868
:104490000968801A01EB4001022002F0ADB9F8B5BD
:1044A00004460F461646DFF8045AF0B208B34FF63A
:1044B000FF70ADF80000002017F8011BC3B2401CCC
:1044C0000DF80310761EC1B2022902DAF1B20029FA
:1044D000F2D1DFF8D4E92868BEF800301FFA84FC76
:1044E000ACEB030300F01CFF641C0100DDD000F006
:1044F000EBBB0120F2BDF8B504460D461646F0B2FE
:1045000088B1012200F010F8641C0020C2B2401CE7
:104510001DF80230761EC7B2022F05F8013BEEDA15
:10452000F1B20029F2D1F1BD6946A0B296E7014689
:10453000DFF87C09DFF87C29405C525CDFF8C03B87
:10454000595C09B102F5997240EAC21080B2704715
:1045500010B5DFF85C39DFF8AC2B1C5C012C1CBFFC
:1045600032F81000081802EB400010BD70B590B092
:1045700005460C464FF6FF7604E0A8B2FFF783FF2E
:10458000203D2035A9B28C420DD3202201F00AF83B
:10459000002082B23DF81230B342EED1401C81B20D
:1045A0002029F6DBEDE710B070BD10B50446618838
:1045B0002088FFF7DBFF0121DFF84C2BDFF84C3BB5
:1045C000A171208811784118188801EB4001891DDC
:1045D000A18010BD10B5DFF8384B00F087F800F06F
:1045E00040F900F03BF9DFF8840C04F10801446065
:1045F00004F110028160C26010BD2DE9F043044651
:10460000DFF8040B0778B946B9F1060F85B003DD72
:104610004FF4377100F010FB0021A1717A1C208843
:1046200092B201A9FFF71AFFBDF804104FF6FF760A
:10463000B14218BF002910D00DF10408711A38F8E2
:104640001900884209D101254D454BDA38F815008B
:1046500040B1BDF80410884214D000F047F805B00E
:10466000BDE8F083DFF8081C0A88208812FB0521CA
:1046700041186A437118101889B280B2FFF776FFAB
:104680000221A1716D1CDFE72088381800F08EFF31
:10469000BDF80200000B4845DFD120883818401DC6
:1046A00000F085FFBDF80210BDF80200711A000A83
:1046B00001F0FF018842D0D10320A071012220889F
:1046C0003F187F1C6946B8B2FFF7C8FEBDF800006E
:1046D000FF2802D10421A171C1E7B042BFD0002858
:1046E000BBD1BCE7A0790228CED1B8E720465CE771
:1046F000F8B5DFF81C4ADFF8745B002004F108010C
:1047000004F11002A071A073A075A960EA606C604A
:104710002046FFF772FF04F10800FFF76EFF04F177
:104720001000FFF76AFFA179A07BDFF880670429FA
:1047300008D100220428ADF8002046D1FFF74AFF37
:104740000120F2BDA17D04282BD100200429ADF861
:104750000000F3D0FFF7CAFF00F080F83068DFF800
:10476000A869238900F080F8060040D10320A073D7
:10477000A07903284AD1A07B032802D1A07D01287B
:1047800063D0A07901284AD1A07B032854D1A07D11
:10479000012818BF0328D1D104F1080004F1100149
:1047A00057E004292BD10020ADF80000FFF79EFF51
:1047B00000F057F83068DFF85069238A00F054F8A9
:1047C000060014D10320A07519E0A07D0428B5D0FF
:1047D00000F047F800F042F83068DFF82C692388D1
:1047E00000F042F8060002D10320A0710AE0304632
:1047F00002F086F81EB14FF4747100F01DFAA07932
:104800000328B5D1A07B0128B5D1B7E70228B8D1DC
:10481000A07B032804BFA07D01288FD1BCE703281B
:1048200004BFA07B012889D1A07D03280BD104F10E
:104830001000214608340CE0022812BF0128A07D98
:104840000328F0D1F3E70228EDD1204604F1080156
:1048500010346860EC60A9600020F2BD04F1100023
:10486000A3E604F10800A0E63778DFF83C66FF18FD
:1048700033887F1CFF1A0122694600EB470001F0D4
:10488000E6BF2DE9FE4F0646DFF87C08DFF8888A90
:10489000DFF8889A0F460178ADF8081001223488B5
:1048A0000C19641DFFF740FEDFF86018BDF800002A
:1048B000B1F800A0641C000AADF8000050451CBF10
:1048C0000121397000251AE0401CC1B2514514D2B3
:1048D0005FFA80FB39F81B10BDF806209142F3D136
:1048E000C0B2FFF724FEBDF804304FF680721040CE
:1048F0001340984208BF08F80B506D1CADB2BDF8CC
:104900000000854206DA022201A9FFF70EFEA41C70
:104910000020DAE70020D14601E0401C80B2484583
:1049200017DA18F800108142F7D00120387010E033
:1049300021F815A00DE00128DFF8C817F8D0BBF169
:104940007F0F31F8150008BF4FF0000B584421F8D5
:1049500010A0A1B27088C01E88424FF6FF7A28DBF3
:1049600000F066F8BDF80200FF25504521D0601C1C
:1049700000F0D4FDBDF80200BDF80610AAEB00025D
:10498000914213D104F1030A040A00F07F0BBDF831
:10499000000084420ADA002000E0401C484518DA92
:1049A00018F80010A142F8D1C5B212E00120387009
:1049B0000DE0B4807088A1B2884208D300F038F8C6
:1049C000BDF80200641C5045F4D001213970BDE8E7
:1049D000F78F3088BDF80830181800EB4400801DB0
:1049E000012201A980B2FFF739FDBDF80400C0F330
:1049F000C710401C00EBD0700AEB60047088A1B2B5
:104A00008842D3D3FF2DA4D0DFF8A404405DBBF1CE
:104A10007F0F14BF59460021814286DABDF802108B
:104A2000DFF8DC26535D0906C90F994283D07CE785
:104A300001220DF10201A0B210E5F8B58DF80000D9
:104A4000DFF8AC1BDFF86004DFF8C0460288DFF84F
:104A5000C00602800B884380DFF8AC361D782188C1
:104A6000DFF8903BDFF8904BAA1802EB4102921D51
:104A70008280002282711A880281AA1802EB410208
:104A80002388DFF8784B4381921D82810022827354
:104A9000DFF86C3B1A880282AA1802EB4101891DDB
:104AA0002388DFF8C847818243820021817501F0A5
:104AB0007BFF002853D12070FFF71AFE9DF80010ED
:104AC000084318BF01208DF80000012260680088AB
:104AD0002818801CA11C80B2FFF7C0FC9DF80000C4
:104AE00000283FD16068DFF81C766946FFF7C9FEF1
:104AF000DFF8880B0688A0688179032924D16946EC
:104B0000FFF7BFFE6168DFF8A823002012E0DFF89E
:104B1000FC351B88984202DA135C012B09D137F867
:104B20001030B1F800C0634524BFB1F802E09E45E3
:104B30000AD2401CB042EADB02208871A16860689A
:104B4000E2686160A260E06000204FF6FF7200E062
:104B5000401CB04206DA37F810109142F8D101201B
:104B60008DF80000607828B1012100208DF8001038
:104B7000607018E09DF8000090B960680388ED1837
:104B8000ED1C01220DF10201A8B2FFF767FCBDF890
:104B90000200C0F30310012808BF8DF8000002D006
:104BA0009DF80000B8B14D2001F0AAFE6088401CBD
:104BB0006080E068FFF7F9FC9DF8000000F051F814
:104BC00038B100F085F820B19DF8000000F0A2FA9D
:104BD00008B90120F2BD0020F2BDF8B50D46DFF89E
:104BE0002C1517467F2F0A8808BF00271E469542BE
:104BF0003EBFAF4B595D8F42044604D2AD4A535D70
:104C00009E4200D11CB940F2646100F015F83946AB
:104C10002846FFF79DFCDFF8641B0388485D28B138
:104C20001946284600F0C9FC2060F1BD32462146F5
:104C30001846BDE8F8405EE40FF67C3001F0BEBED9
:104C400038B5044608461146FFF782FC964D0388A6
:104C5000DFF82C1B28880A681B1A02EB430222602B
:104C600031BDF8B5DFF80416904CDFF8B0560028D7
:104C700014BFC8688868DFF8901400880A7886181E
:104C8000B61DB6B2002701E0B61C7F1CDFF87C041D
:104C900001888F4216DAF8B2FFF749FCADF8000040
:104CA000B3B235F81700DFF8DCCABCF800E0ADF8A5
:104CB0000200A3EB0E032068022200F032FB010089
:104CC000E2D001E00120F2BD01F01AFE0020F2BDA9
:104CD0002DE9F84FDFF83404DFF890250188D0681B
:104CE000DFF82424714C137884B00025ADF8081047
:104CF0000188BDF80800CE1806EB4006B61DB6B216
:104D000000E06D1CBDF80800854280F2C2804FF0C3
:104D1000000A78E0BDF802105FFA8AF00143ADF8AE
:104D200002104FF6FF72BDF802005F490F88BDF810
:104D30000010121AADF804204FF6FF732068F21B22
:104D4000761C994200EB4200B6B21DD100F0BBF8D0
:104D500001002BD12068F71B012201A900EB4700BD
:104D600001F075FD010021D1B61CB6B25148DFF843
:104D7000181AA8F80060425D51F825103046FFF778
:104D80008EFB002838D18DE04A49495D491C01EB72
:104D9000D1714FEAC15900F096F8010006D12068A0
:104DA000F31B012201A900F0BDFA010077D1B61C66
:104DB000B6B2D349A8F80060485D002843D0DFF8B8
:104DC000AC2410780021039128B103AA6946A8B247
:104DD00001F0EEFD05E0BDF80010E8B200F0EDFBDB
:104DE0000390F71B20684FEA196203A900EB470004
:104DF00001F02DFD010052D1DFF89009415D7618D8
:104E0000B6B20AF1010A2A48475D5FFA8AF1B9424F
:104E1000BFF477AFE8B2FFF79BFB8046B849B8F81C
:104E20000000ADF80000485DC00140EA0520012FF8
:104E3000ADF802007FF46EAFBDF8020040F07F00D5
:104E4000ADF802006DE74FF000085FFA88FBBBEB9E
:104E5000196FD1DADFF8141408780028BDF80000C3
:104E600004D100F029F8FFF7F9FA03E000F024F884
:104E700001F09CFD2068B344ABEB070301220DF168
:104E8000060100F04FFA010008BF08F10108DCD06C
:104E900005E0DFF8D803C1688E80012002E001F050
:104EA0002FFD00202FE30000E6F702002C60002019
:104EB0003CF2020018F20200411CADF80010012281
:104EC0000DF10601704701220DF1020101F0BFBC96
:104ED0002DE9F34F85B000218DF803104FF00C0938
:104EE000DFF8AC58BDF81810DFF8A868DFF89C3878
:104EF0005B5C298835684C0891FBF9F9A1444D4564
:104F0000039302D3DB18039309E0182691FBF6F113
:104F1000641AA54203D303EB530189B20391002520
:104F2000D24CADF806008DF8042000E06D1C7748E7
:104F300001888D4280F2CF80002687E0012202A9FD
:104F40001FFA88F0FFF78AFAA3680498DFF834E8BC
:104F5000B3F804C0BEF800300068DC44ACEB0303D7
:104F6000012202A900F0DEF9010008F1010858D180
:104F70000AF1010A5FFA8AFBBBEB176FDEDB38E050
:104F80001A468DF80220BDF806309A18ADF80620B2
:104F900001235B4A8DF80330505DC30143EA0523CA
:104FA000BAF1010FADF8003040F08B80BDF8002061
:104FB00042F07F02ADF800208A88D21C8A80002847
:104FC000DFF8BC17049100F083804146E8B200F09E
:104FD000F4FAA368DFF8ACE702903A0E04989F88D1
:104FE000BEF800300068FB1A02A900F09BF901002E
:104FF00017D1BDF80000A368DFF884774FF6FF7182
:10500000091AADF808100122DFF878179B88B1F86B
:10501000008038689B1EA3EB080302A900F082F908
:10502000010066D1A3689B883868DB1EA3EB0803E8
:1050300000F076F901005CD1A0688188A9F8001021
:1050400082889DF8021051188180761CF1B2DFF839
:10505000480710F805A05145BFF468AFE8B2FFF764
:1050600077FA8146DFF83407475DBDF81800B9F8D4
:1050700000807F1C07EBD777FF05854202BF9DF8B4
:105080000410F0B28842E0D060680188884524BFEF
:1050900040884045D9D3BDF806100398814226DAEE
:1050A000DFF8E826A168535DB1F804C048889C4445
:1050B0000CF103029042BFF663AF012060704520FF
:1050C00017E0BDF80030F2B21343ADF8003073E7DB
:1050D0004FF0000A4EE79DF8030040B960680221D6
:1050E00081716068A168E2686160A260E06001208F
:1050F00002E001F005FC002007B0BDE8F08F0000E1
:10510000F4F10200EC6500204D0B0300200B0300BE
:10511000646300202DE9FE4F5FEA0009534DDFF87C
:10512000607614BFE868A86801220188DFF870067D
:1051300000880291C0F1FF0101F0FF0141EA002166
:10514000ADF80210DFF85C06029990F800A0DFF8D5
:1051500034060688386801EB0A04631D9B1B0DF1B9
:10516000020100F0DFF8010059D140F6227040EA58
:105170000A30ADF80200E31C38689B1B01220DF1D8
:10518000020100F0CFF8010049D13868A31C9B1B35
:105190000122A91C00EB430001F059FB01003ED1A4
:1051A000601CA0EB06085FEA09004FF6FE7B07D003
:1051B000FF21ADF8021000F05DF801002FD109E0E9
:1051C0006868008801226946FFF748F9BDF80000C9
:1051D000012802D1ADF800B002E0411EADF8001088
:1051E0004FF6FF72BDF80000121AADF80420A41BA0
:1051F0003868012201A900EB440001F028FB0100FE
:105200000DD1029C5046A0F1010A80B288B13868E5
:1052100014FA8AF39B1B00F083F80100F2D001F02E
:105220006FFB0020BDE8FE8FA96803208871012074
:10523000F8E7B9F1000FF7D0E968032088716868D2
:10524000FFF7B3F9A868FFF7B0F9EA686868A968DA
:10525000AA60A8606960E8606A600020ADF802009A
:10526000E96000F007F80100D9D1E0E758760020A6
:10527000E2F70200012238680DF1020100EB48005C
:1052800001F0E5BAFEB50446DFF80005455CA088EC
:10529000134662882E18F61CB24205DADFF808259C
:1052A00001215170452033E0C01CDFF8F024A080BC
:1052B00080B2525C1946FFF7F2F860B3DFF8C4041D
:1052C000DFF8BC740688A3883868DB1E9B1B0122AC
:1052D00002A900F027F801001AD1BDF808004FF626
:1052E000FF71091AADF800100122A38838689B1ECF
:1052F0009E1B694600EB460001F0A9FA010007D1A8
:105300000898A1880180A0884019A0800120FEBDD6
:1053100001F0F6FA0020FEBD3C650020B0F102006D
:105320000122694600EB430001F091BA2DE9F84FE4
:1053300084B00546894690461C4601F06DFCDFF8B6
:10534000602413888DF804500127ADF80830B8F1B7
:105350007F0F9DF80410BDF80800039508BF4FF0BB
:1053600000088DF8054081423FBFDFF82C14039AF6
:105370008B5C984507D2DFF824148B5C9C4202D1E9
:10538000B9F1000F03D140F6D901FFF755FC9DF8A4
:1053900004004146FFF7DCF801250646DFF80C045F
:1053A0008179B6F800A002291FBF817B0229807D88
:1053B000022802D1432001F0A3FA039ADFF8BC13BC
:1053C000885C002833D09DF80400514600F0F5F8C1
:1053D000D9F80010814257D0AAF1030000F09EF8DE
:1053E000DFF8C453DDF80CC06C68DFF8A0336288C6
:1053F00013F80C10A088D21E521A824207DB30B17B
:10540000A86801888A45A4BF4088504572DBE868D7
:105410008179AC68022938D1442001F071FAE8683A
:105420008179012931D0452001F06AFA53E09DF8D5
:1054300005404FF0000B21E00BEBDB700AEB600046
:1054400000F05DF909EB0B0019F80B10407801EB47
:105450000020611E8B4507D1BDF8001001F0FF014F
:1054600000F0FF00ADF8001080B2BDF800108842D7
:105470000BF1020018BF00255FFA80FBA345DBDBC0
:10548000002D8DF80540A7D03DE0A868817901295D
:1054900015D10020FFF7E5FB002834D00020FFF7EE
:1054A00039FE00282FD0BF48BDF8085003789DF87A
:1054B000041003EB4500C01D424680B205E00329FD
:1054C0000FD19DF8041042460020FFF701FD10B1F6
:1054D00000F01CF8B8B93846471EC0B2002810D1F9
:1054E00011E002290CBF40F6C81140F6CA11FFF7BF
:1054F000A3FB08E000F00AF828B93846471EC0B2FE
:1055000000287FF444AF05B0BDE8F08F0096BDF8E9
:1055100006309DF804104A462046B3E601220DF1FC
:10552000060180B2FEF79ABFF8B505469E489D4F2A
:1055300043681C883B78E01800F038F8BDF802009A
:105540000026C0F30310012811D1192400F029F816
:10555000BDF800006D1C30B14FF47F41401A17D0E8
:10556000FF3813D016E0B61C641EEFD10EE01924EC
:1055700000F017F8BDF800006D1C20B14FF6FF7168
:10558000884203D00BE0761C641EF1D170B2F2BDEC
:10559000761CFBE7BDF80000C0B200B9761CF643EC
:1055A000F4E701226946A8B2FEF758BFC01C0122E9
:1055B0000DF1020180B2FEF751BF38B50C46002153
:1055C000764B009169461D5C2A4620466D1CFEF70D
:1055D00092FF05EBD57504EB6504A0B2FFF7A4FFBD
:1055E0000028009948BFC04341FA80F032BD000056
:1055F000EAF70200180B03001A0B03001E0B03004E
:105600001C0B0300F8B5664A138804466848254613
:1056100030F815609C4202D25849485D18B940F6EE
:105620008321FFF709FB5D494D5D681C00EBD070DD
:1056300006EB6007B8B2FFF777FF0346192B0FD2CE
:105640000020DFF840C1DFF838E1ADF8000013FAC0
:1056500087F7BCF80030DEF80000FFF70BF960B107
:1056600031462046FFF7A9FF00902B46401C0090D2
:105670007F2269462046FFF759FEF1BD220B030049
:105680007CB5054647480678344621464C1EC9B2CB
:105690002888022925DB50FA84F000F030F8BDF8A4
:1056A00000000028F1D0434829880288E6B27243FE
:1056B000521890B2FEF7E7FE0020ADF8000001227C
:1056C0002D882F48006875192E4E3388ED1A6946CB
:1056D00000EB450001F0BBF801000ED001F010F91D
:1056E0000BE0FEF7D0FE0120A8712D4A2988108812
:1056F000891901EB4001891DA980E0B276BD012224
:10570000694680B2FEF7AABE28488179022908D0EE
:10571000817B022908BF083003D0817D022901D195
:105720001030ADE7002070477CB504461D48067870
:1057300000250CE0208850FA86F0FFF7E0FFBDF866
:10574000000000281EBF4FF6FF7188426D1C3046D6
:10575000461EC0B20028EDD1E8B276BD134881796B
:10576000022908D0817B022908BF083003D0817D3F
:10577000022901D11030D7E700207047F4F1020070
:105780002C600020E6F70200A4F4020064F002009E
:10579000DEF7020060F002003CF2020018F20200A4
:1057A000200B03004D0B030058760020646300209B
:1057B000EC650020E2F7020073696D2D656570727B
:1057C0006F6D322D696E7465726E616C2E630000B0
:1057D0004018491C1CBFB1F1010100F8012DF9D19D
:1057E0007047FEE780B50121754801F0EBFA754876
:1057F00001210160002001F07EFE0123042202212C
:10580000052001F0BCFE0120FEF7B4FD00F00EF80B
:10581000FEF7E1FD01F0A0FF012340226A496B4839
:1058200001F066FF6A490860C00F02BD70B5012231
:105830000121042001F00CFD6648674C0168674DAA
:10584000674E41F0010101600021C26842F08072A0
:10585000C260022263482060296031606248634967
:105860000A6001F0DFFA6249624A634B0818B0FB34
:10587000F2F0401E1860002129644FF480725F48E6
:105880005F49206531605F4802602B6843F4807394
:105890002B6070BD4F48006800B10120C0B2704756
:1058A000D12202704170090A817057490A78C2708A
:1058B0000420521C0A7070472DE9F14F53490A68C1
:1058C00082B00090145C042C5EDB01F07BFF641D51
:1058D000E4B2002501904FF6FF79DFF834A1DFF83C
:1058E000FC803C4E1FE0A91E9DF80800C9B200F0E4
:1058F0002FFB0746494601F0DDFF81465D463848EB
:105900000168CA070FD5F06840F08070F060D8F8E1
:10591000001041F48071C8F80010DAF80000002887
:10592000F1D08AF800703168EFB249B3A74227DAA4
:1059300001F048FF0199401A80B240F2F5129042FE
:105940001EDAE8B210B95B270125D8E7012805D196
:105950002E48009A01688F5C0225D0E7E01E87423E
:1059600005F1010B08BF4F46C8D0A11E8F4208BFEA
:105970004FEA1927C2D0601E8742B4D15D27BDE728
:10598000A74208BF002000D00120BDE8FE8F10B55F
:105990000F4B186890B04022694601F09BFE58B149
:1059A000C1B2684600F0B6F904462146122000F064
:1059B000B3FE204600F02BF910B010BD000000002F
:1059C00000250A0010881442446C002044F60200AE
:1059D000BC610020F0ED00E0B00F00E0000E00E040
:1059E000800E00E055CEACC506000E00F00004E0CD
:1059F000FCAC0600F8590D00100004E0FF03004065
:105A00000D000100040304E0C37F00203461002086
:105A1000200000E02DE9F0410446904601252200D7
:105A20008AB00F461E4606D0012C1DD0102C02D085
:105A3000202C19D01EE0002102F0F1F90546012CBE
:105A400018BF202C08D0022C18BF212C04D0032C06
:105A50001CBF222C232C1AD1012E0197ADF80C80EB
:105A60000AD14FF480500BE068462A49282202F000
:105A7000EDFBE4E701200BE0022E03D14FF4405090
:105A8000ADF80A006946204602F0C9F90546E8B2B9
:105A90000AB0BDE8F08180B502F082FAC0B202BD62
:105AA00080B502F0DFFAC0B202BD2DE9F8438046AE
:105AB0000F4614461D46184E02E03068C75D203C74
:105AC000E0B22028F9DAE8B2B0B1C4F120005FFA00
:105AD00085F9C0B2814588BF8146384600F022F87A
:105AE000E4B201194A464046FFF7DAFF3068C75D65
:105AF000A5EB09050024E6E7BDE8F2830CB480B508
:105B00000A46014602AB054800F004FC02BC002036
:105B10005DF80CFB88F002003C6100202F81000042
:105B20007047FEE7DFF840170A6802EB4010704745
:105B3000DFF838271368195470472DE9F0415FEA00
:105B4000000831D002F08EFBDFF82427DFF824179D
:105B50001678DFF82457FF23FE2E19D10027DFF82F
:105B60001C67DFF81CC7177034782C7007E07C1CAA
:105B70000EF80740DCF800E00EF80730E7B23478A2
:105B8000D1F800E0A742F2DB0EEB040606F8013C78
:105B90002E7846450AD202F06BFB0520FEF720FC6A
:105BA00000211B2002F0E8FBFF2020E0A6EB080606
:105BB0002E701578DFF8CC661778D6F800E001244F
:105BC0000EF80740A8F10108D1F800C01CF8074002
:105BD00014705FFA88F4002CEED1DFF890260CF8F0
:105BE000073000211368595502F042FB2846BDE8F2
:105BF000F08110B5044602F035FBDFF8881609681D
:105C00000A5D521C0A55BDE8104002F031BBF8B5E0
:105C1000044600F031F8054602F024FBDFF8503668
:105C2000DFF85476DFF84CC6DFF858E601E02C4682
:105C3000FF25FF2C1CD022460FE0DCF80010895C09
:105C40000026A6543C78641C3C70FF29DCF80060F8
:105C50001C78B4541A70EAD00A46DEF800108C5C46
:105C6000661E8E54DEF80040A15C11F07F0FE4D078
:105C7000BDE8F24002F0FCBA10B5DFF808160A6879
:105C8000145C210605D5DFF8E02513684001185C97
:105C900010BDFF2010BDB0B504460D46FFF7ECFF68
:105CA000FF2818BFFFF7B3FF2846FF28DFF8D47599
:105CB00004D13868015D01F07F0105E0FFF799FF2D
:105CC0003868015D41F0800101556401DFF89805F5
:105CD00001680D55B0BD0EB430B504460120FFF784
:105CE0002CFFDFF884150A68FF2802EB40110ED064
:105CF000DFF8782513681C5403AA002304E052F847
:105D0000045B01F8015B5B1CDDB2A542F7D330BC3C
:105D10005DF810FB7CB504460D4605F11F0000043C
:105D2000400DC0B2FFF709FFFF2806460DD0DFF88F
:105D30003C0501688D553CB1012000902B460022A6
:105D40003146204600F002F8304676BDF3B50546F0
:105D500081B0DFF81805016817469DF808201E4637
:105D60008B5CF419A34203DA4FF4B77100F0E0F84A
:105D700030000CD0089C394602A800F0DDF802463D
:105D80009DF8081000943346284600F001F8F7BD4E
:105D90002DE9F047089DDFF8DC64DFF8CCA48046ED
:105DA000894614461F460DE02900224612BF41468F
:105DB00001464046FEF77EFA30683F1BA04410F8CB
:105DC00009900024F8B270B1DAF80000214600EB27
:105DD0004913581851FA87F12029B2BFFCB2C4F117
:105DE0002004E4B2E0E7BDE8F0872DE9FC41074676
:105DF000DFF8780488460168CC5D15461E462919EF
:105E0000CBB2A34206DB28000DD0C9B2384600F061
:105E10005BF808B1182007E000962B462246394669
:105E20004046FFF793FF0020BDE8F6810123DCE741
:105E30000A4600E0521C1378002BFBD1521A0123B2
:105E4000D2B2D2E72DE9F041804601F11F0402F100
:105E50001F00E404C004240E000E04B9012400B99C
:105E6000012084422AD0DFF80C5419DA001BC0B29A
:105E7000FFF763FE0746FF2808BF00201FD0641EFF
:105E800000F01FF82E68305CFF2804D000F019F8ED
:105E9000305CFFF7BCFE00F014F829680F540DE0E9
:105EA0008A420BD2411EC9B200F00CF804462868A1
:105EB000005DFFF7ACFE2968FF2008550120BDE812
:105EC000F081E1B2404610E070B5DFF8A0633368BE
:105ED00005460C46595D2246FFF7B4FF18B13068FD
:105EE0004455002070BD182070BD04E0DFF8842305
:105EF0001368185C491ECAB2002AF7D1704731B541
:105F00000C46DFF868130A68155CAC4203D340F214
:105F1000052100F00DF82146684600F00DF8DFF885
:105F200048139DF800300A6802EB4311084432BD63
:105F30000FF2543000F042BD38B504460D46C90496
:105F40002078090EFFF7D1FF207005F01F0032BD49
:105F500080B5FFF7D4FF007802BD10B51446FFF7F7
:105F6000CEFF047010BDF8B5DFF800530446286872
:105F7000065DFF2C03D140F22521FFF7D9FF06F182
:105F80001F01C904080EFFF7D8FDFF28074609D0F6
:105F90002868C6550096002322460021384600F0A6
:105FA000C2F83846F2BDF8B505460E461746012040
:105FB000FFF7C3FDFF28044610D0DFF8AC023246DD
:105FC000066806EB44163B462021701900F01FF8C6
:105FD0002D18DFF8980201680D552046F2BD1CB55A
:105FE00004AC009400F001F816BD10B514461A4632
:105FF000029B2044091BBDE81040C9B207E00CB465
:1060000080B502AAFFF7CFFF02BC5DF80CFB2DE9BB
:10601000F04781464F460024884615469A460CE0D4
:10602000F6B23419444542DA32463846FEF742F9B0
:10603000BF19641E641C6D1CE4B2444537DA28782D
:10604000A8B3312818BF32280ED15AF8041B07F81C
:10605000011B3228EED1641CE4B2A045A4BF091292
:1060600007F8011BE6DA22E034280ED1211D5AF888
:10607000040B88451BDB3870020A010C000E7A7095
:10608000B970F8703F1DE41CD4E7A0F133035AF84F
:10609000041B072B38BFA0F13006C1D3A0F1410388
:1060A000072B34BFA0F137065AF8046BB8E7A7EB0B
:1060B0000901C8B2BDE8F0876D49FE20087070473D
:1060C00070B500F02BF800F003F8301880B270BD06
:1060D0000602294620463BE7E0B58DF8042001235F
:1060E000120A8DF8052000930A460146022301A8F2
:1060F000FFF72CFE07BDF8B500F010F8FFF7E8FF3A
:106100008619E91CC9B2FFF7E5FF0702AD1CE9B229
:10611000FFF7E0FFC01906EB0040F2BD0D46691C19
:106120000446C9B214E7FDB5089C20000D461E4682
:106130001BD1F7BD4C4B9DF804001B6803EB4010CE
:10614000C2F12002D2B2BA42B8BF174681199DF8F7
:10615000000003EB40133A465819FEF7ABF8E41B76
:106160007D19BE19A0B200B9F7BDA9B26846FFF704
:10617000E3FE0546B1B201A8FFF7DEFE0646B542D2
:10618000A7B2B4BF32462A46D4E770B504460D46DE
:1061900002F068F83A4A23781268FF2B08BF555579
:1061A00003D013441E7856551D702570BDE870400D
:1061B00002F05EB838B5044602F054F82178FF22A8
:1061C000FF2908BFFF2507D02D4B1B685D5C8D4262
:1061D0000EBF22705A5D5A5402F04AF8284632BD6A
:1061E000F8B504460D4602F03DF821780026FF2957
:1061F00013D0234B1B680A46012603E08F420CD0C4
:106200003A46761C9F5CAF42F8D1DF5D9F54A942AD
:1062100003D18A4208BFFF22227002F029F8F0B2AF
:10622000F2BD0078FF2801D101207047002070479F
:1062300010B5044602E0FFF7EAFC2046FFF7BAFF7C
:10624000FF28F8D110BD30B50D4B00781C68255CD7
:10625000954203D02846255C9542FBD1215418680D
:10626000425430BD00000000306100203461002045
:10627000AD6400203C6100208B6400208A64002013
:1062800040610020386100207061636B65742D628D
:1062900075666665722E630070B5134610440BE098
:1062A00001F00F060909451E0A2EACBF3724302421
:1062B000A41928462C705B1EDCB2002CF0D11044CF
:1062C00070BDF0B5002341B1002806D52D23137011
:1062D0000123B0F1004F18BF404200210024894D36
:1062E00055F82470002601E0C01B761CB842FBD292
:1062F000F7B20FB90F0004D0D9B2303656545B1C38
:106300000121641C092CEBDBD9B2303050545B1CEA
:10631000D8B2F0BD2DE9F84F804696B014A8894652
:1063200015469B4604AF4FF0000A002401901EE082
:10633000012405460DE03429FAD15BF8046B0422F0
:10634000310C3846FFF7A8FF0422B1B2FFF7A4FFD3
:10635000074601998F4209D39DF800003F1A00F0CB
:10636000C5F8002853D15AFA87FA04AF6D1C04A867
:106370008DF800009DF800002978381A00290BD00C
:10638000252903D014B907F8011BE2E7002C14BF3C
:1063900000246D1C29780A0000F09B80B1F12502D1
:1063A00016D00B3A092A40F28380283A7AD00A3A6A
:1063B00012D0521E42D0521E5CD0083A5AD0121F40
:1063C0003FD0D21E3DD0921E54D0D21E6AD0C0E71C
:1063D000252007F8010BBCE704A8DBF80010DBF868
:1063E00004208DF800000BF1080B3846039102924F
:1063F0000027029A9742ABD20399C95D0222FFF7A8
:106400004BFF0199884206D300F074F8002869D147
:106410005AFA86FA04A80299491E8F423CBF2022EC
:1064200000F8012B0199884206D300F063F8002898
:1064300058D15AFA86FA04A87F1CDAE75BF8040BF5
:10644000C7E75BF8046B074600F050F8002849D115
:106450005AFA87FA04AF0022314600E0521CD6B245
:10646000885D0028FAD1D2B24846C047002839D109
:10647000B2446EE76C290AD16A785BF8040B752A7E
:106480000EBF00210121642A07D16D1C05E075298A
:106490005BF8040B0CBF002101213A46FFF711FF06
:1064A000074456E75BF8041B0222C9B238464DE7A1
:1064B00068780124782818BF5828F2D16D1C002470
:1064C000681E32297FF437AF5BF8040B81B20422D7
:1064D000ECE70546EAB200F00AF818B9AA445FFAF8
:1064E0008AF000E0002017B0BDE8F08FFAB204A9EE
:1064F000484640479DF80020861AF2B204A9484653
:106500004047000020F6020070B5FFF740FAAA4CA1
:106510002046FFF786FED8B92046FFF74BFEFF283E
:10652000044615D0A5480168085D851EE9B22046DD
:10653000FFF7C6FD0646E9B22046FFF7C5FC214637
:10654000304600F0E9F82046BDE87040FFF75FBB39
:1065500070BD03460A4696A10420FFE70CB480B53F
:1065600002AA00F031F801BC5DF80CFB0A000346FA
:1065700002D090A11120F1E77047000080B586B0ED
:1065800002F08CF98022049200218D4A0092672348
:106590000591039302910191024600238CA10120F1
:1065A000FFF7DCFF874881790288437903910292E3
:1065B00001930179C37882780091422087A1FFF787
:1065C000CDFF07B000BD00002DE9F04F85B00546B6
:1065D0000F469046FDF713FF0024F0B9FFF75AF974
:1065E000D8B10120FFF7A9FAFF28824615D0002173
:1065F000FFF79EFA294601A8FFF752F9054687BB27
:1066000000F083F830B95046FFF756F910B1042076
:10661000FDF7E6FE5046FFF7FAFA05B0BDE8F08F49
:106620008DF8041001251BE0644858F8046B0068DD
:1066300010F80A90F2B2FF2A12D0F1B210F801B0AD
:106640000BEB0901C9B25046FFF73EFC0028E1D12F
:10665000CDF800B00023F2B249465046FFF763FD83
:106660007F1C38780028CBD0A0F130010A2904D251
:106670000A2101FB0404303CF2E700F046F8002850
:10668000C8D139780025422901A80ED044291AD052
:10669000462925D057290DD06229C5D066292AD090
:1066A0006C2925D0702926D0BAE758F8040B8DF84C
:1066B0000400B7E758F8041B8DF8041002250904FC
:1066C000090E4170CCE758F8041B8DF804100B0A32
:1066D0000A0C090E437082708DF807100425BFE77D
:1066E00058F8041B5046FFF7A3FB0028B8D091E7E9
:1066F00058F8044BB4E758F8041BE2B25046FFF7D1
:1067000095FB002808BF0024F0E72A4601A950465F
:10671000FFF78CBB000000002DE9F043122885B084
:1067200080460D4609D03A281ED04FF6FE718842A9
:1067300004BF284600F0DBF833E02048224F016810
:106740004E5D2846FF282CD0212EB4BF344620248D
:10675000FFF7E8F901462246002001F018FB3868EF
:10676000455D203EF6B2ECE702F040F9814603F0C9
:1067700060F8064602F0E2FB074602F0DBFB044647
:1067800003F053F811490B8816A1029302460C48F6
:106790000390CDF810900196009723463B20FFF719
:1067A000DDFE2946404605B0BDE8F043FDF748BE92
:1067B000574600006C700000AE6400203461002079
:1067C000207B002010F802003C610020746400204F
:1067D00042423870424242425742420042424242A2
:1067E000574200005742425757387042000000009D
:1067F000DFF800F0E95F002038B504460D4603F0ED
:10680000B1FB012C02D1FFF7F3FF02E0284603F0B1
:106810003DFC18B103F0AFFB012032BD03F0ABFB30
:10682000002032BD80B58308800705D54FF6FF7282
:1068300042EA0142009204E041F07F4141F47F01CD
:10684000009104226946980003F05FFC02BDF8B590
:1068500006460D4605F0010106F00100014314460D
:1068600001D00120F2BD9CB132462B46611C4FF68F
:10687000FF7C01E0921C9B1C491E0BD017886745CA
:106880001CBF18880028F5D04B20F2BD03F073FB25
:106890000020F2BD03F066FB012C01D0B00707D544
:1068A00035F8021B3046FFF7BDFFC0B9B61C641EA9
:1068B000022C0CD367087F007A002946304603F08B
:1068C00024FC60B906EB470605EB4705E41B002CEA
:1068D000DCD029883046FFF7A5FF0028D6D003F08A
:1068E0004AFBD1E77047002070470020704770478F
:1068F00001987047704770477047702003F028BCBC
:1069000070B5044643381F4D08D0401E012809D9F0
:10691000801E01280ED9C01F32D02AE0BDE8704089
:10692000FEF7F2BEFEF71AFF20B1FEF7EDFE0028DB
:10693000FBD170BD144E307810BB01213170FDF7D2
:1069400067FC442C12D00CD3462C05D00ED3472C18
:1069500007D140F6010001E040F6020003F000FF1D
:1069600004E04FF49071284600F028F800203070C1
:1069700070BD2846BDE870404FF4997100F01EB814
:1069800070BD0000D4F60200C77F002070470020D1
:106990007047002070470120704701207047002099
:1069A0007047704702F077B90020704701207047A8
:1069B000704700200021704742DE704738B504461A
:1069C0000D4602F0AFFC00F027F903F01DFF294649
:1069D0002046FFF7BEFD2B4622466C490120FFF7FB
:1069E0008DF829462046BDE83440E5E768482DE9A2
:1069F000F843684E0168B1654FF42068026A664941
:106A0000F2650B68336649687166426AB266816AEC
:106A1000F166C26A3267016B7167806B96F8381055
:106A2000B06748074CBF346CF46B03F0D3FE002210
:106A300032658442594B014624BFA3F12007A74287
:106A4000A146716506F19002DFF854C1DFF854E108
:106A500018D3A0697064E469B464B56DC5F3080522
:106A6000062D13D1704511D360450FD200884DF625
:106A70004264A0420AD17068B4685060946040F2E9
:106A8000017803E000247464B4648146464881427E
:106A900002D2014600E0091D0846984203D20C6864
:106AA000B4F1CD3FF7D04149081AF064002100202D
:106AB00006F17C04C5B2401CC7B244F82510062F6D
:106AC000F8D3002099452CD253F8041D7145F9D311
:106AD0006145F7D2CC07F5D5002406F17C0555F8C1
:106AE00024708F4202D0641C062CF8D3062CE9D106
:106AF000C4B2002C0CBF0520401E06F17C04C5B2B8
:106B000044F82510DEE7F16F002306F17C0506EB63
:106B10008304D4F8804045F823405B1C042BF6D94D
:106B200011600146481EC9B20029ECD1B06DC0F316
:106B30000800032810D0042811D0052812D00628F8
:106B400013D00C2817D0122818D1194802689107C1
:106B500019D540F2025816E040F6012813E040F63D
:106B6000022810E040F603280DE0B8F5206F0AD1A6
:106B700040F6042807E040F6052804E018B1322862
:106B800038BF40F607284046BDE8F28304F1020012
:106B900004ED00E00000002000E300E0E85F0020DA
:106BA00012F00200104200009C000020E85F00206C
:106BB0001C20054003F02CBE7FB50121204800F0C9
:106BC00001F901220121012000F042FB04210720EC
:106BD00003F020FE1B4A92E838006946032281E850
:106BE00038000D218DF8081001268DF809208DF848
:106BF00000608DF807606946134C204603F086FE5E
:106C00001249042008600222114962620860A26AE7
:106C100042F00202A2627FBD0B4803F06BBEA528C2
:106C200003D10021084803F04CBE704706480068B5
:106C300000F001007047074908680028FCD1704740
:106C400030053E0084F102000020054080E200E0B3
:106C500000E100E008200540890001EB401101F14E
:106C600084410A607047890001EB401101F18441C1
:106C700008687047012101FA00F0704710B5012241
:106C8000DFF8B815884202D20022002407E0DFF8BE
:106C9000B015884234BF4FF080744FF0007410215B
:106CA000DFF8A005FFF7D8FFDFF8C006016821F084
:106CB00080710C43046010BDDFF88C15DFF88C3553
:106CC0000A6802F04072984238BF002204D3DFF80D
:106CD000A036984238BF0122086820F0407040EA90
:106CE00002600860704738B500F013F841F6713063
:106CF000286003F050FE002105E038B500F009F8E7
:106D000041F671322A60FFF7D7FF0CB100202860EE
:106D100031BDDFF8F4562C6804B101247047C01C63
:106D20000F2801D2000770474FF0704070470000F5
:106D300038B50446002500F053F9DFF83826DFF8AF
:106D40001C16944208D0DFF83026944206D0DFF8B3
:106D50001026944204D006E0086802E0486800E08B
:106D6000886800F00700401E03281AD8DFE800F00A
:106D700002050C0803F055FE04E003F058FE01E0A4
:106D800003F052FE05460CE003F007FE0446DFF870
:106D9000DC050168C1F30060401CFFF76BFFB4FB2A
:106DA000F0F5284632BDDFF8A8164A68D30702D4AA
:106DB0000A680242FCD1704780B500F0D1F8401C4F
:106DC00002BD000070B50C460246110A01F00F0129
:106DD0000020491E0929DFF8845613D8DFE801F0A6
:106DE00005131212071518121B1FDFF85854C2F3AF
:106DF000043608B1FFF7D7FF224631462846BDE8E2
:106E0000704029E770BD1035F1E730350120EEE71D
:106E100038351020EBE740354FF48030E7E7DFF8F6
:106E20004056E4E7F8B50646DFF82806DFF84425C3
:106E30000768DFF84415DFF82805DFF8304501253D
:106E400016F4781365D0B3F5003F2BD0B3F5802F3F
:106E500024D0B3F5202F5CD0B3F5402F28D0B3F564
:106E6000602F4ED0B3F5801F77D0B3F5A01F2AD086
:106E7000B3F5B01F2FD0B3F5D01F35D0B3F5F01F49
:106E80001FD0B3F5001F2DD0B3F5101F36D0B3F5CA
:106E9000481F41D0B3F5781F55D05DE003F07DFD6C
:106EA000E16802E003F079FDA168C1F3082104E084
:106EB00003F073FD6169C1F30421491CB0FBF1F7D4
:106EC0004BE010461AE0FFF733FF0746206B00F057
:106ED0000F00C74041E01046FFF72AFF216A01F08A
:106EE0000F0107E0084609E00846FFF721FFA16A05
:106EF00001F003018D40B0FBF5F72EE0FFF718FF1E
:106F00001FE0DFF8600500F06BF8072825D009289E
:106F100022D103F042FD14E0DFF84C0500F060F8E8
:106F200004280CD0072818D0082815D103F035FD07
:106F300007462068C0F30420401C47430DE003F0DF
:106F400048FD074609E003F028FD04463046FFF7F8
:106F500033FFB4FBF0F700E000273846F2BD000035
:106F600001460B0903F00F0301205B1E092BDFF81C
:106F7000FC2332D8DFE803F005070B11313113177A
:106F80001F29106800E05069C0F3042070471168A1
:106F9000090E01F00101491C14E0D06800E090687E
:106FA000C0F308207047DFF8C434994215D1116A44
:106FB00001F00F0106E0DFF8B83499420DD1916A73
:106FC00001F003018840401E7047DFF8A8048142A9
:106FD00003D1106B00F00F007047002070470000D5
:106FE000014601F00F010120491E0729DFF888241E
:106FF00049D8DFE801F0040F1348202E4836506AC4
:1070000000F0070002283AD002D3042804D01CD391
:107010000520704711690FE002207047516901F0A7
:107020000701491E03292FD8DFE801F00F020311E1
:10703000F2E706207047916901F00701012904D0A9
:107040000229E9D0042902D07047032070470A20A2
:107050007047116811F001010FD0012914D10920E6
:107060007047DFF818140A6802F03002102A04D0C2
:10707000202A04D0302A04D070470720704704200B
:1070800070470820704700207047000070B500F07E
:107090000F0003250326401E0728DFF8DC430ED827
:1070A000DFE800F0042C30742E5874630229634822
:1070B00006D0032919D0042919D005291CD070BD88
:1070C0000425002601220121304600F0C1F8FFF717
:1070D0000AFE656003F052FC044603F05EFCFFF715
:1070E000CDFD2046BDE870405EE00126EAE70225BE
:1070F0000226FFF7C3FDE5E70125FAE7103402E0B9
:10710000183400E01434012929D0022906D00329BB
:107110000BD0062910D00A291AD070BD01220121F6
:10712000002000F095F802201AE001220121012040
:1071300000F08EF8012013E003F02FFCFFF79EFD16
:1071400001220021DFF81403FFF786FD032007E08A
:10715000042005E0072902D0092903D070BD0020D2
:10716000206070BD0121216070BD012906D0042975
:1071700014D007290BD0082914D070BD0020DFF8E7
:10718000FC120A6822F030021043086070BD012230
:107190000121042000F05CF81020F0E700F006F870
:1071A0002020ECE73020EAE70021A6E501220121BA
:1071B00002204DE070B5044600F03DF801220021A8
:1071C000022000F045F8217CDFF8B85200200229A7
:1071D000296808BF0120490840EA410028600821C9
:1071E00022782846FFF738FD6968E07AC90840EA46
:1071F000C1016960607AA18840EAC120A860EE6898
:10720000207AFFF78CFDE288A17A06F07F6646EAD5
:10721000C226227A0E4346EAC2160643EE60A17BDE
:10722000607B227B090141EA0031E07B014341EAB6
:107230000241296170BD1120D2E600000148E80139
:107240000190D00300400E4004000E4041787D01C3
:107250002DE9F84F0428834692466DD8DFE800F008
:10726000504B41034600012702200125002600293A
:10727000DFF8E481834C61D0BBF1020F02BF2068CC
:10728000C0F3011000284FF000090AD12068C1079F
:107290004FF0010905D5206820F0300040F01000C3
:1072A0002060E763314600F05EF80028FAD0BAF1BA
:1072B000000F41D000F056F80028FBD0BBF1020FC0
:1072C0003AD1B9F1000F37D02068C1071FD54FF46C
:1072D0008060C8F8180020212164022000F096F890
:1072E00019E00427082003250226C0E710272020E4
:1072F00005250426BBE74027802007250626B6E79C
:107300004FF480774FF4007009250826AFE700217D
:10731000022000F07BF8D8F80C6001220021022046
:10732000FFF796FFC6F30A01022000F027F8E76393
:1073300000F018F80028FBD0BDE8F18FE063D8F822
:107340000000F040C107FAD4BAF1000FF4D0D8F829
:107350000000E840C107FAD4EEE7000080400E408C
:107360000500240029464046FFF77DBC00410E4041
:10737000015A620202001E0003002000F8B5401E00
:107380000D46032805F07F063D4C314F3BD8DFE822
:1073900000F00228101CC5F308051A213846FFF733
:1073A00062FC0028F9D12069400A45EA40252561A0
:1073B000F1BD18213846FFF756FC0028F9D12068A6
:1073C000C00946EAC0162660F1BD19213846FFF70C
:1073D0004AFC0028F9D1A068C00946EAC016A66098
:1073E000F1BD1D480168626922F0300242F01002CE
:1073F0006261C5F3C310FFF792FC226A22490A407A
:10740000154305432562F1BD40000E401D4A10683A
:10741000C0F30110002818BF002911D0202902D084
:1074200030290DD00FE04FF40000D16E01408142B1
:10743000FBD1400209D5D06F800A00F001007047EF
:107440004FF44000F1E71148EFE7012070470000DA
:1074500040410E40A861002090400E40B0400E40D8
:1074600050410E4006000E00B800320080061600A3
:1074700090071A00A009140070400E405C410E40B5
:1074800010400E4024400E4000F8FF0FFF03E107BC
:10749000890001EB401101F184410A60704700F15D
:1074A000C0600160704700F180600160704738B5CE
:1074B00004461546FFF7F7FF29462046BDE834404D
:1074C000EDE710B500F011F8BDE8104003FA01F146
:1074D00002F10C00E7E710B500F007F8BDE8104036
:1074E00003FA01F102F10C00D9E730223F4C50437E
:1074F0000123221870473E490A68920840EA820038
:10750000086070472DE9F04101F003051646032499
:107510000F21082E98460CD2B70000FA07F2B940A6
:107520003448FFF7C4FF05FA07F204FA07F13248BE
:107530000DE0A6F10802970000FA07F2B9402F48C3
:10754000FFF7B5FF05FA07F204FA07F12C482D4FB3
:10755000FFF7ADFF079C069D2B4842463146FFF7DB
:1075600097FF2A4631463846FFF792FF22463146BA
:107570000120B0403861BDE8F041244888E7F8B503
:107580000546174638000E461C4607D0002C2846F4
:1075900002D0FFF7A0FF01E0FFF793FF2A4630205B
:1075A0001249424388180F22082E05D2B3004168C1
:1075B00000F015F8416006E0A6F108039B00816821
:1075C00000F00DF881604FB9002C3146284602D0FA
:1075D000BDE8F4407FE7BDE8F44072E7F1BD9A40B2
:1075E00021EA020207FA03F11143704700A00040AC
:1075F00044A4004000A4004008A4004004A40040AB
:107600000CA4004014A4004010A4004028A4004092
:1076100010B5DFF84841DFF84811E161032020612F
:1076200060614FF48061DFF83C01A06121620022BB
:10763000A26220666262E262A1662267E31DDFF851
:1076400028016066E26629A0626707220168196066
:107650002046DFF8181100F0F9FD2023A37110BDBA
:107660002DE9F843DFF8F45004462878884691461F
:1076700008B9FFF7CDFF18204443281900F1600630
:1076800000243769F568BD4212D2B4687068E41B03
:107690004C4588BF4C46C1192246404600F0D6FDF5
:1076A000B168E7198F42A044A9EB040908BF00277D
:1076B000ED1B4D4588BF4D463DB17068C1192A4646
:1076C000404600F0C3FD2C19EF1904B13761204684
:1076D000BDE8F28310B5EFF31184202383F3118802
:1076E000FFF7BEFF84F3118810BD00005254540010
:1076F0002DE9F84300F029F808B9FFF789FF00F0F9
:1077000037F87B6900214FF0180C07F1640E0CFB71
:1077100001F95EF8090010B1491C9942F5DB994264
:107720000BDA0CFB01F3F818002304664566866645
:107730000367C366C0F8748001E04FF0FF31FFE7D4
:1077400082F311880846BDE8F283044F0446387876
:107750000D461646984670475AE70000846C002094
:107760002C6D002054F602002C71002060F60200FF
:10777000EFF31182202080F3118870477FB500F06D
:1077800011F818B900F015F803F095F904B070BDC0
:107790007FB500F007F818B900F00BF803F0A3F973
:1077A00004B070BD0446084615461E4602A903F003
:1077B0005DBA0899099800910190334602992A46CA
:1077C0002046704780B500F00DF880B202BD80B54C
:1077D00000F008F8FA21B0FBF1F080B202BD000021
:1077E00000BF0000E0B503F029FA6A4603F070FA22
:1077F00018B147212BA0FFF7E1F8DDE9000103B044
:1078000000BD000080B503F0A9FB01211748FFF778
:10781000D9FA03F025F920B15FF0520121A0FFF75A
:10782000CDF8002002BD1249012008707047FEB556
:1078300004460025216801B91EE000F00CF808B1EB
:1078400000F002F801201BE001950095002321685B
:107850003A46301D92E7064E064F357000230093DE
:1078600001953A46301D93E70000000030053E00C8
:10787000687600202778000003F030FC0020FEBD71
:1078800003F0D4FC307840B92146301D03F09FF955
:10789000206803F000FA852501E0002030702060A8
:1078A0002846FEBD73797374656D2D74696D6572BC
:1078B0002E6300000A0A42EA01225040C0F303117D
:1078C000484080EA003041010206C9B2D20E41EAC6
:1078D0000221484080B27047010008D4012200F024
:1078E0001F01DFF870378A40400943F820207047B5
:1078F00001000CD4012200F01F01DFF85C378A4040
:10790000400943F82020BFF34F8FBFF36F8F7047BC
:10791000010008D4012200F01F01DFF840378A403F
:10792000400943F820207047C26C1143C16470477E
:10793000012803D9103801D0103801D10120704737
:107940000020704710B5DFF8184730B1012807D084
:10795000102802D0202803D004E00020204410BDCD
:107960001C20FBE740F28311DFF80808FFF726F838
:10797000204610BD426893884089411A8B4201DA43
:1079800001207047002070477FB50446FFF7D0FF05
:1079900000283BD0204600F077F890B300F0D2FAF0
:1079A000054600F05FFC0646A86901AB6A4602A9DD
:1079B00004F07AFB00992A89286889B200F027F838
:1079C000304600F055FCA86904F0E6FB012818D108
:1079D0002A68298990882A8A091A914211DBA869A4
:1079E00090F83110022903D104F05CFB022804DA7C
:1079F000A86990F83110012903D1A869002104F089
:107A0000A4FB200014BF102CFDF7C1FF7FBD70B593
:107A100004460E46154600F025FCE288B2420CD220
:107A200021888B1A991991FBF5FC05FB1C15258003
:107A3000A388F3189A1AA280E68000F0D0BBF8B5AC
:107A400004460D46164600F01FF8B0B100F07AFA71
:107A50000446207B10B101216173F1BD607B18B138
:107A60002046BDE8F240BAE00FF2D91700F006F860
:107A700018B100F003F80028FBD1F1BDA0693B4626
:107A80003246294604F066BC012818BF202801D1DF
:107A9000012070470020704770B506460D46FFF77D
:107AA00051FF012E18BF202E044643D1A069016862
:107AB00090F83200E0B904228A6400F057F9A06916
:107AC00000683DB10421FFF72FFF0B20FFF704FFF3
:107AD000052107E0C16C21F00401C1640B20FFF710
:107AE00007FF0021A0690068BDE8704004F09CBC5D
:107AF0000420486300F03AF9002DA0690BD001681A
:107B00008A6B42F004028A634FF40061DFF8442577
:107B10001160052109E00068816B21F00401816397
:107B20000B20FFF7E5FEA06900210068BDE870406A
:107B300004F0FDBC70BDF8B50446DFF83C06814298
:107B40001D462AD00026F2B21C20DFF8141542434D
:107B50008F18BB69A3421CD13A893868A9B2FFF7D4
:107B600056FF38680021C18002E0384600F016F860
:107B7000204604F097FA02280BDC3889F9893A6824
:107B8000A0EB410091888842EFDA0121204604F001
:107B9000DCFA761CF0B20228D5DBF1BD70B50446E4
:107BA000DFF8D835E089668A2568024670432E18CA
:107BB000A06906F1080104F089FBA06904F072FADB
:107BC000012803DDA069002104F0BFFA608AA18AC0
:107BD000401C90FBF1F201FB1200608270BDFEB50B
:107BE0000446207B68BB60680FF259064188084450
:107BF00000F10807A0696B4601AA02A904F075FA12
:107C000061688A880098019D121A551B4A88088865
:107C100090420ED26189A0698A1A3346394604F02F
:107C200099FB70B96268618950886D1A451902F133
:107C30000807A0693346EAB2394604F08BFB00B965
:107C40006073F7BD2DE9F041054698460027F9B26B
:107C50001C22DFF80C0451434418A369AB4218D12D
:107C600060688188414534BF8688464600F0FAFA4C
:107C700061684A8812FA86F1628991FBF2F302FB8D
:107C800013116268518061688A88961B8E8000F0AB
:107C9000EFFA7F1CF8B20228D9DBBDE8F08138B5D5
:107CA0002020FFF74FFE0546DFF8D404A96991F8BC
:107CB0003120012A3FD101690A0640D504F024FC95
:107CC000112809D1A869002104F04CFA002028737A
:107CD0002846BDE8324082E7132806D1A869012171
:107CE00004F040FA0120287331BD29682A898C8864
:107CF000141BA4B25CB101F1080209885054286831
:107D0000018800F095F901808188491C8180A8696B
:107D100004F042FA20B9E889A04210DB012105E015
:107D200001280CD1288A844209DB0021A869BDE81A
:107D3000344004F00ABAC16C21F00401C16431BDC1
:107D400010B5DFF83C4428B92046BDE810400021BA
:107D500004F06ABB00F00AF8DFF8F8124FF4006094
:107D60000860E26C42F00402E26410BD0B20CFE533
:107D700080B530B9BDE804400521DFF8040404F003
:107D800053BBFFF7F3FFBDE802400B20B0E5F8B5A9
:107D90000C461546FFF7D6FD0646306881883289C5
:107DA000E8B2121A914201DB0120F2BD00270EE079
:107DB00000F058FA316814F8012B01F10803098822
:107DC0005A547F1C31680A88338900F038F9AF4271
:107DD000EED30020F2BD10B5012818BF20281CD119
:107DE000FFF7B0FD0446A06904F034F9800414D50F
:107DF0006168888888B9A06904F073F9002802BF17
:107E0000A06990F83210002907D104F023F900F49A
:107E10004030401E8041C00F10BD002010BDF8B59D
:107E2000012804460D4603D9103801D0103850D12E
:107E3000204600F0DBF910B9204600F085F800F08C
:107E400081F8064600F07EF821000FD0012C03D007
:107E5000102C0BD0202C3CD1DFF82813DFF828237E
:107E60000160802342600381438109E0DFF81C2325
:107E7000DFF81C13026041604023802103814181AF
:107E8000200018BF102C03D1BDE8F140FDF7AABCBB
:107E9000012C18BF202C53D1012C16BF202CDFF849
:107EA000F4020020012C18BF202CB06111D1DFF8A2
:107EB000E812DFF8E802E961A861A98CF181EB8C96
:107EC00033828B4207D21C21304604F063FB022030
:107ED000F2BD0120F2BDB26992F8310001280CD048
:107EE000308990FBF1F701FB1700002802BF93FBDC
:107EF000F1F001FB10310029E5D12946104603F0CD
:107F0000A5FCF0B9B069017F007E01230222FFF7D2
:107F100036FB287C012808D101212046FFF7BCFD53
:107F2000B069002104F011F90AE000207082318963
:107F3000F08991FBF0F0B08200F055F900F053F9B0
:107F40000020F2BD2046FDE458B50128044603D9BF
:107F5000103801D0103812D1204600F047F9E8B9A6
:107F6000204600F01DF9FFF7EDFF012C18BF202C73
:107F700006460FD1B06903F09CFF10B152BD01203D
:107F800052BDB06990F83110012903D1002120467B
:107F9000FFF782FD1C21304604F0FCFA002052BDA0
:107FA000F8B5074601280E463C4603D9103801D0E3
:107FB00010380BD13846FFF7C5FC05463846FFF7A9
:107FC000E3FC2968888818B92620F2BD0120F2BD9B
:107FD00000F048F90746286800F1080140880A5C6B
:107FE00032702868418800F023F8418081884A1E59
:107FF000012C18BF202C828015D1A86990F831106F
:10800000012903D10FE02846FFF7C8FDA86904F055
:1080100049F8022807DA2889E9892A68A0EB410093
:1080200091888842EFDA384600F022F90020F2BD4C
:108030002A89491C91FBF2F302FB13117047521C71
:1080400092FBF3FC03FB1C220A808A88521C8A8064
:1080500000F00EB900E100E080E100E080E200E025
:10806000F46800202DE9F84F0128804604D9B0F1CA
:10807000100301D0103B10D1002818BF10288946EA
:1080800092460CD0FFF75EFC06460024706801881B
:10809000084400F1080B00252FE0012045E051467F
:1080A0004846FEF763FA3FE000F0DCF871680B88A1
:1080B00019F8012B19440A7271680A887389521CD5
:1080C00092FBF3FC03FB1C220A808A88521C8A80E4
:1080D00009884F1EBF4100F0CBF8FF0F67B1EFB228
:1080E0007F1C3F1BFAB259464046FFF7A8FC706858
:1080F0003C19E4B200F1080B6D1CE8B250450AD2FD
:1081000000213046FFF736FC0028CDD1307B002817
:10811000F6D0222009E0544506DAAAEB040082B228
:1081200059464046FFF78BFC0020BDE8F28FF8B5BA
:108130000124012807460E46154603D9103801D000
:10814000103815D1380018BF102F04D129463046F9
:10815000FEF70CFA00243846FFF7F4FB012F18BF96
:10816000202F05D180692A46314604F017F80446CD
:108170002046F2BDB0F00200097000F0377B00002D
:1081800000000140E46700206C68002014670020B4
:108190005C6700202C690020B06000203060002067
:1081A00070B50546FFF7CEFB0646012D346818BFB3
:1081B000202D0DD1B06990F83110012908D002218D
:1081C00003F0BEFE0020708200F00DF800F00BF806
:1081D00000F048F80021A18021806180E180BDE8A5
:1081E000704000F045B83046FFF7D8BC80B5012894
:1081F00004D9B0F1100101D0103906D1FFF7A2FB6C
:1082000000281CBF0068002801D1012002BD002009
:1082100002BD30B4002513E050F8042BD30744BF4F
:10822000A9F101039A18091F042942F8045BFAD244
:1082300013468C0744BF15809B1CC90748BF1D709F
:1082400050F8041B0029E7D130BC70474AB1000048
:1082500011F8013B521E00F8013B1CBF11F8013B15
:10826000F8E77047EFF31180602181F311887047C0
:1082700080F311887047000010B5364C08220021A9
:10828000201DFCF75EF804F09FF9207004F09CF9C3
:10829000607004F099F9A0702F480178E17010BD6A
:1082A00010B500F047FE2D4C2178884203D00846D7
:1082B00000F048FD48B900F041FE94F906108842EC
:1082C00005D0084600F049FE08B1012010BD6088C5
:1082D00001F095FAA08801F0B0FA2148017801294F
:1082E0000CBF0120002001F077FA002010BD10B56E
:1082F0001C4C0020207004F0BCFD20B92046BDE8D5
:10830000104004F0FBBDBDE81040C9E780B5002077
:1083100000F014F828B1002000F005F808B10020A2
:1083200002BDFF2002BD1048007802281CBF1128A2
:10833000432801D101207047002070470848007889
:1083400001281CBF0228032801D10120704700200A
:1083500070470000D87B0020A164002076640020D4
:10836000D87F0020D07B0020D97F002000207047DC
:10837000702070470020704782B08DF80010DDE952
:10838000002311461A4602B004F0C8BE33B585B0CA
:1083900005468DF8042000F0C3FA0446284600F094
:1083A000CFFA7CB10028BDF818000FD100F099FB7E
:1083B0008DF80000FF2804BF00218DF80010CDF8D3
:1083C00008D016E0A8B106A8029012E000F089FBE0
:1083D0008DF80000FF2804BF00218DF800109DF8E3
:1083E0000000BDF818108DF80C0003AAADF80E10AF
:1083F0000292DDE901010A460146284604F08EFE9C
:1084000007B030BD73B582B00446154600F088FA57
:108410000646204600F094FA2EB120B903A98DF843
:108420000050019105E04FF4057100BF05A0FEF773
:10843000C5FADDE900010A460146204604F06EFE59
:108440007FBD0000656D6265722D6D756C74692D60
:108450006E6574776F726B2D737475622E63000096
:108460004901020003D4DFF8780481547047DFF833
:10847000743402F00F021A4402F8041C704730B53D
:1084800000F007000123C0F10704042C2EBF0724CD
:1084900003FA04F4641EC51C072D34BF0020001F1E
:1084A0002140814003FA00F0401E1040084330BDD7
:1084B000890001EB401101F184410A6070470020FE
:1084C000704770473EB572B602F09EF9DFF81804A7
:1084D000DFF818444169216000F0C5F901466FF0EA
:1084E0000B00FFF7BDFF00F0BEF901466FF00A0078
:1084F000FFF7B6FF00F0B7F901466FF00900FFF78C
:10850000AFFF00F0A8F901466FF00800FFF7A8FFE1
:1085100000F0A1F901466FF00700FFF7A1FF00F09E
:108520009AF901466FF00600FFF79AFF00F093F901
:1085300001466FF00500FFF793FF0022022100F0D3
:108540008CF901466FF00400FFF78AFF00F08FF905
:1085500001466FF00300FFF783FF00F07CF901464E
:108560006FF00200FFF77CFF0022072100F075F991
:1085700001466FF00100FFF773FF00F078F9014644
:108580004FF0FF30FFF76CFF00F071F9014600205B
:10859000FFF766FF0022032100F05FF9014601208A
:1085A000FFF75EFF00F05BF901460220FFF758FF7E
:1085B00000F05DF901460320FFF752FF00F057F984
:1085C00001460420FFF74CFF00F051F90146052059
:1085D000FFF746FF00F04BF901460620FFF740FF8A
:1085E00000F045F901460720FFF73AFF00F03FF998
:1085F00001460820FFF734FF00F039F90146092051
:10860000FFF72EFF00F033F901460A20FFF728FF9D
:1086100000F02DF901460B20FFF722FF00F027F9AB
:1086200001460C20FFF71CFF00F021F901460D2048
:10863000FFF716FF00F01BF901460E20FFF710FFB1
:1086400000F015F901460F20FFF70AFF00F00FF9BF
:1086500001461020FFF704FF00F009F90146112040
:10866000FFF7FEFE00F003F901461220FFF7F8FEC7
:1086700000F0FDF801461320FFF7F2FE00F0F7F8D6
:1086800001461420FFF7ECFE00F0F1F8014615203A
:10869000FFF7E6FE00F0EBF801461620FFF7E0FEDC
:1086A00000F0E5F801461720FFF7DAFE00F0DFF8EA
:1086B00001461820FFF7D4FE00F0D9F80146192032
:1086C000FFF7CEFE00F0D3F801461A20FFF7C8FEF0
:1086D00000F0CDF801461B20FFF7C2FE00F0C7F8FE
:1086E00001461C20FFF7BCFE00F0C1F801461D202A
:1086F000FFF7B6FE00F0BBF801461E20FFF7B0FE04
:1087000000F0B5F801461F20FFF7AAFE00F0AFF811
:1087100001462020FFF7A4FE00F0A1F80146212029
:10872000FFF79EFE00F097F801462220FFF798FE23
:1087300000F091F801462320FFF792FE00F08BF83D
:1087400001462420FFF78CFE00F085F80146252025
:10875000FFF786FE00F07FF801462620FFF780FE37
:1087600000F079F801462720FFF77AFE61684FF69E
:10877000FF00014041F0BF6141F4013161604FF4FD
:10878000E021E06840F40070E060E06840F0100034
:10879000E060E16104F05FFD04F0F4FDEFF30880B8
:1087A000001F53494FF0CD3201E040F804298842C0
:1087B000FBD2504A504892B20021FBF7C2FD62B68C
:1087C0004E494F4A012008606846146804F02CFEA8
:1087D000240E8F2C10DA4B484B4C016841F00402F8
:1087E00002604FF05013002230255543521C635154
:1087F000052AF9D9016000E006DC44480168C9098E
:10880000C90141F0200101609DF80100012804D157
:108810003F48016841F00401016000220D213D48FC
:10882000FFF746FE3C490120086004F017FE04F003
:1088300055FF0521684603F0ADFE01208DF80300C9
:10884000684605F0E1F802F04DFCFEF7DBFF334827
:1088500005F0B4FB37BDFF22FF2104200FE6002204
:10886000012104200BE600220021042007E600225B
:108870000421042003E640F2016001F071BF05F01D
:10888000BFBB80B500210B2005F0B2FBBDE8014065
:1088900005F0B7BB032005F02EBC000010B504F0B6
:1088A000B2FD044604F0B3FDC0B220B9012C0BD1D7
:1088B00044F0800010BD072CFAD8DFE804F005046E
:1088C0000709090B0D0FF3E7002010BD092010BDAB
:1088D000022010BD032010BD0B2010BD062010BDCE
:1088E00000E400E018ED00E00040000008ED00E0CA
:1088F00088560020AC150000A000002044000E4067
:10890000FC81E00FB0400E4000A000402C400E4023
:1089100064310E4054300E4010300E4024F70200F7
:1089200020B500217DA2CBB2D35C834205D0491C87
:10893000CDB2082DF7D3002020BD012020BD0000BE
:1089400020B5002177A2CBB2D35C834205D0491C6D
:10895000CDB2082DF7D3002020BD012020BD6548F1
:1089600000887047644870476448007870476349DE
:108970000870704738B56249624C08700228624935
:10898000624D13D12878042809D0084604F0B6FABD
:10899000287803281EBF0428204604F0AFFA5C485C
:1089A0000168CA0054BF9024BC240FE00020087066
:1089B000207005F0F8FB2878032818BF042802D19E
:1089C00005F003FC01E005F043FF9124204605F08B
:1089D00097FF50B92346132245A10320FBF707FD5B
:1089E0002046BDE8324006F0F1BD31BD4448007874
:1089F00000F00F0070474248017801F00F01022992
:108A000001D1012070470020704710B504463C4852
:108A1000007800F00F01022918BF032801D093202D
:108A200010BD06F09AFF20813A4A3B480178A172B6
:108A30001078E072204608F0DDF90020207304F180
:108A4000140104F1100008F097FAE081002010BD35
:108A500038B52B4800780C4600F00F01022918BFEA
:108A6000032801D0932032BD2B482A4D0178217074
:108A7000287800F00BF96070287800F01F00A070D3
:108A8000002032BD10B5002300E05B1CDCB28C423C
:108A900005D210F8014B9442F7D0002010BD012000
:108AA00010BD082108F0CABB1548007801281CBF7A
:108AB0003128332801D1012070470020704710B5BC
:108AC000044600F04AFA010004BF13490C7010BDBF
:108AD000114890F9000070470E4800787047012057
:108AE00070470C480178480918BF01207047000002
:108AF0004242000074640020DC7B0020DB7B00200D
:108B0000D97F0020207D002050780020D87F0020D1
:108B1000E47B0020766400207C64002000010203D6
:108B200004051D200203040508090A0B38B5044694
:108B300005F05EFA0546DFF8540A83780178994219
:108B400011D000F043F8641E07D0641E08D0A41EA4
:108B500006D0A41E032C03D905E00022194600E02C
:108B6000002208F091FB284632BD08F021BC10B568
:108B7000DFF85C3A4C000146986A224608F08DFB0B
:108B8000A04201D0002010BD012010BDDFF8402A16
:108B90000146107B002800D1704780B5906A08F02C
:108BA0000CFC28B1BDE8044040F29B1100F0B1BBC1
:108BB00001BD80B500F00AF808F068FB00F0030082
:108BC000032801D1012002BD002002BDDFF8000A08
:108BD000806A704780B5B0F5004F08D14FF6FF703E
:108BE000DFF8241A098800F0B3FEBDF80000DFF8B2
:108BF0009C194883002002BD2DE9F04F4FEA501C1C
:108C00000C4600F01F000026DFF8008A2FE00EF16E
:108C1000010EEF7E5FFA8EF0B84226D2E8695FFA65
:108C20008EF9142717FB09F94844077A07F007075C
:108C30006745ECD1477AB942E9DB90F801B090F88A
:108C4000009007EB0B0AAAEB090A8A45DFDB14B197
:108C5000C91B494421700AB1017A117003B118602F
:108C6000284600E00020BDE8F08F0846761C98F802
:108C70000650F1B2A942F5D2D8F808105FFA86FE84
:108C800051F82E504FF0000E0146C2E7400918BFC0
:108C900040F01800704738B5DFF83449A06A08F092
:108CA00047FC0546E80744BFA06A08F046FCE80315
:108CB0001ED5E16ADFF8B05A086A18B940F2662199
:108CC00000F021FDE06A016A486818B94FF41A7192
:108CD00000F019FDE26A136AA06A5A680021904701
:108CE00030B12846BDE8344040F26921FDF766BE48
:108CF00031BD3EB5684600210022002380E80E0009
:108D0000DFF88848A07A25788DF80050002818BF31
:108D1000022810D1DFF8B85800F00EF858B1A86A50
:108D20000122002108F0B4FA00F006F818B140F270
:108D30009E2100F027FC37BD2179A86A6A4608F019
:108D40000DBB00002DE9F043FF2889B006460AD18B
:108D5000DFF8B80881680A68D069467A017A06F0B7
:108D60001F0646EA4116F5B205F01F001B2847D240
:108D70000021019101AB6A46F0B2FFF73DFF5FEAC7
:108D800000081CBF019800283AD0DFF80048DFF83F
:108D900040782179F0B2884231D00B3D102D39BF97
:108DA000DFF82C0A0568DFF82C1A0D68002D1CBFAF
:108DB0002878032824D0786C854214D002A829464C
:108DC0000622FFF743FAB86A7D6402A908F057FB50
:108DD000B0B9B86A04A908F066FBB4F91810B86A0B
:108DE00008F012FB60B9386B0199C7F82C808842F3
:108DF00008D19DF8000078732671FFF77AFF80E0B4
:108E00008A2086E0A57ADFF8609900F08BFA386B4B
:108E100038B1B86A08F0EFFB18B140F2D32100F086
:108E200001FF019801993863C868786318B94FF455
:108E3000367100F0F7FED8F82000B96C814219D0E5
:108E400018B940F2DF2100F0EDFED8F820100868D4
:108E500018B940F2E12100F0E5FED8F82010B86A18
:108E60000A68904718B140F2E22100F0DBFED8F822
:108E70002000B8645FF01C029DF8000026A1787302
:108E8000267102A8FFF7E2F9786B418A0901C0391F
:108E9000ADF80E10417C09011439ADF8161002A985
:108EA000407C0001ADF81A00E079401E8041C00FFF
:108EB0008DF82100787C8DF82200B86A08F068FBF4
:108EC00018B140F20D3100F0ADFEB86A0122012167
:108ED00008F01CFC18B140F2323100F0A3FE00F0A3
:108EE00062FCA08B00F08BFCE08B00F0A6FC207AEB
:108EF00000F03CFC00F033FD00F0FAFC284600F0E6
:108F00007BFA97F90E10B86AC905091408F01AFE21
:108F1000002000F084BE00000000000001000000FE
:108F20000101010164000000640000000000000075
:108F30000B000000DFF8D40700797047DFF8CC079A
:108F4000B0F91800002854BF05216FF0040108187B
:108F50000A2190FBF1F040B270470A2110FB01F0AA
:108F6000FFE7F8B500F5D77140F27722914201D3BF
:108F70008B20F2BDDFF85856DFF890472A6B0A269F
:108F8000002A1EBFA17E01F0C001802911D0E97B1B
:108F900079B992F902100F4617FB06F7B842A1BF44
:108FA00092F903100A4612FB06F28242B8BF11FB87
:108FB00006F0297B61B10146A86A08F025FA18B1CC
:108FC00040F2853100F0DEFAA86A08F041FA01E0CB
:108FD00010FB06F020830020F2BD38B504460B38A4
:108FE000102839BFDFF8E8070068DFF8E8170868DD
:108FF00088B10023002200212046FFF7FDFD50B17B
:1090000004F01F051B2D06D22046FFF73FFE10B9C6
:1090100028460B2800DAFF2032BDDFF8C4194008CB
:10902000085C70477047C0B2704711F1630F01DAF6
:109030000020704711F1240F01DBFF2070476431DD
:109040000902481101EB90618904080E704770B560
:10905000DFF87C45DFF8FC590020E064687830B127
:1090600008F078FD0246012A18BF032A01D100202A
:1090700070BD606BDFF83439DFF8106500281FBF62
:10908000216B09690029022A17D1E364706900F590
:10909000FA707061607D18B100200021642203E045
:1090A000E87829794FF4A0722070A2806170802145
:1090B000A878A070E180002031E0DFF828597269BB
:1090C000A94214D1DFF8B019E16402F57A72726135
:1090D000617D91B90179217001258278037990F938
:1090E00003109540EB18CB185B1E63700DE0E36432
:1090F00002F5FA727261617D19B100222280642149
:1091000005E0417821708278627001780901A180C0
:109110004179A17002891201E280C0880001A0603B
:1091200000F01DFCE070A07841B2002948BF404229
:10913000C0B270BD70B50446DFF89464257896F926
:10914000160008B18C2070BD3065FFF780FF3076C7
:109150006901DFF83824DFF8FC385078107301F526
:1091600080715161987910B1AD1EEDB203E0306DA0
:1091700040F002003065F17B81B9187870B16078F9
:1091800081060BD5306D40F0010030656FF00101B4
:10919000B175506900F50870506102E04FF0FF3082
:1091A000B07508F00DFD40B108F008FD0128316DE3
:1091B0000CBF0820102008433065032000F01CF984
:1091C0006A1CB06A4FF4807392B2214608F005FD24
:1091D0006D1CA84203DA40F2055100F0D3F90020DB
:1091E00070BD00002DE9FC41DFF8E46396F916102C
:1091F0000025091D04296FF0030418D8DFE801F0E9
:109200000A0A1B1B0300FFF795FF050013D000F0AF
:1092100080FE7BE096F91600A0420CBF01210021E0
:1092200000F078FEB57500F071FE8E206FE000F062
:1092300070FE8C206BE004F0D9FEE0B1F06CDFF83A
:109240006C17884217D1307EA8B1DFF83018086853
:10925000002810D5DFF82808C168C1600122006825
:1092600000F00F008240521E114204D100F088FB32
:10927000642008F000FDFEF7F5FF804696F9160021
:1092800010F1010F1CBF96F9160010F1020F2DD13D
:1092900096F91600DFF8F4724042B075FEF792FAC4
:1092A00038620022B06A802108F038FDF46CB06AA0
:1092B0003979326D002C07F10C0306D108F01CF847
:1092C000010005D1002125200DE000933346A04781
:1092D000C8B10020B0754FF0FF3139628C2500F025
:1092E00015FE00212620FFF721FC0CE096F9160060
:1092F000A0420CBF0121002100F00CFE0020B0753F
:109300008E2500F003FE4046FEF7B2FF2846BDE87A
:10931000F681DFF85404FDF751BBDFF8F003408B12
:1093200070470000F8B5FEF79DFF984D0446A87AF7
:10933000012803D12046FEF79BFFF1BDA44EDFF8C4
:109340002874B06A0122012107F0A2FFB06A8022CE
:10935000802108F0E3FC00BF26A00188B06AADF8C8
:109360000010694608F0D9FB20B140F2EB513846B5
:10937000FDF724FB02208DF800006946B06A08F072
:10938000ABFB20B140F2ED513846FDF717FBB06A58
:1093900007F0A8FF00212C20FFF7C8FB00210A20BE
:1093A000FFF7C4FB0120A87296F91610091D0729C2
:1093B00014D8DFE801F01818070B040F0F0F08F09E
:1093C00092FE10E06FF00300B0750CE06FF0020148
:1093D000B17508E0892000F007FB04E040F2146159
:1093E0003846FDF7EBFA2046FEF742FFFFF747FA53
:1093F000F1BD000004010000F8B5644DA97A0446EF
:10940000A1425CD02EA3724F1E88ADF800600329E4
:10941000DFF854634FD8DFE801F047023B2BFFF73A
:1094200030FAB86A694608F078FB18B140F2316149
:1094300000F04CF802208DF800006946B86A08F088
:109440004BFB18B140F2336100F040F86879002816
:1094500014BF00220222B86A022108F05FFC18B192
:109460004FF4C76100F032F80320032CA87226D015
:1094700000F027F80220A87200222979B86A07F0C4
:109480006DFF18B140F2456100F020F8022C16D0B3
:10949000200018BF032C12D10020A8720022B86A45
:1094A000802108F03BFCF1BD022C08D100F009F846
:1094B0000220A872F1BD40F25B6100F007F8F1BD37
:1094C0000402B86A8022802108F028BC3046FDF7EB
:1094D00075BA002090E78D48807A7047032805D838
:1094E000DFE800F0030203031CE785E740F279613F
:1094F0000FE710B5364CA06A07F0CEFE94F91600BF
:109500000028824844BF0021A175417A012902D177
:10951000BDE8104006E710BD7C48407A704780B532
:10952000032801DB012002BD78494872897A88420C
:1095300018BFFFF7D3FF002002BD2DE97C4F244E5A
:1095400003EA010BD6E9088929EA010528EA0004A3
:1095500002EA000A45EA0B0544EA0A044D4508BF41
:1095600044450DD0CDE900230246B06A0B4608F011
:10957000DBFA18B140F2A16100F004F8C6E9084531
:10958000BDE8738F7848FDF719BA0000C06100206C
:109590000F49087B002800D1704710B5087D0022D4
:1095A000002318B1DFF8602903230AE0C87C00B16A
:1095B000402256480178807881421CBF4CF64854BE
:1095C0002243BDE81040DFF840090321B5E7000061
:1095D000E864002038B5DFF848590446287B2C752C
:1095E00078B1FFF7D5FF002C14BF00220822A86A2B
:1095F000082108F093FB20B1BDE8344040F23F71F0
:1096000087E631BD000000002E0B030000F80200C9
:10961000F8B50446022C0FF6341503DB40F24B710B
:1096200000F071F8DFF8F868307B002867D1374F19
:10963000B87A012803D040F2517100F064F800219B
:1096400007F1240007F007FEB06218B940F2547128
:1096500000F059F8B06A052108F0E3F818B140F2BB
:109660005C7100F050F84FF0FF30DFF8B828D023DD
:109670000146FFF762FFB06A4FF0011107F069FF82
:1096800018B140F2767100F03EF8B06A09224FF04E
:10969000FF3108F043FB18B140F27C7100F033F861
:1096A000B06ADFF8841808F0B6FA0120307302239C
:1096B000DFF8780801887F22684608F0EDFDBDF8E4
:1096C0000000C10548BF0020B07304F08FFCFFF715
:1096D00081FF788BFFF77EFA08F05CFE3879FFF7A0
:1096E00031FB18B14FF4F26100F00DF8FFF750FFB5
:1096F000B7F91800FFF735FCB87900F0EDF820460F
:10970000FFF7ECFEF1BD2846FDF758B9C061002017
:1097100080B5FFF75BFA012107F02CFE10F5007F02
:1097200002D16FF07F0002BD8005001602BD10B5AA
:10973000DFF8EC270446107B50B1611E8941906A26
:10974000C90F07F0D3FF18B140F2C771FFF71AFF36
:109750002000DFF8C81718BF0120C87110BDDFF85E
:10976000BC07C079704700004C9F000038B5044624
:10977000FEF778FD0546DFF8A407DFF8A42704729A
:10978000D07D38B9107B28B1611E8941906AC90F1C
:1097900008F054FE2846BDE83240FEF769BDDFF808
:1097A0007C07007A7047DFF87837187B002800D1F3
:1097B000704780B5986ADFF87817002207F079FFC4
:1097C00020B1BDE8044040F2F371A2E501BD000004
:1097D000A0610020A4610020DFF844270146107B2F
:1097E0005174002800D1704780B5906A07F070FF6F
:1097F00020B1BDE8044040F2FE718AE501BD01469A
:10980000DFF81807DFF818378183187B002800D1AC
:10981000704780B5986A002207F03CFF20B1BDE890
:10982000044040F60F0174E501BDDFF8F006808BBF
:109830007047DFF8E806C08B70470146DFF8DC06AA
:10984000DFF8DC36C183187B002800D1704780B573
:10985000986A002207F00FFF20B1BDE8044040F6EF
:10986000250156E501BD10B500F02EF8DFF8AC0675
:109870000179A06A012207F062FD20B1BDE8104025
:1098800040F6470145E510BD80B5DFF89416886ABB
:1098900007F05FFD18B140F64C01FFF773FEBDE81D
:1098A0000140FFF726BA10B500F00EF8DFF86C069D
:1098B0000179A06A002207F042FD20B1BDE8104006
:1098C00040F6570125E510BDDFF85446A06A012295
:1098D000012107F0DDBCD7E710B5DFF844260446C8
:1098E000906A214608F0BAFDDFF830168C7110BD81
:1098F0007CB57F2804460CD14FF6FF70DFF8345654
:10990000298800F025F8BDF800007E24C10558BF65
:109910000446FEF7A7FCDFF808660546F07D68B947
:10992000204641B27E2903D1306B38B190F9040052
:1099300041B27E29BCBF40B2FFF728F9707B00B16D
:109940000120DFF8F4150C542846FEF791FC73BD96
:10995000ADF8000002237F22684608F09DBCDFF8C6
:10996000C015487B00B10120DFF8CC2510567E28B9
:1099700005D1086B08B97F20704790F90400704743
:1099800000212320FFF7D2B8DFF8940590F91610D4
:1099900003290AD10022DFF8843582754FF0FF31A8
:1099A0001962816B402008F0F4B970470B13010075
:1099B00038B50446DFF86855FDF712FFE863FFF796
:1099C000F8F801462046FFF7B1F8062C02D008F05F
:1099D000E1F801E00020A874BDE8314008F083BB45
:1099E00060630020609F000038B50446DFF82C1546
:1099F000DFF82C554FF0FF300862FDF7F1FEE86309
:109A000095F91600012823DBDFF83015487808B1F6
:109A1000E86B286495F9160002280CBF012100218B
:109A20000020A8758D2C16BF872C26202720FFF735
:109A30007DF8E87B28B1A86A07F02EFC0120287485
:109A400031BD2046BDE838400022002108F0A1B910
:109A500031BD0000BC63002080B5FFF7AAF80146C5
:109A60000120FFF763F8DFF8B814C87C18B1BDE82F
:109A7000014000F076BA01BD1D130100044008400A
:109A80004C5008402DE9F043DFF894540FF2BC49E4
:109A9000A86A89B005AA032108F0B9F85FEA0008AE
:109AA00003D14FF4396100F0BDF89DF81400DFF8E0
:109AB0006C44BDF8167007281CBF6079002818D1C7
:109AC000062F16DB07F108008B2812D20020009029
:109AD0003B46DFF86C64A86A3246414608F0A3F8BA
:109AE000B84203D040F6AA3100F09CF83078010665
:109AF00006D5FFF75EF801460420FFF717F88EE061
:109B0000A86A6A46414608F08AF818B14FF43C61E9
:109B100000F088F8707800F00700022831D1FFF7D4
:109B200048F801460920FFF701F894F8078095F9F5
