:10400000F864002099D802003DA7000085D4020082
:10401000A70A0A010042000004180FAC1065F10065
:104020000000000000000000000000000000000090
:104030000000000074DE020000000000000000002C
:104040000000000000000000FFFFFFFFFFFFFFFF78
:10405000FFFFFFFF007003000000000000000000F1
:10406000FFFFFFFFFFFFFFFF100000000000000048
:104070000000000000000000000000000000000040
:104080000000000000000000487F0020487F002062
:10409000F8640020E9F5020022D90200985B0020B4
:0C40A00000000000000004000000000010
:10420000F864002099D802003DA7000085D4020080
:104210008DD4020089D4020091D402000000000075
:104220000000000000000000000000005B460000ED
:1042300095D402000000000043470000CB5A000064
:10424000C5D40000A98102009D6E0000E17D02003E
:10425000EB810200AF810200B1810200AB8102005C
:104260007B2B0100D52D010069B000008B7E000082
:104270009DD402009DD402006FD602009DD402009E
:104280009DD40200E32D01009DD402009DD40200C4
:104290009DD402009DD402009DD402009DD4020052
:1042A0009DD402009DD402009DD40200ED81020045
:1042B000AD81020031AD00001D8202009DD40200DC
:1042C000E1D702009DD40200104210B58B498B4A01
:1042D00001E069B1491E1369DC07FAD441B15060AD
:1042E000012010601169480705D54FF0FF3010BD5F
:1042F0006FF0020010BD002010BD2DE9F041044612
:1043000010460B460022002B43D06FF001051E1013
:10431000240879497A4FB8B994469C4539D254F863
:10432000040BF8600CF1010C08203860084601E02D
:1043300040B1401E3E69F65E102818B1386980070A
:10434000EBD525E0424624E0EFF3108072B69446A8
:104350000FE03E6906F01906102E08BF3E603E6968
:104360003607F6D546336BFE46100D10263E609C90
:1043700045F3D318B962B601E021AA10013869C328
:104380004C100901B942463869810700D52A9210BC
:1043900061BDE8F0812DE9F24F594CA16B834600D5
:1043A000208DB205B1012541F67131A1634FEA922A
:1043B00008276847F0010727608146DDF800A01F45
:1043C0004613E0C6F30A06C6F50066B608A8EB0970
:1043D00000B04238BF06463A4631465046FFF78B9A
:1043E000FF01000CD1B1440AEB860AC14507D20B8C
:1043F000EB89063018126718100FE2D00FE0009911
:10440000DBF800200B689A4209D05818125B18108C
:104410002E04D100983A460121FFF76CFF2168492C
:104420000849002160EDB20DB10021A163BDE8F2A1
:104430008F30B5324B2F490246986B80B200B101E4
:10444000209C1404349C631D68454424101D609A0C
:104450006001225A605C69620704D500F020F87A96
:10446000100130BD0214300F00E0491E5A69D40714
:1044700001D50029F9D15A699422170FF87C10054B
:104480000030BD002919687A13F0081022021013B9
:10449000F0039A300130BD19821016196008B1007E
:1044A000209863704700236FE71248816B89B2013F
:1044B000B101217C102F32826346F21A3203684325
:1044C000F001030360C2644FF4807343604269D318
:1044D00007FCD40022C264C9B203685B085B000316
:1044E0006001B18263002044100800809698000C9F
:1044F000000E4008040000002DE9F84F8046DFF868
:104500007C902122FF21484600F08FF8DFF870B040
:104510004FF49272FF21584600F087F819481A4F5D
:104520001A4C00904FF0210A0026A25D1849BD5D8B
:10453000885D521C02EBD272521000B1193215483C
:1045400030F816100098D21C6A4300F08AF8012D4A
:104550001CBF2BF816A0AA44761C212EE5DB2123D4
:104560004FF4805240F27A510B4800F07AF84946F5
:104570004046BDE8F44F00F0D4BB00BF9C6D002066
:10458000DC6E002024D9020084DB020060DB020024
:104590003CDB0200F8DA020040D9020070B581422B
:1045A00024D210441144401E491E10E011F8013974
:1045B00000F80139121F11F8014900F8014911F8FA
:1045C000015900F8015911F8016900F8016993B225
:1045D000042BEBDA93B2002B1EBF11F8013900F85F
:1045E0000139521EF6D170BD00F00DF893B2042BC4
:1045F000FADA93B2002B1EBF11F8013B00F8013B21
:10460000521EF6D170BD11F8013B00F8013B121F9C
:1046100011F8014B00F8014B11F8015B00F8015B48
:1046200011F8016B00F8016B7047130003D00A46C4
:10463000194601F041BA704710B5034600E0521E1A
:1046400090B218B100F003F8F9D0001B10BD13F8B8
:10465000010B11F8014BA0427047FEE72F4908708B
:1046600070470EB430B52D490446087820B301F0E8
:1046700085FA08B301F0C2FB012001F0E8FBFF2836
:10468000054619D001F0D8FB022101F07DFA014660
:10469000284601F0D7FB03AB22462946204801F00B
:1046A000ABFF30B1284601F07BFA10B1042000F0D6
:1046B0000BF8284601F035FC30BC5DF810FB0C22ED
:1046C00000211848FFF7B1BF164931F81020521CDD
:1046D00021F8102070470CB480B502AA02F0E6F869
:1046E00001BC5DF80CFB0D4A1178A1B9010018BF9F
:1046F000012810D0042818BF05280CD0312818BF75
:10470000332808D037281EBF3B284FF6FF71884258
:1047100001D001207047002070470000107F00206A
:10472000416100009C750020302818BF322806D057
:1047300034281CBF3628382801D0002070470120BB
:104740007047FEE730B5DFF8485ADFF8484A2B8853
:104750002468C01A04EB4004002004E034F8103050
:1047600021F81030401C9042F8DB002030BDDFF80B
:10477000203ADFF8201A1A880968801A01EB4001F4
:10478000022002F0B3B9F8B504460F461646DFF82A
:10479000045AF0B208B34FF6FF70ADF800000020E5
:1047A00017F8011BC3B2401C0DF80310761EC1B2EE
:1047B000022902DAF1B20029F2D1DFF8D4E928683F
:1047C000BEF800301FFA84FCACEB030300F01CFFC2
:1047D000641C0100DDD000F0EBBB0120F2BDF8B598
:1047E00004460D461646F0B288B1012200F010F8DA
:1047F000641C0020C2B2401C1DF80230761EC7B2F5
:10480000022F05F8013BEEDAF1B20029F2D1F1BD39
:104810006946A0B296E70146DFF87C09DFF87C29FB
:10482000405C525CDFF8C03B595C09B102F59972FB
:1048300040EAC21080B2704710B5DFF85C39DFF88B
:10484000AC2B1C5C012C1CBF32F81000081802EBCA
:10485000400010BD70B590B005460C464FF6FF768F
:1048600004E0A8B2FFF783FF203D2035A9B28C42B7
:104870000DD3202201F00AF8002082B23DF8123058
:10488000B342EED1401C81B22029F6DBEDE710B037
:1048900070BD10B5044661882088FFF7DBFF012159
:1048A000DFF84C2BDFF84C3BA171208811784118C0
:1048B000188801EB4001891DA18010BD10B5DFF8FB
:1048C000384B00F087F800F040F900F03BF9DFF8D2
:1048D000840C04F10801446004F110028160C2609C
:1048E00010BD2DE9F0430446DFF8040B0778B94604
:1048F000B9F1060F85B003DD4FF4377100F010FBFE
:104900000021A1717A1C208892B201A9FFF71AFF39
:10491000BDF804104FF6FF76B14218BF002910D041
:104920000DF10408711A38F81900884209D10125DF
:104930004D454BDA38F8150040B1BDF804108842F7
:1049400014D000F047F805B0BDE8F083DFF8081C8C
:104950000A88208812FB052141186A437118101833
:1049600089B280B2FFF776FF0221A1716D1CDFE7EB
:104970002088381800F08EFFBDF80200000B484573
:10498000DFD120883818401D00F085FFBDF80210E7
:10499000BDF80200711A000A01F0FF018842D0D16F
:1049A0000320A071012220883F187F1C6946B8B2FD
:1049B000FFF7C8FEBDF80000FF2802D10421A17155
:1049C000C1E7B042BFD00028BBD1BCE7A079022824
:1049D000CED1B8E720465CE7F8B5DFF81C4ADFF82F
:1049E000745B002004F1080104F11002A071A073AF
:1049F000A075A960EA606C602046FFF772FF04F1C1
:104A00000800FFF76EFF04F11000FFF76AFFA179BD
:104A1000A07BDFF88067042908D100220428ADF8C4
:104A2000002046D1FFF74AFF0120F2BDA17D0428F6
:104A30002BD100200429ADF80000F3D0FFF7CAFF06
:104A400000F080F83068DFF8A869238900F080F86A
:104A5000060040D10320A073A07903284AD1A07B8F
:104A6000032802D1A07D012863D0A07901284AD172
:104A7000A07B032854D1A07D012818BF0328D1D1E1
:104A800004F1080004F1100157E004292BD10020A3
:104A9000ADF80000FFF79EFF00F057F83068DFF830
:104AA0005069238A00F054F8060014D10320A07541
:104AB00019E0A07D0428B5D000F047F800F042F8D6
:104AC0003068DFF82C69238800F042F8060002D134
:104AD0000320A0710AE0304602F089F81EB14FF4BD
:104AE000747100F01DFAA0790328B5D1A07B0128CC
:104AF000B5D1B7E70228B8D1A07B032804BFA07DB9
:104B000001288FD1BCE7032804BFA07B012889D1ED
:104B1000A07D03280BD104F11000214608340CE0DD
:104B2000022812BF0128A07D0328F0D1F3E7022854
:104B3000EDD1204604F1080110346860EC60A960F2
:104B40000020F2BD04F11000A3E604F10800A0E685
:104B50003778DFF83C66FF1833887F1CFF1A012284
:104B6000694600EB470001F0ECBF2DE9FE4F064619
:104B7000DFF87C08DFF8888ADFF8889A0F4601782A
:104B8000ADF80810012234880C19641DFFF740FEAF
:104B9000DFF86018BDF80000B1F800A0641C000A3E
:104BA000ADF8000050451CBF0121397000251AE006
:104BB000401CC1B2514514D25FFA80FB39F81B107A
:104BC000BDF806209142F3D1C0B2FFF724FEBDF834
:104BD00004304FF6807210401340984208BF08F826
:104BE0000B506D1CADB2BDF80000854206DA022202
:104BF00001A9FFF70EFEA41C0020DAE70020D14631
:104C000001E0401C80B2484517DA18F800108142D4
:104C1000F7D00120387010E021F815A00DE0012830
:104C2000DFF8C817F8D0BBF17F0F31F8150008BFC7
:104C30004FF0000B584421F810A0A1B27088C01E9C
:104C400088424FF6FF7A28DB00F066F8BDF80200D4
:104C5000FF25504521D0601C00F0D4FDBDF80200B6
:104C6000BDF80610AAEB0002914213D104F1030A29
:104C7000040A00F07F0BBDF8000084420ADA00202D
:104C800000E0401C484518DA18F80010A142F8D19D
:104C9000C5B212E0012038700DE0B4807088A1B276
:104CA000884208D300F038F8BDF80200641C504573
:104CB000F4D001213970BDE8F78F3088BDF8083095
:104CC000181800EB4400801D012201A980B2FFF7F3
:104CD00039FDBDF80400C0F3C710401C00EBD070D4
:104CE0000AEB60047088A1B28842D3D3FF2DA4D010
:104CF000DFF8A404405DBBF17F0F14BF59460021CB
:104D0000814286DABDF80210DFF8DC26535D090621
:104D1000C90F994283D07CE701220DF10201A0B2B4
:104D200010E5F8B58DF80000DFF8AC1BDFF8600483
:104D3000DFF8C0460288DFF8C00602800B88438097
:104D4000DFF8AC361D782188DFF8903BDFF8904B18
:104D5000AA1802EB4102921D8280002282711A88F9
:104D60000281AA1802EB41022388DFF8784B4381C5
:104D7000921D828100228273DFF86C3B1A880282C6
:104D8000AA1802EB4101891D2388DFF8C8478182F8
:104D900043820021817501F07DFF002853D12070EE
:104DA000FFF71AFE9DF80010084318BF01208DF888
:104DB00000000122606800882818801CA11C80B2B5
:104DC000FFF7C0FC9DF8000000283FD16068DFF8C5
:104DD0001C766946FFF7C9FEDFF8880B0688A068D5
:104DE0008179032924D16946FFF7BFFE6168DFF8A6
:104DF000A823002012E0DFF8FC351B88984202DA75
:104E0000135C012B09D137F81030B1F800C06345AD
:104E100024BFB1F802E09E450AD2401CB042EADB52
:104E200002208871A1686068E2686160A260E06049
:104E300000204FF6FF7200E0401CB04206DA37F85F
:104E400010109142F8D101208DF80000607828B14F
:104E5000012100208DF80010607018E09DF800001E
:104E600090B960680388ED18ED1C01220DF1020174
:104E7000A8B2FFF767FCBDF80200C0F303100128D9
:104E800008BF8DF8000002D09DF80000B8B14D2099
:104E900001F0ADFE6088401C6080E068FFF7F9FC1F
:104EA0009DF8000000F051F838B100F085F820B10D
:104EB0009DF8000000F0A2FA08B90120F2BD002020
:104EC000F2BDF8B50D46DFF82C1517467F2F0A887E
:104ED00008BF00271E4695423EBFAF4B595D8F422B
:104EE000044604D2AD4A535D9E4200D11CB940F243
:104EF000646100F015F839462846FFF79DFCDFF89D
:104F0000641B0388485D28B11946284600F0C9FC97
:104F10002060F1BD324621461846BDE8F8405EE407
:104F20000FF67C3001F0BEBE38B504460846114687
:104F3000FFF782FC964D0388DFF82C1B28880A684F
:104F40001B1A02EB4302226031BDF8B5DFF80416EC
:104F5000904CDFF8B056002814BFC8688868DFF8A6
:104F6000901400880A788618B61DB6B2002701E0B2
:104F7000B61C7F1CDFF87C0401888F4216DAF8B279
:104F8000FFF749FCADF80000B3B235F81700DFF8C1
:104F9000DCCABCF800E0ADF80200A3EB0E03206809
:104FA000022200F032FB0100E2D001E00120F2BD5C
:104FB00001F01DFE0020F2BD2DE9F84FDFF83404AA
:104FC000DFF890250188D068DFF82424714C13782D
:104FD00084B00025ADF808100188BDF80800CE188F
:104FE00006EB4006B61DB6B200E06D1CBDF8080029
:104FF000854280F2C2804FF0000A78E0BDF80210CE
:105000005FFA8AF00143ADF802104FF6FF72BDF867
:1050100002005F490F88BDF80010121AADF8042095
:105020004FF6FF732068F21B761C994200EB42009A
:10503000B6B21DD100F0BBF801002BD12068F71BE0
:10504000012201A900EB470001F07BFD010021D105
:10505000B61CB6B25148DFF8181AA8F80060425DD5
:1050600051F825103046FFF78EFB002838D18DE02F
:105070004A49495D491C01EBD1714FEAC15900F021
:1050800096F8010006D12068F31B012201A900F067
:10509000BDFA010077D1B61CB6B2D349A8F80060BA
:1050A000485D002843D0DFF8AC241078002103913C
:1050B00028B103AA6946A8B201F0F0FD05E0BDF8E9
:1050C0000010E8B200F0EDFB0390F71B20684FEAF8
:1050D000196203A900EB470001F033FD010052D132
:1050E000DFF89009415D7618B6B20AF1010A2A4844
:1050F000475D5FFA8AF1B942BFF477AFE8B2FFF7D4
:105100009BFB8046B849B8F80000ADF80000485D48
:10511000C00140EA0520012FADF802007FF46EAF18
:10512000BDF8020040F07F00ADF802006DE74FF0DF
:1051300000085FFA88FBBBEB196FD1DADFF81414B3
:1051400008780028BDF8000004D100F029F8FFF726
:10515000F9FA03E000F024F801F09EFD2068B34462
:10516000ABEB070301220DF1060100F04FFA01003D
:1051700008BF08F10108DCD005E0DFF8D803C168FA
:105180008E80012002E001F032FD00202FE30000BC
:1051900012E102003467002084DB020060DB0200C1
:1051A000411CADF8001001220DF1060170470122EB
:1051B0000DF1020101F0C5BC2DE9F34F85B00021CE
:1051C0008DF803104FF00C09DFF8AC58BDF818103B
:1051D000DFF8A868DFF89C385B5C298835684C08E4
:1051E00091FBF9F9A1444D45039302D3DB180393D6
:1051F00009E0182691FBF6F1641AA54203D303EBEC
:10520000530189B203910025D24CADF806008DF808
:10521000042000E06D1C774801888D4280F2CF8029
:10522000002687E0012202A91FFA88F0FFF78AFA18
:10523000A3680498DFF834E8B3F804C0BEF800307F
:105240000068DC44ACEB0303012202A900F0DEF9A4
:10525000010008F1010858D10AF1010A5FFA8AFB3E
:10526000BBEB176FDEDB38E01A468DF80220BDF885
:1052700006309A18ADF8062001235B4A8DF80330FA
:10528000505DC30143EA0523BAF1010FADF80030C8
:1052900040F08B80BDF8002042F07F02ADF8002086
:1052A0008A88D21C8A800028DFF8BC17049100F09D
:1052B00083804146E8B200F0F4FAA368DFF8ACE777
:1052C00002903A0E04989F88BEF800300068FB1ADE
:1052D00002A900F09BF9010017D1BDF80000A368F6
:1052E000DFF884774FF6FF71091AADF80810012234
:1052F000DFF878179B88B1F8008038689B1EA3EB15
:10530000080302A900F082F9010066D1A3689B8816
:105310003868DB1EA3EB080300F076F901005CD1CE
:10532000A0688188A9F8001082889DF802105118A1
:105330008180761CF1B2DFF8480710F805A05145CE
:10534000BFF468AFE8B2FFF777FA8146DFF83407B9
:10535000475DBDF81800B9F800807F1C07EBD777D0
:10536000FF05854202BF9DF80410F0B28842E0D0EC
:1053700060680188884524BF40884045D9D3BDF87E
:1053800006100398814226DADFF8E826A168535D0B
:10539000B1F804C048889C440CF103029042BFF667
:1053A00063AF01206070452017E0BDF80030F2B215
:1053B0001343ADF8003073E74FF0000A4EE79DF855
:1053C000030040B96068022181716068A168E268E9
:1053D0006160A260E060012002E001F008FC0020B2
:1053E00007B0BDE8F08F00003CDB0200DC6E00205F
:1053F00041F4020014F40200DC6800202DE9FE4FA5
:105400005FEA0009534DDFF8607614BFE868A868CA
:1054100001220188DFF8700600880291C0F1FF01C7
:1054200001F0FF0141EA0021ADF80210DFF85C064F
:10543000029990F800A0DFF834060688386801EB7E
:105440000A04631D9B1B0DF1020100F0DFF801004F
:1054500059D140F6227040EA0A30ADF80200E31C50
:1054600038689B1B01220DF1020100F0CFF801000A
:1054700049D13868A31C9B1B0122A91C00EB4300E7
:1054800001F05FFB01003ED1601CA0EB06085FEA63
:1054900009004FF6FE7B07D0FF21ADF8021000F0A7
:1054A0005DF801002FD109E0686800880122694693
:1054B000FFF748F9BDF80000012802D1ADF800B0AF
:1054C00002E0411EADF800104FF6FF72BDF800007B
:1054D000121AADF80420A41B3868012201A900EBC0
:1054E000440001F02EFB01000DD1029C5046A0F1BA
:1054F000010A80B288B1386814FA8AF39B1B00F065
:1055000083F80100F2D001F072FB0020BDE8FE8FAD
:10551000A968032088710120F8E7B9F1000FF7D0DE
:10552000E968032088716868FFF7B3F9A868FFF796
:10553000B0F9EA686868A968AA60A8606960E8606C
:105540006A600020ADF80200E96000F007F8010091
:10555000D9D1E0E7A87500200EE1020001223868E9
:105560000DF1020100EB480001F0EBBAFEB5044674
:10557000DFF80005455CA088134662882E18F61CEB
:10558000B24205DADFF8082501215170452033E0E9
:10559000C01CDFF8F024A08080B2525C1946FFF7EF
:1055A000F2F860B3DFF8C404DFF8BC740688A3889F
:1055B0003868DB1E9B1B012202A900F027F80100BE
:1055C0001AD1BDF808004FF6FF71091AADF80010A6
:1055D0000122A38838689B1E9E1B694600EB46008B
:1055E00001F0AFFA010007D10898A1880180A088D6
:1055F0004019A0800120FEBD01F0F9FA0020FEBD97
:105600009C6D0020F8DA02000122694600EB43009D
:1056100001F097BA2DE9F84F84B0054689469046C7
:105620001C4601F06DFCDFF8602413888DF80450EF
:105630000127ADF80830B8F17F0F9DF80410BDF8D0
:105640000800039508BF4FF000088DF8054081421F
:105650003FBFDFF82C14039A8B5C984507D2DFF824
:1056600024148B5C9C4202D1B9F1000F03D140F6A7
:10567000D901FFF755FC9DF804004146FFF7DCF81F
:1056800001250646DFF80C048179B6F800A002294E
:105690001FBF817B0229807D022802D1432001F0B7
:1056A000A6FA039ADFF8BC13885C002833D09DF873
:1056B0000400514600F0F5F8D9F80010814257D0A7
:1056C000AAF1030000F09EF8DFF8C453DDF80CC027
:1056D0006C68DFF8A033628813F80C10A088D21E23
:1056E000521A824207DB30B1A86801888A45A4BFFC
:1056F0004088504572DBE8688179AC68022938D16E
:10570000442001F074FAE8688179012931D04520FC
:1057100001F06DFA53E09DF805404FF0000B21E0D9
:105720000BEBDB700AEB600000F05DF909EB0B009E
:1057300019F80B10407801EB0020611E8B4507D152
:10574000BDF8001001F0FF0100F0FF00ADF80010FF
:1057500080B2BDF8001088420BF1020018BF00258E
:105760005FFA80FBA345DBDB002D8DF80540A7D059
:105770003DE0A8688179012915D10020FFF7E5FBFC
:10578000002834D00020FFF739FE00282FD0BF4872
:10579000BDF8085003789DF8041003EB4500C01DC8
:1057A000424680B205E003290FD19DF8041042461D
:1057B0000020FFF701FD10B100F01CF8B8B9384621
:1057C000471EC0B2002810D111E002290CBF40F6DC
:1057D000C81140F6CA11FFF7A3FB08E000F00AF871
:1057E00028B93846471EC0B200287FF444AF05B040
:1057F000BDE8F08F0096BDF806309DF804104A46CB
:105800002046B3E601220DF1060180B2FEF79ABFF1
:10581000F8B505469E489D4F43681C883B78E018C4
:1058200000F038F8BDF802000026C0F3031001288C
:1058300011D1192400F029F8BDF800006D1C30B119
:105840004FF47F41401A17D0FF3813D016E0B61C32
:10585000641EEFD10EE0192400F017F8BDF8000027
:105860006D1C20B14FF6FF71884203D00BE0761C0F
:10587000641EF1D170B2F2BD761CFBE7BDF80000EA
:10588000C0B200B9761CF643F4E701226946A8B21B
:10589000FEF758BFC01C01220DF1020180B2FEF7D5
:1058A00051BF38B50C460021764B009169461D5C0E
:1058B0002A4620466D1CFEF792FF05EBD57504EBDA
:1058C0006504A0B2FFF7A4FF0028009948BFC043B9
:1058D00041FA80F032BD000016E102000CF4020033
:1058E0000EF4020012F4020010F40200F8B5664A49
:1058F000138804466848254630F815609C4202D259
:105900005849485D18B940F68321FFF709FB5D4906
:105910004D5D681C00EBD07006EB6007B8B2FFF776
:1059200077FF0346192B0FD20020DFF840C1DFF8C4
:1059300038E1ADF8000013FA87F7BCF80030DEF864
:105940000000FFF70BF960B131462046FFF7A9FFD1
:1059500000902B46401C00907F2269462046FFF7AE
:1059600059FEF1BD16F402007CB50546474806789D
:10597000344621464C1EC9B22888022925DB50FA3C
:1059800084F000F030F8BDF800000028F1D0434862
:1059900029880288E6B27243521890B2FEF7E7FEF9
:1059A0000020ADF8000001222D882F4800687519ED
:1059B0002E4E3388ED1A694600EB450001F0C1F820
:1059C00001000ED001F013F90BE0FEF7D0FE01202C
:1059D000A8712D4A29881088891901EB4001891D79
:1059E000A980E0B276BD0122694680B2FEF7AABE68
:1059F00028488179022908D0817B022908BF083014
:105A000003D0817D022901D11030ADE7002070471D
:105A10007CB504461D48067800250CE0208850FA25
:105A200086F0FFF7E0FFBDF8000000281EBF4FF62C
:105A3000FF7188426D1C3046461EC0B20028EDD171
:105A4000E8B276BD13488179022908D0817B02290A
:105A500008BF083003D0817D022901D11030D7E77B
:105A6000002070473CDB02003467002012E1020096
:105A7000E8DD020074D902000AE1020070D90200D8
:105A800084DB020060DB020014F4020041F4020037
:105A9000A8750020DC680020DC6E00200EE102000A
:105AA00073696D2D656570726F6D322D696E7465E9
:105AB000726E616C2E6300004018491C1CBFB1F16E
:105AC000010100F8012DF9D17047FEE780B50121F1
:105AD000724801F0EBFA724801210160002001F0E8
:105AE0002EFE012304220221052001F06CFE01207C
:105AF000FEF7B4FD00F00EF8FEF7E1FD01F05BFFEC
:105B0000012340226749684801F020FF6749086087
:105B1000C00F02BD70B501220121042001F0BEFCBE
:105B20006348644C0168644D644E41F001010160BA
:105B30000021C26842F08072C26002226048206088
:105B4000296031605F4860490A6001F0DFFA5F490F
:105B50005F4A604B0818B0FBF2F0401E186000214D
:105B600029644FF480725C485C49206531605C4870
:105B700002602B6843F480732B6070BD4C48006852
:105B800000B10120C0B27047D12202704170090AF1
:105B9000817054490A78C2700420521C0A70704700
:105BA0002DE9F14FDFF840A10446DAF8000082B099
:105BB000065D042E56DB01F009FF761DF6B20027C4
:105BC00000904FF6FF78DFF8249142E0B91E9DF86F
:105BD0000800C9B200F047FB0546414601F050FFFE
:105BE000804627E0B54239DA01F0F0FE0099401A0C
:105BF00080B240F2F512904230DAF8B210B95B256B
:105C0000012718E0012804D1DAF80000055D022719
:105C100011E0F01E854207F1010B08BF454609D08F
:105C2000B11E8D4208BF4FEA182503D0701E854271
:105C3000CCD15D255F4621480168CA0709D51E48B9
:105C40000168CA0505D5D9F800000028FBD089F8FD
:105C50000050174908680028FDB2C3D1B54208BFFB
:105C6000002000D00120BDE8FE8F10B50F4B186852
:105C700090B04022694601F052FE58B1C1B2684668
:105C800000F0D2F904462146122000F0B7FE20466B
:105C900000F047F910B010BD0000000000250A0018
:105CA000108814422875002070DF0200D868002098
:105CB000F0ED00E0B00F00E0000E00E0800E00E02C
:105CC00055CEACC506000E00F00004E0FCAC0600AA
:105CD000F8590D00100004E0FF0300400D00010022
:105CE000040304E00B7F00203C680020200000E05B
:105CF0002DE9F04104469046012522008AB00F4666
:105D00001E4606D0012C1DD0102C02D0202C19D0FC
:105D10001EE0002102F076F90546012C18BF202C68
:105D200008D0022C18BF212C04D0032C1CBF222C1D
:105D3000232C1AD1012E0197ADF80C800AD14FF413
:105D400080500BE068462A49282202F059FBE4E71C
:105D500001200BE0022E03D14FF44050ADF80A00B1
:105D60006946204602F04EF90546E8B20AB0BDE8A1
:105D7000F08180B502F007FAC0B202BD80B502F032
:105D800067FAC0B202BD2DE9F84380460F461446BB
:105D90001D46184E02E03068C75D203CE0B2202866
:105DA000F9DAE8B2B0B1C4F120005FFA85F9C0B207
:105DB000814588BF8146384600F03EF8E4B20119BB
:105DC0004A464046FFF7DAFF3068C75DA5EB090594
:105DD0000024E6E7BDE8F2830CB480B50A4601462C
:105DE00002AB054800F008FC02BC00205DF80CFB8B
:105DF00098D90200446800201B830000704730B42B
:105E0000002513E050F8042BD30744BFA9F1010388
:105E10009A18091F042942F8045BFAD213468C072A
:105E200044BF15809B1CC90748BF1D7050F8041B58
:105E30000029E7D130BC7047DFF800170A6802EB91
:105E400040107047DFF8F8261368195470472DE9A1
:105E5000F0415FEA000831D002F0DEFADFF8E42614
:105E6000DFF8E4161678DFF8E456FF23FE2E19D18A
:105E70000027DFF8DC66DFF8DCC6177034782C709A
:105E800007E07C1C0EF80740DCF800E00EF8073055
:105E9000E7B23478D1F800E0A742F2DB0EEB04065B
:105EA00006F8013C2E7846450AD202F0BBFA0520DE
:105EB000FEF70AFC00211B2002F038FBFF2020E047
:105EC000A6EB08062E701578DFF88C661778D6F8E2
:105ED00000E001240EF80740A8F10108D1F800C045
:105EE0001CF8074014705FFA88F4002CEED1DFF83C
:105EF00050260CF8073000211368595502F092FA29
:105F00002846BDE8F08110B5044602F085FADFF8B6
:105F1000481609680A5D521C0A55BDE8104002F097
:105F200081BAF8B5044600F031F8054602F074FA7B
:105F3000DFF81036DFF81476DFF80CC6DFF818E665
:105F400001E02C46FF25FF2C1CD022460FE0DCF898
:105F50000010895C0026A6543C78641C3C70FF2924
:105F6000DCF800601C78B4541A70EAD00A46DEF8F7
:105F700000108C5C661E8E54DEF80040A15C11F0AF
:105F80007F0FE4D0BDE8F24002F04CBA10B5DFF864
:105F9000C8150A68145C210605D5DFF8A02513682A
:105FA0004001185C10BDFF2010BDB0B504460D4681
:105FB000FFF7ECFFFF2818BFFFF7B3FF2846FF28C5
:105FC000DFF8947504D13868015D01F07F0105E0C8
:105FD000FFF799FF3868015D41F0800101556401C8
:105FE000DFF8580501680D55B0BD0EB430B5044654
:105FF0000120FFF72CFFDFF844150A68FF2802EBA9
:1060000040110ED0DFF8382513681C5403AA002372
:1060100004E052F8045B01F8015B5B1CDDB2A542B1
:10602000F7D330BC5DF810FB7CB504460D4605F196
:106030001F000004400DC0B2FFF709FFFF2806460D
:106040000DD0DFF8FC0401688D553CB101200090B3
:106050002B4600223146204600F002F8304676BD3D
:10606000F3B5054681B0DFF8D804016817469DF8FE
:1060700008201E468B5CF419A34203DA4FF4B77173
:1060800000F0E1F830000CD0089C394602A800F07E
:10609000DEF802469DF8081000943346284600F0CA
:1060A00001F8F7BD2DE9F047089DDFF89C64DFF8A3
:1060B0008CA48046894614461F460DE029002246DE
:1060C00012BF414601464046FEF768FA30683F1B62
:1060D000A04410F809900024F8B270B1DAF800007A
:1060E000214600EB4913581851FA87F12029B2BF15
:1060F000FCB2C4F12004E4B2E0E7BDE8F0872DE98A
:10610000FC410746DFF8380488460168CC5D154637
:106110001E462919CBB2A34206DB28000DD0C9B216
:10612000384600F05CF808B1182007E000962B46CE
:10613000224639464046FFF793FF0020BDE8F6812E
:106140000123DCE70A4600E0521C1378002BFBD148
:10615000521A0123D2B2D2E72DE9F041804601F173
:106160001F0402F11F00E404C004240E000E04B951
:10617000012400B9012084422BD0DFF8CC5319DA76
:10618000001BC0B2FFF763FE0746FF2808BF0020D0
:1061900020D0641E00F020F82E68305CFF2804D068
:1061A00000F01AF8305CFFF7BCFE00F015F8296823
:1061B0000F540EE08A420CD2411EC9B2404600F094
:1061C0001FF804462868005DFFF7ABFE2968FF2032
:1061D00008550120BDE8F081E1B2404610E070B5FD
:1061E000DFF85C63336805460C46595D2246FFF7CD
:1061F000B3FF18B130684455002070BD182070BD41
:1062000004E0DFF844231368185C491ECAB2002A70
:10621000F7D1704731B50C46DFF824130A68155CD6
:10622000AC4203D340F2052100F00DF82146684648
:1062300000F00DF8DFF804139DF800300A6802EB57
:106240004311084432BD0FF2243000F02BBD38B5A5
:1062500004460D46C9042078090EFFF7D1FF2070CF
:1062600005F01F0032BD80B5FFF7D4FF007802BDF6
:1062700010B51446FFF7CEFF047010BDF8B5DFF877
:10628000C05204462868065DFF2C03D140F2252148
:10629000FFF7D9FF06F11F01C904080EFFF7D7FD6C
:1062A000FF28074609D02868C655009600232246D5
:1062B0000021384600F0C2F83846F2BDF8B5054670
:1062C0000E4617460120FFF7C2FDFF28044610D0F6
:1062D000DFF868023246066806EB44163B4620218A
:1062E000701900F01FF82D18DFF8540201680D55E1
:1062F0002046F2BD1CB504AC009400F001F816BDB8
:1063000010B514461A46029B2044091BBDE81040F4
:10631000C9B207E00CB480B502AAFFF7CFFF02BCF8
:106320005DF80CFB2DE9F04781464F460024884676
:1063300015469A460CE0F6B23419444542DA324624
:106340003846FEF72BF9BF19641E641C6D1CE4B2BD
:10635000444537DA2878A8B3312818BF32280ED13F
:106360005AF8041B07F8011B3228EED1641CE4B272
:10637000A045A4BF091207F8011BE6DA22E0342881
:106380000ED1211D5AF8040B88451BDB3870020A18
:10639000010C000E7A70B970F8703F1DE41CD4E750
:1063A000A0F133035AF8041B072B38BFA0F13006C5
:1063B000C1D3A0F14103072B34BFA0F137065AF82F
:1063C000046BB8E7A7EB0901C8B2BDE8F0875D49E7
:1063D000FE200870704770B500F02BF800F003F84D
:1063E000301880B270BD0602294620463BE7E0B572
:1063F0008DF804200123120A8DF8052000930A4627
:106400000146022301A8FFF72BFE07BDF8B500F0F7
:1064100010F8FFF7E8FF8619E91CC9B2FFF7E5FF9E
:106420000702AD1CE9B2FFF7E0FFC01906EB004020
:10643000F2BD0D46691C0446C9B214E7FDB5089CBF
:1064400020000D461E461BD1F7BD3C4B9DF80400B5
:106450001B6803EB4010C2F12002D2B2BA42B8BFAF
:10646000174681199DF8000003EB40133A4658196E
:10647000FEF794F8E41B7D19BE19A0B200B9F7BD70
:10648000A9B26846FFF7E3FE0546B1B201A8FFF7DF
:10649000DEFE0646B542A7B2B4BF32462A46D4E76E
:1064A00070B504460D4601F0B7FF2A4A23781268FA
:1064B000FF2B08BF555503D013441E7856551D7049
:1064C0002570BDE8704001F0ADBF38B5044601F05D
:1064D000A3FF2178FF22FF2908BFFF2507D01D4B0E
:1064E0001B685D5C8D420EBF22705A5D5A5401F0EC
:1064F00099FF284632BDF8B504460D4601F08CFFE1
:1065000021780026FF2913D0124B1B680A4601266A
:1065100003E08F420CD03A46761C9F5CAF42F8D124
:10652000DF5D9F54A94203D18A4208BFFF22227037
:1065300001F078FFF0B2F2BD0000000038680020E2
:106540003C680020C96B002044680020AB6B002031
:10655000AA6B002048680020406800200078FF28CF
:1065600001D1012070470020704700007061636B0B
:1065700065742D6275666665722E630070B513468C
:1065800010440BE001F00F060909451E0A2EACBFAE
:1065900037243024A41928462C705B1EDCB2002C52
:1065A000F0D1104470BDF0B5002341B1002806D5EC
:1065B0002D2313700123B0F1004F18BF404200217A
:1065C0000024894D55F82470002601E0C01B761C7C
:1065D000B842FBD2F7B20FB90F0004D0D9B23036AF
:1065E00056545B1C0121641C092CEBDBD9B2303002
:1065F00050545B1CD8B2F0BD2DE9F84F804696B0E0
:1066000014A8894615469B4604AF4FF0000A0024A3
:1066100001901EE0012405460DE03429FAD15BF813
:10662000046B0422310C3846FFF7A8FF0422B1B2F4
:10663000FFF7A4FF074601998F4209D39DF8000098
:106640003F1A00F0C5F8002853D15AFA87FA04AF70
:106650006D1C04A88DF800009DF800002978381AF8
:1066600000290BD0252903D014B907F8011BE2E754
:10667000002C14BF00246D1C29780A0000F09B80B8
:10668000B1F1250216D00B3A092A40F28380283A4C
:106690007AD00A3A12D0521E42D0521E5CD0083A2A
:1066A0005AD0121F3FD0D21E3DD0921E54D0D21EBF
:1066B0006AD0C0E7252007F8010BBCE704A8DBF887
:1066C0000010DBF804208DF800000BF1080B3846B1
:1066D000039102920027029A9742ABD20399C95DB7
:1066E0000222FFF74BFF0199884206D300F074F8AD
:1066F000002869D15AFA86FA04A80299491E8F42E5
:106700003CBF202200F8012B0199884206D300F0FB
:1067100063F8002858D15AFA86FA04A87F1CDAE7F1
:106720005BF8040BC7E75BF8046B074600F050F812
:10673000002849D15AFA87FA04AF0022314600E016
:10674000521CD6B2885D0028FAD1D2B24846C04762
:10675000002839D1B2446EE76C290AD16A785BF817
:10676000040B752A0EBF00210121642A07D16D1C7C
:1067700005E075295BF8040B0CBF002101213A46A6
:10678000FFF711FF074456E75BF8041B0222C9B26A
:1067900038464DE768780124782818BF5828F2D188
:1067A0006D1C0024681E32297FF437AF5BF8040BA0
:1067B00081B20422ECE70546EAB200F00AF818B903
:1067C000AA445FFA8AF000E0002017B0BDE8F08F1D
:1067D000FAB204A9484640479DF80020861AF2B252
:1067E00004A94846404700004CDF020070B5FFF79F
:1067F0003CFAAA4C2046FFF7B1FED8B92046FFF775
:1068000064FEFF28044615D0A5480168085D851E72
:10681000E9B22046FFF7DFFD0646E9B22046FFF762
:10682000DEFC2146304600F0E9F82046BDE8704025
:10683000FFF777BB70BD03460A4696A10420FFE729
:106840000CB480B502AA00F031F801BC5DF80CFB75
:106850000A00034602D090A11120F1E77047000022
:1068600080B586B002F0B6F81022049200218D4A5D
:106870000092652305910393029101910246002342
:106880008CA10120FFF7DCFF8748817902884379DA
:106890000391029201930179C3788278009142209A
:1068A00087A1FFF7CDFF07B000BD00002DE9F04F35
:1068B00085B005460F469046FDF715FF0024F0B958
:1068C000FFF75CF9D8B10120FFF7C1FAFF28824633
:1068D00015D00021FFF7B6FA294601A8FFF754F9B1
:1068E000054687BB00F083F830B95046FFF758F9EA
:1068F00010B10420FDF7E8FE5046FFF712FB05B08B
:10690000BDE8F08F8DF8041001251BE0644858F8AD
:10691000046B006810F80A90F2B2FF2A12D0F1B2AC
:1069200010F801B00BEB0901C9B25046FFF757FC54
:106930000028E1D1CDF800B00023F2B2494650461C
:10694000FFF77CFD7F1C38780028CBD0A0F1300108
:106950000A2904D20A2101FB0404303CF2E700F0CA
:1069600046F80028C8D139780025422901A80ED060
:1069700044291AD0462925D057290DD06229C5D0DF
:1069800066292AD06C2925D0702926D0BAE758F874
:10699000040B8DF80400B7E758F8041B8DF80410B9
:1069A00002250904090E4170CCE758F8041B8DF844
:1069B00004100B0A0A0C090E437082708DF8071040
:1069C0000425BFE758F8041B5046FFF7BBFB00281F
:1069D000B8D091E758F8044BB4E758F8041BE2B27A
:1069E0005046FFF7ADFB002808BF0024F0E72A4619
:1069F00001A95046FFF7A4BB000000002DE9F043B9
:106A0000122885B080460D4609D03A281ED04FF690
:106A1000FE71884204BF284600F0E1F833E02048C8
:106A2000224F01684E5D2846FF282CD0212EB4BF8E
:106A300034462024FFF700FA01462246002001F0E8
:106A4000A3FA3868455D203EF6B2ECE702F05EF846
:106A5000814602F07CFF064602F0FEFA074602F08D
:106A6000F7FA044602F06FFF11490B8816A1029352
:106A700002460C480390CDF81090019600972346EB
:106A80003B20FFF7DDFE2946404605B0BDE8F04358
:106A9000FDF74ABE574600006C700000CA6B00202C
:106AA0003C6800201079002018E1020044680020B2
:106AB000966B0020424238704242424257424200A6
:106AC00042424242574200005742425757387042B2
:106AD00000000000DFF800F0E7660020DFF800F0BB
:106AE00065660020DFF800F0E366002038B5044654
:106AF0000D4603F091FA012C02D1FFF7EBFF02E003
:106B00002846FFF7EBFF18B103F08FFA012032BDE2
:106B100003F08BFA002032BD80B58308800705D5CD
:106B20004FF6FF7242EA0142009204E041F07F41D9
:106B300041F47F010091042269469800FFF7D2FFDB
:106B400002BDF8B506460D4605F0010106F001004C
:106B50000143144601D00120F2BD9CB132462B46C0
:106B6000611C4FF6FF7C01E0921C9B1C491E0BD060
:106B7000178867451CBF18880028F5D04B20F2BD48
:106B800003F053FA0020F2BD03F046FA012C01D0C5
:106B9000B00707D535F8021B3046FFF7BDFFC0B977
:106BA000B61C641E022C0CD367087F007A002946AD
:106BB0003046FFF797FF60B906EB470605EB470540
:106BC000E41B002CDCD029883046FFF7A5FF002805
:106BD000D6D003F02AFAD1E77047002070477047FB
:106BE0000198704770477047702003F045BA70B540
:106BF000044643381E4D08D0401E012809D9801E86
:106C000001280ED9C01F32D02AE0BDE87040FEF73F
:106C1000EFBEFEF717FF20B1FEF7EAFE0028FBD11A
:106C200070BD144E307810BB01213170FDF764FC4B
:106C3000442C12D00CD3462C05D00ED3472C07D1B0
:106C400040F6010001E040F6020003F01DFD04E003
:106C500040F20111284600F025F80020307070BD88
:106C60002846BDE8704040F2131100F01BB870BD1B
:106C7000F8DF02000F7F00207047002070470020DF
:106C8000704701207047012070470020704770470F
:106C900002F098B80020704701207047704700004C
:106CA00042DE704738B504460D4602F0CBFB00F0DB
:106CB00027F903F03FFD29462046FFF7BCFD2B4690
:106CC00022466C490120FFF787F829462046BDE897
:106CD0003440E5E768482DE9F843684E0168B1653E
:106CE0004FF42068026A6649F2650B6833664968AA
:106CF0007166426AB266816AF166C26A3267016B86
:106D00007167806B96F83810B06748074CBF346CD9
:106D1000F46B03F0F3FC002232658442594B0146C8
:106D200024BFA3F12007A742A146716506F1900296
:106D3000DFF854C1DFF854E118D3A0697064E46946
:106D4000B464B56DC5F30805062D13D1704511D394
:106D500060450FD200884DF64264A0420AD17068A7
:106D6000B4685060946040F2017803E000247464D9
:106D7000B46481464648814202D2014600E0091DC2
:106D80000846984203D20C68B4F1CD3FF7D0414990
:106D9000081AF0640021002006F17C04C5B2401CF2
:106DA000C7B244F82510062FF8D3002099452CD2FD
:106DB00053F8041D7145F9D36145F7D2CC07F5D5D9
:106DC000002406F17C0555F824708F4202D0641C23
:106DD000062CF8D3062CE9D1C4B2002C0CBF052038
:106DE000401E06F17C04C5B244F82510DEE7F16FC1
:106DF000002306F17C0506EB8304D4F8804045F8B7
:106E000023405B1C042BF6D911600146481EC9B211
:106E10000029ECD1B06DC0F30800032810D004287D
:106E200011D0052812D0062813D00C2817D012280C
:106E300018D119480268910719D540F2025816E096
:106E400040F6012813E040F6022810E040F603283F
:106E50000DE0B8F5206F0AD140F6042807E040F6AF
:106E6000052804E018B1322838BF40F6072840460C
:106E7000BDE8F28314DA020004ED00E00000002017
:106E800000E300E0F864002022D90200F84400008A
:106E90009C000020F86400201C20054003F04EBC3C
:106EA0007FB50121224800F001F9012201210120D2
:106EB00000F0F4FA0421072003F042FC1D4A92E896
:106EC00038006946032281E838000D218DF808104A
:106ED00001268DF809208DF800608DF8076069465D
:106EE000154C204603F0A8FC144904200860022237
:106EF000134962620860A26A42F00202A2627FBD88
:106F00000D4803F08DBCA52806D10B480068C107C9
:106F100002D50C4A0020106070470748006800F056
:106F200001007047084908680028FCD1704700003C
:106F300000050A0098DA02000020054080E200E027
:106F400000E100E00000A44208200540890001EBB8
:106F5000401101F184410A607047890001EB401142
:106F600001F1844108687047012101FA00F070477F
:106F700010B50122DFF81015884202D20022002449
:106F800007E0DFF80815884234BF4FF080744FF0F7
:106F900000741021DFF8F804FFF7D8FFDFF81406BB
:106FA000016821F080710C43046010BDDFF8E41427
:106FB000DFF8E4340A6802F04072984238BF0022D9
:106FC00004D3DFF88C36984238BF0122086820F0DD
:106FD000407040EA02600860704738B500F013F86E
:106FE00041F67130286003F06CFC002105E038B5F3
:106FF00000F009F841F671322A60FFF7D7FF0CB1B3
:107000000020286031BDDFF84C562C6804B1012403
:107010007047C01C0F2801D2000770474FF0704026
:107020007047000038B50446002500F001F9DFF88C
:107030008825DFF87415944208D0DFF88025944243
:1070400006D0DFF87C25944204D006E0086802E010
:10705000486800E0886800F00700401E03281AD83E
:10706000DFE800F002050C0803F071FC04E003F017
:1070700074FC01E003F06EFC05460CE003F014FC28
:107080000446DFF820060168C1F30060401CFFF7EA
:107090006BFFB4FBF0F5284632BDDFF804164A68F2
:1070A000D30702D40A680242FCD1704770B50C467F
:1070B0000246110A01F00F010020491E0929DFF8DC
:1070C000EC5513D8DFE801F005131212071518125A
:1070D0001B1FDFF8BC53C2F3043608B1FFF7DDFF16
:1070E000224631462846BDE870402FE770BD103576
:1070F000F1E730350120EEE738351020EBE7403579
:107100004FF48030E7E7DFF8A855E4E770B50346B1
:10711000DFF88805DFF8A0240668DFF8A014DFF8A0
:10712000A004DFF89044012513F4781362D0B3F57E
:10713000003F28D0B3F5802F21D0B3F5202F59D0B0
:10714000B3F5402F25D0B3F5602F4BD0B3F5801F9A
:107150006BD0B3F5A01F27D0B3F5B01F2CD0B3F57B
:10716000D01F32D0B3F5F01F1CD0B3F5001F2AD0CA
:10717000B3F5101F33D0B3F5481F3ED054E003F0F1
:10718000A2FBE16802E003F09EFBA168C1F30821C5
:1071900004E003F098FB6169C1F30421491CB0FBD2
:1071A000F1F642E010461AE0FFF73CFF0646206B7E
:1071B00000F00F00C64038E01046FFF733FF216AA9
:1071C00001F00F0107E0084609E00846FFF72AFF33
:1071D000A16A01F003018D40B0FBF5F625E0FFF751
:1071E00021FF1FE0DFF8CC0400F022F807281CD0B4
:1071F000092819D103F067FB14E0DFF8BC0400F0A4
:1072000017F804280CD007280FD008280CD103F059
:107210005AFB06462068C0F30420401C464304E0A5
:1072200003F06DFB064600E00026304670BD00000E
:10723000014601F00F010120491E0729DFF88024D3
:1072400049D8DFE801F0040F1348202E4836506A71
:1072500000F0070002283AD002D3042804D01CD33F
:107260000520704711690FE002207047516901F055
:107270000701491E03292FD8DFE801F00F0203118F
:10728000F2E706207047916901F00701012904D057
:107290000229E9D0042902D07047032070470A2050
:1072A0007047116811F001010FD0012914D1092094
:1072B0007047DFF810140A6802F03002102A04D078
:1072C000202A04D0302A04D07047072070470420B9
:1072D00070470820704700207047000070B500F02C
:1072E0000F0003250326401E0728DFF8D4430ED8DD
:1072F000DFE800F0042D31752F59756402296248CA
:1073000006D003291AD004291AD005291DD070BD32
:107310000425002601220121304600F0BFF8FFF7C6
:107320005CFE6560DFF89403FFF7F0FEFFF720FED8
:1073300003F0BAFABDE87040002158E60126E9E7FB
:1073400002250226FFF714FEE4E70125FAE71034D0
:1073500002E0183400E01434012929D0022906D0B3
:1073600003290BD0062910D00A291AD070BD01229A
:107370000121002000F092F802201AE001220121F0
:10738000012000F08BF8012013E003F08DFAFFF7E5
:10739000EFFD01220021DFF81403FFF7D7FD0320E2
:1073A00007E0042005E0072902D0092903D070BDB9
:1073B0000020206070BD0121216070BD012906D030
:1073C000042914D007290BD0082914D070BD00203F
:1073D000DFF8F0120A6822F030021043086070BD36
:1073E00001220121042000F059F81020F0E700F0FC
:1073F00004F82020ECE73020EAE7012201210220F6
:107400004CE070B5044600F03DF801220021022056
:1074100000F044F8217CDFF8B452002002292968EA
:1074200008BF0120490840EA41002860082122786D
:107430002846FFF78BFD6968E07AC90840EAC10178
:107440006960607AA18840EAC120A860EE68207A6D
:10745000FFF7DFFDE288A17A06F07F6646EAC226E2
:10746000227A0E4346EAC2160643EE60A17B607B99
:10747000227B090141EA0031E07B014341EA0241FC
:10748000296170BD1120D3E60148E8010190D003C5
:1074900000400E4004000E4041787D012DE9F84F78
:1074A0000428834692466DD8DFE800F0504B410334
:1074B000460001270220012500260029DFF8E88187
:1074C000824C61D0BBF1020F02BF2068C0F30110F3
:1074D00000284FF000090AD12068C1074FF00109C8
:1074E00005D5206820F0300040F010002060E763F0
:1074F000314600F05CF80028FAD0BAF1000F41D014
:1075000000F054F80028FBD0BBF1020F3AD1B9F1DA
:10751000000F37D02068C1071FD54FF48060C8F82E
:10752000180020212164022000F096F819E00427B9
:10753000082003250226C0E7102720200525042661
:10754000BBE74027802007250626B6E74FF4807763
:107550004FF4007009250826AFE70021022000F053
:107560007BF8D8F80C60012200210220FFF796FF7B
:10757000C6F30A01022000F025F8E76300F016F8D0
:107580000028FBD0BDE8F18FE063D8F80000F040A0
:10759000C107FAD4BAF1000FF4D0D8F80000E840DF
:1075A000C107FAD4EEE7000080400E40294640466D
:1075B000FFF7D3BC00410E4002001E000300200074
:1075C00005002400F8B5401E0D46032805F07F068F
:1075D0003D4C334F3BD8DFE800F00228101CC5F3C8
:1075E00008051A213846FFF7B8FC0028F9D12069B0
:1075F000400A45EA40252561F1BD18213846FFF7CC
:10760000ACFC0028F9D12068C00946EAC016266003
:10761000F1BD19213846FFF7A0FC0028F9D1A06878
:10762000C00946EAC016A660F1BD1F48016862693C
:1076300022F0300242F010026261C5F3C310FFF77E
:10764000E8FC226A22490A40154305432562F1BD40
:10765000015A620240000E401C4A1068C0F301103B
:10766000002818BF002911D0202902D030290DD0C0
:107670000FE04FF40000D16E01408142FBD1400287
:1076800009D5D06F800A00F0010070474FF4400028
:10769000F1E71048EFE7012070470000B0680020D4
:1076A00040410E4000410E4090400E40B0400E4020
:1076B00050410E4006000E00B800320000050A00DE
:1076C00070400E405C410E4010400E4024400E4081
:1076D00000F8FF0FFF03E107890001EB401101F102
:1076E00084410A60704700F1C0600160704700F19A
:1076F00080600160704738B504461546FFF7F7FF14
:1077000029462046BDE83440EDE710B500F011F8F9
:10771000BDE8104003FA01F102F10C00E7E710B5F3
:1077200000F007F8BDE8104003FA01F102F10C0087
:10773000D9E730223F4C50430123221870473E497D
:107740000A68920840EA8200086070472DE9F0411B
:1077500001F00305164603240F21082E98460CD28B
:10776000B70000FA07F2B9403448FFF7C4FF05FA42
:1077700007F204FA07F132480DE0A6F1080297007B
:1077800000FA07F2B9402F48FFF7B5FF05FA07F2F4
:1077900004FA07F12C482D4FFFF7ADFF079C069D1B
:1077A0002B4842463146FFF797FF2A463146384676
:1077B000FFF792FF224631460120B0403861BDE814
:1077C000F041244888E7F8B50546174638000E46CC
:1077D0001C4607D0002C284602D0FFF7A0FF01E08E
:1077E000FFF793FF2A4630201249424388180F22A0
:1077F000082E05D2B300416800F015F8416006E09C
:10780000A6F108039B00816800F00DF881604FB974
:10781000002C3146284602D0BDE8F4407FE7BDE8A1
:10782000F44072E7F1BD9A4021EA020207FA03F13F
:107830001143704700A0004044A4004000A4004051
:1078400008A4004004A400400CA4004014A400407C
:1078500010A4004028A4004010B5DFF85C41DFF818
:107860005C11E1610320206160611022DFF85001AA
:10787000A06122620021A162E16220660022DFF89D
:107880004401626210216066A1662267E2662EA151
:107890006267E31D0868DFF8301118600722204690
:1078A00000F0AEFD2023A37110BD2DE9F843DFF8F1
:1078B0000851044628788846914608B9FFF7CCFF5E
:1078C00018204443281900F1600600243769F56840
:1078D000BD4212D2B4687068E41B4C4588BF4C4668
:1078E000C1192246404600F08BFDB168E7198F426E
:1078F000A044A9EB040908BF0027ED1B4D4588BF34
:107900004D463DB17068C1192A46404600F078FDE9
:107910002C19EF1904B137612046BDE8F283F8B5A0
:1079200004460D46164600F077FD074632462946C6
:107930002046FFF7BAFFFFE70446384600F072FD25
:107940002046F2BD00000000525454002DE9F843D7
:1079500000F02AF808B9FFF77FFF00F05DFD7269BB
:1079600001460027182306F1640C03FB07FE5CF8B0
:107970000E0010B17F1C9742F7DB97420BDA7B4376
:10798000F018002204664566C0F868800267C26687
:10799000C0F8749001E04FF0FF37FFE7084600F0B1
:1079A00041FD3846BDE8F283034E044630780D466B
:1079B0009046994670474FE7006C0020687500209C
:1079C00080DF0200787500208CDF020080B500F0B7
:1079D0000AF880B202BD80B500F005F8FA21B0FBCC
:1079E000F1F080B202BD80B503F079F9BDE8044042
:1079F00003F08CB980B503F0B5FA1248002141605C
:107A0000001D02F0D9FF20B15FF04C0118A0FFF774
:107A100049F9002002BD0B490120087070477CB570
:107A200004460025226802B910E000F002F80120A7
:107A300010E0044E044B357000210091706803F093
:107A400039B80000B8750020177A000003F04AFB2F
:107A5000002076BD03F0E2FB307828B9706821463B
:107A600003F0ECF8852501E025603570284676BDE9
:107A700073797374656D2D74696D65722E63000082
:107A80000A0A42EA01225040C0F30311484080EA4A
:107A9000003041010206C9B2D20E41EA022148403B
:107AA00080B27047010008D4012200F01F01DFF806
:107AB00090378A40400943F82020704701000CD4D9
:107AC000012200F01F01DFF87C378A40400943F8AB
:107AD0002020BFF34F8FBFF36F8F7047010008D492
:107AE000012200F01F01DFF860378A40400943F8A7
:107AF00020207047C26C1143C1647047012803D92C
:107B0000103801D0103801D1012070470020704793
:107B100010B5DFF8384730B1012807D0102802D05F
:107B2000202803D004E00020204410BD1C20FBE7E7
:107B30004FF4BD71DFF82808FFF7B4F8204610BDF8
:107B4000426893884089411A8B4201DA01207047CC
:107B5000002070477FB50446FFF7D0FF00283BD0D8
:107B6000204600F077F890B300F0DFFA054600F009
:107B700053FC0646A86901AB6A4602A904F08CFAD8
:107B800000992A89286889B200F027F8304600F069
:107B900049FCA86904F0F8FA012818D12A68298953
:107BA00090882A8A091A914211DBA86990F831104D
:107BB000022903D104F06EFA022804DAA86990F8C9
:107BC0003110012903D1A869002104F0B6FA200080
:107BD00014BF102CFEF749F87FBD70B504460E4661
:107BE000154600F019FCE288B2420CD221888B1AAB
:107BF000991991FBF5FC05FB1C152580A388F3184A
:107C00009A1AA280E68000F0E0BBF8B504460D4663
:107C1000164600F01FF8B0B100F087FA0446207B4A
:107C200010B101216173F1BD607B18B12046BDE840
:107C3000F240CCE00FF2FD1700F006F818B100F0AA
:107C400003F80028FBD1F1BDA0693B463246294626
:107C500004F078BB012818BF202801D1012070470B
:107C60000020704770B506460D46FFF751FF012E04
:107C700018BF202E044643D1A069016890F8320055
:107C8000E0B904228A6400F06EF9A06900683DB191
:107C90000421FFF72FFF0B20FFF704FF052107E06A
:107CA000C16C21F00401C1640B20FFF707FF002124
:107CB000A0690068BDE8704004F0AEBB04204863D2
:107CC00000F051F9002DA0690BD001688A6B42F0D9
:107CD00004028A634FF40061DFF864251160052116
:107CE00009E00068816B21F0040181630B20FFF73C
:107CF000E5FEA06900210068BDE8704004F00FBCFB
:107D000070BDF8B50446DFF85C0681421D463CD0E4
:107D10000026F2B21C20DFF8341542438F18BB69ED
:107D2000A3422ED13A893868A9B2FFF756FF3868C6
:107D30000021C18002E0384600F028F8204604F017
:107D4000A9F902281DDC798AFA8951433A6890889A
:107D5000002889B2EFD01388B7F80EC052888C443F
:107D60006245B8BF994208DB10468342E3D2FA89E4
:107D70008A189042A8BF9942DDDA0121204604F01A
:107D8000DCF9761CF0B20228C3DBF1BD70B5044605
:107D9000DFF8D435E089668A2568024670432E18DC
:107DA000A06906F1080104F089FAA06904F072F9EB
:107DB000012803DDA069002104F0BFF9608AA18ACF
:107DC000401C90FBF1F201FB1200608270BDFEB519
:107DD0000446207B68BB60680FF25906418808445E
:107DE00000F10807A0696B4601AA02A904F075F921
:107DF00061688A880098019D121A551B4A88088874
:107E000090420ED26189A0698A1A3346394604F03D
:107E100099FA70B96268618950886D1A451902F142
:107E20000807A0693346EAB2394604F08BFA00B974
:107E30006073F7BD2DE9F041054698460027F9B279
:107E40001C22DFF8080451434418A369AB4216D141
:107E500060688188414534BF8688464600F0DCFA78
:107E600061684A8812FA86F1628900F061F86268F6
:107E7000518061688A88961B8E8000F0D3FA7F1C3F
:107E8000F8B20228DBDBBDE8F08110B52020FFF757
:107E90003FFE0446DFF8D404A16991F83120012A9D
:107EA0003FD101690A0640D504F026FB112809D10B
:107EB000A069002104F04EF9002020732046BDE89F
:107EC000104084E7132806D1A069012104F042F98B
:107ED0000120207310BD216801F108020988505467
:107EE0002068018800F022F801808188491C818087
:107EF000A06904F049F9216822898988511A89B258
:107F000020B9E089884210DB012105E001280CD16D
:107F1000208A814209DB0021A069BDE8104004F0FD
:107F20000CB9C16C21F00401C16410BD2289491C47
:107F300091FBF2F302FB1311704710B5DFF82C44EC
:107F400028B92046BDE81040002104F065BA00F0D1
:107F50000AF8DFF8EC124FF400600860E26C42F0BF
:107F60000402E26410BD0B20B8E580B530B9BDE86D
:107F700004400521DFF8F40304F04EBAFFF7F3FFE5
:107F8000BDE802400B2099E5F8B50C461546FFF711
:107F9000BFFD0646306881883289E8B2121A9142E4
:107FA00001DB0120F2BD00270EE000F035FA316858
:107FB00014F8012B01F1080309885A547F1C316819
:107FC0000A88338900F030F9AF42EED30020F2BDC9
:107FD00010B5012818BF202807D1FFF799FD0446E6
:107FE000A06904F02FF8800401D4002010BD61685E
:107FF00088880028F9D1A06904F06BF8401E804100
:10800000C00F10BDF8B5012804460D4603D910383D
:1080100001D0103850D1204600F0DEF910B92046CA
:1080200000F085F800F081F8064600F07EF82100A7
:108030000FD0012C03D0102C0BD0202C3CD1DFF81A
:108040003013DFF8302301608023426003814381D5
:1080500009E0DFF82423DFF82413026041604023A5
:10806000802103814181200018BF102C03D1BDE87D
:10807000F140FDF72BBD012C18BF202C53D1012C52
:1080800016BF202CDFF8F8020020012C18BF202C8E
:10809000B06111D1DFF8EC12DFF8EC02E961A86100
:1080A000A98CF181EB8C33828B4207D21C213046A4
:1080B00004F068FA0220F2BD0120F2BDB26992F824
:1080C000310001280CD0308990FBF1F701FB17003B
:1080D000002802BF93FBF1F001FB10310029E5D12C
:1080E0002946104603F0AAFBF0B9B069017F007E73
:1080F00001230222FFF767FB287C012808D1012118
:108100002046FFF7AFFDB069002104F016F80AE041
:10811000002070823189F08991FBF0F0B08200F08C
:1081200058F900F056F90020F2BD2046F0E458B5A9
:108130000128044603D9103801D0103812D1204646
:1081400000F04AF9E8B9204600F020F9FFF7EDFF0A
:10815000012C18BF202C06460FD1B06903F0A1FEF8
:1081600010B152BD012052BDB06990F83110012903
:1081700003D100212046FFF775FD1C21304604F095
:1081800001FA002052BDF8B5054601280F462E46DB
:1081900003D9103801D010380BD12846FFF7B8FCAE
:1081A00004462846FFF7D6FC2168888818B926209F
:1081B000F2BD0120F2BD00F02FF90546206841888C
:1081C0000844027A3A7020684188FFF7AFFE418088
:1081D00081884A1E012E18BF202E82801FD1A069DF
:1081E00090F83110012903D119E02046FFF7CEFDA8
:1081F000A06903F04FFF022811DA2268E089618A42
:1082000053881288414389B240188342B8BF9142D3
:1082100005DB9A42E9D28342A8BF9142E5DA2846BB
:1082200000F000F90020F2BD521C92FBF3FC03FBAE
:108230001C220A808A88521C8A8000F0F3B8000051
:1082400000E100E080E100E080E200E0E071002079
:108250002DE9F84F0128804604D9B0F1100301D070
:10826000103B10D1002818BF1028894692460CD028
:10827000FFF74EFC0646002470680188084400F1B0
:10828000080B00252FE0012045E051464846FEF747
:10829000DFFA3FE000F0C0F871680B8819F8012B95
:1082A00019440A7271680A887389521C92FBF3FCA4
:1082B00003FB1C220A808A88521C8A8009884F1E70
:1082C000BF4100F0AFF8FF0F67B1EFB27F1C3F1B5B
:1082D000FAB259464046FFF798FC70683C19E4B280
:1082E00000F1080B6D1CE8B250450AD2002130465F
:1082F000FFF726FC0028CDD1307B0028F6D02220C5
:1083000009E0544506DAAAEB040082B25946404619
:10831000FFF77BFC0020BDE8F28FF8B501240128AF
:1083200007460E46154603D9103801D0103815D12E
:10833000380018BF102F04D129463046FEF788FABE
:1083400000243846FFF7E4FB012F18BF202F05D18A
:1083500080692A46314603F019FF04462046F2BDE3
:10836000C0D90200097000F0037D00000000014048
:10837000D07000205871002000700020487000204C
:1083800018720020B86700203867002070B50546D5
:10839000FFF7BEFB0646012D346818BF202D0DD116
:1083A000B06990F83110012908D0022103F0C0FD16
:1083B0000020708200F00DF800F00BF800F02CF8AF
:1083C0000021A18021806180E180BDE8704000F043
:1083D00029B83046FFF7DABC80B5012804D9B0F1DE
:1083E000100101D0103906D1FFF792FB00281CBF05
:1083F0000068002801D1012002BD002002BD00005C
:108400004AB1000011F8013B521E00F8013B1CBFAD
:1084100011F8013BF8E77047EFF31180602181F319
:108420001188704780F311887047000010B5364CF2
:1084300008220021201DFCF7F8F804F0BDF8207098
:1084400004F0BAF8607004F0B7F8A0702F48017813
:10845000E17010BD10B500F0FBFD2D4C2178884275
:1084600003D0084600F006FD48B900F0F5FD94F988
:108470000610884205D0084600F0FDFD08B1012035
:1084800010BD608801F049FAA08801F064FA214823
:10849000017801290CBF0120002001F02BFA0020F7
:1084A00010BD10B51C4C0020207004F0D8FC20B981
:1084B0002046BDE8104004F031BDBDE81040C9E7DA
:1084C00080B5002000F014F828B1002000F005F875
:1084D00008B1002002BDFF2002BD1048007802282C
:1084E0001CBF1128432801D101207047002070478C
:1084F0000848007801281CBF0228032801D1012068
:108500007047002070470000F0780020BF6B00200B
:10851000986B0020257F0020E8780020267F00202F
:1085200000207047702070470020704782B08DF89F
:108530000010DDE9002311461A4602B004F0FEBD2A
:1085400033B585B005468DF8042000F083FA044663
:10855000284600F08FFA7CB10028BDF818000FD132
:1085600000F04FFB8DF80000FF2804BF00218DF8BC
:108570000010CDF808D016E0A8B106A8029012E0CD
:1085800000F03FFB8DF80000FF2804BF00218DF8AC
:1085900000109DF80000BDF818108DF80C0003AA1B
:1085A000ADF80E100292DDE901010A4601462846A7
:1085B00004F0C4FD07B030BD4901020003D4DFF868
:1085C000580481547047DFF8543402F00F021A4403
:1085D00002F8041C704730B500F007000123C0F119
:1085E0000704042C2EBF072403FA04F4641EC51CE0
:1085F000072D34BF0020001F2140814003FA00F006
:10860000401E1040084330BD890001EB401101F1CC
:1086100084410A6070470020704770473EB572B6CB
:1086200002F088F8DFF8F803DFF8F84341692160C9
:1086300000F0BCF901466FF00B00FFF7BDFF00F042
:10864000B5F901466FF00A00FFF7B6FF00F0AEF98A
:1086500001466FF00900FFF7AFFF00F09FF90146F8
:108660006FF00800FFF7A8FF00F098F901466FF0DF
:108670000700FFF7A1FF00F091F901466FF0060037
:10868000FFF79AFF00F08AF901466FF00500FFF747
:1086900093FF0022022100F083F901466FF00400ED
:1086A000FFF78AFF00F086F901466FF00300FFF73D
:1086B00083FF00F073F901466FF00200FFF77CFFC3
:1086C0000022072100F06CF901466FF00100FFF76E
:1086D00073FF00F06FF901464FF0FF30FFF76CFFBA
:1086E00000F068F901460020FFF766FF0022032131
:1086F00000F056F901460120FFF75EFF00F052F945
:1087000001460220FFF758FF00F054F9014603200C
:10871000FFF752FF00F04EF901460420FFF74CFF2F
:1087200000F048F901460520FFF746FF00F042F946
:1087300001460620FFF740FF00F03CF90146072004
:10874000FFF73AFF00F036F901460820FFF734FF43
:1087500000F030F901460920FFF72EFF00F02AF95A
:1087600001460A20FFF728FF00F024F901460B20FC
:10877000FFF722FF00F01EF901460C20FFF71CFF57
:1087800000F018F901460D20FFF716FF00F012F96E
:1087900001460E20FFF710FF00F00CF901460F20F4
:1087A000FFF70AFF00F006F901461020FFF704FF6B
:1087B00000F000F901461120FFF7FEFE00F0FAF884
:1087C00001461220FFF7F8FE00F0F4F801461320EE
:1087D000FFF7F2FE00F0EEF801461420FFF7ECFE82
:1087E00000F0E8F801461520FFF7E6FE00F0E2F899
:1087F00001461620FFF7E0FE00F0DCF801461720E6
:10880000FFF7DAFE00F0D6F801461820FFF7D4FE95
:1088100000F0D0F801461920FFF7CEFE00F0CAF8AC
:1088200001461A20FFF7C8FE00F0C4F801461B20DD
:10883000FFF7C2FE00F0BEF801461C20FFF7BCFEA9
:1088400000F0B8F801461D20FFF7B6FE00F0B2F8C0
:1088500001461E20FFF7B0FE00F0ACF801461F20D5
:10886000FFF7AAFE00F0A6F801462020FFF7A4FEBD
:1088700000F098F801462120FFF79EFE00F08EF8E8
:1088800001462220FFF798FE00F088F801462320D9
:10889000FFF792FE00F082F801462420FFF78CFEDD
:1088A00000F07CF801462520FFF786FE00F076F800
:1088B00001462620FFF780FE00F070F801462720D1
:1088C000FFF77AFE61684FF6FF00014041F0BF619B
:1088D00041F4013161604FF4E021E06840F4007040
:1088E000E060E06840F01000E060E16104F0D3FC7B
:1088F00004F004FD4C4A4D4892B20021FBF795FE6E
:1089000062B64B494B4A012008606846146804F07F
:1089100047FD240E8F2C10DA4748484C016841F07F
:10892000040202604FF05013002230255543521CC0
:108930006351052AF9D9016000E006DC404801686E
:10894000C909C90141F0200101609DF80100012819
:1089500004D13C48016841F00401016000220D216E
:108960003948FFF751FE39490120086004F032FD13
:1089700002F04EF804F070FE0521684603F002FE96
:1089800001208DF80300684604F0E4FF02F0AEFB1E
:10899000FFF730F82E4805F09FFA37BDFF22FF2180
:1089A000042018E600220121042014E60022002100
:1089B000042010E60022042104200CE640F20160AD
:1089C00001F062BE05F0AABA05F0A9BA032005F0CD
:1089D0003CBB000010B504F0D2FC044604F0D3FC0C
:1089E000C0B220B9012C0BD144F0800010BD072C7F
:1089F000FAD8DFE804F005040709090B0D0FF3E7C7
:108A0000002010BD092010BD022010BD032010BDA4
:108A10000B2010BD062010BD00E400E018ED00E0C2
:108A20000040000008ED00E04C150000A000002010
:108A300044000E40FC81E00FB0400E4000A000401A
:108A40002C400E4064310E4054300E4010300E4029
:108A500050E0020020B5002178A2CBB2D35C834263
:108A600005D0491CCDB2082DF7D3002020BD012030
:108A700020BD000020B5002172A2CBB2D35C83429E
:108A800005D0491CCDB2082DF7D3002020BD012010
:108A900020BD6048008870475F4870475F48007895
:108AA00070475E490870704738B55D495D4C087085
:108AB00002285D4914D15D4D2878042809D0084664
:108AC00004F02CFA287803281EBF0428204604F05E
:108AD00025FA57480168CA0054BF9024BC2405E019
:108AE000002008702070912405F0D0FA204605F08F
:108AF000D5FA50B92346132245A10320FBF7EBFD1D
:108B00002046BDE8324006F049B931BD44480078FE
:108B100000F00F0070474248017801F00F01022970
:108B200001D1012070470020704710B504463C4831
:108B3000007800F00F01022918BF032801D093200C
:108B400010BD06F0B5FA20813A4A3B480178A1727F
:108B50001078E072204607F0CBFF0020207304F16C
:108B6000140104F1100008F07BF8E081002010BD32
:108B700038B52B4800780C4600F00F01022918BFC9
:108B8000032801D0932032BD2B482A4D0178217053
:108B9000287800F012F96070287800F01F00A070AB
:108BA000002032BD10B5002300E05B1CDCB28C421B
:108BB00005D210F8014B9442F7D0002010BD0120DF
:108BC00010BD082108F0AEB91548007801281CBF77
:108BD0003128332801D1012070470020704710B59B
:108BE000044600F048FA010004BF13490C7010BDA0
:108BF000114890F9000070470E4800787047012036
:108C000070470C480178480918BF012070470000E0
:108C100042420000966B0020F4780020F378002098
:108C2000267F0020FC7C002038780020257F002053
:108C3000FC780020986B00209E6B0020000102034E
:108C400004051D200203040508090A0B38B5044673
:108C500005F05CF90546DFF8540A837801789942FB
:108C600011D000F04AF8641E07D0641E08D0A41E7C
:108C700006D0A41E032C03D905E00022194600E00B
:108C8000002208F06FF9284632BD10B5DFF85C3AD3
:108C90004C000146986A224608F06DF9A04201D0C6
:108CA000002010BD012010BD80B500F026F808F0AE
:108CB0001DFA00B10120C0B202BDDFF8302A014622
:108CC000107B002800D1704780B5906A08F03CFA0C
:108CD00028B1BDE804404FF4BF7100F0ABBB01BD4B
:108CE00080B500F00AF808F03FF900F0030003280F
:108CF00001D1012002BD002002BDDFF8F009806A29
:108D0000704780B5B0F5004F08D14FF6FF70DFF81F
:108D1000141A098800F0AAFEBDF80000DFF88C19CB
:108D20004883002002BD2DE9F04F4FEA501C0C464D
:108D300000F01F000026DFF8F0892FE00EF1010E91
:108D4000EF7E5FFA8EF0B84226D2E8695FFA8EF9BC
:108D5000142717FB09F94844077A07F00707674506
:108D6000ECD1477AB942E9DB90F801B090F8009075
:108D700007EB0B0AAAEB090A8A45DFDB14B1C91B12
:108D8000494421700AB1017A117003B11860284674
:108D900000E00020BDE8F08F0846761C98F80650E9
:108DA000F1B2A942F5D2D8F808105FFA86FE51F860
:108DB0002E504FF0000E0146C2E7400918BF40F0A8
:108DC0001800704738B5DFF82449A06A08F08EF91A
:108DD0000546E80744BFA06A08F08DF9E8031ED5F0
:108DE000E16ADFF8A05A086A18B940F2492100F098
:108DF00018FDE06A016A486818B940F24B2100F09A
:108E000010FDE26A136AA06A5A680021904730B1E7
:108E10002846BDE834404FF41371FDF743BF31BD20
:108E20003EB5684600210022002380E80E00DFF8EE
:108E30007C48A07A25788DF80050002818BF0228B9
:108E400010D1DFF8A85800F00EF858B1A86A012236
:108E5000002108F08BF800F006F818B140F28121EB
:108E600000F021FC37BD2179A86A6A4608F0E1B814
:108E7000000000002DE9F043FF2889B006460AD122
:108E8000DFF8A40881680A68D069467A017A06F09A
:108E90001F0646EA4116F5B205F01F001B2847D20F
:108EA0000021019101AB6A46F0B2FFF73CFF5FEA97
:108EB00000081CBF019800283AD0DFF8F047DFF81F
:108EC0002C782179F0B2884231D00B3D102D39BF7A
:108ED000DFF8180A0568DFF8181A0D68002D1CBFA6
:108EE0002878032824D0786C854214D002A829461B
:108EF0000622FFF785FAB86A7D6402A908F07CF9BA
:108F0000B0B9B86A04A908F08CF9B4F91810B86AB5
:108F100008F044F960B9386B0199C7F82C80884291
:108F200008D19DF8000078732671FFF779FF75E08E
:108F30008A207BE0A57ADFF84C9900F083FA386B41
:108F400038B1B86A08F0B7F918B140F2B62100F0AC
:108F5000E8FE019801993863C868786318B940F24F
:108F6000BB2100F0DEFED8F82000B96C814219D098
:108F700018B940F2C22100F0D4FED8F820100868D9
:108F800018B94FF4317100F0CCFED8F82010B86A4F
:108F90000A68904718B140F2C52100F0C2FED8F827
:108FA0002000B8640DF1080022A11C22FFF728FA66
:108FB000786B418A0901ADF80E10417C0901143922
:108FC000ADF8161002A9407C0001ADF81A00E07956
:108FD000401E8041C00F8DF82100787C8DF8220062
:108FE000B86A08F02FF918B140F2E62100F099FEB6
:108FF00000F067FCA08B00F090FCE08B00F0ABFC75
:10900000207A00F041FC9DF800007873267100F092
:1090100034FD00F0FBFC284600F07EFA97F90E10B4
:10902000B86AC905091408F0AFFB002009B0BDE813
:10903000F0830000000000000100000001010101B8
:109040006400000064000000000000000B0000004D
:10905000DFF8D40700797047DFF8CC07B0F91800C3
:10906000002854BF05216FF0040108180A2190FB65
:10907000F1F040B270470A2110FB01F0FFE7F8B5AC
:1090800000F5D77140F27722914201D38B20F2BDD7
:10909000DFF85856DFF890472A6B0A26002A1EBFD1
:1090A000A17E01F0C001802911D0E97B79B992F944
:1090B00002100F4617FB06F7B842A1BF92F9031042
:1090C0000A4612FB06F28242B8BF11FB06F0297B6A
:1090D00061B10146A86A08F061F818B140F23B316D
:1090E00000F0E1FAA86A08F074F801E010FB06F05D
:1090F00020830020F2BD38B504460B38102839BF54
:10910000DFF8E8070068DFF8E817086888B100238F
:10911000002200212046FFF706FE50B104F01F0593
:109120001B2D06D22046FFF748FE10B928460B2813
:1091300000DAFF2032BDDFF8C4194008085C704730
:109140007047C0B2704711F1630F01DA0020704719
:1091500011F1240F01DBFF2070476431090248112F
:1091600001EB90618904080E704770B5DFF87C450B
:10917000DFF8EC590020E064687830B108F00CFBAF
:109180000246012A18BF032A01D1002070BD606B7E
:10919000DFF83439DFF8146500281FBF216B096937
:1091A0000029022A17D1E364706900F5FA70706132
:1091B000607D18B100200021642203E0E87829795D
:1091C0004FF4A0722070A28061708021A878A070F6
:1091D000E180002031E0DFF828597269A94214D1FA
:1091E000DFF8A019E16402F57A727261617D91B9CC
:1091F0000179217001258278037990F90310954057
:10920000EB18CB185B1E63700DE0E36402F5FA7295
:109210007261617D19B100222280642105E04178EC
:1092200021708278627001780901A1804179A17072
:1092300002891201E280C0880001A06000F01DFCDC
:10924000E070A07841B2002948BF4042C0B270BD72
:1092500070B50446DFF89464257896F9160008B1D5
:109260008C2070BD3065FFF780FF30766901DFF834
:109270003C24DFF8EC385078107301F580715161AF
:10928000987910B1AD1EEDB203E0306D40F00200F0
:109290003065F17B81B9187870B1607881060BD5A3
:1092A000306D40F0010030656FF00101B17550691B
:1092B00000F50870506102E04FF0FF30B07508F023
:1092C0009CFA40B108F097FA0128316D0CBF0820D4
:1092D000102008433065032000F01EF96A1CB06AB4
:1092E0004FF4807392B2214608F095FA6D1CA842A3
:1092F00003DA40F2BB4100F0D6F9002070BD000057
:109300002DE9FC41DFF8E46396F916100025091DEC
:1093100004296FF0030419D8DFE801F00A0A1C1CC5
:109320000300FFF795FF050014D000F043FE7EE038
:1093300096F91600A0420CBF0121002100F03BFE6F
:10934000B575B06A07F016FE8D2071E000F032FEB0
:109350008C206DE004F0D8FDE0B1F06CDFF8681708
:10936000884217D1307EA8B1DFF81C1808680028A1
:1093700010D5DFF81808C168C1600122006800F04C
:109380000F008240521E114204D100F087FB64207E
:1093900008F08FFAFFF740F8804696F9160010F1B2
:1093A000010F1CBF96F9160010F1020F2ED196F98D
:1093B0001600DFF8F8724042B075FEF707FB38621E
:1093C0000022B06A802108F0C7FAF46CB06A3979DB
:1093D000326D002C07F10C0306D107F0FBFD0100F4
:1093E00005D1002125200EE000933346A047D8B1D7
:1093F0000020B0754FF0FF3139628C25B06A07F05C
:10940000B9FD00212620FFF721FC0DE096F916009A
:10941000A0420CBF0121002100F0CDFD0020B0755D
:109420008D25B06A07F0A6FD4046FEF7FBFF2846F3
:10943000BDE8F681DFF84C04FDF734BCDFF8E80343
:10944000408B7047F8B5FEF7E7FF984D0446A87AC1
:10945000012803D12046FEF7E5FFF1BDA34EDFF85A
:109460002474B06A0122012107F080FDB06A8022D5
:10947000802108F071FA00BF26A00188B06AADF81B
:109480000010694608F06BF920B140F2A15138464E
:10949000FDF708FC02208DF800006946B06A08F06C
:1094A00037F920B140F2A3513846FDF7FBFBB06A13
:1094B00007F086FD00212C20FFF7C8FB00210A20C1
:1094C000FFF7C4FB0120A87296F91610091D0729A1
:1094D00014D8DFE801F01818070B040F0F0F08F07D
:1094E000F0FB10E06FF00300B0750CE06FF00201CC
:1094F000B17508E0892000F005FB04E040F2CA5194
:109500003846FDF7CFFB2046FEF78CFFFFF75AFAEF
:10951000F1BD000004010000F8B5644DA97A0446CD
:10952000A1425CD02EA3714F1E88ADF800600329C4
:10953000DFF850634FD8DFE801F047023B2BFFF71D
:1095400043FAB86A694608F00AF918B140F2E751DF
:1095500000F04CF802208DF800006946B86A08F067
:10956000D7F818B140F2E95100F040F868790028C6
:1095700014BF00220222B86A022108F0EDF918B1E6
:1095800040F2EE5100F032F80320032CA87226D0EE
:1095900000F027F80220A87200222979B86A07F0A3
:1095A00048FD18B140F2FB5100F020F8022C16D013
:1095B000200018BF032C12D10020A8720022B86A24
:1095C000802108F0C9F9F1BD022C08D100F009F89A
:1095D0000220A872F1BD40F2116100F007F8F1BD60
:1095E0000402B86A8022802108F0B6B93046FDF73F
:1095F00059BB002090E78C48807A7047032805D833
:10960000DFE800F0030203031CE785E740F22F6167
:1096100010E710B5354CA06A07F0ACFC94F91600C1
:109620000028814844BF0021A175417A012902D157
:10963000BDE8104006E710BD7B48407A704780B512
:10964000032801DB012002BD77494872897A8842EC
:1096500018BFFFF7D3FF002002BD2DE97C4FDFF8D4
:109660006C6903EA010BD6E9088929EA010528EAB1
:10967000000402EA000A45EA0B0544EA0A044D45E3
:1096800008BF44450DD0CDE900230246B06A0B4621
:1096900008F06CF818B140F2576100F004F8C6E920
:1096A0000845BDE8738F7748FDF7FCBAF4680020E1
:1096B0000E49087B002800D1704710B5087D0022B4
:1096C000002310B1DFF808290AE0C87C00B140226D
:1096D00055480178807881421CBF42F24874224389
:1096E000BDE81040DFF8E8080021B6E7486D00202B
:1096F00038B5DFF8D8580446287B2C7578B1FFF7C9
:10970000D7FF002C14BF00220822A86A082108F005
:1097100023F920B1BDE8344040F2F4618AE631BD5E
:109720000000000022F4020034E10200F8B5044613
:10973000022C0FF6CC0503DB4FF4E06100F071F86A
:10974000DFF88868307B002867D1374FB87A012866
:1097500003D040F2067100F064F8002107F1240004
:1097600007F0EDFBB06218B940F2097100F059F84A
:10977000B06A052107F0A4FE18B140F2117100F0A3
:1097800050F84FF0FF30DFF850280D230146FFF767
:1097900064FFB06A4FF0011107F0B9FC18B140F254
:1097A0002A7100F03EF8B06A09224FF0FF3108F04C
:1097B000D3F818B14FF4E66100F033F8B06ADFF87F
:1097C0001C1808F046F8012030730223DFF8100857
:1097D00001887F22684608F03CFBBDF80000C10507
:1097E00048BF0020B07304F08FFBFFF781FF788B38
:1097F000FFF787FA08F0AAFB3879FFF73BFB18B1AF
:1098000040F2447100F00DF8FFF752FFB7F918006D
:10981000FFF735FCB87900F0EDF82046FFF7EEFED3
:10982000F1BD2846FDF73EBAF468002080B5FFF789
:1098300064FA012107F009FC10F5007F02D16FF0F6
:109840007F0002BD8005001602BD10B5DFF87C2741
:109850000446107B50B1611E8941906AC90F07F020
:10986000A5FD18B140F27B71FFF71DFF2000DFF866
:10987000641718BF0120C87110BDDFF85807C07900
:109880007047000000A0000038B50446FEF7C4FD94
:109890000546DFF84007DFF834270472D07D38B979
:1098A000107B28B1611E8941906AC90F08F0A2FBA4
:1098B0002846BDE83240FEF7B5BDDFF81807007A4C
:1098C0007047DFF80837187B002800D1704780B553
:1098D000986ADFF81017002207F048FD20B1BDE8B4
:1098E000044040F2A771A5E501BD0000A868002072
:1098F000AC680020DFF8D4260146107B51740028A4
:1099000000D1704780B5906A07F03FFD20B1BDE8F7
:10991000044040F2B2718DE501BD0146DFF8B406A6
:10992000DFF8A8368183187B002800D1704780B506
:10993000986A002207F00BFD20B1BDE8044040F218
:10994000C37177E501BDDFF88C06808B7047DFF8C7
:109950008406C08B70470146DFF87806DFF86C3666
:10996000C183187B002800D1704780B5986A002217
:1099700007F0DEFC20B1BDE8044040F2D97159E5A2
:1099800001BD10B500F02EF8DFF848060179A06A95
:10999000012207F040FB20B1BDE8104040F2FB710E
:1099A00048E510BD80B5DFF82416886A07F03CFB57
:1099B00018B14FF40061FFF776FEBDE80140FFF7F4
:1099C0002FBA10B500F00EF8DFF808060179A06A8A
:1099D000002207F020FB20B1BDE8104040F60B014B
:1099E00028E510BDDFF8E445A06A0122012107F057
:1099F000BDBAD7E710B5DFF8D4250446906A2146F2
:109A000008F00BFBDFF8CC158C7110BD7CB57F28FE
:109A100004460CD14FF6FF70DFF8CC55298800F0D2
:109A200025F8BDF800007E24C10558BF0446FEF7A6
:109A3000F3FCDFF898650546F07D68B9204641B231
:109A40007E2903D1306B38B190F9040041B27E29F0
:109A5000BCBF40B2FFF731F9707B00B10120DFF8E5
:109A60008C150C542846FEF7DDFC73BDADF80000E4
:109A700002237F22684608F0ECB9DFF85015487BD6
:109A800000B10120DFF8642510567E2805D1086B4F
:109A900008B97F20704790F9040070470021232007
:109AA000FFF7D4B8DFF8240590F9161003290AD17E
:109AB0000022DFF8203582754FF0FF311962816B8B
:109AC000402007F085BF7047E70F010038B5044616
:109AD000DFF8F854FDF787FFE863FFF701F9014667
:109AE0002046FFF7B3F8062C02D007F075FE01E020
:109AF0000020A874BDE8314008F0E3B8746A002083
:109B000014A0000038B50446DFF8C814DFF8BC54D0
:109B10004FF0FF300862FDF766FFE86395F9160025
:109B200001281CDB00F04AFA02280CBF01210021A9
:109B30000020A8758D2C0CBF26202720FFF786F863
:109B4000E87B28B1A86A07F015FA0120287431BD16
:109B50002046BDE838400022002107F039BF31BD62
:109B6000D86A002080B5FFF7BBF801460120FFF757
:109B70006DF8DFF85814C87C18B1BDE8014000F05A
:109B80004ABA01BD03100100044008404C5008408F
:109B90002DE9F043DFF834540FF26449A86A89B024
:109BA00005AA022107F051FE5FEA000803D140F642
:109BB000F31100F0B6F89DF81400DFF81844BDF872
:109BC000167007281CBF6079002818D1062F16DBF5
:109BD00007F108008B2812D2002000903B46DFF8E6
:109BE0001064A86A3246414607F03BFEB84203D0F3
:109BF00040F60D2100F095F83078010606D5FFF704
:109C00006FF801460420FFF721F85FE0A86A6A4672
:109C1000414607F022FE18B140F6232100F081F8FA
:109C2000707800F00700022852D1FFF759F801467A
