:104000000010002099550000FD9000000191000073
:1040100045E40200059100000D91000045E4020016
:1040200045E4020045E4020045E4020045E40200E4
:1040300011910000B8CD030045E4020045E4020000
:1040400045E4020045E4020045E40200695A00002C
:1040500045E4020045E4020045E4020045E40200B4
:1040600045E4020045E4020031A4000025500000B0
:104070009FDD020045E4020045E4020045E4020041
:1040800045E4020045E4020045E4020045E4020084
:1040900045E402004961000045E4020045E40200F5
:1040A00045E40200C1620000A162000045E4020094
:1040B00045E402004B3C030045E40200E9C2010074
:1040C000513C03004D3C0300A9BA01005D3C0300D4
:1040D000553C0300ADC20100593C0300E1A80100BA
:1040E00029C3010045E4020045E402001D920000DE
:1040F00045E4020045E4020045E4020045E4020014
:1041000045E4020045E4020045E4020045E4020003
:1041100045E4020045E4020045E4020045E40200F3
:1041200045E4020045E4020045E4020045E40200E3
:1041300045E40200000000002DE9F04F2DED088B52
:104140008DB09DED1E7B09EE903ADDE920430A9388
:10415000229B09EE100A8A460792069351EC170B30
:1041600053EC172BB0EE478AF0EE678A28F0ECFF8D
:1041700080B14FF0FF3251EC180BCF4B29F00CF807
:1041800040B94FF0FF326FF4801351EC180B28F058
:10419000E5FF98B1069B514622930A9B19EE100A3F
:1041A000CDE9204319EE903A079A8DED1E8B0DB0A4
:1041B000BDEC088BBDE8F04F00F0A2B9002200234F
:1041C00051EC180B28F0CAFF002800F0448118EECB
:1041D000903A18EE108A03F10049069BC9F30A5081
:1041E00013F48063A0F2FF3008BF06240B9328F07D
:1041F000D9FCA1A3D3E9002328F03EFDA0A3D3E975
:10420000002328F083FBC9F313050F4645F07F51C7
:1042100006460022A94B404641F4401128F074FBA9
:1042200099A3D3E9002328F027FD02460B46304628
:10423000394628F06BFB28F0B9FF834628F0B2FC22
:1042400093A3D3E9002306460F4628F015FD00226C
:104250009B4B28F05BFB28F0A9FF8FA3D3E9002339
:1042600005463946304628F007FD064628460F46E3
:1042700028F098FC8AA3D3E9002328F0FDFC02462D
:104280000B463046394628F03FFB02460B460646B1
:104290000F4628F0F1FC324641EC1A0B3B46304603
:1042A000394628F033FB002241EC1B0B854B51ECC7
:1042B0001A0B28F00BFE0022834B28F027FB024646
:1042C0000B4651EC1A0B28F001FE00227F4B28F020
:1042D0001DFB02460B4651EC1A0B28F0F7FD324647
:1042E00041EC1A0B3B4600204FF0804128F00CFBBC
:1042F00002460B4651EC1A0B28F008FB02460B460F
:1043000051EC1B0B28F0E2FD05F2FF350022704B4B
:1043100028F0FCFA00222B0528F0AEFC42464B4662
:1043200006460F4628F038FF002840F09780CDE978
:1043300008670BF16303C72B069B34BF04250525D3
:10434000190521D558A3D3E900234046494628F052
:1043500019FF002800F0BE8055A3D3E90023404692
:10436000494628F0FBFE002800F0B48000255C459B
:10437000CCBFA4EB0B000024AB46069BC8BF00F1EA
:10438000FF3443F4806306930A9B9D4238BF5E1B53
:10439000069B28BF002613F0020702D0002D18BF8D
:1043A0000026BBF1000F07D0DDE90823404649464F
:1043B00028F08CFD804689460022002351EC180B22
:1043C00028F0CCFE10B109F100439946069B5146F6
:1043D00023F40063CDE9036319EE100A19EE903A55
:1043E000CDE90089079A029400F08AF875B3069B1C
:1043F000024613F0200F00F1010619EE903A14BFA7
:1044000045206520514619EE104AA0470523002299
:1044100005930A238BEAEB70CDE90232A0EBEB7037
:104420004FEADB73013D0193009019EE903A32465A
:10443000514619EE100A04952EF031FA37B1079B58
:10444000C51A079B58190A9BAB424CD80DB0BDEC5E
:10445000088BBDE8F08F59EC188BBEE60022304681
:104460003946194B28F032FD0BF1FF3BCDE908012D
:104470005FE700BFAFF30080FB799F501344D33F49
:10448000B3C8608B288AC63F61436F63A787D23F5A
:1044900071A379094F930A401655B5BBB16B024021
:1044A000EF39FAFE422EE63F2D431CEBE2361A3F6F
:1044B0000000000080842E41FFFFEF7F0000F83FE6
:1044C0000000E03F00002C400000244000001840A5
:1044D0000000F03F002C3FF457AF0B9B002B3FF444
:1044E00053AF013C50E7024619EE903A5146202066
:1044F00019EE104AA0470135A3E700BF00000000F5
:104500002DE9F04F2DED088B8FB0DDE920AB08EEE3
:10451000100A0F4608EE902A09EE103ADDE9225300
:104520005246049350465B465946249E28F00CFEA2
:10453000A0B9049B2396229303232193B84B209385
:1045400018EE902A19EE103A394618EE100A0FB0FC
:10455000BDEC088BBDE8F04F2EF0D9B84FF0FF321C
:104560006FF480135046594628F0F8FD30B1049B93
:104570002396229304232193AA4BE0E74FF0FF32C6
:1045800050465946A84B28F007FE70B1A74A06F0DE
:104590000403002B08BF0322A54B1CBF13460422B3
:1045A00004992396CDE92121C9E7504698A3D3E980
:1045B0000023594628F0F0FD38B997A3D3E900232A
:1045C0005046594628F0CAFD98B1049B18EE902A2F
:1045D000CDE92253394619EE103A18EE100ACDE90A
:1045E00020AB24960FB0BDEC088BBDE8F04FFFF771
:1045F000A3BD002200235046594628F0AFFD0028F5
:1046000000F081805B4652460020002128F07CF9B2
:10461000012382468B46059316F4806F08BF06255A
:104620003021A94606ABA5F12002B9F1090FA5EB8F
:10463000090406D909F1FF394A4503F8011BF4D1F1
:1046400020245946504628F0B1FD7A4B054603EB2D
:10465000C90393ED007BB0EE47AAF0EE67AA28F0FD
:10466000A1FA02460B465046594628F04DF953EC44
:104670001A2B28F001FB02460B4643EC1B2B28F0BB
:10468000BDFD804628F07EFA02460B4651EC1B0B1E
:1046900028F03AF902460B4643EC1B2B0022664BEE
:1046A00028F07AFD88B308F10108404628F06AFA3C
:1046B00002460B4651EC1A0B28F05AFD10B14FF090
:1046C00000080135B9F1000F51D1284628F06AFAE7
:1046D00002460B465046594628F016F90022564B22
:1046E0008046894628F03AFD30B1002240464946CE
:1046F000514B28F051FD10B1E80700D5013506AB4C
:104700000A2223445AE0059086E7002251EC1B0B55
:10471000494B28F023FD0028D4D1B8F1000F02D076
:1047200018F0010FCED008F10108CBE7B8FBF1F08B
:1047300001FB1082B8F1090F02F1300209F1FF39D3
:1047400004F1010403F8012B28D83021A14406AA62
:10475000202C11D04C4504F1010321D104F1380281
:104760000DEB02042E2204F8202C1C46C7E70A2178
:1047700006AB2344202CD9D106F00303012B06AB52
:1047800039D1049A002A36D0059A12B916F00C0FC6
:1047900002D0049A013A0492302214E08046E9E7FC
:1047A000A1541C46D4E795FBF2F102FB11553035BC
:1047B00003F8015B01340D460029DDD0202CF2D135
:1047C000DAE71A5501340499A14214D9202CF8D102
:1047D000049A0093CDE9014219EE103A18EE902A9E
:1047E000394618EE100A03962DF091FF0FB0BDEC7C
:1047F000088BBDE8F08F202CEAD0059AF2B12D216C
:1048000004F138026A4402F8201C0134E0E700BFDA
:104810000000000065CDCD410000000065CDCDC198
:10482000CA260400CE260400FFFFEF7FC526040041
:10483000C1260400D82604000000E03F710704D51B
:1048400004F138022B216A44DDE73207C0D504F1B8
:10485000380220216A44D6E770B58EB02C220021A0
:1048600003A831F046FE64234FF002320121089381
:104870008DF81010CDE905230B238DF83430504B03
:104880001B88D80700F1958008464E4C1AF0ECFCC6
:104890004D4B0A224D494E481A704FF42873ADF81B
:1048A000123017F0BBFD206020B940F227214948A3
:1048B00004F022FB052120682EF06DFD20B140F2AE
:1048C0003221444804F018FB20680C2500F0B6FBA8
:1048D000414B206819682EF0D6FD1BF099FB684308
:1048E00009901BF095FB68430DEB050107902068CC
:1048F00012F03EF920B140F24721364804F0FCFAAC
:104900000022364920682EF048FE20B140F24921AD
:10491000304804F0F1FA324E40F20353314D96F92B
:1049200000002B8005237F28AB7001D11AF096FD83
:104930003378EB701BF06CFB00EB80008000A880EC
:104940001BF066FB0023C0004FF0FF31E8804FF002
:10495000FF30AB6018A3D3E900231AF057FE2249B9
:1049600020682FF00CFA02A920682EF0F0FD20B18B
:104970004FF41F71174804F0BFFA042220680DEBB2
:1049800002012EF06DFD042804D040F27F21114871
:1049900004F0B2FA01A901202FF0DFFB04F0F2FBD2
:1049A00001201BF09FFD2AF00DF81BF0C5FD1AF049
:1049B000C7FD0EB070BD00BF0A0020FF420300001B
:1049C000783F0020103B0020A04A002095F2010013
:1049D000BC120020CC48040010110020A74A00207F
:1049E000E8150020FC3A002075F3010010B5054CD5
:1049F000237833B9044B13B1044800E000BF01230E
:104A0000237010BD201A0020000000009C4C040000
:104A100008B5034B1BB10349034800E000BF08BDC4
:104A200000000000241A00209C4C0400A3F5803AEA
:104A3000704700BF174B002B08BF134B9D46FFF775
:104A4000F5FF00218B460F461348144A121A31F025
:104A500050FD0E4B002B00D098470D4B002B00D083
:104A600098470020002104000D000D48002802D0C6
:104A70000C4800E000BF28F08DFD2000290029F03F
:104A80004DF928F073FD00BF000008000000000091
:104A90000000000000100020B4170020004B002090
:104AA000000000000000000007B5012008F0E6FF4C
:104AB00001210090034B0420034A08F025FB03B0BA
:104AC0005DF804FBCA6A0300A86603007FB52CF0FA
:104AD000DDF902280446234D27D10DF003FC012601
:104AE0002D78067185B92246062130461E4B0DF001
:104AF0007BFB2CF0C9FC012100901C4B04201C4ABC
:104B000008F002FB04B070BD012DF2D104F04EFBA1
:104B100000221423C0B20193009008212846CDE959
:104B20000222144B0DF060FBE3E72B78012B15D12B
:104B30002BF0ABFD104B114A012101900092042093
:104B40000F4A08F0E1FAFF210E4808F02DF8002185
:104B50001CF004FF01220C4B1A70D3E709F08EFF02
:104B60000A4BE8E709400020DFB40300DF660300DA
:104B7000FB660300DA660300D0660300CA6A03001E
:104B8000F06603007C1A002008400020CB6603007A
:104B900008B50F4B1B78ABB12CF078F902280CD07C
:104BA0000C4829F070FDFF210B4807F0FDFFBDE820
:104BB00008404FF47A611CF0D1BE0648BDE80840B9
:104BC00029F05BBD2CF062F90228F6D008BD00BFC9
:104BD00008400020B4B403007C1A0020FF2310B565
:104BE0001A460949094807F09FFFFF2308491A465A
:104BF000084807F099FFBDE81040FF2306491A4610
:104C0000064807F091BF00BFCD4A00003C1A0020C3
:104C1000914B00007C1A0020A94A00005C1A002079
:104C2000912802D1044829F02BBD902802D10248D6
:104C300029F023BD704700BFB4B4030013B5044688
:104C40000C4B01900093012104200B4B0B4A08F000
:104C50005BFA24B100220A4B1A7002B010BDFF218A
:104C6000084807F0A1FF40F6B83102B0BDE8104097
:104C70001CF074BE29200400CB660300F06603001C
:104C8000084000205C1A0020002307B50193094B5F
:104C9000094A00930121094B042008F035FAFF214D
:104CA000074807F081FF40F6B83103B05DF804EB28
:104CB0001CF054BE29200400F0660300D0660300F7
:104CC0005C1A002007B50121064B04200093064A18
:104CD000064B019108F018FA0022054B1A7003B038
:104CE0005DF804FB29200400F0660300D066030091
:104CF0000840002007B5064B009001210420054A1A
:104D000008F002FA0022044B1A7003B05DF804FBAD
:104D100029200400A8660300084000200F4A10B5AF
:104D2000116881420ED129F019FC0446A8B90C4B38
:104D30001870FF210B4807F037FF2146BDE81040EF
:104D40001CF00CBE5268824207D129F007FC0446D1
:104D500018B90122024B1A70EBE710BDB410002005
:104D6000094000203C1A002030B50A4C0A4B22684A
:104D70000A4D1A600A4B85B02B600A4B019303F071
:104D8000FFFA2B68029001A9206803932AF05CF8CF
:104D900005B030BDA4100020882800208428002001
:104DA00098100020F0B30300014B18682AF060B897
:104DB000A410002038B503F0E3FA0446064D2B6832
:104DC000D3F8B00203F0D0FA28682AF064F820463D
:104DD000BDE8384003F0C8BAA410002010B51E4C3E
:104DE00029F0D9FC236F23F0070343F00203236764
:104DF00029F0D8FCD4F82031002023F0070343F039
:104E00000103C4F82031D4F8403123F0030343F008
:104E10000203C4F84031D4F8603123F0030343F0B7
:104E20000203C4F86031D4F8403223F0030343F0A6
:104E30000203C4F84032D4F8003223F0070343F0F1
:104E40000203C4F80032D4F8083223F0070343F019
:104E50000203C4F8083210BD0080005007B501A855
:104E600002F032F99DF80530012B27D1244A936DC9
:104E7000DB0313D4536B23F4FF0323F4FE4343F407
:104E8000BC1343F4A0635363136B23F4704343F4E4
:104E900040431363136B43F4E06313639DF80430E2
:104EA00063B94FF000531B68164B1B68164B1B6809
:104EB000164B1B68164B1B68164B1B68164AD2F81C
:104EC000803043F00303C2F8803003F02FFA29F05A
:104ED00079FA03F015FA03F0D1F903F0D7F9FFF7E7
:104EE0007DFF03F0B9F929F06BFA00F085FD03F0BE
:104EF0003BFD01F0F5F903B05DF804EB04F0F2BB03
:104F000000C00050004000200080002000C00020B1
:104F100000000120004001200080005030B51B4DF2
:104F200095B00DAC0FCD0FC495E80700184B84E881
:104F30000700184A1849CDE9032301231022CDE9BF
:104F4000051309A8002131F0D4FA4FF48020134B47
:104F50000DAACDE907030B238DF824300C238DF81F
:104F600025300F4B07A90A9320230B930D4B0E48B6
:104F7000009303AB03F01AFC044600214FF4E13028
:104F800029F051FA204615B030BD00BF80B40300AF
:104F90002100050000800550060004022480055011
:104FA0000A400020581D0020B01D0020831E012B48
:104FB00010B512D8012910D8114B04221B69052104
:104FC0000020C3F3401301F0EFFE0E4B1B6818687E
:104FD000A8B1BDE81040436A18478B1E012B0CD8BE
:104FE00001280CD8BDE810400022054B05211B69A3
:104FF0001046C3F3401301F0D7BE0129E5D910BD17
:1050000000C00350B010002008B50449044804F063
:1050100013FCBDE80840FFF781BF00BFA8100020C7
:10502000A81D002001482AF02CBC00BFB01D0020A4
:10503000014B1A6A18681047B01D002008B511F01E
:10504000CDFD0022014B1A7008BD00BF2A40002090
:10505000014829F07EBA00BF9CB40300014829F042
:1050600009BB00BFB4B403001FB508490346086874
:10507000097902AA02908DF80C10009205210022F5
:10508000012006F0D3FE05B05DF804FBCCB40300AC
:105090001FB50A4A0346106802A9029090889279C7
:1050A000ADF80C008DF80E20009144224FF44071B1
:1050B000012006F0BBFE05B05DF804FBD2B403008E
:1050C0001FB5084903460868097902AA02908DF8BD
:1050D0000C10009205214222012006F0A7FE05B027
:1050E0005DF804FBDAB403001FB5084903460868FD
:1050F000097902AA02908DF80C1000920521402235
:10510000012006F093FE05B05DF804FBCCB403006B
:105110001FB5074A0346039203AA00924FF4407159
:105120004122012006F082FE05B05DF804FB00BFBD
:10513000010221211FB5094903460868097902AA1D
:1051400002908DF80C1000924FF440714022012023
:1051500006F06CFE05B05DF804FB00BFE0B4030090
:105160001FB5094903460868097902AA02908DF81B
:105170000C1000924FF440714322012006F056FEBD
:1051800005B05DF804FB00BFE0B403001FB509499A
:1051900003460868097902AA02908DF80C10009263
:1051A0004FF440714222012006F040FE05B05DF848
:1051B00004FB00BFD4B403001FB5064A03460392A4
:1051C00003AA009201220821104606F02FFE05B026
:1051D0005DF804FB010121211FB5074A0346039234
:1051E00003AA00924FF440710822012006F01EFE2F
:1051F00005B05DF804FB00BF121221211FB5094A5A
:105200000346106892880290ADF80C2002AA009222
:105210004FF440714B22012006F008FE05B05DF806
:1052200004FB00BFE6B403001FB5074A0346039220
:1052300003AA009201224FF44071104606F0F6FDD9
:1052400005B05DF804FB00BF010121211FB5074A2D
:105250000346039203AA00924FF4407104220120F6
:1052600006F0E4FD05B05DF804FB00BF010121215B
:105270001FB5094903460868097902AA02908DF80A
:105280000C1000924FF440710722012006F0CEFD71
:1052900005B05DF804FB00BFE7B403001FB5074A83
:1052A0000346039203AA00924FF440710A220120A0
:1052B00006F0BCFD05B05DF804FB00BF0202212131
:1052C0001FB5094903460868097902AA02908DF8BA
:1052D0000C1000924FF440710022012006F0A6FD50
:1052E00005B05DF804FB00BFEDB403001FB509492C
:1052F00003460868097902AA02908DF80C10009202
:105300004FF440710622012006F090FD05B05DF8D3
:1053100004FB00BFEDB403001FB5064A0346039229
:1053200003AA009208210022012006F07FFD05B0AB
:105330005DF804FB010221211FB5074A03460392D1
:1053400003AA00924FF440710322012006F06EFD83
:1053500005B05DF804FB00BF010221211FB509491A
:1053600003460888897803AAADF80C008DF80E1062
:10537000009206214222012006F058FD05B05DF89A
:1053800004FB00BFF3B403001FB503AA009205227B
:105390000749034608888978ADF80C008DF80E108F
:1053A0000120114606F042FD05B05DF804FB00BF88
:1053B000F7B403001FB5084903460868097902AA33
:1053C00002908DF80C10009208210222012006F0B4
:1053D0002DFD05B05DF804FBEDB403001FB50949D0
:1053E00003460868097902AA02908DF80C10009211
:1053F0004FF440710922012006F018FD05B05DF858
:1054000004FB00BFFBB403001FB50A4A0346106843
:1054100002A9029090889279ADF80C008DF80E20C8
:1054200000914C224FF44071012006F0FFFC05B0C2
:105430005DF804FB01B503001FB509490346086880
:10544000097902AA02908DF80C1000924FF4407175
:105450000222012006F0EAFC05B05DF804FB00BF63
:1054600009B503001FB5094903460868097902AA6E
:1054700002908DF80C1000924FF44071052201202B
:1054800006F0D4FC05B05DF804FB00BF09B50300CD
:105490001FB5094903460888897803AAADF80C00AE
:1054A0008DF80E10009208210622012006F0BEFCA5
:1054B00005B05DF804FB00BF0FB503000A460149C3
:1054C00028F046BE48CD03000A46014928F040BEF8
:1054D00054CD03000A46014928F03ABE85CD0300A9
:1054E0000A46014928F034BE59CD03000A46014955
:1054F00028F02EBE63CD03000A46014928F028BEDD
:105500008ACD03000A46014928F022BE91CD03004E
:105510000A46014928F01CBE71CD03000A46014924
:1055200028F016BE6ACD03000A46014928F010BED5
:1055300078CD03000A46014928F00ABE98CD030041
:105540000A46014928F004BE60CD03000A4601491D
:1055500028F0FEBD4DCD03000A46014928F0F8BDF4
:10556000AECD03000A46014928F0F2BDA5CD0300E7
:1055700007B5082029F065F802238DF80030054BA7
:105580006846019328F01FFF082003B05DF804EB84
:1055900029F063B8006A181008B500F02DF8124B16
:1055A00012498B4212D30020114B12498B4218D35F
:1055B000FFF740FA186850F82240586840F8224037
:1055C000013298688242F5D30C33EAE70022F8E70B
:1055D0001C6844F8220001325C68A242F8D3083308
:1055E000E4E70022F8E700BFA44C0400B04C04003C
:1055F000B04C0400B04C04006FF00100104B114A95
:1056000010B59A60D3F888200F4942F47002C3F8AD
:10561000882001F50052106641F2FF7050660220AA
:10562000C3F8D000BFF34F8FBFF36F8F08244FF440
:1056300040330648C0F88041D36004600B6110BD60
:1056400000ED00E0004000000080004400E100E0C8
:10565000014B1868704700BFD8100020014B18603C
:10566000704700BFD8100020084B1B6F03F00703E2
:10567000022B04D0032B05D0012B05D0FEE7044BF1
:1056800018687047034BFBE70348704700800050E1
:10569000D8100020DC100020002D310108B5FFF7E4
:1056A000E3FF054B1B6FC3F301330133B0FBF3F092
:1056B000024B186008BD00BF00800050D4100020CD
:1056C0000048704700B4C404014B1868704700BF1D
:1056D000DC100020054B1860054B1B6F03F007031F
:1056E000032B01D1FFF7DABF704700BFDC100020A9
:1056F0000080005000487047002D3101174B98681A
:10570000C0F304400C2822D8DFE800F00921212151
:105710002121071719211B1D1F00114870479B6885
:1057200003F04073B3F1807F13D0B3F1007F12D048
:105730000C4A002B08BF104670470B4870470B48B7
:1057400070470B4870470B4870470B487047002064
:1057500070470A4870470A48704700BF0040015A26
:10576000405DC60000093D000024F400C0EA2101AC
:1057700080BA8C010048E801005A620280841E0051
:1057800040420F00014B1868704700BFE010002036
:10579000BFF34F8F0549064BCA6802F4E06213431A
:1057A000CB60BFF34F8F00BFFDE700BF00ED00E00F
:1057B0000400FA0500239B6AB3F5804F03D21968F1
:1057C000064A914203D00023037083607047012290
:1057D00002709A689B694260F7E700BF07B0CD5E30
:1057E00073B5494B04461A781AB102221A7002B0F6
:1057F00070BDCDE900220028F9D001261E7028F0E6
:10580000EAFF424D424B186013F044FF2B785BB91E
:1058100000F066FD40B93F4808233F4A3F49006811
:1058200010F0BCFB00B92E703D4B5A68E2603D4A57
:105830009A601A6E22605A6E6260D3F87021A2607C
:105840001B6E5C0440D5384AD368D807FCD4374B6C
:105850001A68531C3DD04FF480139340344A1366AA
:105860000423334C23664FF48063236628F00EFE36
:1058700001300ED028F00AFE40F20113984208D001
:105880004FF4804323664FF4004323661023C4F88B
:1058900070311023264C4FF0804223664FF40053A2
:1058A0006846236601A92266636628F0D4FD009B42
:1058B0002366019B63662B78002B98D0164B1A68E1
:1058C00022665B68636692E71A4AD368D907FCD4FC
:1058D000BDE7194B1B78002BC2D1184B5A68144BEB
:1058E00012B94FF480121A66154A526812B94FF471
:1058F00000121A66134B5B68002BB1D14FF4800283
:105900000B4B1A66ACE700BF2D4000202B40002057
:10591000EC1D0020EC100020E41D002000710800A8
:105920000080004455CEAC0000000440E41000208C
:1059300000900044000004502C40002000800550DE
:1059400000C005500000065038B5224D04462B78A3
:10595000012B02D001232B7038BD0028FCD028F089
:1059600095FD013009D028F091FD40F201139842D5
:1059700003D0194AD368DB07FCD42268174B1A6698
:1059800062685A66A268C3F87021E268D40744BF0F
:1059900000229A60124B1A68013213D1114A127810
:1059A00082B911494968C80748BF1A600F4A52684E
:1059B000D10744BF01221A600D4A5268D20744BF82
:1059C00002221A6013F06EFE0A4B186828F009FFD5
:1059D0000023C0E72D400020000004400080004468
:1059E000E41000202C4000200080055000C005502D
:1059F00000000650EC1D002070B50024A36AB3F52A
:105A0000804F22D21A68124B9A421ED1114E33781F
:105A100013F0FD0517D11048FFF7E2FE08214FF4FF
:105A200080330E4A0E48C2F88011C36011600D4ADF
:105A30001361AB6ADB69984704460748FFF784FFA8
:105A40000CB901233370204670BD4FF48174FAE71E
:105A500007B0CD5E2C400020D41D002000E100E006
:105A600000A000440090004413B51F4B1B7803B9FD
:105A7000FEE700231D4CCDE900336A4608231C498C
:105A8000206810F08BFAF0B91A4AD2F84031D2F8F7
:105A900040211F2B4FF0010310D9203A9340019A67
:105AA0001343019308236A461149206810F02CFA29
:105AB0004FF00053104A1A60FFF76AFE9340009AB5
:105AC00013430093EEE70D4B9842F1D1094AD2F807
:105AD0004031D2F840211F2B4FF0010302D9203A68
:105AE0009340DEE79340ECE72D400020EC100020CF
:105AF00000710800008000440B020FF00BE000F082
:105B000070B5D0B1C9B10E4E431E013913F8014F23
:105B10002046A25D02F00302012A11F8012F08BFFE
:105B200004F12000B55C05F00305012D08BF20320B
:105B3000801A01D1002CE9D170BD0120FCE700BF23
:105B4000314B040005490A681318054883428CBF8D
:105B50004FF0FF320B601046704700BFE810002086
:105B60000080012037B504680023012261790546D1
:105B7000207901F019F914223023217913FB012334
:105B800003F1A04303F570331B686279D340DB4314
:105B900003F001032370A379022B0ED100F02AFB3E
:105BA0002A460749607900F04FFB012302466179DC
:105BB0002079CDE9003301F0B3F8002003B030BD07
:105BC00067E5020008B5032101230422002001F04B
:105BD000EBF8002028F01DFE0122244B0C20C3F816
:105BE0004424234AD2F8803043F00303C2F88030C3
:105BF00000F0D0FD1F4B00F5D520D3F8F02000F2C7
:105C0000FC4042F00102C3F8F020D3F8FC2042F03F
:105C10008072C3F8FC20184AA3F55D431A60174B45
:105C20000222B0FBF3F0164B01381861C3F8F020E4
:105C30004FF48072C3F804234FF06043114A0020F0
:105C4000C3F8B02F104AC3F8802ED3F8002E42F4C8
:105C50008072C3F8002EFF2283F82020D3F8002E94
:105C600022F48072C3F8002E08BD00BF00D003509C
:105C70000080005000ED00E0FF030040F8590D00E7
:105C8000000004E055CEACC5090001004FF06043B0
:105C9000D3F8802E30B5D20715D501240B4D8440A2
:105CA000D5F8FC2042F08072C5F8FC20D3F8002E15
:105CB0002243C3F8002E53F82020002AF0D003F826
:105CC0002010002030BD1120FCE700BF00ED00E0F7
:105CD00010B5012243780178847830209A40054B32
:105CE00000FB01331CB942F210015A5010BD41F2C1
:105CF0001001FAE700C0035010B501224378017883
:105D0000847830209A40054B00FB01331CB941F2E6
:105D100010015A5010BD42F21001FAE700C00350C2
:105D20002DE9F04F9A46564B85B01B7806460F4634
:105D30001546DDF83C909DF844B0DDF85080002B0E
:105D400000F08D80072A00F28C800E9B002B00F063
:105D50008880B9F1000F00F08480129BB3F5006FCA
:105D60007FDC012802D1109B002B7AD0454B03EB3E
:105D700005131B7B002B76D0434C10220021684674
:105D800030F0B7FB04EB45141022002F59D13946EF
:105D9000204630F0AEFB43F210036380BBF1000FEE
:105DA00003D1E37843F00303E370374A0E9B02EB21
:105DB000451CCCE90193129B6901013BC3F30A0026
:105DC0009DF84C30012E03F003034FEA836343EA4E
:105DD000001E53582D48CDF800A000EA03004EEAFB
:105DE0000003535041D113230CF1100ECCF80C30AA
:105DF0009CE80F008EE80F006FF00301DCF81C2018
:105E0000109B61F39F02012FCCF81C20CCF81430BA
:105E100003D1CCF81890CCF804300027194A290196
:105E200002EB051342F80180159A28465A6069462C
:105E300022469F605E7301F045F8384605B0BDE824
:105E4000F08F0021204630F054FB4FF44473638000
:105E5000BBF1000FA9D1E37843F03003A4E70C486D
:105E6000ECE70C48EAE70C48E8E7B8F1000FD4D1BA
:105E70009CF8023068F304138CF80230CDE700BFC1
:105E80002E400020F01D0020701E00200F80FFF328
:105E9000028000F0018000F0078000F038B5124B5E
:105EA00005461B78DBB1E0B128F095FC0F4A0023D2
:105EB0001146147B54B92B6001251A0101EB031321
:105EC0001D738C5028F08DFC204638BD0133082B03
:105ED00002F11002EDD128F084FC0548F5E70548F1
:105EE000F3E70548F1E700BF2E400020F01D002039
:105EF000048000F0028000F0018000F013B528F06B
:105F00006AFC00230B4A147B7CB90133082B02F195
:105F10001002F8D1019000F089FF074B01981C7026
:105F200028F05FFC204602B010BD28F05AFC034860
:105F3000F9E700BFF01D00202E400020058000F092
:105F40000D4B10B51B78044693B1072812D828F0E2
:105F500042FC0A4B03EB04131A7B2AB100241C7386
:105F600028F03FFC204610BD28F03BFC0448FAE72F
:105F70000448F8E70448F6E72E400020F01D002012
:105F8000068000F0028000F0018000F0154B13B590
:105F90001868002301908DF8043028F01CFC124B87
:105FA0001C7824B128F01DFC104802B010BD01225D
:105FB0001A7028F016FC0E4B01A81C731C7783F88E
:105FC0002C4083F83C4083F84C4083F85C4083F8D5
:105FD0006C4083F87C4008238DF8073000F048FFC0
:105FE0002046E2E708CE03002E400020038000F0A8
:105FF000F01D00200A4A08B512785AB107280BD8BC
:10600000084A02EB00131B7B43B1002100F022FF82
:10601000002008BD0448FCE70448FAE70448F8E714
:106020002E400020F01D0020028000F0018000F0D2
:10603000078000F00A4A08B512785AB107280BD831
:10604000084A02EB00131B7B43B1012100F002FF61
:10605000002008BD0448FCE70448FAE70448F8E7D4
:106060002E400020F01D0020028000F0018000F092
:10607000078000F00A4A08B5127852B107280AD8FA
:10608000084A02EB00131B7B3BB100F069FF0020C4
:1060900008BD0548FCE70548FAE70548F8E700BFF2
:1060A0002E400020F01D0020028000F0018000F052
:1060B000078000F00D4B1B7893B1072812D889B1E7
:1060C0000B4B03EB00131B7B73B10A4B1A6D0123BF
:1060D00003FA00F010401ABF00200B7008707047E0
:1060E0000548704705487047054870472E40002016
:1060F000F01D002000000450028000F0018000F03C
:10610000078000F00B4A10B512780C4662B10728E0
:106110000CD859B1084A02EB00131B7B43B100F0C5
:1061200031FF2070002010BD0448FCE70448FAE766
:106130000448F8E72E400020F01D0020028000F007
:10614000018000F0078000F02DE9F843174B1F6D28
:106150005B6D1F4000D5FEE701260025144CDFF8DB
:106160005480DFF85490374217D02368C8F8506045
:106170009BB1A168284601316268A1609847637BA2
:10618000012B0AD148B909EB45131A7B60F3410290
:106190001A731A7F60F341021A770135082D4FEA0E
:1061A000460604F11004DED1BDE8F8830000045077
:1061B000F01D002000200450701E002070B5044621
:1061C00001250B4E04B970BD94FAA4F0B0FA80F02A
:1061D00005FA00F306EB001224EA03045368002BCF
:1061E000F0D0117B11B191689847EBE79847E9E748
:1061F000701F002008B5192000F04EFD28B14FF0A7
:106200000072074BC3F880211A601A2000F044FD89
:1062100028B14FF08062024BC3F880211A6008BD9C
:1062200000E100E038B505460C4628F0D4FA00221B
:10623000044B03EB05135C601A73BDE8384028F08B
:10624000D0BA00BF701F0020F8B505460F461646AD
:1062500028F0C1FA104B05F0FC02D3F824140023F7
:10626000EC1804F00304144321FA04FC1CF0010FA1
:1062700007D00133042BF3D1FF2428F0B2FA2046D3
:10628000F8BDFF2CF9D00122044B03EB0413C3E942
:1062900001761A73F1E700BF00C00350701F0020A1
:1062A000064BD3F82404D3F8202403F50053104000
:1062B00000F05530C3F82004FFF780BF00C0035042
:1062C000064BD3F82404D3F8202403F500531040E0
:1062D00000F0AA30C3F82004FFF770BF00C00350DD
:1062E000024B1968024B18680FF038BDF0100020FF
:1062F000EC10002037B5920004460D46019230F0B4
:10630000C3F9431C0BD060B929462046019A30F0EE
:10631000B9F80028044808BF002003B030BD034886
:10632000FBE70348F9E700BF10E000F021E000F0D0
:1063300024E000F010B5044630F0AEF9431C10D054
:1063400088B900F0CFFE234620F003002044984295
:1063500001D1002010BD53F8042B0132F7D00348BF
:10636000F8E70348F6E70348F4E700BF0EE000F063
:1063700021E000F024E000F008B528F01DFA014B00
:10638000186008BDB0270020014B186828F018BA23
:10639000B027002041F6713310B5104C104AA042CE
:1063A0008CBF4FF480140024D169D363936801F447
:1063B000803123F44013234393600A4B98420A4BE5
:1063C000D3F818228CBF42F0020222F00202C3F876
:1063D000182211B10022024BDA6310BD005A62028A
:1063E0000000035080F0FA0200C007502E4B984284
:1063F0004AD022D82D4B984240D014D82C4B9842EA
:1064000039D00AD82B4B984232D02B4B98422FD000
:106410002A4B98422CD000207047294B9842FAD141
:10642000284B186F7047284B98422AD0274B984228
:10643000F1D1244BD3F880007047254B98422BD0E4
:1064400009D8244B984223D0234B9842E3D11D4BCB
:10645000D3F88C007047214B984221D003F5740388
:1064600003F510539842D6D1164BD3F898007047D5
:10647000144B986D7047134B586E7047114B586F03
:106480007047104B986F70470E4BD3F884007047DD
:106490000C4BD3F8880070470A4BD3F89000704734
:1064A000084BD3F8940070470048E8010024F4003A
:1064B000C0CF6A0080841E0000093D0040420F00EA
:1064C000405DC6000080E00FC0EA210180BA8C0167
:1064D000007E560380D54302006CDC020090D0039E
:1064E00038B5134B0546D3F820010C4600F00700E1
:1064F000042804D8DFE800F01A0A0E121600002360
:10650000184605B1286004B1236038BDFFF7A0F834
:106510000423F6E7FFF7D8F80323F2E7FFF7EEF8D6
:106520000523EEE7FFF7E6F80223EAE70123E8E7B1
:106530000080005037B50C460021124A0191D2F874
:106540008021054602F00302022A0ED0032A11D050
:10655000012A14D101A8FFF7C3FF0D230DB1019A41
:106560002A6004B1236003B030BDFFF7C7F80523EC
:106570000190F3E7FFF7BEF802230190EEE70B4628
:10658000ECE700BF0080005038B5104B0546D3F84B
:1065900040310C4603F00303022B0BD0032B0DD02C
:1065A000012B0FD127F051FF082305B1286004B15A
:1065B000236038BDFFF7E6F80723F6E727F048FF2A
:1065C0000923F2E701230020EFE700BF008000501D
:1065D00038B5104B0546D3F860310C4603F0030381
:1065E000022B0BD0032B0DD0012B0FD127F02DFF49
:1065F000082305B1286004B1236038BDFFF7C2F855
:106600000723F6E727F024FF0923F2E70123002000
:10661000EFE700BF0080005038B5144B0546D3F8B3
:1066200000020C4600F00700042804D8DFE800F060
:106630001B0A0E1216000023184605B1286004B18B
:10664000236038BD27F001FF0823F6E7FFF79AF82B
:106650000723F2E727F0FCFE0923EEE7FFF71EF819
:106660000C23800AE9E70123E7E700BF0080005020
:1066700038B5144B0546D3F808020C4600F0070065
:10668000042804D8DFE800F01B0A0E1216000023CD
:10669000184605B1286004B1236038BD27F0D5FE47
:1066A0000823F6E7FFF76EF80723F2E727F0D0FE9E
:1066B0000923EEE7FEF7F2FF0C23800AE9E7012346
:1066C000E7E700BF0080005038B5104B0546D3F80F
:1066D00040320C4603F00303022B0BD0032B0DD0EA
:1066E000012B0FD127F0B1FE082305B1286004B1BA
:1066F000236038BDFFF746F80723F6E727F0A8FE2A
:106700000923F2E700231846EFE700BF008000509E
:1067100038B5104B0546D3F800310C4603F003039F
:10672000022B0BD0032B0DD0012B0FD1FEF7CCFF8A
:10673000032305B1286004B1236038BDFFF722F8B8
:106740000723F6E727F07FFE0623F2E70123002068
:10675000EFE700BF00800050032814D005D80128BF
:1067600005D0022809D0002005E00F28FBD1084BF6
:10677000186FC0F3013001307047054BD3F890001B
:10678000C0F30460F7E7024B186FC0F38020F2E714
:10679000008000501FB500230193252817D8DFE89B
:1067A00000F0131A1D262B353A50555A5F6469774D
:1067B000161A3F1616551A262B26351A5026773AE2
:1067C0003A3A3A2626265A5FFEF74EFF0190019884
:1067D00005B05DF804FBFEF761FFF7E7FEF744FF45
:1067E00002460220FFF7B8FFB2FBF0F0EEE7FEF73B
:1067F00055FF02460320F5E7FEF750FF024603204F
:10680000FFF7AAFFB2FBF0F04008DFE7002101A884
:10681000FFF790FEDBE7002101A8FFF761FED6E756
:1068200002934FF0E0231B695B0705D5FEF736FFA7
:106830000290029B0193CAE703A902A8FFF7A4FEF6
:10684000F7E7002101A8FFF79FFEC0E7002101A89C
:10685000FFF7BEFEBBE7002101A8FFF7DDFEB6E7AC
:10686000002101A8FFF704FFB1E7002101A8FFF70D
:106870004FFFACE7094BD3F8803003F00303022B42
:10688000A9D0032B01D00020A0E7FEF737FF9DE73A
:10689000002101A8FFF718FF99E700BF0080005012
:1068A00008B50120FFF776FFBDE80840034988429C
:1068B0008CBF02210121032000F002B880F0FA020F
:1068C000032810B50C4627D004D8012804D002288C
:1068D00017D010BD0F28FCD127F051FF27F057FF2C
:1068E000124B013C196F21F4405141EA04341C67FA
:1068F000FEF7D4FE0021FFF74DFDBDE81040FFF785
:10690000CFBF0A4B013CD3F8901021F0F85141EA77
:106910000464C3F89040DCE7044B013C196F21F498
:10692000806141EA84241C67D3E700BF00800050E7
:106930001FB500230193252821D8DFE800F013209C
:106940002020202A2F454A4F54595E7120203420A0
:10695000204A202020202A204520712F2F2F2F2051
:1069600020204F54314B1B6F03F00703013B032BD7
:1069700005D8DFE803F00C02080A0423019301980C
:1069800005B05DF804FB0323F8E70623F6E70223CE
:10699000F4E7002001A9FFF7CDFDF0E7002001A9F1
:1069A000FFF79EFDEBE702934FF0E0231B695B07C7
:1069B00005D5FEF773FE0B230393039BDEE703A9C4
:1069C00002A8FFF7E1FDF8E7002001A9FFF7DCFDD1
:1069D000D5E7002001A9FFF7FBFDD0E7002001A9C2
:1069E000FFF71AFECBE7002001A9FFF741FEC6E73B
:1069F000002001A9FFF78CFEC1E70C4BD3F88030D3
:106A000003F00303022B03D0032B05D00023B5E7CB
:106A1000FEF744FE0B23B1E7FEF770FE0523ADE75A
:106A2000002001A9FFF750FEA9E700BF0080005039
:106A300038B50546FFF7DAFC214B04465A68012AAF
:106A400004D120494A609A699207FCD10020FFF7DF
:106A50006FFF042803D127F092FE27F098FE1A4A10
:106A600024F04073954221D0184A954221D0184A0B
:106A7000D16811F0060FFBD190689360916803F420
:106A8000F81301F4F8118B4216D12846FEF7E6FD03
:106A90000020FFF74DFF042810D1FEF7FFFD002175
:106AA000FFF778FCBDE83840FFF7FABE43F000730B
:106AB000DDE743F08073DAE79060E9E738BD00BFB7
:106AC00000C0015000E0015040420F0080841E00D1
:106AD0000000015070B504460020FFF729FF03288D
:106AE0007CD045F60E030221414AC2F88030414B6A
:106AF0009962012103F580539962936DD903FCD407
:106B0000D4E900131B0543EA0163E17B94F82250AA
:106B10000B43217B94F8236043EA0143617B43EA02
:106B20000133A17B43EA811313619169D4E9040322
:106B30001B0643EA806301F000410B43A17EE07E27
:106B40000B43217E43EA0143617E43EA01239361C3
:106B5000136AE26923F00D03002A0CBF002108210B
:106B600043EA020343EA8003214A43EA0103136232
:106B700094F820304FEA431331D1906A94F82110F1
:106B800020F0330043EA0113034343F0010393620F
:106B9000194B916D33EA0101FBD10221154B99622A
:106BA000936D5B00FCD41069A36820F4700040EA88
:106BB000035010614FF000420E4B9A611DB9022242
:106BC00003F580539A6216B901220C4B9A6294F82D
:106BD00024301BB1064B0A4AC3F8802070BD916A6D
:106BE00021F0330131430B4343EA45039362EEE75F
:106BF00000C0005000D000500300014000E00050F1
:106C0000F1A7FFFF014B93F9000070472F400020D0
:106C1000F0B5D0E901434FF4D1560227164A417826
:106C200005785662154E4F2977604FF0010728BF4F
:106C30004F2106F5805677601669F603FCD441EAC9
:106C4000052151611B01417B43EA04230B43017B76
:106C500043EA41039360C37B817B1B0143EA4113F9
:106C6000417C0B43017C43EA41035360837C13B1B5
:106C70006FF4D1535362F0BD000002500010025077
:106C8000014B1880704700BF4E150020014B188043
:106C9000704700BF4C150020054B420953F82230C5
:106CA00000F01F0023FA00F0C04300F0010070471D
:106CB00000E100E00A4A10B51369044643F00403FA
:106CC000136102F065FF27F08FFD30BF27F08DFDC7
:106CD00002F072FF1CB9BDE81040FEF7DFBC10BD2A
:106CE00000ED00E0084A10B51369044643F00403C0
:106CF000136102F04DFF30BF02F05EFF1CB9BDE82A
:106D00001040FEF7CBBC10BD00ED00E0034A017956
:106D1000D36E23F030030B43D3667047004000501E
:106D2000072AF7B50D4614461F460FD803219600D3
:106D3000B14000FA06F21548019127F059FD05F01F
:106D4000030201991248B24027F052FD114B12493B
:106D50009DF82000002F08BF1946012303FA04F410
:106D60000C600E4B0E49002808BF0B461C600D4BF3
:106D70009DF82400C3F820441031A3F6DC3300282A
:106D800008BF0B461C6003B0F0BD00BF00C4035039
:106D900008C4035010E4035010D4035014D403501B
:106DA00014E4035000E00350F8B504460D461F46B6
:106DB00016464AB101238B403021194A01FB0022BB
:106DC000FFB141F21001535004EB4403072D4FF083
:106DD0000F014FEA031317D8A80006FA00F281400A
:106DE0001048184427F004FD56B9012130230C48FF
:106DF00001FA05F503FB040077B141F21003C55019
:106E0000F8BD42F21001DEE7A5F10800800006FAA5
:106E100000F281400448E4E742F21003EFE700BFCC
:106E200000C0035004C003500CC003504FF40012C4
:106E3000064BC3F88020BFF34F8FBFF36F8F002244
:106E4000FF21034B5A6599625A60704700E100E0E8
:106E500000000450044A054B002918BF13460122C4
:106E600002FA00F0186070474020045040100450AF
:106E700030B5047845788178C27801200F4B41EA1B
:106E80000541240658609C609961FF2199620021A8
:106E9000996319644FF0004159654FF0FF314FF489
:106EA000001003F50053196505491301DBB2C1F861
:106EB000800181F81533086030BD00BF0000045028
:106EC00000E100E02DE9F04101250C46C3B2DFF8F6
:106ED00088E0D1F800809D408F7ACB7A94F80DC07D
:106EE000097BCEF850500EF5005E4EF820804FF032
:106EF000300E184E1B050EFB006043EA074343EAC1
:106F0000415322F00302C0F860C0C365026727F056
:106F100062FC736D2B437365237A13B1336C2B437F
:106F20003364637A13B1B36B2B43B3632279A379D0
:106F300043EA0243084A93616179E37943EA0143F2
:106F400006498B61034B55639D64BDE8F04127F012
:106F500048BC00BF00000450002004500010045042
:106F600010B50124C0B2844027F035FC044B5A6DA3
:106F700022EA04025A659C62BDE8104027F031BC49
:106F80000000045010B50124C0B2844027F023FC57
:106F9000074BDA6A224209D15B6B34EA03030CBF68
:106FA0000124002427F01DFC204610BD0024F9E731
:106FB0000000045041F67132034BDA63012203F5FD
:106FC0000053DA60704700BF0000035041F6713291
:106FD0000121044BDA6303F50052D1600022DA6329
:106FE000704700BF00000350014BD3F89400704776
:106FF00000400050CB784A7810B55B010C7843EA2A
:1070000082030A79234343EA02130C22424302F12A
:10701000B0421363012C02BF8A78024B43F8202050
:1070200010BD00BFD080035008B54FF0B0435A6880
:1070300002B960B15B680BB127F0F2FB4FF0B041D1
:1070400030B10120074B586027F0EAFBC86008BD4B
:1070500027F0E6FB0223CB6027F0E2FB0122024B84
:107060005A60F4E700100058002000584FF0B04379
:107070005B6870B50BB127F0D3FB0121104B45784D
:10708000596083780679002BC37814BF022400244A
:10709000002B14BF042200224379DB0043EA0613CD
:1070A0002B43234313434FF0B0429360054B596089
:1070B0000378002B14BF0B460223D36070BD00BFC2
:1070C0000020005800100058054B5B69C3F385127F
:1070D000827003F03F021B0B42700370704700BFC9
:1070E00000C007500120034B9B680A3303F01F03C5
:1070F000984070470080E00F0D4B984208D1A3F5EF
:107100000033C3F88411C36D43F08003C365704737
:10711000084B984204D1A3F51033C3F89411F2E759
:10712000054B984204BFA3F52033C3F8A411EAE746
:107130000080055000C005500000065070B505469F
:1071400016461C4619B90320FFF724FB0146402CC4
:107150001BD003D8DCB1202C1BD070BD602CFCD11F
:10716000042303FB06F2560806EB4113B3FBF2F3CC
:10717000094A203B02EAC303AA6822F06002AA601F
:10718000AA681443AC60EB61E7E70623E9E7102344
:10719000E7E70823E5E700BFF8FF7F00012200F5DD
:1071A000805310B55A6040F6AA6341F2050243616C
:1071B000002312498360C365C26000F50052036179
:1071C000C361C36491640E498365884206D00D4C47
:1071D000A04203D004F58044A0420BD1884203654D
:1071E00006D0084B984203D003F58043984201D162
:1071F000002343650123536010BD00BFFFFF010062
:107200000080055000C0055070B50D46FFF7C6FF61
:10721000012300F580567360AB7C04461BB1836884
:1072200043F080438360EB7C1BB12046297DFFF750
:1072300063FF2A8A6B7B20461343EA891343E3608A
:107240002B7BD5E90112FFF779FF6B7D1BB1A3689A
:1072500043F48033A360AB7D1BB1A36843F40043C8
:10726000A360EB7D2A7E1B07120502F4E00203F007
:10727000E0431343A3656A7E931E012B214B20D864
:107280009C421AD003F580439C4218D003F58043FA
:107290009C420CBF02234FF0FF3341F2AC5102205D
:1072A0005B0103F1A04303F570335850032A23D147
:1072B0000423F3652B78636170BD0023EDE70123A0
:1072C000EBE79C4214D0104B9C4213D003F5804353
:1072D0009C420CBF02234FF0FF3342F2AC5102201C
:1072E0005B0103F1A04303F570335850012ADEE738
:1072F0000023F2E70123F0E7042204F50053DA65E6
:10730000D8E700BF0080055000C0055038B50446DE
:10731000054D2CF0C9F80FCC0FC594E80F0085E897
:107320000F00002038BD00BF6428002047F6FF731F
:107330009A42F0B566D0022966D8344DCF0015F8D0
:10734000313005EBC100012B847813D10025C378BF
:107350001B1B9D4202D3E018C0B2F0BD591B46680A
:10736000A3EB510136F911609642D4BF0D4601F1ED
:10737000FF33EEE740680028EFD0B0F900309342C9
:1073800004DBB0F902309342B8BF134682883D4413
:10739000FF2A19BFC8214FF0280CB0F90610B0F928
:1073A00008C0A1EB03020CBF0126002692FBFCF2F1
:1073B0006D78324412B2954201DD002A01DA6A1E6C
:1073C00012B24FF47A7700EBC206F188B668013248
:1073D00013FB016112B221EAE1715C319542B1FB0C
:1073E000F7F104DD00EBC206B6888E42EBD200EB6B
:1073F000C20232F8040C884228BF0846A04238BFB7
:107400002046A9E7FF20A8E70020A6E7642800207F
:107410000229F0B553D82B4800EBC10410F8311005
:10742000636801290FD1E078A478904294BFC4EB3F
:107430000001C4EB0201001BCAB28242C8BF002295
:1074400033F91200F0BD002B39D0A178914202D35C
:10745000B3F90200F6E7E178B3F900009142F1D9FF
:1074600099886478A1F1FF06013C714203F104059B
:10747000E4B2714103F10C071FFA82FCCEB2B442B0
:1074800016D805EBC1014FF47A756A43B1F9024091
:107490004968521A04EBD47102EB610292FBF4F2D8
:1074A0009042CFDBB3F902009042CBDC10B2C9E7C7
:1074B00037F831E04E1CE645E3D33146DEE70248BB
:1074C000C0E700BF642800200080FFFF08B5044823
:1074D000FFF71CFFBDE8084001202CF008B800BFF2
:1074E00030CE03007FB50222084B0949CDE90123C4
:1074F0004FF00073CDE90313052301A94FF0FF30CE
:1075000005932CF031F807B05DF804FB006A180011
:10751000000204002DE9F0418CB08846DDE91276C6
:107520001D460446002847D0002945D0002F43D0EF
:10753000002E41D013F00F033ED120482049A36014
:10754000002A18BF0146E361C4E90013404609A9B7
:1075500027F0FAFA68BB2046099927F07DF92946F9
:10756000204627F079F96946404627F08CFB00BB9E
:107570006946204627F05CF9404603A927F08EFBB8
:10758000B8B9204603A927F053F9069701272046EA
:1075900045F0005506A90797089527F049F92046B8
:1075A00009A909960A970B9527F04CF9204627F070
:1075B00055FA0CB0BDE8F0812120FAE70001010482
:1075C000000100047FB50E461D460446F0B102B925
:1075D000E3B901230192029345F000530393002382
:1075E0000B4AA360C4E90023E361204601A927F008
:1075F0001FF93146204627F02FF92046294627F06B
:107600002BF9204627F02AFA04B070BD2120FBE7B1
:10761000000009430F4B984209D010D80E4B9842F6
:1076200005D020F48070A3F5806398420FD10B88B9
:10763000B3F5105F0CBF00206FF085007047074B5B
:107640009842F4D020F40070A3F58073EDE76FF05A
:10765000850070470010C004004440040012C004BC
:107660002DE9F04F93B09346DDE91E759846DDE9AC
:107670001C2381468A46209E29B96FF08604204645
:1076800013B0BDE8F08FBBF1000FF6D00FB9002D9D
:10769000F3D10AB9002BF0D116B9219B002BECD104
:1076A000229B002BE9D049464046FFF7B3FF044632
:1076B0000028E4D10146202202A82EF01AFF202241
:1076C00021460AA82EF015FF02A827F0DAF90028B3
:1076D0003DD15A46514648460AAB27F04DFB044679
:1076E0000028CCD10A9827F003FB04460028C6D115
:1076F00015B9229B1860C2E7B74210D27B199E428F
:107700000DD2219B9D42B8D82A46394630462EF0EC
:10771000D6FE174B984518D06FF08504AFE7144B91
:107720009845F9D1219B9D42A7D815F00F08A4D107
:10773000CDE900762B4642460AA902A8FFF7EAFEE9
:10774000074638B9229B1D6099E73746EDE76FF091
:10775000920494E741463046219A2EF0CAFE229BBD
:10776000012FC3F80080F2D16FF08B0487E700BFD0
:10777000004440042DE9F04F93B08146DDE91C75CB
:10778000934698468A461E9E29B96FF08604204685
:1077900013B0BDE8F08F002AF7D00FB9002DF4D157
:1077A00016B91F9B002BF0D1209B002BEDD0494632
:1077B0004046FFF72FFF04460028E8D1014620226B
:1077C00002A82EF096FE202221460AA82EF091FE55
:1077D00002A827F056F9002849D15A465146484692
:1077E0000AAB27F0C9FA04460028D0D10A9827F03E
:1077F0007FFA04460028CAD115B9209B1860C6E755
:10780000B74210D27B199E420DD21F9B9D42BCD81D
:107810002A46394630462EF052FE184B98450BD07A
:107820006FF08504B3E7154B9845F9D11F9B9D4236
:1078300003D96FF08904AAE7374615F00F08A4D1E1
:107840002B460122CDE900760AA902A8FFF762FEC5
:10785000209B1D600546002899D0414630461F9A5E
:107860002EF047FE209B012DC3F8008002D06FF060
:1078700092048CE76FF08B0489E700BF004440045A
:1078800010B54FF42F72002104462EF032FE8023F3
:10789000C4F88C30054B04F19C00C4F884300123FB
:1078A00084F88830BDE8104026F019BE1CCF0300D4
:1078B00010B5D0F8A0400A4674B927F074FC04460D
:1078C00040B12D2896BF074B074953F820100748B1
:1078D00027F0B8FD204610BDD0F8A4101046A047F0
:1078E0000024F7E7C8CF030026CF030005F6030006
:1078F00090F8803070B504460BB1002070BD27F0C1
:1079000082FA0028F9D1012384F8803094F8883075
:1079100033B184F88800D4F88410164827F092FD1B
:107920004FF0FF36D4F8B4526A1C1CD0C4F8B462CD
:10793000204627F065FA2046E9B200F0A5FB0028B2
:10794000F0D0204627F06DFA94F8880038B1D4F8CA
:107950008410084827F076FD002084F88800002372
:1079600084F88030CAE727F052FD431C0546DFD17A
:107970000120F4E79CF20300F8B50B780546302BA4
:107980000E46174604D14B7803F0DF03582B12D074
:107990002A49721E12F8014F002C38D10A222146C2
:1079A000304626F035F8202D03460A4634D1631AB6
:1079B0005842584117E04A1C204912F8013F9BB930
:1079C00030462EF0BEFD1E4B02382B40032B15D146
:1079D0006B1C48BF2B1D9B1083420BD1B0783728FE
:1079E0008CBF00200120F8BD5B5C13F04403E4D1A0
:1079F0001846F8E7CCBF01200020F4E7002DB8BFFF
:107A00000335B0EBA50FD4BF01200020EBE7635C8A
:107A100013F00403BED1EBE727B1084302D0013BCA
:107A200061F10002012000FA05F5013D1D40002A28
:107A300008BF9D4218BF0020D5E700BF314B0400AE
:107A40000300008070B503787B2B16D10546022118
:107A500000220B4E15F8014F7D2C05D1435C63B914
:107A6000D04300F0010070BDA35D13F0440302D0C9
:107A700001320131EEE7202CFBD00020F3E700BFFC
:107A8000314B040070B506460D462EF05AFD0446F3
:107A9000304627F0D7FC044EAC4200D370BD3046D0
:107AA00027F0D0FC0134F7E710EA03002DE9F84F86
:107AB000044602215048FFF7E5FF1E212068FFF72A
:107AC000E1FF6368586827F0BDFC4C4827F0BAFC1A
:107AD00067683B7BFD2B12D8D7F808804FF0FF3644
:107AE00040462EF02EFD0546DFF80C91DFF86CA124
:107AF000DFF844B10C3717F8013BFF2B01D1BDE88B
:107B0000F88F212B17D8212B33D8DFE803F06D73C2
:107B10006F11181A1C1E32323232323232322022A7
:107B20002426282A2C2E3232323232323232693036
:107B3000334C1DB31FE0FE2B5AD0324CF9E7324CC8
:107B4000F7E7324CF5E7324CF3E7324CF1E7324CD1
:107B5000EFE7324CEDE7324CEBE7324CE9E7324CE1
:107B6000E7E7324CE5E7324CE3E7324CE1E7324CF1
:107B7000DFE7244C05B10136202BBCD0022148465A
:107B8000FFF780FF1E214846FFF77CFF504627F095
:107B900059FC594620462EF0CAFC2849002818BF37
:107BA0002146274827F04EFC3B78202B02D12B2082
:107BB00027F03CFC234827F045FC4DB118F806306F
:107BC0001F2B05D018F806001F2801D0AE4203DB9A
:107BD0000A4827F037FC8EE727F028FC0136F1E74A
:107BE000002D88D0184CC6E7184CA2E7184CA0E727
:107BF000184C9EE7184C9CE7DFB4030015D5030032
:107C000096D0030080D00300E5D003009CD0030091
:107C1000DDD00300D9D00300D0D00300C6D00300CC
:107C2000BCD00300D1D00300C7D00300BDD00300F7
:107C3000B2D00300ABD00300A2D0030093D0030066
:107C40009CF20300B9E4030088D0030095D0030040
:107C50009BD00300FA680300E4D00300C5FA0300D8
:107C60002DE9F04F9DB005468846914600260493C5
:107C70002EF067FC269F049B07901E6028463E60FE
:107C80000CAA0BA927F0FFFB0446002840F0C28095
:107C90000C982EF056FC2646049B01941860D5F8EB
:107CA0009C300393039B1BB920461DB0BDE8F08FA9
:107CB000039B9B680293002B77D02E4416F8013B60
:107CC000202B13D000260C237343029AD15802EBC9
:107CD000030B002964D00B9B019A069393425FDB50
:107CE0009BF8083033B106F1010A3FE03B680133ED
:107CF0003B60E3E73B68D5F894201CA8D21A049BAC
:107D000005911A60019B00EB830353F8403C184631
:107D100009932EF01EFC82460028E4D105990846FE
:107D200008912EF00EFCDBF80430024693F80CC0EC
:107D30000593BCF1FE0FD7F800B0DDE908131AD1A6
:107D4000069800F1FF3E0198864514D0059A184622
:107D500012680BF1010B02922EF0F3FB58443860CD
:107D60003B68EA5C22B1019B013301935646AAE7C6
:107D700001333B60F4E7D5F894300991A3EB0B0392
:107D80009342089221DC40462EF0DBFB089A0999C9
:107D900010447B280DD9494640461F4A26F0C6FBB1
:107DA000079BEA182B4693422DD1039B1B68039334
:107DB00078E70A464046494626F0B8FB4946404621
:107DC000164A013426F0B2FB8DE7BCF1FE0F8AD1D2
:107DD000069B019A013B934285D1059BD3F800A0F5
:107DE0005AF80C2B22B9079B3B60049B1A60D7E71B
:107DF0004946404626F09AFB49464046074A26F047
:107E000095FB0134ECE7197811B94FF02001197096
:107E10000133C8E7344647E7EBD0030010EA03001C
:107E20002DE9F047002486B01C60DDE90EA8064667
:107E300089468AF800401168154888F800401746BE
:107E40001D468DF81740FDF75BFE18B901242B681D
:107E500001332B600020D6F89C6036B914B10123A1
:107E600088F8003006B0BDE8F087B06868B14B46CE
:107E70000021CDE902A8CDE900750DF1170227F028
:107E800031F99DF81730002BE8D13668E5E700BFDF
:107E9000F0D003002DE9F04700260446ADF5447DFF
:107EA0007C22314605A80DF1080804962EF021FB2E
:107EB00080222046CDF8008003AB04A9FFF7D0FE56
:107EC00001283ED104A82EF03CFB0399D8F80030DD
:107ED000471A0B44234427EAE777054604A80144E0
:107EE0003A4618462EF0DEFAC655D4F89060039B49
:107EF000D8F80010D4F890201944B14212DCD4F81C
:107F00009410E81A0244C4F89020014404AAC4F86A
:107F10009410D41825182B1B002B0DDC0DF5447D77
:107F2000BDE8F087A05C27F081FAD4F890300136E4
:107F30000133C4F89030DAE714F8010B27F076FA31
:107F4000E9E7EBDD24AD8022314628462EF0D1FA58
:107F500044AB4FF40072184631462EF0CAFA0DF1C8
:107F6000100A034652464FF0010912F8017B002F18
:107F700048D143F8296004A82EF0E3FA29463B468D
:107F80001AF8016B44AF57F8042B824243D10133F6
:107F9000994501F8016BF3DAD4F89060039BB34282
:107FA00042DC2346364A04A9364827F04BFA2846D5
:107FB0002EF0C7FA039ED8F8007035443744861B6C
:107FC00026EAE672E3191744E01904F190018842A9
:107FD0004FD904F198018B424BD218466A1E991969
:107FE0000B1A002B39DD12F8013F00F8013BD4F8E1
:107FF00090300133C4F89030D4F894300133C4F891
:108000009430EDE7202F06F1010604BF43F8296004
:1080100009F10109A9E70DF1100C6244D25CB242EA
:10802000B1D00022EA54B7E7D4F890300136E05CD2
:1080300027F0FCF9D4F890300133C4F89030ADE764
:10804000D4F89020013B0132C4F89020D4F8942059
:108050000132C4F89420002BF2DC00232E44E355B7
:10806000731B002B7FF75AAF15F8010B27F0DEF9D1
:10807000F6E7184629462EF015FA3346EBE700BF1F
:108080001CCF0300F5D003002DE9F843D0E92456B6
:1080900004460F46002294F89830012B06D10A2F8F
:1080A00006D1002084F89800BDE8F88300F2A08093
:1080B0001B2F03D1022384F898303BE0A7F10D0277
:1080C00053425341082F84F8983035D1002D30DDCC
:1080D000B5420FD1384627F0A9F9202027F0A6F99C
:1080E000384627F0A3F90023013D6355013EC4E95A
:1080F00024561FE0FBDA05F1FF38384627F096F9E1
:1081000004EB0803A6EB0802611918462EF0D7F914
:1081100000220146A2554E48013E27F093F935460C
:10812000454501DC4546E2E7082027F07FF9013D9F
:10813000F6E7DCD10020B7E77F2F1CD1002EF9DD58
:10814000B542F7DA6319691C721B214418462EF0F8
:10815000B6F900220146A2553E4827F073F90820DF
:10816000013E27F063F9B542F9D1D4F89430013BD0
:10817000C4F89430DEE70D2F01D00A2F0AD10D206C
:1081800027F054F90A2027F051F900230120C4E90F
:10819000243389E7092F03D12046FFF77BFEC9E787
:1081A000D4F88C30013BB342C4DDB54204EB050882
:1081B00005F101090CDB384688F80070D4F89430DA
:1081C000C4F890900133C4F8943027F02FF9B1E748
:1081D0004146721B04EB09002EF071F9404627F06E
:1081E00031F90820013E27F021F9B542F9DDE2E737
:1081F000022B06D15B2F01D103235CE784F8982082
:1082000049E7032B96D1413F84F89820032F91D85A
:10821000DFE807F002070A150121204627F0AEF833
:1082200088E74FF0FF31F8E7B54283DA605D27F069
:10823000FDF8D4F890300133C4F890307AE7002D7F
:108240007FF778AF013D0820C4F89050BDE700BF2C
:10825000FED003009EE5030013B50024064A6846DD
:10826000536F43F00103536700948DF80440FEF709
:108270004DFD204602B010BD0040005008B5024838
:10828000FEF7D6FB002008BD00B4C40430B58BB0A7
:108290006C46174D0FCD0FC40FCD0FC495E80300EA
:1082A00084E80300134BD3F84C21120318D4D3F8FD
:1082B0005041E4B28DF81940FEF7A4FC204480F34D
:1082C00008008DF818000C48FDF704FA6846FEF720
:1082D00001FC4FF4FA70FEF7D9FC00200BB030BD62
:1082E000064B1C884FF6FF739C4208BF8124E1E7D0
:1082F00004D103000080E00F00F049020001E00F0C
:1083000030B5094D87B001AC0FCD0FC42B6801A863
:10831000236025238DF80530FEF77AFC6420FEF7F4
:10832000AFFC002007B030BD2CD103006FF0040279
:10833000502110B50A480B4C12F0800FD3B21BBF6E
:1083400003F00F03043BA3181B1802F101020CBF3A
:1083500083F8001319763D2AEED1002010BD00BF2E
:1083600000ED00E000E100E010B5044626F024FA3C
:10837000024B1C6026F024FA002010BD8C2800203F
:1083800010B526F019FA034B1C6826F019FA20469E
:1083900010BD00BF8C28002013B513460C4618B939
:1083A0000192FFF7EDFF019B0146224604480CF0C5
:1083B000AFFB0028D4BF3720002002B010BD00BFA3
:1083C000DFF5020030B51446054687B0104627F0A9
:1083D0003AF96369024683423CBFD4E903315B1832
:1083E0001B1A7BB10F49284603910021CDE90131C9
:1083F000012304940093D4E9001326F075F90020BA
:1084000007B030BD0122627694F82D20002AF6D004
:1084100084F835301321E369204698472046636A83
:108420009847ECE7C58300002DE9F04788B0044683
:1084300088461746994626F0CEF98246002F7AD014
:10844000237E03F0FF02002B00F0A280204627F0DD
:10845000FAF86669B04205D1637ED4E90352154447
:10846000AD1B01E0F9D9851BBD4228BF3D4626F072
:10847000B2F994F82D300646002B6DD12A464046BD
:1084800061692EF00FF863692F462B44636121E088
:10849000037803F0FD0111295BD1216B814205D1E5
:1084A000A3F111014B424B4184F83430013F636921
:1084B000216B01328B4203F1010308BF2363636127
:1084C00095426069E4D1D4E90323216B13449942B6
:1084D00000D122630025D4E9032361691344994242
:1084E00008BF6261207A6576FDF784FD204627F09B
:1084F000AAF86369834232D1257694F82D30E56875
:10850000656103B125632046636A9847214B2A467B
:108510000393002302932369216801930123207AA6
:1085200000930494636826F0DFF8207AFDF782FD5B
:10853000304626F056F95046C9F8007026F051F939
:10854000D9F80030002B0CBF1B20002008B0BDE87C
:10855000F08708F8013BAAE72F460022B0E7012385
:10856000207A23760DF11E01FDF7CCFD9DF81E301B
:10857000002BDAD00DF11F01207AFDF79BFD9DF84D
:108580001F100029D1D12246207AFFF71BFFCCE72C
:108590001746D0E7C5830000002808DB0123420905
:1085A00000F01F0003FA00F0014B43F8220070476F
:1085B00000E100E0002809DB0122430900F01F0070
:1085C00002FA00F0024A603342F82300704700BF0D
:1085D00000E100E070B504460568FFF7D1FE844273
:1085E00002D10020FFF7C0FE95F93600FFF7E2FF49
:1085F00095F93630002B0DDB01215A0903F01F03DA
:1086000001FA03F31849203241F82230BFF34F8FAB
:10861000BFF36F8F95F93700FFF7CCFF95F937302F
:10862000002B0DDB01215A0903F01F0301FA03F3AC
:108630000D49203241F82230BFF34F8FBFF36F8FC7
:10864000287AFDF717FD287AFDF77AFCFDF756FC2E
:1086500000232846C4E90033C4E90433A360AB6AAD
:10866000BDE87040184700BF00E100E02DE9F0418F
:108670000C461546064686B04022002120461F467D
:108680002DF037FF95E8030000232A692376EB6875
:1086900084E80300C4E904232A7DE36084F82C20E5
:1086A000AA7D2363012384F8343084F835300C9B91
:1086B00084F82D2023620D9BE76163620E9BA36209
:1086C0002B7A84F836306B7A84F837302D4B34604F
:1086D00073602D4BB3602D4B33612D4B73612D4B6C
:1086E000F360FDF753FC38B12B4B984204D01024B3
:1086F000204606B0BDE8F081002104F10800FDF736
:10870000CDFB07460028F2D14FF00108234B33621E
:10871000234B84F83C80B361224BF3619DF84030D9
:1087200084F8390084F83B309DF83C30204684F8CA
:108730003A30697D84F8388026F095FF95F9090074
:10874000FFF738FF95F90900FFF726FF164B049451
:10875000CDE902732369CDE900836368E26821688B
:10876000207A25F0C1FF04460028C0D195F9080001
:10877000FFF720FF95F90800FFF70EFF3046FFF7DF
:10878000F3FDB5E7B7F602002984000035F60200D4
:108790003BF60200D5850000038000F00BF60200D6
:1087A00067F6020041F60200C58300002DE9F041A2
:1087B0004FF001081C46584B86B00293574B0C9D56
:1087C0000193574B174600930A46CDE90388294683
:1087D000544BFFF74BFF0646002876D1236804224E
:1087E0002B64237985F84430A17985F846106079A7
:1087F00085F84500237A85F84830E37985F84730D5
:10880000A37A85F84A30637A85F84930237B85F866
:108810004C30E37A85F84B304346FEF7C5FA4346C1
:108820000222217AE079FEF7BFFA3E7039462068CD
:10883000FEF7EAFC1421A27B3B4B03EB4210C0F88D
:10884000AC1594F806C061792E3203EB421341EA6D
:108850000C415960227AE37943EA0243C0F8BC35FF
:1088600085F84D607B7E032B53D8DFE803F01F02B1
:10887000324D0123002785F84D3000230222A17AD2
:10888000607AFEF791FAA17A627AA37B42EA01420A
:1088900041F2B4515B0103F1A04303F570335A5028
:1088A0000422236803F58053DA65AFB963792A6C33
:1088B00085F84530A379052185F84630D36C2068CA
:1088C00043F00403D36425F0EEFF304606B0BDE864
:1088D000F081022385F84D3000230422217BE07AC9
:1088E000FEF762FA41F2AC520221A37B5B0103F175
:1088F000A04303F570339950217BE27A42EA0142AA
:1089000041F2B8515A50D1E70323012785F84D3081
:10891000B3E72326D9E700BFE1F70200D5F702004D
:1089200065F8020059F8020000C0035007B501F0D5
:10893000ABFB6A4601F00EFC18B15221034800F06F
:10894000DBFADDE9000103B05DF804FB40D1030070
:1089500008B501F0D5FA18B17A21024800F0CCFA36
:10896000002008BD40D1030008B500F029FA0E4AE6
:10897000536A43F470235362EFF308834FF0CD3111
:108980000A4A043B93420BD20222094B1A6700F0B9
:108990004DFCFFF7DDFFBDE808400648FEF7B6BC1A
:1089A00043F80419EEE700BF00ED00E000000020EE
:1089B0000040005030CE030007B5042200200DEB2C
:1089C00002012AF04DFD042804D04FF4BF71044881
:1089D00000F092FA019800F0D5FB03B05DF804FBBB
:1089E00040D10300082310B548400A0A0649C0B226
:1089F00000F00104400804B14840013B13F0FF03BC
:108A0000F6D1504010BD00BF2083B8ED2DE9F047EE
:108A10000025144C144FDFF85890DFF85880224698
:108A20004946002057F8043BEEB226F0E1FD2378DA
:108A3000A2460134002BFAD19AF801307BB10B49E0
:108A400006F00306032E08BF4146002026F0D0FDA5
:108A50009AF801300135002BE1D1BDE8F08741469D
:108A6000F3E700BFFCDD03000010002095180400B0
:108A700091D1030014D5030040F605226A4B2DE97D
:108A8000F0411B8893420ED8B3F5206F0DD840F209
:108A90000252934218D040F20172934220D040F229
:108AA000015293420AD0BDE8F081A3F602235F4C45
:108AB000032B1ED8DFE803F0376396B25C49002031
:108AC000BDE8F04126F094BD00205A4926F090FD03
:108AD000564B1A6C0020BDE8F041574926F088BD7E
:108AE000524A0020D2E92423BDE8F041534926F040
:108AF0007FBD0020524926F07BFD94F868309E0728
:108B000003D500204F4926F073FD94F86B305D06C5
:108B100003D500204C4926F06BFD94F96B30002BF7
:108B2000C1DA4A49CBE70020494926F061FD94F8B3
:108B30006430980704D00020226C3F4926F058FD8D
:108B400094F96430002B04DA0020226F414926F0AA
:108B50004FFD00250126404FDFF80881626E06FABE
:108B600005F3134207D057F8252013781BB141466F
:108B7000002026F03DFD0135082DEFD193E7374960
:108B8000002026F035FD2C490020226C26F030FD17
:108B900094F86530590703D50020314926F028FDA7
:108BA00094F96530002B04DA0020226F294926F061
:108BB0001FFD0825284E2B4F636EEB40DA0707D5C3
:108BC00056F8252013781BB13946002026F010FDF9
:108BD0000135102DF0D194F8640000287FF463AFC4
:108BE00021496DE72149002026F002FD0020226C7A
:108BF000114926F0FDFC1025174E1A4F636EEB400D
:108C0000DB0707D556F8252013781BB1394600201D
:108C100026F0EEFC01351A2DF0D144E7002014496E
:108C200026F0E6FC226C55E7E83B0020001000200F
:108C30009BD10300D9D103000AD2030025D203003F
:108C400041D203005AD2030095D20300C9D20300D7
:108C500006D303002CD3030070DC030053D30300BE
:108C60006BD303004AD30300B2D30300E3D3030062
:108C7000FDD303002DE9F04F434C85B0636BD4F86E
:108C80003CA05A0744BF0026B046D4F84CB05FBFA2
:108C9000D4F838A0D4F848B0D4F850803B4E54BF34
:108CA000DFF81091DFF8109113F0080F384B394AB4
:108CB00018BF1A46B6EB08071FBF64237D0803FBE5
:108CC0000B55B5FBF7F50CBF3D46ADB24B463249EF
:108CD0000020CDE9016ACDF80080BFB226F088FC03
:108CE0002B460020CDE900972C491FFA8BF226F085
:108CF0007FFCB24501D8C24504D24A46002028492B
:108D000026F076FCD4E9170318433AD00020254911
:108D100026F06EFC00250126234FDFF8A080E26DCF
:108D200006FA05F3134207D057F8252013781BB134
:108D30004146002026F05CFC0135202DEFD10025B6
:108D40000126194FDFF87480226E06FA05F31342EC
:108D500009D007EB8503D3F8802013781BB1414677
:108D6000002026F045FC01351D2DEDD100200F49D6
:108D700026F03EFC00200D4905B0BDE8F04F26F07E
:108D800037BC0B49F4E700BF0010002000100020A2
:108D900024D403002BD4030033D4030065D4030090
:108DA0009FD40300BED4030008DD030015D50300E3
:108DB000EED403001FD40300AA0404009BF20300B6
:108DC00010B5FEF711F9044625F024FD002201211B
:108DD00001FA02F3234018D0204B214933F8123016
:108DE000062B18D040F20722934211D14FF00052C7
:108DF0004FF20F00548884420AD11088984207D15C
:108E00004CF23C335380088010BD0132102ADFD170
:108E1000134A138012E04FF000534FF20F025888AC
:108E2000904218D11B88B3F5406F28BF4FF4C06340
:108E30000B804CF23C324FF000535A80084B1A889A
:108E400040F201739A4201BF064B074AD2E9000182
:108E5000C3E90001D8E74FF4C063E9E7C8DE0300C7
:108E6000E83B00209028002090100020014B18883B
:108E7000704700BFE83B0020014B1888000A70478C
:108E8000E83B0020044B05481B881A0AB3F5406FE5
:108E900038BF00EB82007047E83B0020E8DE0300AB
:108EA000044B1888044B020A53F82230C0B203EB7B
:108EB00080007047E83B0020D8DC030010B5044672
:108EC00025F081FC4FF000534FF20F021C805A80B6
:108ED000BFF35F8FBFF34F8F0549064BCA6802F49B
:108EE000E0621343CB60BFF34F8F00BFFDE700BFCD
:108EF00000ED00E00400FA0538B504460D4600F028
:108F0000C7F925F060FC2B4622460549002026F0D3
:108F10006FFB29462046BDE8384026F037BD00BF2C
:108F200004D503006C4A2DE9F0416C4B55686C4C3C
:108F30005D65516A99656B49D1F80002D865D1F831
:108F40000412586B1966916A10F0040F5966D16AC1
:108F50004FF000009966116BD966516B1967D26B9F
:108F6000D8645A67D3E90E2108BF11465E4A914280
:108F70001A655DD301F12000A04259D88869C5F374
:108F800008051864CE69062D5E6455D1574DA84278
:108F900052D3574DA8424FD205884DF642608542C4
:108FA0004AD11868C3F890005868C3F8940040F29A
:108FB0000170A242154604D22E680432B6F1CD3FAC
:108FC000F7D00022C3E91E22C3E92022C3E92222EE
:108FD000641B434EDFF814C1DFF814E19C648E4239
:108FE0002DD8D3E91EC7D3E92065D3E922414FF03C
:108FF000000E013AD2B2FF2A3DD1BEF1000F05D0DA
:10900000C3E91EC7C3E92065C3E92241B3F8543060
:10901000C3F308030C2B3CD8022B52D9DA1E092AC1
:109020004FD8DFE802F0553241444E4E4E4E4E4B83
:109030000021C3E910112C494FF42060B9E756F81C
:10904000044D6445CBD37445C9D2E507C7D5062581
:10905000284F57F8048BA045C1D0013D15F0FF05FE
:10906000F7D10AB9052201E0013AD2B202F11E0598
:1090700043F82540B3E7E0464FF0010EBC463746C3
:109080002E4625460C464146B3E740F60220BDE891
:10909000F0813B2B15D1184B9B6913F0020F40F266
:1090A000025318BF1846F2E740F60320EFE740F6F8
:1090B0000423B0F5206F08BF1846E8E740F6052006
:1090C000E5E740F60722013B4B2B98BF1046DEE751
:1090D00040F60120DBE700BF00ED00E000100020BB
:1090E0000010002000E100E00000002034410000FA
:1090F0006E660300781000200080015A00F00CB862
:1091000000F00AB800F008B800F006B800F004B8A3
:1091100000F002B800F000B872B61EF0080F09D0D7
:109120001EF0040F0DD0DFF850E0AEE8FF1F6FF027
:1091300002000CE0DFF840E0AEE8FF1F6FF00E0029
:1091400005E0DFF834E0AEE8FF1F6FF00600694687
:10915000EFF309828EE8070086460848084C8545EB
:1091600001D3A54501D384F30888FFF7DBFE84F320
:109170000888FFF7A3FE0000001000204000002038
:109180000010002082B2074B4AB1000C1A8008BFC1
:109190004FF6CE22044B14BF18801A8070474BF64E
:1091A000EF62F2E750150020521500200B4BB3F987
:1091B00000201888002AB8BF80F0620042001A80A0
:1091C000074AB2F9001013880029BCBF83F480530A
:1091D00083F00B0359001180584070475015002050
:1091E0005215002008B501F07DF960B10A4B034427
:1091F000072B0DD8072B0BD8DFE803F004060A086D
:109200000A0A0A0CC22008BDC320FCE7C420FAE702
:10921000C520F8E7C120F6E7FF1FFF0F024B9A6950
:1092200003F500539A6170470080015A1FB50D2461
:109230000021224668462DF05CF901238DF80030AC
:109240000323104A8DF809408DF80A30D2F8003215
:109250000D4C23F0070343F0010369462046C2F892
:10926000003225F054FB4FF400610223074A04F555
:109270000050C2F884118361516004F58054E361A9
:1092800004B010BD008000500080015A00E100E0F1
:10929000014825F02BBB00BF0080015AF0B519B37F
:1092A000002820DA2D23B0F1004F137000D0404287
:1092B000012119E0801B8642ECB205F10105F9D9C4
:1092C00014B9BCF1000F05D04FF0010C4D1C303427
:1092D0005454E9B2013B13F0FF0309D1303050542C
:1092E000481CC0B2F0BD002109234FF0000C024F12
:1092F000002557F8046BDEE720DF03002DE9F04F6F
:10930000002495B02146029480461646A146442288
:10931000274603A802AC9B4625462DF0EAF80DF13E
:10932000480A317859B9641BE4B222462946002024
:10933000C047002840F0AF803C44E0B2ACE02529B3
:109340001AD0B9F1000F1BD1204600F8011B0446CA
:109350005445C0F0F580641BE4B229462246002043
:10936000C0470146002840F09680274448222846FE
:10937000FFB22DF0BEF8E2E0B9F1000F00D10136E6
:109380003278782A06D8612A07D8252A5DD039D8BC
:10939000002AC8D04FF00009DAE7A2F162011629CD
:1093A000F8D801A353F821F057940000E994000085
:1093B000459500009593000095930000959300005B
:1093C00095930000959300009593000095930000FD
:1093D000459500009593000095930000959300003B
:1093E000FB9400009593000095930000FB9400000F
:1093F000959300004595000095930000959300001B
:109400003B940000392A16D82F2AC3D9717801F06D
:10941000DF01582940F0C380322A06F1010940F0EB
:10942000AB805BF8041B2046042289B226F0CEFAFA
:1094300004464E46AEE7582AACD15BF8041B022224
:109440002046C9B226F0C2FA55E0214601F8022BA7
:1094500062700C469EE74FF00009DBF80030019384
:10946000DBF804300093009B994502D10BF1080B07
:1094700090E7019B2046022213F8091026F0A6FA75
:109480005045044612D3441BE4B22946224600202C
:10949000C047014618B1002015B0BDE8F08F482242
:1094A000284627442DF025F82C46FFB2009B5A1E73
:1094B0004A4581BF2046202200F8012B044654452E
:1094C0000FD3641BE4B2294622460020C047014660
:1094D0000028E0D14822284627442DF00AF82C46DF
:1094E000FFB209F10109BEE75B4653F8042B2046A1
:1094F0009B4600F8012B04464CE7621BD2B229467A
:1095000000205BF8049B0092C04704460028C2D1AB
:10951000009A0146174428464822FFB22CF0E9FF82
:10952000E2B219F8020001340028F9D1494600924C
:10953000C0470028AFD18146009A1744FFB22C469D
:109540000136EEE66C2ADBF800000BF104090ED1BF
:109550007378752B14BF0121002101D0642B00D139
:1095600001362246FFF79AFECB46044412E7752ADD
:109570000CBF00210121F4E7342A10D15E4656F8D1
:1095800004BB04224FEA1B41204626F01FFA1FFAB3
:109590008BF1042226F01AFAB346044649E74FF04D
:1095A0000109D5E608B5054813460A460021FFF72C
:1095B000A5FEB0FA80F0400908BD00BFC1F9020065
:1095C000054B1A782AB95B78002B14BF02200320C0
:1095D00070470120704700BF384000200329F8B5CC
:1095E00098BF124B05460E468CBF00245C5C0328D6
:1095F00005D8DFE800F002080B0E44F002040C4B23
:109600001F684FB9F8BD44F00804F8E744F020049F
:10961000F5E744F08004F2E77B681A68144203D04F
:10962000314628465B6898473F68EAE744DF030015
:10963000BC28002038B5104D2B78ABB10F4C2378E7
:109640001BB100F0EFFA00232370002026F0DFF9B1
:109650000B4C50B100F036FB0023012120782B7019
:10966000FFF7BCFF0123237038BD0122054B1A70A0
:109670002278054B1A70F7E737400020324000206F
:1096800030400020364000203C40002010B525F03E
:1096900093F8064B04461B781BB1BDE8104025F03B
:1096A0008FB8FFF7C7FF2046F7E700BF3140002023
:1096B000002814BF0121FF21074A13780B441370BF
:1096C00008D0064B1B78012B04D9054B1B780BB92E
:1096D000FFF7B0BF704700BF384000203040002087
:1096E0003640002070B525F067F8124E05463378F5
:1096F0009BB900F005FC044620B1284625F060F82F
:10970000204670BD0C4824F0EAFE00F0ABFE0B4B87
:109710001C6000F0D3FC0A4B186000F0B3F926F08F
:1097200078F9084B0024186001232846337025F08F
:1097300047F8E5E733400020BC280020C42800207B
:10974000C0280020B828002000292DE9F34114BFCB
:109750000121FF21254A00F1FF30135C0B44135413
:109760003AD0234E3178012936D9FFF729FF012855
:10977000044634D81F4F25F01FF83B781BB31E4D0D
:109780002B781BB901222A701C4A1370DFF87080F5
:1097900098F8003033B1019000F044FA00230198AA
:1097A00088F8003025F00CF8012026F030F925F07B
:1097B00003F82B782BB1019000F084FA0023019874
:1097C0002B7000233B7024F0FBFF3078844203D0E1
:1097D0002146FFF703FF347002B0BDE8F081032992
:1097E000F3D10228F1D126F018F9EEE73840002035
:1097F000304000203740002031400020364000201B
:109800003240002068B524F0D7FF094B06461B788C
:10981000012B04D824F0D4FF0025284668BD054B51
:109820001D6800F083FA0544304624F0C9FFF4E7D0
:1098300030400020C428002038B54160044624F0A0
:10984000BBFF05462146044824F04CFE2846BDE8EF
:10985000384024F0B5BF00BFBC280020054B1B6872
:109860005843054B00F5742000F23F20B0FBF3F0A5
:10987000704700BFC028002040420F002DE9F04390
:1098800085B0EFF3108672B600E000BF24F08DFAC9
:10989000002800F08980674D674F2B7823B10020A6
:1098A000FFF706FF00232B70FFF78AFE044600280F
:1098B00000F08180841EE4B2012C40F28380FFF727
:1098C0007FFE0128804604D95C4B1B780BB926F03B
:1098D0009CF85B4CDFF888912078404507D099F8D8
:1098E000003013B94146FFF779FE84F80080B8F1E3
:1098F000010F0FD9DFF8448198F8003053B9514B6C
:109900001B7823B900F088F901224F4B1A7001230C
:1099100088F80030207800F0F3F999F8003013B19E
:109920004A4B1B78237000E000BF06B962B6EFF324
:10993000108672B6464B1A7852B100221A70434B09
:1099400020781B78984203D101212170FFF746FE51
:10995000384600F00FFB24F03DFA804600289CD1E9
:10996000364F3B789BB189F80000DFF8DC9099F81E
:1099700000301BB100F056F989F80080002026F075
:1099800046F800284DD000F09DF900233B702B785D
:1099900023B10020FFF78CFE00232B7000212078DC
:1099A000FFF71CFE0023237000E000BF06B962B67B
:1099B00005B0BDE8F0832B78002B80D0FFF778FE50
:1099C0002C707CE7002003A900F018FB0446002857
:1099D0007FF475AF1F4B039A1B689A4205D801208C
:1099E000FFF766FE01232B7069E71B4BD3F800805D
:1099F00000F09CF9039B80449845F0D200F0AEF94A
:109A000000280CBF00230423039943F00203CDE98F
:109A1000004338462346114AA1EB080125F0FEFF1A
:109A20004DE7012000F06CF906B962B6EFF310863D
:109A300072B6A3E73B400020982800203740002062
:109A4000304000203A400020324000203C400020BE
:109A500035400020B8280020C42800208D96000042
:109A60003640002010B524F0A7FE0022044B1C78DD
:109A70001A7024F0A5FE00F043FC2043C0B210BDD4
:109A8000344000203849394B0A6F394802F0070248
:109A900070B51A60D1F820318069364DC0F34000AE
:109AA000032A287058D003F00703981E434243410D
:109AB000D1F88022304C02F0010213434FF4C870F9
:109AC0002370FFF7CBFE2D4B2D4A18600A23166832
:109AD0002C49013B13F0FF0341F8040BF9D100EBD3
