:020000040800F2
:104000005073002025830208E1800208E580020841
:10401000A70A0A0100410008040A03ACA067A7012F
:104020000000000000000000000000000000000090
:104030000000000000000000000000000000000080
:104040000000000000000000FFFFFFFFFFFFFFFF78
:10405000FFFFFFFF007003080000000000000000E9
:10406000FFFFFFFFFFFFFFFFFF0000000000000059
:104070000000000000000000000000000000000040
:10408000F07F002000000000EC7F0020EC7F00208B
:1040900050730020288C0208AC840208F0690020CC
:0C40A000381A00200000040800800020F6
:104100005073002025830208C5830208C983020872
:10411000CD830208D1830208D58302080000000085
:10412000000000000000000000000000D983020829
:10413000DD83020800000000E18302083B970008CD
:10414000E5830208E9830208ED830208F18302088F
:10415000F5830208F9830208FD830208018402083E
:1041600005840208098402080D84020811840208EB
:1041700015840208198402081D840208218402089B
:1041800025840208298402082D840208318402084B
:104190002DE9F84F8046DFF87C902322FF21484626
:1041A00000F08FF8DFF870B04FF4A472FF2158468A
:1041B00000F087F819481A4F1A4C00904FF0230A64
:1041C0000026A25D1849BD5D885D521C02EBD272CB
:1041D000521000B11932154830F816100098D21C50
:1041E0006A4300F0A6F8012D1CBF2BF816A0AA44C4
:1041F000761C232EE5DB23234FF4805240F2CE5170
:104200000B4800F096F849464046BDE8F44F00F0F0
:1042100003BC00BFD876002090750020AC84020853
:104220002C86020808860208E48502089C8502089C
:10423000C884020870B5814224D210441144401E43
:10424000491E10E011F8013900F80139121F11F868
:10425000014900F8014911F8015900F8015911F814
:10426000016900F8016993B2042BEBDA93B2002BD9
:104270001EBF11F8013900F80139521EF6D170BD88
:1042800000F00DF893B2042BFADA93B2002B1EBFA4
:1042900011F8013B00F8013B521EF6D170BD11F838
:1042A000013B00F8013B121F11F8014B00F8014BD4
:1042B00011F8015B00F8015B11F8016B00F8016B6C
:1042C0007047130003D00A46194601F03BBA704705
:1042D00010B5034600E0521E90B218B100F003F88A
:1042E000F9D0001B10BD13F8010B11F8014BA042CF
:1042F000704730B4002513E050F8042BD30744BFB7
:10430000A9F101039A18091F042942F8045BFAD2A3
:1043100013468C0744BF15809B1CC90748BF1D70FE
:1043200050F8041B0029E7D130BC70472F490870B2
:1043300070470EB430B52D490446087820B301F01B
:1043400040FA08B301F062FC012001F088FCFF286C
:10435000054619D001F078FC022101F042FA01462D
:10436000284601F077FC03AB22462946204802F09C
:1043700063F830B1284601F040FA10B1042000F093
:104380000BF8284601F0D5FC30BC5DF810FB0C2280
:1043900000211848FFF795BF164931F81020521C2C
:1043A00021F8102070470CB480B502AA02F0A1F9E0
:1043B00001BC5DF80CFB0D4A1178A1B9010018BFD2
:1043C000012810D0042818BF05280CD0312818BFA8
:1043D000332808D037281EBF3B284FF6FF7188428C
:1043E00001D001207047002070470000BB7F0020F3
:1043F0004F5F000810780020302818BF322806D000
:1044000034281CBF3628382801D0002070470120EE
:104410007047000030B5DFF8445ADFF8444A2B8873
:104420002468C01A04EB4004002004E034F8103083
:1044300021F81030401C9042F8DB002030BDDFF83E
:104440001C3ADFF81C1A1A880968801A01EB40012F
:10445000022002F071BAF8B504460F461646DFF89E
:10446000005AF0B208B34FF6FF70ADF8000000201C
:1044700017F8011BC3B2401C0DF80310761EC1B221
:10448000022902DAF1B20029F2D1DFF8D0E9286876
:10449000BEF800301FFA84FCACEB030300F014FFFD
:1044A000641C0100DDD000F0E6BB0120F2BDF8B5D0
:1044B00004460D461646F0B288B1012200F010F80D
:1044C000641C0020C2B2401C1DF80230761EC7B228
:1044D000022F05F8013BEEDAF1B20029F2D1F1BD6D
:1044E0006946A0B296E70146DFF87809DFF8782937
:1044F000405C525CDFF8B43B595C09B102F599723B
:1045000040EAC21080B2704710B5DFF85839DFF8C2
:10451000A02B1C5C012C02D102EB400010BD32F834
:104520001000091802EB410010BD70B590B00546AF
:104530000C464FF6FF7604E0A8B2FFF780FF203D5F
:104540002035A9B28C420FD320226946A8B2FFF7CA
:1045500061FF002082B23DF81230B342ECD1401C22
:1045600081B22029F6DBEBE710B070BD38B5044608
:1045700061882088FFF7D9FF0121DFF8383BA1715E
:10458000DFF8901C228818780D88821802EB45020B
:10459000921DA28031BD10B5DFF81C4B2046FFF7FD
:1045A000E5FF04F10800FFF7E1FF04F11000FFF759
:1045B000DDFFDFF8640C04F10801446004F110022F
:1045C0008160C26010BD2DE9F0430446DFF8E40AC3
:1045D0000778B946B9F1060F85B003DD4FF437719E
:1045E00000F001FB0021A1717A1C208892B201A980
:1045F000FFF710FFBDF804104FF6FF76B14218BF69
:10460000002910D00DF10408711A38F819008842F9
:1046100009D101254D454DDA38F8150048B1BDF8EE
:104620000410884215D02046FFF7A0FF05B0BDE872
:10463000F083DFF8881C0A88208805FB02214118D6
:10464000711805FB020089B280B2FFF76EFF0220ED
:10465000A0716D1CDEE720883818C01C00F02EF811
:10466000BDF80200000B4845DDD120883818401DF8
:1046700000F024F8BDF80210BDF80200711A000A1B
:1046800001F0FF018842CED10320A07101222088D1
:104690003F187F1C6946B8B2FFF7BCFEBDF80000AA
:1046A000FF2802D10421A171C0E7B042BED000288A
:1046B000B9D1BBE7A0790228CDD1B7E701220DF12E
:1046C000020180B2A6E6F8B5DFF8EC69DFF8485BD6
:1046D000002006F1080106F11002B071B073B07548
:1046E000A960EA606E603046FFF76DFF06F10800D2
:1046F000FFF769FF06F11000FFF765FFB179B07BA6
:10470000DFF85C47042908D100220428ADF8002016
:104710004CD1FFF740FF0120F2BDB17D04282ED11E
:1047200000200429ADF80000F3D03046FFF71EFF4B
:1047300006F11000FFF71AFF2068DFF87839378993
:1047400000F081F8040047D10320B073B07903284A
:1047500051D1B07B032802D1B07D01286AD0B07955
:10476000012851D1B07B03285BD1B07D012818BF4F
:104770000328CED106F1080006F110015EE00429FD
:1047800032D10020ADF800003046FFF7EFFE06F111
:104790000800FFF7EBFE2068DFF81839378A00F0D1
:1047A00052F8040018D10320B0751DE0B07D042834
:1047B000AFD006F10800FFF7D9FE06F11000FFF7B1
:1047C000D5FE2068DFF8EC38378800F03CF80400AC
:1047D00002D10320B0710AE0204602F037F91CB183
:1047E0004FF4747100F0FFF9B0790328AED1B07BBB
:1047F0000128AED1B0E70228B1D1B07B032804BFB5
:10480000B07D012885D1B5E7032804BFB07B01281E
:10481000F8D1B07D03280BD106F1100031460836DF
:104820000CE0022812BF0128B07D0328EAD1F3E78B
:104830000228E7D1304606F1080110366860EE60C4
:10484000A9600020F2BD1C78E719DFF81046238824
:104850007F1CFF1A0122694600EB470002F0A6B850
:104860002DE9FE4F0646DFF84C08DFF8548ADFF8E2
:10487000549A0F460178ADF80810012234880C19BB
:10488000641DFFF72DFEDFF88C19BDF80000B1F8AC
:1048900000A0641C000AADF8000050451CBF0121B7
:1048A000397000251AE0401CC1B2514514D25FFA9C
:1048B00080FB39F81B10BDF806209142F3D1C0B23D
:1048C000FFF711FEBDF804304FF680721040134020
:1048D000984208BF08F80B506D1CADB2BDF800003F
:1048E000854206DA022201A9FFF7FBFDA41C002085
:1048F000DAE70020D14601E0401C80B2484517DAD3
:1049000018F800108142F7D00120387010E021F82B
:1049100015A00DE00128DFF89817F8D0BBF17F0F44
:1049200031F8150008BF4FF0000B834421F81BA09D
:10493000A1B27088C01E88424FF6FF7A28DB00F0D3
:1049400066F8BDF80200FF25504521D0601C00F03C
:10495000B9FDBDF80200BDF80610AAEB00029142B5
:1049600013D104F1030A040A00F07F0BBDF8000024
:1049700084420ADA002000E0401C484518DA18F8A2
:104980000010A142F8D1C5B212E0012038700DE04C
:10499000B4807088A1B2884208D300F038F8BDF81E
:1049A0000200641C5045F4D001213970BDE8F78F36
:1049B0003088BDF80830181800EB4400801D012233
:1049C00001A980B2FFF726FDBDF80400C0F3C710AF
:1049D000401C00EBD0700AEB60047088A1B28842E2
:1049E000D3D3FF2DA4D0DFF87C04405DBBF17F0F53
:1049F00014BF59460021814286DABDF80210DFF863
:104A0000AC26535D0906C90F994283D07CE7012289
:104A10000DF10201A0B2FDE4F8B58DF80000DFF859
:104A2000281BDFF83804DFF8EC470288DFF8880637
:104A300002800B884380DFF87C361D782188DFF800
:104A40009C3BDFF89C4BAA1802EB4102921D82802E
:104A5000002282711A880281AA1802EB410223887F
:104A6000DFF8804B4381921D828100228273DFF840
:104A7000783B1A880282AA1802EB4101891D23881B
:104A8000DFF89447818243820021817502F032F879
:104A9000002851D12070FFF716FE9DF80010084342
:104AA00018BF01208DF80000012260680388ED180E
:104AB000AD1CA11CA8B2FFF7ADFC9DF800000028BA
:104AC0003DD16068DFF8E8656946FFF7C9FEDFF8A9
:104AD000940B0588A0688179032922D16946FFF7E4
:104AE000BFFE6168DFF87C23002010E0DFF8243788
:104AF0001F88B84202DA135C012B07D136F8103058
:104B00000F88BB4224BF4F889F420AD2401CA84254
:104B1000ECDB02208871A1686068E2686160A260D5
:104B2000E06000204FF6FF7200E0401CA84206DA69
:104B300036F810109142F8D101208DF8000060780D
:104B400028B1012100208DF80010607002E09DF86E
:104B50000000B8B14D2001F079FF6088401C6080F2
:104B6000E068FFF703FD9DF8000000F051F838B150
:104B700000F085F820B19DF8000000F09FFA08B918
:104B80000120F2BD0020F2BDF8B50D46DFF8841615
:104B900017467F2F0A8808BF00271E4695423EBF52
:104BA000B04B595D8F42044604D2AF4A535D9E42DA
:104BB00000D11CB940F2646100F015F8394628466E
:104BC000FFF7A2FCDFF8281B0388485D28B11946CF
:104BD000284600F09FFC2060F1BD32462146184671
:104BE000BDE8F84063E40FF6443001F08BBF38B500
:104BF000044608461146FFF787FC984D0388DFF806
:104C0000F41A28880A681B1A02EB4302226031BD9D
:104C1000F8B5DFF80416924DDFF8A866002814BF37
:104C2000C8688868DFF88C14048808780419A41D03
:104C3000A4B2002701E0A41C7F1CDFF8D80501887E
:104C40008F4216DAF8B2FFF74EFCADF80000A3B2BF
:104C500036F81700DFF8A0CABCF800E0ADF8020093
:104C6000A3EB0E032868022200F02FFB0100E2D024
:104C700001E00120F2BD01F0E9FE0020F2BD2DE9C6
:104C8000F84FDFF89005DFF890250188744C84B068
:104C90000025ADF80810D168DFF818240E881078C8
:104CA000BDF80810861906EB4106B61DB6B200E045
:104CB0006D1CBDF80800854280F2C4804FF0000AE8
:104CC00078E0BDF802105FFA8AF00143ADF80210F7
:104CD0004FF6FF72BDF8020060490F88BDF8001062
:104CE000121AADF804204FF6FF732068F21B761CF1
:104CF000994200EB4200B6B21DD100F0BEF80100AF
:104D00002BD12068F71B012201A900EB470001F01D
:104D10004DFE010021D1B61CB6B25348DFF8DC19B4
:104D2000A8F80060425D51F825103046FFF793FB6C
:104D3000002838D18FE04C49495D491C01EBD17105
:104D40004FEAC15900F099F8010006D12068F31B21
:104D5000012201A900F0BAFA010079D1B61CB6B25D
:104D6000D249A8F80060485D002845D0DFF8A824A3
:104D700010780021039128B103AA6946A8B201F076
:104D8000BDFE05E0BDF80010E8B200F0C3FB0390E3
:104D9000F71B20684FEA196203A900EB470001F0F6
:104DA00005FE010054D1DFF85819485D8619B6B2E6
:104DB0000AF1010A2B494F5D5FFA8AF0B842BFF44D
:104DC00077AF5FFA8AF1E8B2FFF79EFB8046B749FA
:104DD000B8F80000ADF80000485DC00140EA0520C9
:104DE000012FADF802007FF46CAFBDF8020040F077
:104DF0007F00ADF802006BE74FF000085FFA88FB18
:104E0000BBEB196FCFDADFF8101408780028BDF873
:104E1000000004D100F02AF8FFF7FCFA03E000F0EC
:104E200025F801F069FE2068B344ABEB07030122CB
:104E30000DF1060100F04AFA010008BF08F101086F
:104E4000DCD005E0DFF8D003C1688E80012002E0ED
:104E500001F0FCFD00202AE300000000128A020895
:104E6000507300202C86020808860208411CADF809
:104E7000001001220DF10601704701220DF102011F
:104E800001F094BD2DE9F34F85B000218DF803109A
:104E90004FF00C09BDF81810DFF86858DFF86038DB
:104EA000DFF864685B5C298835684C0891FBF9F988
:104EB0000393A1444D4528BFDB1808D2182691FB67
:104EC000F6F1641AA54203D303EB53039BB2039399
:104ED0000025D14CADF806008DF8042000E06D1CD3
:104EE000CC4801888D4280F2CD80002686E00122E8
:104EF00002A91FFA88F0FFF78DFAA368DFF8F8E738
:104F00009B88049800689B44BEF80030ABEB030319
:104F1000012202A900F0DAF9010008F1010858D1D4
:104F20000AF1010A5FFA8AFBBBEB176FDFDB38E09F
:104F30005A5DBDF806308DF80220D318ADF8063062
:104F400001235A4A8DF80330505DC30143EA05231B
:104F5000BAF1010FADF8003040F08A80BDF80020B2
:104F600042F07F02ADF800208A88D21C8A80002897
:104F7000DFF88017049100F082804146E8B200F02B
:104F8000C9FAA368DFF870E702903A0E04989F8888
:104F9000BEF800300068FB1A02A900F097F9010082
:104FA00017D1BDF80000A368DFF848774FF6FF710E
:104FB000091AADF808100122DFF83C179B88B1F8F8
:104FC000008038689B1EA3EB080302A900F07EF95D
:104FD000010065D1A3689B883868DB1EA3EB08033A
:104FE00000F072F901005BD1A1688888A9F800007F
:104FF0008A889DF8020082188A80761CF1B2DFF858
:105000000C0710F805A05145BFF469AFE8B2FFF7EF
:105010007BFA8146DFF8F806475DBDF81800B9F85D
:1050200000807F1C07EBD777FF05854202BF9DF804
:105030000410F0B28842E0D060680188884524BF3F
:1050400040884045D9D3BDF806100398814225DA3F
:10505000DFF8AC36A16813F805C088884A88604438
:10506000C01C8242BFF664AF01216170452017E089
:10507000BDF80030F2B21343ADF8003074E74FF0E2
:10508000000A4FE79DF8030040B960680221817172
:105090006068A168E2686160A260E060012002E0EF
:1050A00001F0D4FC002007B0BDE8F08FE4850208D1
:1050B000907500206F8A02084C7400202DE9FE4F85
:1050C0005FEA0009544DDFF84C26DFF8287692F8A5
:1050D00000A014BFE868A868012201884D48008834
:1050E0000291C0F1FF0101F0FF0141EA0021ADF89A
:1050F0000210029CDFF8001638680E885444631DC5
:105100009B1B0DF1020100F0E1F801005AD140F6BD
:10511000227040EA0A30ADF80200E31C38689B1B9D
:1051200001220DF1020100F0D1F801004AD13868E6
:10513000A31C9B1B0122A91C00EB430001F036FCC1
:1051400001003FD1601CA0EB06085FEA09004FF6A2
:10515000FE7B07D0FF21ADF8021000F05FF80100E0
:1051600030D109E06868008801226946FFF752F9EA
:10517000BDF80000012802D1ADF800B002E0411EE8
:10518000ADF800104FF6FF72BDF80000121AADF82E
:105190000420A41B3868012201A900EB440001F09F
:1051A00005FC01000ED1029C5046A0F1010A80B21C
:1051B00090B11FFA8AF338681B199B1B00F084F822
:1051C0000100F1D001F042FC0020BDE8FE8FA9688B
:1051D000032088710120F8E7B9F1000FF7D0E968E2
:1051E000032088716868FFF7C1F9A868FFF7BEF966
:1051F000EA686868A968AA60A8606960E8606A608F
:105200000020ADF80200E96000F008F80100D9D1F3
:10521000E0E70000348A02081C7800200122386888
:105220000DF1020100EB480001F0C0BBFEB50446E1
:10523000DFF8CC04455CA08866882F18FF1CBE42AE
:10524000134605DADFF8D02401215170452030E003
:10525000C01CDFF8BC24A08080B2525C1946FFF766
:10526000FAF848B3DFF89004DFF888740688A3885A
:105270003868DB1E9B1B012202A900F027F8010001
:1052800017D1BDF808004FF6FF71091AADF80010EC
:105290000122A38838689B1E9E1B00F0E5F90100DF
:1052A00007D10898A1880180A0882D18A580012029
:1052B000FEBD01F0CBFB0020FEBD00000E8A0208FF
:1052C000D87600209C8502080122694600EB430045
:1052D00001F06CBB2DE9F84F84B005468946904635
:1052E0001C4601F017FDDFF8342413888DF80450B4
:1052F0000127ADF80830B8F17F0F9DF80410BDF814
:105300000800039508BF4FF000088DF80540814262
:105310003FBFDFF8F813039A8B5C984507D2DFF89C
:10532000F0138B5C9C4202D1B9F1000F03D140F61F
:10533000D901FFF758FC9DF804004146FFF7E4F857
:1053400001250646DFF8D8038179B6F800A00229C6
:105350001FBF817B0229807D022802D1432001F0FA
:1053600075FB039ADFF88813885C002833D09DF81A
:105370000400514600F0CEF8D9F80010814257D011
:10538000AAF1030000F09EF8DFF88C53DDF80CC0A2
:105390006C68DFF86C33628813F80C10A088D21E9A
:1053A000521A824207DB30B1A86801888A45A4BF3F
:1053B0004088504572DBE8688179AC68022938D1B1
:1053C000442001F043FBE8688179012931D0452070
:1053D00001F03CFB53E09DF805404FF0000B21E04D
:1053E0000BEBDB700AEB600000F044F909EB0B00FB
:1053F00019F80B10407801EB0020611E8B4507D196
:10540000BDF8001001F0FF0100F0FF00ADF8001042
:1054100080B2BDF8001088420BF1020018BF0025D1
:105420005FFA80FBA345DBDB002D8DF80540A7D09C
:105430003DE0A8688179012915D10020FFF7E8FB3C
:10544000002834D00020FFF739FE00282FD0B148C3
:10545000BDF8083000789DF8041000EB4300C01D33
:10546000424680B205E003290FD19DF80410424660
:105470000020FFF707FD10B100F01CF8B8B938465E
:10548000471EC0B2002810D111E002290CBF40F61F
:10549000C81140F6CA11FFF7A6FB08E000F00AF8B1
:1054A00028B93846471EC0B200287FF444AF05B083
:1054B000BDE8F08F0096BDF806309DF804104A460E
:1054C0002046B3E601220DF1060180B2FEF7A2BF2D
:1054D0007CB505460026192401226946A8B2FEF7CC
:1054E00099FFBDF800006D1C30B14FF47F41401AA8
:1054F00007D0FF3803D006E0B61C641EECD170B2B2
:1055000076BD761CFBE7BDF80000C0B200B9761C82
:10551000F643F4E738B50C4600217D4B009169460F
:105520001D5C2A4620466D1CFEF7C1FF05EBD575B4
:1055300004EB6504A0B2FFF7CBFF002848BFC043CF
:10554000009940B2401832BD168A0208F8B5734A75
:10555000138804467348254630F815609C4202D2F1
:105560006349485D18B940F68321FFF73CFB684961
:105570004D5D681C00EBD07006EB6007B8B2FFF71A
:10558000A7FF32281BD2BFB2DFF86CE1DFF864C19D
:1055900007EB6007C20747BF0023ADF800304FF4A8
:1055A0007F42ADF80020BEF80000DCF800303F1A62
:1055B0000122694603EB470001F0F8F960B131467A
:1055C0002046FFF7A7FF00902B46401C00907F224B
:1055D00069462046FFF77EFEF1BD00002C8A0208D6
:1055E0002E8A0208328A0208308A0208F8B5054677
:1055F00048480678344621464C1EC9B228880229FC
:1056000021DBE3B200F035F8BDF800000028F2D04D
:10561000454829880288384FE6B206FB021188B255
:10562000FEF70DFF0020ADF80000012231482D8863
:105630003B8800687619F61A00F016F801000ED0C3
:1056400001F004FA0BE0FEF7FAFE0120A871334ADC
:1056500029881088761806EB4006B61DAE80E0B2A9
:10566000F2BD0000368A0208694600EB460001F0F0
:105670009DB918180122694680B2FEF7CBBE2848B2
:105680008179022908D0817B022908BF083003D024
:10569000817D022901D11030A8E7002070477CB538
:1056A00004461C48067800250BE02088F3B2FFF77B
:1056B000E0FFBDF8000000281EBF4FF6FF718842D2
:1056C0006D1C3046461EC0B20028EED1E8B276BD51
:1056D00013488179022908D0817B022908BF08304C
:1056E00003D0817D022901D11030D8E70020704716
:1056F000E485020850730020128A02089888020884
:10570000FC8402080A8A0208F88402082C8602082F
:10571000088602086F8A02081C780020348A020872
:105720004C740020907500200E8A020873696D2D5C
:10573000656570726F6D322D696E7465726E616C25
:105740002E6300004018491C1CBFB1F1010100F894
:10575000012DF9D17047000080B5944800214160C7
:1057600041708170A52202700120FEF7DFFDFEF777
:105770000EFE00F002F8002002BD10B58F48904ADE
:105780000168904C41F080710160012010600020A0
:105790008D4901F0CBFB8D488D4B02210160002229
:1057A0008C488D491A60016001228C4B80491A6037
:1057B0000C6040F2014202654FF480308849086075
:1057C00010BD7D49086800281EBF7A490868002876
:1057D00005D07A490868000E00F0010070470020EB
:1057E0007047D12202704170090A81707D490A78A0
:1057F000C2700420521C0A7070472DE9F84FDFF880
:10580000E8818246D8F8000010F80A60042E64D3BC
:1058100001F0EFFB761DF6B2002400904FF6FF7BFF
:105820004EE0811EC9B2504600F023FC05465946A1
:1058300001F056FC83462FE0B74246DA01F0D9FB6F
:105840000099401A80B240F2F51290423DD24FF0DA
:1058500060400168012933D10027B9462046C1B212
:1058600011B95B2501201CE0012905D1D8F8000001
:1058700010F80A50022014E0441CF21E914208BFA6
:105880005D4609D0B31E994208BF4FEA1B2503D0DD
:10589000721E914202D15D25204602E0B142C0D184
:1058A0000025EDB24FEAC9018D4009F101092F43EE
:1058B0005FFA89F2042AD2D304464FF060400760B1
:1058C000FFF77FFF0028E7B2B6D14FF4C87001F0B0
:1058D000F2FAB74208BF002000D00120BDE8F28FE5
:1058E0002DE9F047314D6C78002C5CD001F081FB44
:1058F00080462146002000F09FFA0646FF28B14668
:1059000002D1002068704EE0202CB4BF274620272B
:1059100000F09AF96860AF70DFF8D0A012E0A878C4
:1059200080B9E41BE4B26C7064B1DAF8000010F8DE
:105930000990202CACBF20272746484600F084F968
:105940006860AF70687840B101F053FBA0EB0800CD
:1059500080B240F2F5118842E1D3002C04BF687890
:10596000002818D1A878B0B91F490868805D841E46
:10597000E1B2304600F035FC122808D1E1B23046E1
:1059800000F033FB3146122000F05AFF06E03046AB
:1059900000F0A4FE02E000206870A8703046BDE868
:1059A000F04700F0C6B9BDE8F0870000F07F0020A6
:1059B000800E00E034000040100004E0FCED00E048
:1059C000040004E00D00010020A10700F00004E045
:1059D000040304E0B00F00E055CEACC5000E00E0BB
:1059E00000E100E0AC7F002078730020807300208D
:1059F000704700002DE9F84305460C46904699464D
:105A000000F005F9002801BF2E46DFF81802815D7D
:105A1000012923D1DFF8100250F8267001F072FB43
:105A20000021B9803980798001F072FBDFF8FC0138
:105A300050F8267001F066FB0021B980398079802A
:105A4000DFF8EC21915501F063FB4B4642462146BD
:105A5000284601B0BDE8F04301F05EBB2120BDE85F
:105A6000F2832DE9F84389460446DFF8C011264643
:105A700051F8267000F0CBF808B1012043E0DFF8C0
:105A8000B051DFF8B081A85D68B138F816007988A8
:105A9000884208D101F036FBAC5D0021A95501F028
:105AA00037FB20462FE0204601F04CFC204601F059
:105AB0009BFCB88800281EBFDFF87C1131F8164027
:105AC000002C1FD001F01EFB798839448A7989F8AF
:105AD00000207988491C91FBF4F304FB13147C80AB
:105AE000B9884A1EBA8001F013FBA85D40B138F8AE
:105AF00016004FF6FF71884204BF3A8828F8162036
:105B0000002000E02620BDE8F28301464548425CC3
:105B1000012A09D1444A494852F8213030F811008D
:105B20009988401A80B270470020704702B5012260
:105B3000694600F00CF802BD8088404B33F8111024
:105B40008A1A904201DA01207047002070472DE93F
:105B5000F8430E46334991460A5C012A804635D106
:105B6000314951F82050364931F81040002716E0ED
:105B700001F0C8FAA98801B901276CB12A883178E7
:105B8000AA1891712988491C91FBF4F304FB1311A5
:105B90002980A988491CA98001F0BAFA761C4846D8
:105BA000A0F10109C0B260B1002241462846FFF7CA
:105BB000C3FF0028DCD117B1404601F0FCFA2220D7
:105BC00005E0404601F0F7FA002000E00120BDE8C2
:105BD000F2830CB438B504460D4601F007FB04AB64
:105BE0002A462146174800F027FC20460D490A5C4A
:105BF000012A07D10C4951F82020908810B1204685
:105C000001F0D9FA32BC00205DF80CFB7047042883
:105C100005DA0449085C401E8041C00F704701202E
:105C20007047000030850208547300206473002020
:105C30006C770020707700203C85020820850208E0
:105C400034850208FF710008DFF840170A6802EB8C
:105C500040107047DFF838271368195470472DE952
:105C6000F0415FEA000831D001F04CFADFF8242758
:105C7000DFF824171678DFF82457FF23FE2E19D1FA
:105C80000027DFF81C67DFF81CC7177034782C700A
:105C900007E07C1C0EF80740DCF800E00EF8073047
:105CA000E7B23478D1F800E0A742F2DB0EEB04064D
:105CB00006F8013C2E7846450AD201F029FA052063
:105CC000FEF76AFB00211B2001F029FDFF2020E0E8
:105CD000A6EB08062E701578DFF8CC661778D6F894
:105CE00000E001240EF80740A8F10108D1F800C037
:105CF0001CF8074014705FFA88F4002CEED1DFF82E
:105D000090260CF8073000211368595501F000FA6D
:105D10002846BDE8F08110B5044601F0F3F9DFF83C
:105D2000881609680A5D521C0A55BDE8104001F04A
:105D3000EFB9F8B5044600F031F8054601F0E2F994
:105D4000DFF85036DFF85476DFF84CC6DFF858E657
:105D500001E02C46FF25FF2C1CD022460FE0DCF88A
:105D60000010895C0026A6543C78641C3C70FF2916
:105D7000DCF800601C78B4541A70EAD00A46DEF8E9
:105D800000108C5C661E8E54DEF80040A15C11F0A1
:105D90007F0FE4D0BDE8F24001F0BAB910B5DFF8EA
:105DA00008160A68145C210605D5DFF8E02513689B
:105DB0004001185C10BDFF2010BDB0B504460D4673
:105DC000FFF7ECFFFF2818BFFFF7B3FF2846FF28B7
:105DD000DFF8D47504D13868015D01F07F0105E07A
:105DE000FFF799FF3868015D41F0800101556401BA
:105DF000DFF8980501680D55B0BD0EB430B5044606
:105E00000120FFF72CFFDFF884150A68FF2802EB5A
:105E100040110ED0DFF8782513681C5403AA002324
:105E200004E052F8045B01F8015B5B1CDDB2A542A3
:105E3000F7D330BC5DF810FB7CB504460D4605F188
:105E40001F000004400DC0B2FFF709FFFF280646FF
:105E50000DD0DFF83C0501688D553CB10120009064
:105E60002B4600223146204600F002F8304676BD2F
:105E7000F3B5054681B0DFF8180501681E469DF8A8
:105E80000830CC5C1746F019844203DA4FF4B7713E
:105E900000F0DFF830000CD0089C394602A800F072
:105EA000DCF802469DF8081000943346284600F0BE
:105EB00001F8F7BD2DE9F047089DDFF8DC64DFF855
:105EC000CCA48046894614461F460DE02900224690
:105ED00012BF414601464046FEF7ACF930683F1B11
:105EE000A04410F809900024F8B268B1DAF8000074
:105EF00000EB49131819FBB2E1182029B2BFFCB21C
:105F0000C4F12004E4B2E1E7BDE8F0872DE9FC41EB
:105F10000746DFF87C0488460168CC5D15461E46BE
:105F20002919CBB2A34206DB28000DD0C9B23846EE
:105F300000F05BF808B1182007E000962B462246D7
:105F400039464046FFF794FF0020BDE8F681012363
:105F5000DCE70A4600E0521C1378002BFBD1521AF2
:105F60000123D2B2D2E72DE9F041804601F11F04AE
:105F700002F11F00E404C004240E000E04B9012441
:105F800000B9012084422AD0DFF80C5419DA001B32
:105F9000C0B2FFF764FE0746FF2808BF00201FD0ED
:105FA000641E00F01FF82E68305CFF2804D000F05B
:105FB00019F8305CFFF7BDFE00F014F829680F54A3
:105FC0000DE08A420BD2411EC9B200F00CF8044623
:105FD0002868005DFFF7ADFE2968FF200855012005
:105FE000BDE8F081E1B2404610E070B5DFF8A06393
:105FF000336805460C46595D2246FFF7B4FF18B1D9
:1060000030684455002070BD182070BD04E0DFF8F2
:1060100088231368185C491ECAB2002AF7D170475A
:1060200031B50C46DFF868130A68155CAC4203D33F
:1060300040F2052100F00DF82146684600F00DF809
:10604000DFF848139DF800300A6802EB431108445A
:1060500032BD0FF2583000F055BD38B504460D463C
:10606000C9042078090EFFF7D1FF207005F01F004A
:1060700032BD80B5FFF7D4FF007802BD10B51446DD
:10608000FFF7CEFF047010BDF8B5DFF804530446E7
:106090002868065DFF2C03D140F22521FFF7D9FFC8
:1060A00006F11F01C904080EFFF7D9FDFF280746B6
:1060B00009D02868C655009600232246002138469C
:1060C00000F0C4F83846F2BDF8B505460E4617464E
:1060D0000120FFF7C4FDFF28044610D0DFF8AC0212
:1060E0003246066806EB44163B462021701900F044
:1060F0001FF82D18DFF8980201680D552046F2BDF3
:106100001CB504AC009400F001F816BD10B514469F
:106110001A46029B2044091BBDE81040C9B207E0A3
:106120000CB480B502AAFFF7CFFF02BC5DF80CFBF0
:106130002DE9F04781464F460024884615469A4689
:106140000CE0F6B23419444542DA32463846FEF7DE
:1061500071F8BF19641E641C6D1CE4B2444537DA43
:106160002878A8B3312818BF32280ED15AF8041B5A
:1061700007F8011B3228EED1641CE4B2A045A4BF8D
:10618000091207F8011BE6DA22E034280ED1211D9E
:106190005AF8040B88451BDB3870020A010C000E0C
:1061A0007A70B970F8703F1DE41CD4E7A0F1330396
:1061B0005AF8041B072B38BFA0F13006C1D3A0F159
:1061C0004103072B34BFA0F137065AF8046BB8E738
:1061D000A7EB0901C8B2BDE8F0876E49FE20087040
:1061E000704770B500F02DF8064600F004F800EB9B
:1061F000062080B270BD294620463AE7E0B58DF80A
:1062000004200123120A8DF8052000930A46014656
:10621000022301A8FFF72CFE07BDF8B500F011F826
:106220000602FFF7E8FF8619E91CC9B2FFF7E4FF91
:106230000702AD1CE9B2FFF7DFFFC71906EB074005
:10624000F2BD0D46691C0446C9B212E7FDB5089CB3
:1062500020000D461E461BD1F7BD4C4B9DF8040097
:106260001B6803EB4010C2F12002D2B2BA42B8BFA1
:10627000174681199DF8000003EB40133A46581960
:10628000FDF7D8FFE41B7D19BE19A0B200B9F7BD18
:10629000A9B26846FFF7E1FE0546B1B201A8FFF7D3
:1062A000DCFE0646B542A7B2B4BF32462A46D4E762
:1062B00070B504460D4600F025FF3A4A237812686F
:1062C000FF2B08BF555503D013441E7856551D703B
:1062D0002570BDE8704000F01BBF38B5044600F0E3
:1062E00011FF2178FF22FF2908BFFF2507D02D4B82
:1062F0001B685D5C8D420EBF22705A5D5A5400F0DF
:1063000007FF284632BDF8B504460D4600F0FAFEF8
:1063100021780026FF2913D0224B1B680A4601264C
:1063200003E08F420CD03A46761C9F5CAF42F8D116
:10633000DF5D9F54A94203D18A4208BFFF22227029
:1063400000F0E6FEF0B2F2BD0078FF2801D1012096
:1063500070470020704710B5044602E0FFF7E9FCE3
:106360002046FFF7BAFFFF28F8D110BD30B50D4B1E
:1063700000781C68255C954203D02846255C954230
:10638000FBD121541868425430BD000074730020C2
:10639000787300204775002080730020217500204D
:1063A00020750020847300207C7300207061636B73
:1063B00065742D6275666665722E630070B513464E
:1063C00010440BE001F00F060909451E0A2EACBF70
:1063D00037243024A41928462C705B1EDCB2002C14
:1063E000F0D1104470BDF0B5002341B1002806D5AE
:1063F0002D2313700123B0F1004F18BF404200213C
:106400000024894D55F82470002601E0C01B761C3D
:10641000B842FBD2F7B20FB90F0004D0D9B2303670
:1064200056545B1C0121641C092CEBDBD9B23030C3
:1064300050545B1CD8B2F0BD2DE9F84F80468AB0AD
:1064400006A8894615469B4602AF4FF0000A002475
:1064500001901EE0012405460DE03429FAD15BF8D5
:10646000046B0422310C3846FFF7A8FF0422B1B2B6
:10647000FFF7A4FF074601998F4209D39DF800005A
:106480003F1A00F0C5F8002853D1FFB2BA4402AF5A
:106490006D1C02A88DF800009DF800002978381ABC
:1064A00000290BD0252903D014B907F8011BE2E716
:1064B000002C14BF00246D1C29780A0000F09B807A
:1064C000B1F1250216D00B3A092A40F28380283A0E
:1064D0007AD00A3A12D0521E42D0521E5CD0083AEC
:1064E0005AD0121F3FD0D21E3DD0921E54D0D21E81
:1064F0006AD0C0E7252007F8010BBCE702A8DBF84B
:106500000010DBF804208DF800000BF1080B384672
:10651000099108920027089A9742ABD20999C95D60
:106520000222FFF74BFF0199884206D300F074F86E
:10653000002869D1F6B2B24402A80899491E8F42D8
:106540003CBF202200F8012B0199884206D300F0BD
:1065500063F8002858D1F6B2B24402A87F1CDAE7EB
:106560005BF8040BC7E75BF8046B074600F050F8D4
:10657000002849D1FFB2BA4402AF0022314600E000
:10658000521CD6B2885D0028FAD1D2B24846C04724
:10659000002839D1B2446EE76C290AD16A785BF8D9
:1065A000040B752A0EBF00210121642A07D16D1C3E
:1065B00005E075295BF8040B0CBF002101213A4668
:1065C000FFF711FF074456E75BF8041B0222C9B22C
:1065D00038464DE768780124782818BF5828F2D14A
:1065E0006D1C0024681E32297FF437AF5BF8040B62
:1065F00081B20422ECE70546EAB200F00AF818B9C5
:10660000AA445FFA8AF000E000200BB0BDE8F08FEA
:10661000FAB202A9484640479DF80020861AF2B215
:1066200002A94846404700004489020870B5FFF7B8
:10663000DFF9AA4C2046FFF787FED8B92046FFF7BE
:106640004CFEFF28044615D0A5480168085D851E4C
:10665000E9B22046FFF7C5FD0646E9B22046FFF73E
:10666000C4FC2146304600F0EBF82046BDE87040FF
:10667000FFF75FBB70BD03460A4697A10420FFE702
:106680000CB480B502AA00F034F801BC5DF80CFB34
:1066900080B586B001F0C6F9A02204920021914A8B
:1066A0000092672305910393029101910246002312
:1066B00090A10120FFF7E4FF8B488179028843799C
:1066C0000391029201930179C3788278009142206C
:1066D0008BA1FFF7D5FF07B000BD000010B5044641
:1066E00021467E48FFF7E4FD2046BDE81040FFF755
:1066F00012BB2DE9F04F85B005460F469046FDF7D9
:106700005AFE0024F0B9FFF75CF8D8B10120FFF77A
:10671000A6FAFF28824615D00021FFF79BFA2946EA
:1067200001A8FFF75EF8054687BB00F083F830B993
:106730005046FFF762F810B10420FDF72DFE5046D9
:10674000FFF7F7FA05B0BDE8F08F8DF804100125CA
:106750001BE0634858F8046B006810F80A90F2B226
:10676000FF2A12D0F1B210F801B00BEB0901C9B247
:106770005046FFF73AFC0028E1D1CDF800B00023E5
:10678000F2B249465046FFF761FD7F1C3878002879
:10679000CBD0A0F130010A2904D20A2101FB040464
:1067A000303CF2E700F046F80028C8D139780025DF
:1067B000422901A80ED044291AD0462925D05729AC
:1067C0000DD06229C5D066292AD06C2925D0702920
:1067D00026D0BAE758F8040B8DF80400B7E758F84C
:1067E000041B8DF8041002250904090E4170CCE742
:1067F00058F8041B8DF804100B0A0A0C090E43709C
:1068000082708DF807100425BFE758F8041B504626
:10681000FFF79FFB0028B8D091E758F8044BB4E786
:1068200058F8041BE2B25046FFF791FB002808BF5E
:106830000024F0E72A4601A95046FFF788BB000074
:106840002DE9F043122885B080460D4609D03A283C
:106850001CD04FF6FE71884204BF284600F0EDF8C8
:1068600032E01F48214E01684F5DFF2D2CD0F8B259
:106870002128B4BF3C4620242846FFF7E5F9E1B2C1
:1068800000F0D7FC3068455D203FEEE701F05AF993
:10689000814601F0D6FD064602F0CCF8074602F02C
:1068A000C6F8044601F0C5FD11490B6816A1CDF8E4
:1068B000109002460B48039058880290019600976A
:1068C00023463B20FFF7DCFE2946404605B0BDE8E5
:1068D000F043FDF791BD00005746000046750020CB
:1068E00078730020707B0020188A020880730020D3
:1068F0007078002042423870424242425742420081
:106900004242424257420000574242575738704273
:10691000000000004048018A40F6A772914204BF7F
:10692000408A10F47F4F03D1022801DB0120704719
:1069300000207047000000002DE9F84F834689468B
:10694000364EDFF8D08000F0DDFB37680546306852
:1069500040084000306002F057F95FF0010088F80D
:106960000000FFF7D7FF20B940F20F112CA000F074
:10697000C9F82948D0F828A049464BF48070D04780
:106980000446376002F040F9284600F0C1FB0020C1
:1069900088F8000024A50CB1285D04E049464BF4BA
:1069A0000070D047285CBDE8F28F00002DE9F84F59
:1069B00081468A464FEA4208184D00F0A3FB2E6834
:1069C0000746286840084000286002F01DF9FFF7DC
:1069D000A1FF20B94FF4AA7111A000F093F80E485E
:1069E000D0F824B00023424651464846D8470446D2
:1069F0002E6002F009F9384600F08AFB0AA70CB1B4
:106A0000385D05E04346002251464846D847385C89
:106A1000BDE8F28FBD7F00200000080894ED00E083
:106A2000666C6173682E6300000202024B4B46479E
:106A300070470020704700207047704701987047EA
:106A4000704770477047702002F002B970B5044675
:106A500043381F4D08D0401E012809D9801E012847
:106A60000ED9C01F32D02AE0BDE87040FEF707BE45
:106A7000FEF72EFE20B1FEF702FE0028FBD170BD0E
:106A8000144E307810BB01213170FDF781FB442C8E
:106A900012D00CD3462C05D00ED3472C07D140F68C
:106AA000010001E040F6020002F0D2FB04E04FF4E6
:106AB0009071284600F026F80020307070BD2846FE
:106AC000BDE870404FF4997100F01CB870BD000033
:106AD000B8890208B27F002070470020704700206C
:106AE00070470120704701207047002070477047B1
:106AF00001F05BBF00207047012070477047000025
:106B000042DE704738B504460D4600F003F900F048
:106B1000F9FA29462046FFF7AEFD2B4622466E497C
:106B20000120FFF756F829462046BDE83440E7E744
:106B30006A482DE9F8436A4E0168B1654FF4206850
:106B4000026A6849F2650B683366416A7166826A57
:106B5000B266C16AF166026B3267806B96F83810D4
:106B6000706748074CBF346CF46B02F005FC0022E0
:106B7000326584425C4B014624BFA3F12007A74243
:106B8000A146716506F18C02DFF860C1DFF860E1B3
:106B900018D3A0697064E469B464B56DC5F30805E1
:106BA000062D13D1704511D360450FD200884DF6E4
:106BB0004264A0420AD17068B4685060946040F2A8
:106BC000017803E000247464B4648146494881423A
:106BD00002D2014600E0091D0846984203D20C6823
:106BE000B4F1CD3FF7D04449081AF06400210020E9
:106BF00006F17804C5B2401CC7B244F82510062F30
:106C0000F8D3002099452BD253F8041D7145F9D3D0
:106C10006145F7D2CC07F5D5002406F1780555F883
:106C200024708F4202D0641C062CF8D3062CE9D1C4
:106C3000C4B2002C0CBF0520401E06F17804C5B27A
:106C400044F82510DEE7B16F002306F1780506EB66
:106C50008304E46F45F823405B1C042BF7D91160D3
:106C60000146481EC9B20029EDD1B06DC0F308003D
:106C700002280AD0032815D0042816D0052817D0DA
:106C8000062818D00C281CD01EE01C48026891076A
:106C900048BF40F602181CD40068C10719D540F25D
:106CA000025816E040F6012813E040F6022810E0F2
:106CB00040F603280DE0B8F5206F0AD140F604280D
:106CC00007E040F6052804E018B1242838BF40F654
:106CD00007284046BDE8F2835C85020804ED00E029
:106CE0000000002000E300E050730020AC840208A4
:106CF0009041000898000020507300201CA0004024
:106D000002F021BC2348012181604EF6BE22426080
:106D1000016070472049012008607047A52805D10F
:106D20001C484DF6AD61416002220260704719486F
:106D3000016811F0010018BF0120704780B51749A4
:106D400010200860BFF34F8FBFF36F8F144A1549AF
:106D50001078154A60B1032807BF00201060012396
:106D6000136040F651000860002000F0B3F806E020
:106D7000022313604FF40060086002F0A7FB0B4889
:106D800007210160012202641020094908600020E7
:106D900002BD0000006000400860004080E100E0AB
:106DA000A67F00200C6000400800004014A00040B6
:106DB00000E100E070477047002010B502F08BFD45
:106DC00040F68C2188426A4C04DA206840F00800C2
:106DD000206010BD216821F00801216010BD38B588
:106DE000644D2988044600F061F89DF800109DF874
:106DF0000100FF2902BFFF2804200021220018BF44
:106E0000801CC2B2082A5C4A136823F46073A8BFCE
:106E10000720C0B243EAC013136008291068A8BF56
:106E20000721C00841EAC001116054490C7031BD0E
:106E300080B55348018800F039F8BDF800004FF6DE
:106E4000FF71884204D14FF4E162ADF8002004E004
:106E50000A2190FBF1F1ADF80010484A107810B308
:106E60004448018802237F220DF1020002F076FDE2
:106E70009DF80300BDF80030FF2808BF0420811CE6
:106E8000C9B20829A8BF0721C1F12F0202EBD272B3
:106E9000C0F12F00521000FB0320C1F12F01B0FB05
:106EA000F1F0ADF80000BDF8000002BD02237F2222
:106EB000684602F053BD33490A68032809D34B6D75
:106EC00043F001034B650B689B1AC3F31303834222
:106ED000F9D3704710B5040004D110BD4FF47A7097
:106EE000FFF7E9FF2046441E80B20028F6D110BD0E
:106EF0002549087868B9C878072818BF092814D028
:106F0000032818BF112810D013281CBF15280B28E0
:106F10000BD01E48016841F480720260C80504D499
:106F20005FF038011DA0FFF7EDBD704720B10128CB
:106F300009D0032818D019E0154800291ABF1722D4
:106F40000260016010E039B1124800EB5100B0FB63
:106F5000F1F0B0F1011F01D3202070470E4900F07D
:106F600001024A60400808600020704721207047F5
:106F700000BC00403E8A020818000040BE7F00208E
:106F8000408A020838200040960708083840004030
:106F9000100004E000366E0168C800407573625F3F
:106FA0006572726F722E6300010007D4012200F037
:106FB0001F01434B8A40400943F8202070470100DD
:106FC0000BD4012200F01F013E4B8A40400943F8D8
:106FD0002020BFF34F8FBFF36F8F70473A4801688F
:106FE000CA0705D539490B685B1C0B60012101609C
:106FF000704780B500F008F880B202BD80B500F09F
:1070000003F80002000C02BD38B500F07BF83049EF
:107010000C684D6800F07CF845EA044032BD10B5BC
:10702000294C206810F0060F06D000F057F8062013
:10703000284A206001211170BDE81040CEE72DE9FB
:10704000F84304460025206810B902F0EDFC33E057
:1070500000F058F881460420FFF7B1FF20681D4E6C
:10706000194F10F1010F1CBF401C2060FFF7CCFF2F
:10707000216880461848414489B241600221226853
:107080004244120C02603570396039640420FFF705
:107090008BFF484600F03CF8012002F0E4FF01219C
:1070A0003964307838B9FFF7AFFF2168081A4044D7
:1070B0008525206000E025602846BDE8F2830000B9
:1070C00000E100E080E100E014A000402C78002006
:1070D00010600040BC7F0020186000407047000036
:1070E0000A0A42EA01225040C0F30311484080EAF4
:1070F000003041010206C9B2D20E41EA02214840E5
:1071000080B27047EFF31180602181F311887047DE
:1071100080F311887047000038B5012814461D46D9
:1071200047D113293CBFDFF86803415C0A0964209A
:10713000424301F00F010A2904D802FA01F107E0E5
:107140000A2042430846411EC0B20A28F8D8114618
:107150000120FFF7EBFE01002CD1280907280CBF06
:1071600000200220012C08BF40F0180003D0022CA0
:1071700008BF40F0080005F00F05012DDFF81413DB
:1071800088BF40F0040088604FF6FF72012008605D
:10719000DFF80403016C41F4C04141F009010164CE
:1071A00002602020DFF8F412086000F044F90020AB
:1071B00032BD212032BD012800D0704710B5DFF864
:1071C000D4020168012910D1FFF79CFF0446DFF8C3
:1071D000D002016841F006010160012000F0CBF807
:1071E0002046BDE81040FFF793BF10BD012805D130
:1071F000DFF8AC02016821F006010160704710B5AC
:10720000012802BFDFF89C028369012B07D02120EF
:1072100010BDC3685C07FCD511F8013B0360134641
:107220005A1EDBB2002BF4D1C2685306FCD50020F5
:1072300010BD70472DE9F84F9C49DFF874A2DFF8C4
:1072400074B29D4FDFF87482964C814651F82950F4
:107250008DF8000067E0E068216810F03800C9B2DE
:107260001ED1A88838F81920521E904220DA9DF8C5
:10727000000001280BD1112918BF132945D02888F7
:10728000281881712888798800F052F83DE0288814
:1072900028188171288837F8191000F049F842E061
:1072A000010709D4C2060DD524260021132006E0CB
:1072B00023260021122002E027260021142000F0BE
:1072C0002EFA03E080064CBF2526012677491BF8DD
:1072D000090051F8291028B909882AF819100BF863
:1072E00009600EE03AF8190008800BF809604A8836
:1072F000088890422FBF801A38F819309A1A8018DF
:1073000088809DF8000001280DD1A88824280ADB78
:107310006B4991F90000002805D46A4813210170D7
:107320000120FFF748FFE068810794D4BDE8F18FA2
:10733000401C90FBF1F201FB12002880A888401C41
:10734000A880704770475E4890F90010032901D16A
:10735000012070470020704701280AD15248C168B7
:10736000012904D10068800900F001007047002065
:10737000704701207047F8B505465448514F50F802
:1073800025603878474C48B3E1684A0726D513286A
:1073900020604B4907D14FF0FF320A7000211720BF
:1073A00000F0BDF906E091F9000002004CBF012099
:1073B000401C08700020387010E0718831448879D2
:1073C00043492060708831F81510401C90FBF1F2A1
:1073D00001FB12007080B088411EB180B08810B1EE
:1073E000E0684107E9D4F1BD012800D07047F8B545
:1073F0002E48354E41688C88FFF700FE054604B1E3
:107400003570FFF77FFE07462D4890F9001011F107
:10741000010F01D1082C07DD44B930782D1AEDB2E7
:10742000082D03DB032901DA00F005F83846BDE832
:10743000F240FFF76DBE80B522480178132904D1D0
:1074400000221F4902700A7004E01122027001201C
:10745000FFF7B1FEFFF7D2FD1B49087001BD38B53B
:107460000D4D0FE046F229710C422C6003D0A1B201
:107470000120FFF7DFFE41F6D6010C421CBF0120C0
:10748000FFF779FF2C68286C0440EBD131BD000078
:107490003089020854C8004008A8004000E100E01C
:1074A00048A800403CC8004048C800406473002021
:1074B000707700206C7700203C8502082885020840
:1074C000A97F0020AA7F0020AB7F002054730020FA
:1074D0003485020838B58048804C006820606060C0
:1074E00048220021FCF7EDFE7D4A216810780870E3
:1074F0004FF6FF71206800224180027323685A739F
:107500000B222068827303232268D3734FF6FE7325
:1075100020680382418202F0BFFD2168087602F0F4
:10752000BBFD2168487602F0B7FD21686D4B887677
:107530006D4821680278CA766C4920680A6840F86C
:10754000282F1D7805716A4822680168116331BDD2
:1075500010B501F06CFA614C6168897B884203D0F8
:10756000084601F05CFA50B901F064FA616891F9DB
:107570000F10884205D0084601F060FA08B10120DA
:1075800010BD6068008A00F057FF6068408A00F014
:107590005BFF6068017B01290CBF0120002000F027
:1075A00032FF002010BD10B5524C0020207003F0B7
:1075B0003EFA20B92046BDE8104003F08FBA72E0D1
:1075C00080B5002000F015F828B1002000F005F883
:1075D00008B1002002BDFF2002BD40480168487B81
:1075E00002281CBF1128432801D101207047002028
:1075F00070473A480168087B01281CBF022803280D
:1076000001D1012070470020704700207047702092
:107610007047002070473849087070477047002055
:107620007047012070477047002070470020704766
:10763000704770470020704780B50020FFF7CDFFEE
:1076400020B10020FFF7D5FF00B1012002BD80B5B9
:107650000020FFF7C2FF08B1002002BDFF2002BDDD
:1076600080B50020FFF7B9FF30B11C4801680A7BE4
:10767000032A01DA002002BDFF2002BD10B504007C
:1076800000F0058040F27D1158A0FFF73BFA1A493F
:10769000087808B9702010BD0F49104B0A684820BF
:1076A000444310195860BDE8104051E70B48416849
:1076B000088A704709484168488A7047074909683D
:1076C0004A690260C97E017170470449096802680D
:1076D0004A610079C8767047B07300207078002046
:1076E000A17F00202975002037750020B473002089
:1076F000B873002060780020487500207047002093
:1077000070470020704702F04CBF7047002818BF38
:1077100003F006BB704703F0ACBD03F0D4BE82B0EB
:107720008DF80010DDE9002311461A4602B003F07F
:1077300035BF33B585B005468DF8042000F094F9C7
:107740000446284600F0A0F97CB10028BDF81800D6
:107750000FD100F073FA8DF80000FF2804BF00215C
:107760008DF80010CDF808D016E0A8B106A8029058
:1077700012E000F063FA8DF80000FF2804BF00213A
:107780008DF800109DF80000BDF818108DF80C0061
:1077900003AAADF80E100292DDE901010A46014686
:1077A000284603F0FBFE07B030BD000073B582B081
:1077B0000446154600F058F90646204600F064F9E4
:1077C0002EB120B903A98DF80050019105E04FF4C6
:1077D000057100BF05A0FFF795F9DDE900010A4634
:1077E0000146204603F0DAFE7FBD0000656D62654C
:1077F000722D6D756C74692D6E6574776F726B2D5B
:10780000737475622E63000070B503F091FFEFF39F
:107810000880001F77494FF0CD3201E040F804297D
:107820008842FBD201F04AFD03F0D6FF724A73484A
:1078300092B20021FCF745FD012001F0B3FE0020CB
:10784000FFF7CDFA6E4C206840F008002060FFF78B
:1078500059FAFFF7B1FA00F020F80D8805604E885C
:10786000466088881060CD8855600889186049890D
:10787000596000F05CF8206820F01000206004F0EF
:107880001CF801F025FFFFF73BFABDE87040FFF759
:1078900055BA40F2016001F0DBBC5F495A480A78F2
:1078A000C2604B78594AD360594B8978D9605B499B
:1078B0007047F0B50F249E0004FA06F615683042B2
:1078C00015D00026F7B207EB830C20FA0CF7FF0760
:1078D00009D5B7009C4604FA07F731F81CE0BD4310
:1078E00007EA0E073D43761CF7B2042FEAD3156072
:1078F000F0BDF0B5FF26DC00A6401568304214D07C
:1079000000260124F7B207EBC30C20FA0CF7FF079F
:1079100007D504FA06F711F803C0BD4307EA0C07C0
:107920003D43761CF7B2082FECD31560F0BD2DE96E
:10793000F84300210A2004F001F804F09CF8384CC8
:107940002068B0B100262F4FDFF8BC9000F037F868
:10795000761CF0B20328F9D3DFF8B88000270026A0
:1079600000F03CF800F034F8761C7F1CF0B20328DD
:10797000F6D3BDE8F1832DE9F84300210B2003F095
:10798000DDFF04F085F8264C2068B0B10026224FB8
:10799000DFF8749000F013F8761CF0B20328F9D3E6
:1079A000DFF878800027002600F018F800F010F8C3
:1079B000761C7F1CF0B20328F6D3BDE8F1833006B5
:1079C00009EBD03000F10C022068F3B2394690E7A1
:1079D0007F1C2068FBB22A1D41466AE7300609EB8E
:1079E000D0352068FBB22A46414662E7032004F006
:1079F00011B90000F0690020A019000098000020D3
:107A000000BC00400474002000B0004000B2004000
:107A100000B40040F8730020F4730020E8730020E5
:107A20000874002010B503F0C3FE044603F0C4FE42
:107A3000C0B220B9012C0BD144F0800010BD072C3E
:107A4000FAD8DFE804F005040709090B0D0FF3E786
:107A5000002010BD092010BD022010BD032010BD64
:107A60000B2010BD062010BD20B5002178A2CBB29E
:107A7000D35C834205D0491CCDB2082DF7D300203A
:107A800020BD012020BD000020B5002172A2CBB294
:107A9000D35C834205D0491CCDB2082DF7D300201A
:107AA00020BD012020BD67480168488870476548AF
:107AB0000168081D704763480168C87E70476149C6
:107AC0000A68D076704738B55E4C5F4D21684873C0
:107AD00002285E4915D12068027B042A1CBF084693
:107AE00002F0FCFF2068007B03281EBF0428284604
:107AF00002F0F4FF20684169C80054BF9024BC2400
:107B000010E000200870287004F0A5F82068007BC1
:107B1000032818BF042802D104F0AFF801E004F0F4
:107B20000AFC9124204604F05DFC50B92346132240
:107B300043A10320FCF737FC2046BDE83240FFF7A5
:107B4000ECBD31BD3F480168487B00F00F00704735
:107B50003C4801684A7B02F00F02022A01D1012051
:107B600070470020704738B50446FFF7F1FF354DE8
:107B700028B92868417B032901D0932032BD05F044
:107B80003FFB20812868C17BA1722868817BE1725C
:107B9000204606F0EFFD0020207304F1140104F1EB
:107BA000100006F097FEE081002032BD70B5254D33
:107BB0002E680C46FFF7CCFF20B9707B032801D05C
:107BC000932070BDF07B2070002161702A68907B4B
:107BD000A070002070BD10B5002300E05B1CDCB27B
:107BE0008C4205D210F8014B9442F7D0002010BD12
:107BF000012010BD082106F0E1BF12480168487B52
:107C000001281CBF3128332801D1012070470020F2
:107C1000704710B5044600F011FF010002D1094978
:107C20000A68D47310BD0748016891F90F007047C6
:107C300004480168887B7047012070470020704726
:107C40004242000070780020047E0020F879002075
:107C50000001020304051D200203040508090A0BA4
:107C6000DFF80419087848B1DFF800090179012923
:107C700004BF4079042801D10120704700207047DB
:107C80000FF694114008085C7047010604D50246BF
:107C90004FF6F83000EAC2007047491C800189B2F3
:107CA000B0FBF1F080B2B0F5807F2CBF0020C0F1B6
:107CB000FF00C0B2704738B5DFF8B818C87801289F
:107CC00001D1002032BDDFF8B848607868B1E578AE
:107CD0000879451920798542A8BF054602F0DCF9EC
:107CE000012202FA05F5691E084061790818C0B240
:107CF00032BD2DE9F047C207044605D54FF4D971CE
:107D00000FF60410FEF7FEFEDFF87858286DC10765
:107D100048BF8C2000F19480DFF85828DFF86068B5
:107D200051780020107049B9307838B16078A96F67
:107D3000400900F0010041F0010103E0A96F49088A
:107D400000204900A9675071DFF820787078B97970
:107D5000DFF83488DFF8349898B1002313710129D3
:107D6000286D40F00400286507D14FF6FF70C9F870
:107D700000004FF40071C8F80010FFF79CFF824626
:107D80000CE0286D20F00400012928654FF0000A5E
:107D900004D100F084FA6420FFF78DF8A86F20F07A
:107DA0000800A8671421E964C5F848A0707830B1CC
:107DB000B879002801BFA86C00280121A964B07916
:107DC0000028286D14BF40F0080020F00800286546
:107DD000FFF746FF28B1D9F8400040F00800C9F885
:107DE0004000202028626C602C60042168687F308D
:107DF000686029624FF4E064DFF89407046006E0ED
:107E000006F0E6FE18B101F00FFEFFF77BF9DFF890
:107E10008407016801F003010329F1D0C8F800408C
:107E2000286D40F001002865707810B900212520E8
:107E300003E0B87918B90021232003F07FFD00206A
:107E4000BDE8F087DFF85007DFF85027DFF850373C
:107E5000002141608160016821F0020101604FF062
:107E600000701060012119707047332800D27047EC
:107E700010B5B0F5002F0CD2DFF824470021217097
:107E800001F0F8FA02E0012002F095F820780028CD
:107E9000F9D010BD2DE9F84FDFF8F086DFF8D47681
:107EA000D8F80010D8F84000DFF8D86608401FFA6C
:107EB00080FAC8F800A07878002840F001815FEAD5
:107EC000CA70DFF8E046DFF8B89651D53568306CF7
:107ED000716C41EA0041B96099F8000000283ED079
:107EE000687882063BD501233B700021282003F0EF
:107EF00025FDFFF7B5FE00283AD01920FEF7DBFF7D
:107F0000DFF8A4B64FF44040CBF82800DBF80010AF
:107F10000091E06E40F40050E066E06E40F4805066
:107F2000E0662978B8684901B8310D1807F027F9DB
:107F30002D1AC5F31300FFF798FFE06E800980014A
:107F4000E066E16EBDF800000143E16648F2607052
:107F50000021CBF82810E066F988216008E00021B4
:107F60002B2003F0EBFCB9680022002007F0D3FAC5
:107F70005FEA0A610ED5387830B1002139700022ED
:107F8000B968402007F0C7FAD8F83C0020F48050C8
:107F9000C8F83C005FEA4A610CD5787850B9797925
:107FA000272003F0CBFC07F0EAF8014600228920E5
:107FB00007F0B1FA5FEACA606BD5DFF8B0552879EF
:107FC000012804BFA879012828D10021232003F02B
:107FD000B5FCFFF7D0FC306F40F0010030670021A6
:107FE000A9714FF0000A06F0FBFD0A20FEF763FFBF
:107FF0004FF6FF70DFF89025C8F800004FF4E061FD
:1080000011600923B3660120B064B16F41F008012B
:10801000B167306D40F0010030653AE03879401CBE
:108020003871C0B299F80210884225D2FFF743FE9A
:108030008346BBF101018941C90F242003F07EFC76
:108040002879012802D100F0FDF803E00021232067
:1080500003F074FCB06F20F00800B0671421B16623
:10806000C6F848B04FF40070DFF81C150860326D98
:1080700042F0010232650CE0787850B97979262017
:1080800003F05CFC07F07BF8014600228D2007F02E
:1080900042FA5FEA0A7013D5FFF7E2FD48B12068A3
:1080A000F88001212160D8F8400020F00800C8F8CD
:1080B000400099F8010018B10021252003F03EFC92
:1080C0005FEA8A600ED520213162787850B97979DB
:1080D000272003F033FC07F052F8014600228820E5
:1080E00007F019FA787840B11AF4407F05D10021E1
:1080F0002B2003F023FC0120B870BDE8F18FDFF8DE
:10810000B00400887047DFF8681420B1086840F4B4
:108110004040086070470A6822F440420A60704795
:108120007CB5054600F047FCDFF88804DFF84844DA
:10813000DFF83864002101601522E2600921016541
:108140001F22426001210166DFF86404008800F00C
:10815000B2FA06F06BFD07F0E1FB00F03DF9308963
:10816000606171892161FEF7CDFF616841F04001D6
:108170006160FEF7CDFF707800F0F9F8B07800F09C
:108180000DF9DFF83404007800F03DF9DFF82C0435
:1081900090F9000000F052FC307800F0AAF996F94E
:1081A000030000F0B5F9DFF81804018800F0D1F9F8
:1081B000BDF80000C105DFF80C1448BF00200870AE
:1081C000DFF80404007800F0FDFB28B14FF485616E
:1081D0000FF23440FEF796FC012D09D12068C1074B
:1081E00015D500F02FF800212C2003F0A7FB0EE09E
:1081F0006DB92068C1070AD4FFF7BDFB206840F0C5
:1082000001002060C820FEF756FE0020B071F1206A
:10821000DFF87853286440F2F911E96303F08CFB2E
:10822000FFF771FF06F0DCFC2068C10707D54FF6A9
:10823000FF70DFF8541328604FF4E0620A6001F029
:1082400084FA73BD70B5DFF88453DFF820432E68DD
:10825000A079012822D0FEF755FFB6B2DFF830230F
:108260002E604FF4E0611160DFF840130B6A5B0889
:108270005B000B620A68520852000A600B6843F008
:1082800002030B604A6A42F001024A620121A171B5
:10829000FEF73EFFBDE87040FFF749BB70BD70B50B
:1082A000DFF8C852A87950B3FFF765FBFEF72AFF45
:1082B0000446DFF81C13DFF8C462012008600021C7
:1082C000306D40F001003065A97106F089FC202076
:1082D0003060316B41F002013163F06D40F0080015
:1082E000F0652046FEF714FF0A20FEF7E4FDA749DB
:1082F000A54B4FF6FF7008604FF4E0621A6070BD46
:108300009A488079704799480179012900D07047CF
:1083100080B5FFF797FFBDE8044000212C2003F053
:108320000DBB92480079704780B5022801DB01201F
:1083300002BD8E4908718979884209D010B9FFF7CA
:10834000AEFF05E0FFF77EFF00212C2003F0F6FAD8
:10835000002002BD9F480068800200149A3801B2D4
:1083600011F1800FB8BF6FF07F0040B2704710B5B9
:108370000446FEF7C7FE98490A68002C04D042F074
:1083800012020A60012103E022F012020A600021B9
:10839000764A517049E075484078704738B50446D0
:1083A000FEF7B0FE054607F03AF858B921008A48B2
:1083B00004D0026842F08002026003E0016821F00C
:1083C00080010160694884702846BDE83240FEF7AC
:1083D0009FBE664880787047804A537810788049FD
:1083E00000EB03230B609078D37800EB03234B6002
:1083F0001079537900EB03238B609079D37900EBEC
:108400000323CB60704710B50446FEF77BFE2200C5
:10841000714904D00B6843F020030B6003E00A6845
:1084200022F020020A6064490C70BDE81040FEF79B
:108430006FBE4E48008970474C496A4A08811060F7
:1084400070474A48408970474849674A48811060E8
:1084500070476648007870475448816A41F00201CD
:108460008162012202607047504800210160826AE7
:1084700022F0020282625020FEF71DBD10B55C485A
:108480005C4902690A800124C3695B4A4B80D36C52
:108490008B800021016145498B6A43F002038B62A6
:1084A0000C60C4610023436203624CF25D03D36439
:1084B00048F20203116841F4004111604FF4004298
:1084C0000260036010BD80B5FFF7CEFF48484FF44F
:1084D000004101600022484902600B68454A23F4CC
:1084E00000430B609388CB64118801615288C2619C
:1084F00001BD0200204904D00B6843F002030B6069
:1085000003E00A6822F002020A6018490870704706
:1085100038B57F2804460AD1384C218800F019F874
:10852000BDF80000C10554BF04466FF04A04FEF7D1
:10853000E9FD054606F073FF28B960B29A30800560
:108540002F49000C08600948C4702846FEF7E0FD7A
:1085500031BD02237F22684601F000BA034890F93A
:108560000300704700000000D67F00200275002045
:1085700040A00040C87A0020802000403020004009
:10858000B87400201020004000E100E004A000408A
:1085900080E100E0A820004010E000E004ED00E0F1
:1085A000D77F002064100040E410004060200040AD
:1085B000747400205C100040D57F00206874002097
:1085C0005E8A0208C47F0020497500201C1000400C
:1085D000281000400C10004084200040707B0020D8
:1085E00098200040942000409020004068750020B2
:1085F000181000407C7F0020C0100040628A0208F2
:1086000054100040704700007068792D636F6D6DE5
:108610006F6E2E6300000000FEF7C801DFF8003522
:1086200033F81000024022FA01F07047F0B50FF263
:10863000B054DFF8F03434F81050DFF8E4449D60B3
:10864000114034F8105095432943D96002261E602A
:1086500000271F6024F8101058680028FCD1F0BDD6
:10866000DFF8C434DFF8C4141878DFF8C42408B184
:1086700050780FE0125612F1090F02DA30230B6026
:108680007047C86D38B1C86D40F24A32B2FBF0F0A5
:1086900080B2C01E08607047E0B5DFF8980401881A
:1086A0000A2300F068F8BDF806104FF6FF720D209F
:1086B000FFF7BCFF07BDF8B5B0F5004F0546DFF882
:1086C00070641AD1DFF870442188022300F053F857
:1086D000BDF80000000AFF2801D0010000D11820D9
:1086E0007070BDF800000006C00E10281CBF001DF1
:1086F00000F0A4F9BDF80050ED43DFF82C44607899
:1087000010B10021617006E0B189A8B24140CA07EA
:1087100044BF01206070A8B2C0F34007DFF81C041A
:10872000B58105F00106016841F400410160314660
:108730000FF2D14010F8111009074FF44052090C04
:108740000220FFF773FF304607F0F4F82D064022B1
:10875000B9010B20AD0EFFF769FF05F001053D43A0
:108760002570FFF77DFF607818B1FFF795FF0020B7
:1087700060700020F2BD7F22684601F0EFB806F07D
:1087800000BE2DE9F84FDFF8BC53287886B0A0F181
:108790000B0104900391CAB204230E21684603F032
:1087A000E5F99DF90000DFF8A0130A788DF80800BC
:1087B000012A9DF801008DF807009DF902008DF84F
:1087C00006009DF803008DF8050004D16878441E6A
:1087D000A441E40F00E0012406F0D7FD80469DF996
:1087E0000200039EDFF8589308F10A07A8F10A0B6C
:1087F000B842B6BF83454FF0010A4FF0000A01208E
:1088000000FA06F69DF80100010603D4B9F802202B
:10881000324201D04FF0010A07F000F99DF8030041
:10882000010609D4B9F80420324205D19DF90000AF
:10883000B842B8BF834502DB4FF0010B01E04FF0B7
:10884000000B4AEA04005BEA000000F09F80BF488A
:10885000BF4F0168BF48490801F001018DF80410BD
:10886000016801F4E06105914FF4E060BA490860E5
:108870000020FFF73EFE00F068FF9CB1687848B129
:1088800000F08FF849084900016001201070FEF7E0
:1088900012FB07E0386840F400503860396821F472
:1088A00080513960A848017801290FD1002C1ABFE6
:1088B00068780028FFF75FF800F073F841F00101D5
:1088C0000160002010706420FEF7F5FA2CB1687882
:1088D00018B9049880B207F0D8F8687838B13968C8
:1088E00021F480513960386840F400503860F64314
:1088F000BAF1000F0AD007F0B7F9B9F802108DF8F5
:10890000010031408DF80280A9F80210BBF1000F80
:108910000AD007F056FAB9F804108DF803000E409B
:108920008DF80080A9F804609DF900009DF90810F9
:10893000884202BF9DF801009DF8071088420BD1C4
:108940009DF902009DF90610884202BF9DF80300C0
:108950009DF80510884206D0039904236A46C9B2DF
:108960000E2003F02FF905987A49086006F038F9CF
:108970009DF80400FFF7BDFD00F0A7FF687828B15F
:1089800048F2607139606420FEF795FA9DF80100A5
:1089900007F0D0F89DF8030007F00EFA07B0BDE825
:1089A000F08F6A48684A0168704780B5FFF7E7FEB4
:1089B000BDE80140E5E6E2E6A0F10B01102928BF81
:1089C000FF20704770B50546A0F10B06FFF798FC35
:1089D0000446A5F10B00102801D38A2070BD5F4822
:1089E00081680A0702D40068C10701D58C2070BDD8
:1089F00054485B4905700A680C2A0ED05EA0594B9A
:108A0000B6B230F8262093F900008218CA61FFF749
:108A1000B8FE012C08BFFFF715FC002070BD10B593
:108A20000446FFF7ACFE2046BDE81040CAE74548C3
:108A3000007870473E4890F9000070472DE9F841F2
:108A40000646202516F12B0F85B049DB464C2188C0
:108A50001423FFF790FEBDF810004FF6FF71884217
:108A600003D0400448BF012407D43F220021102036
:108A7000FFF7D4FD002480F0200506F12B022F2AF9
:108A80002B483A491AD213224BA300E0521E5FFA38
:108A900082F813F91870BE42F8DB03EB4802032793
:108AA00056780E60002613F81810017000218846D1
:108AB000C4B1BDF810104FF6BF7229E0092E0FDACD
:108AC000825D0A600670142329480188FFF753FE6F
:108AD0004FF4C0514FF480764FF080082827E7E725
:108AE0008B201AE04FF4605200F044F84FF4E0623B
:108AF000314600F03FF88022414600F03BF87919FA
:108B000088B24028A8BF3F2181F020013F2289B2CE
:108B100000F030F8FFF7A4FD002006B0BDE8F081BA
:108B200078780020E8100040C57F002064100040E5
:108B3000687400203C8A0208508A02081C10004019
:108B40005A7F0020497500200875002080200040D1
:108B5000D010004000E100E080E100E06020004033
:108B6000AC100040C47F0020388A0208C0100040CA
:108B70003A8A02080B2059E5AA2129005523290029
:108B800000252800AA26270055282700002A2600AD
:108B9000AA2B2600552D2500002F2400AA302400E2
:108BA0005532230000342200AA3522005537210017
:108BB00000392000AA3A2000D500E601EC02EF03BC
:108BC000F204F405F506F707F808F909FA0AFB0BB1
:108BD000FC0DFD0FFE11FF1300160119021C031FEF
:108BE00010001100200030004000410050006000E3
:108BF000700080009000A000B000C000D000E00035
:108C0000F000000000000103BFF35F8FBFF34F8F40
:108C1000BFF36F8F70470000DFF81C060168491C26
:108C2000016011F8010D704738B50446DFF80856A9
:108C3000084629682246FBF7FDFA2A6822442A6082
:108C400031BDDFF8F425014610680144116070471A
:108C500010B5DFF8E815DFF8E8350A681C68141B62
:108C6000DC2CB8BF10700868421C0A6010BD10B53B
:108C70000446C0B2FFF7ECFF200A51E0DFF8B81558
:108C80000868401C0860401E0A680078521C0A6090
:108C900012F8011D00EB012080B2704710B50446A8
:108CA00080B2FFF7E4FF200C65E010B5FFF7E6FFA8
:108CB00000F06AF804EB004010BD70B5DFF87C5599
:108CC000DFF87C351E68024628681446861BA61904
:108CD000DD2EB8BFFBF7AEFA28682044286070BDCF
:108CE00038B500F061F8FFF7C9FF2081DFF848557B
:108CF0002868401C286010F9011DA1722A68521CC6
:108D00002A6012F8010DE07200F048F82073FFF7B6
:108D1000B5FFE08100F0D7F9FFF7C7FF606131BD13
:108D2000BDE8104094E738B500F02EF82080FFF73A
:108D3000A5FF608000F02AF8207100F039F860711A
:108D4000FFF79CFFE080FFF799FF208100F026F8F5
:108D5000A07231BD10B500F014F8A078E0E710B5AE
:108D600000F012F8208000F0C9F8A07010BD10B516
:108D700000F004F86088BDE8104078E704462078E9
:108D800066E70446208872E7044677E7DFF8A854D0
:108D90002868401C2860401E007870472868401CE6
:108DA0002860401E007870470446214608203BE7B3
:108DB0002968491C296011F8010D704738B500F089
:108DC000E6F8A070FFF75AFF2080211D00F0DDF8C3
:108DD000FFF7E4FF00B10120E07000F001F831BDC1
:108DE0002868401C2860401E007820732968491CB0
:108DF000296011F8010D6073704710B504462146D3
:108E000000F093F82069BDE8104047E710B504462C
:108E1000214600F08CF8FFF748FF206110BD10B527
:108E2000FFF7B2FF208010BD10B50446FFF7C6FF64
:108E300004F1100000F027F804F11C0100F0A5F87F
:108E4000FFF71CFFA084FFF719FFE08404F128025C
:108E500000F011F8117003685B1C036013F8011D2A
:108E6000517000F00AF8917003685B1C036013F8FE
:108E7000010DD07010BDDFF8C0030168491C01600E
:108E8000491E0978704710B50446FFF70EFF2060B1
:108E9000FFF70BFF6060FFF7F1FE208110BD10B5FA
:108EA00000F011F8A088FFF7E2FEE088FFF7DFFE90
:108EB0002089FFF7DCFE6089FFF7D9FEA089FFF764
:108EC000D6FEA07B2CE704462068E7E610B50446F2
:108ED000FFF7EBFE2060FFF7D1FEA080FFF7CEFE8C
:108EE000E080FFF7CBFE2081FFF7C8FE6081FFF72F
:108EF000C5FEA08100F002F8A07310BDDFF83803B2
:108F00000168491C016011F8010D704710B5FFF7A9
:108F1000DAFF2079FFF79CFE611D00F006F804F1EE
:108F20001501BDE810401020C7E61020C5E610204E
:108F30007AE610B50446207AFFF78AFE207A30B927
:108F40002068FFF7ABFE2068FFF7A8FE04E00228C8
:108F500002D1214600F002F8607AE1E60820ACE692
:108F600038B500F014F8207230B9FFF79EFE20608B
:108F7000FFF79BFE206004E0022802D1214600F0AA
:108F800004F8FFF70BFF607231BD08204CE6DFF8F4
:108F9000A85204462868401C2860401E007870478C
:108FA00070B505460224DFF890623068401C3060DE
:108FB000401E00782870401E012806D9FFF75EFE8B
:108FC0006881A91CFFF7E1FF0BE0FFF757FEA880BF
:108FD000FFF754FE6880FFF751FEFFF74FFEFFF7E3
:108FE0004DFE0C35641EE0D170BD38B50546022437
:108FF0002878FFF72DFE2978491E012906D96889AE
:10900000FFF735FEA91CFFF7A9FF0EE0A888FFF7C0
:109010002EFE6888FFF72BFEA888FFF728FE6888D9
:10902000FFF725FEA888FFF722FE0C35641EDFD16E
:1090300031BD10B5FFF7A2FE6068FFF72FFE04F107
:109040000800FFF776FFA08AFFF711FEA07DFFF76B
:10905000FFFDA069FFF722FE04F11C01FFF765FF89
:1090600004F12C00FFF7C1FF14F8440FFFF7F0FDE7
:10907000607855E670B5704D04462868401C28603D
:1090800004F12C06401E00782070FFF7F7FD608089
:10909000201DFFF765FF00F016F804F11200FFF73E
:1090A0007FFFFFF7EBFD6085FFF778FE3070FFF77D
:1090B0007FFE7070FFF7F9FD04F13401706010203D
:1090C000BDE87040B0E52868401C2860401E00786C
:1090D0002074704738B5044604F12C05FFF74FFEA5
:1090E0006088FFF7C4FD201DFFF723FF207CFFF7FA
:1090F000AFFD04F11200FFF778FF608DFFF7B7FDB9
:109100002878FFF7A5FD6878FFF7A2FD6868FFF7EC
:10911000C5FD04F13401BDE8344004E710B5FFF7A4
:1091200030FE6088FFF7A3FDA08824E610B5FFF7A6
:109130002BFE2080FFF7A2FD6080FFF79FFDA0803F
:1091400010BD30B502F8010B002312E031F82340C6
:1091500002F8014B01EB830431F823502D0A02F889
:10916000015B5B1C658802F8015B6488240A02F8D5
:10917000014B8342EADB30BD0CB42DE9F04180465F
:109180000F4606AE2C4C0CE056F8040B5FEA0801C3
:1091900006D00078FFF755FD286001E0FFF78DFD50
:1091A0007F1C3878002842D056F8045B622834D0FF
:1091B0007028E9D0732806D0752813D0762817D0E8
:1091C000772820D0ECE75FEA080007D02068401C31
:1091D0002060401E90F900002870E1E72878FFF732
:1091E00037FDDDE75FEA0800F8D000F02BF8F3E781
:1091F0005FEA080003D0FFF741FD2880D0E7288808
:10920000FFF735FDCCE75FEA080002D0FFF74DFD20
:10921000C2E72868FFF742FDC2E756F8040B007862
:109220005FEA08012946B9D0FFF7FEFCB8E7BDE8C0
:10923000F0015DF80CFB000030780020347800204D
:10924000A87700202068401C2060401E00787047EE
:1092500010B50446FDF756FF4C494D4B30200860D1
:10926000186010224B494C4B08601A60200A0028F5
:109270004A4808BF24024FF20F0104804180BFF327
:109280005F8F47480022026042604648464A1060AD
:1092900010BD46480168CA0708D5454B032119701F
:1092A0000121026C52085200026401600268110739
:1092B00003D5026C22F008020264704780B55FF0AB
:1092C000000000F009F830B9BDE8044040F2011197
:1092D0003DA0FDF717BC01BD2DE9F044354D2968CF
:1092E00042428E1816F01F0108D0002802D44942CD
:1092F0000E4403E04942701800F120062E48A6F102
:109300002007B04224BF2D498F4203D3EFF30880DA
:10931000864201D300202DE0FDF7F4FE8246284866
:10932000046814F0010418BF02F06DFA28680146C1
:109330008E4206D2B04224BFCD2100F80119F9D2E5
:1093400006E02038002201E000F8012B8842FBD320
:109350002E60384602F05CFAE22001E007F8010BCB
:10936000B742FBD30CB102F037FA5046FDF7D0FEFE
:1093700028682038BDE8F0840E48006870470D4822
:109380000068203870470F487047000030200040C8
:1093900030C8004030C0004010E000400000002015
:1093A0001C4000400400FA050CED00E018A000404D
:1093B000C27F002064740020F0690020381A002069
:1093C00094ED00E0980000206D6963726F2D696E66
:1093D0007465726E616C2E63000000002DE9F0412F
:1093E000DFF8C8630546F0780328D4BF302760272C
:1093F0004FF4F070B0FBF7F41E2D24B201DB281BF4
:1094000004D5A8B2BDE8F041FDF755BDFDF77AFEE1
:1094100000F053F970700722DFF894030021026016
:109420002D1B41602DB281607D43DFF88823DFF87A
:109430007873ED1C4FF00071AD0811606D1E456032
:10944000DFF8745300F00FF83C6800F03BF93C6023
:109450002E60FFF7D9FB002080F310884046BDE85E
:10946000F041FDF755BE2E6828684008400028608E
:10947000FFF7CABB38B50446DFF83003C1780329CB
:10948000D4BF302560254FF4F070B0FBF5F0241AFE
:109490001E2C04DAAB210FF27830FDF733FBDFF836
:1094A0001003072101600022426082606C43DFF8F4
:1094B0000423E41C4FF00071A4081160641E446092
:1094C00031BDDFF8E82201215170D3E72DE9F041E9
:1094D000DFF8E862DFF8E872002535603D604FF4A0
:1094E000A0427A6041F29A084046FFF777FF706821
:1094F00044F69041081A00B24FF4487290FBF2F023
:1095000001B20829A8BF072004DA11F1080FB8BF7B
:109510006FF0070000B2386008244046FFF75EFF96
:109520004046FFF75BFF70684519641EF8D12D1D9A
:10953000ED0808BF0125DFF88C02B0FBF5F080B222
:109540007860BDE8F08138B5DFF87C5201216FF01A
:109550000F04A9602C608020FFF740FFE868B0F599
:10956000807F02D2641C102CF4DB31BD70B5DFF8B3
:109570005C02DFF84452016841F001010160012200
:109580004260FDF7BFFD2E680446FFF76DFF864978
:10959000512008602E60FFF737FB2046BDE8704081
:1095A000FDF7B6BD2DE9F0418A4C894EA1887F4F69
:1095B0004FF6FF78414540F2DC551CD186480188C2
:1095C00002237F22201D00F0C9F9A088404504BF76
:1095D0000221A180B069810703D4B06940F0020084
:1095E000B0610120B8702846A1883160FFF769FF9B
:1095F0002846BDE8F081B0698207EED5B87800282A
:10960000F6D1B268B06812F0010204D10F290AD273
:10961000491CA18007E0830705D5207818B10229ED
:10962000C4BF481EA080A08822700228BCBF0221AF
:10963000A1803068A1888842D3D1B06900F00300CE
:10964000032818BFFFF792FF0020D2E72DE9F0476B
:10965000624981460878002468B9C878072818BF8D
:1096600009280DD0032818BF112809D013281CBFC2
:1096700015280B2804D05A48016841F48071016014
:10968000FDF740FD00F019F84846FFF78BFF08B9D9
:1096900001240CE0484D444FFFF7E5FED7F800A049
:1096A00000F010F8C7F800A02E60FFF7ADFA00F048
:1096B000A8F8002CE4D0BDE8F0878046012080F3B4
:1096C00010887047386820F04000386006F046BCCB
:1096D0000220BBE710B53648364B0021416000221E
:1096E0008260016821F00201016030494A704FF048
:1096F00000721A60887808B100228A70C878012840
:1097000015D13848384B012202601C68E20702D5A7
:109710000320C87010BD0222CA70016C334B41F0A7
:1097200001010164042032490860186010BDC87846
:10973000042804BF0522CA7010BD1C4948780028BF
:1097400018BFFFF7C7BFFEF77DBB2DE9F843174DE4
:10975000287808B12879E0B10021297022E0FDF7CE
:10976000D1FCFFF7AAFFE978052910D0124E0E4C64
:1097700000F040F8D4F80090206820F0400020600D
:1097800006F0ECFBC4F800903760FFF73DFA00F0FC
:1097900038F8E8780528E2D10021A970FFF756FFD4
:1097A00000202870BDE8F18300800040BF7F0020CA
:1097B00010E000E004ED00E094ED00E01040004017
:1097C0000C0000400060E316084000401C400040D0
:1097D00004400040E87400205C8A020896070808EC
:1097E0003840004018A000400C40004000E100E07C
:1097F00080E200E037683068400840003060FFF7E2
:1098000003BA002080F310884046FDF781BC0000B9
:10981000636C6F636B732E630000000070B50446C9
:109820000D4606F09FFB3F4E306C20F00800306480
:10983000E40106F099FBFDF765FC44F001043A49A8
:1098400044EA05340C6008223260BDE87040FDF740
:109850005FBC2DE9F041354C354D324E25E006F028
:1098600081FB344904200860326C42F00802326403
:109870002F682868400840002860FFF7C5F9D4F831
:109880000080206820F04000206006F067FBC4F8EC
:1098900000802F60FFF7B8F9306C20F008003064CA
:1098A00004212548016006F05FFB31680807D6D522
:1098B0000821224A3160106880B2BDE8F08180B58D
:1098C000FFF7ACFFBDE80140C3E71748016849084E
:1098D000490001607047F8B50446FDF7A9FA05464E
:1098E00021460320FFF7EBFF064621460120FFF744
:1098F000E6FF0746FDF75FFA21460020FFF7DFFF8E
:109900000446FDF757FA0848016849084900A41BB6
:1099100001602404BE1BB4FBF6F045436D00280C27
:10992000F2BD000018A0004004700040008000401C
:1099300094ED00E000E100E080E200E00070004013
:1099400038B515467F2A08BF0025304C21431A46FA
:1099500005FB0311BDE83840FAF76CBC70B51E007A
:10996000044615461AD04BF23462914210D1092EAA
:1099700028BF082633467F2240F61201FFF7E0FF9A
:10998000324623492046FAF7A3FC38B940F2A271C7
:1099900033462A462046BDE87040D1E770BD2DE928
:1099A000F0410C4616461949DFF86880C20741EAC3
:1099B000000502D5792100F033F8F00702D57A21AD
:1099C00000F02EF81448854204D37019401E134944
:1099D000884202D37B2100F023F8002706E0E85DEF
:1099E000FF2802D0822100F01BF87F1CB742F6D37B
:1099F000720821462846FCF7D9FF28B14046BDE849
:109A0000F0418821FDF77EB8BDE8F081000008082C
:109A10008C850208808502080008080800100808E4
:109A20004046FDF76FB80000002181F311887047B0
:109A3000010008D4012200F01F01DFF8C8358A4078
:109A4000400943F8202070472DE9F84FDFF8BC4566
:109A500090B0804660680F90B8F1070F0F4608BFBE
:109A60004FF003080AD0B8F1080F08BF4FF0020802
:109A700004D0B8F1050F08BF4FF00408414601209B
:109A8000FCF7DEFFDFF88895D9F80010D9F804005C
:109A900041EA0021D9F8080041EA004AD9F8041047
:109AA000480703D5E16941F00201E161D9F80000FE
:109AB000410703D5E06940F00400E061D9F81C00DB
:109AC0002AFA00F1CA0703D5E06940F00800E06116
:109AD000A8F10101DFF83055DFF8386500200329CF
:109AE000286000F25C82DFE811F0270206001B000C
:109AF0000400606014E0306CC10703D5E06940F0F9
:109B00004000E061306C410703D5E06940F020007F
:109B1000E061306C810703D5E06940F01000E0613E
:109B200027B106F023FA8DF8000002E000218DF83D
