S01D000073657269616C2D756172742D626F6F746C6F616465722E73333716
S31508000000000400207500000881000008810000082F
S31508000010A70B090100000000010120570040000855
S31508000020040C00008B0A00084D0D0008780500082E
S3150800003000000000000000000000000000000000B2
S31508000040000000000000000000000000BC010000E5
S31508000050FFFFFFFF05480068202100EA010020B1E4
S315080000600348016842688D46104770472C000040D7
S3150800007000400008FFF7EEFF00F00DF800F042F828
S3150800008005E00000854670474548008870474FF4EC
S31508000090017000F09FB838B54FF20F04414D00F0DB
S315080000A0C7F828B140F2052028806C80012032BDAF
S315080000B03D480068C00615D56888A0421ED1288824
S315080000C040F2022188421CBF40F20621884215D020
S315080000D040F2011188421EBFB0F58A7F40F2111125
S315080000E088420BD0314C208A40F6A721884205D198
S315080000F02068FFF7C7FF6068804700BF002032BD51
S315080001000000000038B50400294872B6016849089D
S315080001104900016000F0D2F823480068000910F091
S3150800012001000CBF2349244902E0CD2201F8012B26
S31508000130224A9142F9D32249224A234B03E011F875
S31508000140015B02F8015B9A42F9D32049204A002351
S3150800015001E001F8013B9142FBD3124A53884FF262
S315080001600F05AB4240F205210AD113888B4205D010
S3150800017030B1180A012818BF022801D1194601E032
S3150800018004B90021064801804CF23C30508000F04A
S31508000190C9F94FF40170BDE8324000F01BB8000001
S315080001A0240C0020000000202C000040004000081D
S315080001B0FCED00E00000002098000020000400206C
S315080001C0F81100080004002004040020040400209C
S315080001D02D0C00200E4A302111600E4A11600E4A7D
S315080001E0116010210D4A1160010A00290C4908BF47
S315080001F0000208804FF20F004880BFF35F8F09485E
S3150800020000210160416008480849086070470000FD
S315080002103020004030C8004030C0004010E00040A8
S31508000220000000201C4000400400FA050CED00E028
S315080002300020704780B500F0B8F90121062000F0CB
S31508000240C1F9062000F0EEF90121072000F0BAF9FD
S31508000250072000F0DBF91748016821F0100101605A
S3150800026001BD0000052800D9704710B5DFE800F089
S315080002701721030F1C17104C2088411E2180C0B976
S31508000280072000F0DBF942F21070208010BD07202D
S3150800029000F0C8F9BDE81040062000F0CFB9BDE867
S315080002A01040062000F0B2B9BDE81040062000F064
S315080002B0B9B910BD00BC0040260C00207A4951206F
S315080002C00860704738B5054600F062F97749B0FB13
S315080002D0F1F44FF4F070B0FBF4F02D1A1E2DBCBFEC
S315080002E04FF40170FFF776FF7148724A07210160E3
S315080002F00021416081604FF00071116005FB04F137
S31508000300C91C8908491E416031BD6B4A01215170DB
S31508000310D8E76B48016841F001010160012141609D
S315080003205120614908607047002070472DE9F04761
S31508000330624D614E2968814640F2DC580129C24661
S315080003405B48604F604C1DDA0221618039600068A5
S31508000350C00348BF00F08FF8B86900F0030003280F
S3150800036061D02868002803D5B86940F00200B86152
S315080003704846FFF7D9FF5FEA000A1BD1286800281C
S3150800038051D54EE061884FF6FF75A9421DD14F48F9
S31508000390018802237F22A01C00F066F96088A84223
S315080003A004BF02206080B869800703D4B86940F0AA
S315080003B00200B8610120B070608838600FFA8AF0D0
S315080003C0FFF7A3FF5046BDE8F087B9698907EDD561
S315080003D00068C00348BF00F04EF8B07808B1404640
S315080003E0F1E7B868B968628810F0010003D10F2AEE
S315080003F008D2521C06E0890704D5217811B1032AD0
S31508000400A8BFAA1892B2022A2070B8BF0222628038
S31508000410386861888842CDD1B86900F0030003289E
S3150800042001D0FFF776FF0020CDE710B5044628482F
S31508000430017869B9C078072818BF092813D0032896
S3150800044018BF11280FD013281CBF15280B280AD04F
S315080004502048016841F48071016004E000F03AF92F
S315080004600620FFF761FF2046FFF760FF0028F5D159
S3150800047010BD0220D9E70E480E4A0021416081606E
S31508000480016821F00201016000210B4841704FF01C
S3150800049000711160817801B9704780B500218170BB
S315080004A00620FFF741FF01BD0080004090D0030001
S315080004B010E000E004ED00E0280C0020F011000830
S315080004C01C4000400440004000040020F4110008CD
S315080004D096070808384000400078704730B5DBB00A
S315080004E00446214636A800F047F9002000904FF44C
S315080004F002630B4A36A901A800F0C7FA0FF26C028C
S315080005000FF2740001A900F021FC054600F056F828
S315080005101DB12146284600F07FF928465BB030BD5C
S315080005200404002080B5FFF7A4FFFFF7ADFDB0F582
S315080005308A7F09D100F02AFC00F08EFC0028FBD047
S3150800054040F21110FFF746FEFFF774FE00F01EFC9E
S3150800055000F0A8FC40F20120FFF73CFE002002BD97
S31508000560012A08BF00F027BC704700006711000881
S31508000570A3110008D9040008D9090008110A0008BF
S315080005801A480068C00701D41948704719487047C7
S3150800059080B5FFF7F5FF1849096801B9400802BD9B
S315080005A080B5FFF7EDFF400802BD144801218160C0
S315080005B04EF6BE21416001210160704710490120B5
S315080005C008607047C208430710B54CBF0D4B0E4B69
S315080005D003EB422200F00300800013680F248440D6
S315080005E0A34301FA00F01843106010BD1C400040F8
S315080005F0001BB70000366E01204000400060004036
S315080006000860004004B0004000B00040C10803295B
S3150800061007DA012100F007029140C00840020F4A9C
S3150800062011507047C108032907DA012100F00702B3
S315080006309140C00840020A4A11507047C108032970
S315080006400ADA084A02EB412101230A6800F007008A
S3150800065003FA00F0504008607047000014B00040EC
S3150800066010B000400CB0004030B5044610467F2854
S3150800067008BF00204BF23462914283B01AD1082396
S315080006807F2240F6120100A8FFF7EEFF08220FF2BC
S315080006903C0100A800F021FD30B908237F2240F272
S315080006A0A27100A8FFF7E0FF082200A9204600F083
S315080006B0FBFC37BD044D294300FB03111A462046AF
S315080006C000F0F2FC37BD000000000808FFFFFFFF3E
S315080006D0FFFFFFFF70B5234C25680646FFF760FF4E
S315080006E02149B0FBF1F070432F303021B0FBF1F017
S315080006F0032809D3616D41F0010161652168491B31
S315080007000903090B8142F9D370BD38B50C4620B1EF
S3150800071001280FD0032820D021E0144D44B1FFF75B
S315080007203FFF1349B0FBF1F0401EB0F5005F0CD255
S31508000730286012E04CB1FFF733FF610801EB400077
S31508000740B0FBF4F0B0F5003F01D3202032BD0949D3
S3150800075000F001024A6040080860002032BD2120EE
S3150800076032BD00003820004090D00300100004E09D
S3150800077020A1070068C800400170012242700129C3
S3150800078082700CBF8021402181800021C1800181B7
S315080007901F4801600E218162016821F01001016085
S315080007A00021416341627047F8B50D460446194970
S315080007B0174F4FF0FF3008601646FE620020786239
S315080007C0386840F001003860FFF7F8FE012C11D1B7
S315080007D035B900F041FB00F0010080F0010002E0AD
S315080007E0284600F041FB38B93868400840003860B0
S315080007F00020F2BD0120F2BD786AB042E4D3002E93
S31508000800E2D038684008400038601620F2BD000083
S3150800081000F0004000A8004038B504460D4600F038
S3150800082009F800F007F82A462146BDE8384018209E
S31508000830FFF796BE2A4621461820FFF791BE38B51F
S315080008400446002020814AF6B432207800A9FFF732
S31508000850ABFF08B11C2032BD9DF80000032818BF65
S31508000860182801D1182032BD042801D1172032BD1D
S31508000870012801D0212032BD002500E06D1CA18889
S31508000880EDB2091D8D420BDA281900F10A0120780C
S3150800089040F2DD22FFF788FF0028EFD0262032BD80
S315080008A00025002006E00146EDB22819007B00F07D
S315080008B027FC6D1CA188EAB28A42F4D3A27AE37AAD
S315080008C09B18FF2B01D0222032BD0B191D7BB5EBDF
S315080008D0102F01D0232032BD5B7BC0B2834201D0EA
S315080008E0242032BDA078824207D0401EC0B2824280
S315080008F001D1272032BD252032BD881C2081022047
S31508000900E080002032BD38B504466078012804D05E
S3150800091028D3032859D01DD324E02078012816D1DE
S315080009203B2500A800F0A0FA0028FAD0432000F0E2
S3150800093042FA207840F2DD220021FFF735FF30B178
S315080009402846451EC0B20028F0D11B2032BD022021
S3150800095060700FE000F09AFA00F039F8A078401CB1
S31508000960A07007E0182032BDA0782278411EC9B2CF
S3150800097000F02FF82046FFF762FF050018BF00F0C9
S3150800098085FA272DF0D0A8060BD52278A178152050
S31508000990FFF7E6FD002DEDD10320FFF763FC0020ED
S315080009A032BD680603D4182D18BF1C2D07D121782F
S315080009B02846FFF731FF04206070284632BD172D00
S315080009C0E8D100F004F803206070172032BD2278C1
S315080009D0A1780620FFF7C4BDF8B504460D461646AD
S315080009E0002706E0E088411C0019E180807A7855E6
S315080009F07F1CBFB2B74209D2E08821898842F1D369
S31508000A002046FFF780FF0028ECD0F2BD0020F2BD9B
S31508000A1010B504462046FFF776FF0028FAD010BD29
S31508000A20F8B504460D4616461F4607E03046A04769
S31508000A30294600F077FB05467F1E761CBFB2002FBD
S31508000A40F4D12846F2BD38B50C46154605E00146F0
S31508000A5014F8010B00F066FB6D1EADB2002DF6D141
S31508000A6032BDF8B504460D461F4616462868236863
S31508000A703A4631469847040005D1E8683A46314671
S31508000A80FFF7E1FFE8602046F2BD10B5029C8472CC
S31508000A900381426001604FF0FF31C160002101749B
S31508000AA010BD2DE9F84F8946044699F81BB0D06861
S31508000AB0A249BBF1800FA8BF4FF0800B88421E46A3
S31508000AC051D1002E4DD0B06800904FF0FF38002568
S31508000AD009EB450A9AF848700DE0FFF76FFDF80232
S31508000AE040F0006200984FF400634146FFF798FF14
S31508000AF08046781CC7B20AF148004078B84204DA42
S31508000B00681CC5B2062D02DAE2E7FF2FE5D1D9F84F
S31508000B1044006FEA0801884225D1A068736800BAC4
S31508000B204FEA5B0249469847C8B9E06805BAA06823
S31508000B3002BAB0685B464FF0FF31FFF771FFC0435A
S31508000B4085420CD140F6A720A9F810000122A0681A
S31508000B50736800BA09F110011030984708B14220AD
S31508000B6002E0172000E04320BDE8F28F2DE9F04FA0
S31508000B700D4683B08046D5F804A02889ADF8040050
S31508000B80914605F1140606F110070423524640461D
S31508000B90FFF767FF00286ED1BAF8000040BA80B2A6
S31508000BA00090BAF8020040BA84B2E00748BF46206F
S31508000BB061D4B4F5026FC8BF4E205CDC002C59D056
S31508000BC00098DFF87CB148B14FF60441401A00F0AE
S31508000BD09C80FF3853D0FE3851D0ACE0287C08B151
S31508000BE0512048E08D2C28BF4F2044D22346321D81
S31508000BF000F0A9F800283ED1FA7E802AA8BF8022F4
S31508000C0002F10C00844201BFB08840BA00F47F406C
S31508000C10B0F5007F31D1F08840BA4EF250318842A3
S31508000C2002BF388A40F6A721884226D1788A00F47E
S31508000C307F40B0F5807F01BFB06800BADBF81C10B2
S31508000C4088421AD14FF6FF70388206F110014FF02C
S31508000C50FF30FFF7F8FEF16809BAC943884204BFB6
S31508000C60387E042809D1787E0C2818BF062804D1B6
S31508000C70012028740020BDE8FE8F4520FBE7287C6C
S31508000C80002844D0042300F05DF80028F3D1DAF8F0
S31508000C90000006BA201F84B2DBF81C00864238BF63
S31508000CA04820E8D3796DA019884228BF4920E2D2A6
S31508000CB000984FF6035188420DD1B9F1000F0AD0BA
S31508000CC0D9F8002031460220904720B14A20D2E7C1
S31508000CD0E01B84B2BE19002CCCD0BDF804008442B7
S31508000CE0B4BF274607463B4600F02CF80028C2D179
S31508000CF0B9F1000FECD0D9F804307A0851463046DD
S31508000D0098470028E4D04B20B5E7287C08B941204D
S31508000D10B1E7042C18BF4C20ADD16A68042300F053
S31508000D2012F80028A7D14B462A463946304603B062
S31508000D30BDE8F04FB5E644209DE70000E320BBDEA2
S31508000D40000000085246294640468AE670B50D4618
S31508000D5004462889C107164601D4802803DA4F209D
S31508000D6070BDA87A78B9324629462046FFF7FEFEB6
S31508000D700028F6D0172807D12868616888471728F9
S31508000D8002D1002070BD502070BD000080B54FF420
S31508000D90E1310120FFF7B9FC3948022181600121C0
S31508000DA0016009200921FFF70DFCBDE80440042174
S31508000DB00A20FFF707BC3449CA685207FCD5086001
S31508000DC0704710B5044603E014F8010BFFF7F3FF6C
S31508000DD020780028F8D110BD30B583B00FF2BC02D8
S31508000DE018CA00A9042218C1052100AD0DE080B279
S31508000DF00A2390FBF3F30A2404FB1304E4B218460F
S31508000E0004F130034B5504B10A46491E49B200297C
S31508000E10EDD500A8D2B21018FFF7D3FF37BD10B52D
S31508000E20044620090A28ACBF37303030C0B2FFF775
S31508000E30C2FF04F00F000A28BDE81040ACBF3730E7
S31508000E403030C0B2B7E710B50446200AFFF7E7FF0F
S31508000E50E0B2BDE81040E2E70A480068800701D51D
S31508000E60012070470020704710B50446FFF7F4FFCD
S31508000E7020B1054800682070002010BD012010BD73
S31508000E8054C8004048C800403CC8004080B500A887
S31508000E90FFF7EAFF0028FAD001BD000030303030F5
S31508000EA0300000002DE9F84FFFF788FBFFF7EEFF4B
S31508000EB00020FFF7D7F90FF26C18474D0FF2381BD1
S31508000EC0DFF818910FF2181A41A642A41EE0504600
S31508000ED0FFF777FF0C27B9F81A00F84000F00F0063
S31508000EE0FFF77AFF012FA4BF2E20FFF764FF3F1FED
S31508000EF0F1D52046FFF765FF09F11A00408EFFF786
S31508000F006BFF5846FFF75DFFFFF7C0FFFFF756FB7D
S31508000F100220FFF7A7F900A8FFF7A6FF0028F5D1DA
S31508000F209DF80000FFF747FF9DF800000A2818BF44
S31508000F300D28CCD0312804D032282ED0332831D0F1
S31508000F40E2E70FF2F000FFF73CFF0120FFF7C6FAD1
S31508000F5007460FF2F400FFF734FF2FB90520FFF715
S31508000F6081F90FF2F800CDE70420FFF77BF90FF2BD
S31508000F70F800FFF726FFB80648BF0FF2F80005D4B9
S31508000F8078064CBF0FF204100FF21010FFF719FF86
S31508000F903846FFF758FF3046B4E70120FFF762F9F5
S31508000FA0BDE8F18F00273046FFF70BFF288A40F689
S31508000FB0A721884218BF4046A4D178197F1C90F80B
S31508000FC0240020B1FFF7F7FEFFB2202FF5DBE2E79A
S31508000FD00D0A00002062000000400008000000081A
S31508000FE00D0A45465220333253657269616C2042B8
S31508000FF0746C2076000000000D0A312E2075706C86
S315080010006F61642065626C0D0A322E2072756E0D52
S315080010100A332E2065626C20696E666F0D0A424C93
S31508001020203E20002A2A206E6F20617070202A2A0E
S315080010300D0A00000D0A626567696E2075706C6F8F
S3150800104061640D0A000000000D0A53657269616C3F
S315080010502075706C6F61642000000000636F6D700E
S315080010606C6574650D0A000061626F727465640DC3
S315080010700A0000000D0A584D6F64656D20626C6F9A
S31508001080636B206572726F72203078000D0A66698C
S315080010906C65206572726F72203078000D0A657271
S315080010A0726F722030780000814212D210185118DF
S315080010B0401E491E92B2002A1EBF11F8013900F8D7
S315080010C00139521EF6D1704711F8013B00F8013B71
S315080010D0521E92B2002AF7D1704710B500E0521E90
S315080010E092B222B100F005F8F9D0181B10BD002005
S315080010F010BD10F8013B11F8014BA34270470000E0
S315080011000A0242EA11214840C0F30311484080EA26
S31508001110003041010206C9B2D20E41EA0221484016
S3150800112080B270470A0A4840C0B208214308C0077F
S3150800113046BF034858401846491EF7D150407047E5
S315080011402083B8ED2748018A40F6A772914202BF6C
S31508001150408A4FF47F41084203D1022801DB01206F
S31508001160704700207047F8B504461D4E01200D460D
S315080011703070FFF7E7FF18B94FF40170FFF72AF848
S3150800118029461848876A44F48070B84700213170A8
S315080011900FF2540618B9294644F40070B847805D22
S315080011A0F2BD2DE9F041044688465600FFF7CAFF0E
S315080011B018B94FF40170FFF70DF80A48476A00237B
S315080011C0324641462046B8470FF21C0520B9334639
S315080011D0002241462046B847405DBDE8F081000040
S315080011E02C0C002000000808000202024B4B464760
S311080011F000366E01EE0800000100FFFF4B
S705080000757D
