S01900004E43505F5350495F454D333538315F3637382E733337E9
S315080040008873002031810208B97F0208BD7F020843
S31508004010A70A0A0100410008040A03AC8067750173
S315080040200000000000000000000000000000000082
S315080040300000000000000000000000000000000072
S315080040400000000000000000FFFFFFFFFFFFFFFF6A
S31508004050FFFFFFFF007003080000000000000000DB
S31508004060FFFFFFFFFFFFFFFFFF000000000000004B
S315080040700000000000000000000000000000000032
S31508004080F07F002000000000F07F0020F07F002075
S31508004090887300202F8B0208F8830208286A0020FC
S311080040A08C2E0020000004080080002080
S31508004100887300203181020851830208558302080A
S31508004110598302085D8302086183020800000000D3
S31508004120000000000000000000000000658302088F
S3150800413069830208000000006D830208BB4C000872
S315080041407183020875830208798302087D83020851
S315080041508183020885830208898302088D83020801
S315080041609183020895830208998302089D830208B1
S31508004170A1830208A5830208A9830208AD83020861
S31508004180B1830208B5830208B9830208BD83020811
S31508004190F8B5304C304D207829684A0729D50328C8
S315080041A027D22E492E4B0A8823F8102001212D4AA2
S315080041B0137801FA00F0184310702B4A2B4B10782D
S315080041C0002811D0002620FA06F7FF0703D4761C2C
S315080041D0032EF8D30DE0B1402670414011702448F3
S315080041E030F81610196004E0186000F0A1F80321F1
S315080041F021704FF6FF702860BFF35F8FF1BD1A4933
S31508004200144B0020087003221B491A7008700522F7
S315080042100F4B14491A8008700022144802600023C4
S3150800422043604FF4004181601022C26001220B49AD
S31508004230416182610321C1600422074802644FF686
S31508004240FF7101604FF400600A4A106000F0B0B8D0
S31508004250E67A00209B7F002010A800408278002084
S31508004260A87500209C7F00209A7F002004E000406B
S31508004270B075002000E100E09D7F002000F005BC3D
S315080042802348012181604EF6BE22426001607047D4
S315080042902049012008607047A52805D11C484DF61D
S315080042A0AD6141600222026070471948016811F049
S315080042B0010018BF0120704780B517491020086013
S315080042C0BFF34F8FBFF36F8F144A15491078154AFD
S315080042D060B1032807BF002010600123136040F671
S315080042E051000860002000F04BFE06E00223136030
S315080042F04FF40060086000F08BFB0B480721016053
S3150800430001220264102009490860002002BD00004D
S31508004310006000400860004080E100E0AC7F0020BB
S315080043200C6000400800004014A0004000E100E0D6
S3150800433070477047DFF8003533F81000024022FA5C
S3150800434001F07047F0B50FF2B054DFF8F03434F8E6
S315080043501050DFF8E4449D60114034F8105095433E
S315080043602943D96002261E6000271F6024F8101012
S3150800437058680028FCD1F0BDDFF8C434DFF8C4144F
S315080043801878DFF8C42408B150780FE0125612F1F5
S31508004390090F02DA30230B607047C86D38B1C86D53
S315080043A040F24A32B2FBF0F080B2C01E0860704795
S315080043B0E0B5DFF8980401880A2300F068F8BDF82C
S315080043C006104FF6FF720D20FFF7BCFF07BDF8B5C4
S315080043D0B0F5004F0546DFF870641AD1DFF870446F
S315080043E02188022300F053F8BDF80000000AFF28D0
S315080043F001D0010000D118207070BDF80000000639
S31508004400C00E10281CBF001D00F0A4F9BDF800500E
S31508004410ED43DFF82C44607810B10021617006E0A6
S31508004420B189A8B24140CA0744BF01206070A8B24A
S31508004430C0F34007DFF81C04B58105F001060168E2
S3150800444041F40041016031460FF2D14010F81110D5
S3150800445009074FF44052090C0220FFF773FF304654
S3150800446000F0F8FD2D064022B9010B20AD0EFFF72E
S3150800447069FF05F001053D432570FFF77DFF60786C
S3150800448018B1FFF795FF002060700020F2BD7F226B
S31508004490684600F061BE01F0D4BA2DE9F84FDFF89E
S315080044A0BC53287886B0A0F10B0104900391CAB2D8
S315080044B004230E21684601F0ABFB9DF90000DFF8E6
S315080044C0A0130A788DF80800012A9DF801008DF8D6
S315080044D007009DF902008DF806009DF803008DF887
S315080044E0050004D16878441EA441E40F00E00124C5
S315080044F001F0ABFA80469DF90200039EDFF8589357
S3150800450008F10A07A8F10A0BB842B6BF83454FF06F
S31508004510010A4FF0000A012000FA06F69DF801008C
S31508004520010603D4B9F80220324201D04FF0010A3D
S3150800453001F0D6FB9DF80300010609D4B9F804205A
S31508004540324205D19DF90000B842B8BF834502DB67
S315080045504FF0010B01E04FF0000B4AEA04005BEA5A
S31508004560000000F09F80BF48BF4F0168BF48490858
S3150800457001F001018DF80410016801F4E06105916C
S315080045804FF4E060BA490860002002F018F800F01D
S31508004590FBFB9CB1687848B100F08FF849084900E0
S315080045A001600120107000F0DCFC07E0386840F478
S315080045B000503860396821F480513960A84801787C
S315080045C001290FD1002C1ABF6878002802F081F95A
S315080045D000F073F841F001010160002010706420BA
S315080045E000F0BFFC2CB1687818B9049880B202F0C4
S315080045F0FAF9687838B1396821F480513960386831
S3150800460040F400503860F643BAF1000F0AD002F0C1
S31508004610D9FAB9F802108DF8010031408DF80280F8
S31508004620A9F80210BBF1000F0AD002F078FBB9F81E
S3150800463004108DF803000E408DF80080A9F8046078
S315080046409DF900009DF90810884202BF9DF80100F7
S315080046509DF8071088420BD19DF902009DF90610B6
S31508004660884202BF9DF803009DF80510884206D0CF
S31508004670039904236A46C9B20E2001F0F5FA059893
S315080046807A49086000F00CFE9DF8040001F097FFD7
S3150800469002F069FC687828B148F2607139606420D4
S315080046A000F05FFC9DF8010002F0F2F99DF80300A6
S315080046B002F030FB07B0BDE8F08F6A48684A016827
S315080046C0704780B5FFF7E7FEBDE80140E5E6E2E69C
S315080046D0A0F10B01102928BFFF20704770B50546C9
S315080046E0A0F10B0601F072FE0446A5F10B00102896
S315080046F001D38A2070BD5F4881680A0702D4006822
S31508004700C10701D58C2070BD54485B4905700A68FD
S315080047100C2A0ED05EA0594BB6B230F8262093F973
S3150800472000008218CA61FFF7B8FE012C08BF01F025
S31508004730EFFD002070BD10B50446FFF7ACFE20461D
S31508004740BDE81040CAE74548007870473E4890F9EA
S31508004750000070472DE9F8410646202516F12B0F73
S3150800476085B049DB464C21881423FFF790FEBDF837
S3150800477010004FF6FF71884203D0400448BF012459
S3150800478007D43F2200211020FFF7D4FD002480F033
S31508004790200506F12B022F2A2B483A491AD2132252
S315080047A04BA300E0521E5FFA82F813F91870BE4256
S315080047B0F8DB03EB4802032756780E60002613F849
S315080047C01810017000218846C4B1BDF810104FF6C4
S315080047D0BF7229E0092E0FDA825D0A60067014237B
S315080047E029480188FFF753FE4FF4C0514FF48076ED
S315080047F04FF080082827E7E78B201AE04FF460522D
S3150800480000F044F84FF4E062314600F03FF88022A9
S31508004810414600F03BF8791988B24028A8BF3F21E5
S3150800482081F020013F2289B200F030F8FFF7A4FD9D
S31508004830002006B0BDE8F08108780020E8100040A6
S31508004840B67F0020641000406874002022890208A0
S315080048504C8902081C100040527E00205D7500201D
S315080048602875002080200040D010004000E100E0BC
S3150800487080E100E060200040AC100040B57F0020D9
S315080048801A890208C01000401E8902080B2059E543
S31508004890AA2129005523290000252800AA26270031
S315080048A055282700002A2600AA2B2600552D250064
S315080048B0002F2400AA302400553223000034220099
S315080048C0AA3522005537210000392000AA3A2000CF
S315080048D0D500E601EC02EF03F204F405F506F70746
S315080048E0F808F909FA0AFB0BFC0DFD0FFE11FF1378
S315080048F000160119021C031F1000110020003000C9
S315080049004000410050006000700080009000A00048
S31508004910B000C000D000E000F00000000000010375
S315080049202DE9F041DFF8C4640546F0780328D4BFC2
S31508004930302760274FF4F070B0FBF7F41E2D24B231
S3150800494001DB281B04D5A8B2BDE8F04100F009BB7D
S3150800495002F044FB00F071F970700722DFF890044A
S31508004960002102602D1B41602DB281607D43DFF876
S315080049708424DFF87474ED1C4FF00071AD081160E3
S315080049806D1E4560DFF8705400F00FF83C6800F0C3
S3150800499059F93C602E6002F027FB002080F310884E
S315080049A04046BDE8F04102F027BB2E68286840085B
S315080049B04000286002F018BB38B50446DFF82C041E
S315080049C0C1780329D4BF302560254FF4F070B0FBB9
S315080049D0F5F0241A1E2C04DAAB210FF27C4002F003
S315080049E011FBDFF80C040721016000224260826097
S315080049F06C43DFF80024E41C4FF00071A408116032
S31508004A00641E446031BDDFF8E42301215170D3E709
S31508004A102DE9F041DFF8E463DFF8E473002535603B
S31508004A203D604FF4A0427A6041F29A084046FFF78B
S31508004A3077FF706844F69041081A00B24FF448723E
S31508004A4090FBF2F001B20829A8BF072004DA11F199
S31508004A50080FB8BF6FF0070000B238600824404658
S31508004A60FFF75EFF4046FFF75BFF70684519641E57
S31508004A70F8D12D1DED0808BF0125DFF88803B0FB26
S31508004A80F5F080B27860BDE8F08138B5DFF8785384
S31508004A9001216FF00F04A9602C608020FFF740FF0A
S31508004AA0E868B0F5807F02D2641C102CF4DB31BDB7
S31508004AB070B5DFF85803DFF84053016841F001018B
S31508004AC001600122426002F089FA2E680446FFF767
S31508004AD06DFFC549512008602E6002F085FA204610
S31508004AE0BDE8704002F088BA10B5C04C01202070AD
S31508004AF000212171C648816901F00301032907D104
S31508004B000021A170042000F061F80121217110BD77
S31508004B100F220260022181610120E0706420BDE855
S31508004B20104070E72DE9F041BA4CB94EA188AF4F55
S31508004B304FF6FF78414540F2DC551CD1B64801884E
S31508004B4002237F22201D00F007FBA088404504BFF2
S31508004B500221A180B069810703D4B06940F0020040
S31508004B60B0610120B8702846A1883160FFF74BFF75
S31508004B702846BDE8F081B0698207EED5B8780028E6
S31508004B80F6D1B268B06812F0010204D10F290AD230
S31508004B90491CA18007E0830705D5207818B10229AA
S31508004BA0C4BF481EA080A08822700228BCBF02216C
S31508004BB0A1803068A1888842D3D1B06900F003008B
S31508004BC0032818BFFFF774FF0020D2E72DE9F04746
S31508004BD0924981460878002468B9C878072818BF1A
S31508004BE009280DD0032818BF112809D013281CBF7F
S31508004BF015280B2804D08A48016841F480710160A1
S31508004C0002F0ECF900F019F84846FFF78BFF08B9EF
S31508004C1001240CE0784D744FFFF7C7FED7F800A0C3
S31508004C2000F010F8C7F800A02E6002F0DDF900F0D9
S31508004C300CF9002CE4D0BDE8F0878046012080F30B
S31508004C4010887047386820F04000386002F0DCBAF7
S31508004C500220BBE710B56648664B0021416000227A
S31508004C608260016821F00201016060494A704FF0D4
S31508004C7000721A60887808B100228A70C8780128FC
S31508004C8015D16848684B012202601C68E20702D504
S31508004C900320C87010BD0222CA70016C634B41F034
S31508004CA001010164042062490860186010BDC878D3
S31508004CB0042804BF0522CA7010BD4C49487800284C
S31508004CC018BFFFF7C7BF01F023B92DE9F843474DD1
S31508004CD0287918B356E002F081F90446012080F3DA
S31508004CE01088E978032913D0434EDFF8FC8000F0DA
S31508004CF0A5F8D8F80090D8F8000020F04000C8F8C9
S31508004D00000002F081FAC8F80090376002F06CF9EA
S31508004D10002080F31088204602F06EF9E878032810
S31508004D20D9D13C4E3A4CB08820604FF6FF7771884F
S31508004D30B9420CD13F48018802237F22B01C00F0FB
S31508004D400BFA7088B84202D16421718001E070883C
S31508004D5078B1708838494A6D42F001024A650A6896
S31508004D60A368DE07FBD50B689B1AC3F313038342BC
S31508004D70F6D3FFF79DFE0420E8704FF4C870BDE82F
S31508004D80F24340E6BDE8F1832DE9F843174D28784C
S31508004D9008B12879E0B10021297022E002F01EF955
S31508004DA0FFF74BFFE978052910D0134E0E4C00F09B
S31508004DB045F8D4F80090206820F04000206002F002
S31508004DC023FAC4F80090376002F00EF900F03DF8B7
S31508004DD0E8780528E2D10021A970FFF7F7FE002040
S31508004DE02870BDE8F183000000800040D17F0020D4
S31508004DF010E000E004ED00E094ED00E01040004013
S31508004E000C0000400060E316084000401C400040CB
S31508004E1004400040187500205889020896070808BB
S31508004E203840004018A000400C40004000E100E077
S31508004E3080E200E05C890208382000403768306864
S31508004E4040084000306002F0CFB8002080F3108898
S31508004E50404602F0D1B80000636C6F636B732E6333
S31508004E6000000000002010B502F083F840F68C21FF
S31508004E7088426A4C04DA206840F00800206010BDB9
S31508004E80216821F00801216010BD38B5644D2988D4
S31508004E90044600F061F89DF800109DF80100FF290E
S31508004EA002BFFF2804200021220018BF801CC2B2BE
S31508004EB0082A5C4A136823F46073A8BF0720C0B2A7
S31508004EC043EAC013136008291068A8BF0721C00861
S31508004ED041EAC001116054490C7031BD80B5534890
S31508004EE0018800F039F8BDF800004FF6FF718842D6
S31508004EF004D14FF4E162ADF8002004E00A2190FBEA
S31508004F00F1F1ADF80010484A107810B3444801880A
S31508004F1002237F220DF1020000F01EF99DF803001E
S31508004F20BDF80030FF2808BF0420811CC9B2082933
S31508004F30A8BF0721C1F12F0202EBD272C0F12F00E0
S31508004F40521000FB0320C1F12F01B0FBF1F0ADF8C0
S31508004F500000BDF8000002BD02237F22684600F06B
S31508004F60FBB833490A68032809D34B6D43F001039C
S31508004F704B650B689B1AC3F313038342F9D3704737
S31508004F8010B5040004D110BD4FF47A70FFF7E9FF9D
S31508004F902046441E80B20028F6D110BD254908785F
S31508004FA068B9C878072818BF092814D0032818BF75
S31508004FB0112810D013281CBF15280B280BD01E4803
S31508004FC0016841F480720260C80504D45FF03801B4
S31508004FD01DA002F017B8704720B1012809D0032890
S31508004FE018D019E0154800291ABF17220260016077
S31508004FF010E039B1124800EB5100B0FBF1F0B0F106
S31508005000011F01D3202070470E4900F001024A60B3
S3150800501040080860002070472120704700BC004007
S315080050202689020818000040B87F00203C8902083B
S31508005030382000409607080838400040100004E071
S3150800504000366E0168C800407573625F6572726FDC
S31508005050722E6300F8B5054688B00020FFF715FFE5
S31508005060284801880A237F22684600F075F8BDF8AB
S3150800507002004FF6FF76B04240F005804FF4837188
S3150800508023A001F0BFFF002427A70EE0022C08BFCB
S315080050904EF23F023DF81410385DFFF753F9641CD1
S315080050A0052C05D2002C3246F0D14FF47C42F1E7AC
S315080050B0012D03D114237F22134802E014237F22F3
S315080050C0124801881AA703A800F046F800243246B9
S315080050D002E0082C08BF002203A830F81410385D37
S315080050E0FFF730F9641C0A2C05D2012C3246F0D1A0
S315080050F04FF6C072F0E7012D04BF0120FFF7C5FE89
S3150800510009B0F0BD228902081E8902081A89020818
S31508005110616E616C6F6775652D63656C6C2D626970
S3150800512061732E630000000000100C0D0E000000D5
S31508005130010203040708090A0B0F000038B51546D3
S315080051407F2A08BF0025304C21431A4605FB031168
S31508005150BDE8384002F05CB870B51E000446154636
S315080051601AD04BF23462914210D1092E28BF082674
S3150800517033467F2240F61201FFF7E0FF3246234905
S31508005180204602F093F838B940F2A27133462A460F
S315080051902046BDE87040D1E770BD2DE9F0410C46C8
S315080051A016461949DFF86880C20741EA000502D5A4
S315080051B0792100F033F8F00702D57A2100F02EF8AD
S315080051C01448854204D37019401E1349884202D3F5
S315080051D07B2100F023F8002706E0E85DFF2802D0CF
S315080051E0822100F01BF87F1CB742F6D372082146CD
S315080051F0284602F0B9F828B14046BDE8F0418821B2
S3150800520001F000BFBDE8F081000008089C84020890
S31508005210908402080008080800100808404601F0B3
S31508005220F1BEF0B40246106895681318506803EB8F
S315080052305004C00748BF4D44A3422DD013F8016B54
S3150800524016F0030004BF13F8010BC01C31090F291F
S3150800525007D113F8011B0F3103E013F8017B05F89A
S31508005260017B401EF9D10029E6D013F8010BC6F3DD
S315080052708106032E08BF13F8016B00EB0620404297
S3150800528028440026B71E8F421EBF10F8017B05F87A
S31508005290017B761CF6D1CFE7F0BC02F10C00704713
S315080052A010B5DFF878481020206301F097FEDFF884
S315080052B070180A6842F001020A6001F09DFEDFF8E4
S315080052C06408606020600122616889316160226338
S315080052D08A30E060A0600221E068DFF84C28893057
S315080052E0E06021634FF6FF70106010BDDFF83C08E0
S315080052F045F26401C1601E22426250210162C82241
S31508005300C261826545F69001F022C265416688222F
S3150800531082660621C16644F2066202604FF6FF7392
S31508005320DFF80C184360087838B1DFF8080848F247
S31508005330607101604FF4C1524260DFF8FC07DFF884
S31508005340FC27016841F00401016000205070704795
S31508005350DFF8D407016811F0190F03D100210220E4
S3150800536002F046B870472DE9F84F8146DFF8D017A6
S31508005370DFF8D057012002F099F800F0BCF80320B6
S3150800538002F036F88A22DFF89C1702FB09F28E181B
S31508005390711CDFF8B4274B780F78DFF8B01707EBE6
S315080053A003271378BFB201EB090A0B700020BA066F
S315080053B08AF8020001D5686E010640F19A8007F066
S315080053C0070BBBF1030F4FF0000869D107F44061E2
S315080053D007F44040B1F5806F1CBFB0F5804F002838
S315080053E05ED00422B1F5006F08BF082203D0B1F5DC
S315080053F0406F08BF0E2279065CBF921CD2B2B0F588
S31508005400004F03D1931CDBB2009303E002F10801BD
S31508005410C9B20091009C641C04EBD474E405240E04
S315080054205FEA090114BF69682968A14238D3B1182F
S31508005430B0F5404F05D1084602F0E0F88046B8B905
S315080054402EE04978B05C00EB012080B202F062FBE6
S31508005450FF2808D0DFF8F8160A6832F8100010F4AA
S31508005460E66F03D11CE0BBF1030F19D14FF0010819
S31508005470380715D45FEA090014BF68682868611CF4
S31508005480884207D2E8685FEA090214BF02210121AF
S315080054900842EFD10098315C042918BF4FF0000884
S315080054A0E86D000900F0010080458AF8020020D066
S315080054B0B8F1000FAA6C4FF400604FF480610BD06E
S315080054C0B9F1000F08BF0846024212D0686C40F0D6
S315080054D00100686401210AE0B9F1000F08BF084617
S315080054E0024206D0686C40084000686400218AF8C9
S315080054F00210BDE8F18FA96C490801F00101704757
S315080055002DE9FE4F0446DFF83C56DFF840662000DA
S315080055100CBF28686868C1B2042905DC00F0B6F833
S315080055207068401C7060AFE041008DF800108A2258
S31508005530DFF8F0859DF80010624308EB020949443C
S31508005540A1F1080701923878797801EB0020B9783B
S3150800555066311FFA80FBB970307818B9DFF8E8159C
S3150800556008783070002132783A70317002F0A2FB68
S315080055707870DFF8B475386C20F4805038642000F1
S31508005580686E23D17868410525D41BF4E45F73D18E
S3150800559000F0C5FF10B15FEA4B406DD5019918F8C8
S315080055A00100802868DA386C99F801108A062644C2
S315080055B044D5696E0A063BD4A96CCA0638D439683C
S315080055C023000CBF80224FF480722EE0012CDCD120
S315080055D078680105D9D5DFF87C150878C0B10022AE
S315080055E01BF4E45F0A70DFF8706502D0316840206A
S315080055F00BE099F80100000900F0010A514629203C
S3150800560001F0F6FE316852468F2002F068FC04E08D
S31508005610FFF771FF092001F0EBFE20000CBF4FF4E5
S3150800562080604FF40060786028E00840104205D09A
S31508005630FFF761FF052001F0DBFE14E000F011FF23
S3150800564050B199F80100810606D500F028FF18B177
S31508005650FFF751FF062002E0FFF74DFF092001F092
S31508005660C7FE0020B070B2789DF80010484602F0D8
S3150800567074FD0020B07001E000F008F8002C07BFA8
S315080056800120286102212961BDE8F78FA96C490824
S3150800569001F00101042001F0ABBE2DE9F84FDFF857
S315080056A08864DFF8A0743568306CDFF8B084DFF8FA
S315080056B0A494DFF8ACA4DFF888B405403AE071B1E9
S315080056C08A21DFF86024484310444378D80606D474
S315080056D0DFF88434196800228F2002F000FC2806BF
S315080056E008D50CB900F0A4F802F083FD802025F057
S315080056F080053060E90509D50CB900F099F802F083
S3150800570078FD4FF4807025F480753060690407D5FC
S315080057100CB900F086F84FF4804025F480453060D7
S31508005720290407D50CB900F07CF84FF4004025F49D
S3150800573000453060002D70D00024280706D50020CB
S31508005740FFF711FE082025F008053060E90606D5A2
S315080057500120FFF708FE102025F01005306005F03F
S315080057606001602903D1B86CC1050AD401E0A80616
S3150800577005D5202125F020053160002006E06806C1
S3150800578006D5402125F0400531600120FFF7B8FE17
S31508005790E80404D54FF4805125F480553160E807B4
S315080057A09DD5012131606D0801F020FE6D0060B1C4
S315080057B04FF448725946012001F01CFEB96CFFF7F8
S315080057C09BFE012001F014FE01249AF8010008B19D
S315080057D000F0D8F99AF80000002806D000F007FE75
S315080057E0012807D199F8000000283FF478AF98F807
S315080057F0001004297FF473AFF868400800F0010030
S31508005800002814BF7968396811B93168CA04F7D510
S31508005810002814BF7968396851E700203060BDE870
S31508005820F18FB96C490801F00101072001F0E0BDCC
S31508005830B96C490801F00101082001F0D9BDDFF86B
S315080058402403006870470021DFF81C23101D30F878
S3150800585011305B1C20F81130491C02EB41035888B3
S3150800586008B90829F2D3704738B50446FFF7EBFFA5
S31508005870DFF8F4521022291D204601F0C9FC05F173
S315080058801401204602F068FDFFF7DDFF05F114015B
S31508005890281D02F061FD214605F11400BDE83840D7
S315080058A0102201F0B5BCF8B5DFF8C06237780546B6
S315080058B001203070380008D10021032001F0FCFADD
S315080058C00F2401F014FB641EFBD105B12F7030784C
S315080058D0F2BD002800D0704710B5DFF89042207856
S315080058E018B101F040FB0020207010BDF8B5FFF795
S315080058F0BBFF0025DFF8706200270F2401F0F7FAD6
S31508005900641EFBD1311DC0F3801031F81520B84054
S315080059104240301D7F1C20F815200F2FEDD96D1C35
S315080059200F2DE9D9F1BD10B50446FEF7B1FC2046A6
S31508005930FFF7DCFFFEF7ACFC8B4801210170416ADA
S315080059401029BCBF491C4162012010BD38B584B07E
S3150800595000F011F80446844D05E06846FFF7E3FFBA
S31508005960044018BF0124696A1029F6DB00F005F81F
S31508005970204605B030BD002095E70020A9E72DE9AF
S31508005980F843794F8846397884B00446914601250C
S3150800599051B9FFF7F0FF060018BF01266846FFF762
S315080059A0C2FF064208BF0025002620E016F00700C1
S315080059B016D15FEA090007D0FFF7DDFF054018BFDB
S315080059C001256846FFF792FFFFF73DFF1022391DB4
S315080059D0684601F01DFC07F11401684602F0BCFC9C
S315080059E006F007013DF8112024F81620761C4645D6
S315080059F0DCDB6846FFF738FFFFF7BFFF284605B030
S31508005A00BDE8F08370B5044657480D46416A10292B
S31508005A10164602DAFFF79AFF28B13246294620468B
S31508005A20BDE87040ABE770BD0022EBE780B5002209
S31508005A30FFF7A5FF4C494A6A102ABCBF00234B62F0
S31508005A4002BD0321022001F037BA7CB501F04FFAF6
S31508005A504FF6FF76464D301A292190FBF1F4287847
S31508005A603A34C0B90321032001F026FA41480188D7
S31508005A7002237F226846FFF76FFB01F038FABDF86C
S31508005A800010401880B2361A292096FBF0F025300F
S31508005A9001216870297001F066FA6878241A60B2E4
S31508005AA076BD70B5344908780024B0B903210220C0
S31508005AB001F002FAFFF7C9FF204E0546707848B193
S31508005AC03078401B40B202F050FC0B2805DB3570DD
S31508005AD0012402E0012035707070204670BD274809
S31508005AE00078704725490B78984200D1704780B5F1
S31508005AF0087040B12249002008600948026822F06F
S31508005B008002026001BD00F08FFD00F067FD00F025
S31508005B10C6FCBDE8024000F0A7BC0000002000401B
S31508005B2084200040587E002000A000404C10004011
S31508005B305E750020D010004080200040BD7F002008
S31508005B4051530008202000405D7500202C78002065
S31508005B50A0730020B07A0020B87A002027750020AC
S31508005B60B97F00203820004034780020BF7F00200D
S31508005B70BB7F00203E89020828750020C07F0020D0
S31508005B8054100040704700003EB5DFF83C11DFF8BE
S31508005B903C510A6801A8012302602B70002002F01C
S31508005BA0E9FB002430B1002002F0E4FB10B12C70B0
S31508005BB049203EBDDFF81801018802237F22684686
S31508005BC000F026F802237F2200210DF1020000F0E2
S31508005BD01FF8002001A931F81020BDF800108A42EC
S31508005BE008BF0124401C0128F4D9002CBDF8020086
S31508005BF004D0B0F57F7F07D100203EBDB0F57F7F8A
S31508005C000CBF0620042000E00720002129703EBDB5
S31508005C1038B5B1F5807F09DADFF8B0502C7854B181
S31508005C2001B0BDE83040C9B202F0B0BF01B0BDE86E
S31508005C303040FFF791BA31BD38B5B1F5807F09DA42
S31508005C40DFF888502C7874B101B0BDE83040C9B28D
S31508005C5002F0CFBF7F2A08BF0022DFF87840214331
S31508005C6002FB0311016031BD2DE9F0410746B7F586
S31508005C70807F0C4615469846DFF85C0015DADFF893
S31508005C804C201178B1B1DFF85460327812B1CA21CC
S31508005C9001F0B8F901223270434622462946F8B285
S31508005CA003F01AFB0020307004E0BDE8F041D5216E
S31508005CB001F0A8B9BDE8F081DFF8102011780029B5
S31508005CC018BF03F045BC70470C890208B37F002053
S31508005CD0408902080000080810890208B47F0020DD
S31508005CE01FB50C4C21880A237F226846FFF734FA31
S31508005CF0BDF800004FF6FF74A04204D15FF05301CF
S31508005D0005A001F07FF9BDF8001022460020FEF735
S31508005D1019FB1FBD22890208616E616C6F67756584
S31508005D202D66696C7465722E63000000DFF804192D
S31508005D30087848B1DFF800090179012904BF4079DC
S31508005D40042801D101207047002070470FF69411EE
S31508005D504008085C7047010604D502464FF6F8303D
S31508005D6000EAC2007047491C800189B2B0FBF1F015
S31508005D7080B2B0F5807F2CBF0020C0F1FF00C0B212
S31508005D80704738B5DFF8B818C878012801D100205F
S31508005D9032BDDFF8B848607868B1E5780879451902
S31508005DA020798542A8BF054603F0E4FC012202FAE1
S31508005DB005F5691E084061790818C0B232BD2DE99B
S31508005DC0F047C207044605D54FF4D9710FF60410FB
S31508005DD001F018F9DFF87858286DC10748BF8C20FC
S31508005DE000F19480DFF85828DFF8606851780020C1
S31508005DF0107049B9307838B16078A96F400900F059
S31508005E00010041F0010103E0A96F4908002049009B
S31508005E10A9675071DFF820787078B979DFF8348887
S31508005E20DFF8349898B1002313710129286D40F0E2
S31508005E300400286507D14FF6FF70C9F800004FF433
S31508005E400071C8F80010FFF79CFF82460CE0286D29
S31508005E5020F00400012928654FF0000A04D100F05B
S31508005E6084FA6420FFF77DF8A86F20F00800A86779
S31508005E701421E964C5F848A0707830B1B8790028CB
S31508005E8001BFA86C00280121A964B0790028286DF3
S31508005E9014BF40F0080020F008002865FFF746FF09
S31508005EA028B1D9F8400040F00800C9F84000202081
S31508005EB028626C602C60042168687F3068602962FB
S31508005EC04FF4E064DFF89407046006E003F064FC2E
S31508005ED018B103F069FC01F081F8DFF8840701685E
S31508005EE001F003010329F1D0C8F80040286D40F0FD
S31508005EF001002865707810B90021252003E0B879DB
S31508005F0018B90021232001F073FA0020BDE8F087B4
S31508005F10DFF85007DFF85027DFF8503700214160D7
S31508005F208160016821F0020101604FF00070106085
S31508005F30012119707047332800D2704710B5B0F5A3
S31508005F40002F0CD2DFF8244700212170FEF734FD1C
S31508005F5002E0012003F0ECFE20780028F9D010BDFD
S31508005F602DE9F84FDFF8F086DFF8D476D8F8001078
S31508005F70D8F84000DFF8D86608401FFA80FAC8F853
S31508005F8000A07878002840F001815FEACA70DFF83F
S31508005F90E046DFF8B89651D53568306C716C41EA41
S31508005FA00041B96099F8000000283ED0687882065A
S31508005FB03BD501233B700021282001F019FAFFF791
S31508005FC0B5FE00283AD01920FEF7CBFFDFF8A4B6B5
S31508005FD04FF44040CBF82800DBF800100091E06E43
S31508005FE040F40050E066E06E40F48050E0662978A0
S31508005FF0B8684901B8310D18FFF721FC2D1AC5F309
S315080060001300FFF798FFE06E80098001E066E16EF5
S31508006010BDF800000143E16648F260700021CBF844
S315080060202810E066F988216008E000212B2001F09D
S31508006030DFF9B9680022002001F051FF5FEA0A6122
S315080060400ED5387830B1002139700022B968402061
S3150800605001F045FFD8F83C0020F48050C8F83C0011
S315080060605FEA4A610CD5787850B97979272001F02A
S31508006070BFF9FFF7E4FB01460022892001F02FFF54
S315080060805FEACA606BD5DFF8B0552879012804BFE6
S31508006090A879012828D10021232001F0A9F900F0C8
S315080060A018FC306F40F0010030670021A9714FF0ED
S315080060B0000AFFF7F5F80A20FEF753FF4FF6FF70C0
S315080060C0DFF89025C8F800004FF4E0611160092355
S315080060D0B3660120B064B16F41F00801B167306D55
S315080060E040F0010030653AE03879401C3871C0B29A
S315080060F099F80210884225D2FFF743FE8346BBF182
S3150800610001018941C90F242001F072F92879012873
S3150800611002D100F0FDF803E00021232001F068F920
S31508006120B06F20F00800B0671421B166C6F848B011
S315080061304FF40070DFF81C150860326D42F001025A
S3150800614032650CE0787850B97979262001F050F953
S31508006150FFF775FB014600228D2001F0C0FE5FEABD
S315080061600A7013D5FFF7E2FD48B12068F8800121CF
S315080061702160D8F8400020F00800C8F8400099F8D7
S31508006180010018B10021252001F032F95FEA8A6082
S315080061900ED520213162787850B97979272001F017
S315080061A027F9FFF74CFB01460022882001F097FEED
S315080061B0787840B11AF4407F05D100212B2001F0F0
S315080061C017F90120B870BDE8F18FDFF8B004008830
S315080061D07047DFF8681420B1086840F4404008604A
S315080061E070470A6822F440420A6070477CB5054643
S315080061F0FEF76DFADFF88804DFF84844DFF83864FC
S31508006200002101601522E260092101651F22426012
S3150800621001210166DFF864040088FEF7D8F8FFF765
S3150800622065F803F0DFFD00F03DF93089606171899A
S31508006230216100F0D3FE616841F04001616000F021
S31508006240DBFE707800F0F9F8B07800F00DF9DFF8A9
S315080062503404007800F03DF9DFF82C0490F90000CA
S31508006260FEF778FA307800F0AAF996F9030000F0FC
S31508006270B5F9DFF81804018800F0D1F9BDF8000077
S31508006280C105DFF80C1448BF00200870DFF80404C5
S315080062900078FEF723FA28B14FF485610FF23440EF
S315080062A000F0B0FE012D09D12068C10715D500F010
S315080062B02FF800212C2001F09BF80EE06DB920681C
S315080062C0C1070AD400F005FB206840F001002060F1
S315080062D0C820FEF746FE0020B071F120DFF878539B
S315080062E0286440F2F911E96301F080F8FFF771FFBD
S315080062F0FEF7D6FF2068C10707D54FF6FF70DFF80F
S31508006300541328604FF4E0620A60FEF73DFD73BD42
S3150800631070B5DFF88453DFF820432E68A07901288A
S3150800632022D000F05BFEB6B2DFF830232E604FF4C1
S31508006330E0611160DFF840130B6A5B085B000B62D3
S315080063400A68520852000A600B6843F002030B60A1
S315080063504A6A42F001024A620121A17100F04CFE2C
S31508006360BDE8704000F091BA70BD70B5DFF8C8524C
S31508006370A87950B300F0ADFA00F030FE0446DFF815
S315080063801C13DFF8C462012008600021306D40F05C
S3150800639001003065A971FEF783FF20203060316B5C
S315080063A041F002013163F06D40F00800F0652046C7
S315080063B000F022FE0A20FEF7D4FDA749A54B4FF6AA
S315080063C0FF7008604FF4E0621A6070BD9A488079E1
S315080063D0704799480179012900D0704780B5FFF7C1
S315080063E097FFBDE8044000212C2001F001B892482F
S315080063F00079704780B5022801DB012002BD8E496D
S3150800640008718979884209D010B9FFF7AEFF05E00F
S31508006410FFF77EFF00212C2000F0EAFF002002BDD6
S315080064209F480068800200149A3801B211F1800F63
S31508006430B8BF6FF07F0040B2704710B5044600F051
S31508006440CDFD98490A68002C04D042F012020A6071
S31508006450012103E022F012020A600021764A5170F7
S3150800646049E075484078704738B5044600F0B6FDEF
S315080064700546FFF734FB58B921008A4804D002685C
S3150800648042F08002026003E0016821F080010160A9
S31508006490694884702846BDE8324000F0ADBD6648BC
S315080064A080787047804A53781078804900EB032338
S315080064B00B609078D37800EB03234B6010795379FF
S315080064C000EB03238B609079D37900EB0323CB6031
S315080064D0704710B5044600F081FD2200714904D0CA
S315080064E00B6843F020030B6003E00A6822F02002E1
S315080064F00A6064490C70BDE8104000F07DBD4E4846
S31508006500008970474C496A4A0881106070474A48B2
S31508006510408970474849674A48811060704766480D
S31508006520007870475448816A41F00201816201226D
S3150800653002607047504800210160826A22F0020218
S3150800654082625020FEF70DBD10B55C485C490269B1
S315080065500A800124C3695B4A4B80D36C8B80002177
S31508006560016145498B6A43F002038B620C60C46182
S315080065700023436203624CF25D03D36448F20203CC
S31508006580116841F4004111604FF400420260036053
S3150800659010BD80B5FFF7CEFF48484FF400410160B3
S315080065A00022484902600B68454A23F400430B6001
S315080065B09388CB64118801615288C26101BD0200CB
S315080065C0204904D00B6843F002030B6003E00A6815
S315080065D022F002020A6018490870704738B57F2809
S315080065E004460AD1384C218800F019F8BDF8000095
S315080065F0C10554BF04466FF04A0400F0EFFC054697
S31508006600FFF76DFA28B960B29A3080052F49000C59
S3150800661008600948C470284600F0EEFC31BD022324
S315080066207F226846FEF798BD034890F90300704735
S3150800663000000000D87F00202275002040A00040FE
S31508006640B07A00208020004030200040BC74002032
S315080066501020004000E100E004A0004080E100E0D6
S31508006660A820004010E000E004ED00E0D97F0020FB
S3150800667064100040E410004060200040747400205C
S315080066805C100040D77F0020687400205A890208F1
S31508006690B57F00205D7500201C10004028100040C2
S315080066A00C10004084200040D47A00209820004036
S315080066B094200040902000407D750020181000406E
S315080066C08C7F0020C01000406089020854100040EA
S315080066D0704700007068792D636F6D6D6F6E2E635D
S315080066E000000000FEF7C80170B503F087FBEFF362
S315080066F00880001F96494FF0CD3201E040F8042982
S315080067008842FBD203F004FC03F092FC914A9248BB
S3150800671092B2002100F0C3FD0120FEF703FA002023
S31508006720FEF7B3FB8D4C206840F008002060FDF7AB
S31508006730A7FDFEF797FB00F05EF80D8805604E880A
S31508006740466088881060CD88556008891860498930
S31508006750596000F09AF8206820F01000206003F0D5
S3150800676005FDFDF74CFD03F0ECFCFEF771FAFDF7AD
S3150800677085FDBDE87040FDF79FBD38B503F014FFF1
S3150800678004F073F803F039FD754976480A78C26053
S315080067904B78754AD360754B8978D960744900F08F
S315080067A001F831BD0C8804604D8845608888106002
S315080067B0CC8854600889186049895960704738B58B
S315080067C0FEF792F9FEF74EFB00F015F8FFF7EAFF21
S315080067D000F05BF86148016821F01001016003F0E0
S315080067E0C5FCFDF70CFDFEF770FA04F03FF8BDE8AE
S315080067F0314003F0F5BE5F495A480A78C2604B78C3
S31508006800594AD360594B8978D9605B497047F0B5C6
S315080068100F249E0004FA06F61568304215D00026A5
S31508006820F7B207EB830C20FA0CF7FF0709D5B70078
S315080068309C4604FA07F731F81CE0BD4307EA0E0741
S315080068403D43761CF7B2042FEAD31560F0BDF0B5C8
S31508006850FF26DC00A6401568304214D00026012425
S31508006860F7B207EBC30C20FA0CF7FF0707D504FAB3
S3150800687006F711F803C0BD4307EA0C073D43761C2B
S31508006880F7B2082FECD31560F0BD2DE9F8430021C7
S315080068900A2000F0ADFD04F087F8384C2068B0B146
S315080068A000262F4FDFF8BC9000F037F8761CF0B2C0
S315080068B00328F9D3DFF8B8800027002600F03CF853
S315080068C000F034F8761C7F1CF0B20328F6D3BDE836
S315080068D0F1832DE9F84300210B2000F089FD04F02F
S315080068E070F8264C2068B0B10026224FDFF8749065
S315080068F000F013F8761CF0B20328F9D3DFF8788095
S315080069000027002600F018F800F010F8761C7F1C07
S31508006910F0B20328F6D3BDE8F183300609EBD03090
S3150800692000F10C022068F3B2394690E77F1C206814
S31508006930FBB22A1D41466AE7300609EBD0352068C6
S31508006940FBB22A46414662E70320FFF7B5B90000C5
S31508006950286A0020F42D00009800002000BC0040A2
S315080069601874002000B0004000B2004000B4004097
S315080069700C74002008740020FC7300201C7400208E
S3150800698010B503F07BFA044603F07CFAC0B220B9CE
S31508006990012C0BD144F0800010BD072CFAD8DFE893
S315080069A004F005040709090B0D0FF3E7002010BDD5
S315080069B0092010BD022010BD032010BD0B2010BDFC
S315080069C0062010BD29490A68920992010A60002228
S315080069D00B68184308604FF40041254801600260BF
S315080069E06420FEF7BEBA2DE9F047224D1F4FD5F8B1
S315080069F00090214C8046286840F400402860396899
S31508006A0021F480513960207850B11C486278A17809
S31508006A1010F822608E1B414610F82100861902E004
S31508006A20012120262170B0B2FFF7CCFF0FF2500AE1
S31508006A3002E0B0B2FFF7C6FF386B042805D0386B02
S31508006A40410754BF761E761CF3E7F86A28B94FF457
S31508006A509271504600F0D6FAEEE784F80180A670E7
S31508006A601FFA89F02860BDE8F0870000D0100040C2
S31508006A70181000401C100040417C002066480008A1
S31508006A80616E616C6F6775652D76636F2E630000A6
S31508006A9081014FF4FE5289B20C20FDF753BC2DE953
S31508006AA0F84F904DDFF840B2AE682F6800F05BFAF9
S31508006AB00124B020B6B24FF0000A4FF00A09A046EA
S31508006AC0BFB2286313E01AF1190F0ADA4FF00A0960
S31508006AD007E004F500402860BAF11A0FF3DB6FF0FF
S31508006AE00909CA440FFA8AFA0AEB0600A860DBF815
S31508006AF00000010702D558EA040023D00120FEF75A
S31508006B0030FAB8F1000F13D0F81E844205DAE41CF7
S31508006B10A4B204F500412960DEE707F500402860C5
S31508006B200621092000F0C8F93C464FF00008D3E7D3
S31508006B30DBF800000107CFD5042CA6BFE41EA4B2DB
S31508006B400024C6E7AE602F600820CBF8000067492E
S31508006B50086880B2BDE8F28F10B5614C644A2178A6
S31508006B604FF0FF3371B110B15360624803E0002162
S31508006B70516041F2111010605F4841880088BDE8F5
S31508006B8010408CE7002819BF5360136050601160ED
S31508006B9000F0E9F9BDE810400621092000F0DDB94A
S31508006BA038B50120FFF7D8FF04460020FFF7D4FFC9
S31508006BB005460120FFF7D0FF4042041B04EB4504BD
S31508006BC020B232BD2DE9FE4F4C4C4D4DA16A444FC3
S31508006BD0ADF802104FF000082268ADF80020D5F88D
S31508006BE000A0387858B14FF6FF7200210820FDF74B
S31508006BF0A1FB8046C022C0210820FDF7A3FB41491E
S31508006C00DFF80491087818B148F26071C9F80010E5
S31508006C1002217888384E40F4404040F04C00C9F8CC
S31508006C203C00A1620120206040F24C40FEF799F931
S31508006C300120E8602860002232804023738038787B
S31508006C4000B12020FFF724FFFFF7AAFF402131807B
S31508006C507F22834672807F20FFF71AFFFFF7A0FF87
S31508006C600290584601F081FB02990646FE20ABEBDE
S31508006C70010146430191387850B1029801F075FB3D
S31508006C808346019801F071FB80B206EB8B1603E090
S31508006C90084601F06AFB80B20221B6FBF0F61FFA3D
S31508006CA08AF0286000220020E8602160B6B2BDF8AC
S31508006CB000002060761CBDF80210A162C9F83C20CD
S31508006CC0F603387828B14FF6FF7241460820FDF7DB
S31508006CD039FB40F24C40FEF744F9300CBDE8FE8F14
S31508006CE01E750020C010004018A00040007000402B
S31508006CF038100040EEEEFFFF887F0020602000403D
S31508006D00281000405E750020D010004041003F2248
S31508006D1089B201E001463F220220FDF713BB2DE9A7
S31508006D20F04F5849584D93B0CA6CADF808204FF645
S31508006D30FF720B68ADF806300021E86AADF804006A
S31508006D4000240120FDF7F6FAADF802004FF6FF72AF
S31508006D5000210B20FDF7EEFAADF800004FF40040D5
S31508006D604849086000222A616A6148F2020100F077
S31508006D7093F844494CF68C30C86448F2F002EA624B
S31508006D8001204FF480521146FDF7DCFA4FF6FF72E8
S31508006D9000210B20FDF7D6FA0621062000F0DDF8C3
S31508006DA0814600F084F8064636494CF69C30C8649D
S31508006DB00020FFF7ABFF0621062000F07DF8A0B201
S31508006DC0FFF7A4FF0621062000F076F800F08FF8FA
S31508006DD003A921F81400641C202CF0DB00F087F8C6
S31508006DE01020FFF793FF00F062F8811BBDF82C0016
S31508006DF0A0EB090001FB01FA00FB00AA10241127E9
S31508006E000DF10C0800F04DF800F051F800F03EF8CE
S31508006E1004DB3C467F1C202F8246F3DBA0B21028F9
S31508006E200DD10F2700F03DF800F041F800F02EF8DC
S31508006E3005DB3C467F1E3FB2002F8246F2D511483D
S31508006E40BDF80810C1644FF6FF76BDF8062002604B
S31508006E503246BDF80400E8620120BDF80210FDF7CD
S31508006E6071FABDF8001032460B20FDF76BFA0120C7
S31508006E702861002100F010F86000C0B213B0BDE828
S31508006E80F08F0000C010004018100040801B4043DF
S31508006E900BFB0B0050457047296040F24C40FEF74B
S31508006EA060B838F81700A0EB090BB8B22EE7062130
S31508006EB0072000F052B8000070B504460D4603F0EE
S31508006EC0A9FD3F4E306C20F008003064E40103F061
S31508006ED0A3FD00F083F844F001043A4944EA053476
S31508006EE00C6008223260BDE8704000F085B82DE9D4
S31508006EF0F041354C354D324E25E003F08BFD3449D3
S31508006F0004200860326C42F0080232642F68286850
S31508006F1040084000286000F067F8D4F80080206830
S31508006F2020F04000206000F06FF9C4F800802F6060
S31508006F3000F05AF8306C20F0080030640421254827
S31508006F40016003F069FD31680807D6D50821224A91
S31508006F503160106880B2BDE8F08180B5FFF7ACFFFC
S31508006F60BDE80140C3E717480168490849000160C0
S31508006F707047F8B50446FDF7B1FF054621460320DC
S31508006F80FFF7EBFF064621460120FFF7E6FF074617
S31508006F90FDF7CFF921460020FFF7DFFF0446FDF78E
S31508006FA0C7F90848016849084900A41B0160240478
S31508006FB0BE1BB4FBF6F045436D00280CF2BD00007D
S31508006FC018A00040047000400080004094ED00E0E6
S31508006FD000E100E080E200E000700040EFF311807D
S31508006FE0602181F311887047BFF35F8FBFF34F8F1E
S31508006FF0BFF36F8F7047000080F311887047000059
S3150800700042DE704738B504460D46FDF741F9FFF7ED
S31508007010E5FF2946204603F026FD2B4622466D4904
S31508007020012003F074FE29462046BDE83440E7E710
S3150800703069482DE9F843694E0168B1654FF420683F
S31508007040026A6749F2650B683366416A7166826A45
S31508007050B266C16AF166026B3267806B96F83810C1
S31508007060706748074CBF346CF46B02F0AFFF002121
S315080070703165A146706506F18C015A4BDFF868C187
S315080070805A4A844224BFA2F12005A54219D3A06911
S315080070907064B06DE469B464C0F30800062814D1BE
S315080070A0706C604511D398420FD200884DF6426441
S315080070B0A0420AD17068B46848608C6040F20178D2
S315080070C003E000247464B4648146706D484CA042A1
S315080070D002D2204600E0001D0446944203D2056809
S315080070E0B5F1CD3FF7D04348041BF46400200024D3
S315080070F000F084F8401CC7B2062FF9D3002091454A
S315080071002CD252F8044D6445F9D39C42F7D2E507D0
S31508007110F5D54FF0000E06F1780555F82E70A74202
S3150800712004D00EF1010EBEF1060FF6D3BEF1060F1E
S31508007130E5D1C5B2002D0CBF0520401E00F05EF853
S31508007140DDE7B26F002306F1780506EB8304E46FEA
S3150800715045F823405B1C042BF7D90A600246501EEB
S31508007160D2B2002AEDD1B06DC0F3080002280AD0C9
S31508007170032815D0042816D0052817D0062818D0B5
S315080071800C281CD01EE01C480268910748BF40F630
S3150800719002181CD40068C10719D540F2025816E037
S315080071A040F6012813E040F6022810E040F60328CE
S315080071B00DE0B8F5206F0AD140F6042807E040F63E
S315080071C0052804E018B1242838BF40F607284046A9
S315080071D0BDE8F283F883020804ED00E00000002011
S315080071E000E300E0F8830208904100088873002055
S315080071F098000020887300201CA0004006F178073C
S31508007200C5B247F82540704700BF30BF00BF70477A
S3150800721070B5814224D210441144401E491E10E024
S3150800722011F8013900F80139121F11F8014900F85F
S31508007230014911F8015900F8015911F8016900F8D6
S31508007240016993B2042BEBDA93B2002B1EBF11F837
S31508007250013900F80139521EF6D170BD00F00DF85B
S3150800726093B2042BFADA93B2002B1EBF11F8013B36
S3150800727000F8013B521EF6D170BD11F8013B00F82B
S31508007280013B121F11F8014B00F8014B11F8015B85
S3150800729000F8015B11F8016B00F8016B70471300E9
S315080072A003D00A46194603F051BD704710B5034688
S315080072B000E0521E90B220B100F004F8F9D0001B8D
S315080072C000B210BD13F8010B11F8014BA04270472C
S315080072D04048018A40F6A772914204BF408A10F4DA
S315080072E07F4F03D1022801DB012070470020704739
S315080072F0000000002DE9F84F83468946364EDFF830
S31508007300D080FFF76BFE37680546306840084000B6
S315080073103060FFF769FE5FF0010088F80000FFF7AC
S31508007320D7FF20B940F20F112CA0FFF76BFE2948B2
S31508007330D0F828A049464BF48070D04704463760F9
S31508007340FFF752FE2846FFF757FE002088F8000090
S3150800735024A50CB1285D04E049464BF40070D047DB
S31508007360285CBDE8F28F00002DE9F84F81468A4671
S315080073704FEA4208184DFFF731FE2E68074628687F
S31508007380400840002860FFF72FFEFFF7A1FF20B94D
S315080073904FF4AA7111A0FFF735FE0E48D0F824B0B5
S315080073A00023424651464846D84704462E60FFF712
S315080073B01BFE3846FFF720FE0AA70CB1385D05E02C
S315080073C04346002251464846D847385CBDE8F28F06
S315080073D0D07F00200000080894ED00E0666C617319
S315080073E0682E6300000202024B4B46470020704796
S315080073F0002070472DE9F84305460E46300014462E
S3150800740003D1FEF71CFA24184BE02F46022F0FF281
S315080074103C1803DB4B214046FFF7F4FD102C05D240
S315080074202846B047BDE8F143FEF709BADFF81091E0
S3150800743059F8270018B153214046FFF7E3FDB4F584
S31508007440002F03D354214046FFF7DCFD49F8276097
S315080074503C4F3D4E95B9FFF7C1FD0546FEF7EFF9DE
S315080074602418A0B278600221200C386031602846C2
S31508007470FFF7C2FD306C40F0020011E0FFF7AEFDE9
S315080074800546FEF7DCF92418A0B2F8600421200CA2
S31508007490B86031602846FFF7AFFD306C40F0040055
S315080074A03064C4F31300BDE8F283000070B50446E7
S315080074B02646022E0D4604DB5FF0770123A0FFF770
S315080074C0A1FDFFF78BFD1E4951F82620AA4210D1CF
S315080074D0002341F82630002C1B490A6C04D122F0FF
S315080074E002020A64022303E022F004020A64042367
S315080074F00B60BDE87040FFF77FBD70B5124C104EAB
S315080075002568206C0540ADB2A9070AD5206C20F085
S315080075100200206431680A0003D00023336000208B
S31508007520884769070AD5206C20F004002064716832
S31508007530080003D00022726001208847256070BDCC
S315080075407C7B00204020004008A0004073796D62D3
S315080075506F6C2D74696D65722E630000DFF88815EF
S3150800756000200870FF21DFF884050170417070471C
S31508007570F8B5044603F019FC0546DFF87405DFF88C
S315080075806C750688204603F08BFDB0F5006F16D1A2
S31508007590204603F0A9FD00F0BDFAFF280DD000F043
S315080075A02CFA2146781C04F05BF9DFF83C251078A4
S315080075B080B11089AD192E1A11E09320F2BDFF2172
S315080075C0384604F078F9052802DA21463846EAE70B
S315080075D03920F2BD15813146104604F0E3F9B2B2FE
S315080075E00321204603F0D3FC03220521204603F09D
S315080075F0D9FC204603F067FE0020F2BDF8B5044624
S31508007600DFF8E8040078FF2811D0DFF8E854296885
S315080076100E5C3746384603F058FD014608222046D8
S31508007620FFF744FE28B12868C75DB742F2D10020AB
S31508007630F2BD0120F2BD2DE97C43044603F0D9FCD6
S31508007640060B204603F065FD0546204603F050FD6F
S31508007650B0F5404F06F0010614D1002E62D0294637
S31508007660002000F085F9FF2804465BD0002104F0CD
S3150800767025FC002856D000F0A1F940F0800205212B
S31508007680204646E0284604F093FF054600F042FAF5
S315080076900446FF2C08BF002045D0012000212246C1
S315080076A004F0B6FFDFF85024002ED2E9008948EA34
S315080076B0000349EA0109C2E900391FBFDFF83C6443
S315080076C0336833F8143013F4E66F2BD09B0623D5B2
S315080076D08DF8005069462D0A8DF80150012000F0FA
S315080076E047F9FF28054608D1316831F814204FF6C6
S315080076F0DF70024021F8142014E0002104F0DEFBBC
S3150800770080B10521284603F054FC40F0800205218B
S31508007710284603F047FC05E0D2E902452043294301
S31508007720C2E902010120BDE8768338B5044603F0B4
S31508007730B7FCB0F5006F0CBF01250025204603F005
S31508007740C4FC04462146284600F012F9FF280FD14A
S3150800775085B1204604F02CFF00F0DCF9FF281FBF96
S31508007760DFF898130A6832F8100010F4E26F01D0B7
S31508007770012032BD002032BD2DE9F04107460C46F6
S3150800778003F08EFCDFF86453B0F5006F0CBF681C7D
S3150800779028460078FF2809D0DFF858130968085CDE
S315080077A00646B74205D08E5D8642FAD10020BDE86E
S315080077B0F081FFF713FC80460521304603F0F9FBFC
S315080077C000F07F00471EFAB20521304603F0EAFBB7
S315080077D0200018BF312C01D0FFB207BBFFF7FEFB14
S315080077E00746304603F05CFCB0F5006F314605D11C
S315080077F0681C04F060F800F0E5F802E0284604F09A
S315080078005AF83846FFF7F8FB4046FFF7F5FB2146DE
S31508007810304605F055FF304603F063FD04E000F0FE
S31508007820D1F84046FFF7E8FB0120C0E710B503F0A2
S31508007830BCFAAD4C21892081411A88B200F0E6F8DD
S315080078404FF6FF71884202D10020207010BD014614
S315080078502046BDE8104004F0A5B84FF6FF70D5E005
S315080078602DE9FC4EA4480024D0E900230025AB42AC
S3150800787008BFA2427AD00126A2468346FFF7AEFB8E
S315080078808446DBE90001002700240AEA010306EA28
S315080078900002A34208BFA24217D0F2436FEA0A03C6
S315080078A010401940CBE900010127DBE9020130400D
S315080078B00AEA0101A14208BFA04206D0DBE902019B
S315080078C010401940CBE9020101246046FFF794FBFA
S315080078D0002F3CD08948016831F81500810736D554
S315080078E0874A136833F8157034B100F49870102875
S315080078F008BF4FF0010901D04FF00009814801780F
S31508007900CA070AD580490A68002042F825007F4838
S315080079100068415D41F0F001415589F001000442DB
S3150800792009D07648006830F8151041F4006120F84F
S31508007930151004F0F7FA002000903B461A2269A1B8
S31508007940032006F0A2FB4946384606F012FC4FEA29
S315080079504A0040EAD67A76006D1C402D06DADBE945
S3150800796000010022914208BF904287D1BDE8F38EFC
S315080079702DE9F04188465D4900281ABF491C0225B1
S3150800798008250878FF2814D05A4E3268175C3C46FA
S3150800799000F014F8000608D4204603F096FB0146CA
S315080079A02A464046FFF782FC30B13068045DBC4287
S315080079B0EED1FF20BDE8F0812046FBE705212046F1
S315080079C003F0F7BA70B50021202006F097FC474966
S315080079D04878FF2810D0474C21680D5C2E46304663
S315080079E003F082FB00F096F8FF2801D000F005F8B6
S315080079F02068865DAE42F2D170BD4049096831F80B
S31508007A00102042F0200221F8102070472DE9F84F87
S31508007A10824600BF3EA0354F0178364C8DF80010DF
S31508007A204FF6FF783E4600E07E1CFFF7D7FA814600
S31508007A30304603F061FF30BB20683178455C03218E
S31508007A40284603F09BFA82451DD3304603F01DFFF6
S31508007A502946684603F004FFEAE7684603F015FF7F
S31508007A60044603F0D0FA00F027F9FFF7A7FF00064F
S31508007A7003D44221204605F023FE204603F031FCBC
S31508007A8000F01BF926E0781C864208BFFFF79AFF2C
S31508007A904846FFF7B1FA3078FF2818D021680D5C00
S31508007AA0A9460321484603F069FAA0EB0A0B1FFA18
S31508007AB08BF20321484603F06AFA1FFA8BF0404519
S31508007AC098BF8046206810F80990A945E9D17A1C24
S31508007AD09642A9D1684603F00FFF0028BDD040465C
S31508007AE0BDE8F28F42574200DC7A00207F750020FD
S31508007AF0FC7400209873002098750020A07300205D
S31508007B009C7300207C7C0020A4730020EC7300206A
S31508007B10FF000000F8B50F4C2768060001D1FF20CA
S31508007B20F2BDFFF75BFA0C4D21682A7821F812603E
S31508007B3037F8021BB142FBD1FFF75EFA20682B78B3
S31508007B40B91E081A4010C2B29A4208BFFF20C0B236
S31508007B50F2BD00BF9C7300203F75002038B58048F1
S31508007B60804C00682060606048220021FFF797FB80
S31508007B707D4A2168107808704FF6FF712068002248
S31508007B804180027323685A730B2220688273032389
S31508007B902268D3734FF6FE7320680382418201F090
S31508007BA0E9FD2168087601F0E5FD2168487601F0CF
S31508007BB0E1FD21686D4B88766D4821680278CA76A2
S31508007BC06C4920680A6840F8282F1D7805716A48AC
S31508007BD022680168116331BD10B5FCF7B4FD614C2C
S31508007BE06168897B884203D00846FCF7A4FD50B932
S31508007BF0FCF7ACFD616891F90F10884205D008467C
S31508007C00FCF7A8FD08B1012010BD6068008AFEF7E0
S31508007C1079FC6068408AFEF77DFC6068017B012973
S31508007C200CBF01200020FEF754FC002010BD10B543
S31508007C30524C0020207004F076FC20B92046BDE89E
S31508007C40104003F0A5BE72E080B5002000F015F8DC
S31508007C5028B1002000F005F808B1002002BDFF2079
S31508007C6002BD40480168487B02281CBF11284328EA
S31508007C7001D101207047002070473A480168087B07
S31508007C8001281CBF0228032801D1012070470020C3
S31508007C9070470020704770207047002070473849A9
S31508007CA0087070477047002070470120704770477A
S31508007CB000207047002070477047704700207047C3
S31508007CC080B50020FFF7CDFF20B10020FFF7D5FFD4
S31508007CD000B1012002BD80B50020FFF7C2FF08B140
S31508007CE0002002BDFF2002BD80B50020FFF7B9FFC6
S31508007CF030B11C4801680A7B032A01DA002002BD5C
S31508007D00FF2002BD10B5040000F0058040F27D1189
S31508007D1058A0FFF777F91A49087808B9702010BDF6
S31508007D200F49104B0A684820444310195860BDE8AB
S31508007D30104051E70B484168088A7047094841686E
S31508007D40488A7047074909684A690260C97E01710D
S31508007D5070470449096802684A610079C87670471D
S31508007D60C4730020CC7A0020A77F00204575002028
S31508007D7053750020C8730020CC730020BC7A0020FD
S31508007D807E7500207047002070470020704704F079
S31508007D9084B97047002818BF06F0DABD704707F0A7
S31508007DA080B807F0A8B982B08DF80010DDE9002385
S31508007DB011461A4602B007F009BA33B585B005462A
S31508007DC08DF8042007F0CCFA0446284607F0D8FABE
S31508007DD07CB10028BDF818000FD107F0C9FB8DF853
S31508007DE00000FF2804BF00218DF80010CDF808D048
S31508007DF016E0A8B106A8029012E007F0B9FB8DF8C4
S31508007E000000FF2804BF00218DF800109DF800002F
S31508007E10BDF818108DF80C0003AAADF80E100292E2
S31508007E20DDE901010A460146284607F0CFF907B001
S31508007E3030BD000073B582B00446154607F090FAC7
S31508007E400646204607F09CFA2EB120B903A98DF8FC
S31508007E500050019105E04FF4057100BF05A0FFF73A
S31508007E60D1F8DDE900010A460146204607F0AEF9D9
S31508007E707FBD0000656D6265722D6D756C74692D28
S31508007E806E6574776F726B2D737475622E6300005E
S31508007E90DFF818040021418001710022FF21417199
S31508007EA081710281428101704270704770B5402825
S31508007EB004461546DFF8F46303D1F1782A20FFF764
S31508007EC097FA280018BF012070703470DFF8E003B5
S31508007ED0007803F058FEBDE8704007F0BABB70B5ED
S31508007EE08D281CBF87288E2804460D46164601D1C4
S31508007EF007F0CFFB324629462046BDE87040D5E755
S31508007F00F8B5DFF8A463FFF769F806F17E052C7863
S31508007F10FF2C5DD0FF212970FFF76EF8002CA8789A
S31508007F2016BF8F2C01270027022803D040F217110D
S31508007F3000F096F88D2C18BF872C03D08E2C1CBF0A
S31508007F4000202871380012D0304600F0E0F870B1F1
S31508007F50687840B10121A9702921BDE8F440DFF80D
S31508007F60540303F01FBD00F08BF931202DE000F01B
S31508007F7087F9402C0ED107F0A1FBE878411EE9707D
S31508007F8000B3687903F0B0F8014600220420FFF731
S31508007F9014FF14E08D2C1CBF872C8E2C12D1687907
S31508007FA003F0A2F8014600222020FFF706FF2879F1
S31508007FB040B1401E2871C0B208B9BF494870BDE833
S31508007FC0F14050E007B100242046BDE8F240B1E098
S31508007FD0FFF712F8A878032804BF002000F0AAF8D3
S31508007FE0688958B1FEF7FAFF6C8900216981FFF7A5
S31508007FF003F8E2B200211D20FFF71CFF06F18400FA
S3150800800003F043FCFF2804460FD0FEF7E7FF298953
S315080080104A1E2A81FEF7F0FF204604F051F8A87898
S3150800802018B9BDE8F14003F002BFF1BD68E7A34AFD
S315080080301178002900D0704780B5012310281370E5
S3150800804003D04FF4CC7100F00BF89B480021417027
S315080080500122BDE808404FF4806193480EE1000014
S315080080609DA0FEF7CFBF80B5012007F04DFB9348D2
S315080080700021017021209249FFF7BAF948B1012879
S315080080800DD002280BD1002200218E20FFF70EFF0B
S3150800809005E001224FF48061834800F0EFF8BDE85F
S315080080A00240002007F030BB7CB5054600207E4E16
S315080080B08DF8000006F18004207818B140F2EB1123
S315080080C0FFF7CEFF02202070E5706A463146284643
S315080080D003F087FD784948707A487B4902786270D0
S315080080E00878A070FFF7BFFF73BD04F0D9B980B553
S315080080F0020008BF0122120174490020FFF77AF92D
S31508008100002002BD71490020FFF7D0B9704710B5AD
S31508008110441C204604F04CFA00F00700032807D157
S31508008120204602F0A1FF205C042801D1012010BDE1
S31508008130002010BD38B504465B4D7E220021284636
S31508008140FFF7ADF8002005F8800F03F070FEE97818
S315080081502046BDE8344003F06BBEF8B50D466F1FE8
S315080081600446FFB21646E05DFDF7F5FD2178FDF7FA
S31508008170FAFDE055FEF793F960B13EB12046FFF7E8
S31508008180C6FF18B1607840F0200002E0607800F081
S31508008190DF0060702946204603F026F90146FF29CC
S315080081A026D0414D4A4E05F18404204603F058FB7B
S315080081B035F8860F401C28803188288881420BD2E2
S315080081C06988491C698007E0204603F05EFB03F0D6
S315080081D088F82888411E2980328828888242F3D365
S315080081E03349087803F0CFFCBDE8F14007F031BA0F
S315080081F0F1BD10B52C4C94F88000012807D12D4804
S315080082000021017000F03CF8032184F8801010BDAD
S3150800821010B52849002008700024FEF7DFFE224921
S3150800822091F88020012A03D10322012481F88020B5
S31508008230FEF7E2FE2CB100F023F8BDE8104031202D
S3150800824078E710BD184890F88010481E8041C00F86
S315080082507047FEF7CFB8FEF7CAB880B51249B1F82D
S31508008260860030B901F1840003F046FB10B1012005
S3150800827002BD002002BD174803F045BB07F0ECB964
S31508008280FEF7A7B8084890F88010012901D1012007
S31508008290704700207047042801DB022070470A490E
S315080082A00870002070470000E87A0020667B0020EE
S315080082B0CB7F0020747B0020BC740020DB7F00206D
S315080082C02F80000881750020DA7F0020EB800008E7
S315080082D02E7500206C7B00206C6F7765722D6D61A2
S315080082E0632D65667233322E6300000002681749F3
S315080082F012BACA60426812BA8A60826812BA4A60BA
S31508008300C06800BA08607047704730B510498022C7
S315080083100A6006230F4A136007240C601568AB072A
S31508008320FCD5002350F823405B1C24BA042B8C622E
S31508008330F8D313685C07FCD500220B6B1BBA40F810
S315080083402230521C042AF8D330BD000038300040D1
S315080083500030004010A0004010B504460846FFF75C
S31508008360C5FF2046BDE81040CFE7002848BF404279
S31508008370704700002DE9F84F8046DFF87C902322ED
S31508008380FF214846FEF78BFFDFF870B04FF4A47262
S31508008390FF215846FEF783FF19481A4F1A4C0090DA
S315080083A04FF0230A0026A25D1849BD5D885D521C60
S315080083B002EBD272521000B11932154830F8161075
S315080083C00098D21C6A4305F026FE012D1CBF2BF827
S315080083D016A0AA44761C232EE5DB23234FF48052ED
S315080083E040F2CE510B4805F016FE49464046BDE818
S315080083F0F44F00F013BB00BF50770020087600202A
S31508008400F884020814860208F0850208CC8502085A
S31508008410848502081485020830B5DFF8445ADFF867
S31508008420444A2B882468C01A04EB4004002004E060
S3150800843034F8103021F81030401C9042F8DB002048
S3150800844030BDDFF81C3ADFF81C1A1A880968801A4A
S3150800845001EB40010220FEF74DBFF8B504460F4672
S315080084601646DFF8005AF0B208B34FF6FF70ADF8BB
S315080084700000002017F8011BC3B2401C0DF80310BA
S31508008480761EC1B2022902DAF1B20029F2D1DFF86A
S31508008490D0E92868BEF800301FFA84FCACEB030369
S315080084A000F014FF641C0100DDD000F0E6BB0120DB
S315080084B0F2BDF8B504460D461646F0B288B101225B
S315080084C000F010F8641C0020C2B2401C1DF80230EF
S315080084D0761EC7B2022F05F8013BEEDAF1B2002983
S315080084E0F2D1F1BD6946A0B296E70146DFF87809F0
S315080084F0DFF87829405C525CDFF8B43B595C09B177
S3150800850002F5997240EAC21080B2704710B5DFF8DA
S315080085105839DFF8A02B1C5C012C02D102EB400075
S3150800852010BD32F81000091802EB410010BD70B5F5
S3150800853090B005460C464FF6FF7604E0A8B2FFF762
S3150800854080FF203D2035A9B28C420FD320226946F0
S31508008550A8B2FFF761FF002082B23DF81230B3429D
S31508008560ECD1401C81B22029F6DBEBE710B070BDD8
S3150800857038B5044661882088FFF7D9FF0121DFF85E
S31508008580383BA171DFF8901C228818780D8882186C
S3150800859002EB4502921DA28031BD10B5DFF81C4BD7
S315080085A02046FFF7E5FF04F10800FFF7E1FF04F1B5
S315080085B01000FFF7DDFFDFF8640C04F108014460E2
S315080085C004F110028160C26010BD2DE9F043044633
S315080085D0DFF8E40A0778B946B9F1060F85B003DD76
S315080085E04FF4377100F001FB0021A1717A1C208835
S315080085F092B201A9FFF710FFBDF804104FF6FF76F7
S31508008600B14218BF002910D00DF10408711A38F8C4
S315080086101900884209D101254D454DDA38F815006B
S3150800862048B1BDF80410884215D02046FFF7A0FFD0
S3150800863005B0BDE8F083DFF8881C0A88208805FBAA
S3150800864002214118711805FB020089B280B2FFF7B2
S315080086506EFF0220A0716D1CDEE720883818C01C4A
S3150800866000F02EF8BDF80200000B4845DDD1208841
S315080086703818401D00F024F8BDF80210BDF80200B5
S31508008680711A000A01F0FF018842CED10320A071B9
S31508008690012220883F187F1C6946B8B2FFF7BCFE46
S315080086A0BDF80000FF2802D10421A171C0E7B0423D
S315080086B0BED00028B9D1BBE7A0790228CDD1B7E74B
S315080086C001220DF1020180B2A6E6F8B5DFF8EC69E1
S315080086D0DFF8485B002006F1080106F11002B071C8
S315080086E0B073B075A960EA606E603046FFF76DFF3B
S315080086F006F10800FFF769FF06F11000FFF765FFAE
S31508008700B179B07BDFF85C47042908D10022042838
S31508008710ADF800204CD1FFF740FF0120F2BDB17D36
S3150800872004282ED100200429ADF80000F3D03046E5
S31508008730FFF71EFF06F11000FFF71AFF2068DFF8A3
S315080087407839378900F081F8040047D10320B073DF
S31508008750B079032851D1B07B032802D1B07D012816
S315080087606AD0B079012851D1B07B03285BD1B07D9E
S31508008770012818BF0328CED106F1080006F110011A
S315080087805EE0042932D10020ADF800003046FFF73C
S31508008790EFFE06F10800FFF7EBFE2068DFF8183950
S315080087A0378A00F052F8040018D10320B0751DE08E
S315080087B0B07D0428AFD006F10800FFF7D9FE06F110
S315080087C01000FFF7D5FE2068DFF8EC38378800F090
S315080087D03CF8040002D10320B0710AE0204606F0F6
S315080087E0EDFE1CB14FF4747100F0FFF9B07903285F
S315080087F0AED1B07B0128AED1B0E70228B1D1B07BAB
S31508008800032804BFB07D012885D1B5E7032804BF36
S31508008810B07B0128F8D1B07D03280BD106F11000F2
S31508008820314608360CE0022812BF0128B07D03281D
S31508008830EAD1F3E70228E7D1304606F108011036F7
S315080088406860EE60A9600020F2BD1C78E719DFF8C1
S31508008850104623887F1CFF1A0122694600EB470051
S31508008860FEF782BD2DE9FE4F0646DFF84C08DFF815
S31508008870548ADFF8549A0F460178ADF80810012299
S3150800888034880C19641DFFF72DFEDFF88C19BDF826
S315080088900000B1F800A0641C000AADF800005045BD
S315080088A01CBF0121397000251AE0401CC1B2514590
S315080088B014D25FFA80FB39F81B10BDF806209142E6
S315080088C0F3D1C0B2FFF711FEBDF804304FF680723F
S315080088D010401340984208BF08F80B506D1CADB203
S315080088E0BDF80000854206DA022201A9FFF7FBFD62
S315080088F0A41C0020DAE70020D14601E0401C80B223
S31508008900484517DA18F800108142F7D00120387068
S3150800891010E021F815A00DE00128DFF89817F8D027
S31508008920BBF17F0F31F8150008BF4FF0000B8344E9
S3150800893021F81BA0A1B27088C01E88424FF6FF7AA4
S3150800894028DB00F066F8BDF80200FF25504521D067
S31508008950601C00F0B9FDBDF80200BDF80610AAEBD0
S315080089600002914213D104F1030A040A00F07F0BB6
S31508008970BDF8000084420ADA002000E0401C4845A1
S3150800898018DA18F80010A142F8D1C5B212E0012091
S3150800899038700DE0B4807088A1B2884208D300F020
S315080089A038F8BDF80200641C5045F4D0012139702E
S315080089B0BDE8F78F3088BDF80830181800EB44007A
S315080089C0801D012201A980B2FFF726FDBDF804002B
S315080089D0C0F3C710401C00EBD0700AEB6004708827
S315080089E0A1B28842D3D3FF2DA4D0DFF87C04405D22
S315080089F0BBF17F0F14BF59460021814286DABDF8C4
S31508008A000210DFF8AC26535D0906C90F994283D0D8
S31508008A107CE701220DF10201A0B2FDE4F8B58DF85C
S31508008A200000DFF8281BDFF83804DFF8EC47028877
S31508008A30DFF8880602800B884380DFF87C361D78CD
S31508008A402188DFF89C3BDFF89C4BAA1802EB410211
S31508008A50921D8280002282711A880281AA1802EB6E
S31508008A6041022388DFF8804B4381921D82810022D0
S31508008A708273DFF8783B1A880282AA1802EB410152
S31508008A80891D2388DFF894478182438200218175F6
S31508008A9006F041FE002851D12070FFF716FE9DF81A
S31508008AA00010084318BF01208DF8000001226068F5
S31508008AB00388ED18AD1CA11CA8B2FFF7ADFC9DF804
S31508008AC0000000283DD16068DFF8E8656946FFF7D1
S31508008AD0C9FEDFF8940B0588A0688179032922D19D
S31508008AE06946FFF7BFFE6168DFF87C23002010E0C7
S31508008AF0DFF824371F88B84202DA135C012B07D146
S31508008B0036F810300F88BB4224BF4F889F420AD2DE
S31508008B10401CA842ECDB02208871A1686068E26804
S31508008B206160A260E06000204FF6FF7200E0401C22
S31508008B30A84206DA36F810109142F8D101208DF8CD
S31508008B400000607828B1012100208DF800106070BF
S31508008B5002E09DF80000B8B14D2006F02FFD6088B0
S31508008B60401C6080E068FFF703FD9DF8000000F0F8
S31508008B7051F838B100F085F820B19DF8000000F0F2
S31508008B809FFA08B90120F2BD0020F2BDF8B50D46DE
S31508008B90DFF8841617467F2F0A8808BF00271E4667
S31508008BA095423EBFB04B595D8F42044604D2AF4A48
S31508008BB0535D9E4200D11CB940F2646100F015F87D
S31508008BC039462846FFF7A2FCDFF8281B0388485DCC
S31508008BD028B11946284600F09FFC2060F1BD3246B0
S31508008BE021461846BDE8F84063E40FF64430FEF720
S31508008BF009BA38B5044608461146FFF787FC984D6A
S31508008C000388DFF8F41A28880A681B1A02EB43025D
S31508008C10226031BDF8B5DFF80416924DDFF8A86674
S31508008C20002814BFC8688868DFF88C140488087898
S31508008C300419A41DA4B2002701E0A41C7F1CDFF8B8
S31508008C40D80501888F4216DAF8B2FFF74EFCADF860
S31508008C500000A3B236F81700DFF8A0CABCF800E097
S31508008C60ADF80200A3EB0E032868022200F02FFBE2
S31508008C700100E2D001E00120F2BD06F09FFC0020D1
S31508008C80F2BD2DE9F84FDFF89005DFF89025018849
S31508008C90744C84B00025ADF80810D168DFF81824A4
S31508008CA00E881078BDF80810861906EB4106B61D21
S31508008CB0B6B200E06D1CBDF80800854280F2C4809B
S31508008CC04FF0000A78E0BDF802105FFA8AF0014317
S31508008CD0ADF802104FF6FF72BDF8020060490F8822
S31508008CE0BDF80010121AADF804204FF6FF7320687D
S31508008CF0F21B761C994200EB4200B6B21DD100F079
S31508008D00BEF801002BD12068F71B012201A900EB50
S31508008D104700FEF729FB010021D1B61CB6B253481D
S31508008D20DFF8DC19A8F80060425D51F825103046D6
S31508008D30FFF793FB002838D18FE04C49495D491C61
S31508008D4001EBD1714FEAC15900F099F8010006D13B
S31508008D502068F31B012201A900F0BAFA010079D1B3
S31508008D60B61CB6B2D249A8F80060485D002845D0BE
S31508008D70DFF8A82410780021039128B103AA6946D0
S31508008D80A8B206F0CCFC05E0BDF80010E8B200F089
S31508008D90C3FB0390F71B20684FEA196203A900EB8F
S31508008DA04700FEF7E1FA010054D1DFF85819485D8B
S31508008DB08619B6B20AF1010A2B494F5D5FFA8AF0A5
S31508008DC0B842BFF477AF5FFA8AF1E8B2FFF79EFBC5
S31508008DD08046B749B8F80000ADF80000485DC00104
S31508008DE040EA0520012FADF802007FF46CAFBDF80C
S31508008DF0020040F07F00ADF802006BE74FF0000874
S31508008E005FFA88FBBBEB196FCFDADFF81014087826
S31508008E100028BDF8000004D100F02AF8FFF7FCFA94
S31508008E2003E000F025F806F078FC2068B344ABEBC5
S31508008E30070301220DF1060100F04AFA010008BFF6
S31508008E4008F10108DCD005E0DFF8D003C1688E80A0
S31508008E50012002E006F0B2FB00202AE30000000031
S31508008E60688902086074002014860208F0850208E2
S31508008E70411CADF8001001220DF1060170470122D0
S31508008E800DF10201FEF770BA2DE9F34F85B0002106
S31508008E908DF803104FF00C09BDF81810DFF8685864
S31508008EA0DFF86038DFF864685B5C298835684C0849
S31508008EB091FBF9F90393A1444D4528BFDB1808D265
S31508008EC0182691FBF6F1641AA54203D303EB530364
S31508008ED09BB203930025D14CADF806008DF804200B
S31508008EE000E06D1CCC4801888D4280F2CD800026BA
S31508008EF086E0012202A91FFA88F0FFF78DFAA36817
S31508008F00DFF8F8E79B88049800689B44BEF80030B1
S31508008F10ABEB0303012202A900F0DAF9010008F11C
S31508008F20010858D10AF1010A5FFA8AFBBBEB176FF1
S31508008F30DFDB38E05A5DBDF806308DF80220D3181D
S31508008F40ADF8063001235A4A8DF80330505DC30147
S31508008F5043EA0523BAF1010FADF8003040F08A80E4
S31508008F60BDF8002042F07F02ADF800208A88D21CA6
S31508008F708A800028DFF88017049100F08280414635
S31508008F80E8B200F0C9FAA368DFF870E702903A0E73
S31508008F9004989F88BEF800300068FB1A02A900F002
S31508008FA097F9010017D1BDF80000A368DFF84877E4
S31508008FB04FF6FF71091AADF808100122DFF83C17C1
S31508008FC09B88B1F8008038689B1EA3EB080302A9AA
S31508008FD000F07EF9010065D1A3689B883868DB1E1E
S31508008FE0A3EB080300F072F901005BD1A168888839
S31508008FF0A9F800008A889DF8020082188A80761CE3
S31508009000F1B2DFF80C0710F805A05145BFF469AFB7
S31508009010E8B2FFF77BFA8146DFF8F806475DBDF848
S315080090201800B9F800807F1C07EBD777FF05854243
S3150800903002BF9DF80410F0B28842E0D0606801884B
S31508009040884524BF40884045D9D3BDF80610039803
S31508009050814225DADFF8AC36A16813F805C088889E
S315080090604A886044C01C8242BFF664AF0121617021
S31508009070452017E0BDF80030F2B21343ADF80030D2
S3150800908074E74FF0000A4FE79DF8030040B960689F
S31508009090022181716068A168E2686160A260E0608F
S315080090A0012002E006F08AFA002007B0BDE8F08F3A
S315080090B0CC8502080876002086890208D07400202C
S315080090C02DE9FE4F5FEA0009544DDFF84C26DFF81C
S315080090D0287692F800A014BFE868A86801220188DB
S315080090E04D4800880291C0F1FF0101F0FF0141EAF5
S315080090F00021ADF80210029CDFF8001638680E88C9
S315080091005444631D9B1B0DF1020100F0E1F80100B8
S315080091105AD140F6227040EA0A30ADF80200E31C44
S3150800912038689B1B01220DF1020100F0D1F80100FD
S315080091304AD13868A31C9B1B0122A91C00EB4300DB
S31508009140FEF712F901003FD1601CA0EB06085FEAA2
S3150800915009004FF6FE7B07D0FF21ADF8021000F09C
S315080091605FF8010030D109E0686800880122694685
S31508009170FFF752F9BDF80000012802D1ADF800B09A
S3150800918002E0411EADF800104FF6FF72BDF8000070
S31508009190121AADF80420A41B3868012201A900EBB5
S315080091A04400FEF7E1F801000ED1029C5046A0F1FA
S315080091B0010A80B290B11FFA8AF338681B199B1B03
S315080091C000F084F80100F1D006F0F8F90020BDE8B7
S315080091D0FE8FA968032088710120F8E7B9F1000F0E
S315080091E0F7D0E968032088716868FFF7C1F9A868AD
S315080091F0FFF7BEF9EA686868A968AA60A8606960A6
S31508009200E8606A600020ADF80200E96000F008F83E
S315080092100100D9D1E0E7000074890208847A0020A9
S31508009220012238680DF1020100EB4800FEF79CB8F0
S31508009230FEB50446DFF8CC04455CA08866882F187E
S31508009240FF1CBE42134605DADFF8D024012151700F
S31508009250452030E0C01CDFF8BC24A08080B2525CF8
S315080092601946FFF7FAF848B3DFF89004DFF8887470
S315080092700688A3883868DB1E9B1B012202A900F01A
S3150800928027F8010017D1BDF808004FF6FF71091A33
S31508009290ADF800100122A38838689B1E9E1B00F0BB
S315080092A0E5F9010007D10898A1880180A0882D1842
S315080092B0A5800120FEBD06F081F90020FEBD000054
S315080092C066890208507700208485020801226946CB
S315080092D000EB4300FEF748B82DE9F84F84B0054681
S315080092E0894690461C46FAF7D3FFDFF834241388DC
S315080092F08DF804500127ADF80830B8F17F0F9DF8B6
S315080093000410BDF80800039508BF4FF000088DF853
S31508009310054081423FBFDFF8F813039A8B5C9845F6
S3150800932007D2DFF8F0138B5C9C4202D1B9F1000F2B
S3150800933003D140F6D901FFF758FC9DF804004146D1
S31508009340FFF7E4F801250646DFF8D8038179B6F871
S3150800935000A002291FBF817B0229807D022802D135
S31508009360432006F02BF9039ADFF88813885C002857
S3150800937033D09DF80400514600F0CEF8D9F8001015
S31508009380814257D0AAF1030000F09EF8DFF88C530B
S31508009390DDF80CC06C68DFF86C33628813F80C10C3
S315080093A0A088D21E521A824207DB30B1A86801880B
S315080093B08A45A4BF4088504572DBE8688179AC6865
S315080093C0022938D1442006F0F9F8E868817901299C
S315080093D031D0452006F0F2F853E09DF805404FF0ED
S315080093E0000B21E00BEBDB700AEB600000F044F9A0
S315080093F009EB0B0019F80B10407801EB0020611EF1
S315080094008B4507D1BDF8001001F0FF0100F0FF0001
S31508009410ADF8001080B2BDF8001088420BF10200CA
S3150800942018BF00255FFA80FBA345DBDB002D8DF80E
S315080094300540A7D03DE0A8688179012915D100200B
S31508009440FFF7E8FB002834D00020FFF739FE002894
S315080094502FD0B148BDF8083000789DF8041000EB0D
S315080094604300C01D424680B205E003290FD19DF88E
S31508009470041042460020FFF707FD10B100F01CF863
S31508009480B8B93846471EC0B2002810D111E00229E3
S315080094900CBF40F6C81140F6CA11FFF7A6FB08E054
S315080094A000F00AF828B93846471EC0B200287FF4EB
S315080094B044AF05B0BDE8F08F0096BDF806309DF8BC
S315080094C004104A462046B3E601220DF1060180B291
S315080094D0FEF7A2BF7CB50546002619240122694677
S315080094E0A8B2FEF799FFBDF800006D1C30B14FF425
S315080094F07F41401A07D0FF3803D006E0B61C641E29
S31508009500ECD170B276BD761CFBE7BDF80000C0B2A0
S3150800951000B9761CF643F4E738B50C4600217D4BB6
S31508009520009169461D5C2A4620466D1CFEF7C1FF60
S3150800953005EBD57504EB6504A0B2FFF7CBFF002851
S3150800954048BFC043009940B2401832BD6A89020834
