S02800004E43505F5553575F3131356B325F463235365F3639305F5031342D5031352D50302E73333716
S31500004000F06500204DFF02005DA700001DFB0200C9
S31500004010A70A0A010041000004180FAC0069B200AB
S31500004020000000000000000000000000000000008A
S31500004030000000001C050300000000000000000056
S315000040400000000000000000FFFFFFFFFFFFFFFF72
S31500004050FFFFFFFF007003000000000000000000EB
S31500004060FFFFFFFFFFFFFFFF100000000000000042
S31500004070000000000000000000000000000000003A
S315000040800000000000000000B07F0020B07F00208C
S31500004090F0650020891D0300D2FF0200905C00201D
S311000040A048310020000004000000000071
S31500004100F06500204DFF02005DA700001DFB0200C8
S31500004110B9B3000021FB020025FB020000000000ED
S315000041200000000000000000000000000F44000036
S3150000413029FB0200EF420000A3570000AB6000001D
S3150000414085B5000023A70200A9620000CDA10200E8
S3150000415051A7020029A702002BA7020025A70200EB
S315000041606B3B0100C53D01003BB00000D983000058
S3150000417031FB020031FB02000BFD020031FB0200A5
S3150000418031FB0200D33D010031FB020031FB02008E
S3150000419031FB020031FB020031FB020031FB020061
S315000041A031FB020031FB020031FB020053A7020083
S315000041B027A70200F130010083A7020031FB0200AD
S315000041C079FE020031FB020000420F48816B89B282
S315000041D001B1012141F67132826346F21A32036857
S315000041E043F001030360C2644FF480734360426985
S315000041F0D307FCD40022C264C9B203685B085B0023
S31500004200036001B182630020704708000E40000081
S315000042102DE9F84F8046DFF87C90FF22242148469E
S3150000422000F048F8DFF870B0FF224FF49571584659
S3150000423000F040F819481A4F1A4C00904FF0240A23
S315000042400026A25D1849BD5D885D521C02EBD27244
S31500004250521000B11932154830F816100098D21CC9
S315000042606A4300F06EF8012D1CBF2BF816A0AA4475
S31500004270761C242EE5DB24234FF480524FF4B061E4
S315000042800B4800F05EF849464046BDE8F44F00F0A2
S31500004290AEBB00BFDC6C00208C6D0020D4FF02009A
S315000042A010020300EC010300C801030080010300B3
S315000042B0F0FF020062F30F2262F31F4200B500BF57
S315000042C0130096469446103928BFA0E80C50FAD839
S315000042D05FEA417C28BF0CC048BF40F8042BC907E1
S315000042E028BF20F8022B48BF00F8012B00BD7047FD
S315000042F03D49087070472DE9F041160088463A4C52
S315000043001CD0A078677865683F1AFFB2F3B2BB424B
S31500004310B8BFF7B23A464146281801F033FAA378F7
S31500004320FB18F61BA370B844F0B238B1A11C28469E
S3150000433001F0A5FA0028E4D0012000E00020BDE845
S31500004340F0810EB430B5284D04462878A0B0B0B13F
S3150000435001F083FA98B1802168466970686002218D
S3150000436001F081FAA87023AB224600211F4801F014
S3150000437077FB6868A91C01F082FA00B9A87020B022
S3150000438030BC5DF810FB1A4800210022002380E8AB
S315000043900E007047164931F81020521C21F81020E3
S315000043A070470CB480B502AA01F08AFC01BC5DF826
S315000043B00CFB0D4A1178A1B9010018BF012810D0D5
S315000043C0042818BF05280CD0312818BF332808D078
S315000043D037281EBF3B284FF6FF71884201D00120C7
S315000043E07047002070470000A8740020F7420000C4
S315000043F0B0740020302818BF322806D034281CBFDD
S315000044003628382801D00020704701207047FEE783
S3150000441030B5DFF8485ADFF8484A2B882468C01AB6
S3150000442004EB4004002004E034F8103021F810308A
S31500004430401C9042F8DB002030BDDFF8203ADFF860
S31500004440201A1A880968801A01EB4001022001F03F
S315000044504DBDF8B504460F461646DFF8045AF0B2CD
S3150000446008B34FF6FF70ADF80000002017F8011BE7
S31500004470C3B2401C0DF80310761EC1B2022902DA3F
S31500004480F1B20029F2D1DFF8D4E92868BEF800308D
S315000044901FFA84FCACEB030300F01CFF641C010054
S315000044A0DDD000F0EBBB0120F2BDF8B504460D46A9
S315000044B01646F0B288B1012200F010F8641C002004
S315000044C0C2B2401C1DF80230761EC7B2022F05F894
S315000044D0013BEEDAF1B20029F2D1F1BD6946A0B294
S315000044E096E70146DFF87C09DFF87C29405C525CE0
S315000044F0DFF8C03B595C09B102F5997240EAC21077
S3150000450080B2704710B5DFF85C39DFF8AC2B1C5C65
S31500004510012C1CBF32F81000081802EB400010BD39
S3150000452070B590B005460C464FF6FF7604E0A8B28B
S31500004530FFF783FF203D2035A9B28C420DD3202200
S3150000454001F00AF8002082B23DF81230B342EED1F3
S31500004550401C81B22029F6DBEDE710B070BD10B526
S31500004560044661882088FFF7DBFF0121DFF84C2B2A
S31500004570DFF84C3BA171208811784118188801EBAF
S315000045804001891DA18010BD10B5DFF8384B00F041
S3150000459087F800F040F900F03BF9DFF8840C04F1ED
S315000045A00801446004F110028160C26010BD2DE96B
S315000045B0F0430446DFF8040B0778B946B9F1060F55
S315000045C085B003DD40F2DE2100F010FB0021A17171
S315000045D07A1C208892B201A9FFF71AFFBDF80410D1
S315000045E04FF6FF76B14218BF002910D00DF104082E
S315000045F0711A38F81900884209D101254D454BDA60
S3150000460038F8150040B1BDF80410884214D000F007
S3150000461047F805B0BDE8F083DFF8081C0A88208853
S3150000462012FB052141186A437118101889B280B22D
S31500004630FFF776FF0221A1716D1CDFE7208838188D
S3150000464000F08EFFBDF80200000B4845DFD1208840
S315000046503818401D00F085FFBDF80210BDF80200B5
S31500004660711A000A01F0FF018842D0D10320A0711F
S31500004670012220883F187F1C6946B8B2FFF7C8FEA2
S31500004680BDF80000FF2802D10421A171C1E7B042A4
S31500004690BFD00028BBD1BCE7A0790228CED1B8E7AD
S315000046A020465CE7F8B5DFF81C4ADFF8745B0020AB
S315000046B004F1080104F11002A071A073A075A960AD
S315000046C0EA606C602046FFF772FF04F10800FFF70E
S315000046D06EFF04F11000FFF76AFFA179A07BDFF8F7
S315000046E08067042908D100220428ADF8002046D1AD
S315000046F0FFF74AFF0120F2BDA17D04282BD100203F
S315000047000429ADF80000F3D0FFF7CAFF00F080F8E7
S315000047103068DFF8A869238900F080F8060040D1E8
S315000047200320A073A07903284AD1A07B032802D1D5
S31500004730A07D012863D0A07901284AD1A07B032857
S3150000474054D1A07D012818BF0328D1D104F1080057
S3150000475004F1100157E004292BD10020ADF8000028
S31500004760FFF79EFF00F057F83068DFF85069238A9C
S3150000477000F054F8060014D10320A07519E0A07DBE
S315000047800428B5D000F047F800F042F83068DFF8AA
S315000047902C69238800F042F8060002D10320A0719C
S315000047A00AE0304601F029FC1EB140F2D23100F099
S315000047B01DFAA0790328B5D1A07B0128B5D1B7E7AA
S315000047C00228B8D1A07B032804BFA07D01288FD181
S315000047D0BCE7032804BFA07B012889D1A07D03285C
S315000047E00BD104F11000214608340CE0022812BF58
S315000047F00128A07D0328F0D1F3E70228EDD1204659
S3150000480004F1080110346860EC60A9600020F2BD74
S3150000481004F11000A3E604F10800A0E63778DFF8FB
S315000048203C66FF1833887F1CFF1A0122694600EB9D
S31500004830470001F086BB2DE9FE4F0646DFF87C08EF
S31500004840DFF8888ADFF8889A0F460178ADF80810F5
S31500004850012234880C19641DFFF740FEDFF860184A
S31500004860BDF80000B1F800A0641C000AADF8000015
S3150000487050451CBF0121397000251AE0401CC1B209
S31500004880514514D25FFA80FB39F81B10BDF806209B
S315000048909142F3D1C0B2FFF724FEBDF804304FF6C3
S315000048A0807210401340984208BF08F80B506D1CE8
S315000048B0ADB2BDF80000854206DA022201A9FFF773
S315000048C00EFEA41C0020DAE70020D14601E0401CC1
S315000048D080B2484517DA18F800108142F7D0012057
S315000048E0387010E021F815A00DE00128DFF8C81790
S315000048F0F8D0BBF17F0F31F8150008BF4FF0000B61
S31500004900584421F810A0A1B27088C01E88424FF604
S31500004910FF7A28DB00F066F8BDF80200FF25504557
S3150000492021D0601C00F0D4FDBDF80200BDF80610D1
S31500004930AAEB0002914213D104F1030A040A00F023
S315000049407F0BBDF8000084420ADA002000E0401C1C
S31500004950484518DA18F80010A142F8D1C5B212E09D
S31500004960012038700DE0B4807088A1B2884208D367
S3150000497000F038F8BDF80200641C5045F4D001215F
S315000049803970BDE8F78F3088BDF80830181800EB8D
S315000049904400801D012201A980B2FFF739FDBDF850
S315000049A00400C0F3C710401C00EBD0700AEB600493
S315000049B07088A1B28842D3D3FF2DA4D0DFF8A40417
S315000049C0405DBBF17F0F14BF59460021814286DA54
S315000049D0BDF80210DFF8DC26535D0906C90F9942BF
S315000049E083D07CE701220DF10201A0B210E5F8B5F3
S315000049F08DF80000DFF8AC1BDFF86004DFF8C04676
S31500004A000288DFF8C00602800B884380DFF8AC36E8
S31500004A101D782188DFF8903BDFF8904BAA1802EB4F
S31500004A204102921D8280002282711A880281AA1890
S31500004A3002EB41022388DFF8784B4381921D828185
S31500004A4000228273DFF86C3B1A880282AA1802EBF6
S31500004A504101891D2388DFF8C847818243820021EE
S31500004A60817501F01DFB002853D12070FFF71AFE57
S31500004A709DF80010084318BF01208DF800000122A0
S31500004A80606800882818801CA11C80B2FFF7C0FC53
S31500004A909DF8000000283FD16068DFF81C76694663
S31500004AA0FFF7C9FEDFF8880B0688A068817903291D
S31500004AB024D16946FFF7BFFE6168DFF8A82300200E
S31500004AC012E0DFF8FC351B88984202DA135C012BF2
S31500004AD009D137F81030B1F800C0634524BFB1F8EA
S31500004AE002E09E450AD2401CB042EADB02208871F1
S31500004AF0A1686068E2686160A260E06000204FF62D
S31500004B00FF7200E0401CB04206DA37F810109142FE
S31500004B10F8D101208DF80000607828B1012100202D
S31500004B208DF80010607018E09DF8000090B960687C
S31500004B300388ED18ED1C01220DF10201A8B2FFF762
S31500004B4067FCBDF80200C0F30310012808BF8DF80A
S31500004B50000002D09DF80000B8B14D2001F04DFADA
S31500004B606088401C6080E068FFF7F9FC9DF8000053
S31500004B7000F051F838B100F085F820B19DF800003A
S31500004B8000F0A2FA08B90120F2BD0020F2BDF8B586
S31500004B900D46DFF82C1517467F2F0A8808BF002719
S31500004BA01E4695423EBFAF4B595D8F42044604D226
S31500004BB0AD4A535D9E4200D11CB940F2666100F0D9
S31500004BC015F839462846FFF79DFCDFF8641B038875
S31500004BD0485D28B11946284600F0C9FC2060F1BDA1
S31500004BE0324621461846BDE8F8405EE40FF67C30B2
S31500004BF001F05EBA38B5044608461146FFF782FC56
S31500004C00964D0388DFF82C1B28880A681B1A02EBCE
S31500004C104302226031BDF8B5DFF80416904CDFF888
S31500004C20B056002814BFC8688868DFF8901400885A
S31500004C300A788618B61DB6B2002701E0B61C7F1C9E
S31500004C40DFF87C0401888F4216DAF8B2FFF749FCD8
S31500004C50ADF80000B3B235F81700DFF8DCCABCF8CF
S31500004C6000E0ADF80200A3EB0E032068022200F07C
S31500004C7032FB0100E2D001E00120F2BD01F0BDF9F6
S31500004C800020F2BD2DE9F84FDFF83404DFF8902557
S31500004C900188D068DFF82424714C137884B000258D
S31500004CA0ADF808100188BDF80800CE1806EB4006DE
S31500004CB0B61DB6B200E06D1CBDF80800854280F254
S31500004CC0C2804FF0000A78E0BDF802105FFA8AF061
S31500004CD00143ADF802104FF6FF72BDF802005F49BE
S31500004CE00F88BDF80010121AADF804204FF6FF73B6
S31500004CF02068F21B761C994200EB4200B6B21DD129
S31500004D0000F0BBF801002BD12068F71B012201A996
S31500004D1000EB470001F015F9010021D1B61CB6B22F
S31500004D205148DFF8181AA8F80060425D51F82510BE
S31500004D303046FFF78EFB002838D18DE04A49495DA1
S31500004D40491C01EBD1714FEAC15900F096F80100F8
S31500004D5006D12068F31B012201A900F0BDFA01006B
S31500004D6077D1B61CB6B2D349A8F80060485D0028D2
S31500004D7043D0DFF8AC2410780021039128B103AAB0
S31500004D806946A8B201F090F905E0BDF80010E8B256
S31500004D9000F0EDFB0390F71B20684FEA196203A9A8
S31500004DA000EB470001F0CDF8010052D1DFF8900981
S31500004DB0415D7618B6B20AF1010A2A48475D5FFAE4
S31500004DC08AF1B942BFF477AFE8B2FFF79BFB8046A2
S31500004DD0B849B8F80000ADF80000485DC00140EAE7
S31500004DE00520012FADF802007FF46EAFBDF802007A
S31500004DF040F07F00ADF802006DE74FF000085FFA63
S31500004E0088FBBBEB196FD1DADFF814140878002899
S31500004E10BDF8000004D100F029F8FFF7F9FA03E025
S31500004E2000F024F801F03EF92068B344ABEB070329
S31500004E3001220DF1060100F04FFA010008BF08F14A
S31500004E400108DCD005E0DFF8D803C1688E800120B8
S31500004E5002E001F0D2F800202FE30000D60703009D
S31500004E603466002010020300EC010300411CADF87B
S31500004E70001001220DF10601704701220DF1020119
S31500004E8001F05FB82DE9F34F85B000218DF80310CE
S31500004E904FF00C09DFF8AC58BDF81810DFF8A86819
S31500004EA0DFF89C385B5C298835684C0891FBF9F97A
S31500004EB0A1444D45039302D3DB18039309E018265A
S31500004EC091FBF6F1641AA54203D303EB530189B2B1
S31500004ED003910025D24CADF806008DF8042000E0C1
S31500004EE06D1C774801888D4280F2CF80002687E0CE
S31500004EF0012202A91FFA88F0FFF78AFAA36804982C
S31500004F00DFF834E8B3F804C0BEF800300068DC44CB
S31500004F10ACEB0303012202A900F0DEF9010008F15F
S31500004F20010858D10AF1010A5FFA8AFBBBEB176F39
S31500004F30DEDB38E01A468DF80220BDF806309A18F6
S31500004F40ADF8062001235B4A8DF80330505DC3019E
S31500004F5043EA0523BAF1010FADF8003040F08B802B
S31500004F60BDF8002042F07F02ADF800208A88D21CEE
S31500004F708A800028DFF8BC17049100F08380414640
S31500004F80E8B200F0F4FAA368DFF8ACE702903A0E54
S31500004F9004989F88BEF800300068FB1A02A900F04A
S31500004FA09BF9010017D1BDF80000A368DFF88477EC
S31500004FB04FF6FF71091AADF808100122DFF87817CD
S31500004FC09B88B1F8008038689B1EA3EB080302A9F2
S31500004FD000F082F9010066D1A3689B883868DB1E61
S31500004FE0A3EB080300F076F901005CD1A068818884
S31500004FF0A9F8001082889DF8021051188180761C4D
S31500005000F1B2DFF8480710F805A05145BFF468AFC4
S31500005010E8B2FFF777FA8146DFF83407475DBDF857
S315000050201800B9F800807F1C07EBD777FF0585428B
S3150000503002BF9DF80410F0B28842E0D06068018893
S31500005040884524BF40884045D9D3BDF8061003984B
S31500005050814226DADFF8E826A168535DB1F804C07C
S3150000506048889C440CF103029042BFF663AF0120CE
S315000050706070452017E0BDF80030F2B21343ADF87A
S31500005080003073E74FF0000A4EE79DF8030040B981
S315000050906068022181716068A168E2686160A2604F
S315000050A0E060012002E000F0A8FF002007B0BDE8A4
S315000050B0F08F0000C80103008C6D0020EB1A03007E
S315000050C0C01A0300446900202DE9FE4F5FEA00097B
S315000050D0534DDFF8607614BFE868A868012201889E
S315000050E0DFF8700600880291C0F1FF0101F0FF01B0
S315000050F041EA0021ADF80210DFF85C06029990F84B
S3150000510000A0DFF834060688386801EB0A04631D40
S315000051109B1B0DF1020100F0DFF8010059D140F6AA
S31500005120227040EA0A30ADF80200E31C38689B1B87
S3150000513001220DF1020100F0CFF8010049D13868D3
S31500005140A31C9B1B0122A91C00EB430000F0F9FEE7
S3150000515001003ED1601CA0EB06085FEA09004FF68D
S31500005160FE7B07D0FF21ADF8021000F05DF80100CC
S315000051702FD109E06868008801226946FFF748F9DF
S31500005180BDF80000012802D1ADF800B002E0411ED2
S31500005190ADF800104FF6FF72BDF80000121AADF818
S315000051A00420A41B3868012201A900EB440000F08A
S315000051B0C8FE01000DD1029C5046A0F1010A80B242
S315000051C088B1386814FA8AF39B1B00F083F8010053
S315000051D0F2D000F012FF0020BDE8FE8FA968032080
S315000051E088710120F8E7B9F1000FF7D0E9680320CC
S315000051F088716868FFF7B3F9A868FFF7B0F9EA683D
S315000052006868A968AA60A8606960E8606A600020AA
S31500005210ADF80200E96000F007F80100D9D1E0E737
S31500005220BC740020D2070300012238680DF1020188
S3150000523000EB480000F085BEFEB50446DFF8000529
S31500005240455CA088134662882E18F61CB24205DA21
S31500005250DFF8082501215170452033E0C01CDFF836
S31500005260F024A08080B2525C1946FFF7F2F860B3D2
S31500005270DFF8C404DFF8BC740688A3883868DB1E30
S315000052809B1B012202A900F027F801001AD1BDF8E4
S3150000529008004FF6FF71091AADF800100122A38825
S315000052A038689B1E9E1B694600EB460000F049FECF
S315000052B0010007D10898A1880180A0884019A08024
S315000052C00120FEBD00F099FE0020FEBDDC6C002032
S315000052D0800103000122694600EB430000F031BE65
S315000052E02DE9F84F84B00546894690461C4601F0E4
S315000052F00DF8DFF8602413888DF804500127ADF807
S315000053000830B8F17F0F9DF80410BDF8080003952A
S3150000531008BF4FF000088DF8054081423FBFDFF817
S315000053202C14039A8B5C984507D2DFF824148B5C07
S315000053309C4202D1B9F1000F03D140F6DB01FFF721
S3150000534055FC9DF804004146FFF7DCF801250646AA
S31500005350DFF80C048179B6F800A002291FBF817B13
S315000053600229807D022802D1432000F046FE039ADE
S31500005370DFF8BC13885C002833D09DF80400514642
S3150000538000F0F5F8D9F80010814257D0AAF10300D1
S3150000539000F09EF8DFF8C453DDF80CC06C68DFF847
S315000053A0A033628813F80C10A088D21E521A8242CB
S315000053B007DB30B1A86801888A45A4BF40885045FC
S315000053C072DBE8688179AC68022938D1442000F0A4
S315000053D014FEE8688179012931D0452000F00DFEE0
S315000053E053E09DF805404FF0000B21E00BEBDB701E
S315000053F00AEB600000F05DF909EB0B0019F80B10E1
S31500005400407801EB0020611E8B4507D1BDF80010E6
S3150000541001F0FF0100F0FF00ADF8001080B2BDF80A
S31500005420001088420BF1020018BF00255FFA80FBCE
S31500005430A345DBDB002D8DF80540A7D03DE0A8682D
S315000054408179012915D10020FFF7E5FB002834D02A
S315000054500020FFF739FE00282FD0BF48BDF80850BE
S3150000546003789DF8041003EB4500C01D424680B248
S3150000547005E003290FD19DF8041042460020FFF7EE
S3150000548001FD10B100F01CF8B8B93846471EC0B28D
S31500005490002810D111E002290CBF40F6CA1140F6CF
S315000054A0CC11FFF7A3FB08E000F00AF828B938464C
S315000054B0471EC0B200287FF444AF05B0BDE8F08FA8
S315000054C00096BDF806309DF804104A462046B3E61D
S315000054D001220DF1060180B2FEF79ABFF8B5054626
S315000054E09E489D4F43681C883B78E01800F038F8CA
S315000054F0BDF802000026C0F30310012811D11924BB
S3150000550000F029F8BDF800006D1C30B14FF47F4162
S31500005510401A17D0FF3813D016E0B61C641EEFD120
S315000055200EE0192400F017F8BDF800006D1C20B13C
S315000055304FF6FF71884203D00BE0761C641EF1D152
S3150000554070B2F2BD761CFBE7BDF80000C0B200B930
S31500005550761CF643F4E701226946A8B2FEF758BF67
S31500005560C01C01220DF1020180B2FEF751BF38B511
S315000055700C460021764B009169461D5C2A46204662
S315000055806D1CFEF792FF05EBD57504EB6504A0B222
S31500005590FFF7A4FF0028009948BFC04341FA80F0F6
S315000055A032BD0000DA070300B81A0300BA1A030076
S315000055B0BE1A0300BC1A0300F8B5664A13880446EF
S315000055C06848254630F815609C4202D25849485D25
S315000055D018B940F68521FFF709FB5D494D5D681C4A
S315000055E000EBD07006EB6007B8B2FFF777FF034613
S315000055F0192B0FD20020DFF840C1DFF838E1ADF8F3
S31500005600000013FA87F7BCF80030DEF80000FFF759
S315000056100BF960B131462046FFF7A9FF00902B46F3
S31500005620401C00907F2269462046FFF759FEF1BDD7
S31500005630C21A03007CB5054647480678344621461B
S315000056404C1EC9B22888022925DB50FA84F000F0E6
S3150000565030F8BDF800000028F1D0434829880288B8
S31500005660E6B27243521890B2FEF7E7FE0020ADF89C
S31500005670000001222D882F48006875192E4E3388A8
S31500005680ED1A694600EB450000F05BFC01000ED008
S3150000569000F0B3FC0BE0FEF7D0FE0120A8712D4A06
S315000056A029881088891901EB4001891DA980E0B27B
S315000056B076BD0122694680B2FEF7AABE28488179E6
S315000056C0022908D0817B022908BF083003D0817DDA
S315000056D0022901D11030ADE7002070477CB50446A1
S315000056E01D48067800250CE0208850FA86F0FFF762
S315000056F0E0FFBDF8000000281EBF4FF6FF7188428C
S315000057006D1C3046461EC0B20028EDD1E8B276BD0B
S3150000571013488179022908D0817B022908BF083005
S3150000572003D0817D022901D11030D7E700207047D0
S31500005730C801030034660020D60703008404030072
S3150000574024000300CE07030020000300100203001C
S31500005750EC010300C01A0300EB1A0300BC7400201E
S31500005760446900208C6D0020D207030073696D2DFB
S31500005770656570726F6D322D696E7465726E616CDF
S315000057802E63000062B181423ABF5318984200F07E
S31500005790DFBD801813F8011D521E00F8011DF9D156
S315000057A07047FEE780B50121794800F091FE7948FF
S315000057B001210160002001F01EFA012304220221CA
S315000057C0052001F05CFA0120FEF792FD00F011F8C9
S315000057D0FEF7D9FD70490120087001F051FB012345
S315000057E040226E496E4801F016FB6E490860C00FF4
S315000057F002BD70B501220121042001F0B1F86A480A
S315000058006A4C01686A4D6B4E41F00101016000214E
S31500005810C26842F08072C260022267482060296036
S315000058203160664866490A6000F082FE6549664A4C
S31500005830664B0818B0FBF2F0401E18600021296480
S315000058404FF48072624863492065316062480260A5
S315000058502B6843F480732B6070BD5348006800B119
S315000058600120C0B27047D12202704170090A8170CE
S315000058705A490A78C2700420521C0A7070472DE9F2
S31500005880F24F84B0074608780024052868DB401DDF
S315000058908DF80000002601F023FB02904FF6FF78FA
S315000058A09DF80000DFF83891DFF804A13E4D019025
S315000058B003971DE003988019414610F8027C38468C
S315000058C001F086FB80465E463A480168CA070FD556
S315000058D0E86840F08070E860DAF8001041F4807102
S315000058E0CAF80010D9F800000028F1D089F8007035
S315000058F0296879B39DF80010F0B288422AD201F0E7
S31500005900EFFA0299401A80B240F2F512904226DA76
S31500005910F0B210B95B270126D6E7012804D19DF81D
S315000059200000471F0226CFE7019806F1010BF6B2E9
S31500005930C01E864208BF4746C5D00198801E8642D3
S3150000594008BF4FEA1827BED00198401E8642B1D143
S315000059505D27B8E79DF80000F6B2864200D0012424
S3150000596004990420087005B02046BDE8F08F80B584
S315000059700C4B186890B04022694601F033FA20B10A
S31500005980C2B26946122000F057FA11B000BD0000FD
S3150000599000250A0010881442767F0020B07300208C
S315000059A034060300BC670020F0ED00E0B00F00E015
S315000059B0000E00E0800E00E055CEACC506000E00DD
S315000059C0F00004E0FCAC0600F8590D00100004E0FD
S315000059D0FF0300400D000100040304E0757F002072
S315000059E0200000E070B5134610440BE001F00F06EE
S315000059F00909451E0A2EACBF37243024A4192846AF
S31500005A002C705B1EDCB2002CF0D1104470BDF0B5DA
S31500005A10002341B1002806D52D2313700123B0F1D0
S31500005A20004F18BF404200210024894D55F82470CC
S31500005A30002601E0C01B761CB842FBD2F7B20FB9B4
S31500005A400F0004D0D9B2303656545B1C0121641CB9
S31500005A50092CEBDBD9B2303050545B1CD8B2F0BD08
S31500005A602DE9F84F804696B014A8894615469B4600
S31500005A7004AF4FF0000A002401901EE00124054601
S31500005A800DE03429FAD15BF8046B0422310C384658
S31500005A90FFF7A8FF0422B1B2FFF7A4FF074601995A
S31500005AA08F4209D39DF800003F1A00F0C5F8002880
S31500005AB053D15AFA87FA04AF6D1C04A88DF800007A
S31500005AC09DF800002978381A00290BD0252903D023
S31500005AD014B907F8011BE2E7002C14BF00246D1C63
S31500005AE029780A0000F09B80B1F1250216D00B3A06
S31500005AF0092A40F28380283A7AD00A3A12D0521EF6
S31500005B0042D0521E5CD0083A5AD0121F3FD0D21E45
S31500005B103DD0921E54D0D21E6AD0C0E7252007F889
S31500005B20010BBCE704A8DBF80010DBF804208DF8B5
S31500005B3000000BF1080B3846039102920027029AE7
S31500005B409742ABD20399C95D0222FFF74BFF019939
S31500005B50884206D300F074F8002869D15AFA86FA0A
S31500005B6004A80299491E8F423CBF202200F8012B4F
S31500005B700199884206D300F063F8002858D15AFAF2
S31500005B8086FA04A87F1CDAE75BF8040BC7E75BF824
S31500005B90046B074600F050F8002849D15AFA87FAF4
S31500005BA004AF0022314600E0521CD6B2885D0028C0
S31500005BB0FAD1D2B24846C047002839D1B2446EE77E
S31500005BC06C290AD16A785BF8040B752A0EBF00218E
S31500005BD00121642A07D16D1C05E075295BF8040BC9
S31500005BE00CBF002101213A46FFF711FF074456E793
S31500005BF05BF8041B0222C9B238464DE768780124D7
S31500005C00782818BF5828F2D16D1C0024681E322946
S31500005C107FF437AF5BF8040B81B20422ECE705464C
S31500005C20EAB200F00AF818B9AA445FFA8AF000E06E
S31500005C30002017B0BDE8F08FFAB204A948464047E5
S31500005C409DF80020861AF2B204A948464047000093
S31500005C5010060300FFF78BBE03460A4695A10420F3
S31500005C60FFE70CB480B502AA00F02AF801BC5DF883
S31500005C700CFB000080B586B001F0E2FB8E4A009274
S31500005C800021692305910491039302910191024633
S31500005C905FF000038BA10120FFF7E3FF87488179BE
S31500005CA0028843790391029201930179C37882783D
S31500005CB00091422086A1FFF7D4FF07B000BD000087
S31500005CC02DE9F04786B007460C469146FEF771FB74
S31500005CD0002640BBFFF7C1FD28B30021002001F0DC
S31500005CE0F1FEADF80400F0B1002101A802F02AF897
S31500005CF0394602A8FFF7B7FD002C07463AD100F057
S31500005D0094F880B9BDF8040001F039FE8DF8000062
S31500005D10BDF8040001F01BFE6946FFF7B0FD10B1A7
S31500005D200420FEF737FB06B0BDE8F0878DF80810B3
S31500005D3001271EE0BDF8040001F021FE59F8045BBE
S31500005D408046A8B2A8B101F01AFE82460AEB080105
S31500005D50C9B201A801F0F6FF0028E4D15FFA8AF083
S31500005D6000900023BDF80400AAB25FFA88F102F0A1
S31500005D7075F8641C20780028C1D0A0F130010A29EA
S31500005D8004D20A2101FB0606303EF2E700F04DF888
S31500005D900028C8D121780027422902A80ED044291C
S31500005DA01AD0462925D057290DD06229C2D0662996
S31500005DB030D06C292BD070292CD0B7E759F8040BBA
S31500005DC08DF80800B4E759F8041B8DF8081002276F
S31500005DD00904090E4170CCE759F8041B8DF8081028
S31500005DE00B0A0A0C090E437082708DF80B100427FB
S31500005DF0BFE759F8048B404602F02CF9C2B20123E2
S31500005E00414601A801F0FAFE0028B2D08BE759F806
S31500005E10046BAEE759F8041B0123F2B201A801F0A6
S31500005E20EDFE002808BF0026EFE701233A4602A947
S31500005E3001A801F0E3BE00002DE9F841122885B063
S31500005E4004460D46904606D03A2808D04FF6FE7115
S31500005E50884220D026E0002002F036FB22E002F045
S31500005E60C9FD0646002003F013F90746002003F09B
S31500005E701AF9034604961048DFF84410B1F8E220F8
S31500005E8015A10390029200200190009700223B206A
S31500005E90FFF7E7FE06E000224146284601F078FEBD
S31500005EA000F0A0F842462946204606B0BDE8F0417B
S31500005EB0FEF7A0BA574600003C7A0020DC07030034
S31500005EC04C7A00204242387042424242570000005B
S31500005ED042424242574200005742425757387042A8
S31500005EE000000000DFF800F0F165002038B5044638
S31500005EF00D4603F089FF012C02D1FFF7F3FF02E004
S31500005F00284604F015F818B103F087FF012032BDCA
S31500005F1003F083FF002032BD80B58308800705D5D6
S31500005F204FF6FF7242EA0142009204E041F07F41DF
S31500005F3041F47F01009104226946980004F037F885
S31500005F4002BDF8B506460D4605F0010106F0010052
S31500005F500143144601D00120F2BD9CB132462B46C6
S31500005F60611C4FF6FF7C01E0921C9B1C491E0BD066
S31500005F70178867451CBF18880028F5D04B20F2BD4E
S31500005F8003F04BFF0020F2BD03F03EFF012C01D0D1
S31500005F90B00707D535F8021B3046FFF7BDFFC0B97D
S31500005FA0B61C641E022C0CD367087F007A002946B3
S31500005FB0304603F0FCFF60B906EB470605EB4705E4
S31500005FC0E41B002CDCD029883046FFF7A5FF00280B
S31500005FD0D6D003F022FFD1E770470020704700209B
S31500005FE07047704770470198704770477047704711
S31500005FF070477047702003F0FDBF70B50446433804
S315000060001E4D08D0401E012809D9801E01280ED930
S31500006010C01F32D02AE0BDE87040FFF74FBBFFF744
S3150000602077FB20B1FFF74AFB0028FBD170BD144E69
S31500006030307810BB01213170FEF7EAF8442C12D0FB
S315000060400CD3462C05D00ED3472C07D140F60100C1
S3150000605001E040F6020004F0D5FA04E04FF4957131
S31500006060284600F025F80020307070BD2846BDE8AF
S3150000607070404FF49E7100F01BB870BDC40603005B
S315000060807A7F00207047002070470020704701206B
S3150000609070470120704700207047704703F08EB8A4
S315000060A000207047012070477047FEE742DE7047C8
S315000060B038B504460D4603F08FF800F027F904F0D2
S315000060C0F5FA29462046FFF7C7FD2B4622466C49BE
S315000060D0012004F032FB29462046BDE83440E5E7BE
S315000060E068482DE9F843684E0168B1654FF42068A9
S315000060F0026A6649F2650B68336649687166426AE8
S31500006100B266816AF166C26A3267016B7167806B3B
S3150000611096F83810B06748074CBF346CF46B04F03F
S31500006120ABFA002232658442594B014624BFA3F1E3
S315000061302007A742A146716506F19002DFF854C117
S31500006140DFF854E118D3A0697064E469B464B56DEE
S31500006150C5F30805062D13D1704511D360450FD23E
S3150000616000884DF64264A0420AD17068B468506057
S31500006170946040F2017803E000247464B4648146BC
S315000061804648814202D2014600E0091D084698426F
S3150000619003D20C68B4F1CD3FF7D04149081AF06438
S315000061A00021002006F17C04C5B2401CC7B244F8A9
S315000061B02510062FF8D3002099452CD253F8041D3C
S315000061C07145F9D36145F7D2CC07F5D5002406F120
S315000061D07C0555F824708F4202D0641C062CF8D337
S315000061E0062CE9D1C4B2002C0CBF0520401E06F1D6
S315000061F07C04C5B244F82510DEE7F16F002306F1F2
S315000062007C0506EB8304D4F8804045F823405B1CEC
S31500006210042BF6D911600146481EC9B20029ECD1FB
S31500006220B06DC0F30800032810D0042811D005284B
S3150000623012D0062813D00C2817D0122818D11948C6
S315000062400268910719D540F2025816E040F6012877
S3150000625013E040F6022810E040F603280DE0B8F5FA
S31500006260206F0AD140F6042807E040F6052804E02E
S3150000627018B1322838BF40F607284046BDE8F283F9
S31500006280C400030004ED00E00000002000E300E08D
S31500006290F0650020D2FF0200104200009C000020A2
S315000062A0F06500201C20054004F058BA7FB5012196
S315000062B0204800F00DF901220121012000F050FBD9
S315000062C00421072004F04CFA1B4A92E8380069467C
S315000062D0032281E838000D218DF8081001268DF87B
S315000062E009208DF800608DF807606946134C20463A
S315000062F004F0B2FA124904200860022211496262CF
S315000063000860A26A42F00202A2627FBD0B4804F056
S3150000631097BAA52803D10021084804F078BA704737
S315000063200648006800F00100704707490868002821
S31500006330FCD1704730053E004401030000200540B3
S3150000634080E200E000E100E0082005404AB10000DC
S3150000635011F8013B521E00F8013B1CBF11F8013B2E
S31500006360F8E77047012101FA00F07047890001EB58
S31500006370401101F184410A607047890001EB401128
S3150000638001F184410868704710B50122DFF8B8159D
S31500006390884202D20022002407E0DFF8B0158842C6
S315000063A034BF4FF080744FF000741021DFF8A00561
S315000063B0FFF7DCFFDFF8C006016821F080710C43AF
S315000063C0046010BDDFF88C15DFF88C350A6802F022
S315000063D04072984238BF002204D3DFF8A0369842B4
S315000063E038BF0122086820F0407040EA0260086069
S315000063F0704738B500F013F841F67130286004F0A4
S3150000640070FA002105E038B500F009F841F671325E
S315000064102A60FFF7D7FF0CB10020286031BDDFF8F6
S3150000642060562C6804B101247047C01C0F2801D2A5
S31500006430000770474FF070407047000038B50446BB
S31500006440002500F053F9DFF83C26DFF810159442DA
S3150000645008D0DFF83426944206D0DFF8102694429E
S3150000646004D006E0086802E0486800E0886800F0AA
S315000064700700401E03281AD8DFE800F002050C08C2
S3150000648004F075FA04E004F078FA01E004F072FA18
S3150000649005460CE004F027FA0446DFF8DC0501683F
S315000064A0C1F30060401CFFF75DFFB4FBF0F5284622
S315000064B032BDDFF8AC164A68D30702D40A68024236
S315000064C0FCD1704780B500F0D1F8401C02BD000039
S315000064D070B50C460246110A01F00F010020491E54
S315000064E00929DFF8845613D8DFE801F005131212E4
S315000064F0071518121B1FDFF85854C2F3043608B1EB
S31500006500FFF7D7FF224631462846BDE870402DE703
S3150000651070BD1035F1E730350120EEE73835102033
S31500006520EBE740354FF48030E7E7DFF84056E4E725
S31500006530F8B50646DFF8E005DFF848250768DFF816
S315000065404815DFF82805DFF83045012516F47813DD
S3150000655065D0B3F5003F2BD0B3F5802F24D0B3F52B
S31500006560202F5CD0B3F5402F28D0B3F5602F4ED046
S31500006570B3F5801F77D0B3F5A01F2AD0B3F5B01FAF
S315000065802FD0B3F5D01F35D0B3F5F01F1FD0B3F51C
S31500006590001F2DD0B3F5101F36D0B3F5481F41D0DC
S315000065A0B3F5781F55D05DE004F09DF9E16802E08F
S315000065B004F099F9A168C1F3082104E004F093F905
S315000065C06169C1F30421491CB0FBF1F74BE01046A9
S315000065D01AE0FFF733FF0746206B00F00F00C740B5
S315000065E041E01046FFF72AFF216A01F00F0107E09C
S315000065F0084609E00846FFF721FFA16A01F00301FA
S315000066008D40B0FBF5F72EE0FFF718FF1FE0DFF82F
S31500006610600500F06BF8072825D0092822D104F080
S3150000662062F914E0DFF84C0500F060F804280CD09D
S31500006630072818D0082815D104F055F90746206810
S31500006640C0F30420401C47430DE004F068F90746F8
S3150000665009E004F048F904463046FFF733FFB4FB7F
S31500006660F0F700E000273846F2BD000001460B09AE
S3150000667003F00F0301205B1E092BDFF8FC2332D841
S31500006680DFE803F005070B11313113171F291068D6
S3150000669000E05069C0F3042070471168090E01F04C
S315000066A00101491C14E0D06800E09068C0F308209E
S315000066B07047DFF8C434994215D1116A01F00F0111
S315000066C006E0DFF8B83499420DD1916A01F0030172
S315000066D08840401E7047DFF8A804814203D1106B42
S315000066E000F00F007047002070470000014601F0DF
S315000066F00F010120491E0729DFF8882449D8DFE861
S3150000670001F0040F1348202E4836506A00F00700A7
S3150000671002283AD002D3042804D01CD3052070479F
S3150000672011690FE002207047516901F00701491E07
S3150000673003292FD8DFE801F00F020311F2E7062044
S315000067407047916901F00701012904D00229E9D0B7
S31500006750042902D07047032070470A207047116849
S3150000676011F001010FD0012914D109207047DFF87B
S3150000677018140A6802F03002102A04D0202A04D025
S31500006780302A04D07047072070470420704708203D
S31500006790704700207047000070B500F00F00032519
S315000067A00326401E0728DFF8DC430FD8DFE800F099
S315000067B0042D31752F5975640229DFF88C0106D036
S315000067C0032919D0042919D005291CD070BD042528
S315000067D0002601220121304600F0C2F8FFF709FE2B
S315000067E0656004F071F8044604F07DF8FFF7CCFD0F
S315000067F02046BDE870405EE00126EAE70225022653
S31500006800FFF7C2FDE5E70125FAE7103402E0183488
S3150000681000E01434012929D0022906D003290BD01F
S31500006820062910D00A291AD070BD012201210020A4
S3150000683000F096F802201AE001220121012000F062
S315000068408FF8012013E004F04EF8FFF79DFD0122BA
S315000068500021DFF81403FFF789FD032007E0042079
S3150000686005E0072902D0092903D070BD0020206069
S3150000687070BD0121216070BD012906D0042914D004
S3150000688007290BD0082914D070BD0020DFF8F812B4
S315000068900A6822F030021043086070BD012201210F
S315000068A0042000F05DF81020F0E700F006F8202044
S315000068B0ECE73020EAE70021A5E5012201210220CC
S315000068C04EE070B5044600F03DF80122002102209A
S315000068D000F046F8217CDFF8B8520020022929682A
S315000068E008BF0120490840EA4100286008212278B3
S315000068F02846FFF73BFD6968E07AC90840EAC1010E
S315000069006960607AA18840EAC120A860EE68207AB2
S31500006910FFF78BFDE288A17A06F07F6646EAC2267B
S31500006920227A0E4346EAC2160643EE60A17B607BDE
S31500006930227B090141EA0031E07B014341EA024141
S31500006940296170BD1120D1E60148E8010190D0030C
S3150000695000400E4004000E4041787D0180400E400C
S315000069602DE9F84F0428834692466DD8DFE800F0FB
S31500006970504B41034600012702200125002600292D
S31500006980DFF8E081824C61D0BBF1020F02BF2068C4
S31500006990C0F3011000284FF000090AD12068C10792
S315000069A04FF0010905D5206820F0300040F01000B6
S315000069B02060E763314600F05CF80028FAD0BAF1AF
S315000069C0000F41D000F054F80028FBD0BBF1020FB5
S315000069D03AD1B9F1000F37D02068C1071FD54FF45F
S315000069E08060C8F8180020212164022000F096F883
S315000069F019E00427082003250226C0E710272020D7
S31500006A0005250426BBE74027802007250626B6E78E
S31500006A104FF480774FF4007009250826AFE7002170
S31500006A20022000F07BF8D8F80C6001220021022039
S31500006A30FFF796FFC6F30A01022000F027F8E76386
S31500006A4000F016F80028FBD0BDE8F18FE063D8F817
S31500006A500000F040C107FAD4BAF1000FF4D0D8F81C
S31500006A600000E840C107FAD4EEE700000500240064
S31500006A7029464046FFF781BC00410E40015A62029A
S31500006A8040000E4002001E0003002000F8B5401E24
S31500006A900D46032805F07F063C4C314F3BD8DFE816
S31500006AA000F00228101CC5F308051A213846FFF726
S31500006AB064FC0028F9D12069400A45EA4025256191
S31500006AC0F1BD18213846FFF758FC0028F9D1206897
S31500006AD0C00946EAC0162660F1BD19213846FFF7FF
S31500006AE04CFC0028F9D1A068C00946EAC016A66089
S31500006AF0F1BD1C480168626922F0300242F01002C2
S31500006B006261C5F3C310FFF790FC226A21490A406F
S31500006B10154305432562F1BDA86700201C4A10688D
S31500006B20C0F30110002818BF002911D0202902D077
S31500006B3030290DD00FE04FF40000D16E01408142A4
S31500006B40FBD1400209D5D06F800A00F001007047E2
S31500006B504FF44000F1E71048EFE7012070470000CE
S31500006B6040410E4090400E40B0400E4050410E4015
S31500006B7006000E00B80032008006160090071A00C4
S31500006B80A009140070400E405C410E4010400E40BB
S31500006B9024400E4000F8FF0FFF03E107890001EBD8
S31500006BA0401101F184410A60704770B504460D46F4
S31500006BB0164603F0FBFE2168A94335400D432560C8
S31500006BC0BDE8704003F0F6BE10B500F00DF804F114
S31500006BD0806404E010B500F007F804F1C0640123F6
S31500006BE003FA01F1216010BD3022404B5043184496
S31500006BF000F10C0470473E490A68920840EA820098
S31500006C00086070472DE9F04101F00305164603249C
S31500006C100F21082E98460CD2B70000FA07F2B940A9
S31500006C203448FFF7C2FF05FA07F204FA07F13248C3
S31500006C300DE0A6F10802970000FA07F2B9402F48C6
S31500006C40FFF7B3FF05FA07F204FA07F12C482D4FB8
S31500006C50FFF7ABFF079C069D2B4842463146FFF7E0
S31500006C609DFF2A4631463846FFF798FF22463146B1
S31500006C700120B0403861BDE8F04124488EE7F8B500
S31500006C800546174638000E461C4607D0002C2846F7
S31500006C9002D0FFF79FFF01E0FFF796FF2A4630205C
S31500006CA01249424388180F22082E05D2B3004168C4
S31500006CB000F015F8416006E0A6F108039B00816824
S31500006CC000F00DF881604FB9002C3146284602D0FD
S31500006CD0BDE8F4407EE7BDE8F44075E7F1BD9A40B3
S31500006CE021EA020207FA03F11143704700A00040AF
S31500006CF044A4004000A4004008A4004004A40040AE
S31500006D000CA4004014A4004010A4004028A4004095
S31500006D1010B5DFF87041DFF87011E16103202061E2
S31500006D2060611022DFF86401A06122620021A16285
S31500006D30E16220660022DFF8580162621021606677
S31500006D40A1662267E26630A16267E31D0868DFF884
S31500006D504411186007222046FFF7F8FA2023A37192
S31500006D6010BDC11922464046FFF7F0BA2DE9F84397
S31500006D7000F031F808B9FFF7CBFF18204443281973
S31500006D8000F1600600243769F568BD420BD2B4688D
S31500006D907068E41B4C4588BF4C46FFF7E2FF00F0E5
S31500006DA013F808BF0027ED1B4D4588BF4D4635B18A
S31500006DB07068C1192A46FFF7D6FF2C19EF1904B1DE
S31500006DC037612046BDE8F283B168E7198F42A044D7
S31500006DD0A9EB04097047DFF8AC50044628788846CA
S31500006DE091467047F8B500F00AF800F00FF8FFF783
S31500006DF0BDFF0446384603F0E0FD2046F2BD0446DA
S31500006E000D46164603F0DCBD525454000746324682
S31500006E102946204670472DE9F84300F02AF808B9BC
S31500006E20FFF776FF03F0CCFD7269014600271823B1
S31500006E3006F1640C03FB07FE5CF80E0010B17F1C24
S31500006E409742F7DB97420BDA7B43F0180022046681
S31500006E504566C0F868800267C266C0F8749001E0B3
S31500006E604FF0FF37FFE7084603F0A7FD3846BDE8B9
S31500006E70F283044E044630780D4690469946704794
S31500006E8046E70000006C0020F07300204406030073
S31500006E9000740020500603007FB500F011F818B901
S31500006EA000F015F803F0C3FD04B070BD7FB500F027
S31500006EB007F818B900F00BF803F0D1FD04B070BD67
S31500006EC00446084615461E4602A903F0C5BE0899A3
S31500006ED0099800910190334602992A462046704748
S31500006EE080B500F00DF880B202BD80B500F008F85C
S31500006EF0FA21B0FBF1F080B202BD000000BF000035
S31500006F00E0B503F08EFE6A4603F0D8FE18B14C21B8
S31500006F102BA0FFF7CDF8DDE9000103B000BD0000AE
S31500006F2080B504F031F801211748FFF7D1FA03F0D4
S31500006F304DFD20B15FF0570121A0FFF7B9F8002001
S31500006F4002BD1249012008707047FEB504460025AF
S31500006F50216801B91EE000F00CF808B100F002F853
S31500006F6001201BE001950095002321683A46301D5B
S31500006F7092E7064E064F35700023009301953A4678
S31500006F80301D93E70000000030053E00EC74002041
S31500006F90436F000004F07AF80020FEBD04F044F9C7
S31500006FA0307840B92146301D03F0CCFD206803F04F
S31500006FB068FE852501E00020307020602846FEBD71
S31500006FC073797374656D2D74696D65722E63000037
S31500006FD00A0A42EA01225040C0F30311484080EAFF
S31500006FE0003041010206C9B2D20E41EA02214840F0
S31500006FF080B270474901020003D4DFF88804815447
S315000070007047DFF8843402F00F021A4402F8041CB9
S31500007010704730B500F007000123C0F10704042CC7
S315000070202EBF072403FA04F4641EC51C072D34BFC3
S315000070300020001F2140814003FA00F0401E10404E
S31500007040084330BD890001EB401101F184410A601B
S315000070507047002070470020704770473EB572B6F3
S3150000706003F024FBDFF82404DFF82444416921609F
S3150000707000F0C6F901466FF00B00FFF7BBFF00F00A
S31500007080BFF901466FF00A00FFF7B4FF00F0B8F948
S3150000709001466FF00900FFF7ADFF00F0A9F90146C0
S315000070A06FF00800FFF7A6FF00F0A2F901466FF0A7
S315000070B00700FFF79FFF00F09BF901466FF00600FF
S315000070C0FFF798FF00F094F901466FF00500FFF70F
S315000070D091FF0022022100F08DF901466FF00400B5
S315000070E0FFF788FF00F090F901466FF00300FFF705
S315000070F081FF00F07DF901466FF00200FFF77AFF8D
S315000071000022072100F076F901466FF00100FFF733
S3150000711071FF00F079F901464FF0FF30FFF76AFF83
S3150000712000F072F901460020FFF764FF00220321F8
S3150000713000F060F901460120FFF75CFF00F05CF902
S3150000714001460220FFF756FF00F05EF901460320D4
S31500007150FFF750FF00F058F901460420FFF74AFFF9
S3150000716000F052F901460520FFF744FF00F04CF904
S3150000717001460620FFF73EFF00F046F901460720CC
S31500007180FFF738FF00F040F901460820FFF732FF0D
S3150000719000F03AF901460920FFF72CFF00F034F918
S315000071A001460A20FFF726FF00F02EF901460B20C4
S315000071B0FFF720FF00F028F901460C20FFF71AFF21
S315000071C000F022F901460D20FFF714FF00F01CF92C
S315000071D001460E20FFF70EFF00F016F901460F20BC
S315000071E0FFF708FF00F010F901461020FFF702FF35
S315000071F000F00AF901461120FFF7FCFE00F004F941
S3150000720001461220FFF7F6FE00F0FEF801461320B5
S31500007210FFF7F0FE00F0F8F801461420FFF7EAFE4B
S3150000722000F0F2F801461520FFF7E4FE00F0ECF856
S3150000723001461620FFF7DEFE00F0E6F801461720AD
S31500007240FFF7D8FE00F0E0F801461820FFF7D2FE5F
S3150000725000F0DAF801461920FFF7CCFE00F0D4F86A
S3150000726001461A20FFF7C6FE00F0CEF801461B20A5
S31500007270FFF7C0FE00F0C8F801461C20FFF7BAFE73
S3150000728000F0C2F801461D20FFF7B4FE00F0BCF87E
S3150000729001461E20FFF7AEFE00F0B6F801461F209D
S315000072A0FFF7A8FE00F0B0F801462020FFF7A2FE87
S315000072B000F0A2F801462120FFF79CFE00F098F8A6
S315000072C001462220FFF796FE00F092F801462320A1
S315000072D0FFF790FE00F08CF801462420FFF78AFEA7
S315000072E000F086F801462520FFF784FE00F080F8BE
S315000072F001462620FFF77EFE00F07AF80146272099
S31500007300FFF778FE61684FF6FF00014041F0BF616C
S3150000731041F4013161604FF4E021E06840F400700F
S31500007320E060E06840F01000E060E16103F0AFFF6C
S3150000733004F044F8EFF30880001F56494FF0CD32B1
S3150000734001E040F804298842FBD25349534889B2E8
S3150000735004F086F862B65249524A0120086068462F
S31500007360146804F081F8240E8F2C10DA4E484F4C26
S31500007370016841F0040202604FF0501300223025EC
S315000073805543521C6351052AF9D9016000E006DC19
S3150000739047480168C909C90141F0200101609DF80B
S315000073A00100012804D14348016841F0040101604D
S315000073B000220D214048FFF745FE404901200860A4
S315000073C004F06CF804F0A8F90521684604F03CFACC
S315000073D001208DF80300684604F03DFB03F05AFED9
S315000073E0FFF79EFD03F072FE354804F00FFE37BD31
S315000073F0FF22FF2104200CE600220121042008E6DA
S3150000740000220021042004E600220421042000E6D4
S3150000741040F2016003F0F6B804F01ABE80B5002110
S315000074200B2004F00DFEBDE8014004F012BE00285A
S3150000743018BFFEF7DABDFEF7D9BD032004F083BE00
S3150000744010B503F0FCFF044603F0FDFFC0B220B9FF
S31500007450012C0BD144F0800010BD072CFAD8DFE8D0
S3150000746004F005040709090B0D0FF3E7002010BD12
S31500007470092010BD022010BD032010BD0B2010BD39
S31500007480062010BD00E400E018ED00E0004000001A
S3150000749008ED00E0905C0020A8300000A00000206D
S315000074A044000E40FC81E00FB0400E4000A00040BA
S315000074B02C400E4064310E4054300E4010300E40C9
S315000074C01407030010B5DFF84008DFF83818006825
S315000074D0DFF83828C860136848615B0800EB43048E
S315000074E00C6118B100F016F8652806D2BDE8104008
S315000074F0AF210FF63C00FEF7DBBD10BD10B5DFF87F
S3150000750004486069E268904202D2BF2100F09BFA0B
S3150000751060690CE010B5DFF8EC47206962699042BB
S3150000752002D2C52100F08FFA2069626900E0E268A4
S31500007530801A4FF6FE71084010BDDFF8C817CA68FA
S31500007540904203D34969884200F055BB002070473A
S3150000755080B510B1FFF7F1FF00B1012002BD30B1D7
S31500007560DFF8A027D168401A4010401C80B270474F
S31500007570010001D100207047DFF88817CA6802EBC6
S315000075804000801E70474088C0F30C00C01C800875
S315000075904000001D80B2704710B50446FFF7F3FFA8
S315000075A0DFF860174A6904EB40004FF6FF7490421B
S315000075B004D20388A34208BF801CF8D010BD2DE971
S315000075C0F843DFF840478046E08898B3B8F80200F1
S315000075D001042FD4DFF838770FF2487138680FF2BC
S315000075E0507904F0FBFD20B94FF4C6714846FEF70A
S315000075F05FFD002504E004F0F1FD88B16D1CADB21D
S31500007600E088854204DB4FF4C7714846FEF750FD1B
S31500007610A069396800EBC50630680028EBD13160F7
S31500007620B088401CB0804046FFF7ADFFF18801EB03
S315000076304000F080BDE8F18370B50446DFF8C4066B
S31500007640007801281AD12088FFF792FF050027D07D
S3150000765002262C462046FFF7B2FF608840F4004021
S31500007660608034F81600FFF783FF040002D06088BC
S315000076700104EFD5761C042E12D2EAE702280FD1B8
S3150000768003F09EF905462088FFF772FF18B10088BF
S31500007690C0F30E0020802846BDE8704003F08DB987
S315000076A070BDDFF860160A78022A08BFFFF7C4BF6C
S315000076B0704738B504460D46FFF765FF6188C1F38C
S315000076C00D0161804004020C21462846BDE8384081
S315000076D0FEF758B810B50C46A04205D241880A04F8
S315000076E002D4FFF759FFF7E710BD2DE9F14FDFF898
S315000076F014560020A88092B003F062F96A88ADF8AB
S3150000770000200121297000216A696980019203F035
S3150000771054F9E988A869C90004F096F86846FFF7A5
S315000077208BFF129848B1002401E08047641C129830
S31500007730E1B250F821000028F7D1EF6800244FF09D
S3150000774001080DF1080937E024B1641EE4B259F8C6
S3150000775024A003E000F0E0FABA460746BAF80200B1
S3150000776000F44041B1F5004F26D140F48040AAF81C
S3150000777002004FF0020B26465FFA8BF03AF8100033
S31500007780FFF7F6FE040010D0608801040DD440F423
S31500007790004060802046FFF712FF102EBDBF49F85B
S315000077A02640761CF6B24FF000080BF1010B5FFA8B
S315000077B08BF00428E0D33446019EB742C4D3002C94
S315000077C0C2D1B8F1000FB8D0EF68BB46B84615E095
S315000077D03846FFF7D8FE0446788801040BD558468C
S315000077E0FFF7BDFE398801F40041084338800BEBF2
S315000077F0440B07EB440800F08FFA0746B742E7D37D
S31500007800022028706846FFF717FF129848B1002635
S31500007810044601E08047761CF0B254F820000028A8
S31500007820F8D1EC68274613E04FF0020937F8190043
S31500007830FFF79EFE20B10088C0F30E0027F819005E
S3150000784009F10109B9F1040FF0D300F065FA074612
S315000078504745E9D30AE00446FFF79EFE4146FFF797
S3150000786039FFB842F7D3B7422ED1544644454AD2DF
S315000078702046FFF791FE002C8246F6D06088010470
S31500007880F3D500F05AF8A04204D16088C0F30D0089
S315000078906080EAE704D201462046FFF70AFFE4E7E4
S315000078A0264607E05046FFF777FE4146FFF712FFF0
S315000078B054468246C24507D2BAF80000C0F30E000D
S315000078C0FFF756FE8245EDD334B100F036F80100DD
S315000078D01CBF2046FFF7EDFE27463046C1E720468F
S315000078E0FFF751FE06465846FFF739FE0746720077
S315000078F021465846FDF746FF00223946684604F001
S3150000790095FC0BEB460B03F05BF806460021A81C22
S3150000791004F0E2FCFFF72CFE040006D1BDF80000DF
S3150000792068800021C5F814B02970304603F045F888
S31500007930002CD4D113B0BDE8F08F2088C0F30E0020
S3150000794016E680B5FFF714FEBDE8024000E610B566
S31500007950040012D0FFF7F5FF18B940F2794100F0A4
S3150000796072F82046FFF704FE38B101880A0402D5F2
S31500007970D0F80A0010BD083010BD002010BD10B5AB
S31500007980010013D0FFF7F4FD0446FFF7E1FD18B937
S3150000799040F2934100F057F844B12088010401D524
S315000079A0208910BD6088C0F30C0010BD002010BDFA
S315000079B02DE9F04100F044F804003FD0FFF7C8FD80
S315000079C00FF26C3718B940F2A64100F078F8284655
S315000079D0FFF7D5FF80462046FFF7DEFD4645054604
S315000079E02CD003DB40F2AE4100F069F82088010498
S315000079F048BF268122D466802046FFF7C4FD04EBEB
S31500007A00400402F0DDFFDFF8FC124A692E1BB6B215
S31500007A10954204BF4C61002602F0CFFF082E06D225
S31500007A2031462046BDE8F041FF2204F0C5BC0821DE
S31500007A30204603F015FDA6F108006080BDE8F08140
S31500007A4005460E4694E50FF2E820FEF731BB38B541
S31500007A500D46FFF78DFD04000AD0FFF779FD18B932
S31500007A6040F2EB41FFF7EFFF04EB4500808832BDA3
S31500007A70002032BDF8B50D461646FFF779FD040025
S31500007A800FF2AC2714D0FFF763FD18B940F2F641A8
S31500007A9000F015F83046FFF76BFDFFF759FD18B9F2
S31500007AA040F2F74100F00BF804EB45008680F1BD8B
S31500007AB03846BDE8F44040F2FA41FEF7F9BA3846D6
S31500007AC0FEF7F6BA2DE9F84F8846C11C8908DFF89B
S31500007AD0345249000027091D2E690FF2542AB0F5C9
S31500007AE0005F04461FFA81F904D340F2265150463E
S31500007AF0FEF7DEFA02F064FF83466969E86908B9B1
S31500007B00711A03E05FEA080202D0411A4E1009E03A
S31500007B10301A4010064680B220B940F24C51504609
S31500007B20FEF7C6FAB6B24E4514DB6F6907EB49009D
S31500007B306861E86928B1B8F1000F04BF00EB49009D
S31500007B40E86100207C80B880F88038800834298974
S31500007B5064182C81584602F030FF3846BDE8F24FD3
S31500007B60FDE4F8B504460D46164600210A20FFF747
S31500007B70A9FF0746FFF7FCFC48B10681C0F80A409A
S31500007B80018841F400410180C0F80E503846F2BD2C
S31500007B9070B504460D4611462846FFF793FF064684
S31500007BA03CB1300005D0FFF7D2FE2A462146FDF74C
S31500007BB0E9FD304670BD38B5044602F001FF0546C2
S31500007BC000222146534804F031FB2846BDE83240E6
S31500007BD002F0F3BE38B502F0F3FE044600214D482C
S31500007BE004F07AFB0546204602F0E7FE284632BD41
S31500007BF044484188481E8041C00F70472DE9FE4F1A
S31500007C0004468846208816469B46FFF7B1FC074681
S31500007C10FFF79EFC18B940F28C61FFF714FF388815
S31500007C200104354603D538892D183D8167E000F0FB
S31500007C3077F8019000F070F8814602F0C1FE0096D8
S31500007C408246304E706981451DD1FFF763FCA8421C
S31500007C5003D2504602F0B1FE21E001982D18BBF187
S31500007C60000F7D8008D02088FFF771FE019B009AE7
S31500007C7041461844FEF76AFB00F04EF87061504624
S31500007C8002F09BFE3BE0504602F097FE00F048F8FB
S31500007C902D180021A8B2FFF715FF070001D1182003
S31500007CA02EE000F03DF805462088FFF750FE064618
S31500007CB03846FFF74CFE2A463146FEF747FBBBF136
S31500007CC0000F384609D0FFF742FE00F028F8009A68
S31500007CD041462844FEF73AFB07E0FFF738FE00F07E
S31500007CE01EF80099284403F0BBFB20880121FFF70A
S31500007CF0AEFE024601213846FFF7BCFE2780002073
S31500007D00BDE8FE8FCC740020386700203C67002059
S31500007D105C690020CE7400203846FFF73DBC05465E
S31500007D2020882CE6756E636C61696D6564000000E1
S31500007D306275666665722D6D616E6167656D656EED
S31500007D40742E630038B504460D462088FFF717FEEB
S31500007D5029468842208803D3FFF72AFE002032BD39
S31500007D60FFF70DFE2D1AEAB2204601B0BDE83040FD
S31500007D7000230021FFF742BF2DE9F0410546884662
S31500007D8017461E464046FFF7E2FDC419300018BFED
S31500007D90002C1CD04046FFF7F2FDB919884202DAE2
S31500007DA01D2100F039F80698010003D1324621461C
S31500007DB0284604E0012832462946204603D1BDE87C
S31500007DC0F041FDF7DFBCBDE8F041FEF7BFBABDE804
S31500007DD0F08138B504460D46FFF7D1FD854202D342
S31500007DE02A2100F019F82046FFF7B1FD284432BDDC
S31500007DF070B505460E46FFF7AAFD040009D02846D1
S31500007E00FFF7BDFD864202D3322100F005F8A05DE2
S31500007E1070BD002070BD000088A0FEF749B970B59E
S31500007E2004460D461646FFF7AAFD854202D33C21BD
S31500007E30FFF7F2FF2046FFF78AFD00B1465570BDF9
S31500007E4038B50446FFF79BFD05462046FFF77FFD44
S31500007E502946BDE838400022FFF79ABEF8B5054628
S31500007E60069C0E461F461046FFF771FD074428463E
S31500007E70FFF76DFD224639463044BDE8F840FDF770
S31500007E8081BC70B500F02BF800F003F8301880B212
S31500007E9070BD060229462046AAE7E0B58DF8042003
S31500007EA00123120A8DF8052000930A460146022393
S31500007EB001A8FFF761FF07BDF8B500F010F8FFF75E
S31500007EC0E8FF8619E91CC9B2FFF7E5FF0702AD1CFA
S31500007ED0E9B2FFF7E0FFC01906EB0040F2BD0D4620
S31500007EE0691C0446C9B283E70EB430B504460021C6
S31500007EF080B2FFF7E7FD0546FFF729FD290008BF19
S31500007F0000200BD003A9002204E051F8043B00F83E
S31500007F10013B521CD3B2A342F7D3284630BC5DF8CE
S31500007F2010FBF8B505460E46174600212020FFF740
S31500007F30C9FDADF80000FFF70AFD0446BDF80000D4
S31500007F4060B13B4632462021601900F020F82D181A
S31500007F50E9B26846FFF7F6FEBDF80000F2BD1CB5B3
S31500007F6004AC009400F001F816BD10B514461A468C
S31500007F70029B2044091BBDE81040C9B207E00CB4BF
S31500007F8080B502AAFFF7CDFF02BC5DF80CFB2DE918
S31500007F90F04781464F460024884615469A460CE02F
S31500007FA0F6B23419444542DA32463846FDF7EAFB62
S31500007FB0BF19641E641CE4B26D1C444537DA287888
S31500007FC0A8B3312818BF32280ED15AF8041B07F877
S31500007FD0011B3228EED1641CE4B2A045A4BF0912ED
S31500007FE007F8011BE6DA22E034280ED1211D5AF8E3
S31500007FF0040B88451BDB3870020A010C000E7A70F0
S31500008000B970F8703F1DE41CD4E7A0F133035AF8A9
S31500008010041B072B38BFA0F13006C1D3A0F14103E2
S31500008020072B34BFA0F137065AF8046BB8E7A7EB65
S315000080300901C8B2BDE8F087000000006C65676101
S3150000804063792D7061636B65742D62756666657202
S315000080502E63000000F1010310F8011B11B110F8A6
S31500008060011BFBE7C01A7047010008D4012200F08B
S315000080701F01DFF814388A40400943F82020704772
S3150000808001000CD4012200F01F01DFF800388A40FD
S31500008090400943F82020BFF34F8FBFF36F8F70471F
S315000080A0010008D4012200F01F01DFF8E4378A40FE
S315000080B0400943F820207047C26C1143C1647047E1
S315000080C0012818BF202801D10120704700207047E1
S315000080D010B5012818BF2028DFF8B84705D040F2B0
S315000080E08311DFF8B407FDF7E3FF204610BD4268B1
S315000080F093884089411A8B4201DA0120704700209B
S3150000810070473EB50446FFF7DBFF98B3204600F004
S3150000811075F878B300F0A6FA044602F051FC05465D
S31500008120A06901AB6A4602A905F055F900992289B2
S31500008130206889B200F023F8284602F03EFCA069C8
S3150000814005F0C0F9012815D1226821899088228A74
S31500008150091A91420EDBA06990F83110022903D169
S3150000816005F037F9022803DAA06900F0A5FA01D173
S3150000817000F001F837BDA069002105F07CB970B5A3
S3150000818004460E46154602F01BFCE288B2420CD2AB
S3150000819021888B1A991991FBF5FC05FB1C15258086
S315000081A0A388F3189A1AA280E680BDE8704002F010
S315000081B004BCF8B504460D46164600F01FF8B0B1EB
S315000081C000F050FA0446207B10B101216173F1BD25
S315000081D0607B18B12046BDE8F240ABE00FF2BD1758
S315000081E000F006F818B100F003F80028FBD1F1BD45
S315000081F0A0693B463246294605F042BA012818BF17
S31500008200202801D1012070470020704770B506462E
S315000082100D46FFF75DFF012E18BF202E044643D101
S31500008220A069016890F83200E0B904228A6400F07F
S315000082303AF9A06900683DB10421FFF73DFF0B2024
S31500008240FFF712FF052107E0C16C21F00401C164AC
S315000082500B20FFF715FF0021A0690068BDE87040FC
S3150000826005F0C0BA0420486300F01DF9002DA0698E
S315000082700BD001688A6B42F004028A634FF40061F6
S31500008280DFF804261160052109E00068816B21F002
S31500008290040181630B20FFF7F3FEA069002100684B
S315000082A0BDE8704005F046BB70BD38B50446DFF842
S315000082B0EC0581421ED0DFF8DC55A869A04219D131
S315000082C02A89286899B2FFF75AFF28680021C180D9
S315000082D002E0284600F00FF8204605F07AF8032859
S315000082E008DA00F033FAF4DA2046BDE8344001211A
S315000082F005F0C1B831BD70B50446DFF8A435E08994
S31500008300668A2568024670432E18A06906F10801A0
S3150000831005F072F9A06905F05CF8012801DDFFF7A8
S315000083202AFF608AA18A401C90FBF1F201FB120031
S31500008330608270BDFEB50446207B68BB60680FF2A4
S315000083405D064188084400F10807A0696B4601AA4A
S3150000835002A905F05FF861688A880098019D121AE3
S31500008360551B4A88088890420ED26189A0698A1AEC
S315000083703346394605F084F970B9626861895088D8
S315000083806D1A451902F10807A0693346EAB2394663
S3150000839005F076F900B96073F7BD000070B5DFF837
S315000083A0F454A96981421C4615D168688188A142A6
S315000083B038BF848802F004FB69684A886B8912FA20
S315000083C084F292FBF3F603FB16224A8069688A88D8
S315000083D0141B8C80E9E670BD38B52020FFF778FEC7
S315000083E00546DFF8C004A96991F83120012A3FD17A
S315000083F001690A0640D505F065FA112809D1A86970
S31500008400002105F045F8002028732846BDE83240D3
S3150000841090E7132806D1A869012105F039F8012053
S31500008420287331BD29682A898C88141BA4B25CB1D3
S3150000843001F10802098850542868018800F07FF984
S3150000844001808188491C8180A86905F03BF820B924
S31500008450E889A04210DB012105E001280CD1288A19
S31500008460844209DB0021A869BDE8344005F003B861
S31500008470C16C21F00401C16431BD10B5DFF824449C
S3150000848028B92046BDE81040002105F0ABB900F040
S315000084900AF8DFF8F4134FF400600860E26C42F06B
S315000084A00402E26410BD0B20FAE580B530B9BDE8E0
S315000084B004400521DFF8EC0305F094B9FFF7F3FF5C
S315000084C0BDE802400B20DBE5F8B50C461546FFF784
S315000084D0FFFD0646306881883289E8B2121A914259
S315000084E001DB0120F2BD00270EE002F069FA3168D7
S315000084F014F8012B01F1080309885A547F1C3168CE
S315000085000A88338900F044F9AF42EED30020F2BD69
S3150000851080B5012818BF202806D1FFF7D9FD80694C
S3150000852004F0D0FF012800D0002002BD10B50128BC
S3150000853018BF20281CD1FFF7CBFD0446A06904F024
S3150000854020FF800414D56168888888B9A06904F082
S315000085505DFF002802BFA06990F83210002907D1FC
S3150000856004F00FFF00F44030401E8041C00F10BDE4
S31500008570002010BDF8B5012818BF202804460D4676
S3150000858038D100F0BDF910B9204600F06DF800F0C2
S3150000859069F8064600F066F8012C18BF202C29D190
S315000085A0DFF80413DFF8042301608023012C18BFD1
S315000085B0202C42600381438152D1012C16BF202C0E
S315000085C0DFF8EC020020012C18BF202CB06111D17D
S315000085D0DFF8E012DFF8E002E961A861A98CF18119
S315000085E0EB8C33828B4207D21C21304603F02CF9E8
S315000085F00220F2BD0120F2BDB26992F831000128D5
S315000086000CD0308990FBF1F701FB1700002802BF60
S3150000861093FBF1F001FB10310029E5D12946104604
S3150000862004F076FAE8B9B069017F007E01230222E0
S31500008630FEF725FB287C012807D101212046FFF7FC
S31500008640E5FDB069FFF798FD0AE0002070823189E8
S31500008650F08991FBF0F0B08200F04FF900F04DF98F
S315000086600020F2BD204633E558B5012818BF202862
S31500008670044611D100F044F9D8B9204600F01EF99D
S31500008680FFF7F0FF012C18BF202C06460DD1B0696C
S3150000869004F07DFD10B152BD012052BD00F00BF873
S315000086A003D100212046FFF7B1FD1C21304603F01F
S315000086B0CBF8002052BDB06990F8311001297047FF
S315000086C0F8B50128074618BF20280E463C460AD1B1
S315000086D0FFF7FEFC05463846FFF713FD2968888834
S315000086E018B92620F2BD0120F2BD02F069F907464D
S315000086F0286800F1080140880A5C327028684188C1
S3150000870000F01DF8418081884A1E012C18BF202CDC
S3150000871082800FD1A869FFF7CFFF03D10AE0284670
S31500008720FFF7E9FDA86904F054FE022802DA00F01A
S315000087300DF8F4DA384602F040F90020F2BD2A8935
S31500008740491C91FBF2F302FB131170472889E98952
S315000087502A68A0EB410091888842704780B5FFF7F0
S31500008760B7FC01464A6848899188401A80B202BD22
S3150000877002B5012818BF202804D10122694600F05D
S3150000878013F802BD012002BD41465046FFF711BD58
S31500008790521C92FBF3FC03FB1C220A808A88521CA3
S315000087A08A8002F00AB900002DE9F84F82460128B6
S315000087B01CBF202801208846914649D1FFF788FC36
S315000087C00446002660680188084400F1080B00276B
S315000087D027E002F0F5F861680B8818F8012B1944B8
S315000087E00A7261680A886389521C92FBF3FC03FBD8
S315000087F01C220A808A88521C8A8009884D1EAD4137
S3150000880002F0DBF8ED0F5DB1FDB26D1CAD1BEAB2F7
S315000088105946FFF7BAFF6068AE19F6B200F1080BC9
S315000088207F1CF8B248450AD200212046FFF75FFCBC
S315000088300028CED1207B0028F6D0222008E04E4525
S3150000884005DAA9EB060082B25946FFF79EFF002023
S31500008850BDE8F28FF8B501260746012F18BF202F75
S315000088600C4615460DD1FFF733FC012F18BF202FFC
S3150000887005D180692A46214604F026FE0646304682
S31500008880F2BD0120F2BD000000E100E080E100E061
S3150000889080E200E0C86F002070000300097000F05D
S315000088A0AB82000000000140B86E0020406F00203F
S315000088B0E46F0020B86600203866002070B50546D3
S315000088C0FFF706FC0646012D346818BF202D0BD194
S315000088D0FFF7F1FE08D0022104F0C9FC00207082E7
S315000088E000F00BF800F009F802F06AF80021A18008
S315000088F021806180E180FFF758BC3046FFF7FBBC62
S3150000890080B5012818BF202806D1FFF7E1FB002813
S315000089101CBF0068002801D1012002BD002002BD55
S3150000892020B5002192A2CBB2D35C834205D0491C6C
S31500008930CDB2082DF7D3002020BD012020BD0000B8
S3150000894020B500218CA2CBB2D35C834205D0491C52
S31500008950CDB2082DF7D3002020BD012020BD5E48F2
S31500008960B0F8E20070475D4870475D480078704790
S315000089705C48007870475B490870704738B55A49BB
S315000089805A4C087002285A495A4D13D1287804289F
S3150000899009D0084605F014F8287803281EBF0428D5
S315000089A0204605F00DF854480168CA0054BF9024CB
S315000089B0BC240FE000200870207005F064F92878C8
S315000089C0032818BF042802D105F068FA01E005F073
S315000089D074FD9124204605F0C7FD50B923461322A5
S315000089E03CA10320FBF7DDFC2046BDE8324006F043
S315000089F094BB31BD3C48007800F00F0070473A4800
S31500008A00017801F00F01022901D1012070470020F1
S31500008A10704710B504463448007800F00F0102296B
S31500008A201CBF0328932092B017D100F08FF8BDF831
S31500008A30020020819DF80100A07220469DF80010DA
S31500008A40E17207F0A3FD0020207304F1140104F184
S31500008A50100007F07BFEE081002012B010BD10B5BB
S31500008A600C462149097801F00F02022A1CBF03298E
S31500008A70932092B00ED16A46002108F0A1F89DF825
S31500008A8001002070002161709DF8000000F01F00B9
S31500008A90A070002012B010BD10B5002300E05B1CD2
S31500008AA0DCB28C4205D210F8014B9442F7D000207C
S31500008AB010BD012010BD082108F0DEBB0A48007871
S31500008AC001281CBF3128332801D10120704700201E
S31500008AD070470000424200004C7A0020307B0020A4
S31500008AE0907F00202F7E00208D7F00203870002090
S31500008AF0487700208C7F0020187A002038B504467D
S31500008B0092B02146002000F0B7FA0546C0B250B92F
S31500008B106A46002108F054F88DF801406A460021A3
S31500008B20002007F0D5FFE8B213B030BD80B592B093
S31500008B3000F00CF89DF9010013B000BD80B592B0AD
S31500008B4000F004F89DF8000013B000BD6A4600214D
S31500008B50002008F035B80120704780B592B0FFF7C5
S31500008B60F5FF9DF80000400918BF012013B000BDB5
S31500008B700001020304051D200203040508090A0B6F
S31500008B8038B5044603F05CFA0546DFF8FC0983783D
S31500008B900178994212D0DFF8F409806A641E07D082
S31500008BA0641E08D0A41E06D0A41E032C03D905E01B
S31500008BB00022194600E0002208F085FB284632BD57
S31500008BC02DE9DC4FDFF8C44903EA010BD4E9086755
S31500008BD027EA010926EA000802EA000A49EA0B091F
S31500008BE048EA0A08B94508BFB0450ED0CDE90023CA
S31500008BF0C4E908890246A06A0B4608F04DFE20B17A
S31500008C00BDE8DC4F40F2751102E2BDE8D38F78B5BE
S31500008C1089B002A80FF62411DFF870491C22FDF76F
S31500008C2095FBA08BC10700F190800121012000F087
S31500008C3029FF0A204FF428716073ADF80E10DFF893
S31500008C4050090FF6E901DFF84C5908F022FBA06243
S31500008C5018B940F2B91100F07AF8A06A052108F0B7
S31500008C6042FC18B140F2C11100F071F8A06A02F09E
S31500008C705BFCDFF824090168A06A08F07FFE00F0BB
S31500008C8051FA0C2610FB06F0ADF81A0000F04AFA6D
S31500008C9010FB06F0ADF8160002A9A06A08F094FED3
S31500008CA018B14FF4EB7100F052F8A06ADFF8EC1837
S31500008CB0002208F012FF18B14FF4ED7100F047F8EA
S31500008CC00320052120706170A170002600F0E2FFEC
S31500008CD0E07000F027FA142110FB01F0A08000F0EC
S31500008CE021FAC000E080A6604FF0FF30DFF8B02820
S31500008CF040F2A1130146FFF763FFA06ADFF8DC1A12
S31500008D0008F049FFA06A01A908F0CCFF18B140F2AB
S31500008D10052100F01CF8A06A0422694608F0E1FA71
S31500008D20042803D040F2092100F011F86946012019
S31500008D3008F0D9FF09F03CF9012000F055FF03F0D7
S31500008D407DF901F021F800F0D3FD0AB070BD284688
S31500008D50FDF7AEB938B5DFF83448A08B820703D5E6
S31500008D604FF4097100F0C7FA0021217501F028FEC1
S31500008D700546A08B410709D509F042F9216B401A37
S31500008D8040F2C532904201D300F071FA00F07FFF45
S31500008D90607B042820D101F013FE0546A08B410715
S31500008DA02BD400F074FF01F00BFE0546E06A401C70
S31500008DB009F028F900F020000128ACBF06200520A4
S31500008DC06073012100F058FA00F086FF00F05FFFA3
S31500008DD0E06AC178617431BD062830D1DFF8A80792
S31500008DE0C179FF2937D109F022F9207C20B301F09F
S31500008DF0E7FD0546A08B410706D504F1140004F0F3
S31500008E00DFFD284600F04CBE00F041FF207C411EED
S31500008E10217401F0D5FD0446012100F02DFA00F081
S31500008E205BFF204601F0C9FDBDE8384000224FF641
S31500008E30FF71042009F070B96073402007E0012833
S31500008E4009D100206073A06A08F045FA3F20BDE80A
S31500008E50324000F0F7BD31BD70B5DFF83047607BBA
S31500008E600E46154618B140F29A2100F044FA290040
S31500008E70E66203D0A17811B1012100E00021202093
S31500008E8000F000FEDFF8600A01782174002D14BF9F
S31500008E90E07B0020A0730420607304F1140004F04A
S31500008EA08FFDBDE87040DFF8F40A007804F085BE57
S31500008EB02DE9F04101F084FDDFF8D0568046A88BFD
S31500008EC0C10506D5687B10B900F012FD01E000F07F
S31500008ED08AF800210020FFF753FEDFF8AC66B07970
S31500008EE0FF27FF2818D0B07928B9B7710024687B0E
S31500008EF0052811D105E0B079B77101280CBF4C24C3
S31500008F00332400206873404601F057FD204600F0E8
S31500008F1099FD01F055FD8046687B062833D1F0792E
S31500008F20FF2830D0F079022804D105F1140004F0AE
S31500008F3047FD28E0F07900281CBFF079012826D1EA
S31500008F4000F0B2FD0446F079012818BF0020002188
S31500008F50002C297518BF0028F77109D00120687305
S31500008F60642105F1140004F036FD00F044FC0BE02A
S31500008F706973404601F021FD002C14BF3F200020FC
S31500008F8000F060FD03E0F771404601F016FDA88B86
S31500008F900006C00F05D00021802000F073FDFDF70C
S31500008FA07DF8FEF717FE0024E883D0B1687B012820
S31500008FB006D10021002029756873012407F064FF9B
S31500008FC0687B08B900F094FCE98B002007F08EFF5F
S31500008FD00020E8832CB1687B18B9BDE8F04107F0A2
S31500008FE083BFBDE8F08100214FF4807000F04ABDD8
S31500008FF080B5FEF7FDFD80E080B500F019F808F0B9
S315000090005DFD20B1BDE804404FF4697100E001BD8B
S31500009010DFF88005FDF74CB880B500F009F808F0D8
S315000090203EFD20B1BDE8044040F2AB31F0E701BDA2
S3150000903010460A46DFF8B4380146986A7047DFF8EA
S31500009040AC08417B481E8041C00F7047DFF89C0882
S31500009050417B012901D1012070470020704780B56E
S31500009060DFF82815487B18B140F2CB3100F043F900
S3150000907000F03EFC002002BD80B5DFF87038986A2B
S315000090800A2211FB02F108F03FFC00B1212002BDCB
S3150000909080B5DFF85818886A08F059FC0A2190FB59
S315000090A0F1F040B202BDDFF8E0040079704738B550
S315000090B0DFF8D854687B002818BF01280C4603D077
S315000090C04FF47B7100F017F92146002000F00FF8ED
S315000090D008B9212032BDDFF8B0140C71687B10B9D5
S315000090E000F006FC01E000F086FB002032BD80B5F2
S315000090F0DFF89804806A08F05BFA401E8041C00FD2
S3150000910002BDDFF8E817C870704780B5DFF8DC27C6
S31500009110906A012108F05EF9411000EB917080051C
S31500009120001602BD80B5DFF86414886A08F000FAFC
S3150000913000281FBFDFF81C1CB1FBF0F080B200282E
S3150000914008BF012002BD80B5DFF8A017886A08F0C5
S31500009150F3F900281FBFDFF8FC1BB1FBF0F080B26B
S31500009160002808BF012002BD10B50C46012100F001
S3150000917020F8FFF7D7FF4443DFF870070FF2E1331B
S31500009180806A0122214608F0CDF8002010BD10B5F6
S31500009190DFF85847A08BC20603D440F2594100F0CD
S315000091A0AAF800F005F8A06ABDE8104008F0C8B8B3
S315000091B00021102000F066BC08F022BF10B5DFF8D1
S315000091C02C47A06A08F05DFDC00704D5A06ABDE87B
S315000091D0104008F05BBD10BD80B5DFF81007806A4F
S315000091E00122012108F073F800212C20FFF7C8FCAA
S315000091F000F0F6FAFEF710F9BDE80240002000F094
S315000092002EBC38B5DFF8844348B100F030F8607BF7
S3150000921001282BD1A06ABDE8324008F05CB8A08BCB
S31500009220810723D50020A073DFF85C53A879FF28B7
S3150000923003D040F2EB4100F05EF800F01CF800208D
S31500009240A871617B062906D1012100F04CF90021A5
S315000092502820FFF795FC607B052806D100212B20EE
S31500009260FFF78EFCA06A08F036F85BE131BD0021FD
S31500009270042000F007BC0021022000F003BC38B532
S315000092800C4610B1FFF7F3FF2AE0DFF86056A88B13
S31500009290810725D5012C14D1A87B90B1401EA87357
S315000092A0C0B218B90021202000F0ECFBFFF7E3FF65
S315000092B00420687305F1140004F082FB00F004F941
S315000092C010E00020A873FFF7D6FFAF4DA879FF285E
S315000092D003D040F2225100F00EF8AC71FCF7DDFE2F
S315000092E0012C07D1BDE8384000224FF6FF7120203F
S315000092F008F012BF31BDA748FCF7DABE2DE9F843E6
S31500009300A24EDFF89092B06A8AB005AA032108F04F
S315000093103EFC0024050003D140F2415100F0DCF888
S315000093209DF8140007281FD1B06A01AA294608F043
S3150000933036FC18B140F24B5100F0CEF8BDF81610CD
S31500009340B06A891C01AA89B208F02DFC18B140F256
S31500009350555100F0C1F8BDF816000830012180B261
S31500009360FEF7B0FB804630B900F0E4FC014604206D
S31500009370FFF706FCA5E0FEF7EAFA0746BDF8163049
S31500009380B06A00943A46294608F02BFCBDF8161040
S31500009390884203D040F26D5100F09EF800F099F833
S315000093A000F007000228784D22D100F0C3FC0146E8
S315000093B00920FFF7E5FB707B062802BFF878717C71
S315000093C0884210D100F085F800F010000128A8BFEF
S315000093D0012421462920FFF7D3FB00F083F8EC7126
S315000093E000F062FB00286CD1B06A07F074FF68E0F9
S315000093F000F06FF800F0200001282EDB00F09AFC48
S315000094008146B06A08F015FF002814BF0620052023
S315000094104946FFF7B5FB00F05CF800F007000328AB
S315000094200AD109220121384608F00AFF385C0428CF
S3150000943008BF4FF0010900D0A1460121FFF718FF30
S3150000944008F0DEFDB9F1000F306312D0B08B410693
S315000094500FD500F044F801240BE000F06BFC014648
S315000094600920FFF78DFB707B012804BFB06A07F067
S3150000947032FFBDF8160069793E183170FF219DF85C
S315000094800E00B0709DF80F00F07031710198000C5D
S3150000949070710198000AB071002C0198F07178780B
S315000094A014BF40F0200000F0DF007870002007F0C5
S315000094B0A6FE70704046FEF77EFB00F005F8FCF74E
S315000094C0ECFD0BB0BDE8F083DFF8D004007804F0C3
S315000094D074BB781C08F096BD4846FCF7E9BD002130
S315000094E04020CFE200210820CCE238B500F051FA46
S315000094F06A7B062A03D040F24C6100F051FAA88B31
S31500009500010703D440F24D6100F04AFA297C2A2073
S31500009510FFF736FBFFF7E6FF1B490220C871A86A72
S3150000952007F0D9FEBDE83140FCF7B7BDDFF8881873
S315000095300020487301214FF48070A3E20000000070
S315000095400100000002020202640000006400000044
